{"contracts/SimpleSqudyCampaignManager.sol":{"SimpleSqudyCampaignManager":{"abi":[{"inputs":[{"internalType":"address","name":"_squdyToken","type":"address"}],"stateMutability":"nonpayable","type":"constructor"},{"anonymous":false,"inputs":[{"indexed":true,"internalType":"uint256","name":"campaignId","type":"uint256"},{"indexed":true,"internalType":"address","name":"creator","type":"address"},{"indexed":false,"internalType":"string","name":"title","type":"string"}],"name":"CampaignCreated","type":"event"},{"anonymous":false,"inputs":[{"indexed":true,"internalType":"uint256","name":"campaignId","type":"uint256"},{"indexed":true,"internalType":"address","name":"participant","type":"address"},{"indexed":false,"internalType":"uint256","name":"amount","type":"uint256"},{"indexed":false,"internalType":"uint256","name":"tickets","type":"uint256"}],"name":"StakeCreated","type":"event"},{"anonymous":false,"inputs":[{"indexed":true,"internalType":"uint256","name":"campaignId","type":"uint256"},{"indexed":false,"internalType":"uint256","name":"amount","type":"uint256"}],"name":"TokensBurned","type":"event"},{"anonymous":false,"inputs":[{"indexed":true,"internalType":"uint256","name":"campaignId","type":"uint256"},{"indexed":false,"internalType":"address[]","name":"winners","type":"address[]"}],"name":"WinnersSelected","type":"event"},{"inputs":[{"internalType":"uint256","name":"_campaignId","type":"uint256"}],"name":"burnCampaignTokens","outputs":[],"stateMutability":"nonpayable","type":"function"},{"inputs":[],"name":"campaignCounter","outputs":[{"internalType":"uint256","name":"","type":"uint256"}],"stateMutability":"view","type":"function"},{"inputs":[{"internalType":"uint256","name":"","type":"uint256"},{"internalType":"uint256","name":"","type":"uint256"}],"name":"campaignParticipants","outputs":[{"internalType":"address","name":"","type":"address"}],"stateMutability":"view","type":"function"},{"inputs":[{"internalType":"uint256","name":"","type":"uint256"}],"name":"campaigns","outputs":[{"internalType":"address","name":"creator","type":"address"},{"internalType":"string","name":"title","type":"string"},{"internalType":"string","name":"description","type":"string"},{"internalType":"uint256","name":"targetAmount","type":"uint256"},{"internalType":"uint256","name":"ticketPrice","type":"uint256"},{"internalType":"uint256","name":"startTime","type":"uint256"},{"internalType":"uint256","name":"endTime","type":"uint256"},{"internalType":"uint256","name":"maxParticipants","type":"uint256"},{"internalType":"bool","name":"isActive","type":"bool"},{"internalType":"bool","name":"winnersSelected","type":"bool"},{"internalType":"uint256","name":"totalParticipants","type":"uint256"},{"internalType":"uint256","name":"prizePool","type":"uint256"}],"stateMutability":"view","type":"function"},{"inputs":[{"internalType":"string","name":"_title","type":"string"},{"internalType":"string","name":"_description","type":"string"},{"internalType":"uint256","name":"_targetAmount","type":"uint256"},{"internalType":"uint256","name":"_ticketPrice","type":"uint256"},{"internalType":"uint256","name":"_startTime","type":"uint256"},{"internalType":"uint256","name":"_endTime","type":"uint256"},{"internalType":"uint256","name":"_maxParticipants","type":"uint256"},{"internalType":"uint256","name":"_prizePool","type":"uint256"}],"name":"createCampaign","outputs":[{"internalType":"uint256","name":"","type":"uint256"}],"stateMutability":"nonpayable","type":"function"},{"inputs":[{"internalType":"uint256","name":"_campaignId","type":"uint256"}],"name":"getCampaign","outputs":[{"components":[{"internalType":"address","name":"creator","type":"address"},{"internalType":"string","name":"title","type":"string"},{"internalType":"string","name":"description","type":"string"},{"internalType":"uint256","name":"targetAmount","type":"uint256"},{"internalType":"uint256","name":"ticketPrice","type":"uint256"},{"internalType":"uint256","name":"startTime","type":"uint256"},{"internalType":"uint256","name":"endTime","type":"uint256"},{"internalType":"uint256","name":"maxParticipants","type":"uint256"},{"internalType":"bool","name":"isActive","type":"bool"},{"internalType":"bool","name":"winnersSelected","type":"bool"},{"internalType":"uint256","name":"totalParticipants","type":"uint256"},{"internalType":"uint256","name":"prizePool","type":"uint256"}],"internalType":"struct SimpleSqudyCampaignManager.Campaign","name":"","type":"tuple"}],"stateMutability":"view","type":"function"},{"inputs":[{"internalType":"uint256","name":"_campaignId","type":"uint256"}],"name":"getCampaignParticipants","outputs":[{"internalType":"address[]","name":"","type":"address[]"}],"stateMutability":"view","type":"function"},{"inputs":[{"internalType":"uint256","name":"_campaignId","type":"uint256"}],"name":"getTotalStaked","outputs":[{"internalType":"uint256","name":"","type":"uint256"}],"stateMutability":"view","type":"function"},{"inputs":[{"internalType":"uint256","name":"_campaignId","type":"uint256"},{"internalType":"address","name":"_user","type":"address"}],"name":"getUserStake","outputs":[{"components":[{"internalType":"uint256","name":"amount","type":"uint256"},{"internalType":"uint256","name":"tickets","type":"uint256"},{"internalType":"uint256","name":"timestamp","type":"uint256"},{"internalType":"bool","name":"withdrawn","type":"bool"}],"internalType":"struct SimpleSqudyCampaignManager.Stake","name":"","type":"tuple"}],"stateMutability":"view","type":"function"},{"inputs":[{"internalType":"uint256","name":"","type":"uint256"},{"internalType":"address","name":"","type":"address"}],"name":"hasStaked","outputs":[{"internalType":"bool","name":"","type":"bool"}],"stateMutability":"view","type":"function"},{"inputs":[],"name":"owner","outputs":[{"internalType":"address","name":"","type":"address"}],"stateMutability":"view","type":"function"},{"inputs":[{"internalType":"uint256","name":"_campaignId","type":"uint256"},{"internalType":"address[]","name":"_winners","type":"address[]"}],"name":"selectWinners","outputs":[],"stateMutability":"nonpayable","type":"function"},{"inputs":[],"name":"squdyToken","outputs":[{"internalType":"contract IERC20","name":"","type":"address"}],"stateMutability":"view","type":"function"},{"inputs":[{"internalType":"uint256","name":"_campaignId","type":"uint256"},{"internalType":"uint256","name":"_amount","type":"uint256"}],"name":"stakeInCampaign","outputs":[],"stateMutability":"nonpayable","type":"function"},{"inputs":[{"internalType":"uint256","name":"","type":"uint256"},{"internalType":"address","name":"","type":"address"}],"name":"stakes","outputs":[{"internalType":"uint256","name":"amount","type":"uint256"},{"internalType":"uint256","name":"tickets","type":"uint256"},{"internalType":"uint256","name":"timestamp","type":"uint256"},{"internalType":"bool","name":"withdrawn","type":"bool"}],"stateMutability":"view","type":"function"},{"inputs":[{"internalType":"uint256","name":"","type":"uint256"}],"name":"totalStaked","outputs":[{"internalType":"uint256","name":"","type":"uint256"}],"stateMutability":"view","type":"function"}],"devdoc":{"kind":"dev","methods":{},"version":1},"evm":{"bytecode":{"linkReferences":{},"object":"60a0346100c757601f6118ae38819003918201601f19168301916001600160401b038311848410176100cc578084926020946040528339810103126100c757516001600160a01b038116908190036100c757801561009257608052600180546001600160a01b031916331790556040516117cb90816100e382396080518181816109ce0152818161113b015261122c0152f35b60405162461bcd60e51b815260206004820152600d60248201526c24b73b30b634b2103a37b5b2b760991b6044820152606490fd5b600080fd5b634e487b7160e01b600052604160045260246000fdfe6080604052600436101561001257600080fd5b60003560e01c8063141961bc146113a25780632f8899f31461116a57806335abd49b146113585780633ae274541461119657806341cb8c201461116a5780634eb53f99146111255780635598f8cc14610f395780638c6ab23814610eb65780638da5cb5b14610e8d5780639626a23014610dd6578063a9a3bba414610d67578063c17d1924146108f6578063ccf7c20a1461069f578063cf1ee2fa1461013c578063de360715146100ef5763fca604d7146100cc57600080fd5b346100ea5760003660031901126100ea576020600054604051908152f35b600080fd5b346100ea5760403660031901126100ea57610108611688565b600435600052600460205260406000209060018060a01b0316600052602052602060ff604060002054166040519015158152f35b346100ea576101003660031901126100ea5760043567ffffffffffffffff81116100ea5761016e90369060040161169e565b60243567ffffffffffffffff81116100ea5761018e90369060040161169e565b9080511561066c576044351561063657606435156105fa5742608435106105c35760843560a435111561058b576101c66000546116f5565b9081600055604051926101d8846114bf565b33845281602085015260408401526044356060840152606435608084015260843560a084015260a43560c084015260c43560e084015260016101008401526000610120840152600061014084015260e435610160840152816000526002602052604060002060018060a01b038451166bffffffffffffffffffffffff60a01b825416178155602084015180519067ffffffffffffffff82116104aa5781906102836001850154611485565b601f8111610538575b50602090601f83116001146104cb576000926104c0575b50508160011b916000199060031b1c19161760018201555b604084015193845167ffffffffffffffff81116104aa576102df6002840154611485565b95601f8711610463575b602096508690601f83116001146103ef579180600a9492610160946000926103e4575b50508160011b916000199060031b1c19161760028501555b606081015160038501556080810151600485015560a0810151600585015560c0810151600685015560e08101516007850155600884016103776101008301511515829060ff801983541691151516179055565b610120820151151561ff0082549160081b169061ff00191617905561014081015160098501550151910155817fc04c663886cae794dc52158f70fe6c8ee3b0140d4f48647282f9b693ff688a65604051858152806103d93395888301906115c0565b0390a3604051908152f35b01519050898061030c565b9060028501600052876000209160005b601f198516811061044c575092600a94926001926101609583601f19811610610433575b505050811b016002850155610324565b015160001960f88460031b161c19169055898080610423565b9192896001819286850151815501940192016103ff565b600284016000526020600020601f830160051c8101602084106104a3575b601f890160051c820181106104975750506102e9565b60008155600101610481565b5080610481565b634e487b7160e01b600052604160045260246000fd5b0151905086806102a3565b600185016000908152602081209350601f198516905b8181106105205750908460019594939210610507575b505050811b0160018201556102bb565b015160001960f88460031b161c191690558680806104f7565b929360206001819287860151815501950193016104e1565b909150600184016000526020600020601f840160051c810160208510610584575b90849392915b601f830160051c8201811061057557505061028c565b6000815585945060010161055f565b5080610559565b60405162461bcd60e51b815260206004820152601060248201526f496e76616c696420656e642074696d6560801b6044820152606490fd5b60405162461bcd60e51b815260206004820152600f60248201526e14dd185c9d081d1a5b59481c185cdd608a1b6044820152606490fd5b60405162461bcd60e51b8152602060048201526014602482015273496e76616c6964207469636b657420707269636560601b6044820152606490fd5b60405162461bcd60e51b815260206004820152600e60248201526d125b9d985b1a59081d185c99d95d60921b6044820152606490fd5b60405162461bcd60e51b815260206004820152600b60248201526a456d707479207469746c6560a81b6044820152606490fd5b346100ea5760403660031901126100ea5760043567ffffffffffffffff602480358281116100ea57366023820112156100ea5780600401359283116108e157600583811b91604051926020956106f7878301866114f8565b84528486850191830101913683116100ea578501905b8282106108c257505050841515806108b6575b61072990611704565b8460005260028452604060002060018060a01b039061074c82825416331461175b565b6006810154421115610880576008019283549660ff94858960081c166108495760005b8351811015610807578260005260048952604060002084518210156107f257858a83891b870101511660005289528660406000205416156107b8576107b3906116f5565b61076f565b60405162461bcd60e51b8152600481018a90526013818a01527257696e6e6572206469646e2774207374616b6560681b6044820152606490fd5b88634e487b7160e01b60005260326004526000fd5b5061ff001989166101001790556040517f5fa006001f7473b386c7bb4db093cb973ce5c895e51c3813bdbd723097d0349e90806108448582611644565b0390a2005b60405162461bcd60e51b8152600481018990526010818901526f15da5b9b995c9cc81cd95b1958dd195960821b6044820152606490fd5b60405162461bcd60e51b815260048101879052600f818701526e43616d706169676e2061637469766560881b6044820152606490fd5b50600054851115610720565b81356001600160a01b03811681036100ea57815290860190860161070d565b50634e487b7160e01b60009081526041600452fd5b346100ea5761090436611600565b9080151580610d5b575b61091790611704565b80600052602060028152604060002060ff60088201541615610d205760058101544210610ced57600601544211610cc1578215610c8c578160005260048152604060002033600052815260ff60406000205416610c57578160005260028152604060002090600782015480610c0f575b5060048201548015610bf9578404918215610bb4576040516323b872dd60e01b8152336004820152306024820152604481018690526001600160a01b0390838160648160007f000000000000000000000000000000000000000000000000000000000000000087165af1908115610ba857600091610b7b575b5015610b4457610a6d604051610a15816114dc565b8781526003858201878152604083014281526060840191600083528a600052838952604060002033600052895260406000209451855551600185015551600284015551151591019060ff801983541691151516179055565b846000526004835260406000203360005283526040600020600160ff19825416179055846000526005835260406000208054680100000000000000008110156104aa57610abf91600182018155611616565b819291549060031b9133831b921b191617905583600052600682526040600020908154868101809111610b2e576009925501610afb81546116f5565b90556040519384528301527ff234bd1a05f5a6f0b6af3f0c8bacad613635f0022e2ec2162717ef21a1591d6a60403393a3005b634e487b7160e01b600052601160045260246000fd5b60405162461bcd60e51b815260048101849052600f60248201526e151c985b9cd9995c8819985a5b1959608a1b6044820152606490fd5b610b9b9150843d8611610ba1575b610b9381836114f8565b810190611743565b87610a00565b503d610b89565b6040513d6000823e3d90fd5b60405162461bcd60e51b815260048101839052601860248201527f496e73756666696369656e7420666f72207469636b65747300000000000000006044820152606490fd5b634e487b7160e01b600052601260045260246000fd5b60098301541015610c205784610987565b6064906040519062461bcd60e51b82526004820152601060248201526f4d6178207061727469636970616e747360801b6044820152fd5b6064906040519062461bcd60e51b82526004820152600e60248201526d105b1c9958591e481cdd185ad95960921b6044820152fd5b6064906040519062461bcd60e51b82526004820152600e60248201526d125b9d985b1a5908185b5bdd5b9d60921b6044820152fd5b6064906040519062461bcd60e51b825260048201526005602482015264115b99195960da1b6044820152fd5b60405162461bcd60e51b815260048101839052600b60248201526a139bdd081cdd185c9d195960aa1b6044820152606490fd5b60405162461bcd60e51b815260048101839052601360248201527243616d706169676e206e6f742061637469766560681b6044820152606490fd5b5060005481111561090e565b346100ea5760403660031901126100ea57610d80611688565b600435600052600360205260406000209060018060a01b03166000526020526080604060002080549060018101549060ff6003600283015492015416916040519384526020840152604083015215156060820152f35b346100ea5760403660031901126100ea57610def611688565b60006060604051610dff816114dc565b8281528260208201528260408201520152600435600052600360205260406000209060018060a01b031660005260205260806040600020604051610e42816114dc565b815491828252600181015460208301908152606060ff600360028501549460408701958652015416930192151583526040519384525160208401525160408301525115156060820152f35b346100ea5760003660031901126100ea576001546040516001600160a01b039091168152602090f35b346100ea576020806003193601126100ea5760043560005260058152604060002090604051908181845491828152019360005281600020916000905b828210610f1957610f1585610f09818903826114f8565b60405191829182611644565b0390f35b83546001600160a01b031686529485019460019384019390910190610ef2565b346100ea5760203660031901126100ea576004356000610160604051610f5e816114bf565b82815260606020820152606060408201528260608201528260808201528260a08201528260c08201528260e0820152826101008201528261012082015282610140820152015280151580611119575b610fb690611704565b60005260026020526040600020600a60405191610fd2836114bf565b80546001600160a01b03168352610feb6001820161151a565b6020840152610ffc6002820161151a565b60408401526003810154606084015260048101546080840152600581015460a0840152600681015460c0840152600781015460e084015260ff6008820154818116151561010086015260081c1615156101208401526009810154610140840152015461016082015260405180916020825260018060a01b0381511660208301526101606110b361109d602084015161018060408701526101a08601906115c0565b6040840151858203601f190160608701526115c0565b9160608101516080850152608081015160a085015260a081015160c085015260c081015160e085015260e0810151610100850152610100810151151561012085015261012081015115156101408501526101408101518285015201516101808301520390f35b50600054811115610fad565b346100ea5760003660031901126100ea576040517f00000000000000000000000000000000000000000000000000000000000000006001600160a01b03168152602090f35b346100ea5760203660031901126100ea5760043560005260066020526020604060002054604051908152f35b346100ea576020806003193601126100ea57600435908115158061134c575b6111be90611704565b8160005260028152604060002060ff600860018060a01b03926111e584825416331461175b565b015460081c16156113105782600052600682526040600020549081156112df578260009160446040518094819363a9059cbb60e01b835261dead60048401528760248401527f0000000000000000000000000000000000000000000000000000000000000000165af1908115610ba8576000916112c2575b501561128f57907f8bc81353cf6671d259d22783e39ed930583c86f3f4cf7e981298e6a872dfb15d91604051908152a2005b60405162461bcd60e51b815260048101839052600b60248201526a109d5c9b8819985a5b195960aa1b6044820152606490fd5b6112d99150833d8511610ba157610b9381836114f8565b8461125d565b60405162461bcd60e51b81526004810184905260096024820152684e6f20746f6b656e7360b81b6044820152606490fd5b60405162461bcd60e51b815260048101839052601460248201527315da5b9b995c9cc81b9bdd081cd95b1958dd195960621b6044820152606490fd5b506000548211156111b5565b346100ea5761136636611600565b906000526005602052604060002080548210156100ea5760209161138991611616565b905460405160039290921b1c6001600160a01b03168152f35b346100ea5760203660031901126100ea57600435600090815260026020526040902080546001600160a01b03166113db6001830161151a565b916113e86002820161151a565b60038201549160ff600482015460058301546006840154600785015491600886015493611444600a6009890154980154986114366040519d8e9d8e528d6101809081602082015201906115c0565b8c810360408e0152906115c0565b9860608b015260808a015260a089015260c088015260e0870152818116151561010087015260081c1615156101208501526101408401526101608301520390f35b90600182811c921680156114b5575b602083101461149f57565b634e487b7160e01b600052602260045260246000fd5b91607f1691611494565b610180810190811067ffffffffffffffff8211176104aa57604052565b6080810190811067ffffffffffffffff8211176104aa57604052565b90601f8019910116810190811067ffffffffffffffff8211176104aa57604052565b906040519182600082549261152e84611485565b90818452600194858116908160001461159d575060011461155a575b5050611558925003836114f8565b565b9093915060005260209081600020936000915b8183106115855750506115589350820101388061154a565b8554888401850152948501948794509183019161156d565b91505061155894506020925060ff191682840152151560051b820101388061154a565b919082519283825260005b8481106115ec575050826000602080949584010152601f8019910116010190565b6020818301810151848301820152016115cb565b60409060031901126100ea576004359060243590565b805482101561162e5760005260206000200190600090565b634e487b7160e01b600052603260045260246000fd5b6020908160408183019282815285518094520193019160005b82811061166b575050505090565b83516001600160a01b03168552938101939281019260010161165d565b602435906001600160a01b03821682036100ea57565b81601f820112156100ea5780359067ffffffffffffffff82116104aa57604051926116d3601f8401601f1916602001856114f8565b828452602083830101116100ea57816000926020809301838601378301015290565b6000198114610b2e5760010190565b1561170b57565b60405162461bcd60e51b815260206004820152601060248201526f24b73b30b634b21031b0b6b830b4b3b760811b6044820152606490fd5b908160209103126100ea575180151581036100ea5790565b1561176257565b60405162461bcd60e51b815260206004820152600b60248201526a2737ba1031b932b0ba37b960a91b6044820152606490fdfea2646970667358221220c3b20597fa47d711886ebbe94240e2241fab7c2528beaf4b282d12e72f462a9164736f6c63430008140033","opcodes":"PUSH1 0xA0 CALLVALUE PUSH2 0xC7 JUMPI PUSH1 0x1F PUSH2 0x18AE CODESIZE DUP2 SWAP1 SUB SWAP2 DUP3 ADD PUSH1 0x1F NOT AND DUP4 ADD SWAP2 PUSH1 0x1 PUSH1 0x1 PUSH1 0x40 SHL SUB DUP4 GT DUP5 DUP5 LT OR PUSH2 0xCC JUMPI DUP1 DUP5 SWAP3 PUSH1 0x20 SWAP5 PUSH1 0x40 MSTORE DUP4 CODECOPY DUP2 ADD SUB SLT PUSH2 0xC7 JUMPI MLOAD PUSH1 0x1 PUSH1 0x1 PUSH1 0xA0 SHL SUB DUP2 AND SWAP1 DUP2 SWAP1 SUB PUSH2 0xC7 JUMPI DUP1 ISZERO PUSH2 0x92 JUMPI PUSH1 0x80 MSTORE PUSH1 0x1 DUP1 SLOAD PUSH1 0x1 PUSH1 0x1 PUSH1 0xA0 SHL SUB NOT AND CALLER OR SWAP1 SSTORE PUSH1 0x40 MLOAD PUSH2 0x17CB SWAP1 DUP2 PUSH2 0xE3 DUP3 CODECOPY PUSH1 0x80 MLOAD DUP2 DUP2 DUP2 PUSH2 0x9CE ADD MSTORE DUP2 DUP2 PUSH2 0x113B ADD MSTORE PUSH2 0x122C ADD MSTORE RETURN JUMPDEST PUSH1 0x40 MLOAD PUSH3 0x461BCD PUSH1 0xE5 SHL DUP2 MSTORE PUSH1 0x20 PUSH1 0x4 DUP3 ADD MSTORE PUSH1 0xD PUSH1 0x24 DUP3 ADD MSTORE PUSH13 0x24B73B30B634B2103A37B5B2B7 PUSH1 0x99 SHL PUSH1 0x44 DUP3 ADD MSTORE PUSH1 0x64 SWAP1 REVERT JUMPDEST PUSH1 0x0 DUP1 REVERT JUMPDEST PUSH4 0x4E487B71 PUSH1 0xE0 SHL PUSH1 0x0 MSTORE PUSH1 0x41 PUSH1 0x4 MSTORE PUSH1 0x24 PUSH1 0x0 REVERT INVALID PUSH1 0x80 PUSH1 0x40 MSTORE PUSH1 0x4 CALLDATASIZE LT ISZERO PUSH2 0x12 JUMPI PUSH1 0x0 DUP1 REVERT JUMPDEST PUSH1 0x0 CALLDATALOAD PUSH1 0xE0 SHR DUP1 PUSH4 0x141961BC EQ PUSH2 0x13A2 JUMPI DUP1 PUSH4 0x2F8899F3 EQ PUSH2 0x116A JUMPI DUP1 PUSH4 0x35ABD49B EQ PUSH2 0x1358 JUMPI DUP1 PUSH4 0x3AE27454 EQ PUSH2 0x1196 JUMPI DUP1 PUSH4 0x41CB8C20 EQ PUSH2 0x116A JUMPI DUP1 PUSH4 0x4EB53F99 EQ PUSH2 0x1125 JUMPI DUP1 PUSH4 0x5598F8CC EQ PUSH2 0xF39 JUMPI DUP1 PUSH4 0x8C6AB238 EQ PUSH2 0xEB6 JUMPI DUP1 PUSH4 0x8DA5CB5B EQ PUSH2 0xE8D JUMPI DUP1 PUSH4 0x9626A230 EQ PUSH2 0xDD6 JUMPI DUP1 PUSH4 0xA9A3BBA4 EQ PUSH2 0xD67 JUMPI DUP1 PUSH4 0xC17D1924 EQ PUSH2 0x8F6 JUMPI DUP1 PUSH4 0xCCF7C20A EQ PUSH2 0x69F JUMPI DUP1 PUSH4 0xCF1EE2FA EQ PUSH2 0x13C JUMPI DUP1 PUSH4 0xDE360715 EQ PUSH2 0xEF JUMPI PUSH4 0xFCA604D7 EQ PUSH2 0xCC JUMPI PUSH1 0x0 DUP1 REVERT JUMPDEST CALLVALUE PUSH2 0xEA JUMPI PUSH1 0x0 CALLDATASIZE PUSH1 0x3 NOT ADD SLT PUSH2 0xEA JUMPI PUSH1 0x20 PUSH1 0x0 SLOAD PUSH1 0x40 MLOAD SWAP1 DUP2 MSTORE RETURN JUMPDEST PUSH1 0x0 DUP1 REVERT JUMPDEST CALLVALUE PUSH2 0xEA JUMPI PUSH1 0x40 CALLDATASIZE PUSH1 0x3 NOT ADD SLT PUSH2 0xEA JUMPI PUSH2 0x108 PUSH2 0x1688 JUMP JUMPDEST PUSH1 0x4 CALLDATALOAD PUSH1 0x0 MSTORE PUSH1 0x4 PUSH1 0x20 MSTORE PUSH1 0x40 PUSH1 0x0 KECCAK256 SWAP1 PUSH1 0x1 DUP1 PUSH1 0xA0 SHL SUB AND PUSH1 0x0 MSTORE PUSH1 0x20 MSTORE PUSH1 0x20 PUSH1 0xFF PUSH1 0x40 PUSH1 0x0 KECCAK256 SLOAD AND PUSH1 0x40 MLOAD SWAP1 ISZERO ISZERO DUP2 MSTORE RETURN JUMPDEST CALLVALUE PUSH2 0xEA JUMPI PUSH2 0x100 CALLDATASIZE PUSH1 0x3 NOT ADD SLT PUSH2 0xEA JUMPI PUSH1 0x4 CALLDATALOAD PUSH8 0xFFFFFFFFFFFFFFFF DUP2 GT PUSH2 0xEA JUMPI PUSH2 0x16E SWAP1 CALLDATASIZE SWAP1 PUSH1 0x4 ADD PUSH2 0x169E JUMP JUMPDEST PUSH1 0x24 CALLDATALOAD PUSH8 0xFFFFFFFFFFFFFFFF DUP2 GT PUSH2 0xEA JUMPI PUSH2 0x18E SWAP1 CALLDATASIZE SWAP1 PUSH1 0x4 ADD PUSH2 0x169E JUMP JUMPDEST SWAP1 DUP1 MLOAD ISZERO PUSH2 0x66C JUMPI PUSH1 0x44 CALLDATALOAD ISZERO PUSH2 0x636 JUMPI PUSH1 0x64 CALLDATALOAD ISZERO PUSH2 0x5FA JUMPI TIMESTAMP PUSH1 0x84 CALLDATALOAD LT PUSH2 0x5C3 JUMPI PUSH1 0x84 CALLDATALOAD PUSH1 0xA4 CALLDATALOAD GT ISZERO PUSH2 0x58B JUMPI PUSH2 0x1C6 PUSH1 0x0 SLOAD PUSH2 0x16F5 JUMP JUMPDEST SWAP1 DUP2 PUSH1 0x0 SSTORE PUSH1 0x40 MLOAD SWAP3 PUSH2 0x1D8 DUP5 PUSH2 0x14BF JUMP JUMPDEST CALLER DUP5 MSTORE DUP2 PUSH1 0x20 DUP6 ADD MSTORE PUSH1 0x40 DUP5 ADD MSTORE PUSH1 0x44 CALLDATALOAD PUSH1 0x60 DUP5 ADD MSTORE PUSH1 0x64 CALLDATALOAD PUSH1 0x80 DUP5 ADD MSTORE PUSH1 0x84 CALLDATALOAD PUSH1 0xA0 DUP5 ADD MSTORE PUSH1 0xA4 CALLDATALOAD PUSH1 0xC0 DUP5 ADD MSTORE PUSH1 0xC4 CALLDATALOAD PUSH1 0xE0 DUP5 ADD MSTORE PUSH1 0x1 PUSH2 0x100 DUP5 ADD MSTORE PUSH1 0x0 PUSH2 0x120 DUP5 ADD MSTORE PUSH1 0x0 PUSH2 0x140 DUP5 ADD MSTORE PUSH1 0xE4 CALLDATALOAD PUSH2 0x160 DUP5 ADD MSTORE DUP2 PUSH1 0x0 MSTORE PUSH1 0x2 PUSH1 0x20 MSTORE PUSH1 0x40 PUSH1 0x0 KECCAK256 PUSH1 0x1 DUP1 PUSH1 0xA0 SHL SUB DUP5 MLOAD AND PUSH12 0xFFFFFFFFFFFFFFFFFFFFFFFF PUSH1 0xA0 SHL DUP3 SLOAD AND OR DUP2 SSTORE PUSH1 0x20 DUP5 ADD MLOAD DUP1 MLOAD SWAP1 PUSH8 0xFFFFFFFFFFFFFFFF DUP3 GT PUSH2 0x4AA JUMPI DUP2 SWAP1 PUSH2 0x283 PUSH1 0x1 DUP6 ADD SLOAD PUSH2 0x1485 JUMP JUMPDEST PUSH1 0x1F DUP2 GT PUSH2 0x538 JUMPI JUMPDEST POP PUSH1 0x20 SWAP1 PUSH1 0x1F DUP4 GT PUSH1 0x1 EQ PUSH2 0x4CB JUMPI PUSH1 0x0 SWAP3 PUSH2 0x4C0 JUMPI JUMPDEST POP POP DUP2 PUSH1 0x1 SHL SWAP2 PUSH1 0x0 NOT SWAP1 PUSH1 0x3 SHL SHR NOT AND OR PUSH1 0x1 DUP3 ADD SSTORE JUMPDEST PUSH1 0x40 DUP5 ADD MLOAD SWAP4 DUP5 MLOAD PUSH8 0xFFFFFFFFFFFFFFFF DUP2 GT PUSH2 0x4AA JUMPI PUSH2 0x2DF PUSH1 0x2 DUP5 ADD SLOAD PUSH2 0x1485 JUMP JUMPDEST SWAP6 PUSH1 0x1F DUP8 GT PUSH2 0x463 JUMPI JUMPDEST PUSH1 0x20 SWAP7 POP DUP7 SWAP1 PUSH1 0x1F DUP4 GT PUSH1 0x1 EQ PUSH2 0x3EF JUMPI SWAP2 DUP1 PUSH1 0xA SWAP5 SWAP3 PUSH2 0x160 SWAP5 PUSH1 0x0 SWAP3 PUSH2 0x3E4 JUMPI JUMPDEST POP POP DUP2 PUSH1 0x1 SHL SWAP2 PUSH1 0x0 NOT SWAP1 PUSH1 0x3 SHL SHR NOT AND OR PUSH1 0x2 DUP6 ADD SSTORE JUMPDEST PUSH1 0x60 DUP2 ADD MLOAD PUSH1 0x3 DUP6 ADD SSTORE PUSH1 0x80 DUP2 ADD MLOAD PUSH1 0x4 DUP6 ADD SSTORE PUSH1 0xA0 DUP2 ADD MLOAD PUSH1 0x5 DUP6 ADD SSTORE PUSH1 0xC0 DUP2 ADD MLOAD PUSH1 0x6 DUP6 ADD SSTORE PUSH1 0xE0 DUP2 ADD MLOAD PUSH1 0x7 DUP6 ADD SSTORE PUSH1 0x8 DUP5 ADD PUSH2 0x377 PUSH2 0x100 DUP4 ADD MLOAD ISZERO ISZERO DUP3 SWAP1 PUSH1 0xFF DUP1 NOT DUP4 SLOAD AND SWAP2 ISZERO ISZERO AND OR SWAP1 SSTORE JUMP JUMPDEST PUSH2 0x120 DUP3 ADD MLOAD ISZERO ISZERO PUSH2 0xFF00 DUP3 SLOAD SWAP2 PUSH1 0x8 SHL AND SWAP1 PUSH2 0xFF00 NOT AND OR SWAP1 SSTORE PUSH2 0x140 DUP2 ADD MLOAD PUSH1 0x9 DUP6 ADD SSTORE ADD MLOAD SWAP2 ADD SSTORE DUP2 PUSH32 0xC04C663886CAE794DC52158F70FE6C8EE3B0140D4F48647282F9B693FF688A65 PUSH1 0x40 MLOAD DUP6 DUP2 MSTORE DUP1 PUSH2 0x3D9 CALLER SWAP6 DUP9 DUP4 ADD SWAP1 PUSH2 0x15C0 JUMP JUMPDEST SUB SWAP1 LOG3 PUSH1 0x40 MLOAD SWAP1 DUP2 MSTORE RETURN JUMPDEST ADD MLOAD SWAP1 POP DUP10 DUP1 PUSH2 0x30C JUMP JUMPDEST SWAP1 PUSH1 0x2 DUP6 ADD PUSH1 0x0 MSTORE DUP8 PUSH1 0x0 KECCAK256 SWAP2 PUSH1 0x0 JUMPDEST PUSH1 0x1F NOT DUP6 AND DUP2 LT PUSH2 0x44C JUMPI POP SWAP3 PUSH1 0xA SWAP5 SWAP3 PUSH1 0x1 SWAP3 PUSH2 0x160 SWAP6 DUP4 PUSH1 0x1F NOT DUP2 AND LT PUSH2 0x433 JUMPI JUMPDEST POP POP POP DUP2 SHL ADD PUSH1 0x2 DUP6 ADD SSTORE PUSH2 0x324 JUMP JUMPDEST ADD MLOAD PUSH1 0x0 NOT PUSH1 0xF8 DUP5 PUSH1 0x3 SHL AND SHR NOT AND SWAP1 SSTORE DUP10 DUP1 DUP1 PUSH2 0x423 JUMP JUMPDEST SWAP2 SWAP3 DUP10 PUSH1 0x1 DUP2 SWAP3 DUP7 DUP6 ADD MLOAD DUP2 SSTORE ADD SWAP5 ADD SWAP3 ADD PUSH2 0x3FF JUMP JUMPDEST PUSH1 0x2 DUP5 ADD PUSH1 0x0 MSTORE PUSH1 0x20 PUSH1 0x0 KECCAK256 PUSH1 0x1F DUP4 ADD PUSH1 0x5 SHR DUP2 ADD PUSH1 0x20 DUP5 LT PUSH2 0x4A3 JUMPI JUMPDEST PUSH1 0x1F DUP10 ADD PUSH1 0x5 SHR DUP3 ADD DUP2 LT PUSH2 0x497 JUMPI POP POP PUSH2 0x2E9 JUMP JUMPDEST PUSH1 0x0 DUP2 SSTORE PUSH1 0x1 ADD PUSH2 0x481 JUMP JUMPDEST POP DUP1 PUSH2 0x481 JUMP JUMPDEST PUSH4 0x4E487B71 PUSH1 0xE0 SHL PUSH1 0x0 MSTORE PUSH1 0x41 PUSH1 0x4 MSTORE PUSH1 0x24 PUSH1 0x0 REVERT JUMPDEST ADD MLOAD SWAP1 POP DUP7 DUP1 PUSH2 0x2A3 JUMP JUMPDEST PUSH1 0x1 DUP6 ADD PUSH1 0x0 SWAP1 DUP2 MSTORE PUSH1 0x20 DUP2 KECCAK256 SWAP4 POP PUSH1 0x1F NOT DUP6 AND SWAP1 JUMPDEST DUP2 DUP2 LT PUSH2 0x520 JUMPI POP SWAP1 DUP5 PUSH1 0x1 SWAP6 SWAP5 SWAP4 SWAP3 LT PUSH2 0x507 JUMPI JUMPDEST POP POP POP DUP2 SHL ADD PUSH1 0x1 DUP3 ADD SSTORE PUSH2 0x2BB JUMP JUMPDEST ADD MLOAD PUSH1 0x0 NOT PUSH1 0xF8 DUP5 PUSH1 0x3 SHL AND SHR NOT AND SWAP1 SSTORE DUP7 DUP1 DUP1 PUSH2 0x4F7 JUMP JUMPDEST SWAP3 SWAP4 PUSH1 0x20 PUSH1 0x1 DUP2 SWAP3 DUP8 DUP7 ADD MLOAD DUP2 SSTORE ADD SWAP6 ADD SWAP4 ADD PUSH2 0x4E1 JUMP JUMPDEST SWAP1 SWAP2 POP PUSH1 0x1 DUP5 ADD PUSH1 0x0 MSTORE PUSH1 0x20 PUSH1 0x0 KECCAK256 PUSH1 0x1F DUP5 ADD PUSH1 0x5 SHR DUP2 ADD PUSH1 0x20 DUP6 LT PUSH2 0x584 JUMPI JUMPDEST SWAP1 DUP5 SWAP4 SWAP3 SWAP2 JUMPDEST PUSH1 0x1F DUP4 ADD PUSH1 0x5 SHR DUP3 ADD DUP2 LT PUSH2 0x575 JUMPI POP POP PUSH2 0x28C JUMP JUMPDEST PUSH1 0x0 DUP2 SSTORE DUP6 SWAP5 POP PUSH1 0x1 ADD PUSH2 0x55F JUMP JUMPDEST POP DUP1 PUSH2 0x559 JUMP JUMPDEST PUSH1 0x40 MLOAD PUSH3 0x461BCD PUSH1 0xE5 SHL DUP2 MSTORE PUSH1 0x20 PUSH1 0x4 DUP3 ADD MSTORE PUSH1 0x10 PUSH1 0x24 DUP3 ADD MSTORE PUSH16 0x496E76616C696420656E642074696D65 PUSH1 0x80 SHL PUSH1 0x44 DUP3 ADD MSTORE PUSH1 0x64 SWAP1 REVERT JUMPDEST PUSH1 0x40 MLOAD PUSH3 0x461BCD PUSH1 0xE5 SHL DUP2 MSTORE PUSH1 0x20 PUSH1 0x4 DUP3 ADD MSTORE PUSH1 0xF PUSH1 0x24 DUP3 ADD MSTORE PUSH15 0x14DD185C9D081D1A5B59481C185CDD PUSH1 0x8A SHL PUSH1 0x44 DUP3 ADD MSTORE PUSH1 0x64 SWAP1 REVERT JUMPDEST PUSH1 0x40 MLOAD PUSH3 0x461BCD PUSH1 0xE5 SHL DUP2 MSTORE PUSH1 0x20 PUSH1 0x4 DUP3 ADD MSTORE PUSH1 0x14 PUSH1 0x24 DUP3 ADD MSTORE PUSH20 0x496E76616C6964207469636B6574207072696365 PUSH1 0x60 SHL PUSH1 0x44 DUP3 ADD MSTORE PUSH1 0x64 SWAP1 REVERT JUMPDEST PUSH1 0x40 MLOAD PUSH3 0x461BCD PUSH1 0xE5 SHL DUP2 MSTORE PUSH1 0x20 PUSH1 0x4 DUP3 ADD MSTORE PUSH1 0xE PUSH1 0x24 DUP3 ADD MSTORE PUSH14 0x125B9D985B1A59081D185C99D95D PUSH1 0x92 SHL PUSH1 0x44 DUP3 ADD MSTORE PUSH1 0x64 SWAP1 REVERT JUMPDEST PUSH1 0x40 MLOAD PUSH3 0x461BCD PUSH1 0xE5 SHL DUP2 MSTORE PUSH1 0x20 PUSH1 0x4 DUP3 ADD MSTORE PUSH1 0xB PUSH1 0x24 DUP3 ADD MSTORE PUSH11 0x456D707479207469746C65 PUSH1 0xA8 SHL PUSH1 0x44 DUP3 ADD MSTORE PUSH1 0x64 SWAP1 REVERT JUMPDEST CALLVALUE PUSH2 0xEA JUMPI PUSH1 0x40 CALLDATASIZE PUSH1 0x3 NOT ADD SLT PUSH2 0xEA JUMPI PUSH1 0x4 CALLDATALOAD PUSH8 0xFFFFFFFFFFFFFFFF PUSH1 0x24 DUP1 CALLDATALOAD DUP3 DUP2 GT PUSH2 0xEA JUMPI CALLDATASIZE PUSH1 0x23 DUP3 ADD SLT ISZERO PUSH2 0xEA JUMPI DUP1 PUSH1 0x4 ADD CALLDATALOAD SWAP3 DUP4 GT PUSH2 0x8E1 JUMPI PUSH1 0x5 DUP4 DUP2 SHL SWAP2 PUSH1 0x40 MLOAD SWAP3 PUSH1 0x20 SWAP6 PUSH2 0x6F7 DUP8 DUP4 ADD DUP7 PUSH2 0x14F8 JUMP JUMPDEST DUP5 MSTORE DUP5 DUP7 DUP6 ADD SWAP2 DUP4 ADD ADD SWAP2 CALLDATASIZE DUP4 GT PUSH2 0xEA JUMPI DUP6 ADD SWAP1 JUMPDEST DUP3 DUP3 LT PUSH2 0x8C2 JUMPI POP POP POP DUP5 ISZERO ISZERO DUP1 PUSH2 0x8B6 JUMPI JUMPDEST PUSH2 0x729 SWAP1 PUSH2 0x1704 JUMP JUMPDEST DUP5 PUSH1 0x0 MSTORE PUSH1 0x2 DUP5 MSTORE PUSH1 0x40 PUSH1 0x0 KECCAK256 PUSH1 0x1 DUP1 PUSH1 0xA0 SHL SUB SWAP1 PUSH2 0x74C DUP3 DUP3 SLOAD AND CALLER EQ PUSH2 0x175B JUMP JUMPDEST PUSH1 0x6 DUP2 ADD SLOAD TIMESTAMP GT ISZERO PUSH2 0x880 JUMPI PUSH1 0x8 ADD SWAP3 DUP4 SLOAD SWAP7 PUSH1 0xFF SWAP5 DUP6 DUP10 PUSH1 0x8 SHR AND PUSH2 0x849 JUMPI PUSH1 0x0 JUMPDEST DUP4 MLOAD DUP2 LT ISZERO PUSH2 0x807 JUMPI DUP3 PUSH1 0x0 MSTORE PUSH1 0x4 DUP10 MSTORE PUSH1 0x40 PUSH1 0x0 KECCAK256 DUP5 MLOAD DUP3 LT ISZERO PUSH2 0x7F2 JUMPI DUP6 DUP11 DUP4 DUP10 SHL DUP8 ADD ADD MLOAD AND PUSH1 0x0 MSTORE DUP10 MSTORE DUP7 PUSH1 0x40 PUSH1 0x0 KECCAK256 SLOAD AND ISZERO PUSH2 0x7B8 JUMPI PUSH2 0x7B3 SWAP1 PUSH2 0x16F5 JUMP JUMPDEST PUSH2 0x76F JUMP JUMPDEST PUSH1 0x40 MLOAD PUSH3 0x461BCD PUSH1 0xE5 SHL DUP2 MSTORE PUSH1 0x4 DUP2 ADD DUP11 SWAP1 MSTORE PUSH1 0x13 DUP2 DUP11 ADD MSTORE PUSH19 0x57696E6E6572206469646E2774207374616B65 PUSH1 0x68 SHL PUSH1 0x44 DUP3 ADD MSTORE PUSH1 0x64 SWAP1 REVERT JUMPDEST DUP9 PUSH4 0x4E487B71 PUSH1 0xE0 SHL PUSH1 0x0 MSTORE PUSH1 0x32 PUSH1 0x4 MSTORE PUSH1 0x0 REVERT JUMPDEST POP PUSH2 0xFF00 NOT DUP10 AND PUSH2 0x100 OR SWAP1 SSTORE PUSH1 0x40 MLOAD PUSH32 0x5FA006001F7473B386C7BB4DB093CB973CE5C895E51C3813BDBD723097D0349E SWAP1 DUP1 PUSH2 0x844 DUP6 DUP3 PUSH2 0x1644 JUMP JUMPDEST SUB SWAP1 LOG2 STOP JUMPDEST PUSH1 0x40 MLOAD PUSH3 0x461BCD PUSH1 0xE5 SHL DUP2 MSTORE PUSH1 0x4 DUP2 ADD DUP10 SWAP1 MSTORE PUSH1 0x10 DUP2 DUP10 ADD MSTORE PUSH16 0x15DA5B9B995C9CC81CD95B1958DD1959 PUSH1 0x82 SHL PUSH1 0x44 DUP3 ADD MSTORE PUSH1 0x64 SWAP1 REVERT JUMPDEST PUSH1 0x40 MLOAD PUSH3 0x461BCD PUSH1 0xE5 SHL DUP2 MSTORE PUSH1 0x4 DUP2 ADD DUP8 SWAP1 MSTORE PUSH1 0xF DUP2 DUP8 ADD MSTORE PUSH15 0x43616D706169676E20616374697665 PUSH1 0x88 SHL PUSH1 0x44 DUP3 ADD MSTORE PUSH1 0x64 SWAP1 REVERT JUMPDEST POP PUSH1 0x0 SLOAD DUP6 GT ISZERO PUSH2 0x720 JUMP JUMPDEST DUP2 CALLDATALOAD PUSH1 0x1 PUSH1 0x1 PUSH1 0xA0 SHL SUB DUP2 AND DUP2 SUB PUSH2 0xEA JUMPI DUP2 MSTORE SWAP1 DUP7 ADD SWAP1 DUP7 ADD PUSH2 0x70D JUMP JUMPDEST POP PUSH4 0x4E487B71 PUSH1 0xE0 SHL PUSH1 0x0 SWAP1 DUP2 MSTORE PUSH1 0x41 PUSH1 0x4 MSTORE REVERT JUMPDEST CALLVALUE PUSH2 0xEA JUMPI PUSH2 0x904 CALLDATASIZE PUSH2 0x1600 JUMP JUMPDEST SWAP1 DUP1 ISZERO ISZERO DUP1 PUSH2 0xD5B JUMPI JUMPDEST PUSH2 0x917 SWAP1 PUSH2 0x1704 JUMP JUMPDEST DUP1 PUSH1 0x0 MSTORE PUSH1 0x20 PUSH1 0x2 DUP2 MSTORE PUSH1 0x40 PUSH1 0x0 KECCAK256 PUSH1 0xFF PUSH1 0x8 DUP3 ADD SLOAD AND ISZERO PUSH2 0xD20 JUMPI PUSH1 0x5 DUP2 ADD SLOAD TIMESTAMP LT PUSH2 0xCED JUMPI PUSH1 0x6 ADD SLOAD TIMESTAMP GT PUSH2 0xCC1 JUMPI DUP3 ISZERO PUSH2 0xC8C JUMPI DUP2 PUSH1 0x0 MSTORE PUSH1 0x4 DUP2 MSTORE PUSH1 0x40 PUSH1 0x0 KECCAK256 CALLER PUSH1 0x0 MSTORE DUP2 MSTORE PUSH1 0xFF PUSH1 0x40 PUSH1 0x0 KECCAK256 SLOAD AND PUSH2 0xC57 JUMPI DUP2 PUSH1 0x0 MSTORE PUSH1 0x2 DUP2 MSTORE PUSH1 0x40 PUSH1 0x0 KECCAK256 SWAP1 PUSH1 0x7 DUP3 ADD SLOAD DUP1 PUSH2 0xC0F JUMPI JUMPDEST POP PUSH1 0x4 DUP3 ADD SLOAD DUP1 ISZERO PUSH2 0xBF9 JUMPI DUP5 DIV SWAP2 DUP3 ISZERO PUSH2 0xBB4 JUMPI PUSH1 0x40 MLOAD PUSH4 0x23B872DD PUSH1 0xE0 SHL DUP2 MSTORE CALLER PUSH1 0x4 DUP3 ADD MSTORE ADDRESS PUSH1 0x24 DUP3 ADD MSTORE PUSH1 0x44 DUP2 ADD DUP7 SWAP1 MSTORE PUSH1 0x1 PUSH1 0x1 PUSH1 0xA0 SHL SUB SWAP1 DUP4 DUP2 PUSH1 0x64 DUP2 PUSH1 0x0 PUSH32 0x0 DUP8 AND GAS CALL SWAP1 DUP2 ISZERO PUSH2 0xBA8 JUMPI PUSH1 0x0 SWAP2 PUSH2 0xB7B JUMPI JUMPDEST POP ISZERO PUSH2 0xB44 JUMPI PUSH2 0xA6D PUSH1 0x40 MLOAD PUSH2 0xA15 DUP2 PUSH2 0x14DC JUMP JUMPDEST DUP8 DUP2 MSTORE PUSH1 0x3 DUP6 DUP3 ADD DUP8 DUP2 MSTORE PUSH1 0x40 DUP4 ADD TIMESTAMP DUP2 MSTORE PUSH1 0x60 DUP5 ADD SWAP2 PUSH1 0x0 DUP4 MSTORE DUP11 PUSH1 0x0 MSTORE DUP4 DUP10 MSTORE PUSH1 0x40 PUSH1 0x0 KECCAK256 CALLER PUSH1 0x0 MSTORE DUP10 MSTORE PUSH1 0x40 PUSH1 0x0 KECCAK256 SWAP5 MLOAD DUP6 SSTORE MLOAD PUSH1 0x1 DUP6 ADD SSTORE MLOAD PUSH1 0x2 DUP5 ADD SSTORE MLOAD ISZERO ISZERO SWAP2 ADD SWAP1 PUSH1 0xFF DUP1 NOT DUP4 SLOAD AND SWAP2 ISZERO ISZERO AND OR SWAP1 SSTORE JUMP JUMPDEST DUP5 PUSH1 0x0 MSTORE PUSH1 0x4 DUP4 MSTORE PUSH1 0x40 PUSH1 0x0 KECCAK256 CALLER PUSH1 0x0 MSTORE DUP4 MSTORE PUSH1 0x40 PUSH1 0x0 KECCAK256 PUSH1 0x1 PUSH1 0xFF NOT DUP3 SLOAD AND OR SWAP1 SSTORE DUP5 PUSH1 0x0 MSTORE PUSH1 0x5 DUP4 MSTORE PUSH1 0x40 PUSH1 0x0 KECCAK256 DUP1 SLOAD PUSH9 0x10000000000000000 DUP2 LT ISZERO PUSH2 0x4AA JUMPI PUSH2 0xABF SWAP2 PUSH1 0x1 DUP3 ADD DUP2 SSTORE PUSH2 0x1616 JUMP JUMPDEST DUP2 SWAP3 SWAP2 SLOAD SWAP1 PUSH1 0x3 SHL SWAP2 CALLER DUP4 SHL SWAP3 SHL NOT AND OR SWAP1 SSTORE DUP4 PUSH1 0x0 MSTORE PUSH1 0x6 DUP3 MSTORE PUSH1 0x40 PUSH1 0x0 KECCAK256 SWAP1 DUP2 SLOAD DUP7 DUP2 ADD DUP1 SWAP2 GT PUSH2 0xB2E JUMPI PUSH1 0x9 SWAP3 SSTORE ADD PUSH2 0xAFB DUP2 SLOAD PUSH2 0x16F5 JUMP JUMPDEST SWAP1 SSTORE PUSH1 0x40 MLOAD SWAP4 DUP5 MSTORE DUP4 ADD MSTORE PUSH32 0xF234BD1A05F5A6F0B6AF3F0C8BACAD613635F0022E2EC2162717EF21A1591D6A PUSH1 0x40 CALLER SWAP4 LOG3 STOP JUMPDEST PUSH4 0x4E487B71 PUSH1 0xE0 SHL PUSH1 0x0 MSTORE PUSH1 0x11 PUSH1 0x4 MSTORE PUSH1 0x24 PUSH1 0x0 REVERT JUMPDEST PUSH1 0x40 MLOAD PUSH3 0x461BCD PUSH1 0xE5 SHL DUP2 MSTORE PUSH1 0x4 DUP2 ADD DUP5 SWAP1 MSTORE PUSH1 0xF PUSH1 0x24 DUP3 ADD MSTORE PUSH15 0x151C985B9CD9995C8819985A5B1959 PUSH1 0x8A SHL PUSH1 0x44 DUP3 ADD MSTORE PUSH1 0x64 SWAP1 REVERT JUMPDEST PUSH2 0xB9B SWAP2 POP DUP5 RETURNDATASIZE DUP7 GT PUSH2 0xBA1 JUMPI JUMPDEST PUSH2 0xB93 DUP2 DUP4 PUSH2 0x14F8 JUMP JUMPDEST DUP2 ADD SWAP1 PUSH2 0x1743 JUMP JUMPDEST DUP8 PUSH2 0xA00 JUMP JUMPDEST POP RETURNDATASIZE PUSH2 0xB89 JUMP JUMPDEST PUSH1 0x40 MLOAD RETURNDATASIZE PUSH1 0x0 DUP3 RETURNDATACOPY RETURNDATASIZE SWAP1 REVERT JUMPDEST PUSH1 0x40 MLOAD PUSH3 0x461BCD PUSH1 0xE5 SHL DUP2 MSTORE PUSH1 0x4 DUP2 ADD DUP4 SWAP1 MSTORE PUSH1 0x18 PUSH1 0x24 DUP3 ADD MSTORE PUSH32 0x496E73756666696369656E7420666F72207469636B6574730000000000000000 PUSH1 0x44 DUP3 ADD MSTORE PUSH1 0x64 SWAP1 REVERT JUMPDEST PUSH4 0x4E487B71 PUSH1 0xE0 SHL PUSH1 0x0 MSTORE PUSH1 0x12 PUSH1 0x4 MSTORE PUSH1 0x24 PUSH1 0x0 REVERT JUMPDEST PUSH1 0x9 DUP4 ADD SLOAD LT ISZERO PUSH2 0xC20 JUMPI DUP5 PUSH2 0x987 JUMP JUMPDEST PUSH1 0x64 SWAP1 PUSH1 0x40 MLOAD SWAP1 PUSH3 0x461BCD PUSH1 0xE5 SHL DUP3 MSTORE PUSH1 0x4 DUP3 ADD MSTORE PUSH1 0x10 PUSH1 0x24 DUP3 ADD MSTORE PUSH16 0x4D6178207061727469636970616E7473 PUSH1 0x80 SHL PUSH1 0x44 DUP3 ADD MSTORE REVERT JUMPDEST PUSH1 0x64 SWAP1 PUSH1 0x40 MLOAD SWAP1 PUSH3 0x461BCD PUSH1 0xE5 SHL DUP3 MSTORE PUSH1 0x4 DUP3 ADD MSTORE PUSH1 0xE PUSH1 0x24 DUP3 ADD MSTORE PUSH14 0x105B1C9958591E481CDD185AD959 PUSH1 0x92 SHL PUSH1 0x44 DUP3 ADD MSTORE REVERT JUMPDEST PUSH1 0x64 SWAP1 PUSH1 0x40 MLOAD SWAP1 PUSH3 0x461BCD PUSH1 0xE5 SHL DUP3 MSTORE PUSH1 0x4 DUP3 ADD MSTORE PUSH1 0xE PUSH1 0x24 DUP3 ADD MSTORE PUSH14 0x125B9D985B1A5908185B5BDD5B9D PUSH1 0x92 SHL PUSH1 0x44 DUP3 ADD MSTORE REVERT JUMPDEST PUSH1 0x64 SWAP1 PUSH1 0x40 MLOAD SWAP1 PUSH3 0x461BCD PUSH1 0xE5 SHL DUP3 MSTORE PUSH1 0x4 DUP3 ADD MSTORE PUSH1 0x5 PUSH1 0x24 DUP3 ADD MSTORE PUSH5 0x115B991959 PUSH1 0xDA SHL PUSH1 0x44 DUP3 ADD MSTORE REVERT JUMPDEST PUSH1 0x40 MLOAD PUSH3 0x461BCD PUSH1 0xE5 SHL DUP2 MSTORE PUSH1 0x4 DUP2 ADD DUP4 SWAP1 MSTORE PUSH1 0xB PUSH1 0x24 DUP3 ADD MSTORE PUSH11 0x139BDD081CDD185C9D1959 PUSH1 0xAA SHL PUSH1 0x44 DUP3 ADD MSTORE PUSH1 0x64 SWAP1 REVERT JUMPDEST PUSH1 0x40 MLOAD PUSH3 0x461BCD PUSH1 0xE5 SHL DUP2 MSTORE PUSH1 0x4 DUP2 ADD DUP4 SWAP1 MSTORE PUSH1 0x13 PUSH1 0x24 DUP3 ADD MSTORE PUSH19 0x43616D706169676E206E6F7420616374697665 PUSH1 0x68 SHL PUSH1 0x44 DUP3 ADD MSTORE PUSH1 0x64 SWAP1 REVERT JUMPDEST POP PUSH1 0x0 SLOAD DUP2 GT ISZERO PUSH2 0x90E JUMP JUMPDEST CALLVALUE PUSH2 0xEA JUMPI PUSH1 0x40 CALLDATASIZE PUSH1 0x3 NOT ADD SLT PUSH2 0xEA JUMPI PUSH2 0xD80 PUSH2 0x1688 JUMP JUMPDEST PUSH1 0x4 CALLDATALOAD PUSH1 0x0 MSTORE PUSH1 0x3 PUSH1 0x20 MSTORE PUSH1 0x40 PUSH1 0x0 KECCAK256 SWAP1 PUSH1 0x1 DUP1 PUSH1 0xA0 SHL SUB AND PUSH1 0x0 MSTORE PUSH1 0x20 MSTORE PUSH1 0x80 PUSH1 0x40 PUSH1 0x0 KECCAK256 DUP1 SLOAD SWAP1 PUSH1 0x1 DUP2 ADD SLOAD SWAP1 PUSH1 0xFF PUSH1 0x3 PUSH1 0x2 DUP4 ADD SLOAD SWAP3 ADD SLOAD AND SWAP2 PUSH1 0x40 MLOAD SWAP4 DUP5 MSTORE PUSH1 0x20 DUP5 ADD MSTORE PUSH1 0x40 DUP4 ADD MSTORE ISZERO ISZERO PUSH1 0x60 DUP3 ADD MSTORE RETURN JUMPDEST CALLVALUE PUSH2 0xEA JUMPI PUSH1 0x40 CALLDATASIZE PUSH1 0x3 NOT ADD SLT PUSH2 0xEA JUMPI PUSH2 0xDEF PUSH2 0x1688 JUMP JUMPDEST PUSH1 0x0 PUSH1 0x60 PUSH1 0x40 MLOAD PUSH2 0xDFF DUP2 PUSH2 0x14DC JUMP JUMPDEST DUP3 DUP2 MSTORE DUP3 PUSH1 0x20 DUP3 ADD MSTORE DUP3 PUSH1 0x40 DUP3 ADD MSTORE ADD MSTORE PUSH1 0x4 CALLDATALOAD PUSH1 0x0 MSTORE PUSH1 0x3 PUSH1 0x20 MSTORE PUSH1 0x40 PUSH1 0x0 KECCAK256 SWAP1 PUSH1 0x1 DUP1 PUSH1 0xA0 SHL SUB AND PUSH1 0x0 MSTORE PUSH1 0x20 MSTORE PUSH1 0x80 PUSH1 0x40 PUSH1 0x0 KECCAK256 PUSH1 0x40 MLOAD PUSH2 0xE42 DUP2 PUSH2 0x14DC JUMP JUMPDEST DUP2 SLOAD SWAP2 DUP3 DUP3 MSTORE PUSH1 0x1 DUP2 ADD SLOAD PUSH1 0x20 DUP4 ADD SWAP1 DUP2 MSTORE PUSH1 0x60 PUSH1 0xFF PUSH1 0x3 PUSH1 0x2 DUP6 ADD SLOAD SWAP5 PUSH1 0x40 DUP8 ADD SWAP6 DUP7 MSTORE ADD SLOAD AND SWAP4 ADD SWAP3 ISZERO ISZERO DUP4 MSTORE PUSH1 0x40 MLOAD SWAP4 DUP5 MSTORE MLOAD PUSH1 0x20 DUP5 ADD MSTORE MLOAD PUSH1 0x40 DUP4 ADD MSTORE MLOAD ISZERO ISZERO PUSH1 0x60 DUP3 ADD MSTORE RETURN JUMPDEST CALLVALUE PUSH2 0xEA JUMPI PUSH1 0x0 CALLDATASIZE PUSH1 0x3 NOT ADD SLT PUSH2 0xEA JUMPI PUSH1 0x1 SLOAD PUSH1 0x40 MLOAD PUSH1 0x1 PUSH1 0x1 PUSH1 0xA0 SHL SUB SWAP1 SWAP2 AND DUP2 MSTORE PUSH1 0x20 SWAP1 RETURN JUMPDEST CALLVALUE PUSH2 0xEA JUMPI PUSH1 0x20 DUP1 PUSH1 0x3 NOT CALLDATASIZE ADD SLT PUSH2 0xEA JUMPI PUSH1 0x4 CALLDATALOAD PUSH1 0x0 MSTORE PUSH1 0x5 DUP2 MSTORE PUSH1 0x40 PUSH1 0x0 KECCAK256 SWAP1 PUSH1 0x40 MLOAD SWAP1 DUP2 DUP2 DUP5 SLOAD SWAP2 DUP3 DUP2 MSTORE ADD SWAP4 PUSH1 0x0 MSTORE DUP2 PUSH1 0x0 KECCAK256 SWAP2 PUSH1 0x0 SWAP1 JUMPDEST DUP3 DUP3 LT PUSH2 0xF19 JUMPI PUSH2 0xF15 DUP6 PUSH2 0xF09 DUP2 DUP10 SUB DUP3 PUSH2 0x14F8 JUMP JUMPDEST PUSH1 0x40 MLOAD SWAP2 DUP3 SWAP2 DUP3 PUSH2 0x1644 JUMP JUMPDEST SUB SWAP1 RETURN JUMPDEST DUP4 SLOAD PUSH1 0x1 PUSH1 0x1 PUSH1 0xA0 SHL SUB AND DUP7 MSTORE SWAP5 DUP6 ADD SWAP5 PUSH1 0x1 SWAP4 DUP5 ADD SWAP4 SWAP1 SWAP2 ADD SWAP1 PUSH2 0xEF2 JUMP JUMPDEST CALLVALUE PUSH2 0xEA JUMPI PUSH1 0x20 CALLDATASIZE PUSH1 0x3 NOT ADD SLT PUSH2 0xEA JUMPI PUSH1 0x4 CALLDATALOAD PUSH1 0x0 PUSH2 0x160 PUSH1 0x40 MLOAD PUSH2 0xF5E DUP2 PUSH2 0x14BF JUMP JUMPDEST DUP3 DUP2 MSTORE PUSH1 0x60 PUSH1 0x20 DUP3 ADD MSTORE PUSH1 0x60 PUSH1 0x40 DUP3 ADD MSTORE DUP3 PUSH1 0x60 DUP3 ADD MSTORE DUP3 PUSH1 0x80 DUP3 ADD MSTORE DUP3 PUSH1 0xA0 DUP3 ADD MSTORE DUP3 PUSH1 0xC0 DUP3 ADD MSTORE DUP3 PUSH1 0xE0 DUP3 ADD MSTORE DUP3 PUSH2 0x100 DUP3 ADD MSTORE DUP3 PUSH2 0x120 DUP3 ADD MSTORE DUP3 PUSH2 0x140 DUP3 ADD MSTORE ADD MSTORE DUP1 ISZERO ISZERO DUP1 PUSH2 0x1119 JUMPI JUMPDEST PUSH2 0xFB6 SWAP1 PUSH2 0x1704 JUMP JUMPDEST PUSH1 0x0 MSTORE PUSH1 0x2 PUSH1 0x20 MSTORE PUSH1 0x40 PUSH1 0x0 KECCAK256 PUSH1 0xA PUSH1 0x40 MLOAD SWAP2 PUSH2 0xFD2 DUP4 PUSH2 0x14BF JUMP JUMPDEST DUP1 SLOAD PUSH1 0x1 PUSH1 0x1 PUSH1 0xA0 SHL SUB AND DUP4 MSTORE PUSH2 0xFEB PUSH1 0x1 DUP3 ADD PUSH2 0x151A JUMP JUMPDEST PUSH1 0x20 DUP5 ADD MSTORE PUSH2 0xFFC PUSH1 0x2 DUP3 ADD PUSH2 0x151A JUMP JUMPDEST PUSH1 0x40 DUP5 ADD MSTORE PUSH1 0x3 DUP2 ADD SLOAD PUSH1 0x60 DUP5 ADD MSTORE PUSH1 0x4 DUP2 ADD SLOAD PUSH1 0x80 DUP5 ADD MSTORE PUSH1 0x5 DUP2 ADD SLOAD PUSH1 0xA0 DUP5 ADD MSTORE PUSH1 0x6 DUP2 ADD SLOAD PUSH1 0xC0 DUP5 ADD MSTORE PUSH1 0x7 DUP2 ADD SLOAD PUSH1 0xE0 DUP5 ADD MSTORE PUSH1 0xFF PUSH1 0x8 DUP3 ADD SLOAD DUP2 DUP2 AND ISZERO ISZERO PUSH2 0x100 DUP7 ADD MSTORE PUSH1 0x8 SHR AND ISZERO ISZERO PUSH2 0x120 DUP5 ADD MSTORE PUSH1 0x9 DUP2 ADD SLOAD PUSH2 0x140 DUP5 ADD MSTORE ADD SLOAD PUSH2 0x160 DUP3 ADD MSTORE PUSH1 0x40 MLOAD DUP1 SWAP2 PUSH1 0x20 DUP3 MSTORE PUSH1 0x1 DUP1 PUSH1 0xA0 SHL SUB DUP2 MLOAD AND PUSH1 0x20 DUP4 ADD MSTORE PUSH2 0x160 PUSH2 0x10B3 PUSH2 0x109D PUSH1 0x20 DUP5 ADD MLOAD PUSH2 0x180 PUSH1 0x40 DUP8 ADD MSTORE PUSH2 0x1A0 DUP7 ADD SWAP1 PUSH2 0x15C0 JUMP JUMPDEST PUSH1 0x40 DUP5 ADD MLOAD DUP6 DUP3 SUB PUSH1 0x1F NOT ADD PUSH1 0x60 DUP8 ADD MSTORE PUSH2 0x15C0 JUMP JUMPDEST SWAP2 PUSH1 0x60 DUP2 ADD MLOAD PUSH1 0x80 DUP6 ADD MSTORE PUSH1 0x80 DUP2 ADD MLOAD PUSH1 0xA0 DUP6 ADD MSTORE PUSH1 0xA0 DUP2 ADD MLOAD PUSH1 0xC0 DUP6 ADD MSTORE PUSH1 0xC0 DUP2 ADD MLOAD PUSH1 0xE0 DUP6 ADD MSTORE PUSH1 0xE0 DUP2 ADD MLOAD PUSH2 0x100 DUP6 ADD MSTORE PUSH2 0x100 DUP2 ADD MLOAD ISZERO ISZERO PUSH2 0x120 DUP6 ADD MSTORE PUSH2 0x120 DUP2 ADD MLOAD ISZERO ISZERO PUSH2 0x140 DUP6 ADD MSTORE PUSH2 0x140 DUP2 ADD MLOAD DUP3 DUP6 ADD MSTORE ADD MLOAD PUSH2 0x180 DUP4 ADD MSTORE SUB SWAP1 RETURN JUMPDEST POP PUSH1 0x0 SLOAD DUP2 GT ISZERO PUSH2 0xFAD JUMP JUMPDEST CALLVALUE PUSH2 0xEA JUMPI PUSH1 0x0 CALLDATASIZE PUSH1 0x3 NOT ADD SLT PUSH2 0xEA JUMPI PUSH1 0x40 MLOAD PUSH32 0x0 PUSH1 0x1 PUSH1 0x1 PUSH1 0xA0 SHL SUB AND DUP2 MSTORE PUSH1 0x20 SWAP1 RETURN JUMPDEST CALLVALUE PUSH2 0xEA JUMPI PUSH1 0x20 CALLDATASIZE PUSH1 0x3 NOT ADD SLT PUSH2 0xEA JUMPI PUSH1 0x4 CALLDATALOAD PUSH1 0x0 MSTORE PUSH1 0x6 PUSH1 0x20 MSTORE PUSH1 0x20 PUSH1 0x40 PUSH1 0x0 KECCAK256 SLOAD PUSH1 0x40 MLOAD SWAP1 DUP2 MSTORE RETURN JUMPDEST CALLVALUE PUSH2 0xEA JUMPI PUSH1 0x20 DUP1 PUSH1 0x3 NOT CALLDATASIZE ADD SLT PUSH2 0xEA JUMPI PUSH1 0x4 CALLDATALOAD SWAP1 DUP2 ISZERO ISZERO DUP1 PUSH2 0x134C JUMPI JUMPDEST PUSH2 0x11BE SWAP1 PUSH2 0x1704 JUMP JUMPDEST DUP2 PUSH1 0x0 MSTORE PUSH1 0x2 DUP2 MSTORE PUSH1 0x40 PUSH1 0x0 KECCAK256 PUSH1 0xFF PUSH1 0x8 PUSH1 0x1 DUP1 PUSH1 0xA0 SHL SUB SWAP3 PUSH2 0x11E5 DUP5 DUP3 SLOAD AND CALLER EQ PUSH2 0x175B JUMP JUMPDEST ADD SLOAD PUSH1 0x8 SHR AND ISZERO PUSH2 0x1310 JUMPI DUP3 PUSH1 0x0 MSTORE PUSH1 0x6 DUP3 MSTORE PUSH1 0x40 PUSH1 0x0 KECCAK256 SLOAD SWAP1 DUP2 ISZERO PUSH2 0x12DF JUMPI DUP3 PUSH1 0x0 SWAP2 PUSH1 0x44 PUSH1 0x40 MLOAD DUP1 SWAP5 DUP2 SWAP4 PUSH4 0xA9059CBB PUSH1 0xE0 SHL DUP4 MSTORE PUSH2 0xDEAD PUSH1 0x4 DUP5 ADD MSTORE DUP8 PUSH1 0x24 DUP5 ADD MSTORE PUSH32 0x0 AND GAS CALL SWAP1 DUP2 ISZERO PUSH2 0xBA8 JUMPI PUSH1 0x0 SWAP2 PUSH2 0x12C2 JUMPI JUMPDEST POP ISZERO PUSH2 0x128F JUMPI SWAP1 PUSH32 0x8BC81353CF6671D259D22783E39ED930583C86F3F4CF7E981298E6A872DFB15D SWAP2 PUSH1 0x40 MLOAD SWAP1 DUP2 MSTORE LOG2 STOP JUMPDEST PUSH1 0x40 MLOAD PUSH3 0x461BCD PUSH1 0xE5 SHL DUP2 MSTORE PUSH1 0x4 DUP2 ADD DUP4 SWAP1 MSTORE PUSH1 0xB PUSH1 0x24 DUP3 ADD MSTORE PUSH11 0x109D5C9B8819985A5B1959 PUSH1 0xAA SHL PUSH1 0x44 DUP3 ADD MSTORE PUSH1 0x64 SWAP1 REVERT JUMPDEST PUSH2 0x12D9 SWAP2 POP DUP4 RETURNDATASIZE DUP6 GT PUSH2 0xBA1 JUMPI PUSH2 0xB93 DUP2 DUP4 PUSH2 0x14F8 JUMP JUMPDEST DUP5 PUSH2 0x125D JUMP JUMPDEST PUSH1 0x40 MLOAD PUSH3 0x461BCD PUSH1 0xE5 SHL DUP2 MSTORE PUSH1 0x4 DUP2 ADD DUP5 SWAP1 MSTORE PUSH1 0x9 PUSH1 0x24 DUP3 ADD MSTORE PUSH9 0x4E6F20746F6B656E73 PUSH1 0xB8 SHL PUSH1 0x44 DUP3 ADD MSTORE PUSH1 0x64 SWAP1 REVERT JUMPDEST PUSH1 0x40 MLOAD PUSH3 0x461BCD PUSH1 0xE5 SHL DUP2 MSTORE PUSH1 0x4 DUP2 ADD DUP4 SWAP1 MSTORE PUSH1 0x14 PUSH1 0x24 DUP3 ADD MSTORE PUSH20 0x15DA5B9B995C9CC81B9BDD081CD95B1958DD1959 PUSH1 0x62 SHL PUSH1 0x44 DUP3 ADD MSTORE PUSH1 0x64 SWAP1 REVERT JUMPDEST POP PUSH1 0x0 SLOAD DUP3 GT ISZERO PUSH2 0x11B5 JUMP JUMPDEST CALLVALUE PUSH2 0xEA JUMPI PUSH2 0x1366 CALLDATASIZE PUSH2 0x1600 JUMP JUMPDEST SWAP1 PUSH1 0x0 MSTORE PUSH1 0x5 PUSH1 0x20 MSTORE PUSH1 0x40 PUSH1 0x0 KECCAK256 DUP1 SLOAD DUP3 LT ISZERO PUSH2 0xEA JUMPI PUSH1 0x20 SWAP2 PUSH2 0x1389 SWAP2 PUSH2 0x1616 JUMP JUMPDEST SWAP1 SLOAD PUSH1 0x40 MLOAD PUSH1 0x3 SWAP3 SWAP1 SWAP3 SHL SHR PUSH1 0x1 PUSH1 0x1 PUSH1 0xA0 SHL SUB AND DUP2 MSTORE RETURN JUMPDEST CALLVALUE PUSH2 0xEA JUMPI PUSH1 0x20 CALLDATASIZE PUSH1 0x3 NOT ADD SLT PUSH2 0xEA JUMPI PUSH1 0x4 CALLDATALOAD PUSH1 0x0 SWAP1 DUP2 MSTORE PUSH1 0x2 PUSH1 0x20 MSTORE PUSH1 0x40 SWAP1 KECCAK256 DUP1 SLOAD PUSH1 0x1 PUSH1 0x1 PUSH1 0xA0 SHL SUB AND PUSH2 0x13DB PUSH1 0x1 DUP4 ADD PUSH2 0x151A JUMP JUMPDEST SWAP2 PUSH2 0x13E8 PUSH1 0x2 DUP3 ADD PUSH2 0x151A JUMP JUMPDEST PUSH1 0x3 DUP3 ADD SLOAD SWAP2 PUSH1 0xFF PUSH1 0x4 DUP3 ADD SLOAD PUSH1 0x5 DUP4 ADD SLOAD PUSH1 0x6 DUP5 ADD SLOAD PUSH1 0x7 DUP6 ADD SLOAD SWAP2 PUSH1 0x8 DUP7 ADD SLOAD SWAP4 PUSH2 0x1444 PUSH1 0xA PUSH1 0x9 DUP10 ADD SLOAD SWAP9 ADD SLOAD SWAP9 PUSH2 0x1436 PUSH1 0x40 MLOAD SWAP14 DUP15 SWAP14 DUP15 MSTORE DUP14 PUSH2 0x180 SWAP1 DUP2 PUSH1 0x20 DUP3 ADD MSTORE ADD SWAP1 PUSH2 0x15C0 JUMP JUMPDEST DUP13 DUP2 SUB PUSH1 0x40 DUP15 ADD MSTORE SWAP1 PUSH2 0x15C0 JUMP JUMPDEST SWAP9 PUSH1 0x60 DUP12 ADD MSTORE PUSH1 0x80 DUP11 ADD MSTORE PUSH1 0xA0 DUP10 ADD MSTORE PUSH1 0xC0 DUP9 ADD MSTORE PUSH1 0xE0 DUP8 ADD MSTORE DUP2 DUP2 AND ISZERO ISZERO PUSH2 0x100 DUP8 ADD MSTORE PUSH1 0x8 SHR AND ISZERO ISZERO PUSH2 0x120 DUP6 ADD MSTORE PUSH2 0x140 DUP5 ADD MSTORE PUSH2 0x160 DUP4 ADD MSTORE SUB SWAP1 RETURN JUMPDEST SWAP1 PUSH1 0x1 DUP3 DUP2 SHR SWAP3 AND DUP1 ISZERO PUSH2 0x14B5 JUMPI JUMPDEST PUSH1 0x20 DUP4 LT EQ PUSH2 0x149F JUMPI JUMP JUMPDEST PUSH4 0x4E487B71 PUSH1 0xE0 SHL PUSH1 0x0 MSTORE PUSH1 0x22 PUSH1 0x4 MSTORE PUSH1 0x24 PUSH1 0x0 REVERT JUMPDEST SWAP2 PUSH1 0x7F AND SWAP2 PUSH2 0x1494 JUMP JUMPDEST PUSH2 0x180 DUP2 ADD SWAP1 DUP2 LT PUSH8 0xFFFFFFFFFFFFFFFF DUP3 GT OR PUSH2 0x4AA JUMPI PUSH1 0x40 MSTORE JUMP JUMPDEST PUSH1 0x80 DUP2 ADD SWAP1 DUP2 LT PUSH8 0xFFFFFFFFFFFFFFFF DUP3 GT OR PUSH2 0x4AA JUMPI PUSH1 0x40 MSTORE JUMP JUMPDEST SWAP1 PUSH1 0x1F DUP1 NOT SWAP2 ADD AND DUP2 ADD SWAP1 DUP2 LT PUSH8 0xFFFFFFFFFFFFFFFF DUP3 GT OR PUSH2 0x4AA JUMPI PUSH1 0x40 MSTORE JUMP JUMPDEST SWAP1 PUSH1 0x40 MLOAD SWAP2 DUP3 PUSH1 0x0 DUP3 SLOAD SWAP3 PUSH2 0x152E DUP5 PUSH2 0x1485 JUMP JUMPDEST SWAP1 DUP2 DUP5 MSTORE PUSH1 0x1 SWAP5 DUP6 DUP2 AND SWAP1 DUP2 PUSH1 0x0 EQ PUSH2 0x159D JUMPI POP PUSH1 0x1 EQ PUSH2 0x155A JUMPI JUMPDEST POP POP PUSH2 0x1558 SWAP3 POP SUB DUP4 PUSH2 0x14F8 JUMP JUMPDEST JUMP JUMPDEST SWAP1 SWAP4 SWAP2 POP PUSH1 0x0 MSTORE PUSH1 0x20 SWAP1 DUP2 PUSH1 0x0 KECCAK256 SWAP4 PUSH1 0x0 SWAP2 JUMPDEST DUP2 DUP4 LT PUSH2 0x1585 JUMPI POP POP PUSH2 0x1558 SWAP4 POP DUP3 ADD ADD CODESIZE DUP1 PUSH2 0x154A JUMP JUMPDEST DUP6 SLOAD DUP9 DUP5 ADD DUP6 ADD MSTORE SWAP5 DUP6 ADD SWAP5 DUP8 SWAP5 POP SWAP2 DUP4 ADD SWAP2 PUSH2 0x156D JUMP JUMPDEST SWAP2 POP POP PUSH2 0x1558 SWAP5 POP PUSH1 0x20 SWAP3 POP PUSH1 0xFF NOT AND DUP3 DUP5 ADD MSTORE ISZERO ISZERO PUSH1 0x5 SHL DUP3 ADD ADD CODESIZE DUP1 PUSH2 0x154A JUMP JUMPDEST SWAP2 SWAP1 DUP3 MLOAD SWAP3 DUP4 DUP3 MSTORE PUSH1 0x0 JUMPDEST DUP5 DUP2 LT PUSH2 0x15EC JUMPI POP POP DUP3 PUSH1 0x0 PUSH1 0x20 DUP1 SWAP5 SWAP6 DUP5 ADD ADD MSTORE PUSH1 0x1F DUP1 NOT SWAP2 ADD AND ADD ADD SWAP1 JUMP JUMPDEST PUSH1 0x20 DUP2 DUP4 ADD DUP2 ADD MLOAD DUP5 DUP4 ADD DUP3 ADD MSTORE ADD PUSH2 0x15CB JUMP JUMPDEST PUSH1 0x40 SWAP1 PUSH1 0x3 NOT ADD SLT PUSH2 0xEA JUMPI PUSH1 0x4 CALLDATALOAD SWAP1 PUSH1 0x24 CALLDATALOAD SWAP1 JUMP JUMPDEST DUP1 SLOAD DUP3 LT ISZERO PUSH2 0x162E JUMPI PUSH1 0x0 MSTORE PUSH1 0x20 PUSH1 0x0 KECCAK256 ADD SWAP1 PUSH1 0x0 SWAP1 JUMP JUMPDEST PUSH4 0x4E487B71 PUSH1 0xE0 SHL PUSH1 0x0 MSTORE PUSH1 0x32 PUSH1 0x4 MSTORE PUSH1 0x24 PUSH1 0x0 REVERT JUMPDEST PUSH1 0x20 SWAP1 DUP2 PUSH1 0x40 DUP2 DUP4 ADD SWAP3 DUP3 DUP2 MSTORE DUP6 MLOAD DUP1 SWAP5 MSTORE ADD SWAP4 ADD SWAP2 PUSH1 0x0 JUMPDEST DUP3 DUP2 LT PUSH2 0x166B JUMPI POP POP POP POP SWAP1 JUMP JUMPDEST DUP4 MLOAD PUSH1 0x1 PUSH1 0x1 PUSH1 0xA0 SHL SUB AND DUP6 MSTORE SWAP4 DUP2 ADD SWAP4 SWAP3 DUP2 ADD SWAP3 PUSH1 0x1 ADD PUSH2 0x165D JUMP JUMPDEST PUSH1 0x24 CALLDATALOAD SWAP1 PUSH1 0x1 PUSH1 0x1 PUSH1 0xA0 SHL SUB DUP3 AND DUP3 SUB PUSH2 0xEA JUMPI JUMP JUMPDEST DUP2 PUSH1 0x1F DUP3 ADD SLT ISZERO PUSH2 0xEA JUMPI DUP1 CALLDATALOAD SWAP1 PUSH8 0xFFFFFFFFFFFFFFFF DUP3 GT PUSH2 0x4AA JUMPI PUSH1 0x40 MLOAD SWAP3 PUSH2 0x16D3 PUSH1 0x1F DUP5 ADD PUSH1 0x1F NOT AND PUSH1 0x20 ADD DUP6 PUSH2 0x14F8 JUMP JUMPDEST DUP3 DUP5 MSTORE PUSH1 0x20 DUP4 DUP4 ADD ADD GT PUSH2 0xEA JUMPI DUP2 PUSH1 0x0 SWAP3 PUSH1 0x20 DUP1 SWAP4 ADD DUP4 DUP7 ADD CALLDATACOPY DUP4 ADD ADD MSTORE SWAP1 JUMP JUMPDEST PUSH1 0x0 NOT DUP2 EQ PUSH2 0xB2E JUMPI PUSH1 0x1 ADD SWAP1 JUMP JUMPDEST ISZERO PUSH2 0x170B JUMPI JUMP JUMPDEST PUSH1 0x40 MLOAD PUSH3 0x461BCD PUSH1 0xE5 SHL DUP2 MSTORE PUSH1 0x20 PUSH1 0x4 DUP3 ADD MSTORE PUSH1 0x10 PUSH1 0x24 DUP3 ADD MSTORE PUSH16 0x24B73B30B634B21031B0B6B830B4B3B7 PUSH1 0x81 SHL PUSH1 0x44 DUP3 ADD MSTORE PUSH1 0x64 SWAP1 REVERT JUMPDEST SWAP1 DUP2 PUSH1 0x20 SWAP2 SUB SLT PUSH2 0xEA JUMPI MLOAD DUP1 ISZERO ISZERO DUP2 SUB PUSH2 0xEA JUMPI SWAP1 JUMP JUMPDEST ISZERO PUSH2 0x1762 JUMPI JUMP JUMPDEST PUSH1 0x40 MLOAD PUSH3 0x461BCD PUSH1 0xE5 SHL DUP2 MSTORE PUSH1 0x20 PUSH1 0x4 DUP3 ADD MSTORE PUSH1 0xB PUSH1 0x24 DUP3 ADD MSTORE PUSH11 0x2737BA1031B932B0BA37B9 PUSH1 0xA9 SHL PUSH1 0x44 DUP3 ADD MSTORE PUSH1 0x64 SWAP1 REVERT INVALID LOG2 PUSH5 0x6970667358 0x22 SLT KECCAK256 0xC3 0xB2 SDIV SWAP8 STATICCALL SELFBALANCE 0xD7 GT DUP9 PUSH15 0xBBE94240E2241FAB7C2528BEAF4B28 0x2D SLT 0xE7 0x2F CHAINID 0x2A SWAP2 PUSH5 0x736F6C6343 STOP ADDMOD EQ STOP CALLER "},"gasEstimates":{"creation":{"codeDepositCost":"1218200","executionCost":"infinite","totalCost":"infinite"},"external":{"burnCampaignTokens(uint256)":"infinite","campaignCounter()":"2577","campaignParticipants(uint256,uint256)":"6778","campaigns(uint256)":"infinite","createCampaign(string,string,uint256,uint256,uint256,uint256,uint256,uint256)":"infinite","getCampaign(uint256)":"infinite","getCampaignParticipants(uint256)":"infinite","getTotalStaked(uint256)":"2338","getUserStake(uint256,address)":"infinite","hasStaked(uint256,address)":"2790","owner()":"2450","selectWinners(uint256,address[])":"infinite","squdyToken()":"infinite","stakeInCampaign(uint256,uint256)":"infinite","stakes(uint256,address)":"9086","totalStaked(uint256)":"2404"}},"methodIdentifiers":{"burnCampaignTokens(uint256)":"3ae27454","campaignCounter()":"fca604d7","campaignParticipants(uint256,uint256)":"35abd49b","campaigns(uint256)":"141961bc","createCampaign(string,string,uint256,uint256,uint256,uint256,uint256,uint256)":"cf1ee2fa","getCampaign(uint256)":"5598f8cc","getCampaignParticipants(uint256)":"8c6ab238","getTotalStaked(uint256)":"2f8899f3","getUserStake(uint256,address)":"9626a230","hasStaked(uint256,address)":"de360715","owner()":"8da5cb5b","selectWinners(uint256,address[])":"ccf7c20a","squdyToken()":"4eb53f99","stakeInCampaign(uint256,uint256)":"c17d1924","stakes(uint256,address)":"a9a3bba4","totalStaked(uint256)":"41cb8c20"}},"storageLayout":{"storage":[{"astId":1305,"contract":"contracts/SimpleSqudyCampaignManager.sol:SimpleSqudyCampaignManager","label":"campaignCounter","offset":0,"slot":"0","type":"t_uint256"},{"astId":1307,"contract":"contracts/SimpleSqudyCampaignManager.sol:SimpleSqudyCampaignManager","label":"owner","offset":0,"slot":"1","type":"t_address"},{"astId":1312,"contract":"contracts/SimpleSqudyCampaignManager.sol:SimpleSqudyCampaignManager","label":"campaigns","offset":0,"slot":"2","type":"t_mapping(t_uint256,t_struct(Campaign)1359_storage)"},{"astId":1319,"contract":"contracts/SimpleSqudyCampaignManager.sol:SimpleSqudyCampaignManager","label":"stakes","offset":0,"slot":"3","type":"t_mapping(t_uint256,t_mapping(t_address,t_struct(Stake)1368_storage))"},{"astId":1325,"contract":"contracts/SimpleSqudyCampaignManager.sol:SimpleSqudyCampaignManager","label":"hasStaked","offset":0,"slot":"4","type":"t_mapping(t_uint256,t_mapping(t_address,t_bool))"},{"astId":1330,"contract":"contracts/SimpleSqudyCampaignManager.sol:SimpleSqudyCampaignManager","label":"campaignParticipants","offset":0,"slot":"5","type":"t_mapping(t_uint256,t_array(t_address)dyn_storage)"},{"astId":1334,"contract":"contracts/SimpleSqudyCampaignManager.sol:SimpleSqudyCampaignManager","label":"totalStaked","offset":0,"slot":"6","type":"t_mapping(t_uint256,t_uint256)"}],"types":{"t_address":{"encoding":"inplace","label":"address","numberOfBytes":"20"},"t_array(t_address)dyn_storage":{"base":"t_address","encoding":"dynamic_array","label":"address[]","numberOfBytes":"32"},"t_bool":{"encoding":"inplace","label":"bool","numberOfBytes":"1"},"t_mapping(t_address,t_bool)":{"encoding":"mapping","key":"t_address","label":"mapping(address => bool)","numberOfBytes":"32","value":"t_bool"},"t_mapping(t_address,t_struct(Stake)1368_storage)":{"encoding":"mapping","key":"t_address","label":"mapping(address => struct SimpleSqudyCampaignManager.Stake)","numberOfBytes":"32","value":"t_struct(Stake)1368_storage"},"t_mapping(t_uint256,t_array(t_address)dyn_storage)":{"encoding":"mapping","key":"t_uint256","label":"mapping(uint256 => address[])","numberOfBytes":"32","value":"t_array(t_address)dyn_storage"},"t_mapping(t_uint256,t_mapping(t_address,t_bool))":{"encoding":"mapping","key":"t_uint256","label":"mapping(uint256 => mapping(address => bool))","numberOfBytes":"32","value":"t_mapping(t_address,t_bool)"},"t_mapping(t_uint256,t_mapping(t_address,t_struct(Stake)1368_storage))":{"encoding":"mapping","key":"t_uint256","label":"mapping(uint256 => mapping(address => struct SimpleSqudyCampaignManager.Stake))","numberOfBytes":"32","value":"t_mapping(t_address,t_struct(Stake)1368_storage)"},"t_mapping(t_uint256,t_struct(Campaign)1359_storage)":{"encoding":"mapping","key":"t_uint256","label":"mapping(uint256 => struct SimpleSqudyCampaignManager.Campaign)","numberOfBytes":"32","value":"t_struct(Campaign)1359_storage"},"t_mapping(t_uint256,t_uint256)":{"encoding":"mapping","key":"t_uint256","label":"mapping(uint256 => uint256)","numberOfBytes":"32","value":"t_uint256"},"t_string_storage":{"encoding":"bytes","label":"string","numberOfBytes":"32"},"t_struct(Campaign)1359_storage":{"encoding":"inplace","label":"struct SimpleSqudyCampaignManager.Campaign","members":[{"astId":1336,"contract":"contracts/SimpleSqudyCampaignManager.sol:SimpleSqudyCampaignManager","label":"creator","offset":0,"slot":"0","type":"t_address"},{"astId":1338,"contract":"contracts/SimpleSqudyCampaignManager.sol:SimpleSqudyCampaignManager","label":"title","offset":0,"slot":"1","type":"t_string_storage"},{"astId":1340,"contract":"contracts/SimpleSqudyCampaignManager.sol:SimpleSqudyCampaignManager","label":"description","offset":0,"slot":"2","type":"t_string_storage"},{"astId":1342,"contract":"contracts/SimpleSqudyCampaignManager.sol:SimpleSqudyCampaignManager","label":"targetAmount","offset":0,"slot":"3","type":"t_uint256"},{"astId":1344,"contract":"contracts/SimpleSqudyCampaignManager.sol:SimpleSqudyCampaignManager","label":"ticketPrice","offset":0,"slot":"4","type":"t_uint256"},{"astId":1346,"contract":"contracts/SimpleSqudyCampaignManager.sol:SimpleSqudyCampaignManager","label":"startTime","offset":0,"slot":"5","type":"t_uint256"},{"astId":1348,"contract":"contracts/SimpleSqudyCampaignManager.sol:SimpleSqudyCampaignManager","label":"endTime","offset":0,"slot":"6","type":"t_uint256"},{"astId":1350,"contract":"contracts/SimpleSqudyCampaignManager.sol:SimpleSqudyCampaignManager","label":"maxParticipants","offset":0,"slot":"7","type":"t_uint256"},{"astId":1352,"contract":"contracts/SimpleSqudyCampaignManager.sol:SimpleSqudyCampaignManager","label":"isActive","offset":0,"slot":"8","type":"t_bool"},{"astId":1354,"contract":"contracts/SimpleSqudyCampaignManager.sol:SimpleSqudyCampaignManager","label":"winnersSelected","offset":1,"slot":"8","type":"t_bool"},{"astId":1356,"contract":"contracts/SimpleSqudyCampaignManager.sol:SimpleSqudyCampaignManager","label":"totalParticipants","offset":0,"slot":"9","type":"t_uint256"},{"astId":1358,"contract":"contracts/SimpleSqudyCampaignManager.sol:SimpleSqudyCampaignManager","label":"prizePool","offset":0,"slot":"10","type":"t_uint256"}],"numberOfBytes":"352"},"t_struct(Stake)1368_storage":{"encoding":"inplace","label":"struct SimpleSqudyCampaignManager.Stake","members":[{"astId":1361,"contract":"contracts/SimpleSqudyCampaignManager.sol:SimpleSqudyCampaignManager","label":"amount","offset":0,"slot":"0","type":"t_uint256"},{"astId":1363,"contract":"contracts/SimpleSqudyCampaignManager.sol:SimpleSqudyCampaignManager","label":"tickets","offset":0,"slot":"1","type":"t_uint256"},{"astId":1365,"contract":"contracts/SimpleSqudyCampaignManager.sol:SimpleSqudyCampaignManager","label":"timestamp","offset":0,"slot":"2","type":"t_uint256"},{"astId":1367,"contract":"contracts/SimpleSqudyCampaignManager.sol:SimpleSqudyCampaignManager","label":"withdrawn","offset":0,"slot":"3","type":"t_bool"}],"numberOfBytes":"128"},"t_uint256":{"encoding":"inplace","label":"uint256","numberOfBytes":"32"}}},"userdoc":{"kind":"user","methods":{},"version":1}}}}