{"contracts/SqudyCampaignManager.sol":{"SqudyCampaignManager":{"abi":[{"inputs":[{"internalType":"address","name":"_squdyToken","type":"address"}],"stateMutability":"nonpayable","type":"constructor"},{"inputs":[],"name":"AccessControlBadConfirmation","type":"error"},{"inputs":[{"internalType":"address","name":"account","type":"address"},{"internalType":"bytes32","name":"neededRole","type":"bytes32"}],"name":"AccessControlUnauthorizedAccount","type":"error"},{"inputs":[],"name":"EnforcedPause","type":"error"},{"inputs":[],"name":"ExpectedPause","type":"error"},{"inputs":[],"name":"ReentrancyGuardReentrantCall","type":"error"},{"anonymous":false,"inputs":[{"indexed":true,"internalType":"address","name":"admin","type":"address"}],"name":"AdminAdded","type":"event"},{"anonymous":false,"inputs":[{"indexed":true,"internalType":"address","name":"admin","type":"address"}],"name":"AdminRemoved","type":"event"},{"anonymous":false,"inputs":[{"indexed":true,"internalType":"uint256","name":"campaignId","type":"uint256"}],"name":"CampaignClosed","type":"event"},{"anonymous":false,"inputs":[{"indexed":true,"internalType":"uint256","name":"campaignId","type":"uint256"},{"indexed":false,"internalType":"string","name":"name","type":"string"},{"indexed":false,"internalType":"uint256","name":"startDate","type":"uint256"},{"indexed":false,"internalType":"uint256","name":"endDate","type":"uint256"},{"indexed":false,"internalType":"uint256","name":"ticketAmount","type":"uint256"}],"name":"CampaignCreated","type":"event"},{"anonymous":false,"inputs":[{"indexed":true,"internalType":"uint256","name":"campaignId","type":"uint256"}],"name":"CampaignPaused","type":"event"},{"anonymous":false,"inputs":[{"indexed":true,"internalType":"uint256","name":"campaignId","type":"uint256"}],"name":"CampaignResumed","type":"event"},{"anonymous":false,"inputs":[{"indexed":false,"internalType":"address","name":"account","type":"address"}],"name":"Paused","type":"event"},{"anonymous":false,"inputs":[{"indexed":true,"internalType":"uint256","name":"campaignId","type":"uint256"},{"indexed":true,"internalType":"address","name":"winner","type":"address"},{"indexed":false,"internalType":"uint256","name":"prizeIndex","type":"uint256"}],"name":"PrizeClaimed","type":"event"},{"anonymous":false,"inputs":[{"indexed":true,"internalType":"bytes32","name":"role","type":"bytes32"},{"indexed":true,"internalType":"bytes32","name":"previousAdminRole","type":"bytes32"},{"indexed":true,"internalType":"bytes32","name":"newAdminRole","type":"bytes32"}],"name":"RoleAdminChanged","type":"event"},{"anonymous":false,"inputs":[{"indexed":true,"internalType":"bytes32","name":"role","type":"bytes32"},{"indexed":true,"internalType":"address","name":"account","type":"address"},{"indexed":true,"internalType":"address","name":"sender","type":"address"}],"name":"RoleGranted","type":"event"},{"anonymous":false,"inputs":[{"indexed":true,"internalType":"bytes32","name":"role","type":"bytes32"},{"indexed":true,"internalType":"address","name":"account","type":"address"},{"indexed":true,"internalType":"address","name":"sender","type":"address"}],"name":"RoleRevoked","type":"event"},{"anonymous":false,"inputs":[{"indexed":true,"internalType":"uint256","name":"campaignId","type":"uint256"},{"indexed":true,"internalType":"address","name":"user","type":"address"}],"name":"SocialTasksCompleted","type":"event"},{"anonymous":false,"inputs":[{"indexed":true,"internalType":"uint256","name":"campaignId","type":"uint256"},{"indexed":false,"internalType":"uint256","name":"totalBurned","type":"uint256"}],"name":"TokensBurned","type":"event"},{"anonymous":false,"inputs":[{"indexed":false,"internalType":"address","name":"account","type":"address"}],"name":"Unpaused","type":"event"},{"anonymous":false,"inputs":[{"indexed":true,"internalType":"uint256","name":"campaignId","type":"uint256"},{"indexed":true,"internalType":"address","name":"user","type":"address"},{"indexed":false,"internalType":"uint256","name":"amount","type":"uint256"},{"indexed":false,"internalType":"uint256","name":"tickets","type":"uint256"}],"name":"UserStaked","type":"event"},{"anonymous":false,"inputs":[{"indexed":true,"internalType":"uint256","name":"campaignId","type":"uint256"},{"indexed":false,"internalType":"address[]","name":"winners","type":"address[]"},{"indexed":false,"internalType":"bytes32","name":"selectionHash","type":"bytes32"}],"name":"WinnersSelected","type":"event"},{"inputs":[],"name":"ADMIN_ROLE","outputs":[{"internalType":"bytes32","name":"","type":"bytes32"}],"stateMutability":"view","type":"function"},{"inputs":[],"name":"DEFAULT_ADMIN_ROLE","outputs":[{"internalType":"bytes32","name":"","type":"bytes32"}],"stateMutability":"view","type":"function"},{"inputs":[],"name":"OPERATOR_ROLE","outputs":[{"internalType":"bytes32","name":"","type":"bytes32"}],"stateMutability":"view","type":"function"},{"inputs":[{"internalType":"uint256","name":"campaignId","type":"uint256"}],"name":"activateCampaign","outputs":[],"stateMutability":"nonpayable","type":"function"},{"inputs":[{"internalType":"address","name":"admin","type":"address"}],"name":"addAdmin","outputs":[],"stateMutability":"nonpayable","type":"function"},{"inputs":[{"internalType":"uint256","name":"campaignId","type":"uint256"}],"name":"burnAllTokens","outputs":[],"stateMutability":"nonpayable","type":"function"},{"inputs":[{"internalType":"uint256","name":"","type":"uint256"},{"internalType":"uint256","name":"","type":"uint256"}],"name":"campaignParticipants","outputs":[{"internalType":"address","name":"","type":"address"}],"stateMutability":"view","type":"function"},{"inputs":[{"internalType":"uint256","name":"","type":"uint256"}],"name":"campaigns","outputs":[{"internalType":"uint256","name":"id","type":"uint256"},{"internalType":"string","name":"name","type":"string"},{"internalType":"string","name":"description","type":"string"},{"internalType":"string","name":"imageUrl","type":"string"},{"internalType":"uint256","name":"softCap","type":"uint256"},{"internalType":"uint256","name":"hardCap","type":"uint256"},{"internalType":"uint256","name":"ticketAmount","type":"uint256"},{"internalType":"uint256","name":"currentAmount","type":"uint256"},{"internalType":"uint256","name":"startDate","type":"uint256"},{"internalType":"uint256","name":"endDate","type":"uint256"},{"internalType":"uint256","name":"participantCount","type":"uint256"},{"internalType":"enum SqudyCampaignManager.CampaignStatus","name":"status","type":"uint8"},{"internalType":"bool","name":"tokensAreBurned","type":"bool"},{"internalType":"uint256","name":"totalBurned","type":"uint256"},{"internalType":"bytes32","name":"winnerSelectionTxHash","type":"bytes32"},{"internalType":"uint256","name":"createdAt","type":"uint256"},{"internalType":"uint256","name":"updatedAt","type":"uint256"}],"stateMutability":"view","type":"function"},{"inputs":[{"internalType":"uint256","name":"campaignId","type":"uint256"}],"name":"closeCampaign","outputs":[],"stateMutability":"nonpayable","type":"function"},{"inputs":[{"internalType":"uint256","name":"campaignId","type":"uint256"},{"internalType":"address","name":"user","type":"address"}],"name":"confirmSocialTasks","outputs":[],"stateMutability":"nonpayable","type":"function"},{"inputs":[{"internalType":"string","name":"name","type":"string"},{"internalType":"string","name":"description","type":"string"},{"internalType":"string","name":"imageUrl","type":"string"},{"internalType":"uint256","name":"softCap","type":"uint256"},{"internalType":"uint256","name":"hardCap","type":"uint256"},{"internalType":"uint256","name":"ticketAmount","type":"uint256"},{"internalType":"uint256","name":"startDate","type":"uint256"},{"internalType":"uint256","name":"endDate","type":"uint256"},{"internalType":"string[]","name":"prizes","type":"string[]"}],"name":"createCampaign","outputs":[{"internalType":"uint256","name":"","type":"uint256"}],"stateMutability":"nonpayable","type":"function"},{"inputs":[],"name":"emergencyPause","outputs":[],"stateMutability":"nonpayable","type":"function"},{"inputs":[{"internalType":"address","name":"token","type":"address"},{"internalType":"address","name":"to","type":"address"}],"name":"emergencyRecoverTokens","outputs":[],"stateMutability":"nonpayable","type":"function"},{"inputs":[],"name":"emergencyUnpause","outputs":[],"stateMutability":"nonpayable","type":"function"},{"inputs":[{"internalType":"uint256","name":"campaignId","type":"uint256"}],"name":"getCampaign","outputs":[{"components":[{"internalType":"uint256","name":"id","type":"uint256"},{"internalType":"string","name":"name","type":"string"},{"internalType":"string","name":"description","type":"string"},{"internalType":"string","name":"imageUrl","type":"string"},{"internalType":"uint256","name":"softCap","type":"uint256"},{"internalType":"uint256","name":"hardCap","type":"uint256"},{"internalType":"uint256","name":"ticketAmount","type":"uint256"},{"internalType":"uint256","name":"currentAmount","type":"uint256"},{"internalType":"uint256","name":"startDate","type":"uint256"},{"internalType":"uint256","name":"endDate","type":"uint256"},{"internalType":"uint256","name":"participantCount","type":"uint256"},{"internalType":"string[]","name":"prizes","type":"string[]"},{"internalType":"address[]","name":"winners","type":"address[]"},{"internalType":"enum SqudyCampaignManager.CampaignStatus","name":"status","type":"uint8"},{"internalType":"bool","name":"tokensAreBurned","type":"bool"},{"internalType":"uint256","name":"totalBurned","type":"uint256"},{"internalType":"bytes32","name":"winnerSelectionTxHash","type":"bytes32"},{"internalType":"uint256","name":"createdAt","type":"uint256"},{"internalType":"uint256","name":"updatedAt","type":"uint256"}],"internalType":"struct SqudyCampaignManager.Campaign","name":"","type":"tuple"}],"stateMutability":"view","type":"function"},{"inputs":[],"name":"getCampaignCount","outputs":[{"internalType":"uint256","name":"","type":"uint256"}],"stateMutability":"view","type":"function"},{"inputs":[{"internalType":"uint256","name":"campaignId","type":"uint256"}],"name":"getCampaignParticipants","outputs":[{"internalType":"address[]","name":"","type":"address[]"}],"stateMutability":"view","type":"function"},{"inputs":[{"internalType":"enum SqudyCampaignManager.CampaignStatus","name":"status","type":"uint8"}],"name":"getCampaignsByStatus","outputs":[{"internalType":"uint256[]","name":"","type":"uint256[]"}],"stateMutability":"view","type":"function"},{"inputs":[{"internalType":"uint256","name":"campaignId","type":"uint256"},{"internalType":"address","name":"user","type":"address"}],"name":"getParticipant","outputs":[{"components":[{"internalType":"uint256","name":"stakedAmount","type":"uint256"},{"internalType":"uint256","name":"ticketCount","type":"uint256"},{"internalType":"bool","name":"hasCompletedSocial","type":"bool"},{"internalType":"bool","name":"isWinner","type":"bool"},{"internalType":"uint256","name":"prizeIndex","type":"uint256"},{"internalType":"uint256","name":"joinedAt","type":"uint256"}],"internalType":"struct SqudyCampaignManager.Participant","name":"","type":"tuple"}],"stateMutability":"view","type":"function"},{"inputs":[{"internalType":"bytes32","name":"role","type":"bytes32"}],"name":"getRoleAdmin","outputs":[{"internalType":"bytes32","name":"","type":"bytes32"}],"stateMutability":"view","type":"function"},{"inputs":[{"internalType":"uint256","name":"campaignId","type":"uint256"},{"internalType":"address","name":"user","type":"address"}],"name":"getTicketCount","outputs":[{"internalType":"uint256","name":"","type":"uint256"}],"stateMutability":"view","type":"function"},{"inputs":[{"internalType":"bytes32","name":"role","type":"bytes32"},{"internalType":"address","name":"account","type":"address"}],"name":"grantRole","outputs":[],"stateMutability":"nonpayable","type":"function"},{"inputs":[{"internalType":"bytes32","name":"role","type":"bytes32"},{"internalType":"address","name":"account","type":"address"}],"name":"hasRole","outputs":[{"internalType":"bool","name":"","type":"bool"}],"stateMutability":"view","type":"function"},{"inputs":[{"internalType":"uint256","name":"campaignId","type":"uint256"},{"internalType":"address","name":"user","type":"address"}],"name":"isEligibleForWinning","outputs":[{"internalType":"bool","name":"","type":"bool"}],"stateMutability":"view","type":"function"},{"inputs":[{"internalType":"uint256","name":"","type":"uint256"},{"internalType":"uint256","name":"","type":"uint256"}],"name":"participantIndexes","outputs":[{"internalType":"address","name":"","type":"address"}],"stateMutability":"view","type":"function"},{"inputs":[{"internalType":"uint256","name":"","type":"uint256"},{"internalType":"address","name":"","type":"address"}],"name":"participants","outputs":[{"internalType":"uint256","name":"stakedAmount","type":"uint256"},{"internalType":"uint256","name":"ticketCount","type":"uint256"},{"internalType":"bool","name":"hasCompletedSocial","type":"bool"},{"internalType":"bool","name":"isWinner","type":"bool"},{"internalType":"uint256","name":"prizeIndex","type":"uint256"},{"internalType":"uint256","name":"joinedAt","type":"uint256"}],"stateMutability":"view","type":"function"},{"inputs":[{"internalType":"uint256","name":"campaignId","type":"uint256"}],"name":"pauseCampaign","outputs":[],"stateMutability":"nonpayable","type":"function"},{"inputs":[],"name":"paused","outputs":[{"internalType":"bool","name":"","type":"bool"}],"stateMutability":"view","type":"function"},{"inputs":[{"internalType":"address","name":"admin","type":"address"}],"name":"removeAdmin","outputs":[],"stateMutability":"nonpayable","type":"function"},{"inputs":[{"internalType":"bytes32","name":"role","type":"bytes32"},{"internalType":"address","name":"callerConfirmation","type":"address"}],"name":"renounceRole","outputs":[],"stateMutability":"nonpayable","type":"function"},{"inputs":[{"internalType":"uint256","name":"campaignId","type":"uint256"}],"name":"resumeCampaign","outputs":[],"stateMutability":"nonpayable","type":"function"},{"inputs":[{"internalType":"bytes32","name":"role","type":"bytes32"},{"internalType":"address","name":"account","type":"address"}],"name":"revokeRole","outputs":[],"stateMutability":"nonpayable","type":"function"},{"inputs":[{"internalType":"uint256","name":"campaignId","type":"uint256"}],"name":"selectWinners","outputs":[],"stateMutability":"nonpayable","type":"function"},{"inputs":[],"name":"squdyToken","outputs":[{"internalType":"contract ISqudyToken","name":"","type":"address"}],"stateMutability":"view","type":"function"},{"inputs":[{"internalType":"uint256","name":"campaignId","type":"uint256"},{"internalType":"uint256","name":"amount","type":"uint256"}],"name":"stakeSQUDY","outputs":[],"stateMutability":"nonpayable","type":"function"},{"inputs":[{"internalType":"bytes4","name":"interfaceId","type":"bytes4"}],"name":"supportsInterface","outputs":[{"internalType":"bool","name":"","type":"bool"}],"stateMutability":"view","type":"function"}],"devdoc":{"author":"Squdy Team","details":"Manages burn-to-win campaigns for SQUDY tokens with simple on-chain randomness","errors":{"AccessControlBadConfirmation()":[{"details":"The caller of a function is not the expected one. NOTE: Don't confuse with {AccessControlUnauthorizedAccount}."}],"AccessControlUnauthorizedAccount(address,bytes32)":[{"details":"The `account` is missing a role."}],"EnforcedPause()":[{"details":"The operation failed because the contract is paused."}],"ExpectedPause()":[{"details":"The operation failed because the contract is not paused."}],"ReentrancyGuardReentrantCall()":[{"details":"Unauthorized reentrant call."}]},"events":{"Paused(address)":{"details":"Emitted when the pause is triggered by `account`."},"RoleAdminChanged(bytes32,bytes32,bytes32)":{"details":"Emitted when `newAdminRole` is set as ``role``'s admin role, replacing `previousAdminRole` `DEFAULT_ADMIN_ROLE` is the starting admin for all roles, despite {RoleAdminChanged} not being emitted to signal this."},"RoleGranted(bytes32,address,address)":{"details":"Emitted when `account` is granted `role`. `sender` is the account that originated the contract call. This account bears the admin role (for the granted role). Expected in cases where the role was granted using the internal {AccessControl-_grantRole}."},"RoleRevoked(bytes32,address,address)":{"details":"Emitted when `account` is revoked `role`. `sender` is the account that originated the contract call:   - if using `revokeRole`, it is the admin role bearer   - if using `renounceRole`, it is the role bearer (i.e. `account`)"},"Unpaused(address)":{"details":"Emitted when the pause is lifted by `account`."}},"kind":"dev","methods":{"activateCampaign(uint256)":{"details":"Activates a campaign"},"addAdmin(address)":{"details":"Adds a new admin"},"burnAllTokens(uint256)":{"details":"Burns all staked tokens after winner selection"},"closeCampaign(uint256)":{"details":"Closes a campaign and selects winners"},"confirmSocialTasks(uint256,address)":{"details":"Marks social media tasks as completed for a user","params":{"campaignId":"The campaign ID","user":"The user address"}},"createCampaign(string,string,string,uint256,uint256,uint256,uint256,uint256,string[])":{"details":"Creates a new campaign","params":{"description":"Campaign description","endDate":"Campaign end timestamp","hardCap":"Maximum amount of tokens that can be staked","imageUrl":"Campaign image URL","name":"Campaign name","prizes":"Array of prize descriptions","softCap":"Minimum amount of tokens required","startDate":"Campaign start timestamp","ticketAmount":"Amount of tokens per ticket"}},"emergencyPause()":{"details":"Emergency pause function"},"emergencyRecoverTokens(address,address)":{"details":"Emergency function to recover tokens (only if not burned)"},"emergencyUnpause()":{"details":"Emergency unpause function"},"getCampaign(uint256)":{"details":"Gets campaign details"},"getCampaignCount()":{"details":"Gets total number of campaigns"},"getCampaignParticipants(uint256)":{"details":"Gets all participants for a campaign"},"getCampaignsByStatus(uint8)":{"details":"Gets campaigns by status"},"getParticipant(uint256,address)":{"details":"Gets participant details"},"getRoleAdmin(bytes32)":{"details":"Returns the admin role that controls `role`. See {grantRole} and {revokeRole}. To change a role's admin, use {_setRoleAdmin}."},"getTicketCount(uint256,address)":{"details":"Gets the ticket count for a user in a campaign"},"grantRole(bytes32,address)":{"details":"Grants `role` to `account`. If `account` had not been already granted `role`, emits a {RoleGranted} event. Requirements: - the caller must have ``role``'s admin role. May emit a {RoleGranted} event."},"hasRole(bytes32,address)":{"details":"Returns `true` if `account` has been granted `role`."},"isEligibleForWinning(uint256,address)":{"details":"Checks if a user is eligible for winning (has completed social tasks)"},"pauseCampaign(uint256)":{"details":"Pauses a campaign"},"paused()":{"details":"Returns true if the contract is paused, and false otherwise."},"removeAdmin(address)":{"details":"Removes an admin"},"renounceRole(bytes32,address)":{"details":"Revokes `role` from the calling account. Roles are often managed via {grantRole} and {revokeRole}: this function's purpose is to provide a mechanism for accounts to lose their privileges if they are compromised (such as when a trusted device is misplaced). If the calling account had been revoked `role`, emits a {RoleRevoked} event. Requirements: - the caller must be `callerConfirmation`. May emit a {RoleRevoked} event."},"resumeCampaign(uint256)":{"details":"Resumes a paused campaign"},"revokeRole(bytes32,address)":{"details":"Revokes `role` from `account`. If `account` had been granted `role`, emits a {RoleRevoked} event. Requirements: - the caller must have ``role``'s admin role. May emit a {RoleRevoked} event."},"selectWinners(uint256)":{"details":"Selects winners using on-chain randomness"},"stakeSQUDY(uint256,uint256)":{"details":"Allows users to stake SQUDY tokens in a campaign","params":{"amount":"Amount of tokens to stake (must be multiple of ticketAmount)","campaignId":"The campaign ID to stake in"}},"supportsInterface(bytes4)":{"details":"Returns true if this contract implements the interface defined by `interfaceId`. See the corresponding https://eips.ethereum.org/EIPS/eip-165#how-interfaces-are-identified[ERC section] to learn more about how these ids are created. This function call must use less than 30 000 gas."}},"title":"SqudyCampaignManager","version":1},"evm":{"bytecode":{"linkReferences":{},"object":"60a034620000af57601f62003ce838819003918201601f19168301916001600160401b03831184841017620000b457808492602094604052833981010312620000af57516001600160a01b03811690819003620000af57600180556080526200006833620000ca565b5062000074336200014a565b506200008033620001ec565b50604051613a3e90816200028a823960805181818161034401528181610814015281816110af01526118e10152f35b600080fd5b634e487b7160e01b600052604160045260246000fd5b6001600160a01b031660008181527fad3228b676f7d3cd4284a5443f17f1962b36e491b30a40b2405849e597ba5fb5602052604081205490919060ff166200014657818052816020526040822081835260205260408220600160ff19825416179055339160008051602062003cc88339815191528180a4600190565b5090565b6001600160a01b031660008181527f7d7ffb7a348e1c6a02869081a26547b49160dd3df72d1d75a570eb9b698292ec60205260408120549091907fa49807205ce4d355092ef5a8a18f56e8913cf4a201fbe287825b095693c217759060ff16620001e757808352826020526040832082845260205260408320600160ff1982541617905560008051602062003cc8833981519152339380a4600190565b505090565b6001600160a01b031660008181527fee57cd81e84075558e8fcc182a1f4393f91fc97f963a136e66b7f949a62f319f60205260408120549091907f97667070c54ef182b0f5858b034beac1b6f3089aa2d3188bb1e8929f4fa9b9299060ff16620001e757808352826020526040832082845260205260408320600160ff1982541617905560008051602062003cc8833981519152339380a460019056fe60a080604052600436101561001357600080fd5b600090813560e01c90816301ffc9a714612fef5750806302e060c614612f6d57806303463dd91461256f578063141961bc146124175780631785f53c1461235c578063248a9ca3146123305780632f2ff15d146122f357806335abd49b146122a857806335f3ad7a146121a957806336568abe1461216157806339a2eb2a14611c4a578063493f172614611aeb5780634a4e3bd514611a595780634e182157146119105780634eb53f99146118cb57806351858e27146118365780635598f8cc146114925780635c975abb1461146f5780635e3583f5146114385780636a14dffd146113de5780636caa9218146113c0578063704802751461130357806375b238fc146112da5780638c0c590214610ff05780638c6ab23814610f9757806391d1485414610f4c5780639e3696d914610db6578063a217fddf14610d9a578063b0e1c1e114610bb0578063b5801d91146109c9578063b7e26a2e146107b2578063d547741f14610771578063da8125fb146106f7578063de99347a14610603578063f5b541a6146105da5763f8ec73d1146101ad57600080fd5b346105d7576101bb36613293565b60019160028354146105c557600283558084526020600581526101e360408620541515613656565b8185526005815260ff600d6040872001541660058110156105b1578461020991146136b8565b81855260058152604085209083156105515760068201549161022b83866137ac565b6104e6576007810161023e8682546137cc565b60058301541061048d5784885260068352604088203360005283526040600020938015610479578790870494878154801560001461045a5750908092505584888201556004429101558488526007835260408820805490600160401b82101561044657906102b09189820181556132a9565b81549060031b9033821b9160018060a01b03901b19161790558488526008835260408820600a83019081548a52845260408920336bffffffffffffffffffffffff60a01b825416179055610304815461361a565b90555b6103128682546137cc565b905542601191909101556040516323b872dd60e01b81523360048201523060248201526044810185905281816064818a7f00000000000000000000000000000000000000000000000000000000000000006001600160a01b03165af190811561043b57879161040e575b50156103b6576040519384528301527fbf3a2998bf95effb9622e3aeea768ec248f238862fd602100075c04d21caa23c60403393a3805580f35b6084906040519062461bcd60e51b82526004820152602b60248201527f537175647943616d706169676e4d616e616765723a20746f6b656e207472616e60448201526a1cd9995c8819985a5b195960aa1b6064820152fd5b61042e9150823d8411610434575b61042681836130c2565b8101906137d9565b3861037c565b503d61041c565b6040513d89823e3d90fd5b634e487b7160e01b8a52604160045260248afd5b90610464916137cc565b8155016104728582546137cc565b9055610307565b634e487b7160e01b89526012600452602489fd5b60405162461bcd60e51b815260048101849052602b60248201527f537175647943616d706169676e4d616e616765723a20776f756c64206578636560448201526a065642068617264206361760ac1b6064820152608490fd5b60405162461bcd60e51b815260048101839052603e60248201527f537175647943616d706169676e4d616e616765723a20616d6f756e74206d757360448201527f74206265206d756c7469706c65206f66207469636b657420616d6f756e7400006064820152608490fd5b6084906040519062461bcd60e51b82526004820152603360248201527f537175647943616d706169676e4d616e616765723a20616d6f756e74206d75736044820152720742062652067726561746572207468616e203606c1b6064820152fd5b634e487b7160e01b86526021600452602486fd5b604051633ee5aeb560e01b8152600490fd5b80fd5b50346105d757806003193601126105d75760206040516000805160206139c98339815191528152f35b50346105d7576020806003193601126106f3576005600435916000805160206139c983398151915284528381526040842033600052815260ff6040600020541680156106c6575b610653906135b9565b82845281815261066860408520541515613656565b8284525260408220600d8101805460ff811660058110156105b157906106926001600293146136b8565b60ff19161790556011429101557fab1902ee37c92d1a78dda53814d64b815e7e3ee287d60843a3dbd6954e3206b48280a280f35b506000805160206139e983398151915284528381526040808520336000908152908352205460ff1661064a565b5080fd5b50346105d75760403660031901126105d757604060043591610717613044565b92808252600560205261072e838320541515613656565b81526006602052209060018060a01b031660005260205260206040600020805415159081610762575b506040519015158152f35b60ff9150600201541638610757565b50346105d75760403660031901126105d7576107ae600435610791613044565b90808452836020526107a9600160408620015461336c565b613544565b5080f35b50346105d75760403660031901126105d7576107cc61305f565b6107d4613044565b6000805160206139e983398151915283526020918383526040842033600052835261080660ff6040600020541661394a565b6001600160a01b03908116907f000000000000000000000000000000000000000000000000000000000000000016811461096a576040516370a0823160e01b8152306004820152918383602481855afa92831561095f57859361092c575b5082156108d45760405163a9059cbb60e01b81526001600160a01b03919091166004820152602481019290925282908290604490829087905af180156108c9576108ac578280f35b816108c292903d106104345761042681836130c2565b5038808280f35b6040513d85823e3d90fd5b60405162461bcd60e51b815260048101859052602a60248201527f537175647943616d706169676e4d616e616765723a206e6f20746f6b656e73206044820152693a37903932b1b7bb32b960b11b6064820152608490fd5b9092508381813d8311610958575b61094481836130c2565b8101031261095457519138610864565b8480fd5b503d61093a565b6040513d87823e3d90fd5b60405162461bcd60e51b815260048101849052603160248201527f537175647943616d706169676e4d616e616765723a2063616e6e6f74207265636044820152706f76657220535155445920746f6b656e7360781b6064820152608490fd5b50346105d75760403660031901126105d7576004356109e6613044565b906000805160206139c9833981519152835260208381526040842033600052815260ff604060002054168015610b83575b610a20906135b9565b81845260058152610a3660408520541515613656565b8184526006815260408085206001600160a01b03909416600081815294835293205415610b2a57818452600681526040842083600052815260ff60026040600020015416610ac95781845260068152604084209083600052526002604060002001600160ff198254161790557fd8e2a0fb3631991dd34ac6af97a04f3485326d9f70043bb29f54e66f0c5577c68380a380f35b6084906040519062461bcd60e51b82526004820152603460248201527f537175647943616d706169676e4d616e616765723a20736f6369616c207461736044820152731adcc8185b1c9958591e4818dbdb5c1b195d195960621b6064820152fd5b6084906040519062461bcd60e51b82526004820152602c60248201527f537175647943616d706169676e4d616e616765723a2075736572206e6f74207060448201526b617274696369706174696e6760a01b6064820152fd5b506000805160206139e983398151915284528381526040808520336000908152908352205460ff16610a17565b50346105d7576020806003193601126106f357600435906000805160206139c983398151915283528281526040832033600052815260ff604060002054168015610d6d575b610bfe906135b9565b81835260058152610c1460408420541515613656565b818352600581526040832090600d82019081549060ff82166005811015610d595760018114908115610d4e575b5015610d005760098401544210801590610cee575b15610ca25750600390610c6e600a8501541515613704565b60ff19161790556011429101557f5e6eb33a418de5dbbc17f989f7ae362cdfbb1748c5d603137c767027a354edbc8280a280f35b6084906040519062461bcd60e51b82526004820152603160248201526000805160206139a98339815191526044820152706f7420726561647920746f20636c6f736560781b6064820152fd5b50600784015460058501541115610c56565b6084906040519062461bcd60e51b82526004820152603360248201526000805160206139a98339815191526044820152721bdd081858dd1a5d99481bdc881c185d5cd959606a1b6064820152fd5b600291501438610c41565b634e487b7160e01b87526021600452602487fd5b506000805160206139e983398151915283528281526040808420336000908152908352205460ff16610bf5565b50346105d757806003193601126105d757602090604051908152f35b50346105d7576020806003193601126106f357600435906000805160206139c983398151915283528281526040832033600052815260ff604060002054168015610f1f575b610e04906135b9565b81835260058152610e1a60408420541515613656565b818352600581526040832090600d82019081549060ff82166005811015610d5957600203610edb576009840154421015610e86575060019060ff19161790556011429101557f25128b02d37802123547e1526ab020238abf16bbc37a5bd0a918d5088b016e958280a280f35b6084906040519062461bcd60e51b82526004820152602860248201527f537175647943616d706169676e4d616e616765723a2063616d706169676e2068604482015267185cc8195b99195960c21b6064820152fd5b6084906040519062461bcd60e51b82526004820152602960248201526000805160206139a98339815191526044820152681bdd081c185d5cd95960ba1b6064820152fd5b506000805160206139e983398151915283528281526040808420336000908152908352205460ff16610dfb565b50346105d75760403660031901126105d7576040610f68613044565b91600435815280602052209060018060a01b0316600052602052602060ff604060002054166040519015158152f35b50346105d75760203660031901126105d757610fd86040610fec926004358082526005602052610fcb838320541515613656565b81526007602052206138f2565b6040519182916020835260208301906132d7565b0390f35b50346105d7576020806003193601126106f3576004356000805160206139c9833981519152835282825260408320338452825260ff60408420541680156112b0575b61103b906135b9565b8083526005825261105160408420541515613656565b8083526005825260ff600d60408520015460081c1661125757808352600582526040832091600d83019260ff84541660058110156105b1576003611095911461375e565b600c810154156111ff5760078101805480156111aa5786907f00000000000000000000000000000000000000000000000000000000000000006001600160a01b031690813b156111a65760405163079cc67960e41b8152306004820152602481019190915291908290604490829084905af1801561043b5761115b575b507f8bc81353cf6671d259d22783e39ed930583c86f3f4cf7e981298e6a872dfb15d939461010061ff0019825416179055549081600e820155601142910155604051908152a280f35b6001600160401b038111611192576040527f8bc81353cf6671d259d22783e39ed930583c86f3f4cf7e981298e6a872dfb15d611112565b634e487b7160e01b87526041600452602487fd5b8280fd5b60405162461bcd60e51b815260048101859052602760248201527f537175647943616d706169676e4d616e616765723a206e6f20746f6b656e73206044820152663a3790313ab93760c91b6064820152608490fd5b60405162461bcd60e51b815260048101839052602a60248201527f537175647943616d706169676e4d616e616765723a2077696e6e657273206e6f6044820152691d081cd95b1958dd195960b21b6064820152608490fd5b60405162461bcd60e51b815260048101839052602b60248201527f537175647943616d706169676e4d616e616765723a20746f6b656e7320616c7260448201526a1958591e48189d5c9b995960aa1b6064820152608490fd5b506000805160206139e983398151915283528282526040808420338552835283205460ff16611032565b50346105d757806003193601126105d75760206040516000805160206139e98339815191528152f35b50346105d75760203660031901126105d75761131d61305f565b611325613314565b6001600160a01b0381169081156113675761133f90613392565b507f44d6d25963f097ad14f29f06854a01f575648a1ef82f30e562ccd3889717e3398280a280f35b60405162461bcd60e51b815260206004820152602b60248201527f537175647943616d706169676e4d616e616765723a20696e76616c696420616460448201526a6d696e206164647265737360a81b6064820152608490fd5b50346105d757806003193601126105d7576020600354604051908152f35b50346105d75760403660031901126105d75760016040602092600435611402613044565b9080835260058652611418848420541515613656565b82526006855282822090848060a01b031682528452200154604051908152f35b50346105d75760209061144a36613293565b90825260088352604082209082528252604060018060a01b0391205416604051908152f35b50346105d757806003193601126105d757602060ff600254166040519015158152f35b50346105d75760203660031901126105d757806102406040516114b4816130a6565b82815260606020820152606060408201526060808201528260808201528260a08201528260c08201528260e082015282610100820152826101208201528261014082015260606101608201526060610180820152826101a0820152826101c0820152826101e082015282610200820152826102208201520152600435808252600560205261154760408320541515613656565b81526005602052604081206040519061155f826130a6565b8054825261156f6001820161318a565b60208301526115806002820161318a565b60408301526115916003820161318a565b606083015260048101546080830152600581015460a0830152600681015460c0830152600781015460e083015260088101546101008301526009810154610120830152600a810154610140830152600b8101546115ed81613139565b906115fb60405192836130c2565b80825260208201600b840186526020862086915b838310611819575050505061016083015261162c600c82016138f2565b610180830152600d810154600560ff82161015611805579060ff8281601194166101a086015260081c1615156101c0840152600e8101546101e0840152600f810154610200840152601081015461022084015201546102408201526040519060208252805160208301526116e36116cd6116b760208401516102606040870152610280860190613230565b6040840151858203601f19016060870152613230565b6060830151848203601f19016080860152613230565b92608082015160a084015260a082015160c084015260c082015160e084015260e082015161010084015261010082015161012084015261012082015161014084015261014082015161016084015261016082015193601f1984820301610180850152845190818152602081016020808460051b840101970193915b8383106117d8578680876102406117878c610180840151601f19868303016101a08701526132d7565b9161179c6101a08201516101c0860190613270565b6101c081015115156101e08501526101e08101516102008501526102008101516102208501526102208101518285015201516102608301520390f35b90919293966020806117f6600193601f198682030187528b51613230565b9901930193019193929061175e565b634e487b7160e01b84526021600452602484fd5b6001602081926118288561318a565b81520192019201919061160f565b50346105d757806003193601126105d7576000805160206139e98339815191528152806020526040812033825260205261187660ff60408320541661394a565b60025460ff81166118b95760019060ff1916176002557f62e78cea01bee320cd4e420270b5ea74000d11b0c9f74754ebdbfc544b05a2586020604051338152a180f35b60405163d93c066560e01b8152600490fd5b50346105d757806003193601126105d7576040517f00000000000000000000000000000000000000000000000000000000000000006001600160a01b03168152602090f35b50346105d7576020806003193601126106f3576004356005928382101591826106f35760035492946001939083855b83811115611a0b5750611951906137f1565b968491865b8481111561199d575050505050506040519280840190808552855180925280604086019601925b82811061198a5785870386f35b835187529581019592810192840161197d565b80875281895260408720600d015497999760ff16836119f757828110156119f75786146119d6575b6119ce9061361a565b989698611956565b926119ef81856119e96119ce948c613823565b5261361a565b9390506119c5565b634e487b7160e01b88526021600452602488fd5b80865282885260408620600d015496989660ff1687610d595783811015610d59578514611a44575b611a3c9061361a565b97959761193f565b90611a51611a3c9161361a565b919050611a33565b50346105d757806003193601126105d7576000805160206139e983398151915281528060205260408120338252602052611a9960ff60408320541661394a565b60025460ff811615611ad95760ff19166002557f5db9ee0a495bf2e6ff9c91a7834c1ba4fdd244a5e8aa4e537bd38aeae4b073aa6020604051338152a180f35b604051638dfc202b60e01b8152600490fd5b50346105d7576020806003193601126106f3576004356000805160206139c9833981519152835282825260408320338452825260ff6040842054168015611c20575b611b36906135b9565b80835260058252611b4c60408420541515613656565b8252600581526040822090600d82019081549060ff821660058110156105b157611bdb5760088401544210611b8f575060019060ff191617905560114291015580f35b6084906040519062461bcd60e51b82526004820152603160248201526000805160206139a98339815191526044820152701bdd081c9958591e481d1bc81cdd185c9d607a1b6064820152fd5b6084906040519062461bcd60e51b82526004820152602a60248201526000805160206139a98339815191526044820152696f742070656e64696e6760b01b6064820152fd5b506000805160206139e983398151915283528282526040808420338552835283205460ff16611b2d565b50346105d75760203660031901126105d7576000805160206139c98339815191528152806020526040812033825260205260ff806040832054168015612135575b611c94906135b9565b60043582526005602052611cad60408320541515613656565b600435825260056020526040822081600d820154166005811015611805576003611cd7911461375e565b600a81015490611ce8821515613704565b600c8101546120d957611cfa826137f1565b6004549092855b818110612094575050611d139061361a565b60045560043584526005602052604084208493858691600a840154925b83811061201c57505050508315611fc057600b015492611d4f84613139565b92611d5d60405194856130c2565b848452601f19611d6c86613139565b013660208601378592865b8251811080611fb7575b15611e7b57611da5611d9d85611d978487613823565b516137ac565b600435613837565b88895b878110611e46575b5015611dc6575b50611dc19061361a565b611d77565b9094611dc191611e3f91906001600160a01b038116611de5838b613823565b526004358b5260068060205260408c2060018060a01b0383168d52602052600260408d200161010061ff00198254161790556004358c5260205260408b209060018060a01b03168b5260205280600360408c20015561361a565b9490611db7565b6001600160a01b0383811690611e5c838c613823565b511614611e7157611e6c9061361a565b611da8565b5050600138611db0565b8786838151906001600160401b0391828111611fa357600160401b8111611fa357600c82015481600c840155808210611f85575b5060208401600c8301865260208620865b838110611f68575050505060045492604051936020850190428252604086015260408552606085019385851090851117611f5457839291611f3f917fb7330ab5eff0061dcc2ce398cdcba65229f5e42d18318346e19c17b1cc1ebec695604052865190209283600f8201556011429101556040845260a08601906132d7565b90608085015260043593605f1991030190a280f35b634e487b7160e01b86526041600452602486fd5b82516001600160a01b031681830155602090920191600101611ec0565b600c8301865260208620611f9d91810190830161363f565b85611eaf565b634e487b7160e01b85526041600452602485fd5b50868510611d81565b60405162461bcd60e51b815260206004820152602e60248201527f537175647943616d706169676e4d616e616765723a206e6f20656c696769626c60448201526d65207061727469636970616e747360901b6064820152608490fd5b6004358952600860205260408920818a5260205260018060a01b0360408a2054166004358a52600660205260408a20908a526020526040892082600282015416612070575b5061206b9061361a565b611d30565b61208761206b929499600161208d930154906137cc565b9861361a565b9290612061565b6120d490604051602081019042825244604082015243606082015285608082015260a0838183015281526120c781613075565b5190206119e98288613823565b611d01565b60405162461bcd60e51b815260206004820152602e60248201527f537175647943616d706169676e4d616e616765723a2077696e6e65727320616c60448201526d1c9958591e481cd95b1958dd195960921b6064820152608490fd5b506000805160206139e98339815191528252602082815260408084203385529091528220548116611c8b565b50346105d75760403660031901126105d75761217b613044565b336001600160a01b03821603612197576107ae90600435613544565b60405163334bd91960e11b8152600490fd5b50346105d75760403660031901126105d75760c0906040600435916121cc613044565b8251936121d885613075565b8285528260a06020968288820152828782015282606082015282608082015201528083526005855261220e848420541515613656565b8252600684528282206001600160a01b0390911682528352206040519061223482613075565b8054928383526001820154818401908152600283015491604085019160ff84161515835260ff606087019460081c161515845260a0600460038701549660808901978852015496019586526040519687525190860152511515604085015251151560608401525160808301525160a0820152f35b50346105d7576122b736613293565b919081526007602052604081209081548310156105d75760206122da84846132a9565b905460405160039290921b1c6001600160a01b03168152f35b50346105d75760403660031901126105d7576107ae600435612313613044565b908084528360205261232b600160408620015461336c565b613432565b50346105d75760203660031901126105d757600160406020926004358152808452200154604051908152f35b50346105d75760203660031901126105d75761237661305f565b61237e613314565b6001600160a01b038116903382146123c157612399906134ab565b507fa3b62bc36326052d97ea62d63c3d60308ed4c3ea8ac079dd8499f1e9c4f80c0f8280a280f35b60405162461bcd60e51b815260206004820152602860248201527f537175647943616d706169676e4d616e616765723a2063616e6e6f742072656d60448201526737bb329039b2b63360c11b6064820152608490fd5b50346105d75760203660031901126105d757600435815260056020526040902080546124456001830161318a565b916124526002820161318a565b9261245f6003830161318a565b93600483015494600584015460068501546007860154600887015490600988015492600a89015494600d8a015496600e8b015498600f8c01549a60108d01549c601101549d60405180608052526102208060805160200152608051016124c491613230565b60805180820390604001526124d891613230565b60805180820390606001526124ec91613230565b9b6080516080015260805160a0015260805160c0015260805160e001526080516101000152608051610120015260805161014001526080516101600160ff82169061253691613270565b60081c60ff16151560805161018001526080516101a001526080516101c001526080516101e00152608051610200015260805180910390f35b50346105d7576101203660031901126105d7576004356001600160401b0381116106f3576125a19036906004016130e3565b906024356001600160401b0381116106f3576125c19036906004016130e3565b60449182356001600160401b0381116106f3576125e29036906004016130e3565b92610104356001600160401b0381116111a657366023820112156111a65780600401359161260f83613139565b9161261d60405193846130c2565b83835260208301906024829560051b82010190368211612f695760248101925b828410612f3757505050506000805160206139c98339815191528452836020526040842033855260205260ff6040852054168015612f0a575b61267f906135b9565b865115612eb3576064803515612e52576084918135833510612df65760a43515612d8f574260c4351115612d2f5760c43560e4351115612cc857835115612c6c57506126cc60035461361a565b96876003558786526005602052604086209688885589516001600160401b038111612baf576126fe60018a0154613150565b601f8111612c39575b50806020601f8211600114612bce578991612bc3575b508160011b916000199060031b1c19161760018901555b8051906001600160401b038211612baf57819061275460028b0154613150565b601f8111612b7c575b50602090601f8311600114612b0d578992612b02575b50508160011b916000199060031b1c19161760028801555b8051906001600160401b0382116111925781906127ab60038a0154613150565b601f8111612acf575b50602090601f8311600114612a60578892612a55575b50508160011b916000199060031b1c19161760038701555b35600486015535600585015560a435600685015560c435600885015560e43560098501555190600160401b8211612a4157600b84015482600b8601558083106129cd575b50600b840183526020832083915b8383106128b357602087807f3a495479e40f7ba7d7f6395edf32b142dc0c2dc52ee9bc5aae0dd2541321074c6128918c8b600d810160ff198154169055426010820155601142910155604051918291608083526080830190613230565b60c4358783015260e435604083015260a43560608301520390a2604051908152f35b80518051906001600160401b038211611192576128d08454613150565b601f8111612992575b50602090601f83116001146129255792826001949360209386958b9261291a575b5050600019600383901b1c191690841b1785555b01920192019190612834565b0151905038806128fa565b908488526020882091885b601f198516811061297a575083602093600196938796938794601f19811610612961575b505050811b01855561290e565b015160001960f88460031b161c19169055388080612954565b91926020600181928685015181550194019201612930565b6129bd9085895260208920601f850160051c810191602086106129c3575b601f0160051c019061363f565b386128d9565b90915081906129b0565b600b8501845260208420908382015b81830181106129ec575050612826565b80866129fa60019354613150565b80612a08575b5050016129dc565b601f81118414612a1d575081555b8638612a00565b828252612a38601f60208420920160051c820185830161363f565b81835555612a16565b634e487b7160e01b83526041600452602483fd5b0151905038806127ca565b9250600389018852602088209088935b601f1984168510612ab4576001945083601f19811610612a9b575b505050811b0160038701556127e2565b015160001960f88460031b161c19169055388080612a8b565b81810151835560209485019460019093019290910190612a70565b612afc9060038b018a5260208a20601f850160051c810191602086106129c357601f0160051c019061363f565b386127b4565b015190503880612773565b925060028a018952602089209089935b601f1984168510612b61576001945083601f19811610612b48575b505050811b01600288015561278b565b015160001960f88460031b161c19169055388080612b38565b81810151835560209485019460019093019290910190612b1d565b612ba99060028c018b5260208b20601f850160051c810191602086106129c357601f0160051c019061363f565b3861275d565b634e487b7160e01b88526041600452602488fd5b90508b01513861271d565b915060018a0189526020892089925b8d601f1984168510612c2257506001935082601f19811610612c09575b5050811b016001890155612734565b8d015160001960f88460031b161c191690553880612bfa565b810151825560209384019360019092019101612bdd565b612c669060018b018a5260208a20601f840160051c810191602085106129c357601f0160051c019061363f565b38612707565b90716174206c65617374206f6e65207072697a6560701b907f537175647943616d706169676e4d616e616765723a206d7573742068617665206040519362461bcd60e51b85526020600486015260326024860152840152820152fd5b907f7573742062652061667465722073746172742064617465000000000000000000907f537175647943616d706169676e4d616e616765723a20656e642064617465206d6040519362461bcd60e51b85526020600486015260376024860152840152820152fd5b9075206d75737420626520696e207468652066757475726560501b907f537175647943616d706169676e4d616e616765723a20737461727420646174656040519362461bcd60e51b85526020600486015260366024860152840152820152fd5b907f756e74206d7573742062652067726561746572207468616e2030000000000000907f537175647943616d706169676e4d616e616765723a207469636b657420616d6f6040519362461bcd60e51b855260206004860152603a6024860152840152820152fd5b90710757374206265203e3d20736f6674206361760741b907f537175647943616d706169676e4d616e616765723a206861726420636170206d6040519362461bcd60e51b85526020600486015260326024860152840152820152fd5b907407573742062652067726561746572207468616e203605c1b6084927f537175647943616d706169676e4d616e616765723a20736f667420636170206d6040519362461bcd60e51b85526020600486015260356024860152840152820152fd5b6084907f537175647943616d706169676e4d616e616765723a206e616d652063616e6e6f6040519162461bcd60e51b835260206004840152602a6024840152820152697420626520656d70747960b01b6064820152fd5b506000805160206139e983398151915284526020848152604080862033875290915284205460ff16612676565b6001600160401b03843511612f655760208091612f5a36602488358701016130e3565b81520193019261263d565b8780fd5b8680fd5b50346105d75760403660031901126105d757604060c091612f8c613044565b600435825260066020528282209060018060a01b031682526020522080549060018101549060ff6002820154600460038401549301549360405195865260208601528181161515604086015260081c1615156060840152608083015260a0820152f35b9050346106f35760203660031901126106f35760043563ffffffff60e01b81168091036111a65760209250637965db0b60e01b8114908115613033575b5015158152f35b6301ffc9a760e01b1490503861302c565b602435906001600160a01b038216820361305a57565b600080fd5b600435906001600160a01b038216820361305a57565b60c081019081106001600160401b0382111761309057604052565b634e487b7160e01b600052604160045260246000fd5b61026081019081106001600160401b0382111761309057604052565b90601f801991011681019081106001600160401b0382111761309057604052565b81601f8201121561305a578035906001600160401b0382116130905760405192613117601f8401601f1916602001856130c2565b8284526020838301011161305a57816000926020809301838601378301015290565b6001600160401b0381116130905760051b60200190565b90600182811c92168015613180575b602083101461316a57565b634e487b7160e01b600052602260045260246000fd5b91607f169161315f565b906040519182600082549261319e84613150565b90818452600194858116908160001461320d57506001146131ca575b50506131c8925003836130c2565b565b9093915060005260209081600020936000915b8183106131f55750506131c8935082010138806131ba565b855488840185015294850194879450918301916131dd565b9150506131c894506020925060ff191682840152151560051b82010138806131ba565b919082519283825260005b84811061325c575050826000602080949584010152601f8019910116010190565b60208183018101518483018201520161323b565b90600582101561327d5752565b634e487b7160e01b600052602160045260246000fd5b604090600319011261305a576004359060243590565b80548210156132c15760005260206000200190600090565b634e487b7160e01b600052603260045260246000fd5b90815180825260208080930193019160005b8281106132f7575050505090565b83516001600160a01b0316855293810193928101926001016132e9565b3360009081527fad3228b676f7d3cd4284a5443f17f1962b36e491b30a40b2405849e597ba5fb5602052604081205460ff161561334e5750565b6044906040519063e2517d3f60e01b82523360048301526024820152fd5b80600052600060205260406000203360005260205260ff604060002054161561334e5750565b6001600160a01b031660008181527f7d7ffb7a348e1c6a02869081a26547b49160dd3df72d1d75a570eb9b698292ec60205260408120549091906000805160206139e98339815191529060ff1661342d57808352826020526040832082845260205260408320600160ff198254161790557f2f8788117e7eff1d82e926ec794901d17c78024a50270940304540a733656f0d339380a4600190565b505090565b9060009180835282602052604083209160018060a01b03169182845260205260ff6040842054161560001461342d57808352826020526040832082845260205260408320600160ff198254161790557f2f8788117e7eff1d82e926ec794901d17c78024a50270940304540a733656f0d339380a4600190565b6001600160a01b031660008181527f7d7ffb7a348e1c6a02869081a26547b49160dd3df72d1d75a570eb9b698292ec60205260408120549091906000805160206139e98339815191529060ff161561342d5780835282602052604083208284526020526040832060ff1981541690557ff6391f5c32d9c69d2a47ea670b442974b53935d1edc7fd64eb21e047a839171b339380a4600190565b9060009180835282602052604083209160018060a01b03169182845260205260ff60408420541660001461342d5780835282602052604083208284526020526040832060ff1981541690557ff6391f5c32d9c69d2a47ea670b442974b53935d1edc7fd64eb21e047a839171b339380a4600190565b156135c057565b60405162461bcd60e51b815260206004820152602c60248201527f537175647943616d706169676e4d616e616765723a206f70657261746f72207260448201526b1bdb19481c995c5d5a5c995960a21b6064820152608490fd5b60001981146136295760010190565b634e487b7160e01b600052601160045260246000fd5b81811061364a575050565b6000815560010161363f565b1561365d57565b60405162461bcd60e51b815260206004820152602d60248201527f537175647943616d706169676e4d616e616765723a2063616d706169676e206460448201526c1bd95cc81b9bdd08195e1a5cdd609a1b6064820152608490fd5b156136bf57565b60405162461bcd60e51b815260206004820152602960248201526000805160206139a98339815191526044820152686f742061637469766560b81b6064820152608490fd5b1561370b57565b60405162461bcd60e51b815260206004820152602560248201527f537175647943616d706169676e4d616e616765723a206e6f207061727469636960448201526470616e747360d81b6064820152608490fd5b1561376557565b60405162461bcd60e51b815260206004820152602b60248201526000805160206139a983398151915260448201526a1bdd08199a5b9a5cda195960aa1b6064820152608490fd5b81156137b6570690565b634e487b7160e01b600052601260045260246000fd5b9190820180921161362957565b9081602091031261305a5751801515810361305a5790565b906137fb82613139565b61380860405191826130c2565b8281528092613819601f1991613139565b0190602036910137565b80518210156132c15760209160051b010190565b90600091808352602090600582526040928385209085600a87930154925b83811061387e57505050908452506008815281832083805290529020546001600160a01b031690565b84885260088652868820818952865260018060a01b03878920541685895260068752878920818a52875287892060ff6002820154166138c8575b50506138c39061361a565b613855565b9260016138d892940154906137cc565b918284106138e657806138b8565b97505050505050505090565b9060405191828154918282526020928383019160005283600020936000905b828210613927575050506131c8925003836130c2565b85546001600160a01b031684526001958601958895509381019390910190613911565b1561395157565b60405162461bcd60e51b815260206004820152602960248201527f537175647943616d706169676e4d616e616765723a2061646d696e20726f6c65604482015268081c995c5d5a5c995960ba1b6064820152608490fdfe537175647943616d706169676e4d616e616765723a2063616d706169676e206e97667070c54ef182b0f5858b034beac1b6f3089aa2d3188bb1e8929f4fa9b929a49807205ce4d355092ef5a8a18f56e8913cf4a201fbe287825b095693c21775a26469706673582212200a06212a2923976aa8a98be9f1c9900f76af196321057d39e3c6129a824cfebf64736f6c634300081400332f8788117e7eff1d82e926ec794901d17c78024a50270940304540a733656f0d","opcodes":"PUSH1 0xA0 CALLVALUE PUSH3 0xAF JUMPI PUSH1 0x1F PUSH3 0x3CE8 CODESIZE DUP2 SWAP1 SUB SWAP2 DUP3 ADD PUSH1 0x1F NOT AND DUP4 ADD SWAP2 PUSH1 0x1 PUSH1 0x1 PUSH1 0x40 SHL SUB DUP4 GT DUP5 DUP5 LT OR PUSH3 0xB4 JUMPI DUP1 DUP5 SWAP3 PUSH1 0x20 SWAP5 PUSH1 0x40 MSTORE DUP4 CODECOPY DUP2 ADD SUB SLT PUSH3 0xAF JUMPI MLOAD PUSH1 0x1 PUSH1 0x1 PUSH1 0xA0 SHL SUB DUP2 AND SWAP1 DUP2 SWAP1 SUB PUSH3 0xAF JUMPI PUSH1 0x1 DUP1 SSTORE PUSH1 0x80 MSTORE PUSH3 0x68 CALLER PUSH3 0xCA JUMP JUMPDEST POP PUSH3 0x74 CALLER PUSH3 0x14A JUMP JUMPDEST POP PUSH3 0x80 CALLER PUSH3 0x1EC JUMP JUMPDEST POP PUSH1 0x40 MLOAD PUSH2 0x3A3E SWAP1 DUP2 PUSH3 0x28A DUP3 CODECOPY PUSH1 0x80 MLOAD DUP2 DUP2 DUP2 PUSH2 0x344 ADD MSTORE DUP2 DUP2 PUSH2 0x814 ADD MSTORE DUP2 DUP2 PUSH2 0x10AF ADD MSTORE PUSH2 0x18E1 ADD MSTORE RETURN JUMPDEST PUSH1 0x0 DUP1 REVERT JUMPDEST PUSH4 0x4E487B71 PUSH1 0xE0 SHL PUSH1 0x0 MSTORE PUSH1 0x41 PUSH1 0x4 MSTORE PUSH1 0x24 PUSH1 0x0 REVERT JUMPDEST PUSH1 0x1 PUSH1 0x1 PUSH1 0xA0 SHL SUB AND PUSH1 0x0 DUP2 DUP2 MSTORE PUSH32 0xAD3228B676F7D3CD4284A5443F17F1962B36E491B30A40B2405849E597BA5FB5 PUSH1 0x20 MSTORE PUSH1 0x40 DUP2 KECCAK256 SLOAD SWAP1 SWAP2 SWAP1 PUSH1 0xFF AND PUSH3 0x146 JUMPI DUP2 DUP1 MSTORE DUP2 PUSH1 0x20 MSTORE PUSH1 0x40 DUP3 KECCAK256 DUP2 DUP4 MSTORE PUSH1 0x20 MSTORE PUSH1 0x40 DUP3 KECCAK256 PUSH1 0x1 PUSH1 0xFF NOT DUP3 SLOAD AND OR SWAP1 SSTORE CALLER SWAP2 PUSH1 0x0 DUP1 MLOAD PUSH1 0x20 PUSH3 0x3CC8 DUP4 CODECOPY DUP2 MLOAD SWAP2 MSTORE DUP2 DUP1 LOG4 PUSH1 0x1 SWAP1 JUMP JUMPDEST POP SWAP1 JUMP JUMPDEST PUSH1 0x1 PUSH1 0x1 PUSH1 0xA0 SHL SUB AND PUSH1 0x0 DUP2 DUP2 MSTORE PUSH32 0x7D7FFB7A348E1C6A02869081A26547B49160DD3DF72D1D75A570EB9B698292EC PUSH1 0x20 MSTORE PUSH1 0x40 DUP2 KECCAK256 SLOAD SWAP1 SWAP2 SWAP1 PUSH32 0xA49807205CE4D355092EF5A8A18F56E8913CF4A201FBE287825B095693C21775 SWAP1 PUSH1 0xFF AND PUSH3 0x1E7 JUMPI DUP1 DUP4 MSTORE DUP3 PUSH1 0x20 MSTORE PUSH1 0x40 DUP4 KECCAK256 DUP3 DUP5 MSTORE PUSH1 0x20 MSTORE PUSH1 0x40 DUP4 KECCAK256 PUSH1 0x1 PUSH1 0xFF NOT DUP3 SLOAD AND OR SWAP1 SSTORE PUSH1 0x0 DUP1 MLOAD PUSH1 0x20 PUSH3 0x3CC8 DUP4 CODECOPY DUP2 MLOAD SWAP2 MSTORE CALLER SWAP4 DUP1 LOG4 PUSH1 0x1 SWAP1 JUMP JUMPDEST POP POP SWAP1 JUMP JUMPDEST PUSH1 0x1 PUSH1 0x1 PUSH1 0xA0 SHL SUB AND PUSH1 0x0 DUP2 DUP2 MSTORE PUSH32 0xEE57CD81E84075558E8FCC182A1F4393F91FC97F963A136E66B7F949A62F319F PUSH1 0x20 MSTORE PUSH1 0x40 DUP2 KECCAK256 SLOAD SWAP1 SWAP2 SWAP1 PUSH32 0x97667070C54EF182B0F5858B034BEAC1B6F3089AA2D3188BB1E8929F4FA9B929 SWAP1 PUSH1 0xFF AND PUSH3 0x1E7 JUMPI DUP1 DUP4 MSTORE DUP3 PUSH1 0x20 MSTORE PUSH1 0x40 DUP4 KECCAK256 DUP3 DUP5 MSTORE PUSH1 0x20 MSTORE PUSH1 0x40 DUP4 KECCAK256 PUSH1 0x1 PUSH1 0xFF NOT DUP3 SLOAD AND OR SWAP1 SSTORE PUSH1 0x0 DUP1 MLOAD PUSH1 0x20 PUSH3 0x3CC8 DUP4 CODECOPY DUP2 MLOAD SWAP2 MSTORE CALLER SWAP4 DUP1 LOG4 PUSH1 0x1 SWAP1 JUMP INVALID PUSH1 0xA0 DUP1 PUSH1 0x40 MSTORE PUSH1 0x4 CALLDATASIZE LT ISZERO PUSH2 0x13 JUMPI PUSH1 0x0 DUP1 REVERT JUMPDEST PUSH1 0x0 SWAP1 DUP2 CALLDATALOAD PUSH1 0xE0 SHR SWAP1 DUP2 PUSH4 0x1FFC9A7 EQ PUSH2 0x2FEF JUMPI POP DUP1 PUSH4 0x2E060C6 EQ PUSH2 0x2F6D JUMPI DUP1 PUSH4 0x3463DD9 EQ PUSH2 0x256F JUMPI DUP1 PUSH4 0x141961BC EQ PUSH2 0x2417 JUMPI DUP1 PUSH4 0x1785F53C EQ PUSH2 0x235C JUMPI DUP1 PUSH4 0x248A9CA3 EQ PUSH2 0x2330 JUMPI DUP1 PUSH4 0x2F2FF15D EQ PUSH2 0x22F3 JUMPI DUP1 PUSH4 0x35ABD49B EQ PUSH2 0x22A8 JUMPI DUP1 PUSH4 0x35F3AD7A EQ PUSH2 0x21A9 JUMPI DUP1 PUSH4 0x36568ABE EQ PUSH2 0x2161 JUMPI DUP1 PUSH4 0x39A2EB2A EQ PUSH2 0x1C4A JUMPI DUP1 PUSH4 0x493F1726 EQ PUSH2 0x1AEB JUMPI DUP1 PUSH4 0x4A4E3BD5 EQ PUSH2 0x1A59 JUMPI DUP1 PUSH4 0x4E182157 EQ PUSH2 0x1910 JUMPI DUP1 PUSH4 0x4EB53F99 EQ PUSH2 0x18CB JUMPI DUP1 PUSH4 0x51858E27 EQ PUSH2 0x1836 JUMPI DUP1 PUSH4 0x5598F8CC EQ PUSH2 0x1492 JUMPI DUP1 PUSH4 0x5C975ABB EQ PUSH2 0x146F JUMPI DUP1 PUSH4 0x5E3583F5 EQ PUSH2 0x1438 JUMPI DUP1 PUSH4 0x6A14DFFD EQ PUSH2 0x13DE JUMPI DUP1 PUSH4 0x6CAA9218 EQ PUSH2 0x13C0 JUMPI DUP1 PUSH4 0x70480275 EQ PUSH2 0x1303 JUMPI DUP1 PUSH4 0x75B238FC EQ PUSH2 0x12DA JUMPI DUP1 PUSH4 0x8C0C5902 EQ PUSH2 0xFF0 JUMPI DUP1 PUSH4 0x8C6AB238 EQ PUSH2 0xF97 JUMPI DUP1 PUSH4 0x91D14854 EQ PUSH2 0xF4C JUMPI DUP1 PUSH4 0x9E3696D9 EQ PUSH2 0xDB6 JUMPI DUP1 PUSH4 0xA217FDDF EQ PUSH2 0xD9A JUMPI DUP1 PUSH4 0xB0E1C1E1 EQ PUSH2 0xBB0 JUMPI DUP1 PUSH4 0xB5801D91 EQ PUSH2 0x9C9 JUMPI DUP1 PUSH4 0xB7E26A2E EQ PUSH2 0x7B2 JUMPI DUP1 PUSH4 0xD547741F EQ PUSH2 0x771 JUMPI DUP1 PUSH4 0xDA8125FB EQ PUSH2 0x6F7 JUMPI DUP1 PUSH4 0xDE99347A EQ PUSH2 0x603 JUMPI DUP1 PUSH4 0xF5B541A6 EQ PUSH2 0x5DA JUMPI PUSH4 0xF8EC73D1 EQ PUSH2 0x1AD JUMPI PUSH1 0x0 DUP1 REVERT JUMPDEST CALLVALUE PUSH2 0x5D7 JUMPI PUSH2 0x1BB CALLDATASIZE PUSH2 0x3293 JUMP JUMPDEST PUSH1 0x1 SWAP2 PUSH1 0x2 DUP4 SLOAD EQ PUSH2 0x5C5 JUMPI PUSH1 0x2 DUP4 SSTORE DUP1 DUP5 MSTORE PUSH1 0x20 PUSH1 0x5 DUP2 MSTORE PUSH2 0x1E3 PUSH1 0x40 DUP7 KECCAK256 SLOAD ISZERO ISZERO PUSH2 0x3656 JUMP JUMPDEST DUP2 DUP6 MSTORE PUSH1 0x5 DUP2 MSTORE PUSH1 0xFF PUSH1 0xD PUSH1 0x40 DUP8 KECCAK256 ADD SLOAD AND PUSH1 0x5 DUP2 LT ISZERO PUSH2 0x5B1 JUMPI DUP5 PUSH2 0x209 SWAP2 EQ PUSH2 0x36B8 JUMP JUMPDEST DUP2 DUP6 MSTORE PUSH1 0x5 DUP2 MSTORE PUSH1 0x40 DUP6 KECCAK256 SWAP1 DUP4 ISZERO PUSH2 0x551 JUMPI PUSH1 0x6 DUP3 ADD SLOAD SWAP2 PUSH2 0x22B DUP4 DUP7 PUSH2 0x37AC JUMP JUMPDEST PUSH2 0x4E6 JUMPI PUSH1 0x7 DUP2 ADD PUSH2 0x23E DUP7 DUP3 SLOAD PUSH2 0x37CC JUMP JUMPDEST PUSH1 0x5 DUP4 ADD SLOAD LT PUSH2 0x48D JUMPI DUP5 DUP9 MSTORE PUSH1 0x6 DUP4 MSTORE PUSH1 0x40 DUP9 KECCAK256 CALLER PUSH1 0x0 MSTORE DUP4 MSTORE PUSH1 0x40 PUSH1 0x0 KECCAK256 SWAP4 DUP1 ISZERO PUSH2 0x479 JUMPI DUP8 SWAP1 DUP8 DIV SWAP5 DUP8 DUP2 SLOAD DUP1 ISZERO PUSH1 0x0 EQ PUSH2 0x45A JUMPI POP SWAP1 DUP1 SWAP3 POP SSTORE DUP5 DUP9 DUP3 ADD SSTORE PUSH1 0x4 TIMESTAMP SWAP2 ADD SSTORE DUP5 DUP9 MSTORE PUSH1 0x7 DUP4 MSTORE PUSH1 0x40 DUP9 KECCAK256 DUP1 SLOAD SWAP1 PUSH1 0x1 PUSH1 0x40 SHL DUP3 LT ISZERO PUSH2 0x446 JUMPI SWAP1 PUSH2 0x2B0 SWAP2 DUP10 DUP3 ADD DUP2 SSTORE PUSH2 0x32A9 JUMP JUMPDEST DUP2 SLOAD SWAP1 PUSH1 0x3 SHL SWAP1 CALLER DUP3 SHL SWAP2 PUSH1 0x1 DUP1 PUSH1 0xA0 SHL SUB SWAP1 SHL NOT AND OR SWAP1 SSTORE DUP5 DUP9 MSTORE PUSH1 0x8 DUP4 MSTORE PUSH1 0x40 DUP9 KECCAK256 PUSH1 0xA DUP4 ADD SWAP1 DUP2 SLOAD DUP11 MSTORE DUP5 MSTORE PUSH1 0x40 DUP10 KECCAK256 CALLER PUSH12 0xFFFFFFFFFFFFFFFFFFFFFFFF PUSH1 0xA0 SHL DUP3 SLOAD AND OR SWAP1 SSTORE PUSH2 0x304 DUP2 SLOAD PUSH2 0x361A JUMP JUMPDEST SWAP1 SSTORE JUMPDEST PUSH2 0x312 DUP7 DUP3 SLOAD PUSH2 0x37CC JUMP JUMPDEST SWAP1 SSTORE TIMESTAMP PUSH1 0x11 SWAP2 SWAP1 SWAP2 ADD SSTORE PUSH1 0x40 MLOAD PUSH4 0x23B872DD PUSH1 0xE0 SHL DUP2 MSTORE CALLER PUSH1 0x4 DUP3 ADD MSTORE ADDRESS PUSH1 0x24 DUP3 ADD MSTORE PUSH1 0x44 DUP2 ADD DUP6 SWAP1 MSTORE DUP2 DUP2 PUSH1 0x64 DUP2 DUP11 PUSH32 0x0 PUSH1 0x1 PUSH1 0x1 PUSH1 0xA0 SHL SUB AND GAS CALL SWAP1 DUP2 ISZERO PUSH2 0x43B JUMPI DUP8 SWAP2 PUSH2 0x40E JUMPI JUMPDEST POP ISZERO PUSH2 0x3B6 JUMPI PUSH1 0x40 MLOAD SWAP4 DUP5 MSTORE DUP4 ADD MSTORE PUSH32 0xBF3A2998BF95EFFB9622E3AEEA768EC248F238862FD602100075C04D21CAA23C PUSH1 0x40 CALLER SWAP4 LOG3 DUP1 SSTORE DUP1 RETURN JUMPDEST PUSH1 0x84 SWAP1 PUSH1 0x40 MLOAD SWAP1 PUSH3 0x461BCD PUSH1 0xE5 SHL DUP3 MSTORE PUSH1 0x4 DUP3 ADD MSTORE PUSH1 0x2B PUSH1 0x24 DUP3 ADD MSTORE PUSH32 0x537175647943616D706169676E4D616E616765723A20746F6B656E207472616E PUSH1 0x44 DUP3 ADD MSTORE PUSH11 0x1CD9995C8819985A5B1959 PUSH1 0xAA SHL PUSH1 0x64 DUP3 ADD MSTORE REVERT JUMPDEST PUSH2 0x42E SWAP2 POP DUP3 RETURNDATASIZE DUP5 GT PUSH2 0x434 JUMPI JUMPDEST PUSH2 0x426 DUP2 DUP4 PUSH2 0x30C2 JUMP JUMPDEST DUP2 ADD SWAP1 PUSH2 0x37D9 JUMP JUMPDEST CODESIZE PUSH2 0x37C JUMP JUMPDEST POP RETURNDATASIZE PUSH2 0x41C JUMP JUMPDEST PUSH1 0x40 MLOAD RETURNDATASIZE DUP10 DUP3 RETURNDATACOPY RETURNDATASIZE SWAP1 REVERT JUMPDEST PUSH4 0x4E487B71 PUSH1 0xE0 SHL DUP11 MSTORE PUSH1 0x41 PUSH1 0x4 MSTORE PUSH1 0x24 DUP11 REVERT JUMPDEST SWAP1 PUSH2 0x464 SWAP2 PUSH2 0x37CC JUMP JUMPDEST DUP2 SSTORE ADD PUSH2 0x472 DUP6 DUP3 SLOAD PUSH2 0x37CC JUMP JUMPDEST SWAP1 SSTORE PUSH2 0x307 JUMP JUMPDEST PUSH4 0x4E487B71 PUSH1 0xE0 SHL DUP10 MSTORE PUSH1 0x12 PUSH1 0x4 MSTORE PUSH1 0x24 DUP10 REVERT JUMPDEST PUSH1 0x40 MLOAD PUSH3 0x461BCD PUSH1 0xE5 SHL DUP2 MSTORE PUSH1 0x4 DUP2 ADD DUP5 SWAP1 MSTORE PUSH1 0x2B PUSH1 0x24 DUP3 ADD MSTORE PUSH32 0x537175647943616D706169676E4D616E616765723A20776F756C642065786365 PUSH1 0x44 DUP3 ADD MSTORE PUSH11 0x656420686172642063617 PUSH1 0xAC SHL PUSH1 0x64 DUP3 ADD MSTORE PUSH1 0x84 SWAP1 REVERT JUMPDEST PUSH1 0x40 MLOAD PUSH3 0x461BCD PUSH1 0xE5 SHL DUP2 MSTORE PUSH1 0x4 DUP2 ADD DUP4 SWAP1 MSTORE PUSH1 0x3E PUSH1 0x24 DUP3 ADD MSTORE PUSH32 0x537175647943616D706169676E4D616E616765723A20616D6F756E74206D7573 PUSH1 0x44 DUP3 ADD MSTORE PUSH32 0x74206265206D756C7469706C65206F66207469636B657420616D6F756E740000 PUSH1 0x64 DUP3 ADD MSTORE PUSH1 0x84 SWAP1 REVERT JUMPDEST PUSH1 0x84 SWAP1 PUSH1 0x40 MLOAD SWAP1 PUSH3 0x461BCD PUSH1 0xE5 SHL DUP3 MSTORE PUSH1 0x4 DUP3 ADD MSTORE PUSH1 0x33 PUSH1 0x24 DUP3 ADD MSTORE PUSH32 0x537175647943616D706169676E4D616E616765723A20616D6F756E74206D7573 PUSH1 0x44 DUP3 ADD MSTORE PUSH19 0x742062652067726561746572207468616E203 PUSH1 0x6C SHL PUSH1 0x64 DUP3 ADD MSTORE REVERT JUMPDEST PUSH4 0x4E487B71 PUSH1 0xE0 SHL DUP7 MSTORE PUSH1 0x21 PUSH1 0x4 MSTORE PUSH1 0x24 DUP7 REVERT JUMPDEST PUSH1 0x40 MLOAD PUSH4 0x3EE5AEB5 PUSH1 0xE0 SHL DUP2 MSTORE PUSH1 0x4 SWAP1 REVERT JUMPDEST DUP1 REVERT JUMPDEST POP CALLVALUE PUSH2 0x5D7 JUMPI DUP1 PUSH1 0x3 NOT CALLDATASIZE ADD SLT PUSH2 0x5D7 JUMPI PUSH1 0x20 PUSH1 0x40 MLOAD PUSH1 0x0 DUP1 MLOAD PUSH1 0x20 PUSH2 0x39C9 DUP4 CODECOPY DUP2 MLOAD SWAP2 MSTORE DUP2 MSTORE RETURN JUMPDEST POP CALLVALUE PUSH2 0x5D7 JUMPI PUSH1 0x20 DUP1 PUSH1 0x3 NOT CALLDATASIZE ADD SLT PUSH2 0x6F3 JUMPI PUSH1 0x5 PUSH1 0x4 CALLDATALOAD SWAP2 PUSH1 0x0 DUP1 MLOAD PUSH1 0x20 PUSH2 0x39C9 DUP4 CODECOPY DUP2 MLOAD SWAP2 MSTORE DUP5 MSTORE DUP4 DUP2 MSTORE PUSH1 0x40 DUP5 KECCAK256 CALLER PUSH1 0x0 MSTORE DUP2 MSTORE PUSH1 0xFF PUSH1 0x40 PUSH1 0x0 KECCAK256 SLOAD AND DUP1 ISZERO PUSH2 0x6C6 JUMPI JUMPDEST PUSH2 0x653 SWAP1 PUSH2 0x35B9 JUMP JUMPDEST DUP3 DUP5 MSTORE DUP2 DUP2 MSTORE PUSH2 0x668 PUSH1 0x40 DUP6 KECCAK256 SLOAD ISZERO ISZERO PUSH2 0x3656 JUMP JUMPDEST DUP3 DUP5 MSTORE MSTORE PUSH1 0x40 DUP3 KECCAK256 PUSH1 0xD DUP2 ADD DUP1 SLOAD PUSH1 0xFF DUP2 AND PUSH1 0x5 DUP2 LT ISZERO PUSH2 0x5B1 JUMPI SWAP1 PUSH2 0x692 PUSH1 0x1 PUSH1 0x2 SWAP4 EQ PUSH2 0x36B8 JUMP JUMPDEST PUSH1 0xFF NOT AND OR SWAP1 SSTORE PUSH1 0x11 TIMESTAMP SWAP2 ADD SSTORE PUSH32 0xAB1902EE37C92D1A78DDA53814D64B815E7E3EE287D60843A3DBD6954E3206B4 DUP3 DUP1 LOG2 DUP1 RETURN JUMPDEST POP PUSH1 0x0 DUP1 MLOAD PUSH1 0x20 PUSH2 0x39E9 DUP4 CODECOPY DUP2 MLOAD SWAP2 MSTORE DUP5 MSTORE DUP4 DUP2 MSTORE PUSH1 0x40 DUP1 DUP6 KECCAK256 CALLER PUSH1 0x0 SWAP1 DUP2 MSTORE SWAP1 DUP4 MSTORE KECCAK256 SLOAD PUSH1 0xFF AND PUSH2 0x64A JUMP JUMPDEST POP DUP1 REVERT JUMPDEST POP CALLVALUE PUSH2 0x5D7 JUMPI PUSH1 0x40 CALLDATASIZE PUSH1 0x3 NOT ADD SLT PUSH2 0x5D7 JUMPI PUSH1 0x40 PUSH1 0x4 CALLDATALOAD SWAP2 PUSH2 0x717 PUSH2 0x3044 JUMP JUMPDEST SWAP3 DUP1 DUP3 MSTORE PUSH1 0x5 PUSH1 0x20 MSTORE PUSH2 0x72E DUP4 DUP4 KECCAK256 SLOAD ISZERO ISZERO PUSH2 0x3656 JUMP JUMPDEST DUP2 MSTORE PUSH1 0x6 PUSH1 0x20 MSTORE KECCAK256 SWAP1 PUSH1 0x1 DUP1 PUSH1 0xA0 SHL SUB AND PUSH1 0x0 MSTORE PUSH1 0x20 MSTORE PUSH1 0x20 PUSH1 0x40 PUSH1 0x0 KECCAK256 DUP1 SLOAD ISZERO ISZERO SWAP1 DUP2 PUSH2 0x762 JUMPI JUMPDEST POP PUSH1 0x40 MLOAD SWAP1 ISZERO ISZERO DUP2 MSTORE RETURN JUMPDEST PUSH1 0xFF SWAP2 POP PUSH1 0x2 ADD SLOAD AND CODESIZE PUSH2 0x757 JUMP JUMPDEST POP CALLVALUE PUSH2 0x5D7 JUMPI PUSH1 0x40 CALLDATASIZE PUSH1 0x3 NOT ADD SLT PUSH2 0x5D7 JUMPI PUSH2 0x7AE PUSH1 0x4 CALLDATALOAD PUSH2 0x791 PUSH2 0x3044 JUMP JUMPDEST SWAP1 DUP1 DUP5 MSTORE DUP4 PUSH1 0x20 MSTORE PUSH2 0x7A9 PUSH1 0x1 PUSH1 0x40 DUP7 KECCAK256 ADD SLOAD PUSH2 0x336C JUMP JUMPDEST PUSH2 0x3544 JUMP JUMPDEST POP DUP1 RETURN JUMPDEST POP CALLVALUE PUSH2 0x5D7 JUMPI PUSH1 0x40 CALLDATASIZE PUSH1 0x3 NOT ADD SLT PUSH2 0x5D7 JUMPI PUSH2 0x7CC PUSH2 0x305F JUMP JUMPDEST PUSH2 0x7D4 PUSH2 0x3044 JUMP JUMPDEST PUSH1 0x0 DUP1 MLOAD PUSH1 0x20 PUSH2 0x39E9 DUP4 CODECOPY DUP2 MLOAD SWAP2 MSTORE DUP4 MSTORE PUSH1 0x20 SWAP2 DUP4 DUP4 MSTORE PUSH1 0x40 DUP5 KECCAK256 CALLER PUSH1 0x0 MSTORE DUP4 MSTORE PUSH2 0x806 PUSH1 0xFF PUSH1 0x40 PUSH1 0x0 KECCAK256 SLOAD AND PUSH2 0x394A JUMP JUMPDEST PUSH1 0x1 PUSH1 0x1 PUSH1 0xA0 SHL SUB SWAP1 DUP2 AND SWAP1 PUSH32 0x0 AND DUP2 EQ PUSH2 0x96A JUMPI PUSH1 0x40 MLOAD PUSH4 0x70A08231 PUSH1 0xE0 SHL DUP2 MSTORE ADDRESS PUSH1 0x4 DUP3 ADD MSTORE SWAP2 DUP4 DUP4 PUSH1 0x24 DUP2 DUP6 GAS STATICCALL SWAP3 DUP4 ISZERO PUSH2 0x95F JUMPI DUP6 SWAP4 PUSH2 0x92C JUMPI JUMPDEST POP DUP3 ISZERO PUSH2 0x8D4 JUMPI PUSH1 0x40 MLOAD PUSH4 0xA9059CBB PUSH1 0xE0 SHL DUP2 MSTORE PUSH1 0x1 PUSH1 0x1 PUSH1 0xA0 SHL SUB SWAP2 SWAP1 SWAP2 AND PUSH1 0x4 DUP3 ADD MSTORE PUSH1 0x24 DUP2 ADD SWAP3 SWAP1 SWAP3 MSTORE DUP3 SWAP1 DUP3 SWAP1 PUSH1 0x44 SWAP1 DUP3 SWAP1 DUP8 SWAP1 GAS CALL DUP1 ISZERO PUSH2 0x8C9 JUMPI PUSH2 0x8AC JUMPI DUP3 DUP1 RETURN JUMPDEST DUP2 PUSH2 0x8C2 SWAP3 SWAP1 RETURNDATASIZE LT PUSH2 0x434 JUMPI PUSH2 0x426 DUP2 DUP4 PUSH2 0x30C2 JUMP JUMPDEST POP CODESIZE DUP1 DUP3 DUP1 RETURN JUMPDEST PUSH1 0x40 MLOAD RETURNDATASIZE DUP6 DUP3 RETURNDATACOPY RETURNDATASIZE SWAP1 REVERT JUMPDEST PUSH1 0x40 MLOAD PUSH3 0x461BCD PUSH1 0xE5 SHL DUP2 MSTORE PUSH1 0x4 DUP2 ADD DUP6 SWAP1 MSTORE PUSH1 0x2A PUSH1 0x24 DUP3 ADD MSTORE PUSH32 0x537175647943616D706169676E4D616E616765723A206E6F20746F6B656E7320 PUSH1 0x44 DUP3 ADD MSTORE PUSH10 0x3A37903932B1B7BB32B9 PUSH1 0xB1 SHL PUSH1 0x64 DUP3 ADD MSTORE PUSH1 0x84 SWAP1 REVERT JUMPDEST SWAP1 SWAP3 POP DUP4 DUP2 DUP2 RETURNDATASIZE DUP4 GT PUSH2 0x958 JUMPI JUMPDEST PUSH2 0x944 DUP2 DUP4 PUSH2 0x30C2 JUMP JUMPDEST DUP2 ADD SUB SLT PUSH2 0x954 JUMPI MLOAD SWAP2 CODESIZE PUSH2 0x864 JUMP JUMPDEST DUP5 DUP1 REVERT JUMPDEST POP RETURNDATASIZE PUSH2 0x93A JUMP JUMPDEST PUSH1 0x40 MLOAD RETURNDATASIZE DUP8 DUP3 RETURNDATACOPY RETURNDATASIZE SWAP1 REVERT JUMPDEST PUSH1 0x40 MLOAD PUSH3 0x461BCD PUSH1 0xE5 SHL DUP2 MSTORE PUSH1 0x4 DUP2 ADD DUP5 SWAP1 MSTORE PUSH1 0x31 PUSH1 0x24 DUP3 ADD MSTORE PUSH32 0x537175647943616D706169676E4D616E616765723A2063616E6E6F7420726563 PUSH1 0x44 DUP3 ADD MSTORE PUSH17 0x6F76657220535155445920746F6B656E73 PUSH1 0x78 SHL PUSH1 0x64 DUP3 ADD MSTORE PUSH1 0x84 SWAP1 REVERT JUMPDEST POP CALLVALUE PUSH2 0x5D7 JUMPI PUSH1 0x40 CALLDATASIZE PUSH1 0x3 NOT ADD SLT PUSH2 0x5D7 JUMPI PUSH1 0x4 CALLDATALOAD PUSH2 0x9E6 PUSH2 0x3044 JUMP JUMPDEST SWAP1 PUSH1 0x0 DUP1 MLOAD PUSH1 0x20 PUSH2 0x39C9 DUP4 CODECOPY DUP2 MLOAD SWAP2 MSTORE DUP4 MSTORE PUSH1 0x20 DUP4 DUP2 MSTORE PUSH1 0x40 DUP5 KECCAK256 CALLER PUSH1 0x0 MSTORE DUP2 MSTORE PUSH1 0xFF PUSH1 0x40 PUSH1 0x0 KECCAK256 SLOAD AND DUP1 ISZERO PUSH2 0xB83 JUMPI JUMPDEST PUSH2 0xA20 SWAP1 PUSH2 0x35B9 JUMP JUMPDEST DUP2 DUP5 MSTORE PUSH1 0x5 DUP2 MSTORE PUSH2 0xA36 PUSH1 0x40 DUP6 KECCAK256 SLOAD ISZERO ISZERO PUSH2 0x3656 JUMP JUMPDEST DUP2 DUP5 MSTORE PUSH1 0x6 DUP2 MSTORE PUSH1 0x40 DUP1 DUP6 KECCAK256 PUSH1 0x1 PUSH1 0x1 PUSH1 0xA0 SHL SUB SWAP1 SWAP5 AND PUSH1 0x0 DUP2 DUP2 MSTORE SWAP5 DUP4 MSTORE SWAP4 KECCAK256 SLOAD ISZERO PUSH2 0xB2A JUMPI DUP2 DUP5 MSTORE PUSH1 0x6 DUP2 MSTORE PUSH1 0x40 DUP5 KECCAK256 DUP4 PUSH1 0x0 MSTORE DUP2 MSTORE PUSH1 0xFF PUSH1 0x2 PUSH1 0x40 PUSH1 0x0 KECCAK256 ADD SLOAD AND PUSH2 0xAC9 JUMPI DUP2 DUP5 MSTORE PUSH1 0x6 DUP2 MSTORE PUSH1 0x40 DUP5 KECCAK256 SWAP1 DUP4 PUSH1 0x0 MSTORE MSTORE PUSH1 0x2 PUSH1 0x40 PUSH1 0x0 KECCAK256 ADD PUSH1 0x1 PUSH1 0xFF NOT DUP3 SLOAD AND OR SWAP1 SSTORE PUSH32 0xD8E2A0FB3631991DD34AC6AF97A04F3485326D9F70043BB29F54E66F0C5577C6 DUP4 DUP1 LOG3 DUP1 RETURN JUMPDEST PUSH1 0x84 SWAP1 PUSH1 0x40 MLOAD SWAP1 PUSH3 0x461BCD PUSH1 0xE5 SHL DUP3 MSTORE PUSH1 0x4 DUP3 ADD MSTORE PUSH1 0x34 PUSH1 0x24 DUP3 ADD MSTORE PUSH32 0x537175647943616D706169676E4D616E616765723A20736F6369616C20746173 PUSH1 0x44 DUP3 ADD MSTORE PUSH20 0x1ADCC8185B1C9958591E4818DBDB5C1B195D1959 PUSH1 0x62 SHL PUSH1 0x64 DUP3 ADD MSTORE REVERT JUMPDEST PUSH1 0x84 SWAP1 PUSH1 0x40 MLOAD SWAP1 PUSH3 0x461BCD PUSH1 0xE5 SHL DUP3 MSTORE PUSH1 0x4 DUP3 ADD MSTORE PUSH1 0x2C PUSH1 0x24 DUP3 ADD MSTORE PUSH32 0x537175647943616D706169676E4D616E616765723A2075736572206E6F742070 PUSH1 0x44 DUP3 ADD MSTORE PUSH12 0x617274696369706174696E67 PUSH1 0xA0 SHL PUSH1 0x64 DUP3 ADD MSTORE REVERT JUMPDEST POP PUSH1 0x0 DUP1 MLOAD PUSH1 0x20 PUSH2 0x39E9 DUP4 CODECOPY DUP2 MLOAD SWAP2 MSTORE DUP5 MSTORE DUP4 DUP2 MSTORE PUSH1 0x40 DUP1 DUP6 KECCAK256 CALLER PUSH1 0x0 SWAP1 DUP2 MSTORE SWAP1 DUP4 MSTORE KECCAK256 SLOAD PUSH1 0xFF AND PUSH2 0xA17 JUMP JUMPDEST POP CALLVALUE PUSH2 0x5D7 JUMPI PUSH1 0x20 DUP1 PUSH1 0x3 NOT CALLDATASIZE ADD SLT PUSH2 0x6F3 JUMPI PUSH1 0x4 CALLDATALOAD SWAP1 PUSH1 0x0 DUP1 MLOAD PUSH1 0x20 PUSH2 0x39C9 DUP4 CODECOPY DUP2 MLOAD SWAP2 MSTORE DUP4 MSTORE DUP3 DUP2 MSTORE PUSH1 0x40 DUP4 KECCAK256 CALLER PUSH1 0x0 MSTORE DUP2 MSTORE PUSH1 0xFF PUSH1 0x40 PUSH1 0x0 KECCAK256 SLOAD AND DUP1 ISZERO PUSH2 0xD6D JUMPI JUMPDEST PUSH2 0xBFE SWAP1 PUSH2 0x35B9 JUMP JUMPDEST DUP2 DUP4 MSTORE PUSH1 0x5 DUP2 MSTORE PUSH2 0xC14 PUSH1 0x40 DUP5 KECCAK256 SLOAD ISZERO ISZERO PUSH2 0x3656 JUMP JUMPDEST DUP2 DUP4 MSTORE PUSH1 0x5 DUP2 MSTORE PUSH1 0x40 DUP4 KECCAK256 SWAP1 PUSH1 0xD DUP3 ADD SWAP1 DUP2 SLOAD SWAP1 PUSH1 0xFF DUP3 AND PUSH1 0x5 DUP2 LT ISZERO PUSH2 0xD59 JUMPI PUSH1 0x1 DUP2 EQ SWAP1 DUP2 ISZERO PUSH2 0xD4E JUMPI JUMPDEST POP ISZERO PUSH2 0xD00 JUMPI PUSH1 0x9 DUP5 ADD SLOAD TIMESTAMP LT DUP1 ISZERO SWAP1 PUSH2 0xCEE JUMPI JUMPDEST ISZERO PUSH2 0xCA2 JUMPI POP PUSH1 0x3 SWAP1 PUSH2 0xC6E PUSH1 0xA DUP6 ADD SLOAD ISZERO ISZERO PUSH2 0x3704 JUMP JUMPDEST PUSH1 0xFF NOT AND OR SWAP1 SSTORE PUSH1 0x11 TIMESTAMP SWAP2 ADD SSTORE PUSH32 0x5E6EB33A418DE5DBBC17F989F7AE362CDFBB1748C5D603137C767027A354EDBC DUP3 DUP1 LOG2 DUP1 RETURN JUMPDEST PUSH1 0x84 SWAP1 PUSH1 0x40 MLOAD SWAP1 PUSH3 0x461BCD PUSH1 0xE5 SHL DUP3 MSTORE PUSH1 0x4 DUP3 ADD MSTORE PUSH1 0x31 PUSH1 0x24 DUP3 ADD MSTORE PUSH1 0x0 DUP1 MLOAD PUSH1 0x20 PUSH2 0x39A9 DUP4 CODECOPY DUP2 MLOAD SWAP2 MSTORE PUSH1 0x44 DUP3 ADD MSTORE PUSH17 0x6F7420726561647920746F20636C6F7365 PUSH1 0x78 SHL PUSH1 0x64 DUP3 ADD MSTORE REVERT JUMPDEST POP PUSH1 0x7 DUP5 ADD SLOAD PUSH1 0x5 DUP6 ADD SLOAD GT ISZERO PUSH2 0xC56 JUMP JUMPDEST PUSH1 0x84 SWAP1 PUSH1 0x40 MLOAD SWAP1 PUSH3 0x461BCD PUSH1 0xE5 SHL DUP3 MSTORE PUSH1 0x4 DUP3 ADD MSTORE PUSH1 0x33 PUSH1 0x24 DUP3 ADD MSTORE PUSH1 0x0 DUP1 MLOAD PUSH1 0x20 PUSH2 0x39A9 DUP4 CODECOPY DUP2 MLOAD SWAP2 MSTORE PUSH1 0x44 DUP3 ADD MSTORE PUSH19 0x1BDD081858DD1A5D99481BDC881C185D5CD959 PUSH1 0x6A SHL PUSH1 0x64 DUP3 ADD MSTORE REVERT JUMPDEST PUSH1 0x2 SWAP2 POP EQ CODESIZE PUSH2 0xC41 JUMP JUMPDEST PUSH4 0x4E487B71 PUSH1 0xE0 SHL DUP8 MSTORE PUSH1 0x21 PUSH1 0x4 MSTORE PUSH1 0x24 DUP8 REVERT JUMPDEST POP PUSH1 0x0 DUP1 MLOAD PUSH1 0x20 PUSH2 0x39E9 DUP4 CODECOPY DUP2 MLOAD SWAP2 MSTORE DUP4 MSTORE DUP3 DUP2 MSTORE PUSH1 0x40 DUP1 DUP5 KECCAK256 CALLER PUSH1 0x0 SWAP1 DUP2 MSTORE SWAP1 DUP4 MSTORE KECCAK256 SLOAD PUSH1 0xFF AND PUSH2 0xBF5 JUMP JUMPDEST POP CALLVALUE PUSH2 0x5D7 JUMPI DUP1 PUSH1 0x3 NOT CALLDATASIZE ADD SLT PUSH2 0x5D7 JUMPI PUSH1 0x20 SWAP1 PUSH1 0x40 MLOAD SWAP1 DUP2 MSTORE RETURN JUMPDEST POP CALLVALUE PUSH2 0x5D7 JUMPI PUSH1 0x20 DUP1 PUSH1 0x3 NOT CALLDATASIZE ADD SLT PUSH2 0x6F3 JUMPI PUSH1 0x4 CALLDATALOAD SWAP1 PUSH1 0x0 DUP1 MLOAD PUSH1 0x20 PUSH2 0x39C9 DUP4 CODECOPY DUP2 MLOAD SWAP2 MSTORE DUP4 MSTORE DUP3 DUP2 MSTORE PUSH1 0x40 DUP4 KECCAK256 CALLER PUSH1 0x0 MSTORE DUP2 MSTORE PUSH1 0xFF PUSH1 0x40 PUSH1 0x0 KECCAK256 SLOAD AND DUP1 ISZERO PUSH2 0xF1F JUMPI JUMPDEST PUSH2 0xE04 SWAP1 PUSH2 0x35B9 JUMP JUMPDEST DUP2 DUP4 MSTORE PUSH1 0x5 DUP2 MSTORE PUSH2 0xE1A PUSH1 0x40 DUP5 KECCAK256 SLOAD ISZERO ISZERO PUSH2 0x3656 JUMP JUMPDEST DUP2 DUP4 MSTORE PUSH1 0x5 DUP2 MSTORE PUSH1 0x40 DUP4 KECCAK256 SWAP1 PUSH1 0xD DUP3 ADD SWAP1 DUP2 SLOAD SWAP1 PUSH1 0xFF DUP3 AND PUSH1 0x5 DUP2 LT ISZERO PUSH2 0xD59 JUMPI PUSH1 0x2 SUB PUSH2 0xEDB JUMPI PUSH1 0x9 DUP5 ADD SLOAD TIMESTAMP LT ISZERO PUSH2 0xE86 JUMPI POP PUSH1 0x1 SWAP1 PUSH1 0xFF NOT AND OR SWAP1 SSTORE PUSH1 0x11 TIMESTAMP SWAP2 ADD SSTORE PUSH32 0x25128B02D37802123547E1526AB020238ABF16BBC37A5BD0A918D5088B016E95 DUP3 DUP1 LOG2 DUP1 RETURN JUMPDEST PUSH1 0x84 SWAP1 PUSH1 0x40 MLOAD SWAP1 PUSH3 0x461BCD PUSH1 0xE5 SHL DUP3 MSTORE PUSH1 0x4 DUP3 ADD MSTORE PUSH1 0x28 PUSH1 0x24 DUP3 ADD MSTORE PUSH32 0x537175647943616D706169676E4D616E616765723A2063616D706169676E2068 PUSH1 0x44 DUP3 ADD MSTORE PUSH8 0x185CC8195B991959 PUSH1 0xC2 SHL PUSH1 0x64 DUP3 ADD MSTORE REVERT JUMPDEST PUSH1 0x84 SWAP1 PUSH1 0x40 MLOAD SWAP1 PUSH3 0x461BCD PUSH1 0xE5 SHL DUP3 MSTORE PUSH1 0x4 DUP3 ADD MSTORE PUSH1 0x29 PUSH1 0x24 DUP3 ADD MSTORE PUSH1 0x0 DUP1 MLOAD PUSH1 0x20 PUSH2 0x39A9 DUP4 CODECOPY DUP2 MLOAD SWAP2 MSTORE PUSH1 0x44 DUP3 ADD MSTORE PUSH9 0x1BDD081C185D5CD959 PUSH1 0xBA SHL PUSH1 0x64 DUP3 ADD MSTORE REVERT JUMPDEST POP PUSH1 0x0 DUP1 MLOAD PUSH1 0x20 PUSH2 0x39E9 DUP4 CODECOPY DUP2 MLOAD SWAP2 MSTORE DUP4 MSTORE DUP3 DUP2 MSTORE PUSH1 0x40 DUP1 DUP5 KECCAK256 CALLER PUSH1 0x0 SWAP1 DUP2 MSTORE SWAP1 DUP4 MSTORE KECCAK256 SLOAD PUSH1 0xFF AND PUSH2 0xDFB JUMP JUMPDEST POP CALLVALUE PUSH2 0x5D7 JUMPI PUSH1 0x40 CALLDATASIZE PUSH1 0x3 NOT ADD SLT PUSH2 0x5D7 JUMPI PUSH1 0x40 PUSH2 0xF68 PUSH2 0x3044 JUMP JUMPDEST SWAP2 PUSH1 0x4 CALLDATALOAD DUP2 MSTORE DUP1 PUSH1 0x20 MSTORE KECCAK256 SWAP1 PUSH1 0x1 DUP1 PUSH1 0xA0 SHL SUB AND PUSH1 0x0 MSTORE PUSH1 0x20 MSTORE PUSH1 0x20 PUSH1 0xFF PUSH1 0x40 PUSH1 0x0 KECCAK256 SLOAD AND PUSH1 0x40 MLOAD SWAP1 ISZERO ISZERO DUP2 MSTORE RETURN JUMPDEST POP CALLVALUE PUSH2 0x5D7 JUMPI PUSH1 0x20 CALLDATASIZE PUSH1 0x3 NOT ADD SLT PUSH2 0x5D7 JUMPI PUSH2 0xFD8 PUSH1 0x40 PUSH2 0xFEC SWAP3 PUSH1 0x4 CALLDATALOAD DUP1 DUP3 MSTORE PUSH1 0x5 PUSH1 0x20 MSTORE PUSH2 0xFCB DUP4 DUP4 KECCAK256 SLOAD ISZERO ISZERO PUSH2 0x3656 JUMP JUMPDEST DUP2 MSTORE PUSH1 0x7 PUSH1 0x20 MSTORE KECCAK256 PUSH2 0x38F2 JUMP JUMPDEST PUSH1 0x40 MLOAD SWAP2 DUP3 SWAP2 PUSH1 0x20 DUP4 MSTORE PUSH1 0x20 DUP4 ADD SWAP1 PUSH2 0x32D7 JUMP JUMPDEST SUB SWAP1 RETURN JUMPDEST POP CALLVALUE PUSH2 0x5D7 JUMPI PUSH1 0x20 DUP1 PUSH1 0x3 NOT CALLDATASIZE ADD SLT PUSH2 0x6F3 JUMPI PUSH1 0x4 CALLDATALOAD PUSH1 0x0 DUP1 MLOAD PUSH1 0x20 PUSH2 0x39C9 DUP4 CODECOPY DUP2 MLOAD SWAP2 MSTORE DUP4 MSTORE DUP3 DUP3 MSTORE PUSH1 0x40 DUP4 KECCAK256 CALLER DUP5 MSTORE DUP3 MSTORE PUSH1 0xFF PUSH1 0x40 DUP5 KECCAK256 SLOAD AND DUP1 ISZERO PUSH2 0x12B0 JUMPI JUMPDEST PUSH2 0x103B SWAP1 PUSH2 0x35B9 JUMP JUMPDEST DUP1 DUP4 MSTORE PUSH1 0x5 DUP3 MSTORE PUSH2 0x1051 PUSH1 0x40 DUP5 KECCAK256 SLOAD ISZERO ISZERO PUSH2 0x3656 JUMP JUMPDEST DUP1 DUP4 MSTORE PUSH1 0x5 DUP3 MSTORE PUSH1 0xFF PUSH1 0xD PUSH1 0x40 DUP6 KECCAK256 ADD SLOAD PUSH1 0x8 SHR AND PUSH2 0x1257 JUMPI DUP1 DUP4 MSTORE PUSH1 0x5 DUP3 MSTORE PUSH1 0x40 DUP4 KECCAK256 SWAP2 PUSH1 0xD DUP4 ADD SWAP3 PUSH1 0xFF DUP5 SLOAD AND PUSH1 0x5 DUP2 LT ISZERO PUSH2 0x5B1 JUMPI PUSH1 0x3 PUSH2 0x1095 SWAP2 EQ PUSH2 0x375E JUMP JUMPDEST PUSH1 0xC DUP2 ADD SLOAD ISZERO PUSH2 0x11FF JUMPI PUSH1 0x7 DUP2 ADD DUP1 SLOAD DUP1 ISZERO PUSH2 0x11AA JUMPI DUP7 SWAP1 PUSH32 0x0 PUSH1 0x1 PUSH1 0x1 PUSH1 0xA0 SHL SUB AND SWAP1 DUP2 EXTCODESIZE ISZERO PUSH2 0x11A6 JUMPI PUSH1 0x40 MLOAD PUSH4 0x79CC679 PUSH1 0xE4 SHL DUP2 MSTORE ADDRESS PUSH1 0x4 DUP3 ADD MSTORE PUSH1 0x24 DUP2 ADD SWAP2 SWAP1 SWAP2 MSTORE SWAP2 SWAP1 DUP3 SWAP1 PUSH1 0x44 SWAP1 DUP3 SWAP1 DUP5 SWAP1 GAS CALL DUP1 ISZERO PUSH2 0x43B JUMPI PUSH2 0x115B JUMPI JUMPDEST POP PUSH32 0x8BC81353CF6671D259D22783E39ED930583C86F3F4CF7E981298E6A872DFB15D SWAP4 SWAP5 PUSH2 0x100 PUSH2 0xFF00 NOT DUP3 SLOAD AND OR SWAP1 SSTORE SLOAD SWAP1 DUP2 PUSH1 0xE DUP3 ADD SSTORE PUSH1 0x11 TIMESTAMP SWAP2 ADD SSTORE PUSH1 0x40 MLOAD SWAP1 DUP2 MSTORE LOG2 DUP1 RETURN JUMPDEST PUSH1 0x1 PUSH1 0x1 PUSH1 0x40 SHL SUB DUP2 GT PUSH2 0x1192 JUMPI PUSH1 0x40 MSTORE PUSH32 0x8BC81353CF6671D259D22783E39ED930583C86F3F4CF7E981298E6A872DFB15D PUSH2 0x1112 JUMP JUMPDEST PUSH4 0x4E487B71 PUSH1 0xE0 SHL DUP8 MSTORE PUSH1 0x41 PUSH1 0x4 MSTORE PUSH1 0x24 DUP8 REVERT JUMPDEST DUP3 DUP1 REVERT JUMPDEST PUSH1 0x40 MLOAD PUSH3 0x461BCD PUSH1 0xE5 SHL DUP2 MSTORE PUSH1 0x4 DUP2 ADD DUP6 SWAP1 MSTORE PUSH1 0x27 PUSH1 0x24 DUP3 ADD MSTORE PUSH32 0x537175647943616D706169676E4D616E616765723A206E6F20746F6B656E7320 PUSH1 0x44 DUP3 ADD MSTORE PUSH7 0x3A3790313AB937 PUSH1 0xC9 SHL PUSH1 0x64 DUP3 ADD MSTORE PUSH1 0x84 SWAP1 REVERT JUMPDEST PUSH1 0x40 MLOAD PUSH3 0x461BCD PUSH1 0xE5 SHL DUP2 MSTORE PUSH1 0x4 DUP2 ADD DUP4 SWAP1 MSTORE PUSH1 0x2A PUSH1 0x24 DUP3 ADD MSTORE PUSH32 0x537175647943616D706169676E4D616E616765723A2077696E6E657273206E6F PUSH1 0x44 DUP3 ADD MSTORE PUSH10 0x1D081CD95B1958DD1959 PUSH1 0xB2 SHL PUSH1 0x64 DUP3 ADD MSTORE PUSH1 0x84 SWAP1 REVERT JUMPDEST PUSH1 0x40 MLOAD PUSH3 0x461BCD PUSH1 0xE5 SHL DUP2 MSTORE PUSH1 0x4 DUP2 ADD DUP4 SWAP1 MSTORE PUSH1 0x2B PUSH1 0x24 DUP3 ADD MSTORE PUSH32 0x537175647943616D706169676E4D616E616765723A20746F6B656E7320616C72 PUSH1 0x44 DUP3 ADD MSTORE PUSH11 0x1958591E48189D5C9B9959 PUSH1 0xAA SHL PUSH1 0x64 DUP3 ADD MSTORE PUSH1 0x84 SWAP1 REVERT JUMPDEST POP PUSH1 0x0 DUP1 MLOAD PUSH1 0x20 PUSH2 0x39E9 DUP4 CODECOPY DUP2 MLOAD SWAP2 MSTORE DUP4 MSTORE DUP3 DUP3 MSTORE PUSH1 0x40 DUP1 DUP5 KECCAK256 CALLER DUP6 MSTORE DUP4 MSTORE DUP4 KECCAK256 SLOAD PUSH1 0xFF AND PUSH2 0x1032 JUMP JUMPDEST POP CALLVALUE PUSH2 0x5D7 JUMPI DUP1 PUSH1 0x3 NOT CALLDATASIZE ADD SLT PUSH2 0x5D7 JUMPI PUSH1 0x20 PUSH1 0x40 MLOAD PUSH1 0x0 DUP1 MLOAD PUSH1 0x20 PUSH2 0x39E9 DUP4 CODECOPY DUP2 MLOAD SWAP2 MSTORE DUP2 MSTORE RETURN JUMPDEST POP CALLVALUE PUSH2 0x5D7 JUMPI PUSH1 0x20 CALLDATASIZE PUSH1 0x3 NOT ADD SLT PUSH2 0x5D7 JUMPI PUSH2 0x131D PUSH2 0x305F JUMP JUMPDEST PUSH2 0x1325 PUSH2 0x3314 JUMP JUMPDEST PUSH1 0x1 PUSH1 0x1 PUSH1 0xA0 SHL SUB DUP2 AND SWAP1 DUP2 ISZERO PUSH2 0x1367 JUMPI PUSH2 0x133F SWAP1 PUSH2 0x3392 JUMP JUMPDEST POP PUSH32 0x44D6D25963F097AD14F29F06854A01F575648A1EF82F30E562CCD3889717E339 DUP3 DUP1 LOG2 DUP1 RETURN JUMPDEST PUSH1 0x40 MLOAD PUSH3 0x461BCD PUSH1 0xE5 SHL DUP2 MSTORE PUSH1 0x20 PUSH1 0x4 DUP3 ADD MSTORE PUSH1 0x2B PUSH1 0x24 DUP3 ADD MSTORE PUSH32 0x537175647943616D706169676E4D616E616765723A20696E76616C6964206164 PUSH1 0x44 DUP3 ADD MSTORE PUSH11 0x6D696E2061646472657373 PUSH1 0xA8 SHL PUSH1 0x64 DUP3 ADD MSTORE PUSH1 0x84 SWAP1 REVERT JUMPDEST POP CALLVALUE PUSH2 0x5D7 JUMPI DUP1 PUSH1 0x3 NOT CALLDATASIZE ADD SLT PUSH2 0x5D7 JUMPI PUSH1 0x20 PUSH1 0x3 SLOAD PUSH1 0x40 MLOAD SWAP1 DUP2 MSTORE RETURN JUMPDEST POP CALLVALUE PUSH2 0x5D7 JUMPI PUSH1 0x40 CALLDATASIZE PUSH1 0x3 NOT ADD SLT PUSH2 0x5D7 JUMPI PUSH1 0x1 PUSH1 0x40 PUSH1 0x20 SWAP3 PUSH1 0x4 CALLDATALOAD PUSH2 0x1402 PUSH2 0x3044 JUMP JUMPDEST SWAP1 DUP1 DUP4 MSTORE PUSH1 0x5 DUP7 MSTORE PUSH2 0x1418 DUP5 DUP5 KECCAK256 SLOAD ISZERO ISZERO PUSH2 0x3656 JUMP JUMPDEST DUP3 MSTORE PUSH1 0x6 DUP6 MSTORE DUP3 DUP3 KECCAK256 SWAP1 DUP5 DUP1 PUSH1 0xA0 SHL SUB AND DUP3 MSTORE DUP5 MSTORE KECCAK256 ADD SLOAD PUSH1 0x40 MLOAD SWAP1 DUP2 MSTORE RETURN JUMPDEST POP CALLVALUE PUSH2 0x5D7 JUMPI PUSH1 0x20 SWAP1 PUSH2 0x144A CALLDATASIZE PUSH2 0x3293 JUMP JUMPDEST SWAP1 DUP3 MSTORE PUSH1 0x8 DUP4 MSTORE PUSH1 0x40 DUP3 KECCAK256 SWAP1 DUP3 MSTORE DUP3 MSTORE PUSH1 0x40 PUSH1 0x1 DUP1 PUSH1 0xA0 SHL SUB SWAP2 KECCAK256 SLOAD AND PUSH1 0x40 MLOAD SWAP1 DUP2 MSTORE RETURN JUMPDEST POP CALLVALUE PUSH2 0x5D7 JUMPI DUP1 PUSH1 0x3 NOT CALLDATASIZE ADD SLT PUSH2 0x5D7 JUMPI PUSH1 0x20 PUSH1 0xFF PUSH1 0x2 SLOAD AND PUSH1 0x40 MLOAD SWAP1 ISZERO ISZERO DUP2 MSTORE RETURN JUMPDEST POP CALLVALUE PUSH2 0x5D7 JUMPI PUSH1 0x20 CALLDATASIZE PUSH1 0x3 NOT ADD SLT PUSH2 0x5D7 JUMPI DUP1 PUSH2 0x240 PUSH1 0x40 MLOAD PUSH2 0x14B4 DUP2 PUSH2 0x30A6 JUMP JUMPDEST DUP3 DUP2 MSTORE PUSH1 0x60 PUSH1 0x20 DUP3 ADD MSTORE PUSH1 0x60 PUSH1 0x40 DUP3 ADD MSTORE PUSH1 0x60 DUP1 DUP3 ADD MSTORE DUP3 PUSH1 0x80 DUP3 ADD MSTORE DUP3 PUSH1 0xA0 DUP3 ADD MSTORE DUP3 PUSH1 0xC0 DUP3 ADD MSTORE DUP3 PUSH1 0xE0 DUP3 ADD MSTORE DUP3 PUSH2 0x100 DUP3 ADD MSTORE DUP3 PUSH2 0x120 DUP3 ADD MSTORE DUP3 PUSH2 0x140 DUP3 ADD MSTORE PUSH1 0x60 PUSH2 0x160 DUP3 ADD MSTORE PUSH1 0x60 PUSH2 0x180 DUP3 ADD MSTORE DUP3 PUSH2 0x1A0 DUP3 ADD MSTORE DUP3 PUSH2 0x1C0 DUP3 ADD MSTORE DUP3 PUSH2 0x1E0 DUP3 ADD MSTORE DUP3 PUSH2 0x200 DUP3 ADD MSTORE DUP3 PUSH2 0x220 DUP3 ADD MSTORE ADD MSTORE PUSH1 0x4 CALLDATALOAD DUP1 DUP3 MSTORE PUSH1 0x5 PUSH1 0x20 MSTORE PUSH2 0x1547 PUSH1 0x40 DUP4 KECCAK256 SLOAD ISZERO ISZERO PUSH2 0x3656 JUMP JUMPDEST DUP2 MSTORE PUSH1 0x5 PUSH1 0x20 MSTORE PUSH1 0x40 DUP2 KECCAK256 PUSH1 0x40 MLOAD SWAP1 PUSH2 0x155F DUP3 PUSH2 0x30A6 JUMP JUMPDEST DUP1 SLOAD DUP3 MSTORE PUSH2 0x156F PUSH1 0x1 DUP3 ADD PUSH2 0x318A JUMP JUMPDEST PUSH1 0x20 DUP4 ADD MSTORE PUSH2 0x1580 PUSH1 0x2 DUP3 ADD PUSH2 0x318A JUMP JUMPDEST PUSH1 0x40 DUP4 ADD MSTORE PUSH2 0x1591 PUSH1 0x3 DUP3 ADD PUSH2 0x318A JUMP JUMPDEST PUSH1 0x60 DUP4 ADD MSTORE PUSH1 0x4 DUP2 ADD SLOAD PUSH1 0x80 DUP4 ADD MSTORE PUSH1 0x5 DUP2 ADD SLOAD PUSH1 0xA0 DUP4 ADD MSTORE PUSH1 0x6 DUP2 ADD SLOAD PUSH1 0xC0 DUP4 ADD MSTORE PUSH1 0x7 DUP2 ADD SLOAD PUSH1 0xE0 DUP4 ADD MSTORE PUSH1 0x8 DUP2 ADD SLOAD PUSH2 0x100 DUP4 ADD MSTORE PUSH1 0x9 DUP2 ADD SLOAD PUSH2 0x120 DUP4 ADD MSTORE PUSH1 0xA DUP2 ADD SLOAD PUSH2 0x140 DUP4 ADD MSTORE PUSH1 0xB DUP2 ADD SLOAD PUSH2 0x15ED DUP2 PUSH2 0x3139 JUMP JUMPDEST SWAP1 PUSH2 0x15FB PUSH1 0x40 MLOAD SWAP3 DUP4 PUSH2 0x30C2 JUMP JUMPDEST DUP1 DUP3 MSTORE PUSH1 0x20 DUP3 ADD PUSH1 0xB DUP5 ADD DUP7 MSTORE PUSH1 0x20 DUP7 KECCAK256 DUP7 SWAP2 JUMPDEST DUP4 DUP4 LT PUSH2 0x1819 JUMPI POP POP POP POP PUSH2 0x160 DUP4 ADD MSTORE PUSH2 0x162C PUSH1 0xC DUP3 ADD PUSH2 0x38F2 JUMP JUMPDEST PUSH2 0x180 DUP4 ADD MSTORE PUSH1 0xD DUP2 ADD SLOAD PUSH1 0x5 PUSH1 0xFF DUP3 AND LT ISZERO PUSH2 0x1805 JUMPI SWAP1 PUSH1 0xFF DUP3 DUP2 PUSH1 0x11 SWAP5 AND PUSH2 0x1A0 DUP7 ADD MSTORE PUSH1 0x8 SHR AND ISZERO ISZERO PUSH2 0x1C0 DUP5 ADD MSTORE PUSH1 0xE DUP2 ADD SLOAD PUSH2 0x1E0 DUP5 ADD MSTORE PUSH1 0xF DUP2 ADD SLOAD PUSH2 0x200 DUP5 ADD MSTORE PUSH1 0x10 DUP2 ADD SLOAD PUSH2 0x220 DUP5 ADD MSTORE ADD SLOAD PUSH2 0x240 DUP3 ADD MSTORE PUSH1 0x40 MLOAD SWAP1 PUSH1 0x20 DUP3 MSTORE DUP1 MLOAD PUSH1 0x20 DUP4 ADD MSTORE PUSH2 0x16E3 PUSH2 0x16CD PUSH2 0x16B7 PUSH1 0x20 DUP5 ADD MLOAD PUSH2 0x260 PUSH1 0x40 DUP8 ADD MSTORE PUSH2 0x280 DUP7 ADD SWAP1 PUSH2 0x3230 JUMP JUMPDEST PUSH1 0x40 DUP5 ADD MLOAD DUP6 DUP3 SUB PUSH1 0x1F NOT ADD PUSH1 0x60 DUP8 ADD MSTORE PUSH2 0x3230 JUMP JUMPDEST PUSH1 0x60 DUP4 ADD MLOAD DUP5 DUP3 SUB PUSH1 0x1F NOT ADD PUSH1 0x80 DUP7 ADD MSTORE PUSH2 0x3230 JUMP JUMPDEST SWAP3 PUSH1 0x80 DUP3 ADD MLOAD PUSH1 0xA0 DUP5 ADD MSTORE PUSH1 0xA0 DUP3 ADD MLOAD PUSH1 0xC0 DUP5 ADD MSTORE PUSH1 0xC0 DUP3 ADD MLOAD PUSH1 0xE0 DUP5 ADD MSTORE PUSH1 0xE0 DUP3 ADD MLOAD PUSH2 0x100 DUP5 ADD MSTORE PUSH2 0x100 DUP3 ADD MLOAD PUSH2 0x120 DUP5 ADD MSTORE PUSH2 0x120 DUP3 ADD MLOAD PUSH2 0x140 DUP5 ADD MSTORE PUSH2 0x140 DUP3 ADD MLOAD PUSH2 0x160 DUP5 ADD MSTORE PUSH2 0x160 DUP3 ADD MLOAD SWAP4 PUSH1 0x1F NOT DUP5 DUP3 SUB ADD PUSH2 0x180 DUP6 ADD MSTORE DUP5 MLOAD SWAP1 DUP2 DUP2 MSTORE PUSH1 0x20 DUP2 ADD PUSH1 0x20 DUP1 DUP5 PUSH1 0x5 SHL DUP5 ADD ADD SWAP8 ADD SWAP4 SWAP2 JUMPDEST DUP4 DUP4 LT PUSH2 0x17D8 JUMPI DUP7 DUP1 DUP8 PUSH2 0x240 PUSH2 0x1787 DUP13 PUSH2 0x180 DUP5 ADD MLOAD PUSH1 0x1F NOT DUP7 DUP4 SUB ADD PUSH2 0x1A0 DUP8 ADD MSTORE PUSH2 0x32D7 JUMP JUMPDEST SWAP2 PUSH2 0x179C PUSH2 0x1A0 DUP3 ADD MLOAD PUSH2 0x1C0 DUP7 ADD SWAP1 PUSH2 0x3270 JUMP JUMPDEST PUSH2 0x1C0 DUP2 ADD MLOAD ISZERO ISZERO PUSH2 0x1E0 DUP6 ADD MSTORE PUSH2 0x1E0 DUP2 ADD MLOAD PUSH2 0x200 DUP6 ADD MSTORE PUSH2 0x200 DUP2 ADD MLOAD PUSH2 0x220 DUP6 ADD MSTORE PUSH2 0x220 DUP2 ADD MLOAD DUP3 DUP6 ADD MSTORE ADD MLOAD PUSH2 0x260 DUP4 ADD MSTORE SUB SWAP1 RETURN JUMPDEST SWAP1 SWAP2 SWAP3 SWAP4 SWAP7 PUSH1 0x20 DUP1 PUSH2 0x17F6 PUSH1 0x1 SWAP4 PUSH1 0x1F NOT DUP7 DUP3 SUB ADD DUP8 MSTORE DUP12 MLOAD PUSH2 0x3230 JUMP JUMPDEST SWAP10 ADD SWAP4 ADD SWAP4 ADD SWAP2 SWAP4 SWAP3 SWAP1 PUSH2 0x175E JUMP JUMPDEST PUSH4 0x4E487B71 PUSH1 0xE0 SHL DUP5 MSTORE PUSH1 0x21 PUSH1 0x4 MSTORE PUSH1 0x24 DUP5 REVERT JUMPDEST PUSH1 0x1 PUSH1 0x20 DUP2 SWAP3 PUSH2 0x1828 DUP6 PUSH2 0x318A JUMP JUMPDEST DUP2 MSTORE ADD SWAP3 ADD SWAP3 ADD SWAP2 SWAP1 PUSH2 0x160F JUMP JUMPDEST POP CALLVALUE PUSH2 0x5D7 JUMPI DUP1 PUSH1 0x3 NOT CALLDATASIZE ADD SLT PUSH2 0x5D7 JUMPI PUSH1 0x0 DUP1 MLOAD PUSH1 0x20 PUSH2 0x39E9 DUP4 CODECOPY DUP2 MLOAD SWAP2 MSTORE DUP2 MSTORE DUP1 PUSH1 0x20 MSTORE PUSH1 0x40 DUP2 KECCAK256 CALLER DUP3 MSTORE PUSH1 0x20 MSTORE PUSH2 0x1876 PUSH1 0xFF PUSH1 0x40 DUP4 KECCAK256 SLOAD AND PUSH2 0x394A JUMP JUMPDEST PUSH1 0x2 SLOAD PUSH1 0xFF DUP2 AND PUSH2 0x18B9 JUMPI PUSH1 0x1 SWAP1 PUSH1 0xFF NOT AND OR PUSH1 0x2 SSTORE PUSH32 0x62E78CEA01BEE320CD4E420270B5EA74000D11B0C9F74754EBDBFC544B05A258 PUSH1 0x20 PUSH1 0x40 MLOAD CALLER DUP2 MSTORE LOG1 DUP1 RETURN JUMPDEST PUSH1 0x40 MLOAD PUSH4 0xD93C0665 PUSH1 0xE0 SHL DUP2 MSTORE PUSH1 0x4 SWAP1 REVERT JUMPDEST POP CALLVALUE PUSH2 0x5D7 JUMPI DUP1 PUSH1 0x3 NOT CALLDATASIZE ADD SLT PUSH2 0x5D7 JUMPI PUSH1 0x40 MLOAD PUSH32 0x0 PUSH1 0x1 PUSH1 0x1 PUSH1 0xA0 SHL SUB AND DUP2 MSTORE PUSH1 0x20 SWAP1 RETURN JUMPDEST POP CALLVALUE PUSH2 0x5D7 JUMPI PUSH1 0x20 DUP1 PUSH1 0x3 NOT CALLDATASIZE ADD SLT PUSH2 0x6F3 JUMPI PUSH1 0x4 CALLDATALOAD PUSH1 0x5 SWAP3 DUP4 DUP3 LT ISZERO SWAP2 DUP3 PUSH2 0x6F3 JUMPI PUSH1 0x3 SLOAD SWAP3 SWAP5 PUSH1 0x1 SWAP4 SWAP1 DUP4 DUP6 JUMPDEST DUP4 DUP2 GT ISZERO PUSH2 0x1A0B JUMPI POP PUSH2 0x1951 SWAP1 PUSH2 0x37F1 JUMP JUMPDEST SWAP7 DUP5 SWAP2 DUP7 JUMPDEST DUP5 DUP2 GT ISZERO PUSH2 0x199D JUMPI POP POP POP POP POP POP PUSH1 0x40 MLOAD SWAP3 DUP1 DUP5 ADD SWAP1 DUP1 DUP6 MSTORE DUP6 MLOAD DUP1 SWAP3 MSTORE DUP1 PUSH1 0x40 DUP7 ADD SWAP7 ADD SWAP3 JUMPDEST DUP3 DUP2 LT PUSH2 0x198A JUMPI DUP6 DUP8 SUB DUP7 RETURN JUMPDEST DUP4 MLOAD DUP8 MSTORE SWAP6 DUP2 ADD SWAP6 SWAP3 DUP2 ADD SWAP3 DUP5 ADD PUSH2 0x197D JUMP JUMPDEST DUP1 DUP8 MSTORE DUP2 DUP10 MSTORE PUSH1 0x40 DUP8 KECCAK256 PUSH1 0xD ADD SLOAD SWAP8 SWAP10 SWAP8 PUSH1 0xFF AND DUP4 PUSH2 0x19F7 JUMPI DUP3 DUP2 LT ISZERO PUSH2 0x19F7 JUMPI DUP7 EQ PUSH2 0x19D6 JUMPI JUMPDEST PUSH2 0x19CE SWAP1 PUSH2 0x361A JUMP JUMPDEST SWAP9 SWAP7 SWAP9 PUSH2 0x1956 JUMP JUMPDEST SWAP3 PUSH2 0x19EF DUP2 DUP6 PUSH2 0x19E9 PUSH2 0x19CE SWAP5 DUP13 PUSH2 0x3823 JUMP JUMPDEST MSTORE PUSH2 0x361A JUMP JUMPDEST SWAP4 SWAP1 POP PUSH2 0x19C5 JUMP JUMPDEST PUSH4 0x4E487B71 PUSH1 0xE0 SHL DUP9 MSTORE PUSH1 0x21 PUSH1 0x4 MSTORE PUSH1 0x24 DUP9 REVERT JUMPDEST DUP1 DUP7 MSTORE DUP3 DUP9 MSTORE PUSH1 0x40 DUP7 KECCAK256 PUSH1 0xD ADD SLOAD SWAP7 SWAP9 SWAP7 PUSH1 0xFF AND DUP8 PUSH2 0xD59 JUMPI DUP4 DUP2 LT ISZERO PUSH2 0xD59 JUMPI DUP6 EQ PUSH2 0x1A44 JUMPI JUMPDEST PUSH2 0x1A3C SWAP1 PUSH2 0x361A JUMP JUMPDEST SWAP8 SWAP6 SWAP8 PUSH2 0x193F JUMP JUMPDEST SWAP1 PUSH2 0x1A51 PUSH2 0x1A3C SWAP2 PUSH2 0x361A JUMP JUMPDEST SWAP2 SWAP1 POP PUSH2 0x1A33 JUMP JUMPDEST POP CALLVALUE PUSH2 0x5D7 JUMPI DUP1 PUSH1 0x3 NOT CALLDATASIZE ADD SLT PUSH2 0x5D7 JUMPI PUSH1 0x0 DUP1 MLOAD PUSH1 0x20 PUSH2 0x39E9 DUP4 CODECOPY DUP2 MLOAD SWAP2 MSTORE DUP2 MSTORE DUP1 PUSH1 0x20 MSTORE PUSH1 0x40 DUP2 KECCAK256 CALLER DUP3 MSTORE PUSH1 0x20 MSTORE PUSH2 0x1A99 PUSH1 0xFF PUSH1 0x40 DUP4 KECCAK256 SLOAD AND PUSH2 0x394A JUMP JUMPDEST PUSH1 0x2 SLOAD PUSH1 0xFF DUP2 AND ISZERO PUSH2 0x1AD9 JUMPI PUSH1 0xFF NOT AND PUSH1 0x2 SSTORE PUSH32 0x5DB9EE0A495BF2E6FF9C91A7834C1BA4FDD244A5E8AA4E537BD38AEAE4B073AA PUSH1 0x20 PUSH1 0x40 MLOAD CALLER DUP2 MSTORE LOG1 DUP1 RETURN JUMPDEST PUSH1 0x40 MLOAD PUSH4 0x8DFC202B PUSH1 0xE0 SHL DUP2 MSTORE PUSH1 0x4 SWAP1 REVERT JUMPDEST POP CALLVALUE PUSH2 0x5D7 JUMPI PUSH1 0x20 DUP1 PUSH1 0x3 NOT CALLDATASIZE ADD SLT PUSH2 0x6F3 JUMPI PUSH1 0x4 CALLDATALOAD PUSH1 0x0 DUP1 MLOAD PUSH1 0x20 PUSH2 0x39C9 DUP4 CODECOPY DUP2 MLOAD SWAP2 MSTORE DUP4 MSTORE DUP3 DUP3 MSTORE PUSH1 0x40 DUP4 KECCAK256 CALLER DUP5 MSTORE DUP3 MSTORE PUSH1 0xFF PUSH1 0x40 DUP5 KECCAK256 SLOAD AND DUP1 ISZERO PUSH2 0x1C20 JUMPI JUMPDEST PUSH2 0x1B36 SWAP1 PUSH2 0x35B9 JUMP JUMPDEST DUP1 DUP4 MSTORE PUSH1 0x5 DUP3 MSTORE PUSH2 0x1B4C PUSH1 0x40 DUP5 KECCAK256 SLOAD ISZERO ISZERO PUSH2 0x3656 JUMP JUMPDEST DUP3 MSTORE PUSH1 0x5 DUP2 MSTORE PUSH1 0x40 DUP3 KECCAK256 SWAP1 PUSH1 0xD DUP3 ADD SWAP1 DUP2 SLOAD SWAP1 PUSH1 0xFF DUP3 AND PUSH1 0x5 DUP2 LT ISZERO PUSH2 0x5B1 JUMPI PUSH2 0x1BDB JUMPI PUSH1 0x8 DUP5 ADD SLOAD TIMESTAMP LT PUSH2 0x1B8F JUMPI POP PUSH1 0x1 SWAP1 PUSH1 0xFF NOT AND OR SWAP1 SSTORE PUSH1 0x11 TIMESTAMP SWAP2 ADD SSTORE DUP1 RETURN JUMPDEST PUSH1 0x84 SWAP1 PUSH1 0x40 MLOAD SWAP1 PUSH3 0x461BCD PUSH1 0xE5 SHL DUP3 MSTORE PUSH1 0x4 DUP3 ADD MSTORE PUSH1 0x31 PUSH1 0x24 DUP3 ADD MSTORE PUSH1 0x0 DUP1 MLOAD PUSH1 0x20 PUSH2 0x39A9 DUP4 CODECOPY DUP2 MLOAD SWAP2 MSTORE PUSH1 0x44 DUP3 ADD MSTORE PUSH17 0x1BDD081C9958591E481D1BC81CDD185C9D PUSH1 0x7A SHL PUSH1 0x64 DUP3 ADD MSTORE REVERT JUMPDEST PUSH1 0x84 SWAP1 PUSH1 0x40 MLOAD SWAP1 PUSH3 0x461BCD PUSH1 0xE5 SHL DUP3 MSTORE PUSH1 0x4 DUP3 ADD MSTORE PUSH1 0x2A PUSH1 0x24 DUP3 ADD MSTORE PUSH1 0x0 DUP1 MLOAD PUSH1 0x20 PUSH2 0x39A9 DUP4 CODECOPY DUP2 MLOAD SWAP2 MSTORE PUSH1 0x44 DUP3 ADD MSTORE PUSH10 0x6F742070656E64696E67 PUSH1 0xB0 SHL PUSH1 0x64 DUP3 ADD MSTORE REVERT JUMPDEST POP PUSH1 0x0 DUP1 MLOAD PUSH1 0x20 PUSH2 0x39E9 DUP4 CODECOPY DUP2 MLOAD SWAP2 MSTORE DUP4 MSTORE DUP3 DUP3 MSTORE PUSH1 0x40 DUP1 DUP5 KECCAK256 CALLER DUP6 MSTORE DUP4 MSTORE DUP4 KECCAK256 SLOAD PUSH1 0xFF AND PUSH2 0x1B2D JUMP JUMPDEST POP CALLVALUE PUSH2 0x5D7 JUMPI PUSH1 0x20 CALLDATASIZE PUSH1 0x3 NOT ADD SLT PUSH2 0x5D7 JUMPI PUSH1 0x0 DUP1 MLOAD PUSH1 0x20 PUSH2 0x39C9 DUP4 CODECOPY DUP2 MLOAD SWAP2 MSTORE DUP2 MSTORE DUP1 PUSH1 0x20 MSTORE PUSH1 0x40 DUP2 KECCAK256 CALLER DUP3 MSTORE PUSH1 0x20 MSTORE PUSH1 0xFF DUP1 PUSH1 0x40 DUP4 KECCAK256 SLOAD AND DUP1 ISZERO PUSH2 0x2135 JUMPI JUMPDEST PUSH2 0x1C94 SWAP1 PUSH2 0x35B9 JUMP JUMPDEST PUSH1 0x4 CALLDATALOAD DUP3 MSTORE PUSH1 0x5 PUSH1 0x20 MSTORE PUSH2 0x1CAD PUSH1 0x40 DUP4 KECCAK256 SLOAD ISZERO ISZERO PUSH2 0x3656 JUMP JUMPDEST PUSH1 0x4 CALLDATALOAD DUP3 MSTORE PUSH1 0x5 PUSH1 0x20 MSTORE PUSH1 0x40 DUP3 KECCAK256 DUP2 PUSH1 0xD DUP3 ADD SLOAD AND PUSH1 0x5 DUP2 LT ISZERO PUSH2 0x1805 JUMPI PUSH1 0x3 PUSH2 0x1CD7 SWAP2 EQ PUSH2 0x375E JUMP JUMPDEST PUSH1 0xA DUP2 ADD SLOAD SWAP1 PUSH2 0x1CE8 DUP3 ISZERO ISZERO PUSH2 0x3704 JUMP JUMPDEST PUSH1 0xC DUP2 ADD SLOAD PUSH2 0x20D9 JUMPI PUSH2 0x1CFA DUP3 PUSH2 0x37F1 JUMP JUMPDEST PUSH1 0x4 SLOAD SWAP1 SWAP3 DUP6 JUMPDEST DUP2 DUP2 LT PUSH2 0x2094 JUMPI POP POP PUSH2 0x1D13 SWAP1 PUSH2 0x361A JUMP JUMPDEST PUSH1 0x4 SSTORE PUSH1 0x4 CALLDATALOAD DUP5 MSTORE PUSH1 0x5 PUSH1 0x20 MSTORE PUSH1 0x40 DUP5 KECCAK256 DUP5 SWAP4 DUP6 DUP7 SWAP2 PUSH1 0xA DUP5 ADD SLOAD SWAP3 JUMPDEST DUP4 DUP2 LT PUSH2 0x201C JUMPI POP POP POP POP DUP4 ISZERO PUSH2 0x1FC0 JUMPI PUSH1 0xB ADD SLOAD SWAP3 PUSH2 0x1D4F DUP5 PUSH2 0x3139 JUMP JUMPDEST SWAP3 PUSH2 0x1D5D PUSH1 0x40 MLOAD SWAP5 DUP6 PUSH2 0x30C2 JUMP JUMPDEST DUP5 DUP5 MSTORE PUSH1 0x1F NOT PUSH2 0x1D6C DUP7 PUSH2 0x3139 JUMP JUMPDEST ADD CALLDATASIZE PUSH1 0x20 DUP7 ADD CALLDATACOPY DUP6 SWAP3 DUP7 JUMPDEST DUP3 MLOAD DUP2 LT DUP1 PUSH2 0x1FB7 JUMPI JUMPDEST ISZERO PUSH2 0x1E7B JUMPI PUSH2 0x1DA5 PUSH2 0x1D9D DUP6 PUSH2 0x1D97 DUP5 DUP8 PUSH2 0x3823 JUMP JUMPDEST MLOAD PUSH2 0x37AC JUMP JUMPDEST PUSH1 0x4 CALLDATALOAD PUSH2 0x3837 JUMP JUMPDEST DUP9 DUP10 JUMPDEST DUP8 DUP2 LT PUSH2 0x1E46 JUMPI JUMPDEST POP ISZERO PUSH2 0x1DC6 JUMPI JUMPDEST POP PUSH2 0x1DC1 SWAP1 PUSH2 0x361A JUMP JUMPDEST PUSH2 0x1D77 JUMP JUMPDEST SWAP1 SWAP5 PUSH2 0x1DC1 SWAP2 PUSH2 0x1E3F SWAP2 SWAP1 PUSH1 0x1 PUSH1 0x1 PUSH1 0xA0 SHL SUB DUP2 AND PUSH2 0x1DE5 DUP4 DUP12 PUSH2 0x3823 JUMP JUMPDEST MSTORE PUSH1 0x4 CALLDATALOAD DUP12 MSTORE PUSH1 0x6 DUP1 PUSH1 0x20 MSTORE PUSH1 0x40 DUP13 KECCAK256 PUSH1 0x1 DUP1 PUSH1 0xA0 SHL SUB DUP4 AND DUP14 MSTORE PUSH1 0x20 MSTORE PUSH1 0x2 PUSH1 0x40 DUP14 KECCAK256 ADD PUSH2 0x100 PUSH2 0xFF00 NOT DUP3 SLOAD AND OR SWAP1 SSTORE PUSH1 0x4 CALLDATALOAD DUP13 MSTORE PUSH1 0x20 MSTORE PUSH1 0x40 DUP12 KECCAK256 SWAP1 PUSH1 0x1 DUP1 PUSH1 0xA0 SHL SUB AND DUP12 MSTORE PUSH1 0x20 MSTORE DUP1 PUSH1 0x3 PUSH1 0x40 DUP13 KECCAK256 ADD SSTORE PUSH2 0x361A JUMP JUMPDEST SWAP5 SWAP1 PUSH2 0x1DB7 JUMP JUMPDEST PUSH1 0x1 PUSH1 0x1 PUSH1 0xA0 SHL SUB DUP4 DUP2 AND SWAP1 PUSH2 0x1E5C DUP4 DUP13 PUSH2 0x3823 JUMP JUMPDEST MLOAD AND EQ PUSH2 0x1E71 JUMPI PUSH2 0x1E6C SWAP1 PUSH2 0x361A JUMP JUMPDEST PUSH2 0x1DA8 JUMP JUMPDEST POP POP PUSH1 0x1 CODESIZE PUSH2 0x1DB0 JUMP JUMPDEST DUP8 DUP7 DUP4 DUP2 MLOAD SWAP1 PUSH1 0x1 PUSH1 0x1 PUSH1 0x40 SHL SUB SWAP2 DUP3 DUP2 GT PUSH2 0x1FA3 JUMPI PUSH1 0x1 PUSH1 0x40 SHL DUP2 GT PUSH2 0x1FA3 JUMPI PUSH1 0xC DUP3 ADD SLOAD DUP2 PUSH1 0xC DUP5 ADD SSTORE DUP1 DUP3 LT PUSH2 0x1F85 JUMPI JUMPDEST POP PUSH1 0x20 DUP5 ADD PUSH1 0xC DUP4 ADD DUP7 MSTORE PUSH1 0x20 DUP7 KECCAK256 DUP7 JUMPDEST DUP4 DUP2 LT PUSH2 0x1F68 JUMPI POP POP POP POP PUSH1 0x4 SLOAD SWAP3 PUSH1 0x40 MLOAD SWAP4 PUSH1 0x20 DUP6 ADD SWAP1 TIMESTAMP DUP3 MSTORE PUSH1 0x40 DUP7 ADD MSTORE PUSH1 0x40 DUP6 MSTORE PUSH1 0x60 DUP6 ADD SWAP4 DUP6 DUP6 LT SWAP1 DUP6 GT OR PUSH2 0x1F54 JUMPI DUP4 SWAP3 SWAP2 PUSH2 0x1F3F SWAP2 PUSH32 0xB7330AB5EFF0061DCC2CE398CDCBA65229F5E42D18318346E19C17B1CC1EBEC6 SWAP6 PUSH1 0x40 MSTORE DUP7 MLOAD SWAP1 KECCAK256 SWAP3 DUP4 PUSH1 0xF DUP3 ADD SSTORE PUSH1 0x11 TIMESTAMP SWAP2 ADD SSTORE PUSH1 0x40 DUP5 MSTORE PUSH1 0xA0 DUP7 ADD SWAP1 PUSH2 0x32D7 JUMP JUMPDEST SWAP1 PUSH1 0x80 DUP6 ADD MSTORE PUSH1 0x4 CALLDATALOAD SWAP4 PUSH1 0x5F NOT SWAP2 SUB ADD SWAP1 LOG2 DUP1 RETURN JUMPDEST PUSH4 0x4E487B71 PUSH1 0xE0 SHL DUP7 MSTORE PUSH1 0x41 PUSH1 0x4 MSTORE PUSH1 0x24 DUP7 REVERT JUMPDEST DUP3 MLOAD PUSH1 0x1 PUSH1 0x1 PUSH1 0xA0 SHL SUB AND DUP2 DUP4 ADD SSTORE PUSH1 0x20 SWAP1 SWAP3 ADD SWAP2 PUSH1 0x1 ADD PUSH2 0x1EC0 JUMP JUMPDEST PUSH1 0xC DUP4 ADD DUP7 MSTORE PUSH1 0x20 DUP7 KECCAK256 PUSH2 0x1F9D SWAP2 DUP2 ADD SWAP1 DUP4 ADD PUSH2 0x363F JUMP JUMPDEST DUP6 PUSH2 0x1EAF JUMP JUMPDEST PUSH4 0x4E487B71 PUSH1 0xE0 SHL DUP6 MSTORE PUSH1 0x41 PUSH1 0x4 MSTORE PUSH1 0x24 DUP6 REVERT JUMPDEST POP DUP7 DUP6 LT PUSH2 0x1D81 JUMP JUMPDEST PUSH1 0x40 MLOAD PUSH3 0x461BCD PUSH1 0xE5 SHL DUP2 MSTORE PUSH1 0x20 PUSH1 0x4 DUP3 ADD MSTORE PUSH1 0x2E PUSH1 0x24 DUP3 ADD MSTORE PUSH32 0x537175647943616D706169676E4D616E616765723A206E6F20656C696769626C PUSH1 0x44 DUP3 ADD MSTORE PUSH14 0x65207061727469636970616E7473 PUSH1 0x90 SHL PUSH1 0x64 DUP3 ADD MSTORE PUSH1 0x84 SWAP1 REVERT JUMPDEST PUSH1 0x4 CALLDATALOAD DUP10 MSTORE PUSH1 0x8 PUSH1 0x20 MSTORE PUSH1 0x40 DUP10 KECCAK256 DUP2 DUP11 MSTORE PUSH1 0x20 MSTORE PUSH1 0x1 DUP1 PUSH1 0xA0 SHL SUB PUSH1 0x40 DUP11 KECCAK256 SLOAD AND PUSH1 0x4 CALLDATALOAD DUP11 MSTORE PUSH1 0x6 PUSH1 0x20 MSTORE PUSH1 0x40 DUP11 KECCAK256 SWAP1 DUP11 MSTORE PUSH1 0x20 MSTORE PUSH1 0x40 DUP10 KECCAK256 DUP3 PUSH1 0x2 DUP3 ADD SLOAD AND PUSH2 0x2070 JUMPI JUMPDEST POP PUSH2 0x206B SWAP1 PUSH2 0x361A JUMP JUMPDEST PUSH2 0x1D30 JUMP JUMPDEST PUSH2 0x2087 PUSH2 0x206B SWAP3 SWAP5 SWAP10 PUSH1 0x1 PUSH2 0x208D SWAP4 ADD SLOAD SWAP1 PUSH2 0x37CC JUMP JUMPDEST SWAP9 PUSH2 0x361A JUMP JUMPDEST SWAP3 SWAP1 PUSH2 0x2061 JUMP JUMPDEST PUSH2 0x20D4 SWAP1 PUSH1 0x40 MLOAD PUSH1 0x20 DUP2 ADD SWAP1 TIMESTAMP DUP3 MSTORE PREVRANDAO PUSH1 0x40 DUP3 ADD MSTORE NUMBER PUSH1 0x60 DUP3 ADD MSTORE DUP6 PUSH1 0x80 DUP3 ADD MSTORE PUSH1 0xA0 DUP4 DUP2 DUP4 ADD MSTORE DUP2 MSTORE PUSH2 0x20C7 DUP2 PUSH2 0x3075 JUMP JUMPDEST MLOAD SWAP1 KECCAK256 PUSH2 0x19E9 DUP3 DUP9 PUSH2 0x3823 JUMP JUMPDEST PUSH2 0x1D01 JUMP JUMPDEST PUSH1 0x40 MLOAD PUSH3 0x461BCD PUSH1 0xE5 SHL DUP2 MSTORE PUSH1 0x20 PUSH1 0x4 DUP3 ADD MSTORE PUSH1 0x2E PUSH1 0x24 DUP3 ADD MSTORE PUSH32 0x537175647943616D706169676E4D616E616765723A2077696E6E65727320616C PUSH1 0x44 DUP3 ADD MSTORE PUSH14 0x1C9958591E481CD95B1958DD1959 PUSH1 0x92 SHL PUSH1 0x64 DUP3 ADD MSTORE PUSH1 0x84 SWAP1 REVERT JUMPDEST POP PUSH1 0x0 DUP1 MLOAD PUSH1 0x20 PUSH2 0x39E9 DUP4 CODECOPY DUP2 MLOAD SWAP2 MSTORE DUP3 MSTORE PUSH1 0x20 DUP3 DUP2 MSTORE PUSH1 0x40 DUP1 DUP5 KECCAK256 CALLER DUP6 MSTORE SWAP1 SWAP2 MSTORE DUP3 KECCAK256 SLOAD DUP2 AND PUSH2 0x1C8B JUMP JUMPDEST POP CALLVALUE PUSH2 0x5D7 JUMPI PUSH1 0x40 CALLDATASIZE PUSH1 0x3 NOT ADD SLT PUSH2 0x5D7 JUMPI PUSH2 0x217B PUSH2 0x3044 JUMP JUMPDEST CALLER PUSH1 0x1 PUSH1 0x1 PUSH1 0xA0 SHL SUB DUP3 AND SUB PUSH2 0x2197 JUMPI PUSH2 0x7AE SWAP1 PUSH1 0x4 CALLDATALOAD PUSH2 0x3544 JUMP JUMPDEST PUSH1 0x40 MLOAD PUSH4 0x334BD919 PUSH1 0xE1 SHL DUP2 MSTORE PUSH1 0x4 SWAP1 REVERT JUMPDEST POP CALLVALUE PUSH2 0x5D7 JUMPI PUSH1 0x40 CALLDATASIZE PUSH1 0x3 NOT ADD SLT PUSH2 0x5D7 JUMPI PUSH1 0xC0 SWAP1 PUSH1 0x40 PUSH1 0x4 CALLDATALOAD SWAP2 PUSH2 0x21CC PUSH2 0x3044 JUMP JUMPDEST DUP3 MLOAD SWAP4 PUSH2 0x21D8 DUP6 PUSH2 0x3075 JUMP JUMPDEST DUP3 DUP6 MSTORE DUP3 PUSH1 0xA0 PUSH1 0x20 SWAP7 DUP3 DUP9 DUP3 ADD MSTORE DUP3 DUP8 DUP3 ADD MSTORE DUP3 PUSH1 0x60 DUP3 ADD MSTORE DUP3 PUSH1 0x80 DUP3 ADD MSTORE ADD MSTORE DUP1 DUP4 MSTORE PUSH1 0x5 DUP6 MSTORE PUSH2 0x220E DUP5 DUP5 KECCAK256 SLOAD ISZERO ISZERO PUSH2 0x3656 JUMP JUMPDEST DUP3 MSTORE PUSH1 0x6 DUP5 MSTORE DUP3 DUP3 KECCAK256 PUSH1 0x1 PUSH1 0x1 PUSH1 0xA0 SHL SUB SWAP1 SWAP2 AND DUP3 MSTORE DUP4 MSTORE KECCAK256 PUSH1 0x40 MLOAD SWAP1 PUSH2 0x2234 DUP3 PUSH2 0x3075 JUMP JUMPDEST DUP1 SLOAD SWAP3 DUP4 DUP4 MSTORE PUSH1 0x1 DUP3 ADD SLOAD DUP2 DUP5 ADD SWAP1 DUP2 MSTORE PUSH1 0x2 DUP4 ADD SLOAD SWAP2 PUSH1 0x40 DUP6 ADD SWAP2 PUSH1 0xFF DUP5 AND ISZERO ISZERO DUP4 MSTORE PUSH1 0xFF PUSH1 0x60 DUP8 ADD SWAP5 PUSH1 0x8 SHR AND ISZERO ISZERO DUP5 MSTORE PUSH1 0xA0 PUSH1 0x4 PUSH1 0x3 DUP8 ADD SLOAD SWAP7 PUSH1 0x80 DUP10 ADD SWAP8 DUP9 MSTORE ADD SLOAD SWAP7 ADD SWAP6 DUP7 MSTORE PUSH1 0x40 MLOAD SWAP7 DUP8 MSTORE MLOAD SWAP1 DUP7 ADD MSTORE MLOAD ISZERO ISZERO PUSH1 0x40 DUP6 ADD MSTORE MLOAD ISZERO ISZERO PUSH1 0x60 DUP5 ADD MSTORE MLOAD PUSH1 0x80 DUP4 ADD MSTORE MLOAD PUSH1 0xA0 DUP3 ADD MSTORE RETURN JUMPDEST POP CALLVALUE PUSH2 0x5D7 JUMPI PUSH2 0x22B7 CALLDATASIZE PUSH2 0x3293 JUMP JUMPDEST SWAP2 SWAP1 DUP2 MSTORE PUSH1 0x7 PUSH1 0x20 MSTORE PUSH1 0x40 DUP2 KECCAK256 SWAP1 DUP2 SLOAD DUP4 LT ISZERO PUSH2 0x5D7 JUMPI PUSH1 0x20 PUSH2 0x22DA DUP5 DUP5 PUSH2 0x32A9 JUMP JUMPDEST SWAP1 SLOAD PUSH1 0x40 MLOAD PUSH1 0x3 SWAP3 SWAP1 SWAP3 SHL SHR PUSH1 0x1 PUSH1 0x1 PUSH1 0xA0 SHL SUB AND DUP2 MSTORE RETURN JUMPDEST POP CALLVALUE PUSH2 0x5D7 JUMPI PUSH1 0x40 CALLDATASIZE PUSH1 0x3 NOT ADD SLT PUSH2 0x5D7 JUMPI PUSH2 0x7AE PUSH1 0x4 CALLDATALOAD PUSH2 0x2313 PUSH2 0x3044 JUMP JUMPDEST SWAP1 DUP1 DUP5 MSTORE DUP4 PUSH1 0x20 MSTORE PUSH2 0x232B PUSH1 0x1 PUSH1 0x40 DUP7 KECCAK256 ADD SLOAD PUSH2 0x336C JUMP JUMPDEST PUSH2 0x3432 JUMP JUMPDEST POP CALLVALUE PUSH2 0x5D7 JUMPI PUSH1 0x20 CALLDATASIZE PUSH1 0x3 NOT ADD SLT PUSH2 0x5D7 JUMPI PUSH1 0x1 PUSH1 0x40 PUSH1 0x20 SWAP3 PUSH1 0x4 CALLDATALOAD DUP2 MSTORE DUP1 DUP5 MSTORE KECCAK256 ADD SLOAD PUSH1 0x40 MLOAD SWAP1 DUP2 MSTORE RETURN JUMPDEST POP CALLVALUE PUSH2 0x5D7 JUMPI PUSH1 0x20 CALLDATASIZE PUSH1 0x3 NOT ADD SLT PUSH2 0x5D7 JUMPI PUSH2 0x2376 PUSH2 0x305F JUMP JUMPDEST PUSH2 0x237E PUSH2 0x3314 JUMP JUMPDEST PUSH1 0x1 PUSH1 0x1 PUSH1 0xA0 SHL SUB DUP2 AND SWAP1 CALLER DUP3 EQ PUSH2 0x23C1 JUMPI PUSH2 0x2399 SWAP1 PUSH2 0x34AB JUMP JUMPDEST POP PUSH32 0xA3B62BC36326052D97EA62D63C3D60308ED4C3EA8AC079DD8499F1E9C4F80C0F DUP3 DUP1 LOG2 DUP1 RETURN JUMPDEST PUSH1 0x40 MLOAD PUSH3 0x461BCD PUSH1 0xE5 SHL DUP2 MSTORE PUSH1 0x20 PUSH1 0x4 DUP3 ADD MSTORE PUSH1 0x28 PUSH1 0x24 DUP3 ADD MSTORE PUSH32 0x537175647943616D706169676E4D616E616765723A2063616E6E6F742072656D PUSH1 0x44 DUP3 ADD MSTORE PUSH8 0x37BB329039B2B633 PUSH1 0xC1 SHL PUSH1 0x64 DUP3 ADD MSTORE PUSH1 0x84 SWAP1 REVERT JUMPDEST POP CALLVALUE PUSH2 0x5D7 JUMPI PUSH1 0x20 CALLDATASIZE PUSH1 0x3 NOT ADD SLT PUSH2 0x5D7 JUMPI PUSH1 0x4 CALLDATALOAD DUP2 MSTORE PUSH1 0x5 PUSH1 0x20 MSTORE PUSH1 0x40 SWAP1 KECCAK256 DUP1 SLOAD PUSH2 0x2445 PUSH1 0x1 DUP4 ADD PUSH2 0x318A JUMP JUMPDEST SWAP2 PUSH2 0x2452 PUSH1 0x2 DUP3 ADD PUSH2 0x318A JUMP JUMPDEST SWAP3 PUSH2 0x245F PUSH1 0x3 DUP4 ADD PUSH2 0x318A JUMP JUMPDEST SWAP4 PUSH1 0x4 DUP4 ADD SLOAD SWAP5 PUSH1 0x5 DUP5 ADD SLOAD PUSH1 0x6 DUP6 ADD SLOAD PUSH1 0x7 DUP7 ADD SLOAD PUSH1 0x8 DUP8 ADD SLOAD SWAP1 PUSH1 0x9 DUP9 ADD SLOAD SWAP3 PUSH1 0xA DUP10 ADD SLOAD SWAP5 PUSH1 0xD DUP11 ADD SLOAD SWAP7 PUSH1 0xE DUP12 ADD SLOAD SWAP9 PUSH1 0xF DUP13 ADD SLOAD SWAP11 PUSH1 0x10 DUP14 ADD SLOAD SWAP13 PUSH1 0x11 ADD SLOAD SWAP14 PUSH1 0x40 MLOAD DUP1 PUSH1 0x80 MSTORE MSTORE PUSH2 0x220 DUP1 PUSH1 0x80 MLOAD PUSH1 0x20 ADD MSTORE PUSH1 0x80 MLOAD ADD PUSH2 0x24C4 SWAP2 PUSH2 0x3230 JUMP JUMPDEST PUSH1 0x80 MLOAD DUP1 DUP3 SUB SWAP1 PUSH1 0x40 ADD MSTORE PUSH2 0x24D8 SWAP2 PUSH2 0x3230 JUMP JUMPDEST PUSH1 0x80 MLOAD DUP1 DUP3 SUB SWAP1 PUSH1 0x60 ADD MSTORE PUSH2 0x24EC SWAP2 PUSH2 0x3230 JUMP JUMPDEST SWAP12 PUSH1 0x80 MLOAD PUSH1 0x80 ADD MSTORE PUSH1 0x80 MLOAD PUSH1 0xA0 ADD MSTORE PUSH1 0x80 MLOAD PUSH1 0xC0 ADD MSTORE PUSH1 0x80 MLOAD PUSH1 0xE0 ADD MSTORE PUSH1 0x80 MLOAD PUSH2 0x100 ADD MSTORE PUSH1 0x80 MLOAD PUSH2 0x120 ADD MSTORE PUSH1 0x80 MLOAD PUSH2 0x140 ADD MSTORE PUSH1 0x80 MLOAD PUSH2 0x160 ADD PUSH1 0xFF DUP3 AND SWAP1 PUSH2 0x2536 SWAP2 PUSH2 0x3270 JUMP JUMPDEST PUSH1 0x8 SHR PUSH1 0xFF AND ISZERO ISZERO PUSH1 0x80 MLOAD PUSH2 0x180 ADD MSTORE PUSH1 0x80 MLOAD PUSH2 0x1A0 ADD MSTORE PUSH1 0x80 MLOAD PUSH2 0x1C0 ADD MSTORE PUSH1 0x80 MLOAD PUSH2 0x1E0 ADD MSTORE PUSH1 0x80 MLOAD PUSH2 0x200 ADD MSTORE PUSH1 0x80 MLOAD DUP1 SWAP2 SUB SWAP1 RETURN JUMPDEST POP CALLVALUE PUSH2 0x5D7 JUMPI PUSH2 0x120 CALLDATASIZE PUSH1 0x3 NOT ADD SLT PUSH2 0x5D7 JUMPI PUSH1 0x4 CALLDATALOAD PUSH1 0x1 PUSH1 0x1 PUSH1 0x40 SHL SUB DUP2 GT PUSH2 0x6F3 JUMPI PUSH2 0x25A1 SWAP1 CALLDATASIZE SWAP1 PUSH1 0x4 ADD PUSH2 0x30E3 JUMP JUMPDEST SWAP1 PUSH1 0x24 CALLDATALOAD PUSH1 0x1 PUSH1 0x1 PUSH1 0x40 SHL SUB DUP2 GT PUSH2 0x6F3 JUMPI PUSH2 0x25C1 SWAP1 CALLDATASIZE SWAP1 PUSH1 0x4 ADD PUSH2 0x30E3 JUMP JUMPDEST PUSH1 0x44 SWAP2 DUP3 CALLDATALOAD PUSH1 0x1 PUSH1 0x1 PUSH1 0x40 SHL SUB DUP2 GT PUSH2 0x6F3 JUMPI PUSH2 0x25E2 SWAP1 CALLDATASIZE SWAP1 PUSH1 0x4 ADD PUSH2 0x30E3 JUMP JUMPDEST SWAP3 PUSH2 0x104 CALLDATALOAD PUSH1 0x1 PUSH1 0x1 PUSH1 0x40 SHL SUB DUP2 GT PUSH2 0x11A6 JUMPI CALLDATASIZE PUSH1 0x23 DUP3 ADD SLT ISZERO PUSH2 0x11A6 JUMPI DUP1 PUSH1 0x4 ADD CALLDATALOAD SWAP2 PUSH2 0x260F DUP4 PUSH2 0x3139 JUMP JUMPDEST SWAP2 PUSH2 0x261D PUSH1 0x40 MLOAD SWAP4 DUP5 PUSH2 0x30C2 JUMP JUMPDEST DUP4 DUP4 MSTORE PUSH1 0x20 DUP4 ADD SWAP1 PUSH1 0x24 DUP3 SWAP6 PUSH1 0x5 SHL DUP3 ADD ADD SWAP1 CALLDATASIZE DUP3 GT PUSH2 0x2F69 JUMPI PUSH1 0x24 DUP2 ADD SWAP3 JUMPDEST DUP3 DUP5 LT PUSH2 0x2F37 JUMPI POP POP POP POP PUSH1 0x0 DUP1 MLOAD PUSH1 0x20 PUSH2 0x39C9 DUP4 CODECOPY DUP2 MLOAD SWAP2 MSTORE DUP5 MSTORE DUP4 PUSH1 0x20 MSTORE PUSH1 0x40 DUP5 KECCAK256 CALLER DUP6 MSTORE PUSH1 0x20 MSTORE PUSH1 0xFF PUSH1 0x40 DUP6 KECCAK256 SLOAD AND DUP1 ISZERO PUSH2 0x2F0A JUMPI JUMPDEST PUSH2 0x267F SWAP1 PUSH2 0x35B9 JUMP JUMPDEST DUP7 MLOAD ISZERO PUSH2 0x2EB3 JUMPI PUSH1 0x64 DUP1 CALLDATALOAD ISZERO PUSH2 0x2E52 JUMPI PUSH1 0x84 SWAP2 DUP2 CALLDATALOAD DUP4 CALLDATALOAD LT PUSH2 0x2DF6 JUMPI PUSH1 0xA4 CALLDATALOAD ISZERO PUSH2 0x2D8F JUMPI TIMESTAMP PUSH1 0xC4 CALLDATALOAD GT ISZERO PUSH2 0x2D2F JUMPI PUSH1 0xC4 CALLDATALOAD PUSH1 0xE4 CALLDATALOAD GT ISZERO PUSH2 0x2CC8 JUMPI DUP4 MLOAD ISZERO PUSH2 0x2C6C JUMPI POP PUSH2 0x26CC PUSH1 0x3 SLOAD PUSH2 0x361A JUMP JUMPDEST SWAP7 DUP8 PUSH1 0x3 SSTORE DUP8 DUP7 MSTORE PUSH1 0x5 PUSH1 0x20 MSTORE PUSH1 0x40 DUP7 KECCAK256 SWAP7 DUP9 DUP9 SSTORE DUP10 MLOAD PUSH1 0x1 PUSH1 0x1 PUSH1 0x40 SHL SUB DUP2 GT PUSH2 0x2BAF JUMPI PUSH2 0x26FE PUSH1 0x1 DUP11 ADD SLOAD PUSH2 0x3150 JUMP JUMPDEST PUSH1 0x1F DUP2 GT PUSH2 0x2C39 JUMPI JUMPDEST POP DUP1 PUSH1 0x20 PUSH1 0x1F DUP3 GT PUSH1 0x1 EQ PUSH2 0x2BCE JUMPI DUP10 SWAP2 PUSH2 0x2BC3 JUMPI JUMPDEST POP DUP2 PUSH1 0x1 SHL SWAP2 PUSH1 0x0 NOT SWAP1 PUSH1 0x3 SHL SHR NOT AND OR PUSH1 0x1 DUP10 ADD SSTORE JUMPDEST DUP1 MLOAD SWAP1 PUSH1 0x1 PUSH1 0x1 PUSH1 0x40 SHL SUB DUP3 GT PUSH2 0x2BAF JUMPI DUP2 SWAP1 PUSH2 0x2754 PUSH1 0x2 DUP12 ADD SLOAD PUSH2 0x3150 JUMP JUMPDEST PUSH1 0x1F DUP2 GT PUSH2 0x2B7C JUMPI JUMPDEST POP PUSH1 0x20 SWAP1 PUSH1 0x1F DUP4 GT PUSH1 0x1 EQ PUSH2 0x2B0D JUMPI DUP10 SWAP3 PUSH2 0x2B02 JUMPI JUMPDEST POP POP DUP2 PUSH1 0x1 SHL SWAP2 PUSH1 0x0 NOT SWAP1 PUSH1 0x3 SHL SHR NOT AND OR PUSH1 0x2 DUP9 ADD SSTORE JUMPDEST DUP1 MLOAD SWAP1 PUSH1 0x1 PUSH1 0x1 PUSH1 0x40 SHL SUB DUP3 GT PUSH2 0x1192 JUMPI DUP2 SWAP1 PUSH2 0x27AB PUSH1 0x3 DUP11 ADD SLOAD PUSH2 0x3150 JUMP JUMPDEST PUSH1 0x1F DUP2 GT PUSH2 0x2ACF JUMPI JUMPDEST POP PUSH1 0x20 SWAP1 PUSH1 0x1F DUP4 GT PUSH1 0x1 EQ PUSH2 0x2A60 JUMPI DUP9 SWAP3 PUSH2 0x2A55 JUMPI JUMPDEST POP POP DUP2 PUSH1 0x1 SHL SWAP2 PUSH1 0x0 NOT SWAP1 PUSH1 0x3 SHL SHR NOT AND OR PUSH1 0x3 DUP8 ADD SSTORE JUMPDEST CALLDATALOAD PUSH1 0x4 DUP7 ADD SSTORE CALLDATALOAD PUSH1 0x5 DUP6 ADD SSTORE PUSH1 0xA4 CALLDATALOAD PUSH1 0x6 DUP6 ADD SSTORE PUSH1 0xC4 CALLDATALOAD PUSH1 0x8 DUP6 ADD SSTORE PUSH1 0xE4 CALLDATALOAD PUSH1 0x9 DUP6 ADD SSTORE MLOAD SWAP1 PUSH1 0x1 PUSH1 0x40 SHL DUP3 GT PUSH2 0x2A41 JUMPI PUSH1 0xB DUP5 ADD SLOAD DUP3 PUSH1 0xB DUP7 ADD SSTORE DUP1 DUP4 LT PUSH2 0x29CD JUMPI JUMPDEST POP PUSH1 0xB DUP5 ADD DUP4 MSTORE PUSH1 0x20 DUP4 KECCAK256 DUP4 SWAP2 JUMPDEST DUP4 DUP4 LT PUSH2 0x28B3 JUMPI PUSH1 0x20 DUP8 DUP1 PUSH32 0x3A495479E40F7BA7D7F6395EDF32B142DC0C2DC52EE9BC5AAE0DD2541321074C PUSH2 0x2891 DUP13 DUP12 PUSH1 0xD DUP2 ADD PUSH1 0xFF NOT DUP2 SLOAD AND SWAP1 SSTORE TIMESTAMP PUSH1 0x10 DUP3 ADD SSTORE PUSH1 0x11 TIMESTAMP SWAP2 ADD SSTORE PUSH1 0x40 MLOAD SWAP2 DUP3 SWAP2 PUSH1 0x80 DUP4 MSTORE PUSH1 0x80 DUP4 ADD SWAP1 PUSH2 0x3230 JUMP JUMPDEST PUSH1 0xC4 CALLDATALOAD DUP8 DUP4 ADD MSTORE PUSH1 0xE4 CALLDATALOAD PUSH1 0x40 DUP4 ADD MSTORE PUSH1 0xA4 CALLDATALOAD PUSH1 0x60 DUP4 ADD MSTORE SUB SWAP1 LOG2 PUSH1 0x40 MLOAD SWAP1 DUP2 MSTORE RETURN JUMPDEST DUP1 MLOAD DUP1 MLOAD SWAP1 PUSH1 0x1 PUSH1 0x1 PUSH1 0x40 SHL SUB DUP3 GT PUSH2 0x1192 JUMPI PUSH2 0x28D0 DUP5 SLOAD PUSH2 0x3150 JUMP JUMPDEST PUSH1 0x1F DUP2 GT PUSH2 0x2992 JUMPI JUMPDEST POP PUSH1 0x20 SWAP1 PUSH1 0x1F DUP4 GT PUSH1 0x1 EQ PUSH2 0x2925 JUMPI SWAP3 DUP3 PUSH1 0x1 SWAP5 SWAP4 PUSH1 0x20 SWAP4 DUP7 SWAP6 DUP12 SWAP3 PUSH2 0x291A JUMPI JUMPDEST POP POP PUSH1 0x0 NOT PUSH1 0x3 DUP4 SWAP1 SHL SHR NOT AND SWAP1 DUP5 SHL OR DUP6 SSTORE JUMPDEST ADD SWAP3 ADD SWAP3 ADD SWAP2 SWAP1 PUSH2 0x2834 JUMP JUMPDEST ADD MLOAD SWAP1 POP CODESIZE DUP1 PUSH2 0x28FA JUMP JUMPDEST SWAP1 DUP5 DUP9 MSTORE PUSH1 0x20 DUP9 KECCAK256 SWAP2 DUP9 JUMPDEST PUSH1 0x1F NOT DUP6 AND DUP2 LT PUSH2 0x297A JUMPI POP DUP4 PUSH1 0x20 SWAP4 PUSH1 0x1 SWAP7 SWAP4 DUP8 SWAP7 SWAP4 DUP8 SWAP5 PUSH1 0x1F NOT DUP2 AND LT PUSH2 0x2961 JUMPI JUMPDEST POP POP POP DUP2 SHL ADD DUP6 SSTORE PUSH2 0x290E JUMP JUMPDEST ADD MLOAD PUSH1 0x0 NOT PUSH1 0xF8 DUP5 PUSH1 0x3 SHL AND SHR NOT AND SWAP1 SSTORE CODESIZE DUP1 DUP1 PUSH2 0x2954 JUMP JUMPDEST SWAP2 SWAP3 PUSH1 0x20 PUSH1 0x1 DUP2 SWAP3 DUP7 DUP6 ADD MLOAD DUP2 SSTORE ADD SWAP5 ADD SWAP3 ADD PUSH2 0x2930 JUMP JUMPDEST PUSH2 0x29BD SWAP1 DUP6 DUP10 MSTORE PUSH1 0x20 DUP10 KECCAK256 PUSH1 0x1F DUP6 ADD PUSH1 0x5 SHR DUP2 ADD SWAP2 PUSH1 0x20 DUP7 LT PUSH2 0x29C3 JUMPI JUMPDEST PUSH1 0x1F ADD PUSH1 0x5 SHR ADD SWAP1 PUSH2 0x363F JUMP JUMPDEST CODESIZE PUSH2 0x28D9 JUMP JUMPDEST SWAP1 SWAP2 POP DUP2 SWAP1 PUSH2 0x29B0 JUMP JUMPDEST PUSH1 0xB DUP6 ADD DUP5 MSTORE PUSH1 0x20 DUP5 KECCAK256 SWAP1 DUP4 DUP3 ADD JUMPDEST DUP2 DUP4 ADD DUP2 LT PUSH2 0x29EC JUMPI POP POP PUSH2 0x2826 JUMP JUMPDEST DUP1 DUP7 PUSH2 0x29FA PUSH1 0x1 SWAP4 SLOAD PUSH2 0x3150 JUMP JUMPDEST DUP1 PUSH2 0x2A08 JUMPI JUMPDEST POP POP ADD PUSH2 0x29DC JUMP JUMPDEST PUSH1 0x1F DUP2 GT DUP5 EQ PUSH2 0x2A1D JUMPI POP DUP2 SSTORE JUMPDEST DUP7 CODESIZE PUSH2 0x2A00 JUMP JUMPDEST DUP3 DUP3 MSTORE PUSH2 0x2A38 PUSH1 0x1F PUSH1 0x20 DUP5 KECCAK256 SWAP3 ADD PUSH1 0x5 SHR DUP3 ADD DUP6 DUP4 ADD PUSH2 0x363F JUMP JUMPDEST DUP2 DUP4 SSTORE SSTORE PUSH2 0x2A16 JUMP JUMPDEST PUSH4 0x4E487B71 PUSH1 0xE0 SHL DUP4 MSTORE PUSH1 0x41 PUSH1 0x4 MSTORE PUSH1 0x24 DUP4 REVERT JUMPDEST ADD MLOAD SWAP1 POP CODESIZE DUP1 PUSH2 0x27CA JUMP JUMPDEST SWAP3 POP PUSH1 0x3 DUP10 ADD DUP9 MSTORE PUSH1 0x20 DUP9 KECCAK256 SWAP1 DUP9 SWAP4 JUMPDEST PUSH1 0x1F NOT DUP5 AND DUP6 LT PUSH2 0x2AB4 JUMPI PUSH1 0x1 SWAP5 POP DUP4 PUSH1 0x1F NOT DUP2 AND LT PUSH2 0x2A9B JUMPI JUMPDEST POP POP POP DUP2 SHL ADD PUSH1 0x3 DUP8 ADD SSTORE PUSH2 0x27E2 JUMP JUMPDEST ADD MLOAD PUSH1 0x0 NOT PUSH1 0xF8 DUP5 PUSH1 0x3 SHL AND SHR NOT AND SWAP1 SSTORE CODESIZE DUP1 DUP1 PUSH2 0x2A8B JUMP JUMPDEST DUP2 DUP2 ADD MLOAD DUP4 SSTORE PUSH1 0x20 SWAP5 DUP6 ADD SWAP5 PUSH1 0x1 SWAP1 SWAP4 ADD SWAP3 SWAP1 SWAP2 ADD SWAP1 PUSH2 0x2A70 JUMP JUMPDEST PUSH2 0x2AFC SWAP1 PUSH1 0x3 DUP12 ADD DUP11 MSTORE PUSH1 0x20 DUP11 KECCAK256 PUSH1 0x1F DUP6 ADD PUSH1 0x5 SHR DUP2 ADD SWAP2 PUSH1 0x20 DUP7 LT PUSH2 0x29C3 JUMPI PUSH1 0x1F ADD PUSH1 0x5 SHR ADD SWAP1 PUSH2 0x363F JUMP JUMPDEST CODESIZE PUSH2 0x27B4 JUMP JUMPDEST ADD MLOAD SWAP1 POP CODESIZE DUP1 PUSH2 0x2773 JUMP JUMPDEST SWAP3 POP PUSH1 0x2 DUP11 ADD DUP10 MSTORE PUSH1 0x20 DUP10 KECCAK256 SWAP1 DUP10 SWAP4 JUMPDEST PUSH1 0x1F NOT DUP5 AND DUP6 LT PUSH2 0x2B61 JUMPI PUSH1 0x1 SWAP5 POP DUP4 PUSH1 0x1F NOT DUP2 AND LT PUSH2 0x2B48 JUMPI JUMPDEST POP POP POP DUP2 SHL ADD PUSH1 0x2 DUP9 ADD SSTORE PUSH2 0x278B JUMP JUMPDEST ADD MLOAD PUSH1 0x0 NOT PUSH1 0xF8 DUP5 PUSH1 0x3 SHL AND SHR NOT AND SWAP1 SSTORE CODESIZE DUP1 DUP1 PUSH2 0x2B38 JUMP JUMPDEST DUP2 DUP2 ADD MLOAD DUP4 SSTORE PUSH1 0x20 SWAP5 DUP6 ADD SWAP5 PUSH1 0x1 SWAP1 SWAP4 ADD SWAP3 SWAP1 SWAP2 ADD SWAP1 PUSH2 0x2B1D JUMP JUMPDEST PUSH2 0x2BA9 SWAP1 PUSH1 0x2 DUP13 ADD DUP12 MSTORE PUSH1 0x20 DUP12 KECCAK256 PUSH1 0x1F DUP6 ADD PUSH1 0x5 SHR DUP2 ADD SWAP2 PUSH1 0x20 DUP7 LT PUSH2 0x29C3 JUMPI PUSH1 0x1F ADD PUSH1 0x5 SHR ADD SWAP1 PUSH2 0x363F JUMP JUMPDEST CODESIZE PUSH2 0x275D JUMP JUMPDEST PUSH4 0x4E487B71 PUSH1 0xE0 SHL DUP9 MSTORE PUSH1 0x41 PUSH1 0x4 MSTORE PUSH1 0x24 DUP9 REVERT JUMPDEST SWAP1 POP DUP12 ADD MLOAD CODESIZE PUSH2 0x271D JUMP JUMPDEST SWAP2 POP PUSH1 0x1 DUP11 ADD DUP10 MSTORE PUSH1 0x20 DUP10 KECCAK256 DUP10 SWAP3 JUMPDEST DUP14 PUSH1 0x1F NOT DUP5 AND DUP6 LT PUSH2 0x2C22 JUMPI POP PUSH1 0x1 SWAP4 POP DUP3 PUSH1 0x1F NOT DUP2 AND LT PUSH2 0x2C09 JUMPI JUMPDEST POP POP DUP2 SHL ADD PUSH1 0x1 DUP10 ADD SSTORE PUSH2 0x2734 JUMP JUMPDEST DUP14 ADD MLOAD PUSH1 0x0 NOT PUSH1 0xF8 DUP5 PUSH1 0x3 SHL AND SHR NOT AND SWAP1 SSTORE CODESIZE DUP1 PUSH2 0x2BFA JUMP JUMPDEST DUP2 ADD MLOAD DUP3 SSTORE PUSH1 0x20 SWAP4 DUP5 ADD SWAP4 PUSH1 0x1 SWAP1 SWAP3 ADD SWAP2 ADD PUSH2 0x2BDD JUMP JUMPDEST PUSH2 0x2C66 SWAP1 PUSH1 0x1 DUP12 ADD DUP11 MSTORE PUSH1 0x20 DUP11 KECCAK256 PUSH1 0x1F DUP5 ADD PUSH1 0x5 SHR DUP2 ADD SWAP2 PUSH1 0x20 DUP6 LT PUSH2 0x29C3 JUMPI PUSH1 0x1F ADD PUSH1 0x5 SHR ADD SWAP1 PUSH2 0x363F JUMP JUMPDEST CODESIZE PUSH2 0x2707 JUMP JUMPDEST SWAP1 PUSH18 0x6174206C65617374206F6E65207072697A65 PUSH1 0x70 SHL SWAP1 PUSH32 0x537175647943616D706169676E4D616E616765723A206D757374206861766520 PUSH1 0x40 MLOAD SWAP4 PUSH3 0x461BCD PUSH1 0xE5 SHL DUP6 MSTORE PUSH1 0x20 PUSH1 0x4 DUP7 ADD MSTORE PUSH1 0x32 PUSH1 0x24 DUP7 ADD MSTORE DUP5 ADD MSTORE DUP3 ADD MSTORE REVERT JUMPDEST SWAP1 PUSH32 0x7573742062652061667465722073746172742064617465000000000000000000 SWAP1 PUSH32 0x537175647943616D706169676E4D616E616765723A20656E642064617465206D PUSH1 0x40 MLOAD SWAP4 PUSH3 0x461BCD PUSH1 0xE5 SHL DUP6 MSTORE PUSH1 0x20 PUSH1 0x4 DUP7 ADD MSTORE PUSH1 0x37 PUSH1 0x24 DUP7 ADD MSTORE DUP5 ADD MSTORE DUP3 ADD MSTORE REVERT JUMPDEST SWAP1 PUSH22 0x206D75737420626520696E2074686520667574757265 PUSH1 0x50 SHL SWAP1 PUSH32 0x537175647943616D706169676E4D616E616765723A2073746172742064617465 PUSH1 0x40 MLOAD SWAP4 PUSH3 0x461BCD PUSH1 0xE5 SHL DUP6 MSTORE PUSH1 0x20 PUSH1 0x4 DUP7 ADD MSTORE PUSH1 0x36 PUSH1 0x24 DUP7 ADD MSTORE DUP5 ADD MSTORE DUP3 ADD MSTORE REVERT JUMPDEST SWAP1 PUSH32 0x756E74206D7573742062652067726561746572207468616E2030000000000000 SWAP1 PUSH32 0x537175647943616D706169676E4D616E616765723A207469636B657420616D6F PUSH1 0x40 MLOAD SWAP4 PUSH3 0x461BCD PUSH1 0xE5 SHL DUP6 MSTORE PUSH1 0x20 PUSH1 0x4 DUP7 ADD MSTORE PUSH1 0x3A PUSH1 0x24 DUP7 ADD MSTORE DUP5 ADD MSTORE DUP3 ADD MSTORE REVERT JUMPDEST SWAP1 PUSH18 0x757374206265203E3D20736F66742063617 PUSH1 0x74 SHL SWAP1 PUSH32 0x537175647943616D706169676E4D616E616765723A206861726420636170206D PUSH1 0x40 MLOAD SWAP4 PUSH3 0x461BCD PUSH1 0xE5 SHL DUP6 MSTORE PUSH1 0x20 PUSH1 0x4 DUP7 ADD MSTORE PUSH1 0x32 PUSH1 0x24 DUP7 ADD MSTORE DUP5 ADD MSTORE DUP3 ADD MSTORE REVERT JUMPDEST SWAP1 PUSH21 0x7573742062652067726561746572207468616E203 PUSH1 0x5C SHL PUSH1 0x84 SWAP3 PUSH32 0x537175647943616D706169676E4D616E616765723A20736F667420636170206D PUSH1 0x40 MLOAD SWAP4 PUSH3 0x461BCD PUSH1 0xE5 SHL DUP6 MSTORE PUSH1 0x20 PUSH1 0x4 DUP7 ADD MSTORE PUSH1 0x35 PUSH1 0x24 DUP7 ADD MSTORE DUP5 ADD MSTORE DUP3 ADD MSTORE REVERT JUMPDEST PUSH1 0x84 SWAP1 PUSH32 0x537175647943616D706169676E4D616E616765723A206E616D652063616E6E6F PUSH1 0x40 MLOAD SWAP2 PUSH3 0x461BCD PUSH1 0xE5 SHL DUP4 MSTORE PUSH1 0x20 PUSH1 0x4 DUP5 ADD MSTORE PUSH1 0x2A PUSH1 0x24 DUP5 ADD MSTORE DUP3 ADD MSTORE PUSH10 0x7420626520656D707479 PUSH1 0xB0 SHL PUSH1 0x64 DUP3 ADD MSTORE REVERT JUMPDEST POP PUSH1 0x0 DUP1 MLOAD PUSH1 0x20 PUSH2 0x39E9 DUP4 CODECOPY DUP2 MLOAD SWAP2 MSTORE DUP5 MSTORE PUSH1 0x20 DUP5 DUP2 MSTORE PUSH1 0x40 DUP1 DUP7 KECCAK256 CALLER DUP8 MSTORE SWAP1 SWAP2 MSTORE DUP5 KECCAK256 SLOAD PUSH1 0xFF AND PUSH2 0x2676 JUMP JUMPDEST PUSH1 0x1 PUSH1 0x1 PUSH1 0x40 SHL SUB DUP5 CALLDATALOAD GT PUSH2 0x2F65 JUMPI PUSH1 0x20 DUP1 SWAP2 PUSH2 0x2F5A CALLDATASIZE PUSH1 0x24 DUP9 CALLDATALOAD DUP8 ADD ADD PUSH2 0x30E3 JUMP JUMPDEST DUP2 MSTORE ADD SWAP4 ADD SWAP3 PUSH2 0x263D JUMP JUMPDEST DUP8 DUP1 REVERT JUMPDEST DUP7 DUP1 REVERT JUMPDEST POP CALLVALUE PUSH2 0x5D7 JUMPI PUSH1 0x40 CALLDATASIZE PUSH1 0x3 NOT ADD SLT PUSH2 0x5D7 JUMPI PUSH1 0x40 PUSH1 0xC0 SWAP2 PUSH2 0x2F8C PUSH2 0x3044 JUMP JUMPDEST PUSH1 0x4 CALLDATALOAD DUP3 MSTORE PUSH1 0x6 PUSH1 0x20 MSTORE DUP3 DUP3 KECCAK256 SWAP1 PUSH1 0x1 DUP1 PUSH1 0xA0 SHL SUB AND DUP3 MSTORE PUSH1 0x20 MSTORE KECCAK256 DUP1 SLOAD SWAP1 PUSH1 0x1 DUP2 ADD SLOAD SWAP1 PUSH1 0xFF PUSH1 0x2 DUP3 ADD SLOAD PUSH1 0x4 PUSH1 0x3 DUP5 ADD SLOAD SWAP4 ADD SLOAD SWAP4 PUSH1 0x40 MLOAD SWAP6 DUP7 MSTORE PUSH1 0x20 DUP7 ADD MSTORE DUP2 DUP2 AND ISZERO ISZERO PUSH1 0x40 DUP7 ADD MSTORE PUSH1 0x8 SHR AND ISZERO ISZERO PUSH1 0x60 DUP5 ADD MSTORE PUSH1 0x80 DUP4 ADD MSTORE PUSH1 0xA0 DUP3 ADD MSTORE RETURN JUMPDEST SWAP1 POP CALLVALUE PUSH2 0x6F3 JUMPI PUSH1 0x20 CALLDATASIZE PUSH1 0x3 NOT ADD SLT PUSH2 0x6F3 JUMPI PUSH1 0x4 CALLDATALOAD PUSH4 0xFFFFFFFF PUSH1 0xE0 SHL DUP2 AND DUP1 SWAP2 SUB PUSH2 0x11A6 JUMPI PUSH1 0x20 SWAP3 POP PUSH4 0x7965DB0B PUSH1 0xE0 SHL DUP2 EQ SWAP1 DUP2 ISZERO PUSH2 0x3033 JUMPI JUMPDEST POP ISZERO ISZERO DUP2 MSTORE RETURN JUMPDEST PUSH4 0x1FFC9A7 PUSH1 0xE0 SHL EQ SWAP1 POP CODESIZE PUSH2 0x302C JUMP JUMPDEST PUSH1 0x24 CALLDATALOAD SWAP1 PUSH1 0x1 PUSH1 0x1 PUSH1 0xA0 SHL SUB DUP3 AND DUP3 SUB PUSH2 0x305A JUMPI JUMP JUMPDEST PUSH1 0x0 DUP1 REVERT JUMPDEST PUSH1 0x4 CALLDATALOAD SWAP1 PUSH1 0x1 PUSH1 0x1 PUSH1 0xA0 SHL SUB DUP3 AND DUP3 SUB PUSH2 0x305A JUMPI JUMP JUMPDEST PUSH1 0xC0 DUP2 ADD SWAP1 DUP2 LT PUSH1 0x1 PUSH1 0x1 PUSH1 0x40 SHL SUB DUP3 GT OR PUSH2 0x3090 JUMPI PUSH1 0x40 MSTORE JUMP JUMPDEST PUSH4 0x4E487B71 PUSH1 0xE0 SHL PUSH1 0x0 MSTORE PUSH1 0x41 PUSH1 0x4 MSTORE PUSH1 0x24 PUSH1 0x0 REVERT JUMPDEST PUSH2 0x260 DUP2 ADD SWAP1 DUP2 LT PUSH1 0x1 PUSH1 0x1 PUSH1 0x40 SHL SUB DUP3 GT OR PUSH2 0x3090 JUMPI PUSH1 0x40 MSTORE JUMP JUMPDEST SWAP1 PUSH1 0x1F DUP1 NOT SWAP2 ADD AND DUP2 ADD SWAP1 DUP2 LT PUSH1 0x1 PUSH1 0x1 PUSH1 0x40 SHL SUB DUP3 GT OR PUSH2 0x3090 JUMPI PUSH1 0x40 MSTORE JUMP JUMPDEST DUP2 PUSH1 0x1F DUP3 ADD SLT ISZERO PUSH2 0x305A JUMPI DUP1 CALLDATALOAD SWAP1 PUSH1 0x1 PUSH1 0x1 PUSH1 0x40 SHL SUB DUP3 GT PUSH2 0x3090 JUMPI PUSH1 0x40 MLOAD SWAP3 PUSH2 0x3117 PUSH1 0x1F DUP5 ADD PUSH1 0x1F NOT AND PUSH1 0x20 ADD DUP6 PUSH2 0x30C2 JUMP JUMPDEST DUP3 DUP5 MSTORE PUSH1 0x20 DUP4 DUP4 ADD ADD GT PUSH2 0x305A JUMPI DUP2 PUSH1 0x0 SWAP3 PUSH1 0x20 DUP1 SWAP4 ADD DUP4 DUP7 ADD CALLDATACOPY DUP4 ADD ADD MSTORE SWAP1 JUMP JUMPDEST PUSH1 0x1 PUSH1 0x1 PUSH1 0x40 SHL SUB DUP2 GT PUSH2 0x3090 JUMPI PUSH1 0x5 SHL PUSH1 0x20 ADD SWAP1 JUMP JUMPDEST SWAP1 PUSH1 0x1 DUP3 DUP2 SHR SWAP3 AND DUP1 ISZERO PUSH2 0x3180 JUMPI JUMPDEST PUSH1 0x20 DUP4 LT EQ PUSH2 0x316A JUMPI JUMP JUMPDEST PUSH4 0x4E487B71 PUSH1 0xE0 SHL PUSH1 0x0 MSTORE PUSH1 0x22 PUSH1 0x4 MSTORE PUSH1 0x24 PUSH1 0x0 REVERT JUMPDEST SWAP2 PUSH1 0x7F AND SWAP2 PUSH2 0x315F JUMP JUMPDEST SWAP1 PUSH1 0x40 MLOAD SWAP2 DUP3 PUSH1 0x0 DUP3 SLOAD SWAP3 PUSH2 0x319E DUP5 PUSH2 0x3150 JUMP JUMPDEST SWAP1 DUP2 DUP5 MSTORE PUSH1 0x1 SWAP5 DUP6 DUP2 AND SWAP1 DUP2 PUSH1 0x0 EQ PUSH2 0x320D JUMPI POP PUSH1 0x1 EQ PUSH2 0x31CA JUMPI JUMPDEST POP POP PUSH2 0x31C8 SWAP3 POP SUB DUP4 PUSH2 0x30C2 JUMP JUMPDEST JUMP JUMPDEST SWAP1 SWAP4 SWAP2 POP PUSH1 0x0 MSTORE PUSH1 0x20 SWAP1 DUP2 PUSH1 0x0 KECCAK256 SWAP4 PUSH1 0x0 SWAP2 JUMPDEST DUP2 DUP4 LT PUSH2 0x31F5 JUMPI POP POP PUSH2 0x31C8 SWAP4 POP DUP3 ADD ADD CODESIZE DUP1 PUSH2 0x31BA JUMP JUMPDEST DUP6 SLOAD DUP9 DUP5 ADD DUP6 ADD MSTORE SWAP5 DUP6 ADD SWAP5 DUP8 SWAP5 POP SWAP2 DUP4 ADD SWAP2 PUSH2 0x31DD JUMP JUMPDEST SWAP2 POP POP PUSH2 0x31C8 SWAP5 POP PUSH1 0x20 SWAP3 POP PUSH1 0xFF NOT AND DUP3 DUP5 ADD MSTORE ISZERO ISZERO PUSH1 0x5 SHL DUP3 ADD ADD CODESIZE DUP1 PUSH2 0x31BA JUMP JUMPDEST SWAP2 SWAP1 DUP3 MLOAD SWAP3 DUP4 DUP3 MSTORE PUSH1 0x0 JUMPDEST DUP5 DUP2 LT PUSH2 0x325C JUMPI POP POP DUP3 PUSH1 0x0 PUSH1 0x20 DUP1 SWAP5 SWAP6 DUP5 ADD ADD MSTORE PUSH1 0x1F DUP1 NOT SWAP2 ADD AND ADD ADD SWAP1 JUMP JUMPDEST PUSH1 0x20 DUP2 DUP4 ADD DUP2 ADD MLOAD DUP5 DUP4 ADD DUP3 ADD MSTORE ADD PUSH2 0x323B JUMP JUMPDEST SWAP1 PUSH1 0x5 DUP3 LT ISZERO PUSH2 0x327D JUMPI MSTORE JUMP JUMPDEST PUSH4 0x4E487B71 PUSH1 0xE0 SHL PUSH1 0x0 MSTORE PUSH1 0x21 PUSH1 0x4 MSTORE PUSH1 0x24 PUSH1 0x0 REVERT JUMPDEST PUSH1 0x40 SWAP1 PUSH1 0x3 NOT ADD SLT PUSH2 0x305A JUMPI PUSH1 0x4 CALLDATALOAD SWAP1 PUSH1 0x24 CALLDATALOAD SWAP1 JUMP JUMPDEST DUP1 SLOAD DUP3 LT ISZERO PUSH2 0x32C1 JUMPI PUSH1 0x0 MSTORE PUSH1 0x20 PUSH1 0x0 KECCAK256 ADD SWAP1 PUSH1 0x0 SWAP1 JUMP JUMPDEST PUSH4 0x4E487B71 PUSH1 0xE0 SHL PUSH1 0x0 MSTORE PUSH1 0x32 PUSH1 0x4 MSTORE PUSH1 0x24 PUSH1 0x0 REVERT JUMPDEST SWAP1 DUP2 MLOAD DUP1 DUP3 MSTORE PUSH1 0x20 DUP1 DUP1 SWAP4 ADD SWAP4 ADD SWAP2 PUSH1 0x0 JUMPDEST DUP3 DUP2 LT PUSH2 0x32F7 JUMPI POP POP POP POP SWAP1 JUMP JUMPDEST DUP4 MLOAD PUSH1 0x1 PUSH1 0x1 PUSH1 0xA0 SHL SUB AND DUP6 MSTORE SWAP4 DUP2 ADD SWAP4 SWAP3 DUP2 ADD SWAP3 PUSH1 0x1 ADD PUSH2 0x32E9 JUMP JUMPDEST CALLER PUSH1 0x0 SWAP1 DUP2 MSTORE PUSH32 0xAD3228B676F7D3CD4284A5443F17F1962B36E491B30A40B2405849E597BA5FB5 PUSH1 0x20 MSTORE PUSH1 0x40 DUP2 KECCAK256 SLOAD PUSH1 0xFF AND ISZERO PUSH2 0x334E JUMPI POP JUMP JUMPDEST PUSH1 0x44 SWAP1 PUSH1 0x40 MLOAD SWAP1 PUSH4 0xE2517D3F PUSH1 0xE0 SHL DUP3 MSTORE CALLER PUSH1 0x4 DUP4 ADD MSTORE PUSH1 0x24 DUP3 ADD MSTORE REVERT JUMPDEST DUP1 PUSH1 0x0 MSTORE PUSH1 0x0 PUSH1 0x20 MSTORE PUSH1 0x40 PUSH1 0x0 KECCAK256 CALLER PUSH1 0x0 MSTORE PUSH1 0x20 MSTORE PUSH1 0xFF PUSH1 0x40 PUSH1 0x0 KECCAK256 SLOAD AND ISZERO PUSH2 0x334E JUMPI POP JUMP JUMPDEST PUSH1 0x1 PUSH1 0x1 PUSH1 0xA0 SHL SUB AND PUSH1 0x0 DUP2 DUP2 MSTORE PUSH32 0x7D7FFB7A348E1C6A02869081A26547B49160DD3DF72D1D75A570EB9B698292EC PUSH1 0x20 MSTORE PUSH1 0x40 DUP2 KECCAK256 SLOAD SWAP1 SWAP2 SWAP1 PUSH1 0x0 DUP1 MLOAD PUSH1 0x20 PUSH2 0x39E9 DUP4 CODECOPY DUP2 MLOAD SWAP2 MSTORE SWAP1 PUSH1 0xFF AND PUSH2 0x342D JUMPI DUP1 DUP4 MSTORE DUP3 PUSH1 0x20 MSTORE PUSH1 0x40 DUP4 KECCAK256 DUP3 DUP5 MSTORE PUSH1 0x20 MSTORE PUSH1 0x40 DUP4 KECCAK256 PUSH1 0x1 PUSH1 0xFF NOT DUP3 SLOAD AND OR SWAP1 SSTORE PUSH32 0x2F8788117E7EFF1D82E926EC794901D17C78024A50270940304540A733656F0D CALLER SWAP4 DUP1 LOG4 PUSH1 0x1 SWAP1 JUMP JUMPDEST POP POP SWAP1 JUMP JUMPDEST SWAP1 PUSH1 0x0 SWAP2 DUP1 DUP4 MSTORE DUP3 PUSH1 0x20 MSTORE PUSH1 0x40 DUP4 KECCAK256 SWAP2 PUSH1 0x1 DUP1 PUSH1 0xA0 SHL SUB AND SWAP2 DUP3 DUP5 MSTORE PUSH1 0x20 MSTORE PUSH1 0xFF PUSH1 0x40 DUP5 KECCAK256 SLOAD AND ISZERO PUSH1 0x0 EQ PUSH2 0x342D JUMPI DUP1 DUP4 MSTORE DUP3 PUSH1 0x20 MSTORE PUSH1 0x40 DUP4 KECCAK256 DUP3 DUP5 MSTORE PUSH1 0x20 MSTORE PUSH1 0x40 DUP4 KECCAK256 PUSH1 0x1 PUSH1 0xFF NOT DUP3 SLOAD AND OR SWAP1 SSTORE PUSH32 0x2F8788117E7EFF1D82E926EC794901D17C78024A50270940304540A733656F0D CALLER SWAP4 DUP1 LOG4 PUSH1 0x1 SWAP1 JUMP JUMPDEST PUSH1 0x1 PUSH1 0x1 PUSH1 0xA0 SHL SUB AND PUSH1 0x0 DUP2 DUP2 MSTORE PUSH32 0x7D7FFB7A348E1C6A02869081A26547B49160DD3DF72D1D75A570EB9B698292EC PUSH1 0x20 MSTORE PUSH1 0x40 DUP2 KECCAK256 SLOAD SWAP1 SWAP2 SWAP1 PUSH1 0x0 DUP1 MLOAD PUSH1 0x20 PUSH2 0x39E9 DUP4 CODECOPY DUP2 MLOAD SWAP2 MSTORE SWAP1 PUSH1 0xFF AND ISZERO PUSH2 0x342D JUMPI DUP1 DUP4 MSTORE DUP3 PUSH1 0x20 MSTORE PUSH1 0x40 DUP4 KECCAK256 DUP3 DUP5 MSTORE PUSH1 0x20 MSTORE PUSH1 0x40 DUP4 KECCAK256 PUSH1 0xFF NOT DUP2 SLOAD AND SWAP1 SSTORE PUSH32 0xF6391F5C32D9C69D2A47EA670B442974B53935D1EDC7FD64EB21E047A839171B CALLER SWAP4 DUP1 LOG4 PUSH1 0x1 SWAP1 JUMP JUMPDEST SWAP1 PUSH1 0x0 SWAP2 DUP1 DUP4 MSTORE DUP3 PUSH1 0x20 MSTORE PUSH1 0x40 DUP4 KECCAK256 SWAP2 PUSH1 0x1 DUP1 PUSH1 0xA0 SHL SUB AND SWAP2 DUP3 DUP5 MSTORE PUSH1 0x20 MSTORE PUSH1 0xFF PUSH1 0x40 DUP5 KECCAK256 SLOAD AND PUSH1 0x0 EQ PUSH2 0x342D JUMPI DUP1 DUP4 MSTORE DUP3 PUSH1 0x20 MSTORE PUSH1 0x40 DUP4 KECCAK256 DUP3 DUP5 MSTORE PUSH1 0x20 MSTORE PUSH1 0x40 DUP4 KECCAK256 PUSH1 0xFF NOT DUP2 SLOAD AND SWAP1 SSTORE PUSH32 0xF6391F5C32D9C69D2A47EA670B442974B53935D1EDC7FD64EB21E047A839171B CALLER SWAP4 DUP1 LOG4 PUSH1 0x1 SWAP1 JUMP JUMPDEST ISZERO PUSH2 0x35C0 JUMPI JUMP JUMPDEST PUSH1 0x40 MLOAD PUSH3 0x461BCD PUSH1 0xE5 SHL DUP2 MSTORE PUSH1 0x20 PUSH1 0x4 DUP3 ADD MSTORE PUSH1 0x2C PUSH1 0x24 DUP3 ADD MSTORE PUSH32 0x537175647943616D706169676E4D616E616765723A206F70657261746F722072 PUSH1 0x44 DUP3 ADD MSTORE PUSH12 0x1BDB19481C995C5D5A5C9959 PUSH1 0xA2 SHL PUSH1 0x64 DUP3 ADD MSTORE PUSH1 0x84 SWAP1 REVERT JUMPDEST PUSH1 0x0 NOT DUP2 EQ PUSH2 0x3629 JUMPI PUSH1 0x1 ADD SWAP1 JUMP JUMPDEST PUSH4 0x4E487B71 PUSH1 0xE0 SHL PUSH1 0x0 MSTORE PUSH1 0x11 PUSH1 0x4 MSTORE PUSH1 0x24 PUSH1 0x0 REVERT JUMPDEST DUP2 DUP2 LT PUSH2 0x364A JUMPI POP POP JUMP JUMPDEST PUSH1 0x0 DUP2 SSTORE PUSH1 0x1 ADD PUSH2 0x363F JUMP JUMPDEST ISZERO PUSH2 0x365D JUMPI JUMP JUMPDEST PUSH1 0x40 MLOAD PUSH3 0x461BCD PUSH1 0xE5 SHL DUP2 MSTORE PUSH1 0x20 PUSH1 0x4 DUP3 ADD MSTORE PUSH1 0x2D PUSH1 0x24 DUP3 ADD MSTORE PUSH32 0x537175647943616D706169676E4D616E616765723A2063616D706169676E2064 PUSH1 0x44 DUP3 ADD MSTORE PUSH13 0x1BD95CC81B9BDD08195E1A5CDD PUSH1 0x9A SHL PUSH1 0x64 DUP3 ADD MSTORE PUSH1 0x84 SWAP1 REVERT JUMPDEST ISZERO PUSH2 0x36BF JUMPI JUMP JUMPDEST PUSH1 0x40 MLOAD PUSH3 0x461BCD PUSH1 0xE5 SHL DUP2 MSTORE PUSH1 0x20 PUSH1 0x4 DUP3 ADD MSTORE PUSH1 0x29 PUSH1 0x24 DUP3 ADD MSTORE PUSH1 0x0 DUP1 MLOAD PUSH1 0x20 PUSH2 0x39A9 DUP4 CODECOPY DUP2 MLOAD SWAP2 MSTORE PUSH1 0x44 DUP3 ADD MSTORE PUSH9 0x6F7420616374697665 PUSH1 0xB8 SHL PUSH1 0x64 DUP3 ADD MSTORE PUSH1 0x84 SWAP1 REVERT JUMPDEST ISZERO PUSH2 0x370B JUMPI JUMP JUMPDEST PUSH1 0x40 MLOAD PUSH3 0x461BCD PUSH1 0xE5 SHL DUP2 MSTORE PUSH1 0x20 PUSH1 0x4 DUP3 ADD MSTORE PUSH1 0x25 PUSH1 0x24 DUP3 ADD MSTORE PUSH32 0x537175647943616D706169676E4D616E616765723A206E6F2070617274696369 PUSH1 0x44 DUP3 ADD MSTORE PUSH5 0x70616E7473 PUSH1 0xD8 SHL PUSH1 0x64 DUP3 ADD MSTORE PUSH1 0x84 SWAP1 REVERT JUMPDEST ISZERO PUSH2 0x3765 JUMPI JUMP JUMPDEST PUSH1 0x40 MLOAD PUSH3 0x461BCD PUSH1 0xE5 SHL DUP2 MSTORE PUSH1 0x20 PUSH1 0x4 DUP3 ADD MSTORE PUSH1 0x2B PUSH1 0x24 DUP3 ADD MSTORE PUSH1 0x0 DUP1 MLOAD PUSH1 0x20 PUSH2 0x39A9 DUP4 CODECOPY DUP2 MLOAD SWAP2 MSTORE PUSH1 0x44 DUP3 ADD MSTORE PUSH11 0x1BDD08199A5B9A5CDA1959 PUSH1 0xAA SHL PUSH1 0x64 DUP3 ADD MSTORE PUSH1 0x84 SWAP1 REVERT JUMPDEST DUP2 ISZERO PUSH2 0x37B6 JUMPI MOD SWAP1 JUMP JUMPDEST PUSH4 0x4E487B71 PUSH1 0xE0 SHL PUSH1 0x0 MSTORE PUSH1 0x12 PUSH1 0x4 MSTORE PUSH1 0x24 PUSH1 0x0 REVERT JUMPDEST SWAP2 SWAP1 DUP3 ADD DUP1 SWAP3 GT PUSH2 0x3629 JUMPI JUMP JUMPDEST SWAP1 DUP2 PUSH1 0x20 SWAP2 SUB SLT PUSH2 0x305A JUMPI MLOAD DUP1 ISZERO ISZERO DUP2 SUB PUSH2 0x305A JUMPI SWAP1 JUMP JUMPDEST SWAP1 PUSH2 0x37FB DUP3 PUSH2 0x3139 JUMP JUMPDEST PUSH2 0x3808 PUSH1 0x40 MLOAD SWAP2 DUP3 PUSH2 0x30C2 JUMP JUMPDEST DUP3 DUP2 MSTORE DUP1 SWAP3 PUSH2 0x3819 PUSH1 0x1F NOT SWAP2 PUSH2 0x3139 JUMP JUMPDEST ADD SWAP1 PUSH1 0x20 CALLDATASIZE SWAP2 ADD CALLDATACOPY JUMP JUMPDEST DUP1 MLOAD DUP3 LT ISZERO PUSH2 0x32C1 JUMPI PUSH1 0x20 SWAP2 PUSH1 0x5 SHL ADD ADD SWAP1 JUMP JUMPDEST SWAP1 PUSH1 0x0 SWAP2 DUP1 DUP4 MSTORE PUSH1 0x20 SWAP1 PUSH1 0x5 DUP3 MSTORE PUSH1 0x40 SWAP3 DUP4 DUP6 KECCAK256 SWAP1 DUP6 PUSH1 0xA DUP8 SWAP4 ADD SLOAD SWAP3 JUMPDEST DUP4 DUP2 LT PUSH2 0x387E JUMPI POP POP POP SWAP1 DUP5 MSTORE POP PUSH1 0x8 DUP2 MSTORE DUP2 DUP4 KECCAK256 DUP4 DUP1 MSTORE SWAP1 MSTORE SWAP1 KECCAK256 SLOAD PUSH1 0x1 PUSH1 0x1 PUSH1 0xA0 SHL SUB AND SWAP1 JUMP JUMPDEST DUP5 DUP9 MSTORE PUSH1 0x8 DUP7 MSTORE DUP7 DUP9 KECCAK256 DUP2 DUP10 MSTORE DUP7 MSTORE PUSH1 0x1 DUP1 PUSH1 0xA0 SHL SUB DUP8 DUP10 KECCAK256 SLOAD AND DUP6 DUP10 MSTORE PUSH1 0x6 DUP8 MSTORE DUP8 DUP10 KECCAK256 DUP2 DUP11 MSTORE DUP8 MSTORE DUP8 DUP10 KECCAK256 PUSH1 0xFF PUSH1 0x2 DUP3 ADD SLOAD AND PUSH2 0x38C8 JUMPI JUMPDEST POP POP PUSH2 0x38C3 SWAP1 PUSH2 0x361A JUMP JUMPDEST PUSH2 0x3855 JUMP JUMPDEST SWAP3 PUSH1 0x1 PUSH2 0x38D8 SWAP3 SWAP5 ADD SLOAD SWAP1 PUSH2 0x37CC JUMP JUMPDEST SWAP2 DUP3 DUP5 LT PUSH2 0x38E6 JUMPI DUP1 PUSH2 0x38B8 JUMP JUMPDEST SWAP8 POP POP POP POP POP POP POP POP SWAP1 JUMP JUMPDEST SWAP1 PUSH1 0x40 MLOAD SWAP2 DUP3 DUP2 SLOAD SWAP2 DUP3 DUP3 MSTORE PUSH1 0x20 SWAP3 DUP4 DUP4 ADD SWAP2 PUSH1 0x0 MSTORE DUP4 PUSH1 0x0 KECCAK256 SWAP4 PUSH1 0x0 SWAP1 JUMPDEST DUP3 DUP3 LT PUSH2 0x3927 JUMPI POP POP POP PUSH2 0x31C8 SWAP3 POP SUB DUP4 PUSH2 0x30C2 JUMP JUMPDEST DUP6 SLOAD PUSH1 0x1 PUSH1 0x1 PUSH1 0xA0 SHL SUB AND DUP5 MSTORE PUSH1 0x1 SWAP6 DUP7 ADD SWAP6 DUP9 SWAP6 POP SWAP4 DUP2 ADD SWAP4 SWAP1 SWAP2 ADD SWAP1 PUSH2 0x3911 JUMP JUMPDEST ISZERO PUSH2 0x3951 JUMPI JUMP JUMPDEST PUSH1 0x40 MLOAD PUSH3 0x461BCD PUSH1 0xE5 SHL DUP2 MSTORE PUSH1 0x20 PUSH1 0x4 DUP3 ADD MSTORE PUSH1 0x29 PUSH1 0x24 DUP3 ADD MSTORE PUSH32 0x537175647943616D706169676E4D616E616765723A2061646D696E20726F6C65 PUSH1 0x44 DUP3 ADD MSTORE PUSH9 0x81C995C5D5A5C9959 PUSH1 0xBA SHL PUSH1 0x64 DUP3 ADD MSTORE PUSH1 0x84 SWAP1 REVERT INVALID MSTORE8 PUSH18 0x75647943616D706169676E4D616E61676572 GASPRICE KECCAK256 PUSH4 0x616D7061 PUSH10 0x676E206E97667070C54E CALL DUP3 0xB0 CREATE2 DUP6 DUP12 SUB 0x4B 0xEA 0xC1 0xB6 RETURN ADDMOD SWAP11 LOG2 0xD3 XOR DUP12 0xB1 0xE8 SWAP3 SWAP16 0x4F 0xA9 0xB9 0x29 LOG4 SWAP9 SMOD KECCAK256 0x5C 0xE4 0xD3 SSTORE MULMOD 0x2E CREATE2 0xA8 LOG1 DUP16 JUMP 0xE8 SWAP2 EXTCODECOPY DELEGATECALL LOG2 ADD 0xFB 0xE2 DUP8 DUP3 JUMPDEST MULMOD JUMP SWAP4 0xC2 OR PUSH22 0xA26469706673582212200A06212A2923976AA8A98BE9 CALL 0xC9 SWAP1 0xF PUSH23 0xAF196321057D39E3C6129A824CFEBF64736F6C63430008 EQ STOP CALLER 0x2F DUP8 DUP9 GT PUSH31 0x7EFF1D82E926EC794901D17C78024A50270940304540A733656F0D00000000 "},"gasEstimates":{"creation":{"codeDepositCost":"2982000","executionCost":"infinite","totalCost":"infinite"},"external":{"ADMIN_ROLE()":"683","DEFAULT_ADMIN_ROLE()":"763","OPERATOR_ROLE()":"947","activateCampaign(uint256)":"infinite","addAdmin(address)":"32598","burnAllTokens(uint256)":"infinite","campaignParticipants(uint256,uint256)":"6913","campaigns(uint256)":"infinite","closeCampaign(uint256)":"infinite","confirmSocialTasks(uint256,address)":"infinite","createCampaign(string,string,string,uint256,uint256,uint256,uint256,uint256,string[])":"infinite","emergencyPause()":"infinite","emergencyRecoverTokens(address,address)":"infinite","emergencyUnpause()":"infinite","getCampaign(uint256)":"infinite","getCampaignCount()":"2709","getCampaignParticipants(uint256)":"infinite","getCampaignsByStatus(uint8)":"infinite","getParticipant(uint256,address)":"infinite","getRoleAdmin(bytes32)":"2451","getTicketCount(uint256,address)":"5128","grantRole(bytes32,address)":"33362","hasRole(bytes32,address)":"3051","isEligibleForWinning(uint256,address)":"7576","participantIndexes(uint256,uint256)":"2857","participants(uint256,address)":"11067","pauseCampaign(uint256)":"infinite","paused()":"2655","removeAdmin(address)":"32223","renounceRole(bytes32,address)":"29010","resumeCampaign(uint256)":"infinite","revokeRole(bytes32,address)":"33903","selectWinners(uint256)":"infinite","squdyToken()":"infinite","stakeSQUDY(uint256,uint256)":"infinite","supportsInterface(bytes4)":"283"},"internal":{"_findWinnerByTicket(uint256,uint256)":"infinite","_generateRandomNumbers(uint256)":"infinite","_selectWinners(uint256,uint256[] memory)":"infinite"}},"methodIdentifiers":{"ADMIN_ROLE()":"75b238fc","DEFAULT_ADMIN_ROLE()":"a217fddf","OPERATOR_ROLE()":"f5b541a6","activateCampaign(uint256)":"493f1726","addAdmin(address)":"70480275","burnAllTokens(uint256)":"8c0c5902","campaignParticipants(uint256,uint256)":"35abd49b","campaigns(uint256)":"141961bc","closeCampaign(uint256)":"b0e1c1e1","confirmSocialTasks(uint256,address)":"b5801d91","createCampaign(string,string,string,uint256,uint256,uint256,uint256,uint256,string[])":"03463dd9","emergencyPause()":"51858e27","emergencyRecoverTokens(address,address)":"b7e26a2e","emergencyUnpause()":"4a4e3bd5","getCampaign(uint256)":"5598f8cc","getCampaignCount()":"6caa9218","getCampaignParticipants(uint256)":"8c6ab238","getCampaignsByStatus(uint8)":"4e182157","getParticipant(uint256,address)":"35f3ad7a","getRoleAdmin(bytes32)":"248a9ca3","getTicketCount(uint256,address)":"6a14dffd","grantRole(bytes32,address)":"2f2ff15d","hasRole(bytes32,address)":"91d14854","isEligibleForWinning(uint256,address)":"da8125fb","participantIndexes(uint256,uint256)":"5e3583f5","participants(uint256,address)":"02e060c6","pauseCampaign(uint256)":"de99347a","paused()":"5c975abb","removeAdmin(address)":"1785f53c","renounceRole(bytes32,address)":"36568abe","resumeCampaign(uint256)":"9e3696d9","revokeRole(bytes32,address)":"d547741f","selectWinners(uint256)":"39a2eb2a","squdyToken()":"4eb53f99","stakeSQUDY(uint256,uint256)":"f8ec73d1","supportsInterface(bytes4)":"01ffc9a7"}},"storageLayout":{"storage":[{"astId":27,"contract":"contracts/SqudyCampaignManager.sol:SqudyCampaignManager","label":"_roles","offset":0,"slot":"0","type":"t_mapping(t_bytes32,t_struct(RoleData)22_storage)"},{"astId":1478,"contract":"contracts/SqudyCampaignManager.sol:SqudyCampaignManager","label":"_status","offset":0,"slot":"1","type":"t_uint256"},{"astId":1368,"contract":"contracts/SqudyCampaignManager.sol:SqudyCampaignManager","label":"_paused","offset":0,"slot":"2","type":"t_bool"},{"astId":4321,"contract":"contracts/SqudyCampaignManager.sol:SqudyCampaignManager","label":"_campaignIds","offset":0,"slot":"3","type":"t_uint256"},{"astId":4323,"contract":"contracts/SqudyCampaignManager.sol:SqudyCampaignManager","label":"_randomNonce","offset":0,"slot":"4","type":"t_uint256"},{"astId":4328,"contract":"contracts/SqudyCampaignManager.sol:SqudyCampaignManager","label":"campaigns","offset":0,"slot":"5","type":"t_mapping(t_uint256,t_struct(Campaign)4388_storage)"},{"astId":4335,"contract":"contracts/SqudyCampaignManager.sol:SqudyCampaignManager","label":"participants","offset":0,"slot":"6","type":"t_mapping(t_uint256,t_mapping(t_address,t_struct(Participant)4401_storage))"},{"astId":4340,"contract":"contracts/SqudyCampaignManager.sol:SqudyCampaignManager","label":"campaignParticipants","offset":0,"slot":"7","type":"t_mapping(t_uint256,t_array(t_address)dyn_storage)"},{"astId":4346,"contract":"contracts/SqudyCampaignManager.sol:SqudyCampaignManager","label":"participantIndexes","offset":0,"slot":"8","type":"t_mapping(t_uint256,t_mapping(t_uint256,t_address))"}],"types":{"t_address":{"encoding":"inplace","label":"address","numberOfBytes":"20"},"t_array(t_address)dyn_storage":{"base":"t_address","encoding":"dynamic_array","label":"address[]","numberOfBytes":"32"},"t_array(t_string_storage)dyn_storage":{"base":"t_string_storage","encoding":"dynamic_array","label":"string[]","numberOfBytes":"32"},"t_bool":{"encoding":"inplace","label":"bool","numberOfBytes":"1"},"t_bytes32":{"encoding":"inplace","label":"bytes32","numberOfBytes":"32"},"t_enum(CampaignStatus)4407":{"encoding":"inplace","label":"enum SqudyCampaignManager.CampaignStatus","numberOfBytes":"1"},"t_mapping(t_address,t_bool)":{"encoding":"mapping","key":"t_address","label":"mapping(address => bool)","numberOfBytes":"32","value":"t_bool"},"t_mapping(t_address,t_struct(Participant)4401_storage)":{"encoding":"mapping","key":"t_address","label":"mapping(address => struct SqudyCampaignManager.Participant)","numberOfBytes":"32","value":"t_struct(Participant)4401_storage"},"t_mapping(t_bytes32,t_struct(RoleData)22_storage)":{"encoding":"mapping","key":"t_bytes32","label":"mapping(bytes32 => struct AccessControl.RoleData)","numberOfBytes":"32","value":"t_struct(RoleData)22_storage"},"t_mapping(t_uint256,t_address)":{"encoding":"mapping","key":"t_uint256","label":"mapping(uint256 => address)","numberOfBytes":"32","value":"t_address"},"t_mapping(t_uint256,t_array(t_address)dyn_storage)":{"encoding":"mapping","key":"t_uint256","label":"mapping(uint256 => address[])","numberOfBytes":"32","value":"t_array(t_address)dyn_storage"},"t_mapping(t_uint256,t_mapping(t_address,t_struct(Participant)4401_storage))":{"encoding":"mapping","key":"t_uint256","label":"mapping(uint256 => mapping(address => struct SqudyCampaignManager.Participant))","numberOfBytes":"32","value":"t_mapping(t_address,t_struct(Participant)4401_storage)"},"t_mapping(t_uint256,t_mapping(t_uint256,t_address))":{"encoding":"mapping","key":"t_uint256","label":"mapping(uint256 => mapping(uint256 => address))","numberOfBytes":"32","value":"t_mapping(t_uint256,t_address)"},"t_mapping(t_uint256,t_struct(Campaign)4388_storage)":{"encoding":"mapping","key":"t_uint256","label":"mapping(uint256 => struct SqudyCampaignManager.Campaign)","numberOfBytes":"32","value":"t_struct(Campaign)4388_storage"},"t_string_storage":{"encoding":"bytes","label":"string","numberOfBytes":"32"},"t_struct(Campaign)4388_storage":{"encoding":"inplace","label":"struct SqudyCampaignManager.Campaign","members":[{"astId":4348,"contract":"contracts/SqudyCampaignManager.sol:SqudyCampaignManager","label":"id","offset":0,"slot":"0","type":"t_uint256"},{"astId":4350,"contract":"contracts/SqudyCampaignManager.sol:SqudyCampaignManager","label":"name","offset":0,"slot":"1","type":"t_string_storage"},{"astId":4352,"contract":"contracts/SqudyCampaignManager.sol:SqudyCampaignManager","label":"description","offset":0,"slot":"2","type":"t_string_storage"},{"astId":4354,"contract":"contracts/SqudyCampaignManager.sol:SqudyCampaignManager","label":"imageUrl","offset":0,"slot":"3","type":"t_string_storage"},{"astId":4356,"contract":"contracts/SqudyCampaignManager.sol:SqudyCampaignManager","label":"softCap","offset":0,"slot":"4","type":"t_uint256"},{"astId":4358,"contract":"contracts/SqudyCampaignManager.sol:SqudyCampaignManager","label":"hardCap","offset":0,"slot":"5","type":"t_uint256"},{"astId":4360,"contract":"contracts/SqudyCampaignManager.sol:SqudyCampaignManager","label":"ticketAmount","offset":0,"slot":"6","type":"t_uint256"},{"astId":4362,"contract":"contracts/SqudyCampaignManager.sol:SqudyCampaignManager","label":"currentAmount","offset":0,"slot":"7","type":"t_uint256"},{"astId":4364,"contract":"contracts/SqudyCampaignManager.sol:SqudyCampaignManager","label":"startDate","offset":0,"slot":"8","type":"t_uint256"},{"astId":4366,"contract":"contracts/SqudyCampaignManager.sol:SqudyCampaignManager","label":"endDate","offset":0,"slot":"9","type":"t_uint256"},{"astId":4368,"contract":"contracts/SqudyCampaignManager.sol:SqudyCampaignManager","label":"participantCount","offset":0,"slot":"10","type":"t_uint256"},{"astId":4371,"contract":"contracts/SqudyCampaignManager.sol:SqudyCampaignManager","label":"prizes","offset":0,"slot":"11","type":"t_array(t_string_storage)dyn_storage"},{"astId":4374,"contract":"contracts/SqudyCampaignManager.sol:SqudyCampaignManager","label":"winners","offset":0,"slot":"12","type":"t_array(t_address)dyn_storage"},{"astId":4377,"contract":"contracts/SqudyCampaignManager.sol:SqudyCampaignManager","label":"status","offset":0,"slot":"13","type":"t_enum(CampaignStatus)4407"},{"astId":4379,"contract":"contracts/SqudyCampaignManager.sol:SqudyCampaignManager","label":"tokensAreBurned","offset":1,"slot":"13","type":"t_bool"},{"astId":4381,"contract":"contracts/SqudyCampaignManager.sol:SqudyCampaignManager","label":"totalBurned","offset":0,"slot":"14","type":"t_uint256"},{"astId":4383,"contract":"contracts/SqudyCampaignManager.sol:SqudyCampaignManager","label":"winnerSelectionTxHash","offset":0,"slot":"15","type":"t_bytes32"},{"astId":4385,"contract":"contracts/SqudyCampaignManager.sol:SqudyCampaignManager","label":"createdAt","offset":0,"slot":"16","type":"t_uint256"},{"astId":4387,"contract":"contracts/SqudyCampaignManager.sol:SqudyCampaignManager","label":"updatedAt","offset":0,"slot":"17","type":"t_uint256"}],"numberOfBytes":"576"},"t_struct(Participant)4401_storage":{"encoding":"inplace","label":"struct SqudyCampaignManager.Participant","members":[{"astId":4390,"contract":"contracts/SqudyCampaignManager.sol:SqudyCampaignManager","label":"stakedAmount","offset":0,"slot":"0","type":"t_uint256"},{"astId":4392,"contract":"contracts/SqudyCampaignManager.sol:SqudyCampaignManager","label":"ticketCount","offset":0,"slot":"1","type":"t_uint256"},{"astId":4394,"contract":"contracts/SqudyCampaignManager.sol:SqudyCampaignManager","label":"hasCompletedSocial","offset":0,"slot":"2","type":"t_bool"},{"astId":4396,"contract":"contracts/SqudyCampaignManager.sol:SqudyCampaignManager","label":"isWinner","offset":1,"slot":"2","type":"t_bool"},{"astId":4398,"contract":"contracts/SqudyCampaignManager.sol:SqudyCampaignManager","label":"prizeIndex","offset":0,"slot":"3","type":"t_uint256"},{"astId":4400,"contract":"contracts/SqudyCampaignManager.sol:SqudyCampaignManager","label":"joinedAt","offset":0,"slot":"4","type":"t_uint256"}],"numberOfBytes":"160"},"t_struct(RoleData)22_storage":{"encoding":"inplace","label":"struct AccessControl.RoleData","members":[{"astId":19,"contract":"contracts/SqudyCampaignManager.sol:SqudyCampaignManager","label":"hasRole","offset":0,"slot":"0","type":"t_mapping(t_address,t_bool)"},{"astId":21,"contract":"contracts/SqudyCampaignManager.sol:SqudyCampaignManager","label":"adminRole","offset":0,"slot":"1","type":"t_bytes32"}],"numberOfBytes":"64"},"t_uint256":{"encoding":"inplace","label":"uint256","numberOfBytes":"32"}}},"userdoc":{"kind":"user","methods":{},"version":1}}}}