{"contracts/AutomatedSqudyCampaignManager.sol":{"AutomatedSqudyCampaignManager":{"abi":[{"inputs":[{"internalType":"address","name":"_squdyToken","type":"address"}],"stateMutability":"nonpayable","type":"constructor"},{"inputs":[],"name":"AccessControlBadConfirmation","type":"error"},{"inputs":[{"internalType":"address","name":"account","type":"address"},{"internalType":"bytes32","name":"neededRole","type":"bytes32"}],"name":"AccessControlUnauthorizedAccount","type":"error"},{"inputs":[],"name":"EnforcedPause","type":"error"},{"inputs":[],"name":"ExpectedPause","type":"error"},{"inputs":[],"name":"ReentrancyGuardReentrantCall","type":"error"},{"anonymous":false,"inputs":[{"indexed":true,"internalType":"uint256","name":"campaignId","type":"uint256"},{"indexed":true,"internalType":"address","name":"creator","type":"address"},{"indexed":false,"internalType":"string","name":"name","type":"string"}],"name":"CampaignCreated","type":"event"},{"anonymous":false,"inputs":[{"indexed":true,"internalType":"uint256","name":"campaignId","type":"uint256"},{"indexed":false,"internalType":"uint256","name":"oldEndDate","type":"uint256"},{"indexed":false,"internalType":"uint256","name":"newEndDate","type":"uint256"}],"name":"CampaignEndDateUpdated","type":"event"},{"anonymous":false,"inputs":[{"indexed":true,"internalType":"uint256","name":"campaignId","type":"uint256"}],"name":"CampaignPaused","type":"event"},{"anonymous":false,"inputs":[{"indexed":true,"internalType":"uint256","name":"campaignId","type":"uint256"}],"name":"CampaignResumed","type":"event"},{"anonymous":false,"inputs":[{"indexed":true,"internalType":"uint256","name":"campaignId","type":"uint256"},{"indexed":false,"internalType":"enum AutomatedSqudyCampaignManager.CampaignStatus","name":"status","type":"uint8"}],"name":"CampaignStatusChanged","type":"event"},{"anonymous":false,"inputs":[{"indexed":true,"internalType":"uint256","name":"campaignId","type":"uint256"},{"indexed":false,"internalType":"bool","name":"refunded","type":"bool"}],"name":"CampaignTerminated","type":"event"},{"anonymous":false,"inputs":[{"indexed":false,"internalType":"address","name":"account","type":"address"}],"name":"Paused","type":"event"},{"anonymous":false,"inputs":[{"indexed":true,"internalType":"bytes32","name":"role","type":"bytes32"},{"indexed":true,"internalType":"bytes32","name":"previousAdminRole","type":"bytes32"},{"indexed":true,"internalType":"bytes32","name":"newAdminRole","type":"bytes32"}],"name":"RoleAdminChanged","type":"event"},{"anonymous":false,"inputs":[{"indexed":true,"internalType":"bytes32","name":"role","type":"bytes32"},{"indexed":true,"internalType":"address","name":"account","type":"address"},{"indexed":true,"internalType":"address","name":"sender","type":"address"}],"name":"RoleGranted","type":"event"},{"anonymous":false,"inputs":[{"indexed":true,"internalType":"bytes32","name":"role","type":"bytes32"},{"indexed":true,"internalType":"address","name":"account","type":"address"},{"indexed":true,"internalType":"address","name":"sender","type":"address"}],"name":"RoleRevoked","type":"event"},{"anonymous":false,"inputs":[{"indexed":true,"internalType":"uint256","name":"campaignId","type":"uint256"},{"indexed":true,"internalType":"address","name":"user","type":"address"}],"name":"SocialTasksCompleted","type":"event"},{"anonymous":false,"inputs":[{"indexed":true,"internalType":"uint256","name":"campaignId","type":"uint256"},{"indexed":false,"internalType":"uint256","name":"amount","type":"uint256"}],"name":"TokensBurned","type":"event"},{"anonymous":false,"inputs":[{"indexed":false,"internalType":"address","name":"account","type":"address"}],"name":"Unpaused","type":"event"},{"anonymous":false,"inputs":[{"indexed":true,"internalType":"uint256","name":"campaignId","type":"uint256"},{"indexed":true,"internalType":"address","name":"user","type":"address"},{"indexed":false,"internalType":"uint256","name":"amount","type":"uint256"},{"indexed":false,"internalType":"uint256","name":"tickets","type":"uint256"}],"name":"UserStaked","type":"event"},{"anonymous":false,"inputs":[{"indexed":true,"internalType":"uint256","name":"campaignId","type":"uint256"},{"indexed":false,"internalType":"address[]","name":"winners","type":"address[]"},{"indexed":false,"internalType":"uint256","name":"blockNumber","type":"uint256"}],"name":"WinnersSelected","type":"event"},{"inputs":[],"name":"ADMIN_ROLE","outputs":[{"internalType":"bytes32","name":"","type":"bytes32"}],"stateMutability":"view","type":"function"},{"inputs":[],"name":"DEFAULT_ADMIN_ROLE","outputs":[{"internalType":"bytes32","name":"","type":"bytes32"}],"stateMutability":"view","type":"function"},{"inputs":[],"name":"OPERATOR_ROLE","outputs":[{"internalType":"bytes32","name":"","type":"bytes32"}],"stateMutability":"view","type":"function"},{"inputs":[{"internalType":"uint256","name":"campaignId","type":"uint256"}],"name":"burnTokens","outputs":[],"stateMutability":"nonpayable","type":"function"},{"inputs":[{"internalType":"uint256","name":"","type":"uint256"},{"internalType":"uint256","name":"","type":"uint256"}],"name":"campaignParticipants","outputs":[{"internalType":"address","name":"","type":"address"}],"stateMutability":"view","type":"function"},{"inputs":[{"internalType":"uint256","name":"","type":"uint256"}],"name":"campaigns","outputs":[{"internalType":"uint256","name":"id","type":"uint256"},{"internalType":"string","name":"name","type":"string"},{"internalType":"string","name":"description","type":"string"},{"internalType":"string","name":"imageUrl","type":"string"},{"internalType":"uint256","name":"softCap","type":"uint256"},{"internalType":"uint256","name":"hardCap","type":"uint256"},{"internalType":"uint256","name":"ticketAmount","type":"uint256"},{"internalType":"uint256","name":"currentAmount","type":"uint256"},{"internalType":"uint256","name":"startDate","type":"uint256"},{"internalType":"uint256","name":"endDate","type":"uint256"},{"internalType":"uint256","name":"participantCount","type":"uint256"},{"internalType":"enum AutomatedSqudyCampaignManager.CampaignStatus","name":"status","type":"uint8"},{"internalType":"bool","name":"tokensAreBurned","type":"bool"},{"internalType":"uint256","name":"totalBurned","type":"uint256"},{"internalType":"uint256","name":"winnerSelectionBlock","type":"uint256"}],"stateMutability":"view","type":"function"},{"inputs":[{"internalType":"uint256","name":"campaignId","type":"uint256"},{"internalType":"address","name":"user","type":"address"}],"name":"confirmSocialTasks","outputs":[],"stateMutability":"nonpayable","type":"function"},{"inputs":[{"internalType":"string","name":"name","type":"string"},{"internalType":"string","name":"description","type":"string"},{"internalType":"string","name":"imageUrl","type":"string"},{"internalType":"uint256","name":"softCap","type":"uint256"},{"internalType":"uint256","name":"hardCap","type":"uint256"},{"internalType":"uint256","name":"ticketAmount","type":"uint256"},{"internalType":"uint256","name":"startDate","type":"uint256"},{"internalType":"uint256","name":"endDate","type":"uint256"},{"internalType":"string[]","name":"prizes","type":"string[]"}],"name":"createCampaign","outputs":[{"internalType":"uint256","name":"","type":"uint256"}],"stateMutability":"nonpayable","type":"function"},{"inputs":[],"name":"emergencyPause","outputs":[],"stateMutability":"nonpayable","type":"function"},{"inputs":[{"internalType":"uint256","name":"campaignId","type":"uint256"},{"internalType":"bool","name":"refundUsers","type":"bool"}],"name":"emergencyTerminateCampaign","outputs":[],"stateMutability":"nonpayable","type":"function"},{"inputs":[],"name":"emergencyUnpause","outputs":[],"stateMutability":"nonpayable","type":"function"},{"inputs":[{"internalType":"uint256","name":"campaignId","type":"uint256"}],"name":"getCampaign","outputs":[{"components":[{"internalType":"uint256","name":"id","type":"uint256"},{"internalType":"string","name":"name","type":"string"},{"internalType":"string","name":"description","type":"string"},{"internalType":"string","name":"imageUrl","type":"string"},{"internalType":"uint256","name":"softCap","type":"uint256"},{"internalType":"uint256","name":"hardCap","type":"uint256"},{"internalType":"uint256","name":"ticketAmount","type":"uint256"},{"internalType":"uint256","name":"currentAmount","type":"uint256"},{"internalType":"uint256","name":"startDate","type":"uint256"},{"internalType":"uint256","name":"endDate","type":"uint256"},{"internalType":"uint256","name":"participantCount","type":"uint256"},{"internalType":"string[]","name":"prizes","type":"string[]"},{"internalType":"address[]","name":"winners","type":"address[]"},{"internalType":"enum AutomatedSqudyCampaignManager.CampaignStatus","name":"status","type":"uint8"},{"internalType":"bool","name":"tokensAreBurned","type":"bool"},{"internalType":"uint256","name":"totalBurned","type":"uint256"},{"internalType":"uint256","name":"winnerSelectionBlock","type":"uint256"}],"internalType":"struct AutomatedSqudyCampaignManager.Campaign","name":"","type":"tuple"}],"stateMutability":"view","type":"function"},{"inputs":[{"internalType":"uint256","name":"campaignId","type":"uint256"}],"name":"getCampaignParticipants","outputs":[{"internalType":"address[]","name":"","type":"address[]"}],"stateMutability":"view","type":"function"},{"inputs":[{"internalType":"uint256","name":"campaignId","type":"uint256"},{"internalType":"address","name":"user","type":"address"}],"name":"getParticipant","outputs":[{"components":[{"internalType":"uint256","name":"stakedAmount","type":"uint256"},{"internalType":"uint256","name":"ticketCount","type":"uint256"},{"internalType":"bool","name":"hasCompletedSocial","type":"bool"},{"internalType":"uint256","name":"joinedAt","type":"uint256"}],"internalType":"struct AutomatedSqudyCampaignManager.Participant","name":"","type":"tuple"}],"stateMutability":"view","type":"function"},{"inputs":[{"internalType":"bytes32","name":"role","type":"bytes32"}],"name":"getRoleAdmin","outputs":[{"internalType":"bytes32","name":"","type":"bytes32"}],"stateMutability":"view","type":"function"},{"inputs":[],"name":"getTotalCampaigns","outputs":[{"internalType":"uint256","name":"","type":"uint256"}],"stateMutability":"view","type":"function"},{"inputs":[{"internalType":"bytes32","name":"role","type":"bytes32"},{"internalType":"address","name":"account","type":"address"}],"name":"grantRole","outputs":[],"stateMutability":"nonpayable","type":"function"},{"inputs":[{"internalType":"bytes32","name":"role","type":"bytes32"},{"internalType":"address","name":"account","type":"address"}],"name":"hasRole","outputs":[{"internalType":"bool","name":"","type":"bool"}],"stateMutability":"view","type":"function"},{"inputs":[{"internalType":"uint256","name":"","type":"uint256"},{"internalType":"address","name":"","type":"address"}],"name":"participants","outputs":[{"internalType":"uint256","name":"stakedAmount","type":"uint256"},{"internalType":"uint256","name":"ticketCount","type":"uint256"},{"internalType":"bool","name":"hasCompletedSocial","type":"bool"},{"internalType":"uint256","name":"joinedAt","type":"uint256"}],"stateMutability":"view","type":"function"},{"inputs":[{"internalType":"uint256","name":"campaignId","type":"uint256"}],"name":"pauseCampaign","outputs":[],"stateMutability":"nonpayable","type":"function"},{"inputs":[],"name":"paused","outputs":[{"internalType":"bool","name":"","type":"bool"}],"stateMutability":"view","type":"function"},{"inputs":[{"internalType":"bytes32","name":"role","type":"bytes32"},{"internalType":"address","name":"callerConfirmation","type":"address"}],"name":"renounceRole","outputs":[],"stateMutability":"nonpayable","type":"function"},{"inputs":[{"internalType":"uint256","name":"campaignId","type":"uint256"}],"name":"resumeCampaign","outputs":[],"stateMutability":"nonpayable","type":"function"},{"inputs":[{"internalType":"bytes32","name":"role","type":"bytes32"},{"internalType":"address","name":"account","type":"address"}],"name":"revokeRole","outputs":[],"stateMutability":"nonpayable","type":"function"},{"inputs":[{"internalType":"uint256","name":"campaignId","type":"uint256"}],"name":"selectWinners","outputs":[],"stateMutability":"nonpayable","type":"function"},{"inputs":[],"name":"squdyToken","outputs":[{"internalType":"contract IERC20","name":"","type":"address"}],"stateMutability":"view","type":"function"},{"inputs":[{"internalType":"uint256","name":"campaignId","type":"uint256"},{"internalType":"uint256","name":"amount","type":"uint256"}],"name":"stakeTokens","outputs":[],"stateMutability":"nonpayable","type":"function"},{"inputs":[{"internalType":"bytes4","name":"interfaceId","type":"bytes4"}],"name":"supportsInterface","outputs":[{"internalType":"bool","name":"","type":"bool"}],"stateMutability":"view","type":"function"},{"inputs":[{"internalType":"uint256","name":"campaignId","type":"uint256"},{"internalType":"uint256","name":"newEndDate","type":"uint256"}],"name":"updateCampaignEndDate","outputs":[],"stateMutability":"nonpayable","type":"function"}],"devdoc":{"author":"Squdy Team","details":"Simplified campaign manager with automated winner selection","errors":{"AccessControlBadConfirmation()":[{"details":"The caller of a function is not the expected one. NOTE: Don't confuse with {AccessControlUnauthorizedAccount}."}],"AccessControlUnauthorizedAccount(address,bytes32)":[{"details":"The `account` is missing a role."}],"EnforcedPause()":[{"details":"The operation failed because the contract is paused."}],"ExpectedPause()":[{"details":"The operation failed because the contract is not paused."}],"ReentrancyGuardReentrantCall()":[{"details":"Unauthorized reentrant call."}]},"events":{"Paused(address)":{"details":"Emitted when the pause is triggered by `account`."},"RoleAdminChanged(bytes32,bytes32,bytes32)":{"details":"Emitted when `newAdminRole` is set as ``role``'s admin role, replacing `previousAdminRole` `DEFAULT_ADMIN_ROLE` is the starting admin for all roles, despite {RoleAdminChanged} not being emitted to signal this."},"RoleGranted(bytes32,address,address)":{"details":"Emitted when `account` is granted `role`. `sender` is the account that originated the contract call. This account bears the admin role (for the granted role). Expected in cases where the role was granted using the internal {AccessControl-_grantRole}."},"RoleRevoked(bytes32,address,address)":{"details":"Emitted when `account` is revoked `role`. `sender` is the account that originated the contract call:   - if using `revokeRole`, it is the admin role bearer   - if using `renounceRole`, it is the role bearer (i.e. `account`)"},"Unpaused(address)":{"details":"Emitted when the pause is lifted by `account`."}},"kind":"dev","methods":{"burnTokens(uint256)":{"details":"Burn all staked tokens after winner selection"},"confirmSocialTasks(uint256,address)":{"details":"Confirm social tasks completion for a user"},"createCampaign(string,string,string,uint256,uint256,uint256,uint256,uint256,string[])":{"details":"Creates a new campaign"},"emergencyPause()":{"details":"Emergency pause all contract operations (admin only)"},"emergencyTerminateCampaign(uint256,bool)":{"details":"Emergency terminate campaign (admin only) Allows early termination with optional refunds"},"emergencyUnpause()":{"details":"Emergency unpause all contract operations (admin only)"},"getRoleAdmin(bytes32)":{"details":"Returns the admin role that controls `role`. See {grantRole} and {revokeRole}. To change a role's admin, use {_setRoleAdmin}."},"grantRole(bytes32,address)":{"details":"Grants `role` to `account`. If `account` had not been already granted `role`, emits a {RoleGranted} event. Requirements: - the caller must have ``role``'s admin role. May emit a {RoleGranted} event."},"hasRole(bytes32,address)":{"details":"Returns `true` if `account` has been granted `role`."},"pauseCampaign(uint256)":{"details":"Pause a specific campaign (admin/operator only)"},"paused()":{"details":"Returns true if the contract is paused, and false otherwise."},"renounceRole(bytes32,address)":{"details":"Revokes `role` from the calling account. Roles are often managed via {grantRole} and {revokeRole}: this function's purpose is to provide a mechanism for accounts to lose their privileges if they are compromised (such as when a trusted device is misplaced). If the calling account had been revoked `role`, emits a {RoleRevoked} event. Requirements: - the caller must be `callerConfirmation`. May emit a {RoleRevoked} event."},"resumeCampaign(uint256)":{"details":"Resume a paused campaign (admin/operator only)"},"revokeRole(bytes32,address)":{"details":"Revokes `role` from `account`. If `account` had been granted `role`, emits a {RoleRevoked} event. Requirements: - the caller must have ``role``'s admin role. May emit a {RoleRevoked} event."},"selectWinners(uint256)":{"details":"Automated winner selection when campaign ends Can be called by anyone after campaign ends"},"stakeTokens(uint256,uint256)":{"details":"Stake tokens in a campaign"},"supportsInterface(bytes4)":{"details":"Returns true if this contract implements the interface defined by `interfaceId`. See the corresponding https://eips.ethereum.org/EIPS/eip-165#how-interfaces-are-identified[ERC section] to learn more about how these ids are created. This function call must use less than 30 000 gas."},"updateCampaignEndDate(uint256,uint256)":{"details":"Update campaign end date (admin only, before campaign ends)"}},"title":"AutomatedSqudyCampaignManager","version":1},"evm":{"bytecode":{"linkReferences":{},"object":"60a03462000149576001600160401b0390601f62002b5238819003918201601f191683019184831184841017620000ee578084926020946040528339810103126200014957516001600160a01b038116908190036200014957600180558015620001045760805262000071336200014e565b506200007d33620001ce565b50620000893362000270565b5060405160208101904282524460408201523360601b606082015260548152608081019281841090841117620000ee578260405251902060045561282490816200030e8239608051818181610823015281816109f301528181610f5e015261110e0152f35b634e487b7160e01b600052604160045260246000fd5b60405162461bcd60e51b815260206004820152601560248201527f496e76616c696420746f6b656e206164647265737300000000000000000000006044820152606490fd5b600080fd5b6001600160a01b031660008181527fad3228b676f7d3cd4284a5443f17f1962b36e491b30a40b2405849e597ba5fb5602052604081205490919060ff16620001ca57818052816020526040822081835260205260408220600160ff19825416179055339160008051602062002b328339815191528180a4600190565b5090565b6001600160a01b031660008181527f7d7ffb7a348e1c6a02869081a26547b49160dd3df72d1d75a570eb9b698292ec60205260408120549091907fa49807205ce4d355092ef5a8a18f56e8913cf4a201fbe287825b095693c217759060ff166200026b57808352826020526040832082845260205260408320600160ff1982541617905560008051602062002b32833981519152339380a4600190565b505090565b6001600160a01b031660008181527fee57cd81e84075558e8fcc182a1f4393f91fc97f963a136e66b7f949a62f319f60205260408120549091907f97667070c54ef182b0f5858b034beac1b6f3089aa2d3188bb1e8929f4fa9b9299060ff166200026b57808352826020526040832082845260205260408320600160ff1982541617905560008051602062002b32833981519152339380a460019056fe608080604052600436101561001357600080fd5b60003560e01c90816301ffc9a714611f645750806302e060c614611ef557806303463dd914611b96578063141961bc14611a7d57806316f43dd414611a5f578063171e986e146118e8578063248a9ca3146118b95780632f2ff15d1461187a57806335abd49b1461183057806335f3ad7a1461177957806336568abe1461173257806339a2eb2a146112f55780633b7b618814610ff75780634a4e3bd514610f8d5780634eb53f9914610f4857806351858e2714610eee5780635598f8cc14610b855780635c975abb14610b625780636d1b229d1461094e57806375b238fc14610913578063871f87cf1461067c5780638c6ab2381461060957806391d14854146105bc5780639e3696d9146104a9578063a217fddf1461048d578063b5801d911461028c578063d547741f1461024b578063de99347a1461019e5763f5b541a61461015e57600080fd5b346101995760003660031901126101995760206040517f97667070c54ef182b0f5858b034beac1b6f3089aa2d3188bb1e8929f4fa9b9298152f35b600080fd5b34610199576020366003190112610199576004356101ba6122bf565b8015158061023f575b6101cc90612567565b806000526005602052600d604060002001805460ff8116906006821015610229576101fb6001600293146125b3565b60ff19161790557fab1902ee37c92d1a78dda53814d64b815e7e3ee287d60843a3dbd6954e3206b4600080a2005b634e487b7160e01b600052602160045260246000fd5b506003548111156101c3565b346101995760403660031901126101995761028a60043561026a611fb7565b9080600052600060205261028560016040600020015461231b565b6123bf565b005b34610199576040366003190112610199576004356102a8611fb7565b3360009081527fee57cd81e84075558e8fcc182a1f4393f91fc97f963a136e66b7f949a62f319f602090815260409091205491929160ff16801561044b575b15610416578115158061040a575b6102fe90612567565b60008281526006825260408082206001600160a01b03909516808352948352902054156103cd578160005260068152604060002083600052815260ff6002604060002001541661039557816000526006815260406000209083600052526002604060002001600160ff198254161790557fd8e2a0fb3631991dd34ac6af97a04f3485326d9f70043bb29f54e66f0c5577c6600080a3005b6064906040519062461bcd60e51b825260048201526011602482015270105b1c9958591e4818dbdb5c1b195d1959607a1b6044820152fd5b6064906040519062461bcd60e51b82526004820152601660248201527555736572206e6f742070617274696369706174696e6760501b6044820152fd5b506003548211156102f5565b6064906040519062461bcd60e51b82526004820152600e60248201526d139bdd08185d5d1a1bdc9a5e995960921b6044820152fd5b507fa49807205ce4d355092ef5a8a18f56e8913cf4a201fbe287825b095693c2177560005260008152604060002033600052815260ff604060002054166102e7565b3461019957600036600319011261019957602060405160008152f35b34610199576020366003190112610199576004356104c56122bf565b801515806105b0575b6104d790612567565b8060005260056020526040600020600d81019081549060ff82166006811015610229576002036105755760090154421161053b5760ff191660011790557f25128b02d37802123547e1526ab020238abf16bbc37a5bd0a918d5088b016e95600080a2005b60405162461bcd60e51b815260206004820152601260248201527110d85b5c185a59db881a185cc8195b99195960721b6044820152606490fd5b60405162461bcd60e51b815260206004820152601360248201527210d85b5c185a59db881b9bdd081c185d5cd959606a1b6044820152606490fd5b506003548111156104ce565b34610199576040366003190112610199576105d5611fb7565b600435600052600060205260406000209060018060a01b0316600052602052602060ff604060002054166040519015158152f35b346101995760203660031901126101995760043580151580610670575b61062f90612567565b600052600760205261066c610651610658604060002060405192838092612696565b0382612006565b604051918291602083526020830190612208565b0390f35b50600354811115610626565b3461019957604036600319011261019957602480358015159060043590828103610199576106a8612245565b81151580610907575b6106ba90612567565b6106c2612673565b8160005260209060058252604060002090600d8083019687549760ff891693600691828610156108f25760046106fe9b60019c8d8099146125b3565b60ff1916179055806108e5575b610740575b83877ff75bd1a9b4e512fc86093732061ee514541c41fcf65f64697ffd3e0f6328c215888b604051908152a28055005b866000526007865261065161075f604060002060405192838092612696565b6000855b6107a3575b50505050505092600060077ff75bd1a9b4e512fc86093732061ee514541c41fcf65f64697ffd3e0f6328c21594950155929184868080610710565b81518110156108e0576001600160a01b03806107bf8385612553565b5116908a600052848a526040600020826000528a5289604060002092835492836107f8575b50505050506107f290612434565b85610763565b60009495969798999a5060405193849263a9059cbb60e01b845260048401528a8301528160449586927f0000000000000000000000000000000000000000000000000000000000000000165af19081156108d4576000916108a7575b501561087657506000808255908b01558994939291906107f28c8981806107e4565b886c1499599d5b990819985a5b1959609a1b60649289896040519462461bcd60e51b86526004860152840152820152fd5b6108c791508a3d8c116108cd575b6108bf8183612006565b81019061263d565b8d610854565b503d6108b5565b6040513d6000823e3d90fd5b610768565b506007850154151561070b565b83634e487b7160e01b60005260216004526000fd5b506003548211156106b1565b346101995760003660031901126101995760206040517fa49807205ce4d355092ef5a8a18f56e8913cf4a201fbe287825b095693c217758152f35b3461019957602080600319360112610199576004359081151580610b56575b61097690612567565b61097e612673565b81600052600581526040600020600d81019081549060ff8216600681101561022957600303610b1a5760ff8260081c16610add576007810154600e9190910181905561ffff199091166101051790915560405163a9059cbb60e01b815261dead600482015260248101829052828160448160007f00000000000000000000000000000000000000000000000000000000000000006001600160a01b03165af19081156108d457600091610ac0575b5015610a8d5790827f8bc81353cf6671d259d22783e39ed930583c86f3f4cf7e981298e6a872dfb15d827f7e5e6bfcab605d9254dbb5c3b4c8bd65ee4705bb30b1fc434d9651d24d368f3694604051908152a260405160058152a260018055005b60405162461bcd60e51b815260048101839052600b60248201526a109d5c9b8819985a5b195960aa1b6044820152606490fd5b610ad79150833d85116108cd576108bf8183612006565b84610a2c565b60405162461bcd60e51b8152600481018590526015602482015274151bdad95b9cc8185b1c9958591e48189d5c9b9959605a1b6044820152606490fd5b60405162461bcd60e51b815260048101859052601460248201527315da5b9b995c9cc81b9bdd081cd95b1958dd195960621b6044820152606490fd5b5060035482111561096d565b3461019957600036600319011261019957602060ff600254166040519015158152f35b34610199576020366003190112610199576000610200604051610ba781611fe9565b82815260606020820152606060408201526060808201528260808201528260a08201528260c08201528260e082015282610100820152826101208201528261014082015260606101608201526060610180820152826101a0820152826101c0820152826101e0820152015260043580151580610ee2575b610c2790612567565b6000526005602052604060002060405190610c4182611fe9565b80548252610c51600182016120d1565b6020830152610c62600282016120d1565b6040830152610c73600382016120d1565b606083015260048101546080830152600581015460a0830152600681015460c0830152600781015460e083015260088101546101008301526009810154610120830152600a810154610140830152600b810154610ccf8161207f565b90610cdd6040519283612006565b80825260208201600b840160005260206000206000915b838310610ec55750505050610160830152604051610d198161065181600c8601612696565b610180830152600d81015490600660ff831610156102295760ff8281600f94166101a086015260081c1615156101c0840152600e8101546101e084015201546102008201526040516020815281516020820152610db9610da3610d8d60208501516102206040860152610240850190612177565b6040850151848203601f19016060860152612177565b6060840151838203601f19016080850152612177565b91608081015160a083015260a081015160c083015260c081015160e083015260e081015161010083015261010081015161012083015261012081015161014083015261014081015161016083015261016081015192601f1983820301610180840152835180825260208201916020808360051b8301019601926000915b838310610e9857868087610200610e5f8c610180840151601f19868303016101a0870152612208565b91610e746101a08201516101c08601906121b7565b6101c081015115156101e08501526101e08101518285015201516102208301520390f35b9091929396602080610eb6600193601f198682030187528b51612177565b99019301930191939290610e36565b600160208192610ed4856120d1565b815201920192019190610cf4565b50600354811115610c1e565b3461019957600036600319011261019957610f07612245565b610f0f612655565b600160ff1960025416176002557f62e78cea01bee320cd4e420270b5ea74000d11b0c9f74754ebdbfc544b05a2586020604051338152a1005b34610199576000366003190112610199576040517f00000000000000000000000000000000000000000000000000000000000000006001600160a01b03168152602090f35b3461019957600036600319011261019957610fa6612245565b60025460ff811615610fe55760ff19166002557f5db9ee0a495bf2e6ff9c91a7834c1ba4fdd244a5e8aa4e537bd38aeae4b073aa6020604051338152a1005b604051638dfc202b60e01b8152600490fd5b3461019957611005366121c4565b9061100e612673565b611016612655565b801515806112e9575b61102890612567565b8060005260206005815260406000209060ff600d83015416600681101561022957600161105591146125b3565b6008820154421015806112db575b1561129757600682018054851061125b5760078301906110848683546125f5565b60058501541061122357846000526006835260406000203360005283526040600020938454156111f1575b505480156111db576001908604936110c88782546125f5565b8155016110d68482546125f5565b90556110e38582546125f5565b90556040516323b872dd60e01b815233600482015230602482015260448101859052818160648160007f00000000000000000000000000000000000000000000000000000000000000006001600160a01b03165af19081156108d4576000916111be575b5015611182576040519384528301527fbf3a2998bf95effb9622e3aeea768ec248f238862fd602100075c04d21caa23c60403393a360018055005b6064906040519062461bcd60e51b825260048201526015602482015274151bdad95b881d1c985b9cd9995c8819985a5b1959605a1b6044820152fd5b6111d59150823d84116108cd576108bf8183612006565b85611147565b634e487b7160e01b600052601260045260246000fd5b600a90866000526007855261120a336040600020612602565b016112158154612434565b9055426003850155866110af565b60405162461bcd60e51b815260048101849052601060248201526f0457863656564732068617264206361760841b6044820152606490fd5b60405162461bcd60e51b8152600481018390526014602482015273416d6f756e742062656c6f77206d696e696d756d60601b6044820152606490fd5b6064906040519062461bcd60e51b82526004820152601860248201527f43616d706169676e206e6f7420696e2070726f677265737300000000000000006044820152fd5b506009820154421115611063565b5060035481111561101f565b3461019957602036600319011261019957600435151580611724575b61131a90612567565b611322612673565b6004356000526005602052604060002060ff600d82015416600681101561022957600161134f91146125b3565b60098101544211156116e7576007810154600482015481106116ab57600435600052600760205261065161138d604060002060405192838092612696565b61139781516126dc565b60009060005b835181101561141f5760043560009081526006602052604090206001600160a01b0390816113cb8488612553565b511660005260205260ff600260406000200154166113f3575b506113ee90612434565b61139d565b8193611418916114066113ee9488612553565b51166114128286612553565b52612434565b92906113e4565b5092915061142c816126dc565b9260005b82811061168457505050819082511561163f57600b8401549251808411611637575b5060045461145f81612434565b600455604051906020820192428452446040840152436060840152600435608084015260a083015260c082015260c0815260e0810181811067ffffffffffffffff82111761162157604052519020916000925b81841061154b57600d8501805460ff1916600317905543600f86015560408051818152907fa15551854f54807a0f0db8e3b861523fd994877676824ed8603655ab18ca6dd890611507908301600c8901612696565b9143602082015280600435930390a2604051600381527f7e5e6bfcab605d9254dbb5c3b4c8bd65ee4705bb30b1fc434d9651d24d368f36602060043592a260018055005b61156161155885836125f5565b8460043561270e565b9061156f82600c8801612602565b8351600019810190811161160b57611586906126dc565b9560009360005b86518110156115f1576001600160a01b03858116906115ac838a612553565b5116036115c2575b6115bd90612434565b61158d565b946115bd906115e9906001600160a01b036115dd898b612553565b5116611412828d612553565b9590506115b4565b5095945095909250611604915092612434565b92906114b2565b634e487b7160e01b600052601160045260246000fd5b634e487b7160e01b600052604160045260246000fd5b925084611452565b60405162461bcd60e51b815260206004820152601860248201527f4e6f20656c696769626c65207061727469636970616e747300000000000000006044820152606490fd5b6116a6906001600160a01b0361169a8285612553565b51166114128288612553565b611430565b60405162461bcd60e51b815260206004820152601460248201527314dbd99d0818d85c081b9bdd081c995858da195960621b6044820152606490fd5b60405162461bcd60e51b815260206004820152601560248201527443616d706169676e207374696c6c2061637469766560581b6044820152606490fd5b506003546004351115611311565b346101995760403660031901126101995761174b611fb7565b336001600160a01b038216036117675761028a906004356123bf565b60405163334bd91960e11b8152600490fd5b3461019957604036600319011261019957611792611fb7565b600060606040516117a281611fcd565b8281528260208201528260408201520152600435600052600660205260406000209060018060a01b0316600052602052608060406000206040516117e581611fcd565b8154918282526001810154602083019081526060600360ff60028501541693604086019415158552015493019283526040519384525160208401525115156040830152516060820152f35b346101995761183e366121c4565b9060005260076020526040600020805482101561019957602091611861916121da565b905460405160039290921b1c6001600160a01b03168152f35b346101995760403660031901126101995761028a600435611899611fb7565b908060005260006020526118b460016040600020015461231b565b612341565b346101995760203660031901126101995760043560005260006020526020600160406000200154604051908152f35b34610199576118f6366121c4565b6118fe612245565b81151580611a53575b61191090612567565b816000526005602052604060002060ff600d8201541660068110156102295760018114908115611a48575b5015611a0357428211156119be57600901805480831461198957827f70e9f58eec5af783627e59f6af135becb4bcbd768c33d59e8f30f329cde15f2e936040935582519182526020820152a2005b60405162461bcd60e51b815260206004820152600d60248201526c53616d6520656e64206461746560981b6044820152606490fd5b60405162461bcd60e51b815260206004820152601a60248201527f456e642064617465206d75737420626520696e206675747572650000000000006044820152606490fd5b60405162461bcd60e51b815260206004820152601a60248201527f43616d706169676e206e6f74206163746976652f7061757365640000000000006044820152606490fd5b60029150148461193b565b50600354821115611907565b34610199576000366003190112610199576020600354604051908152f35b346101995760203660031901126101995760043560005260056020526040600020805460018201611aad906120d1565b91611aba600282016120d1565b611ac6600383016120d1565b91600481015492600582015460068301546007840154600885015490600986015492600a87015494600d88015496600e89015498600f0154996040519d8e9d8e528d6101e09081602082015201611b1c91612177565b8d810360408f0152611b2d91612177565b8c810360608e0152611b3e91612177565b9960808c015260a08b015260c08a015260e0890152610100880152610120870152610140860152610160850160ff821690611b78916121b7565b60081c60ff1615156101808501526101a08401526101c08301520390f35b34610199576101203660031901126101995767ffffffffffffffff60043581811161019957611bc9903690600401612028565b90602491823582811161019957611be4903690600401612028565b60443583811161019957611bfc903690600401612028565b6101043590848211610199573660238301121561019957816004013591611c228361207f565b92611c306040519485612006565b808452602096888886019260051b8401019236841161019957898101925b848410611ecf575050505050611c62612245565b60c43542811115611e965760e4359181831115611e5f5760643580151580611e54575b15611e215760a435918215611de55792889994919260059993611ce98a9896611ce0611cd79b611cb6600354612434565b9e8f998a6003558a60005252604060002098895560019c8d9c8d8b01612443565b60028901612443565b60038701612443565b60048501556084356005850155600684015560088301556009820155600d8101805460ff191685179055600b01936000905b611d65575b878787817fc04c663886cae794dc52158f70fe6c8ee3b0140d4f48647282f9b693ff688a6560405185815280611d5a339588830190612177565b0390a3604051908152f35b8151811015611de057611d788183612553565b518554600160401b811015611dcb578086611d9692018855876121da565b611db65791611daa611daf92879594612443565b612434565b9091611d1b565b84634e487b7160e01b60005260006004526000fd5b84634e487b7160e01b60005260416004526000fd5b611d20565b60405162461bcd60e51b8152600481018a90526015818c015274125b9d985b1a59081d1a58dad95d08185b5bdd5b9d605a1b6044820152606490fd5b60405162461bcd60e51b815260048101899052600c818b01526b496e76616c6964206361707360a01b6044820152606490fd5b508060843511611c85565b60405162461bcd60e51b8152600481018890526010818a01526f496e76616c696420656e64206461746560801b6044820152606490fd5b60405162461bcd60e51b81526004810187905260128189015271496e76616c6964207374617274206461746560701b6044820152606490fd5b8335838111610199578a91611eea83928e3691870101612028565b815201930192611c4e565b3461019957604036600319011261019957611f0e611fb7565b600435600052600660205260406000209060018060a01b031660005260205260806040600020805490600181015490600360ff600283015416910154916040519384526020840152151560408301526060820152f35b34610199576020366003190112610199576004359063ffffffff60e01b821680920361019957602091637965db0b60e01b8114908115611fa6575b5015158152f35b6301ffc9a760e01b14905083611f9f565b602435906001600160a01b038216820361019957565b6080810190811067ffffffffffffffff82111761162157604052565b610220810190811067ffffffffffffffff82111761162157604052565b90601f8019910116810190811067ffffffffffffffff82111761162157604052565b81601f820112156101995780359067ffffffffffffffff8211611621576040519261205d601f8401601f191660200185612006565b8284526020838301011161019957816000926020809301838601378301015290565b67ffffffffffffffff81116116215760051b60200190565b90600182811c921680156120c7575b60208310146120b157565b634e487b7160e01b600052602260045260246000fd5b91607f16916120a6565b90604051918260008254926120e584612097565b9081845260019485811690816000146121545750600114612111575b505061210f92500383612006565b565b9093915060005260209081600020936000915b81831061213c57505061210f93508201013880612101565b85548884018501529485019487945091830191612124565b91505061210f94506020925060ff191682840152151560051b8201013880612101565b919082519283825260005b8481106121a3575050826000602080949584010152601f8019910116010190565b602081830181015184830182015201612182565b9060068210156102295752565b6040906003190112610199576004359060243590565b80548210156121f25760005260206000200190600090565b634e487b7160e01b600052603260045260246000fd5b90815180825260208080930193019160005b828110612228575050505090565b83516001600160a01b03168552938101939281019260010161221a565b3360009081527f7d7ffb7a348e1c6a02869081a26547b49160dd3df72d1d75a570eb9b698292ec60205260409020547fa49807205ce4d355092ef5a8a18f56e8913cf4a201fbe287825b095693c217759060ff16156122a15750565b6044906040519063e2517d3f60e01b82523360048301526024820152fd5b3360009081527fee57cd81e84075558e8fcc182a1f4393f91fc97f963a136e66b7f949a62f319f60205260409020547f97667070c54ef182b0f5858b034beac1b6f3089aa2d3188bb1e8929f4fa9b9299060ff16156122a15750565b80600052600060205260406000203360005260205260ff60406000205416156122a15750565b9060009180835282602052604083209160018060a01b03169182845260205260ff604084205416156000146123ba57808352826020526040832082845260205260408320600160ff198254161790557f2f8788117e7eff1d82e926ec794901d17c78024a50270940304540a733656f0d339380a4600190565b505090565b9060009180835282602052604083209160018060a01b03169182845260205260ff6040842054166000146123ba5780835282602052604083208284526020526040832060ff1981541690557ff6391f5c32d9c69d2a47ea670b442974b53935d1edc7fd64eb21e047a839171b339380a4600190565b600019811461160b5760010190565b919091825167ffffffffffffffff8111611621576124618254612097565b601f811161250b575b50602080601f83116001146124a757508192939460009261249c575b50508160011b916000199060031b1c1916179055565b015190503880612486565b90601f198316958460005282600020926000905b8882106124f3575050836001959697106124da575b505050811b019055565b015160001960f88460031b161c191690553880806124d0565b806001859682949686015181550195019301906124bb565b600083815260208120601f840160051c81019260208510612549575b601f0160051c01915b82811061253e57505061246a565b818155600101612530565b9092508290612527565b80518210156121f25760209160051b010190565b1561256e57565b60405162461bcd60e51b815260206004820152601760248201527f43616d706169676e20646f6573206e6f742065786973740000000000000000006044820152606490fd5b156125ba57565b60405162461bcd60e51b815260206004820152601360248201527243616d706169676e206e6f742061637469766560681b6044820152606490fd5b9190820180921161160b57565b8054600160401b8110156116215761261f916001820181556121da565b819291549060031b9160018060a01b03809116831b921b1916179055565b90816020910312610199575180151581036101995790565b60ff6002541661266157565b60405163d93c066560e01b8152600490fd5b600260015414612684576002600155565b604051633ee5aeb560e01b8152600490fd5b90815480825260208092019260005281600020916000905b8282106126bc575050505090565b83546001600160a01b0316855293840193600193840193909101906126ae565b906126e68261207f565b6126f36040519182612006565b8281528092612704601f199161207f565b0190602036910137565b600093845b83518610156127645761275861275e918460005260016020600681526040908160002090838060a01b036127478d8c612553565b5116600052526000200154906125f5565b95612434565b94612713565b919390945081156111db570690600091825b82518110156127d257846000526127a7602094600686526001604080600020828060a01b039889612747888b612553565b938483106127be57506127b990612434565b612776565b94509190506127cd9250612553565b511690565b50509150508051156121f257602001516001600160a01b03169056fea26469706673582212209781a636be1f2dda7eddf8a2aedea7c58059a7979b1350c27fb8be345b7528d164736f6c634300081400332f8788117e7eff1d82e926ec794901d17c78024a50270940304540a733656f0d","opcodes":"PUSH1 0xA0 CALLVALUE PUSH3 0x149 JUMPI PUSH1 0x1 PUSH1 0x1 PUSH1 0x40 SHL SUB SWAP1 PUSH1 0x1F PUSH3 0x2B52 CODESIZE DUP2 SWAP1 SUB SWAP2 DUP3 ADD PUSH1 0x1F NOT AND DUP4 ADD SWAP2 DUP5 DUP4 GT DUP5 DUP5 LT OR PUSH3 0xEE JUMPI DUP1 DUP5 SWAP3 PUSH1 0x20 SWAP5 PUSH1 0x40 MSTORE DUP4 CODECOPY DUP2 ADD SUB SLT PUSH3 0x149 JUMPI MLOAD PUSH1 0x1 PUSH1 0x1 PUSH1 0xA0 SHL SUB DUP2 AND SWAP1 DUP2 SWAP1 SUB PUSH3 0x149 JUMPI PUSH1 0x1 DUP1 SSTORE DUP1 ISZERO PUSH3 0x104 JUMPI PUSH1 0x80 MSTORE PUSH3 0x71 CALLER PUSH3 0x14E JUMP JUMPDEST POP PUSH3 0x7D CALLER PUSH3 0x1CE JUMP JUMPDEST POP PUSH3 0x89 CALLER PUSH3 0x270 JUMP JUMPDEST POP PUSH1 0x40 MLOAD PUSH1 0x20 DUP2 ADD SWAP1 TIMESTAMP DUP3 MSTORE PREVRANDAO PUSH1 0x40 DUP3 ADD MSTORE CALLER PUSH1 0x60 SHL PUSH1 0x60 DUP3 ADD MSTORE PUSH1 0x54 DUP2 MSTORE PUSH1 0x80 DUP2 ADD SWAP3 DUP2 DUP5 LT SWAP1 DUP5 GT OR PUSH3 0xEE JUMPI DUP3 PUSH1 0x40 MSTORE MLOAD SWAP1 KECCAK256 PUSH1 0x4 SSTORE PUSH2 0x2824 SWAP1 DUP2 PUSH3 0x30E DUP3 CODECOPY PUSH1 0x80 MLOAD DUP2 DUP2 DUP2 PUSH2 0x823 ADD MSTORE DUP2 DUP2 PUSH2 0x9F3 ADD MSTORE DUP2 DUP2 PUSH2 0xF5E ADD MSTORE PUSH2 0x110E ADD MSTORE RETURN JUMPDEST PUSH4 0x4E487B71 PUSH1 0xE0 SHL PUSH1 0x0 MSTORE PUSH1 0x41 PUSH1 0x4 MSTORE PUSH1 0x24 PUSH1 0x0 REVERT JUMPDEST PUSH1 0x40 MLOAD PUSH3 0x461BCD PUSH1 0xE5 SHL DUP2 MSTORE PUSH1 0x20 PUSH1 0x4 DUP3 ADD MSTORE PUSH1 0x15 PUSH1 0x24 DUP3 ADD MSTORE PUSH32 0x496E76616C696420746F6B656E20616464726573730000000000000000000000 PUSH1 0x44 DUP3 ADD MSTORE PUSH1 0x64 SWAP1 REVERT JUMPDEST PUSH1 0x0 DUP1 REVERT JUMPDEST PUSH1 0x1 PUSH1 0x1 PUSH1 0xA0 SHL SUB AND PUSH1 0x0 DUP2 DUP2 MSTORE PUSH32 0xAD3228B676F7D3CD4284A5443F17F1962B36E491B30A40B2405849E597BA5FB5 PUSH1 0x20 MSTORE PUSH1 0x40 DUP2 KECCAK256 SLOAD SWAP1 SWAP2 SWAP1 PUSH1 0xFF AND PUSH3 0x1CA JUMPI DUP2 DUP1 MSTORE DUP2 PUSH1 0x20 MSTORE PUSH1 0x40 DUP3 KECCAK256 DUP2 DUP4 MSTORE PUSH1 0x20 MSTORE PUSH1 0x40 DUP3 KECCAK256 PUSH1 0x1 PUSH1 0xFF NOT DUP3 SLOAD AND OR SWAP1 SSTORE CALLER SWAP2 PUSH1 0x0 DUP1 MLOAD PUSH1 0x20 PUSH3 0x2B32 DUP4 CODECOPY DUP2 MLOAD SWAP2 MSTORE DUP2 DUP1 LOG4 PUSH1 0x1 SWAP1 JUMP JUMPDEST POP SWAP1 JUMP JUMPDEST PUSH1 0x1 PUSH1 0x1 PUSH1 0xA0 SHL SUB AND PUSH1 0x0 DUP2 DUP2 MSTORE PUSH32 0x7D7FFB7A348E1C6A02869081A26547B49160DD3DF72D1D75A570EB9B698292EC PUSH1 0x20 MSTORE PUSH1 0x40 DUP2 KECCAK256 SLOAD SWAP1 SWAP2 SWAP1 PUSH32 0xA49807205CE4D355092EF5A8A18F56E8913CF4A201FBE287825B095693C21775 SWAP1 PUSH1 0xFF AND PUSH3 0x26B JUMPI DUP1 DUP4 MSTORE DUP3 PUSH1 0x20 MSTORE PUSH1 0x40 DUP4 KECCAK256 DUP3 DUP5 MSTORE PUSH1 0x20 MSTORE PUSH1 0x40 DUP4 KECCAK256 PUSH1 0x1 PUSH1 0xFF NOT DUP3 SLOAD AND OR SWAP1 SSTORE PUSH1 0x0 DUP1 MLOAD PUSH1 0x20 PUSH3 0x2B32 DUP4 CODECOPY DUP2 MLOAD SWAP2 MSTORE CALLER SWAP4 DUP1 LOG4 PUSH1 0x1 SWAP1 JUMP JUMPDEST POP POP SWAP1 JUMP JUMPDEST PUSH1 0x1 PUSH1 0x1 PUSH1 0xA0 SHL SUB AND PUSH1 0x0 DUP2 DUP2 MSTORE PUSH32 0xEE57CD81E84075558E8FCC182A1F4393F91FC97F963A136E66B7F949A62F319F PUSH1 0x20 MSTORE PUSH1 0x40 DUP2 KECCAK256 SLOAD SWAP1 SWAP2 SWAP1 PUSH32 0x97667070C54EF182B0F5858B034BEAC1B6F3089AA2D3188BB1E8929F4FA9B929 SWAP1 PUSH1 0xFF AND PUSH3 0x26B JUMPI DUP1 DUP4 MSTORE DUP3 PUSH1 0x20 MSTORE PUSH1 0x40 DUP4 KECCAK256 DUP3 DUP5 MSTORE PUSH1 0x20 MSTORE PUSH1 0x40 DUP4 KECCAK256 PUSH1 0x1 PUSH1 0xFF NOT DUP3 SLOAD AND OR SWAP1 SSTORE PUSH1 0x0 DUP1 MLOAD PUSH1 0x20 PUSH3 0x2B32 DUP4 CODECOPY DUP2 MLOAD SWAP2 MSTORE CALLER SWAP4 DUP1 LOG4 PUSH1 0x1 SWAP1 JUMP INVALID PUSH1 0x80 DUP1 PUSH1 0x40 MSTORE PUSH1 0x4 CALLDATASIZE LT ISZERO PUSH2 0x13 JUMPI PUSH1 0x0 DUP1 REVERT JUMPDEST PUSH1 0x0 CALLDATALOAD PUSH1 0xE0 SHR SWAP1 DUP2 PUSH4 0x1FFC9A7 EQ PUSH2 0x1F64 JUMPI POP DUP1 PUSH4 0x2E060C6 EQ PUSH2 0x1EF5 JUMPI DUP1 PUSH4 0x3463DD9 EQ PUSH2 0x1B96 JUMPI DUP1 PUSH4 0x141961BC EQ PUSH2 0x1A7D JUMPI DUP1 PUSH4 0x16F43DD4 EQ PUSH2 0x1A5F JUMPI DUP1 PUSH4 0x171E986E EQ PUSH2 0x18E8 JUMPI DUP1 PUSH4 0x248A9CA3 EQ PUSH2 0x18B9 JUMPI DUP1 PUSH4 0x2F2FF15D EQ PUSH2 0x187A JUMPI DUP1 PUSH4 0x35ABD49B EQ PUSH2 0x1830 JUMPI DUP1 PUSH4 0x35F3AD7A EQ PUSH2 0x1779 JUMPI DUP1 PUSH4 0x36568ABE EQ PUSH2 0x1732 JUMPI DUP1 PUSH4 0x39A2EB2A EQ PUSH2 0x12F5 JUMPI DUP1 PUSH4 0x3B7B6188 EQ PUSH2 0xFF7 JUMPI DUP1 PUSH4 0x4A4E3BD5 EQ PUSH2 0xF8D JUMPI DUP1 PUSH4 0x4EB53F99 EQ PUSH2 0xF48 JUMPI DUP1 PUSH4 0x51858E27 EQ PUSH2 0xEEE JUMPI DUP1 PUSH4 0x5598F8CC EQ PUSH2 0xB85 JUMPI DUP1 PUSH4 0x5C975ABB EQ PUSH2 0xB62 JUMPI DUP1 PUSH4 0x6D1B229D EQ PUSH2 0x94E JUMPI DUP1 PUSH4 0x75B238FC EQ PUSH2 0x913 JUMPI DUP1 PUSH4 0x871F87CF EQ PUSH2 0x67C JUMPI DUP1 PUSH4 0x8C6AB238 EQ PUSH2 0x609 JUMPI DUP1 PUSH4 0x91D14854 EQ PUSH2 0x5BC JUMPI DUP1 PUSH4 0x9E3696D9 EQ PUSH2 0x4A9 JUMPI DUP1 PUSH4 0xA217FDDF EQ PUSH2 0x48D JUMPI DUP1 PUSH4 0xB5801D91 EQ PUSH2 0x28C JUMPI DUP1 PUSH4 0xD547741F EQ PUSH2 0x24B JUMPI DUP1 PUSH4 0xDE99347A EQ PUSH2 0x19E JUMPI PUSH4 0xF5B541A6 EQ PUSH2 0x15E JUMPI PUSH1 0x0 DUP1 REVERT JUMPDEST CALLVALUE PUSH2 0x199 JUMPI PUSH1 0x0 CALLDATASIZE PUSH1 0x3 NOT ADD SLT PUSH2 0x199 JUMPI PUSH1 0x20 PUSH1 0x40 MLOAD PUSH32 0x97667070C54EF182B0F5858B034BEAC1B6F3089AA2D3188BB1E8929F4FA9B929 DUP2 MSTORE RETURN JUMPDEST PUSH1 0x0 DUP1 REVERT JUMPDEST CALLVALUE PUSH2 0x199 JUMPI PUSH1 0x20 CALLDATASIZE PUSH1 0x3 NOT ADD SLT PUSH2 0x199 JUMPI PUSH1 0x4 CALLDATALOAD PUSH2 0x1BA PUSH2 0x22BF JUMP JUMPDEST DUP1 ISZERO ISZERO DUP1 PUSH2 0x23F JUMPI JUMPDEST PUSH2 0x1CC SWAP1 PUSH2 0x2567 JUMP JUMPDEST DUP1 PUSH1 0x0 MSTORE PUSH1 0x5 PUSH1 0x20 MSTORE PUSH1 0xD PUSH1 0x40 PUSH1 0x0 KECCAK256 ADD DUP1 SLOAD PUSH1 0xFF DUP2 AND SWAP1 PUSH1 0x6 DUP3 LT ISZERO PUSH2 0x229 JUMPI PUSH2 0x1FB PUSH1 0x1 PUSH1 0x2 SWAP4 EQ PUSH2 0x25B3 JUMP JUMPDEST PUSH1 0xFF NOT AND OR SWAP1 SSTORE PUSH32 0xAB1902EE37C92D1A78DDA53814D64B815E7E3EE287D60843A3DBD6954E3206B4 PUSH1 0x0 DUP1 LOG2 STOP JUMPDEST PUSH4 0x4E487B71 PUSH1 0xE0 SHL PUSH1 0x0 MSTORE PUSH1 0x21 PUSH1 0x4 MSTORE PUSH1 0x24 PUSH1 0x0 REVERT JUMPDEST POP PUSH1 0x3 SLOAD DUP2 GT ISZERO PUSH2 0x1C3 JUMP JUMPDEST CALLVALUE PUSH2 0x199 JUMPI PUSH1 0x40 CALLDATASIZE PUSH1 0x3 NOT ADD SLT PUSH2 0x199 JUMPI PUSH2 0x28A PUSH1 0x4 CALLDATALOAD PUSH2 0x26A PUSH2 0x1FB7 JUMP JUMPDEST SWAP1 DUP1 PUSH1 0x0 MSTORE PUSH1 0x0 PUSH1 0x20 MSTORE PUSH2 0x285 PUSH1 0x1 PUSH1 0x40 PUSH1 0x0 KECCAK256 ADD SLOAD PUSH2 0x231B JUMP JUMPDEST PUSH2 0x23BF JUMP JUMPDEST STOP JUMPDEST CALLVALUE PUSH2 0x199 JUMPI PUSH1 0x40 CALLDATASIZE PUSH1 0x3 NOT ADD SLT PUSH2 0x199 JUMPI PUSH1 0x4 CALLDATALOAD PUSH2 0x2A8 PUSH2 0x1FB7 JUMP JUMPDEST CALLER PUSH1 0x0 SWAP1 DUP2 MSTORE PUSH32 0xEE57CD81E84075558E8FCC182A1F4393F91FC97F963A136E66B7F949A62F319F PUSH1 0x20 SWAP1 DUP2 MSTORE PUSH1 0x40 SWAP1 SWAP2 KECCAK256 SLOAD SWAP2 SWAP3 SWAP2 PUSH1 0xFF AND DUP1 ISZERO PUSH2 0x44B JUMPI JUMPDEST ISZERO PUSH2 0x416 JUMPI DUP2 ISZERO ISZERO DUP1 PUSH2 0x40A JUMPI JUMPDEST PUSH2 0x2FE SWAP1 PUSH2 0x2567 JUMP JUMPDEST PUSH1 0x0 DUP3 DUP2 MSTORE PUSH1 0x6 DUP3 MSTORE PUSH1 0x40 DUP1 DUP3 KECCAK256 PUSH1 0x1 PUSH1 0x1 PUSH1 0xA0 SHL SUB SWAP1 SWAP6 AND DUP1 DUP4 MSTORE SWAP5 DUP4 MSTORE SWAP1 KECCAK256 SLOAD ISZERO PUSH2 0x3CD JUMPI DUP2 PUSH1 0x0 MSTORE PUSH1 0x6 DUP2 MSTORE PUSH1 0x40 PUSH1 0x0 KECCAK256 DUP4 PUSH1 0x0 MSTORE DUP2 MSTORE PUSH1 0xFF PUSH1 0x2 PUSH1 0x40 PUSH1 0x0 KECCAK256 ADD SLOAD AND PUSH2 0x395 JUMPI DUP2 PUSH1 0x0 MSTORE PUSH1 0x6 DUP2 MSTORE PUSH1 0x40 PUSH1 0x0 KECCAK256 SWAP1 DUP4 PUSH1 0x0 MSTORE MSTORE PUSH1 0x2 PUSH1 0x40 PUSH1 0x0 KECCAK256 ADD PUSH1 0x1 PUSH1 0xFF NOT DUP3 SLOAD AND OR SWAP1 SSTORE PUSH32 0xD8E2A0FB3631991DD34AC6AF97A04F3485326D9F70043BB29F54E66F0C5577C6 PUSH1 0x0 DUP1 LOG3 STOP JUMPDEST PUSH1 0x64 SWAP1 PUSH1 0x40 MLOAD SWAP1 PUSH3 0x461BCD PUSH1 0xE5 SHL DUP3 MSTORE PUSH1 0x4 DUP3 ADD MSTORE PUSH1 0x11 PUSH1 0x24 DUP3 ADD MSTORE PUSH17 0x105B1C9958591E4818DBDB5C1B195D1959 PUSH1 0x7A SHL PUSH1 0x44 DUP3 ADD MSTORE REVERT JUMPDEST PUSH1 0x64 SWAP1 PUSH1 0x40 MLOAD SWAP1 PUSH3 0x461BCD PUSH1 0xE5 SHL DUP3 MSTORE PUSH1 0x4 DUP3 ADD MSTORE PUSH1 0x16 PUSH1 0x24 DUP3 ADD MSTORE PUSH22 0x55736572206E6F742070617274696369706174696E67 PUSH1 0x50 SHL PUSH1 0x44 DUP3 ADD MSTORE REVERT JUMPDEST POP PUSH1 0x3 SLOAD DUP3 GT ISZERO PUSH2 0x2F5 JUMP JUMPDEST PUSH1 0x64 SWAP1 PUSH1 0x40 MLOAD SWAP1 PUSH3 0x461BCD PUSH1 0xE5 SHL DUP3 MSTORE PUSH1 0x4 DUP3 ADD MSTORE PUSH1 0xE PUSH1 0x24 DUP3 ADD MSTORE PUSH14 0x139BDD08185D5D1A1BDC9A5E9959 PUSH1 0x92 SHL PUSH1 0x44 DUP3 ADD MSTORE REVERT JUMPDEST POP PUSH32 0xA49807205CE4D355092EF5A8A18F56E8913CF4A201FBE287825B095693C21775 PUSH1 0x0 MSTORE PUSH1 0x0 DUP2 MSTORE PUSH1 0x40 PUSH1 0x0 KECCAK256 CALLER PUSH1 0x0 MSTORE DUP2 MSTORE PUSH1 0xFF PUSH1 0x40 PUSH1 0x0 KECCAK256 SLOAD AND PUSH2 0x2E7 JUMP JUMPDEST CALLVALUE PUSH2 0x199 JUMPI PUSH1 0x0 CALLDATASIZE PUSH1 0x3 NOT ADD SLT PUSH2 0x199 JUMPI PUSH1 0x20 PUSH1 0x40 MLOAD PUSH1 0x0 DUP2 MSTORE RETURN JUMPDEST CALLVALUE PUSH2 0x199 JUMPI PUSH1 0x20 CALLDATASIZE PUSH1 0x3 NOT ADD SLT PUSH2 0x199 JUMPI PUSH1 0x4 CALLDATALOAD PUSH2 0x4C5 PUSH2 0x22BF JUMP JUMPDEST DUP1 ISZERO ISZERO DUP1 PUSH2 0x5B0 JUMPI JUMPDEST PUSH2 0x4D7 SWAP1 PUSH2 0x2567 JUMP JUMPDEST DUP1 PUSH1 0x0 MSTORE PUSH1 0x5 PUSH1 0x20 MSTORE PUSH1 0x40 PUSH1 0x0 KECCAK256 PUSH1 0xD DUP2 ADD SWAP1 DUP2 SLOAD SWAP1 PUSH1 0xFF DUP3 AND PUSH1 0x6 DUP2 LT ISZERO PUSH2 0x229 JUMPI PUSH1 0x2 SUB PUSH2 0x575 JUMPI PUSH1 0x9 ADD SLOAD TIMESTAMP GT PUSH2 0x53B JUMPI PUSH1 0xFF NOT AND PUSH1 0x1 OR SWAP1 SSTORE PUSH32 0x25128B02D37802123547E1526AB020238ABF16BBC37A5BD0A918D5088B016E95 PUSH1 0x0 DUP1 LOG2 STOP JUMPDEST PUSH1 0x40 MLOAD PUSH3 0x461BCD PUSH1 0xE5 SHL DUP2 MSTORE PUSH1 0x20 PUSH1 0x4 DUP3 ADD MSTORE PUSH1 0x12 PUSH1 0x24 DUP3 ADD MSTORE PUSH18 0x10D85B5C185A59DB881A185CC8195B991959 PUSH1 0x72 SHL PUSH1 0x44 DUP3 ADD MSTORE PUSH1 0x64 SWAP1 REVERT JUMPDEST PUSH1 0x40 MLOAD PUSH3 0x461BCD PUSH1 0xE5 SHL DUP2 MSTORE PUSH1 0x20 PUSH1 0x4 DUP3 ADD MSTORE PUSH1 0x13 PUSH1 0x24 DUP3 ADD MSTORE PUSH19 0x10D85B5C185A59DB881B9BDD081C185D5CD959 PUSH1 0x6A SHL PUSH1 0x44 DUP3 ADD MSTORE PUSH1 0x64 SWAP1 REVERT JUMPDEST POP PUSH1 0x3 SLOAD DUP2 GT ISZERO PUSH2 0x4CE JUMP JUMPDEST CALLVALUE PUSH2 0x199 JUMPI PUSH1 0x40 CALLDATASIZE PUSH1 0x3 NOT ADD SLT PUSH2 0x199 JUMPI PUSH2 0x5D5 PUSH2 0x1FB7 JUMP JUMPDEST PUSH1 0x4 CALLDATALOAD PUSH1 0x0 MSTORE PUSH1 0x0 PUSH1 0x20 MSTORE PUSH1 0x40 PUSH1 0x0 KECCAK256 SWAP1 PUSH1 0x1 DUP1 PUSH1 0xA0 SHL SUB AND PUSH1 0x0 MSTORE PUSH1 0x20 MSTORE PUSH1 0x20 PUSH1 0xFF PUSH1 0x40 PUSH1 0x0 KECCAK256 SLOAD AND PUSH1 0x40 MLOAD SWAP1 ISZERO ISZERO DUP2 MSTORE RETURN JUMPDEST CALLVALUE PUSH2 0x199 JUMPI PUSH1 0x20 CALLDATASIZE PUSH1 0x3 NOT ADD SLT PUSH2 0x199 JUMPI PUSH1 0x4 CALLDATALOAD DUP1 ISZERO ISZERO DUP1 PUSH2 0x670 JUMPI JUMPDEST PUSH2 0x62F SWAP1 PUSH2 0x2567 JUMP JUMPDEST PUSH1 0x0 MSTORE PUSH1 0x7 PUSH1 0x20 MSTORE PUSH2 0x66C PUSH2 0x651 PUSH2 0x658 PUSH1 0x40 PUSH1 0x0 KECCAK256 PUSH1 0x40 MLOAD SWAP3 DUP4 DUP1 SWAP3 PUSH2 0x2696 JUMP JUMPDEST SUB DUP3 PUSH2 0x2006 JUMP JUMPDEST PUSH1 0x40 MLOAD SWAP2 DUP3 SWAP2 PUSH1 0x20 DUP4 MSTORE PUSH1 0x20 DUP4 ADD SWAP1 PUSH2 0x2208 JUMP JUMPDEST SUB SWAP1 RETURN JUMPDEST POP PUSH1 0x3 SLOAD DUP2 GT ISZERO PUSH2 0x626 JUMP JUMPDEST CALLVALUE PUSH2 0x199 JUMPI PUSH1 0x40 CALLDATASIZE PUSH1 0x3 NOT ADD SLT PUSH2 0x199 JUMPI PUSH1 0x24 DUP1 CALLDATALOAD DUP1 ISZERO ISZERO SWAP1 PUSH1 0x4 CALLDATALOAD SWAP1 DUP3 DUP2 SUB PUSH2 0x199 JUMPI PUSH2 0x6A8 PUSH2 0x2245 JUMP JUMPDEST DUP2 ISZERO ISZERO DUP1 PUSH2 0x907 JUMPI JUMPDEST PUSH2 0x6BA SWAP1 PUSH2 0x2567 JUMP JUMPDEST PUSH2 0x6C2 PUSH2 0x2673 JUMP JUMPDEST DUP2 PUSH1 0x0 MSTORE PUSH1 0x20 SWAP1 PUSH1 0x5 DUP3 MSTORE PUSH1 0x40 PUSH1 0x0 KECCAK256 SWAP1 PUSH1 0xD DUP1 DUP4 ADD SWAP7 DUP8 SLOAD SWAP8 PUSH1 0xFF DUP10 AND SWAP4 PUSH1 0x6 SWAP2 DUP3 DUP7 LT ISZERO PUSH2 0x8F2 JUMPI PUSH1 0x4 PUSH2 0x6FE SWAP12 PUSH1 0x1 SWAP13 DUP14 DUP1 SWAP10 EQ PUSH2 0x25B3 JUMP JUMPDEST PUSH1 0xFF NOT AND OR SWAP1 SSTORE DUP1 PUSH2 0x8E5 JUMPI JUMPDEST PUSH2 0x740 JUMPI JUMPDEST DUP4 DUP8 PUSH32 0xF75BD1A9B4E512FC86093732061EE514541C41FCF65F64697FFD3E0F6328C215 DUP9 DUP12 PUSH1 0x40 MLOAD SWAP1 DUP2 MSTORE LOG2 DUP1 SSTORE STOP JUMPDEST DUP7 PUSH1 0x0 MSTORE PUSH1 0x7 DUP7 MSTORE PUSH2 0x651 PUSH2 0x75F PUSH1 0x40 PUSH1 0x0 KECCAK256 PUSH1 0x40 MLOAD SWAP3 DUP4 DUP1 SWAP3 PUSH2 0x2696 JUMP JUMPDEST PUSH1 0x0 DUP6 JUMPDEST PUSH2 0x7A3 JUMPI JUMPDEST POP POP POP POP POP POP SWAP3 PUSH1 0x0 PUSH1 0x7 PUSH32 0xF75BD1A9B4E512FC86093732061EE514541C41FCF65F64697FFD3E0F6328C215 SWAP5 SWAP6 ADD SSTORE SWAP3 SWAP2 DUP5 DUP7 DUP1 DUP1 PUSH2 0x710 JUMP JUMPDEST DUP2 MLOAD DUP2 LT ISZERO PUSH2 0x8E0 JUMPI PUSH1 0x1 PUSH1 0x1 PUSH1 0xA0 SHL SUB DUP1 PUSH2 0x7BF DUP4 DUP6 PUSH2 0x2553 JUMP JUMPDEST MLOAD AND SWAP1 DUP11 PUSH1 0x0 MSTORE DUP5 DUP11 MSTORE PUSH1 0x40 PUSH1 0x0 KECCAK256 DUP3 PUSH1 0x0 MSTORE DUP11 MSTORE DUP10 PUSH1 0x40 PUSH1 0x0 KECCAK256 SWAP3 DUP4 SLOAD SWAP3 DUP4 PUSH2 0x7F8 JUMPI JUMPDEST POP POP POP POP POP PUSH2 0x7F2 SWAP1 PUSH2 0x2434 JUMP JUMPDEST DUP6 PUSH2 0x763 JUMP JUMPDEST PUSH1 0x0 SWAP5 SWAP6 SWAP7 SWAP8 SWAP9 SWAP10 SWAP11 POP PUSH1 0x40 MLOAD SWAP4 DUP5 SWAP3 PUSH4 0xA9059CBB PUSH1 0xE0 SHL DUP5 MSTORE PUSH1 0x4 DUP5 ADD MSTORE DUP11 DUP4 ADD MSTORE DUP2 PUSH1 0x44 SWAP6 DUP7 SWAP3 PUSH32 0x0 AND GAS CALL SWAP1 DUP2 ISZERO PUSH2 0x8D4 JUMPI PUSH1 0x0 SWAP2 PUSH2 0x8A7 JUMPI JUMPDEST POP ISZERO PUSH2 0x876 JUMPI POP PUSH1 0x0 DUP1 DUP3 SSTORE SWAP1 DUP12 ADD SSTORE DUP10 SWAP5 SWAP4 SWAP3 SWAP2 SWAP1 PUSH2 0x7F2 DUP13 DUP10 DUP2 DUP1 PUSH2 0x7E4 JUMP JUMPDEST DUP9 PUSH13 0x1499599D5B990819985A5B1959 PUSH1 0x9A SHL PUSH1 0x64 SWAP3 DUP10 DUP10 PUSH1 0x40 MLOAD SWAP5 PUSH3 0x461BCD PUSH1 0xE5 SHL DUP7 MSTORE PUSH1 0x4 DUP7 ADD MSTORE DUP5 ADD MSTORE DUP3 ADD MSTORE REVERT JUMPDEST PUSH2 0x8C7 SWAP2 POP DUP11 RETURNDATASIZE DUP13 GT PUSH2 0x8CD JUMPI JUMPDEST PUSH2 0x8BF DUP2 DUP4 PUSH2 0x2006 JUMP JUMPDEST DUP2 ADD SWAP1 PUSH2 0x263D JUMP JUMPDEST DUP14 PUSH2 0x854 JUMP JUMPDEST POP RETURNDATASIZE PUSH2 0x8B5 JUMP JUMPDEST PUSH1 0x40 MLOAD RETURNDATASIZE PUSH1 0x0 DUP3 RETURNDATACOPY RETURNDATASIZE SWAP1 REVERT JUMPDEST PUSH2 0x768 JUMP JUMPDEST POP PUSH1 0x7 DUP6 ADD SLOAD ISZERO ISZERO PUSH2 0x70B JUMP JUMPDEST DUP4 PUSH4 0x4E487B71 PUSH1 0xE0 SHL PUSH1 0x0 MSTORE PUSH1 0x21 PUSH1 0x4 MSTORE PUSH1 0x0 REVERT JUMPDEST POP PUSH1 0x3 SLOAD DUP3 GT ISZERO PUSH2 0x6B1 JUMP JUMPDEST CALLVALUE PUSH2 0x199 JUMPI PUSH1 0x0 CALLDATASIZE PUSH1 0x3 NOT ADD SLT PUSH2 0x199 JUMPI PUSH1 0x20 PUSH1 0x40 MLOAD PUSH32 0xA49807205CE4D355092EF5A8A18F56E8913CF4A201FBE287825B095693C21775 DUP2 MSTORE RETURN JUMPDEST CALLVALUE PUSH2 0x199 JUMPI PUSH1 0x20 DUP1 PUSH1 0x3 NOT CALLDATASIZE ADD SLT PUSH2 0x199 JUMPI PUSH1 0x4 CALLDATALOAD SWAP1 DUP2 ISZERO ISZERO DUP1 PUSH2 0xB56 JUMPI JUMPDEST PUSH2 0x976 SWAP1 PUSH2 0x2567 JUMP JUMPDEST PUSH2 0x97E PUSH2 0x2673 JUMP JUMPDEST DUP2 PUSH1 0x0 MSTORE PUSH1 0x5 DUP2 MSTORE PUSH1 0x40 PUSH1 0x0 KECCAK256 PUSH1 0xD DUP2 ADD SWAP1 DUP2 SLOAD SWAP1 PUSH1 0xFF DUP3 AND PUSH1 0x6 DUP2 LT ISZERO PUSH2 0x229 JUMPI PUSH1 0x3 SUB PUSH2 0xB1A JUMPI PUSH1 0xFF DUP3 PUSH1 0x8 SHR AND PUSH2 0xADD JUMPI PUSH1 0x7 DUP2 ADD SLOAD PUSH1 0xE SWAP2 SWAP1 SWAP2 ADD DUP2 SWAP1 SSTORE PUSH2 0xFFFF NOT SWAP1 SWAP2 AND PUSH2 0x105 OR SWAP1 SWAP2 SSTORE PUSH1 0x40 MLOAD PUSH4 0xA9059CBB PUSH1 0xE0 SHL DUP2 MSTORE PUSH2 0xDEAD PUSH1 0x4 DUP3 ADD MSTORE PUSH1 0x24 DUP2 ADD DUP3 SWAP1 MSTORE DUP3 DUP2 PUSH1 0x44 DUP2 PUSH1 0x0 PUSH32 0x0 PUSH1 0x1 PUSH1 0x1 PUSH1 0xA0 SHL SUB AND GAS CALL SWAP1 DUP2 ISZERO PUSH2 0x8D4 JUMPI PUSH1 0x0 SWAP2 PUSH2 0xAC0 JUMPI JUMPDEST POP ISZERO PUSH2 0xA8D JUMPI SWAP1 DUP3 PUSH32 0x8BC81353CF6671D259D22783E39ED930583C86F3F4CF7E981298E6A872DFB15D DUP3 PUSH32 0x7E5E6BFCAB605D9254DBB5C3B4C8BD65EE4705BB30B1FC434D9651D24D368F36 SWAP5 PUSH1 0x40 MLOAD SWAP1 DUP2 MSTORE LOG2 PUSH1 0x40 MLOAD PUSH1 0x5 DUP2 MSTORE LOG2 PUSH1 0x1 DUP1 SSTORE STOP JUMPDEST PUSH1 0x40 MLOAD PUSH3 0x461BCD PUSH1 0xE5 SHL DUP2 MSTORE PUSH1 0x4 DUP2 ADD DUP4 SWAP1 MSTORE PUSH1 0xB PUSH1 0x24 DUP3 ADD MSTORE PUSH11 0x109D5C9B8819985A5B1959 PUSH1 0xAA SHL PUSH1 0x44 DUP3 ADD MSTORE PUSH1 0x64 SWAP1 REVERT JUMPDEST PUSH2 0xAD7 SWAP2 POP DUP4 RETURNDATASIZE DUP6 GT PUSH2 0x8CD JUMPI PUSH2 0x8BF DUP2 DUP4 PUSH2 0x2006 JUMP JUMPDEST DUP5 PUSH2 0xA2C JUMP JUMPDEST PUSH1 0x40 MLOAD PUSH3 0x461BCD PUSH1 0xE5 SHL DUP2 MSTORE PUSH1 0x4 DUP2 ADD DUP6 SWAP1 MSTORE PUSH1 0x15 PUSH1 0x24 DUP3 ADD MSTORE PUSH21 0x151BDAD95B9CC8185B1C9958591E48189D5C9B9959 PUSH1 0x5A SHL PUSH1 0x44 DUP3 ADD MSTORE PUSH1 0x64 SWAP1 REVERT JUMPDEST PUSH1 0x40 MLOAD PUSH3 0x461BCD PUSH1 0xE5 SHL DUP2 MSTORE PUSH1 0x4 DUP2 ADD DUP6 SWAP1 MSTORE PUSH1 0x14 PUSH1 0x24 DUP3 ADD MSTORE PUSH20 0x15DA5B9B995C9CC81B9BDD081CD95B1958DD1959 PUSH1 0x62 SHL PUSH1 0x44 DUP3 ADD MSTORE PUSH1 0x64 SWAP1 REVERT JUMPDEST POP PUSH1 0x3 SLOAD DUP3 GT ISZERO PUSH2 0x96D JUMP JUMPDEST CALLVALUE PUSH2 0x199 JUMPI PUSH1 0x0 CALLDATASIZE PUSH1 0x3 NOT ADD SLT PUSH2 0x199 JUMPI PUSH1 0x20 PUSH1 0xFF PUSH1 0x2 SLOAD AND PUSH1 0x40 MLOAD SWAP1 ISZERO ISZERO DUP2 MSTORE RETURN JUMPDEST CALLVALUE PUSH2 0x199 JUMPI PUSH1 0x20 CALLDATASIZE PUSH1 0x3 NOT ADD SLT PUSH2 0x199 JUMPI PUSH1 0x0 PUSH2 0x200 PUSH1 0x40 MLOAD PUSH2 0xBA7 DUP2 PUSH2 0x1FE9 JUMP JUMPDEST DUP3 DUP2 MSTORE PUSH1 0x60 PUSH1 0x20 DUP3 ADD MSTORE PUSH1 0x60 PUSH1 0x40 DUP3 ADD MSTORE PUSH1 0x60 DUP1 DUP3 ADD MSTORE DUP3 PUSH1 0x80 DUP3 ADD MSTORE DUP3 PUSH1 0xA0 DUP3 ADD MSTORE DUP3 PUSH1 0xC0 DUP3 ADD MSTORE DUP3 PUSH1 0xE0 DUP3 ADD MSTORE DUP3 PUSH2 0x100 DUP3 ADD MSTORE DUP3 PUSH2 0x120 DUP3 ADD MSTORE DUP3 PUSH2 0x140 DUP3 ADD MSTORE PUSH1 0x60 PUSH2 0x160 DUP3 ADD MSTORE PUSH1 0x60 PUSH2 0x180 DUP3 ADD MSTORE DUP3 PUSH2 0x1A0 DUP3 ADD MSTORE DUP3 PUSH2 0x1C0 DUP3 ADD MSTORE DUP3 PUSH2 0x1E0 DUP3 ADD MSTORE ADD MSTORE PUSH1 0x4 CALLDATALOAD DUP1 ISZERO ISZERO DUP1 PUSH2 0xEE2 JUMPI JUMPDEST PUSH2 0xC27 SWAP1 PUSH2 0x2567 JUMP JUMPDEST PUSH1 0x0 MSTORE PUSH1 0x5 PUSH1 0x20 MSTORE PUSH1 0x40 PUSH1 0x0 KECCAK256 PUSH1 0x40 MLOAD SWAP1 PUSH2 0xC41 DUP3 PUSH2 0x1FE9 JUMP JUMPDEST DUP1 SLOAD DUP3 MSTORE PUSH2 0xC51 PUSH1 0x1 DUP3 ADD PUSH2 0x20D1 JUMP JUMPDEST PUSH1 0x20 DUP4 ADD MSTORE PUSH2 0xC62 PUSH1 0x2 DUP3 ADD PUSH2 0x20D1 JUMP JUMPDEST PUSH1 0x40 DUP4 ADD MSTORE PUSH2 0xC73 PUSH1 0x3 DUP3 ADD PUSH2 0x20D1 JUMP JUMPDEST PUSH1 0x60 DUP4 ADD MSTORE PUSH1 0x4 DUP2 ADD SLOAD PUSH1 0x80 DUP4 ADD MSTORE PUSH1 0x5 DUP2 ADD SLOAD PUSH1 0xA0 DUP4 ADD MSTORE PUSH1 0x6 DUP2 ADD SLOAD PUSH1 0xC0 DUP4 ADD MSTORE PUSH1 0x7 DUP2 ADD SLOAD PUSH1 0xE0 DUP4 ADD MSTORE PUSH1 0x8 DUP2 ADD SLOAD PUSH2 0x100 DUP4 ADD MSTORE PUSH1 0x9 DUP2 ADD SLOAD PUSH2 0x120 DUP4 ADD MSTORE PUSH1 0xA DUP2 ADD SLOAD PUSH2 0x140 DUP4 ADD MSTORE PUSH1 0xB DUP2 ADD SLOAD PUSH2 0xCCF DUP2 PUSH2 0x207F JUMP JUMPDEST SWAP1 PUSH2 0xCDD PUSH1 0x40 MLOAD SWAP3 DUP4 PUSH2 0x2006 JUMP JUMPDEST DUP1 DUP3 MSTORE PUSH1 0x20 DUP3 ADD PUSH1 0xB DUP5 ADD PUSH1 0x0 MSTORE PUSH1 0x20 PUSH1 0x0 KECCAK256 PUSH1 0x0 SWAP2 JUMPDEST DUP4 DUP4 LT PUSH2 0xEC5 JUMPI POP POP POP POP PUSH2 0x160 DUP4 ADD MSTORE PUSH1 0x40 MLOAD PUSH2 0xD19 DUP2 PUSH2 0x651 DUP2 PUSH1 0xC DUP7 ADD PUSH2 0x2696 JUMP JUMPDEST PUSH2 0x180 DUP4 ADD MSTORE PUSH1 0xD DUP2 ADD SLOAD SWAP1 PUSH1 0x6 PUSH1 0xFF DUP4 AND LT ISZERO PUSH2 0x229 JUMPI PUSH1 0xFF DUP3 DUP2 PUSH1 0xF SWAP5 AND PUSH2 0x1A0 DUP7 ADD MSTORE PUSH1 0x8 SHR AND ISZERO ISZERO PUSH2 0x1C0 DUP5 ADD MSTORE PUSH1 0xE DUP2 ADD SLOAD PUSH2 0x1E0 DUP5 ADD MSTORE ADD SLOAD PUSH2 0x200 DUP3 ADD MSTORE PUSH1 0x40 MLOAD PUSH1 0x20 DUP2 MSTORE DUP2 MLOAD PUSH1 0x20 DUP3 ADD MSTORE PUSH2 0xDB9 PUSH2 0xDA3 PUSH2 0xD8D PUSH1 0x20 DUP6 ADD MLOAD PUSH2 0x220 PUSH1 0x40 DUP7 ADD MSTORE PUSH2 0x240 DUP6 ADD SWAP1 PUSH2 0x2177 JUMP JUMPDEST PUSH1 0x40 DUP6 ADD MLOAD DUP5 DUP3 SUB PUSH1 0x1F NOT ADD PUSH1 0x60 DUP7 ADD MSTORE PUSH2 0x2177 JUMP JUMPDEST PUSH1 0x60 DUP5 ADD MLOAD DUP4 DUP3 SUB PUSH1 0x1F NOT ADD PUSH1 0x80 DUP6 ADD MSTORE PUSH2 0x2177 JUMP JUMPDEST SWAP2 PUSH1 0x80 DUP2 ADD MLOAD PUSH1 0xA0 DUP4 ADD MSTORE PUSH1 0xA0 DUP2 ADD MLOAD PUSH1 0xC0 DUP4 ADD MSTORE PUSH1 0xC0 DUP2 ADD MLOAD PUSH1 0xE0 DUP4 ADD MSTORE PUSH1 0xE0 DUP2 ADD MLOAD PUSH2 0x100 DUP4 ADD MSTORE PUSH2 0x100 DUP2 ADD MLOAD PUSH2 0x120 DUP4 ADD MSTORE PUSH2 0x120 DUP2 ADD MLOAD PUSH2 0x140 DUP4 ADD MSTORE PUSH2 0x140 DUP2 ADD MLOAD PUSH2 0x160 DUP4 ADD MSTORE PUSH2 0x160 DUP2 ADD MLOAD SWAP3 PUSH1 0x1F NOT DUP4 DUP3 SUB ADD PUSH2 0x180 DUP5 ADD MSTORE DUP4 MLOAD DUP1 DUP3 MSTORE PUSH1 0x20 DUP3 ADD SWAP2 PUSH1 0x20 DUP1 DUP4 PUSH1 0x5 SHL DUP4 ADD ADD SWAP7 ADD SWAP3 PUSH1 0x0 SWAP2 JUMPDEST DUP4 DUP4 LT PUSH2 0xE98 JUMPI DUP7 DUP1 DUP8 PUSH2 0x200 PUSH2 0xE5F DUP13 PUSH2 0x180 DUP5 ADD MLOAD PUSH1 0x1F NOT DUP7 DUP4 SUB ADD PUSH2 0x1A0 DUP8 ADD MSTORE PUSH2 0x2208 JUMP JUMPDEST SWAP2 PUSH2 0xE74 PUSH2 0x1A0 DUP3 ADD MLOAD PUSH2 0x1C0 DUP7 ADD SWAP1 PUSH2 0x21B7 JUMP JUMPDEST PUSH2 0x1C0 DUP2 ADD MLOAD ISZERO ISZERO PUSH2 0x1E0 DUP6 ADD MSTORE PUSH2 0x1E0 DUP2 ADD MLOAD DUP3 DUP6 ADD MSTORE ADD MLOAD PUSH2 0x220 DUP4 ADD MSTORE SUB SWAP1 RETURN JUMPDEST SWAP1 SWAP2 SWAP3 SWAP4 SWAP7 PUSH1 0x20 DUP1 PUSH2 0xEB6 PUSH1 0x1 SWAP4 PUSH1 0x1F NOT DUP7 DUP3 SUB ADD DUP8 MSTORE DUP12 MLOAD PUSH2 0x2177 JUMP JUMPDEST SWAP10 ADD SWAP4 ADD SWAP4 ADD SWAP2 SWAP4 SWAP3 SWAP1 PUSH2 0xE36 JUMP JUMPDEST PUSH1 0x1 PUSH1 0x20 DUP2 SWAP3 PUSH2 0xED4 DUP6 PUSH2 0x20D1 JUMP JUMPDEST DUP2 MSTORE ADD SWAP3 ADD SWAP3 ADD SWAP2 SWAP1 PUSH2 0xCF4 JUMP JUMPDEST POP PUSH1 0x3 SLOAD DUP2 GT ISZERO PUSH2 0xC1E JUMP JUMPDEST CALLVALUE PUSH2 0x199 JUMPI PUSH1 0x0 CALLDATASIZE PUSH1 0x3 NOT ADD SLT PUSH2 0x199 JUMPI PUSH2 0xF07 PUSH2 0x2245 JUMP JUMPDEST PUSH2 0xF0F PUSH2 0x2655 JUMP JUMPDEST PUSH1 0x1 PUSH1 0xFF NOT PUSH1 0x2 SLOAD AND OR PUSH1 0x2 SSTORE PUSH32 0x62E78CEA01BEE320CD4E420270B5EA74000D11B0C9F74754EBDBFC544B05A258 PUSH1 0x20 PUSH1 0x40 MLOAD CALLER DUP2 MSTORE LOG1 STOP JUMPDEST CALLVALUE PUSH2 0x199 JUMPI PUSH1 0x0 CALLDATASIZE PUSH1 0x3 NOT ADD SLT PUSH2 0x199 JUMPI PUSH1 0x40 MLOAD PUSH32 0x0 PUSH1 0x1 PUSH1 0x1 PUSH1 0xA0 SHL SUB AND DUP2 MSTORE PUSH1 0x20 SWAP1 RETURN JUMPDEST CALLVALUE PUSH2 0x199 JUMPI PUSH1 0x0 CALLDATASIZE PUSH1 0x3 NOT ADD SLT PUSH2 0x199 JUMPI PUSH2 0xFA6 PUSH2 0x2245 JUMP JUMPDEST PUSH1 0x2 SLOAD PUSH1 0xFF DUP2 AND ISZERO PUSH2 0xFE5 JUMPI PUSH1 0xFF NOT AND PUSH1 0x2 SSTORE PUSH32 0x5DB9EE0A495BF2E6FF9C91A7834C1BA4FDD244A5E8AA4E537BD38AEAE4B073AA PUSH1 0x20 PUSH1 0x40 MLOAD CALLER DUP2 MSTORE LOG1 STOP JUMPDEST PUSH1 0x40 MLOAD PUSH4 0x8DFC202B PUSH1 0xE0 SHL DUP2 MSTORE PUSH1 0x4 SWAP1 REVERT JUMPDEST CALLVALUE PUSH2 0x199 JUMPI PUSH2 0x1005 CALLDATASIZE PUSH2 0x21C4 JUMP JUMPDEST SWAP1 PUSH2 0x100E PUSH2 0x2673 JUMP JUMPDEST PUSH2 0x1016 PUSH2 0x2655 JUMP JUMPDEST DUP1 ISZERO ISZERO DUP1 PUSH2 0x12E9 JUMPI JUMPDEST PUSH2 0x1028 SWAP1 PUSH2 0x2567 JUMP JUMPDEST DUP1 PUSH1 0x0 MSTORE PUSH1 0x20 PUSH1 0x5 DUP2 MSTORE PUSH1 0x40 PUSH1 0x0 KECCAK256 SWAP1 PUSH1 0xFF PUSH1 0xD DUP4 ADD SLOAD AND PUSH1 0x6 DUP2 LT ISZERO PUSH2 0x229 JUMPI PUSH1 0x1 PUSH2 0x1055 SWAP2 EQ PUSH2 0x25B3 JUMP JUMPDEST PUSH1 0x8 DUP3 ADD SLOAD TIMESTAMP LT ISZERO DUP1 PUSH2 0x12DB JUMPI JUMPDEST ISZERO PUSH2 0x1297 JUMPI PUSH1 0x6 DUP3 ADD DUP1 SLOAD DUP6 LT PUSH2 0x125B JUMPI PUSH1 0x7 DUP4 ADD SWAP1 PUSH2 0x1084 DUP7 DUP4 SLOAD PUSH2 0x25F5 JUMP JUMPDEST PUSH1 0x5 DUP6 ADD SLOAD LT PUSH2 0x1223 JUMPI DUP5 PUSH1 0x0 MSTORE PUSH1 0x6 DUP4 MSTORE PUSH1 0x40 PUSH1 0x0 KECCAK256 CALLER PUSH1 0x0 MSTORE DUP4 MSTORE PUSH1 0x40 PUSH1 0x0 KECCAK256 SWAP4 DUP5 SLOAD ISZERO PUSH2 0x11F1 JUMPI JUMPDEST POP SLOAD DUP1 ISZERO PUSH2 0x11DB JUMPI PUSH1 0x1 SWAP1 DUP7 DIV SWAP4 PUSH2 0x10C8 DUP8 DUP3 SLOAD PUSH2 0x25F5 JUMP JUMPDEST DUP2 SSTORE ADD PUSH2 0x10D6 DUP5 DUP3 SLOAD PUSH2 0x25F5 JUMP JUMPDEST SWAP1 SSTORE PUSH2 0x10E3 DUP6 DUP3 SLOAD PUSH2 0x25F5 JUMP JUMPDEST SWAP1 SSTORE PUSH1 0x40 MLOAD PUSH4 0x23B872DD PUSH1 0xE0 SHL DUP2 MSTORE CALLER PUSH1 0x4 DUP3 ADD MSTORE ADDRESS PUSH1 0x24 DUP3 ADD MSTORE PUSH1 0x44 DUP2 ADD DUP6 SWAP1 MSTORE DUP2 DUP2 PUSH1 0x64 DUP2 PUSH1 0x0 PUSH32 0x0 PUSH1 0x1 PUSH1 0x1 PUSH1 0xA0 SHL SUB AND GAS CALL SWAP1 DUP2 ISZERO PUSH2 0x8D4 JUMPI PUSH1 0x0 SWAP2 PUSH2 0x11BE JUMPI JUMPDEST POP ISZERO PUSH2 0x1182 JUMPI PUSH1 0x40 MLOAD SWAP4 DUP5 MSTORE DUP4 ADD MSTORE PUSH32 0xBF3A2998BF95EFFB9622E3AEEA768EC248F238862FD602100075C04D21CAA23C PUSH1 0x40 CALLER SWAP4 LOG3 PUSH1 0x1 DUP1 SSTORE STOP JUMPDEST PUSH1 0x64 SWAP1 PUSH1 0x40 MLOAD SWAP1 PUSH3 0x461BCD PUSH1 0xE5 SHL DUP3 MSTORE PUSH1 0x4 DUP3 ADD MSTORE PUSH1 0x15 PUSH1 0x24 DUP3 ADD MSTORE PUSH21 0x151BDAD95B881D1C985B9CD9995C8819985A5B1959 PUSH1 0x5A SHL PUSH1 0x44 DUP3 ADD MSTORE REVERT JUMPDEST PUSH2 0x11D5 SWAP2 POP DUP3 RETURNDATASIZE DUP5 GT PUSH2 0x8CD JUMPI PUSH2 0x8BF DUP2 DUP4 PUSH2 0x2006 JUMP JUMPDEST DUP6 PUSH2 0x1147 JUMP JUMPDEST PUSH4 0x4E487B71 PUSH1 0xE0 SHL PUSH1 0x0 MSTORE PUSH1 0x12 PUSH1 0x4 MSTORE PUSH1 0x24 PUSH1 0x0 REVERT JUMPDEST PUSH1 0xA SWAP1 DUP7 PUSH1 0x0 MSTORE PUSH1 0x7 DUP6 MSTORE PUSH2 0x120A CALLER PUSH1 0x40 PUSH1 0x0 KECCAK256 PUSH2 0x2602 JUMP JUMPDEST ADD PUSH2 0x1215 DUP2 SLOAD PUSH2 0x2434 JUMP JUMPDEST SWAP1 SSTORE TIMESTAMP PUSH1 0x3 DUP6 ADD SSTORE DUP7 PUSH2 0x10AF JUMP JUMPDEST PUSH1 0x40 MLOAD PUSH3 0x461BCD PUSH1 0xE5 SHL DUP2 MSTORE PUSH1 0x4 DUP2 ADD DUP5 SWAP1 MSTORE PUSH1 0x10 PUSH1 0x24 DUP3 ADD MSTORE PUSH16 0x4578636565647320686172642063617 PUSH1 0x84 SHL PUSH1 0x44 DUP3 ADD MSTORE PUSH1 0x64 SWAP1 REVERT JUMPDEST PUSH1 0x40 MLOAD PUSH3 0x461BCD PUSH1 0xE5 SHL DUP2 MSTORE PUSH1 0x4 DUP2 ADD DUP4 SWAP1 MSTORE PUSH1 0x14 PUSH1 0x24 DUP3 ADD MSTORE PUSH20 0x416D6F756E742062656C6F77206D696E696D756D PUSH1 0x60 SHL PUSH1 0x44 DUP3 ADD MSTORE PUSH1 0x64 SWAP1 REVERT JUMPDEST PUSH1 0x64 SWAP1 PUSH1 0x40 MLOAD SWAP1 PUSH3 0x461BCD PUSH1 0xE5 SHL DUP3 MSTORE PUSH1 0x4 DUP3 ADD MSTORE PUSH1 0x18 PUSH1 0x24 DUP3 ADD MSTORE PUSH32 0x43616D706169676E206E6F7420696E2070726F67726573730000000000000000 PUSH1 0x44 DUP3 ADD MSTORE REVERT JUMPDEST POP PUSH1 0x9 DUP3 ADD SLOAD TIMESTAMP GT ISZERO PUSH2 0x1063 JUMP JUMPDEST POP PUSH1 0x3 SLOAD DUP2 GT ISZERO PUSH2 0x101F JUMP JUMPDEST CALLVALUE PUSH2 0x199 JUMPI PUSH1 0x20 CALLDATASIZE PUSH1 0x3 NOT ADD SLT PUSH2 0x199 JUMPI PUSH1 0x4 CALLDATALOAD ISZERO ISZERO DUP1 PUSH2 0x1724 JUMPI JUMPDEST PUSH2 0x131A SWAP1 PUSH2 0x2567 JUMP JUMPDEST PUSH2 0x1322 PUSH2 0x2673 JUMP JUMPDEST PUSH1 0x4 CALLDATALOAD PUSH1 0x0 MSTORE PUSH1 0x5 PUSH1 0x20 MSTORE PUSH1 0x40 PUSH1 0x0 KECCAK256 PUSH1 0xFF PUSH1 0xD DUP3 ADD SLOAD AND PUSH1 0x6 DUP2 LT ISZERO PUSH2 0x229 JUMPI PUSH1 0x1 PUSH2 0x134F SWAP2 EQ PUSH2 0x25B3 JUMP JUMPDEST PUSH1 0x9 DUP2 ADD SLOAD TIMESTAMP GT ISZERO PUSH2 0x16E7 JUMPI PUSH1 0x7 DUP2 ADD SLOAD PUSH1 0x4 DUP3 ADD SLOAD DUP2 LT PUSH2 0x16AB JUMPI PUSH1 0x4 CALLDATALOAD PUSH1 0x0 MSTORE PUSH1 0x7 PUSH1 0x20 MSTORE PUSH2 0x651 PUSH2 0x138D PUSH1 0x40 PUSH1 0x0 KECCAK256 PUSH1 0x40 MLOAD SWAP3 DUP4 DUP1 SWAP3 PUSH2 0x2696 JUMP JUMPDEST PUSH2 0x1397 DUP2 MLOAD PUSH2 0x26DC JUMP JUMPDEST PUSH1 0x0 SWAP1 PUSH1 0x0 JUMPDEST DUP4 MLOAD DUP2 LT ISZERO PUSH2 0x141F JUMPI PUSH1 0x4 CALLDATALOAD PUSH1 0x0 SWAP1 DUP2 MSTORE PUSH1 0x6 PUSH1 0x20 MSTORE PUSH1 0x40 SWAP1 KECCAK256 PUSH1 0x1 PUSH1 0x1 PUSH1 0xA0 SHL SUB SWAP1 DUP2 PUSH2 0x13CB DUP5 DUP9 PUSH2 0x2553 JUMP JUMPDEST MLOAD AND PUSH1 0x0 MSTORE PUSH1 0x20 MSTORE PUSH1 0xFF PUSH1 0x2 PUSH1 0x40 PUSH1 0x0 KECCAK256 ADD SLOAD AND PUSH2 0x13F3 JUMPI JUMPDEST POP PUSH2 0x13EE SWAP1 PUSH2 0x2434 JUMP JUMPDEST PUSH2 0x139D JUMP JUMPDEST DUP2 SWAP4 PUSH2 0x1418 SWAP2 PUSH2 0x1406 PUSH2 0x13EE SWAP5 DUP9 PUSH2 0x2553 JUMP JUMPDEST MLOAD AND PUSH2 0x1412 DUP3 DUP7 PUSH2 0x2553 JUMP JUMPDEST MSTORE PUSH2 0x2434 JUMP JUMPDEST SWAP3 SWAP1 PUSH2 0x13E4 JUMP JUMPDEST POP SWAP3 SWAP2 POP PUSH2 0x142C DUP2 PUSH2 0x26DC JUMP JUMPDEST SWAP3 PUSH1 0x0 JUMPDEST DUP3 DUP2 LT PUSH2 0x1684 JUMPI POP POP POP DUP2 SWAP1 DUP3 MLOAD ISZERO PUSH2 0x163F JUMPI PUSH1 0xB DUP5 ADD SLOAD SWAP3 MLOAD DUP1 DUP5 GT PUSH2 0x1637 JUMPI JUMPDEST POP PUSH1 0x4 SLOAD PUSH2 0x145F DUP2 PUSH2 0x2434 JUMP JUMPDEST PUSH1 0x4 SSTORE PUSH1 0x40 MLOAD SWAP1 PUSH1 0x20 DUP3 ADD SWAP3 TIMESTAMP DUP5 MSTORE PREVRANDAO PUSH1 0x40 DUP5 ADD MSTORE NUMBER PUSH1 0x60 DUP5 ADD MSTORE PUSH1 0x4 CALLDATALOAD PUSH1 0x80 DUP5 ADD MSTORE PUSH1 0xA0 DUP4 ADD MSTORE PUSH1 0xC0 DUP3 ADD MSTORE PUSH1 0xC0 DUP2 MSTORE PUSH1 0xE0 DUP2 ADD DUP2 DUP2 LT PUSH8 0xFFFFFFFFFFFFFFFF DUP3 GT OR PUSH2 0x1621 JUMPI PUSH1 0x40 MSTORE MLOAD SWAP1 KECCAK256 SWAP2 PUSH1 0x0 SWAP3 JUMPDEST DUP2 DUP5 LT PUSH2 0x154B JUMPI PUSH1 0xD DUP6 ADD DUP1 SLOAD PUSH1 0xFF NOT AND PUSH1 0x3 OR SWAP1 SSTORE NUMBER PUSH1 0xF DUP7 ADD SSTORE PUSH1 0x40 DUP1 MLOAD DUP2 DUP2 MSTORE SWAP1 PUSH32 0xA15551854F54807A0F0DB8E3B861523FD994877676824ED8603655AB18CA6DD8 SWAP1 PUSH2 0x1507 SWAP1 DUP4 ADD PUSH1 0xC DUP10 ADD PUSH2 0x2696 JUMP JUMPDEST SWAP2 NUMBER PUSH1 0x20 DUP3 ADD MSTORE DUP1 PUSH1 0x4 CALLDATALOAD SWAP4 SUB SWAP1 LOG2 PUSH1 0x40 MLOAD PUSH1 0x3 DUP2 MSTORE PUSH32 0x7E5E6BFCAB605D9254DBB5C3B4C8BD65EE4705BB30B1FC434D9651D24D368F36 PUSH1 0x20 PUSH1 0x4 CALLDATALOAD SWAP3 LOG2 PUSH1 0x1 DUP1 SSTORE STOP JUMPDEST PUSH2 0x1561 PUSH2 0x1558 DUP6 DUP4 PUSH2 0x25F5 JUMP JUMPDEST DUP5 PUSH1 0x4 CALLDATALOAD PUSH2 0x270E JUMP JUMPDEST SWAP1 PUSH2 0x156F DUP3 PUSH1 0xC DUP9 ADD PUSH2 0x2602 JUMP JUMPDEST DUP4 MLOAD PUSH1 0x0 NOT DUP2 ADD SWAP1 DUP2 GT PUSH2 0x160B JUMPI PUSH2 0x1586 SWAP1 PUSH2 0x26DC JUMP JUMPDEST SWAP6 PUSH1 0x0 SWAP4 PUSH1 0x0 JUMPDEST DUP7 MLOAD DUP2 LT ISZERO PUSH2 0x15F1 JUMPI PUSH1 0x1 PUSH1 0x1 PUSH1 0xA0 SHL SUB DUP6 DUP2 AND SWAP1 PUSH2 0x15AC DUP4 DUP11 PUSH2 0x2553 JUMP JUMPDEST MLOAD AND SUB PUSH2 0x15C2 JUMPI JUMPDEST PUSH2 0x15BD SWAP1 PUSH2 0x2434 JUMP JUMPDEST PUSH2 0x158D JUMP JUMPDEST SWAP5 PUSH2 0x15BD SWAP1 PUSH2 0x15E9 SWAP1 PUSH1 0x1 PUSH1 0x1 PUSH1 0xA0 SHL SUB PUSH2 0x15DD DUP10 DUP12 PUSH2 0x2553 JUMP JUMPDEST MLOAD AND PUSH2 0x1412 DUP3 DUP14 PUSH2 0x2553 JUMP JUMPDEST SWAP6 SWAP1 POP PUSH2 0x15B4 JUMP JUMPDEST POP SWAP6 SWAP5 POP SWAP6 SWAP1 SWAP3 POP PUSH2 0x1604 SWAP2 POP SWAP3 PUSH2 0x2434 JUMP JUMPDEST SWAP3 SWAP1 PUSH2 0x14B2 JUMP JUMPDEST PUSH4 0x4E487B71 PUSH1 0xE0 SHL PUSH1 0x0 MSTORE PUSH1 0x11 PUSH1 0x4 MSTORE PUSH1 0x24 PUSH1 0x0 REVERT JUMPDEST PUSH4 0x4E487B71 PUSH1 0xE0 SHL PUSH1 0x0 MSTORE PUSH1 0x41 PUSH1 0x4 MSTORE PUSH1 0x24 PUSH1 0x0 REVERT JUMPDEST SWAP3 POP DUP5 PUSH2 0x1452 JUMP JUMPDEST PUSH1 0x40 MLOAD PUSH3 0x461BCD PUSH1 0xE5 SHL DUP2 MSTORE PUSH1 0x20 PUSH1 0x4 DUP3 ADD MSTORE PUSH1 0x18 PUSH1 0x24 DUP3 ADD MSTORE PUSH32 0x4E6F20656C696769626C65207061727469636970616E74730000000000000000 PUSH1 0x44 DUP3 ADD MSTORE PUSH1 0x64 SWAP1 REVERT JUMPDEST PUSH2 0x16A6 SWAP1 PUSH1 0x1 PUSH1 0x1 PUSH1 0xA0 SHL SUB PUSH2 0x169A DUP3 DUP6 PUSH2 0x2553 JUMP JUMPDEST MLOAD AND PUSH2 0x1412 DUP3 DUP9 PUSH2 0x2553 JUMP JUMPDEST PUSH2 0x1430 JUMP JUMPDEST PUSH1 0x40 MLOAD PUSH3 0x461BCD PUSH1 0xE5 SHL DUP2 MSTORE PUSH1 0x20 PUSH1 0x4 DUP3 ADD MSTORE PUSH1 0x14 PUSH1 0x24 DUP3 ADD MSTORE PUSH20 0x14DBD99D0818D85C081B9BDD081C995858DA1959 PUSH1 0x62 SHL PUSH1 0x44 DUP3 ADD MSTORE PUSH1 0x64 SWAP1 REVERT JUMPDEST PUSH1 0x40 MLOAD PUSH3 0x461BCD PUSH1 0xE5 SHL DUP2 MSTORE PUSH1 0x20 PUSH1 0x4 DUP3 ADD MSTORE PUSH1 0x15 PUSH1 0x24 DUP3 ADD MSTORE PUSH21 0x43616D706169676E207374696C6C20616374697665 PUSH1 0x58 SHL PUSH1 0x44 DUP3 ADD MSTORE PUSH1 0x64 SWAP1 REVERT JUMPDEST POP PUSH1 0x3 SLOAD PUSH1 0x4 CALLDATALOAD GT ISZERO PUSH2 0x1311 JUMP JUMPDEST CALLVALUE PUSH2 0x199 JUMPI PUSH1 0x40 CALLDATASIZE PUSH1 0x3 NOT ADD SLT PUSH2 0x199 JUMPI PUSH2 0x174B PUSH2 0x1FB7 JUMP JUMPDEST CALLER PUSH1 0x1 PUSH1 0x1 PUSH1 0xA0 SHL SUB DUP3 AND SUB PUSH2 0x1767 JUMPI PUSH2 0x28A SWAP1 PUSH1 0x4 CALLDATALOAD PUSH2 0x23BF JUMP JUMPDEST PUSH1 0x40 MLOAD PUSH4 0x334BD919 PUSH1 0xE1 SHL DUP2 MSTORE PUSH1 0x4 SWAP1 REVERT JUMPDEST CALLVALUE PUSH2 0x199 JUMPI PUSH1 0x40 CALLDATASIZE PUSH1 0x3 NOT ADD SLT PUSH2 0x199 JUMPI PUSH2 0x1792 PUSH2 0x1FB7 JUMP JUMPDEST PUSH1 0x0 PUSH1 0x60 PUSH1 0x40 MLOAD PUSH2 0x17A2 DUP2 PUSH2 0x1FCD JUMP JUMPDEST DUP3 DUP2 MSTORE DUP3 PUSH1 0x20 DUP3 ADD MSTORE DUP3 PUSH1 0x40 DUP3 ADD MSTORE ADD MSTORE PUSH1 0x4 CALLDATALOAD PUSH1 0x0 MSTORE PUSH1 0x6 PUSH1 0x20 MSTORE PUSH1 0x40 PUSH1 0x0 KECCAK256 SWAP1 PUSH1 0x1 DUP1 PUSH1 0xA0 SHL SUB AND PUSH1 0x0 MSTORE PUSH1 0x20 MSTORE PUSH1 0x80 PUSH1 0x40 PUSH1 0x0 KECCAK256 PUSH1 0x40 MLOAD PUSH2 0x17E5 DUP2 PUSH2 0x1FCD JUMP JUMPDEST DUP2 SLOAD SWAP2 DUP3 DUP3 MSTORE PUSH1 0x1 DUP2 ADD SLOAD PUSH1 0x20 DUP4 ADD SWAP1 DUP2 MSTORE PUSH1 0x60 PUSH1 0x3 PUSH1 0xFF PUSH1 0x2 DUP6 ADD SLOAD AND SWAP4 PUSH1 0x40 DUP7 ADD SWAP5 ISZERO ISZERO DUP6 MSTORE ADD SLOAD SWAP4 ADD SWAP3 DUP4 MSTORE PUSH1 0x40 MLOAD SWAP4 DUP5 MSTORE MLOAD PUSH1 0x20 DUP5 ADD MSTORE MLOAD ISZERO ISZERO PUSH1 0x40 DUP4 ADD MSTORE MLOAD PUSH1 0x60 DUP3 ADD MSTORE RETURN JUMPDEST CALLVALUE PUSH2 0x199 JUMPI PUSH2 0x183E CALLDATASIZE PUSH2 0x21C4 JUMP JUMPDEST SWAP1 PUSH1 0x0 MSTORE PUSH1 0x7 PUSH1 0x20 MSTORE PUSH1 0x40 PUSH1 0x0 KECCAK256 DUP1 SLOAD DUP3 LT ISZERO PUSH2 0x199 JUMPI PUSH1 0x20 SWAP2 PUSH2 0x1861 SWAP2 PUSH2 0x21DA JUMP JUMPDEST SWAP1 SLOAD PUSH1 0x40 MLOAD PUSH1 0x3 SWAP3 SWAP1 SWAP3 SHL SHR PUSH1 0x1 PUSH1 0x1 PUSH1 0xA0 SHL SUB AND DUP2 MSTORE RETURN JUMPDEST CALLVALUE PUSH2 0x199 JUMPI PUSH1 0x40 CALLDATASIZE PUSH1 0x3 NOT ADD SLT PUSH2 0x199 JUMPI PUSH2 0x28A PUSH1 0x4 CALLDATALOAD PUSH2 0x1899 PUSH2 0x1FB7 JUMP JUMPDEST SWAP1 DUP1 PUSH1 0x0 MSTORE PUSH1 0x0 PUSH1 0x20 MSTORE PUSH2 0x18B4 PUSH1 0x1 PUSH1 0x40 PUSH1 0x0 KECCAK256 ADD SLOAD PUSH2 0x231B JUMP JUMPDEST PUSH2 0x2341 JUMP JUMPDEST CALLVALUE PUSH2 0x199 JUMPI PUSH1 0x20 CALLDATASIZE PUSH1 0x3 NOT ADD SLT PUSH2 0x199 JUMPI PUSH1 0x4 CALLDATALOAD PUSH1 0x0 MSTORE PUSH1 0x0 PUSH1 0x20 MSTORE PUSH1 0x20 PUSH1 0x1 PUSH1 0x40 PUSH1 0x0 KECCAK256 ADD SLOAD PUSH1 0x40 MLOAD SWAP1 DUP2 MSTORE RETURN JUMPDEST CALLVALUE PUSH2 0x199 JUMPI PUSH2 0x18F6 CALLDATASIZE PUSH2 0x21C4 JUMP JUMPDEST PUSH2 0x18FE PUSH2 0x2245 JUMP JUMPDEST DUP2 ISZERO ISZERO DUP1 PUSH2 0x1A53 JUMPI JUMPDEST PUSH2 0x1910 SWAP1 PUSH2 0x2567 JUMP JUMPDEST DUP2 PUSH1 0x0 MSTORE PUSH1 0x5 PUSH1 0x20 MSTORE PUSH1 0x40 PUSH1 0x0 KECCAK256 PUSH1 0xFF PUSH1 0xD DUP3 ADD SLOAD AND PUSH1 0x6 DUP2 LT ISZERO PUSH2 0x229 JUMPI PUSH1 0x1 DUP2 EQ SWAP1 DUP2 ISZERO PUSH2 0x1A48 JUMPI JUMPDEST POP ISZERO PUSH2 0x1A03 JUMPI TIMESTAMP DUP3 GT ISZERO PUSH2 0x19BE JUMPI PUSH1 0x9 ADD DUP1 SLOAD DUP1 DUP4 EQ PUSH2 0x1989 JUMPI DUP3 PUSH32 0x70E9F58EEC5AF783627E59F6AF135BECB4BCBD768C33D59E8F30F329CDE15F2E SWAP4 PUSH1 0x40 SWAP4 SSTORE DUP3 MLOAD SWAP2 DUP3 MSTORE PUSH1 0x20 DUP3 ADD MSTORE LOG2 STOP JUMPDEST PUSH1 0x40 MLOAD PUSH3 0x461BCD PUSH1 0xE5 SHL DUP2 MSTORE PUSH1 0x20 PUSH1 0x4 DUP3 ADD MSTORE PUSH1 0xD PUSH1 0x24 DUP3 ADD MSTORE PUSH13 0x53616D6520656E642064617465 PUSH1 0x98 SHL PUSH1 0x44 DUP3 ADD MSTORE PUSH1 0x64 SWAP1 REVERT JUMPDEST PUSH1 0x40 MLOAD PUSH3 0x461BCD PUSH1 0xE5 SHL DUP2 MSTORE PUSH1 0x20 PUSH1 0x4 DUP3 ADD MSTORE PUSH1 0x1A PUSH1 0x24 DUP3 ADD MSTORE PUSH32 0x456E642064617465206D75737420626520696E20667574757265000000000000 PUSH1 0x44 DUP3 ADD MSTORE PUSH1 0x64 SWAP1 REVERT JUMPDEST PUSH1 0x40 MLOAD PUSH3 0x461BCD PUSH1 0xE5 SHL DUP2 MSTORE PUSH1 0x20 PUSH1 0x4 DUP3 ADD MSTORE PUSH1 0x1A PUSH1 0x24 DUP3 ADD MSTORE PUSH32 0x43616D706169676E206E6F74206163746976652F706175736564000000000000 PUSH1 0x44 DUP3 ADD MSTORE PUSH1 0x64 SWAP1 REVERT JUMPDEST PUSH1 0x2 SWAP2 POP EQ DUP5 PUSH2 0x193B JUMP JUMPDEST POP PUSH1 0x3 SLOAD DUP3 GT ISZERO PUSH2 0x1907 JUMP JUMPDEST CALLVALUE PUSH2 0x199 JUMPI PUSH1 0x0 CALLDATASIZE PUSH1 0x3 NOT ADD SLT PUSH2 0x199 JUMPI PUSH1 0x20 PUSH1 0x3 SLOAD PUSH1 0x40 MLOAD SWAP1 DUP2 MSTORE RETURN JUMPDEST CALLVALUE PUSH2 0x199 JUMPI PUSH1 0x20 CALLDATASIZE PUSH1 0x3 NOT ADD SLT PUSH2 0x199 JUMPI PUSH1 0x4 CALLDATALOAD PUSH1 0x0 MSTORE PUSH1 0x5 PUSH1 0x20 MSTORE PUSH1 0x40 PUSH1 0x0 KECCAK256 DUP1 SLOAD PUSH1 0x1 DUP3 ADD PUSH2 0x1AAD SWAP1 PUSH2 0x20D1 JUMP JUMPDEST SWAP2 PUSH2 0x1ABA PUSH1 0x2 DUP3 ADD PUSH2 0x20D1 JUMP JUMPDEST PUSH2 0x1AC6 PUSH1 0x3 DUP4 ADD PUSH2 0x20D1 JUMP JUMPDEST SWAP2 PUSH1 0x4 DUP2 ADD SLOAD SWAP3 PUSH1 0x5 DUP3 ADD SLOAD PUSH1 0x6 DUP4 ADD SLOAD PUSH1 0x7 DUP5 ADD SLOAD PUSH1 0x8 DUP6 ADD SLOAD SWAP1 PUSH1 0x9 DUP7 ADD SLOAD SWAP3 PUSH1 0xA DUP8 ADD SLOAD SWAP5 PUSH1 0xD DUP9 ADD SLOAD SWAP7 PUSH1 0xE DUP10 ADD SLOAD SWAP9 PUSH1 0xF ADD SLOAD SWAP10 PUSH1 0x40 MLOAD SWAP14 DUP15 SWAP14 DUP15 MSTORE DUP14 PUSH2 0x1E0 SWAP1 DUP2 PUSH1 0x20 DUP3 ADD MSTORE ADD PUSH2 0x1B1C SWAP2 PUSH2 0x2177 JUMP JUMPDEST DUP14 DUP2 SUB PUSH1 0x40 DUP16 ADD MSTORE PUSH2 0x1B2D SWAP2 PUSH2 0x2177 JUMP JUMPDEST DUP13 DUP2 SUB PUSH1 0x60 DUP15 ADD MSTORE PUSH2 0x1B3E SWAP2 PUSH2 0x2177 JUMP JUMPDEST SWAP10 PUSH1 0x80 DUP13 ADD MSTORE PUSH1 0xA0 DUP12 ADD MSTORE PUSH1 0xC0 DUP11 ADD MSTORE PUSH1 0xE0 DUP10 ADD MSTORE PUSH2 0x100 DUP9 ADD MSTORE PUSH2 0x120 DUP8 ADD MSTORE PUSH2 0x140 DUP7 ADD MSTORE PUSH2 0x160 DUP6 ADD PUSH1 0xFF DUP3 AND SWAP1 PUSH2 0x1B78 SWAP2 PUSH2 0x21B7 JUMP JUMPDEST PUSH1 0x8 SHR PUSH1 0xFF AND ISZERO ISZERO PUSH2 0x180 DUP6 ADD MSTORE PUSH2 0x1A0 DUP5 ADD MSTORE PUSH2 0x1C0 DUP4 ADD MSTORE SUB SWAP1 RETURN JUMPDEST CALLVALUE PUSH2 0x199 JUMPI PUSH2 0x120 CALLDATASIZE PUSH1 0x3 NOT ADD SLT PUSH2 0x199 JUMPI PUSH8 0xFFFFFFFFFFFFFFFF PUSH1 0x4 CALLDATALOAD DUP2 DUP2 GT PUSH2 0x199 JUMPI PUSH2 0x1BC9 SWAP1 CALLDATASIZE SWAP1 PUSH1 0x4 ADD PUSH2 0x2028 JUMP JUMPDEST SWAP1 PUSH1 0x24 SWAP2 DUP3 CALLDATALOAD DUP3 DUP2 GT PUSH2 0x199 JUMPI PUSH2 0x1BE4 SWAP1 CALLDATASIZE SWAP1 PUSH1 0x4 ADD PUSH2 0x2028 JUMP JUMPDEST PUSH1 0x44 CALLDATALOAD DUP4 DUP2 GT PUSH2 0x199 JUMPI PUSH2 0x1BFC SWAP1 CALLDATASIZE SWAP1 PUSH1 0x4 ADD PUSH2 0x2028 JUMP JUMPDEST PUSH2 0x104 CALLDATALOAD SWAP1 DUP5 DUP3 GT PUSH2 0x199 JUMPI CALLDATASIZE PUSH1 0x23 DUP4 ADD SLT ISZERO PUSH2 0x199 JUMPI DUP2 PUSH1 0x4 ADD CALLDATALOAD SWAP2 PUSH2 0x1C22 DUP4 PUSH2 0x207F JUMP JUMPDEST SWAP3 PUSH2 0x1C30 PUSH1 0x40 MLOAD SWAP5 DUP6 PUSH2 0x2006 JUMP JUMPDEST DUP1 DUP5 MSTORE PUSH1 0x20 SWAP7 DUP9 DUP9 DUP7 ADD SWAP3 PUSH1 0x5 SHL DUP5 ADD ADD SWAP3 CALLDATASIZE DUP5 GT PUSH2 0x199 JUMPI DUP10 DUP2 ADD SWAP3 JUMPDEST DUP5 DUP5 LT PUSH2 0x1ECF JUMPI POP POP POP POP POP PUSH2 0x1C62 PUSH2 0x2245 JUMP JUMPDEST PUSH1 0xC4 CALLDATALOAD TIMESTAMP DUP2 GT ISZERO PUSH2 0x1E96 JUMPI PUSH1 0xE4 CALLDATALOAD SWAP2 DUP2 DUP4 GT ISZERO PUSH2 0x1E5F JUMPI PUSH1 0x64 CALLDATALOAD DUP1 ISZERO ISZERO DUP1 PUSH2 0x1E54 JUMPI JUMPDEST ISZERO PUSH2 0x1E21 JUMPI PUSH1 0xA4 CALLDATALOAD SWAP2 DUP3 ISZERO PUSH2 0x1DE5 JUMPI SWAP3 DUP9 SWAP10 SWAP5 SWAP2 SWAP3 PUSH1 0x5 SWAP10 SWAP4 PUSH2 0x1CE9 DUP11 SWAP9 SWAP7 PUSH2 0x1CE0 PUSH2 0x1CD7 SWAP12 PUSH2 0x1CB6 PUSH1 0x3 SLOAD PUSH2 0x2434 JUMP JUMPDEST SWAP15 DUP16 SWAP10 DUP11 PUSH1 0x3 SSTORE DUP11 PUSH1 0x0 MSTORE MSTORE PUSH1 0x40 PUSH1 0x0 KECCAK256 SWAP9 DUP10 SSTORE PUSH1 0x1 SWAP13 DUP14 SWAP13 DUP14 DUP12 ADD PUSH2 0x2443 JUMP JUMPDEST PUSH1 0x2 DUP10 ADD PUSH2 0x2443 JUMP JUMPDEST PUSH1 0x3 DUP8 ADD PUSH2 0x2443 JUMP JUMPDEST PUSH1 0x4 DUP6 ADD SSTORE PUSH1 0x84 CALLDATALOAD PUSH1 0x5 DUP6 ADD SSTORE PUSH1 0x6 DUP5 ADD SSTORE PUSH1 0x8 DUP4 ADD SSTORE PUSH1 0x9 DUP3 ADD SSTORE PUSH1 0xD DUP2 ADD DUP1 SLOAD PUSH1 0xFF NOT AND DUP6 OR SWAP1 SSTORE PUSH1 0xB ADD SWAP4 PUSH1 0x0 SWAP1 JUMPDEST PUSH2 0x1D65 JUMPI JUMPDEST DUP8 DUP8 DUP8 DUP2 PUSH32 0xC04C663886CAE794DC52158F70FE6C8EE3B0140D4F48647282F9B693FF688A65 PUSH1 0x40 MLOAD DUP6 DUP2 MSTORE DUP1 PUSH2 0x1D5A CALLER SWAP6 DUP9 DUP4 ADD SWAP1 PUSH2 0x2177 JUMP JUMPDEST SUB SWAP1 LOG3 PUSH1 0x40 MLOAD SWAP1 DUP2 MSTORE RETURN JUMPDEST DUP2 MLOAD DUP2 LT ISZERO PUSH2 0x1DE0 JUMPI PUSH2 0x1D78 DUP2 DUP4 PUSH2 0x2553 JUMP JUMPDEST MLOAD DUP6 SLOAD PUSH1 0x1 PUSH1 0x40 SHL DUP2 LT ISZERO PUSH2 0x1DCB JUMPI DUP1 DUP7 PUSH2 0x1D96 SWAP3 ADD DUP9 SSTORE DUP8 PUSH2 0x21DA JUMP JUMPDEST PUSH2 0x1DB6 JUMPI SWAP2 PUSH2 0x1DAA PUSH2 0x1DAF SWAP3 DUP8 SWAP6 SWAP5 PUSH2 0x2443 JUMP JUMPDEST PUSH2 0x2434 JUMP JUMPDEST SWAP1 SWAP2 PUSH2 0x1D1B JUMP JUMPDEST DUP5 PUSH4 0x4E487B71 PUSH1 0xE0 SHL PUSH1 0x0 MSTORE PUSH1 0x0 PUSH1 0x4 MSTORE PUSH1 0x0 REVERT JUMPDEST DUP5 PUSH4 0x4E487B71 PUSH1 0xE0 SHL PUSH1 0x0 MSTORE PUSH1 0x41 PUSH1 0x4 MSTORE PUSH1 0x0 REVERT JUMPDEST PUSH2 0x1D20 JUMP JUMPDEST PUSH1 0x40 MLOAD PUSH3 0x461BCD PUSH1 0xE5 SHL DUP2 MSTORE PUSH1 0x4 DUP2 ADD DUP11 SWAP1 MSTORE PUSH1 0x15 DUP2 DUP13 ADD MSTORE PUSH21 0x125B9D985B1A59081D1A58DAD95D08185B5BDD5B9D PUSH1 0x5A SHL PUSH1 0x44 DUP3 ADD MSTORE PUSH1 0x64 SWAP1 REVERT JUMPDEST PUSH1 0x40 MLOAD PUSH3 0x461BCD PUSH1 0xE5 SHL DUP2 MSTORE PUSH1 0x4 DUP2 ADD DUP10 SWAP1 MSTORE PUSH1 0xC DUP2 DUP12 ADD MSTORE PUSH12 0x496E76616C69642063617073 PUSH1 0xA0 SHL PUSH1 0x44 DUP3 ADD MSTORE PUSH1 0x64 SWAP1 REVERT JUMPDEST POP DUP1 PUSH1 0x84 CALLDATALOAD GT PUSH2 0x1C85 JUMP JUMPDEST PUSH1 0x40 MLOAD PUSH3 0x461BCD PUSH1 0xE5 SHL DUP2 MSTORE PUSH1 0x4 DUP2 ADD DUP9 SWAP1 MSTORE PUSH1 0x10 DUP2 DUP11 ADD MSTORE PUSH16 0x496E76616C696420656E642064617465 PUSH1 0x80 SHL PUSH1 0x44 DUP3 ADD MSTORE PUSH1 0x64 SWAP1 REVERT JUMPDEST PUSH1 0x40 MLOAD PUSH3 0x461BCD PUSH1 0xE5 SHL DUP2 MSTORE PUSH1 0x4 DUP2 ADD DUP8 SWAP1 MSTORE PUSH1 0x12 DUP2 DUP10 ADD MSTORE PUSH18 0x496E76616C69642073746172742064617465 PUSH1 0x70 SHL PUSH1 0x44 DUP3 ADD MSTORE PUSH1 0x64 SWAP1 REVERT JUMPDEST DUP4 CALLDATALOAD DUP4 DUP2 GT PUSH2 0x199 JUMPI DUP11 SWAP2 PUSH2 0x1EEA DUP4 SWAP3 DUP15 CALLDATASIZE SWAP2 DUP8 ADD ADD PUSH2 0x2028 JUMP JUMPDEST DUP2 MSTORE ADD SWAP4 ADD SWAP3 PUSH2 0x1C4E JUMP JUMPDEST CALLVALUE PUSH2 0x199 JUMPI PUSH1 0x40 CALLDATASIZE PUSH1 0x3 NOT ADD SLT PUSH2 0x199 JUMPI PUSH2 0x1F0E PUSH2 0x1FB7 JUMP JUMPDEST PUSH1 0x4 CALLDATALOAD PUSH1 0x0 MSTORE PUSH1 0x6 PUSH1 0x20 MSTORE PUSH1 0x40 PUSH1 0x0 KECCAK256 SWAP1 PUSH1 0x1 DUP1 PUSH1 0xA0 SHL SUB AND PUSH1 0x0 MSTORE PUSH1 0x20 MSTORE PUSH1 0x80 PUSH1 0x40 PUSH1 0x0 KECCAK256 DUP1 SLOAD SWAP1 PUSH1 0x1 DUP2 ADD SLOAD SWAP1 PUSH1 0x3 PUSH1 0xFF PUSH1 0x2 DUP4 ADD SLOAD AND SWAP2 ADD SLOAD SWAP2 PUSH1 0x40 MLOAD SWAP4 DUP5 MSTORE PUSH1 0x20 DUP5 ADD MSTORE ISZERO ISZERO PUSH1 0x40 DUP4 ADD MSTORE PUSH1 0x60 DUP3 ADD MSTORE RETURN JUMPDEST CALLVALUE PUSH2 0x199 JUMPI PUSH1 0x20 CALLDATASIZE PUSH1 0x3 NOT ADD SLT PUSH2 0x199 JUMPI PUSH1 0x4 CALLDATALOAD SWAP1 PUSH4 0xFFFFFFFF PUSH1 0xE0 SHL DUP3 AND DUP1 SWAP3 SUB PUSH2 0x199 JUMPI PUSH1 0x20 SWAP2 PUSH4 0x7965DB0B PUSH1 0xE0 SHL DUP2 EQ SWAP1 DUP2 ISZERO PUSH2 0x1FA6 JUMPI JUMPDEST POP ISZERO ISZERO DUP2 MSTORE RETURN JUMPDEST PUSH4 0x1FFC9A7 PUSH1 0xE0 SHL EQ SWAP1 POP DUP4 PUSH2 0x1F9F JUMP JUMPDEST PUSH1 0x24 CALLDATALOAD SWAP1 PUSH1 0x1 PUSH1 0x1 PUSH1 0xA0 SHL SUB DUP3 AND DUP3 SUB PUSH2 0x199 JUMPI JUMP JUMPDEST PUSH1 0x80 DUP2 ADD SWAP1 DUP2 LT PUSH8 0xFFFFFFFFFFFFFFFF DUP3 GT OR PUSH2 0x1621 JUMPI PUSH1 0x40 MSTORE JUMP JUMPDEST PUSH2 0x220 DUP2 ADD SWAP1 DUP2 LT PUSH8 0xFFFFFFFFFFFFFFFF DUP3 GT OR PUSH2 0x1621 JUMPI PUSH1 0x40 MSTORE JUMP JUMPDEST SWAP1 PUSH1 0x1F DUP1 NOT SWAP2 ADD AND DUP2 ADD SWAP1 DUP2 LT PUSH8 0xFFFFFFFFFFFFFFFF DUP3 GT OR PUSH2 0x1621 JUMPI PUSH1 0x40 MSTORE JUMP JUMPDEST DUP2 PUSH1 0x1F DUP3 ADD SLT ISZERO PUSH2 0x199 JUMPI DUP1 CALLDATALOAD SWAP1 PUSH8 0xFFFFFFFFFFFFFFFF DUP3 GT PUSH2 0x1621 JUMPI PUSH1 0x40 MLOAD SWAP3 PUSH2 0x205D PUSH1 0x1F DUP5 ADD PUSH1 0x1F NOT AND PUSH1 0x20 ADD DUP6 PUSH2 0x2006 JUMP JUMPDEST DUP3 DUP5 MSTORE PUSH1 0x20 DUP4 DUP4 ADD ADD GT PUSH2 0x199 JUMPI DUP2 PUSH1 0x0 SWAP3 PUSH1 0x20 DUP1 SWAP4 ADD DUP4 DUP7 ADD CALLDATACOPY DUP4 ADD ADD MSTORE SWAP1 JUMP JUMPDEST PUSH8 0xFFFFFFFFFFFFFFFF DUP2 GT PUSH2 0x1621 JUMPI PUSH1 0x5 SHL PUSH1 0x20 ADD SWAP1 JUMP JUMPDEST SWAP1 PUSH1 0x1 DUP3 DUP2 SHR SWAP3 AND DUP1 ISZERO PUSH2 0x20C7 JUMPI JUMPDEST PUSH1 0x20 DUP4 LT EQ PUSH2 0x20B1 JUMPI JUMP JUMPDEST PUSH4 0x4E487B71 PUSH1 0xE0 SHL PUSH1 0x0 MSTORE PUSH1 0x22 PUSH1 0x4 MSTORE PUSH1 0x24 PUSH1 0x0 REVERT JUMPDEST SWAP2 PUSH1 0x7F AND SWAP2 PUSH2 0x20A6 JUMP JUMPDEST SWAP1 PUSH1 0x40 MLOAD SWAP2 DUP3 PUSH1 0x0 DUP3 SLOAD SWAP3 PUSH2 0x20E5 DUP5 PUSH2 0x2097 JUMP JUMPDEST SWAP1 DUP2 DUP5 MSTORE PUSH1 0x1 SWAP5 DUP6 DUP2 AND SWAP1 DUP2 PUSH1 0x0 EQ PUSH2 0x2154 JUMPI POP PUSH1 0x1 EQ PUSH2 0x2111 JUMPI JUMPDEST POP POP PUSH2 0x210F SWAP3 POP SUB DUP4 PUSH2 0x2006 JUMP JUMPDEST JUMP JUMPDEST SWAP1 SWAP4 SWAP2 POP PUSH1 0x0 MSTORE PUSH1 0x20 SWAP1 DUP2 PUSH1 0x0 KECCAK256 SWAP4 PUSH1 0x0 SWAP2 JUMPDEST DUP2 DUP4 LT PUSH2 0x213C JUMPI POP POP PUSH2 0x210F SWAP4 POP DUP3 ADD ADD CODESIZE DUP1 PUSH2 0x2101 JUMP JUMPDEST DUP6 SLOAD DUP9 DUP5 ADD DUP6 ADD MSTORE SWAP5 DUP6 ADD SWAP5 DUP8 SWAP5 POP SWAP2 DUP4 ADD SWAP2 PUSH2 0x2124 JUMP JUMPDEST SWAP2 POP POP PUSH2 0x210F SWAP5 POP PUSH1 0x20 SWAP3 POP PUSH1 0xFF NOT AND DUP3 DUP5 ADD MSTORE ISZERO ISZERO PUSH1 0x5 SHL DUP3 ADD ADD CODESIZE DUP1 PUSH2 0x2101 JUMP JUMPDEST SWAP2 SWAP1 DUP3 MLOAD SWAP3 DUP4 DUP3 MSTORE PUSH1 0x0 JUMPDEST DUP5 DUP2 LT PUSH2 0x21A3 JUMPI POP POP DUP3 PUSH1 0x0 PUSH1 0x20 DUP1 SWAP5 SWAP6 DUP5 ADD ADD MSTORE PUSH1 0x1F DUP1 NOT SWAP2 ADD AND ADD ADD SWAP1 JUMP JUMPDEST PUSH1 0x20 DUP2 DUP4 ADD DUP2 ADD MLOAD DUP5 DUP4 ADD DUP3 ADD MSTORE ADD PUSH2 0x2182 JUMP JUMPDEST SWAP1 PUSH1 0x6 DUP3 LT ISZERO PUSH2 0x229 JUMPI MSTORE JUMP JUMPDEST PUSH1 0x40 SWAP1 PUSH1 0x3 NOT ADD SLT PUSH2 0x199 JUMPI PUSH1 0x4 CALLDATALOAD SWAP1 PUSH1 0x24 CALLDATALOAD SWAP1 JUMP JUMPDEST DUP1 SLOAD DUP3 LT ISZERO PUSH2 0x21F2 JUMPI PUSH1 0x0 MSTORE PUSH1 0x20 PUSH1 0x0 KECCAK256 ADD SWAP1 PUSH1 0x0 SWAP1 JUMP JUMPDEST PUSH4 0x4E487B71 PUSH1 0xE0 SHL PUSH1 0x0 MSTORE PUSH1 0x32 PUSH1 0x4 MSTORE PUSH1 0x24 PUSH1 0x0 REVERT JUMPDEST SWAP1 DUP2 MLOAD DUP1 DUP3 MSTORE PUSH1 0x20 DUP1 DUP1 SWAP4 ADD SWAP4 ADD SWAP2 PUSH1 0x0 JUMPDEST DUP3 DUP2 LT PUSH2 0x2228 JUMPI POP POP POP POP SWAP1 JUMP JUMPDEST DUP4 MLOAD PUSH1 0x1 PUSH1 0x1 PUSH1 0xA0 SHL SUB AND DUP6 MSTORE SWAP4 DUP2 ADD SWAP4 SWAP3 DUP2 ADD SWAP3 PUSH1 0x1 ADD PUSH2 0x221A JUMP JUMPDEST CALLER PUSH1 0x0 SWAP1 DUP2 MSTORE PUSH32 0x7D7FFB7A348E1C6A02869081A26547B49160DD3DF72D1D75A570EB9B698292EC PUSH1 0x20 MSTORE PUSH1 0x40 SWAP1 KECCAK256 SLOAD PUSH32 0xA49807205CE4D355092EF5A8A18F56E8913CF4A201FBE287825B095693C21775 SWAP1 PUSH1 0xFF AND ISZERO PUSH2 0x22A1 JUMPI POP JUMP JUMPDEST PUSH1 0x44 SWAP1 PUSH1 0x40 MLOAD SWAP1 PUSH4 0xE2517D3F PUSH1 0xE0 SHL DUP3 MSTORE CALLER PUSH1 0x4 DUP4 ADD MSTORE PUSH1 0x24 DUP3 ADD MSTORE REVERT JUMPDEST CALLER PUSH1 0x0 SWAP1 DUP2 MSTORE PUSH32 0xEE57CD81E84075558E8FCC182A1F4393F91FC97F963A136E66B7F949A62F319F PUSH1 0x20 MSTORE PUSH1 0x40 SWAP1 KECCAK256 SLOAD PUSH32 0x97667070C54EF182B0F5858B034BEAC1B6F3089AA2D3188BB1E8929F4FA9B929 SWAP1 PUSH1 0xFF AND ISZERO PUSH2 0x22A1 JUMPI POP JUMP JUMPDEST DUP1 PUSH1 0x0 MSTORE PUSH1 0x0 PUSH1 0x20 MSTORE PUSH1 0x40 PUSH1 0x0 KECCAK256 CALLER PUSH1 0x0 MSTORE PUSH1 0x20 MSTORE PUSH1 0xFF PUSH1 0x40 PUSH1 0x0 KECCAK256 SLOAD AND ISZERO PUSH2 0x22A1 JUMPI POP JUMP JUMPDEST SWAP1 PUSH1 0x0 SWAP2 DUP1 DUP4 MSTORE DUP3 PUSH1 0x20 MSTORE PUSH1 0x40 DUP4 KECCAK256 SWAP2 PUSH1 0x1 DUP1 PUSH1 0xA0 SHL SUB AND SWAP2 DUP3 DUP5 MSTORE PUSH1 0x20 MSTORE PUSH1 0xFF PUSH1 0x40 DUP5 KECCAK256 SLOAD AND ISZERO PUSH1 0x0 EQ PUSH2 0x23BA JUMPI DUP1 DUP4 MSTORE DUP3 PUSH1 0x20 MSTORE PUSH1 0x40 DUP4 KECCAK256 DUP3 DUP5 MSTORE PUSH1 0x20 MSTORE PUSH1 0x40 DUP4 KECCAK256 PUSH1 0x1 PUSH1 0xFF NOT DUP3 SLOAD AND OR SWAP1 SSTORE PUSH32 0x2F8788117E7EFF1D82E926EC794901D17C78024A50270940304540A733656F0D CALLER SWAP4 DUP1 LOG4 PUSH1 0x1 SWAP1 JUMP JUMPDEST POP POP SWAP1 JUMP JUMPDEST SWAP1 PUSH1 0x0 SWAP2 DUP1 DUP4 MSTORE DUP3 PUSH1 0x20 MSTORE PUSH1 0x40 DUP4 KECCAK256 SWAP2 PUSH1 0x1 DUP1 PUSH1 0xA0 SHL SUB AND SWAP2 DUP3 DUP5 MSTORE PUSH1 0x20 MSTORE PUSH1 0xFF PUSH1 0x40 DUP5 KECCAK256 SLOAD AND PUSH1 0x0 EQ PUSH2 0x23BA JUMPI DUP1 DUP4 MSTORE DUP3 PUSH1 0x20 MSTORE PUSH1 0x40 DUP4 KECCAK256 DUP3 DUP5 MSTORE PUSH1 0x20 MSTORE PUSH1 0x40 DUP4 KECCAK256 PUSH1 0xFF NOT DUP2 SLOAD AND SWAP1 SSTORE PUSH32 0xF6391F5C32D9C69D2A47EA670B442974B53935D1EDC7FD64EB21E047A839171B CALLER SWAP4 DUP1 LOG4 PUSH1 0x1 SWAP1 JUMP JUMPDEST PUSH1 0x0 NOT DUP2 EQ PUSH2 0x160B JUMPI PUSH1 0x1 ADD SWAP1 JUMP JUMPDEST SWAP2 SWAP1 SWAP2 DUP3 MLOAD PUSH8 0xFFFFFFFFFFFFFFFF DUP2 GT PUSH2 0x1621 JUMPI PUSH2 0x2461 DUP3 SLOAD PUSH2 0x2097 JUMP JUMPDEST PUSH1 0x1F DUP2 GT PUSH2 0x250B JUMPI JUMPDEST POP PUSH1 0x20 DUP1 PUSH1 0x1F DUP4 GT PUSH1 0x1 EQ PUSH2 0x24A7 JUMPI POP DUP2 SWAP3 SWAP4 SWAP5 PUSH1 0x0 SWAP3 PUSH2 0x249C JUMPI JUMPDEST POP POP DUP2 PUSH1 0x1 SHL SWAP2 PUSH1 0x0 NOT SWAP1 PUSH1 0x3 SHL SHR NOT AND OR SWAP1 SSTORE JUMP JUMPDEST ADD MLOAD SWAP1 POP CODESIZE DUP1 PUSH2 0x2486 JUMP JUMPDEST SWAP1 PUSH1 0x1F NOT DUP4 AND SWAP6 DUP5 PUSH1 0x0 MSTORE DUP3 PUSH1 0x0 KECCAK256 SWAP3 PUSH1 0x0 SWAP1 JUMPDEST DUP9 DUP3 LT PUSH2 0x24F3 JUMPI POP POP DUP4 PUSH1 0x1 SWAP6 SWAP7 SWAP8 LT PUSH2 0x24DA JUMPI JUMPDEST POP POP POP DUP2 SHL ADD SWAP1 SSTORE JUMP JUMPDEST ADD MLOAD PUSH1 0x0 NOT PUSH1 0xF8 DUP5 PUSH1 0x3 SHL AND SHR NOT AND SWAP1 SSTORE CODESIZE DUP1 DUP1 PUSH2 0x24D0 JUMP JUMPDEST DUP1 PUSH1 0x1 DUP6 SWAP7 DUP3 SWAP5 SWAP7 DUP7 ADD MLOAD DUP2 SSTORE ADD SWAP6 ADD SWAP4 ADD SWAP1 PUSH2 0x24BB JUMP JUMPDEST PUSH1 0x0 DUP4 DUP2 MSTORE PUSH1 0x20 DUP2 KECCAK256 PUSH1 0x1F DUP5 ADD PUSH1 0x5 SHR DUP2 ADD SWAP3 PUSH1 0x20 DUP6 LT PUSH2 0x2549 JUMPI JUMPDEST PUSH1 0x1F ADD PUSH1 0x5 SHR ADD SWAP2 JUMPDEST DUP3 DUP2 LT PUSH2 0x253E JUMPI POP POP PUSH2 0x246A JUMP JUMPDEST DUP2 DUP2 SSTORE PUSH1 0x1 ADD PUSH2 0x2530 JUMP JUMPDEST SWAP1 SWAP3 POP DUP3 SWAP1 PUSH2 0x2527 JUMP JUMPDEST DUP1 MLOAD DUP3 LT ISZERO PUSH2 0x21F2 JUMPI PUSH1 0x20 SWAP2 PUSH1 0x5 SHL ADD ADD SWAP1 JUMP JUMPDEST ISZERO PUSH2 0x256E JUMPI JUMP JUMPDEST PUSH1 0x40 MLOAD PUSH3 0x461BCD PUSH1 0xE5 SHL DUP2 MSTORE PUSH1 0x20 PUSH1 0x4 DUP3 ADD MSTORE PUSH1 0x17 PUSH1 0x24 DUP3 ADD MSTORE PUSH32 0x43616D706169676E20646F6573206E6F74206578697374000000000000000000 PUSH1 0x44 DUP3 ADD MSTORE PUSH1 0x64 SWAP1 REVERT JUMPDEST ISZERO PUSH2 0x25BA JUMPI JUMP JUMPDEST PUSH1 0x40 MLOAD PUSH3 0x461BCD PUSH1 0xE5 SHL DUP2 MSTORE PUSH1 0x20 PUSH1 0x4 DUP3 ADD MSTORE PUSH1 0x13 PUSH1 0x24 DUP3 ADD MSTORE PUSH19 0x43616D706169676E206E6F7420616374697665 PUSH1 0x68 SHL PUSH1 0x44 DUP3 ADD MSTORE PUSH1 0x64 SWAP1 REVERT JUMPDEST SWAP2 SWAP1 DUP3 ADD DUP1 SWAP3 GT PUSH2 0x160B JUMPI JUMP JUMPDEST DUP1 SLOAD PUSH1 0x1 PUSH1 0x40 SHL DUP2 LT ISZERO PUSH2 0x1621 JUMPI PUSH2 0x261F SWAP2 PUSH1 0x1 DUP3 ADD DUP2 SSTORE PUSH2 0x21DA JUMP JUMPDEST DUP2 SWAP3 SWAP2 SLOAD SWAP1 PUSH1 0x3 SHL SWAP2 PUSH1 0x1 DUP1 PUSH1 0xA0 SHL SUB DUP1 SWAP2 AND DUP4 SHL SWAP3 SHL NOT AND OR SWAP1 SSTORE JUMP JUMPDEST SWAP1 DUP2 PUSH1 0x20 SWAP2 SUB SLT PUSH2 0x199 JUMPI MLOAD DUP1 ISZERO ISZERO DUP2 SUB PUSH2 0x199 JUMPI SWAP1 JUMP JUMPDEST PUSH1 0xFF PUSH1 0x2 SLOAD AND PUSH2 0x2661 JUMPI JUMP JUMPDEST PUSH1 0x40 MLOAD PUSH4 0xD93C0665 PUSH1 0xE0 SHL DUP2 MSTORE PUSH1 0x4 SWAP1 REVERT JUMPDEST PUSH1 0x2 PUSH1 0x1 SLOAD EQ PUSH2 0x2684 JUMPI PUSH1 0x2 PUSH1 0x1 SSTORE JUMP JUMPDEST PUSH1 0x40 MLOAD PUSH4 0x3EE5AEB5 PUSH1 0xE0 SHL DUP2 MSTORE PUSH1 0x4 SWAP1 REVERT JUMPDEST SWAP1 DUP2 SLOAD DUP1 DUP3 MSTORE PUSH1 0x20 DUP1 SWAP3 ADD SWAP3 PUSH1 0x0 MSTORE DUP2 PUSH1 0x0 KECCAK256 SWAP2 PUSH1 0x0 SWAP1 JUMPDEST DUP3 DUP3 LT PUSH2 0x26BC JUMPI POP POP POP POP SWAP1 JUMP JUMPDEST DUP4 SLOAD PUSH1 0x1 PUSH1 0x1 PUSH1 0xA0 SHL SUB AND DUP6 MSTORE SWAP4 DUP5 ADD SWAP4 PUSH1 0x1 SWAP4 DUP5 ADD SWAP4 SWAP1 SWAP2 ADD SWAP1 PUSH2 0x26AE JUMP JUMPDEST SWAP1 PUSH2 0x26E6 DUP3 PUSH2 0x207F JUMP JUMPDEST PUSH2 0x26F3 PUSH1 0x40 MLOAD SWAP2 DUP3 PUSH2 0x2006 JUMP JUMPDEST DUP3 DUP2 MSTORE DUP1 SWAP3 PUSH2 0x2704 PUSH1 0x1F NOT SWAP2 PUSH2 0x207F JUMP JUMPDEST ADD SWAP1 PUSH1 0x20 CALLDATASIZE SWAP2 ADD CALLDATACOPY JUMP JUMPDEST PUSH1 0x0 SWAP4 DUP5 JUMPDEST DUP4 MLOAD DUP7 LT ISZERO PUSH2 0x2764 JUMPI PUSH2 0x2758 PUSH2 0x275E SWAP2 DUP5 PUSH1 0x0 MSTORE PUSH1 0x1 PUSH1 0x20 PUSH1 0x6 DUP2 MSTORE PUSH1 0x40 SWAP1 DUP2 PUSH1 0x0 KECCAK256 SWAP1 DUP4 DUP1 PUSH1 0xA0 SHL SUB PUSH2 0x2747 DUP14 DUP13 PUSH2 0x2553 JUMP JUMPDEST MLOAD AND PUSH1 0x0 MSTORE MSTORE PUSH1 0x0 KECCAK256 ADD SLOAD SWAP1 PUSH2 0x25F5 JUMP JUMPDEST SWAP6 PUSH2 0x2434 JUMP JUMPDEST SWAP5 PUSH2 0x2713 JUMP JUMPDEST SWAP2 SWAP4 SWAP1 SWAP5 POP DUP2 ISZERO PUSH2 0x11DB JUMPI MOD SWAP1 PUSH1 0x0 SWAP2 DUP3 JUMPDEST DUP3 MLOAD DUP2 LT ISZERO PUSH2 0x27D2 JUMPI DUP5 PUSH1 0x0 MSTORE PUSH2 0x27A7 PUSH1 0x20 SWAP5 PUSH1 0x6 DUP7 MSTORE PUSH1 0x1 PUSH1 0x40 DUP1 PUSH1 0x0 KECCAK256 DUP3 DUP1 PUSH1 0xA0 SHL SUB SWAP9 DUP10 PUSH2 0x2747 DUP9 DUP12 PUSH2 0x2553 JUMP JUMPDEST SWAP4 DUP5 DUP4 LT PUSH2 0x27BE JUMPI POP PUSH2 0x27B9 SWAP1 PUSH2 0x2434 JUMP JUMPDEST PUSH2 0x2776 JUMP JUMPDEST SWAP5 POP SWAP2 SWAP1 POP PUSH2 0x27CD SWAP3 POP PUSH2 0x2553 JUMP JUMPDEST MLOAD AND SWAP1 JUMP JUMPDEST POP POP SWAP2 POP POP DUP1 MLOAD ISZERO PUSH2 0x21F2 JUMPI PUSH1 0x20 ADD MLOAD PUSH1 0x1 PUSH1 0x1 PUSH1 0xA0 SHL SUB AND SWAP1 JUMP INVALID LOG2 PUSH5 0x6970667358 0x22 SLT KECCAK256 SWAP8 DUP2 0xA6 CALLDATASIZE 0xBE 0x1F 0x2D 0xDA PUSH31 0xDDF8A2AEDEA7C58059A7979B1350C27FB8BE345B7528D164736F6C63430008 EQ STOP CALLER 0x2F DUP8 DUP9 GT PUSH31 0x7EFF1D82E926EC794901D17C78024A50270940304540A733656F0D00000000 "},"gasEstimates":{"creation":{"codeDepositCost":"2055200","executionCost":"infinite","totalCost":"infinite"},"external":{"ADMIN_ROLE()":"573","DEFAULT_ADMIN_ROLE()":"683","OPERATOR_ROLE()":"768","burnTokens(uint256)":"infinite","campaignParticipants(uint256,uint256)":"6918","campaigns(uint256)":"infinite","confirmSocialTasks(uint256,address)":"37828","createCampaign(string,string,string,uint256,uint256,uint256,uint256,uint256,string[])":"infinite","emergencyPause()":"30085","emergencyTerminateCampaign(uint256,bool)":"infinite","emergencyUnpause()":"27914","getCampaign(uint256)":"infinite","getCampaignParticipants(uint256)":"infinite","getParticipant(uint256,address)":"infinite","getRoleAdmin(bytes32)":"2462","getTotalCampaigns()":"2346","grantRole(bytes32,address)":"33371","hasRole(bytes32,address)":"2974","participants(uint256,address)":"8896","pauseCampaign(uint256)":"30664","paused()":"2644","renounceRole(bytes32,address)":"29019","resumeCampaign(uint256)":"32676","revokeRole(bytes32,address)":"33780","selectWinners(uint256)":"infinite","squdyToken()":"infinite","stakeTokens(uint256,uint256)":"infinite","supportsInterface(bytes4)":"271","updateCampaignEndDate(uint256,uint256)":"32931"},"internal":{"getEligibleParticipants(uint256)":"infinite","removeFromArray(address[] memory,address)":"infinite","selectWeightedWinner(uint256,address[] memory,uint256)":"infinite"}},"methodIdentifiers":{"ADMIN_ROLE()":"75b238fc","DEFAULT_ADMIN_ROLE()":"a217fddf","OPERATOR_ROLE()":"f5b541a6","burnTokens(uint256)":"6d1b229d","campaignParticipants(uint256,uint256)":"35abd49b","campaigns(uint256)":"141961bc","confirmSocialTasks(uint256,address)":"b5801d91","createCampaign(string,string,string,uint256,uint256,uint256,uint256,uint256,string[])":"03463dd9","emergencyPause()":"51858e27","emergencyTerminateCampaign(uint256,bool)":"871f87cf","emergencyUnpause()":"4a4e3bd5","getCampaign(uint256)":"5598f8cc","getCampaignParticipants(uint256)":"8c6ab238","getParticipant(uint256,address)":"35f3ad7a","getRoleAdmin(bytes32)":"248a9ca3","getTotalCampaigns()":"16f43dd4","grantRole(bytes32,address)":"2f2ff15d","hasRole(bytes32,address)":"91d14854","participants(uint256,address)":"02e060c6","pauseCampaign(uint256)":"de99347a","paused()":"5c975abb","renounceRole(bytes32,address)":"36568abe","resumeCampaign(uint256)":"9e3696d9","revokeRole(bytes32,address)":"d547741f","selectWinners(uint256)":"39a2eb2a","squdyToken()":"4eb53f99","stakeTokens(uint256,uint256)":"3b7b6188","supportsInterface(bytes4)":"01ffc9a7","updateCampaignEndDate(uint256,uint256)":"171e986e"}},"storageLayout":{"storage":[{"astId":27,"contract":"contracts/AutomatedSqudyCampaignManager.sol:AutomatedSqudyCampaignManager","label":"_roles","offset":0,"slot":"0","type":"t_mapping(t_bytes32,t_struct(RoleData)22_storage)"},{"astId":1478,"contract":"contracts/AutomatedSqudyCampaignManager.sol:AutomatedSqudyCampaignManager","label":"_status","offset":0,"slot":"1","type":"t_uint256"},{"astId":1368,"contract":"contracts/AutomatedSqudyCampaignManager.sol:AutomatedSqudyCampaignManager","label":"_paused","offset":0,"slot":"2","type":"t_bool"},{"astId":1600,"contract":"contracts/AutomatedSqudyCampaignManager.sol:AutomatedSqudyCampaignManager","label":"_campaignIds","offset":0,"slot":"3","type":"t_uint256"},{"astId":1602,"contract":"contracts/AutomatedSqudyCampaignManager.sol:AutomatedSqudyCampaignManager","label":"_randomSeed","offset":0,"slot":"4","type":"t_uint256"},{"astId":1607,"contract":"contracts/AutomatedSqudyCampaignManager.sol:AutomatedSqudyCampaignManager","label":"campaigns","offset":0,"slot":"5","type":"t_mapping(t_uint256,t_struct(Campaign)1657_storage)"},{"astId":1614,"contract":"contracts/AutomatedSqudyCampaignManager.sol:AutomatedSqudyCampaignManager","label":"participants","offset":0,"slot":"6","type":"t_mapping(t_uint256,t_mapping(t_address,t_struct(Participant)1666_storage))"},{"astId":1619,"contract":"contracts/AutomatedSqudyCampaignManager.sol:AutomatedSqudyCampaignManager","label":"campaignParticipants","offset":0,"slot":"7","type":"t_mapping(t_uint256,t_array(t_address)dyn_storage)"}],"types":{"t_address":{"encoding":"inplace","label":"address","numberOfBytes":"20"},"t_array(t_address)dyn_storage":{"base":"t_address","encoding":"dynamic_array","label":"address[]","numberOfBytes":"32"},"t_array(t_string_storage)dyn_storage":{"base":"t_string_storage","encoding":"dynamic_array","label":"string[]","numberOfBytes":"32"},"t_bool":{"encoding":"inplace","label":"bool","numberOfBytes":"1"},"t_bytes32":{"encoding":"inplace","label":"bytes32","numberOfBytes":"32"},"t_enum(CampaignStatus)1673":{"encoding":"inplace","label":"enum AutomatedSqudyCampaignManager.CampaignStatus","numberOfBytes":"1"},"t_mapping(t_address,t_bool)":{"encoding":"mapping","key":"t_address","label":"mapping(address => bool)","numberOfBytes":"32","value":"t_bool"},"t_mapping(t_address,t_struct(Participant)1666_storage)":{"encoding":"mapping","key":"t_address","label":"mapping(address => struct AutomatedSqudyCampaignManager.Participant)","numberOfBytes":"32","value":"t_struct(Participant)1666_storage"},"t_mapping(t_bytes32,t_struct(RoleData)22_storage)":{"encoding":"mapping","key":"t_bytes32","label":"mapping(bytes32 => struct AccessControl.RoleData)","numberOfBytes":"32","value":"t_struct(RoleData)22_storage"},"t_mapping(t_uint256,t_array(t_address)dyn_storage)":{"encoding":"mapping","key":"t_uint256","label":"mapping(uint256 => address[])","numberOfBytes":"32","value":"t_array(t_address)dyn_storage"},"t_mapping(t_uint256,t_mapping(t_address,t_struct(Participant)1666_storage))":{"encoding":"mapping","key":"t_uint256","label":"mapping(uint256 => mapping(address => struct AutomatedSqudyCampaignManager.Participant))","numberOfBytes":"32","value":"t_mapping(t_address,t_struct(Participant)1666_storage)"},"t_mapping(t_uint256,t_struct(Campaign)1657_storage)":{"encoding":"mapping","key":"t_uint256","label":"mapping(uint256 => struct AutomatedSqudyCampaignManager.Campaign)","numberOfBytes":"32","value":"t_struct(Campaign)1657_storage"},"t_string_storage":{"encoding":"bytes","label":"string","numberOfBytes":"32"},"t_struct(Campaign)1657_storage":{"encoding":"inplace","label":"struct AutomatedSqudyCampaignManager.Campaign","members":[{"astId":1621,"contract":"contracts/AutomatedSqudyCampaignManager.sol:AutomatedSqudyCampaignManager","label":"id","offset":0,"slot":"0","type":"t_uint256"},{"astId":1623,"contract":"contracts/AutomatedSqudyCampaignManager.sol:AutomatedSqudyCampaignManager","label":"name","offset":0,"slot":"1","type":"t_string_storage"},{"astId":1625,"contract":"contracts/AutomatedSqudyCampaignManager.sol:AutomatedSqudyCampaignManager","label":"description","offset":0,"slot":"2","type":"t_string_storage"},{"astId":1627,"contract":"contracts/AutomatedSqudyCampaignManager.sol:AutomatedSqudyCampaignManager","label":"imageUrl","offset":0,"slot":"3","type":"t_string_storage"},{"astId":1629,"contract":"contracts/AutomatedSqudyCampaignManager.sol:AutomatedSqudyCampaignManager","label":"softCap","offset":0,"slot":"4","type":"t_uint256"},{"astId":1631,"contract":"contracts/AutomatedSqudyCampaignManager.sol:AutomatedSqudyCampaignManager","label":"hardCap","offset":0,"slot":"5","type":"t_uint256"},{"astId":1633,"contract":"contracts/AutomatedSqudyCampaignManager.sol:AutomatedSqudyCampaignManager","label":"ticketAmount","offset":0,"slot":"6","type":"t_uint256"},{"astId":1635,"contract":"contracts/AutomatedSqudyCampaignManager.sol:AutomatedSqudyCampaignManager","label":"currentAmount","offset":0,"slot":"7","type":"t_uint256"},{"astId":1637,"contract":"contracts/AutomatedSqudyCampaignManager.sol:AutomatedSqudyCampaignManager","label":"startDate","offset":0,"slot":"8","type":"t_uint256"},{"astId":1639,"contract":"contracts/AutomatedSqudyCampaignManager.sol:AutomatedSqudyCampaignManager","label":"endDate","offset":0,"slot":"9","type":"t_uint256"},{"astId":1641,"contract":"contracts/AutomatedSqudyCampaignManager.sol:AutomatedSqudyCampaignManager","label":"participantCount","offset":0,"slot":"10","type":"t_uint256"},{"astId":1644,"contract":"contracts/AutomatedSqudyCampaignManager.sol:AutomatedSqudyCampaignManager","label":"prizes","offset":0,"slot":"11","type":"t_array(t_string_storage)dyn_storage"},{"astId":1647,"contract":"contracts/AutomatedSqudyCampaignManager.sol:AutomatedSqudyCampaignManager","label":"winners","offset":0,"slot":"12","type":"t_array(t_address)dyn_storage"},{"astId":1650,"contract":"contracts/AutomatedSqudyCampaignManager.sol:AutomatedSqudyCampaignManager","label":"status","offset":0,"slot":"13","type":"t_enum(CampaignStatus)1673"},{"astId":1652,"contract":"contracts/AutomatedSqudyCampaignManager.sol:AutomatedSqudyCampaignManager","label":"tokensAreBurned","offset":1,"slot":"13","type":"t_bool"},{"astId":1654,"contract":"contracts/AutomatedSqudyCampaignManager.sol:AutomatedSqudyCampaignManager","label":"totalBurned","offset":0,"slot":"14","type":"t_uint256"},{"astId":1656,"contract":"contracts/AutomatedSqudyCampaignManager.sol:AutomatedSqudyCampaignManager","label":"winnerSelectionBlock","offset":0,"slot":"15","type":"t_uint256"}],"numberOfBytes":"512"},"t_struct(Participant)1666_storage":{"encoding":"inplace","label":"struct AutomatedSqudyCampaignManager.Participant","members":[{"astId":1659,"contract":"contracts/AutomatedSqudyCampaignManager.sol:AutomatedSqudyCampaignManager","label":"stakedAmount","offset":0,"slot":"0","type":"t_uint256"},{"astId":1661,"contract":"contracts/AutomatedSqudyCampaignManager.sol:AutomatedSqudyCampaignManager","label":"ticketCount","offset":0,"slot":"1","type":"t_uint256"},{"astId":1663,"contract":"contracts/AutomatedSqudyCampaignManager.sol:AutomatedSqudyCampaignManager","label":"hasCompletedSocial","offset":0,"slot":"2","type":"t_bool"},{"astId":1665,"contract":"contracts/AutomatedSqudyCampaignManager.sol:AutomatedSqudyCampaignManager","label":"joinedAt","offset":0,"slot":"3","type":"t_uint256"}],"numberOfBytes":"128"},"t_struct(RoleData)22_storage":{"encoding":"inplace","label":"struct AccessControl.RoleData","members":[{"astId":19,"contract":"contracts/AutomatedSqudyCampaignManager.sol:AutomatedSqudyCampaignManager","label":"hasRole","offset":0,"slot":"0","type":"t_mapping(t_address,t_bool)"},{"astId":21,"contract":"contracts/AutomatedSqudyCampaignManager.sol:AutomatedSqudyCampaignManager","label":"adminRole","offset":0,"slot":"1","type":"t_bytes32"}],"numberOfBytes":"64"},"t_uint256":{"encoding":"inplace","label":"uint256","numberOfBytes":"32"}}},"userdoc":{"kind":"user","methods":{},"version":1}}}}