{"contracts/AutomatedSqudyCampaignManager.sol":{"AutomatedSqudyCampaignManager":{"abi":[{"inputs":[{"internalType":"address","name":"_squdyToken","type":"address"}],"stateMutability":"nonpayable","type":"constructor"},{"inputs":[],"name":"AccessControlBadConfirmation","type":"error"},{"inputs":[{"internalType":"address","name":"account","type":"address"},{"internalType":"bytes32","name":"neededRole","type":"bytes32"}],"name":"AccessControlUnauthorizedAccount","type":"error"},{"inputs":[],"name":"EnforcedPause","type":"error"},{"inputs":[],"name":"ExpectedPause","type":"error"},{"inputs":[],"name":"ReentrancyGuardReentrantCall","type":"error"},{"anonymous":false,"inputs":[{"indexed":true,"internalType":"uint256","name":"campaignId","type":"uint256"},{"indexed":true,"internalType":"address","name":"creator","type":"address"},{"indexed":false,"internalType":"string","name":"name","type":"string"}],"name":"CampaignCreated","type":"event"},{"anonymous":false,"inputs":[{"indexed":true,"internalType":"uint256","name":"campaignId","type":"uint256"},{"indexed":false,"internalType":"enum AutomatedSqudyCampaignManager.CampaignStatus","name":"status","type":"uint8"}],"name":"CampaignStatusChanged","type":"event"},{"anonymous":false,"inputs":[{"indexed":false,"internalType":"address","name":"account","type":"address"}],"name":"Paused","type":"event"},{"anonymous":false,"inputs":[{"indexed":true,"internalType":"bytes32","name":"role","type":"bytes32"},{"indexed":true,"internalType":"bytes32","name":"previousAdminRole","type":"bytes32"},{"indexed":true,"internalType":"bytes32","name":"newAdminRole","type":"bytes32"}],"name":"RoleAdminChanged","type":"event"},{"anonymous":false,"inputs":[{"indexed":true,"internalType":"bytes32","name":"role","type":"bytes32"},{"indexed":true,"internalType":"address","name":"account","type":"address"},{"indexed":true,"internalType":"address","name":"sender","type":"address"}],"name":"RoleGranted","type":"event"},{"anonymous":false,"inputs":[{"indexed":true,"internalType":"bytes32","name":"role","type":"bytes32"},{"indexed":true,"internalType":"address","name":"account","type":"address"},{"indexed":true,"internalType":"address","name":"sender","type":"address"}],"name":"RoleRevoked","type":"event"},{"anonymous":false,"inputs":[{"indexed":true,"internalType":"uint256","name":"campaignId","type":"uint256"},{"indexed":true,"internalType":"address","name":"user","type":"address"}],"name":"SocialTasksCompleted","type":"event"},{"anonymous":false,"inputs":[{"indexed":true,"internalType":"uint256","name":"campaignId","type":"uint256"},{"indexed":false,"internalType":"uint256","name":"amount","type":"uint256"}],"name":"TokensBurned","type":"event"},{"anonymous":false,"inputs":[{"indexed":false,"internalType":"address","name":"account","type":"address"}],"name":"Unpaused","type":"event"},{"anonymous":false,"inputs":[{"indexed":true,"internalType":"uint256","name":"campaignId","type":"uint256"},{"indexed":true,"internalType":"address","name":"user","type":"address"},{"indexed":false,"internalType":"uint256","name":"amount","type":"uint256"},{"indexed":false,"internalType":"uint256","name":"tickets","type":"uint256"}],"name":"UserStaked","type":"event"},{"anonymous":false,"inputs":[{"indexed":true,"internalType":"uint256","name":"campaignId","type":"uint256"},{"indexed":false,"internalType":"address[]","name":"winners","type":"address[]"},{"indexed":false,"internalType":"uint256","name":"blockNumber","type":"uint256"}],"name":"WinnersSelected","type":"event"},{"inputs":[],"name":"ADMIN_ROLE","outputs":[{"internalType":"bytes32","name":"","type":"bytes32"}],"stateMutability":"view","type":"function"},{"inputs":[],"name":"DEFAULT_ADMIN_ROLE","outputs":[{"internalType":"bytes32","name":"","type":"bytes32"}],"stateMutability":"view","type":"function"},{"inputs":[],"name":"OPERATOR_ROLE","outputs":[{"internalType":"bytes32","name":"","type":"bytes32"}],"stateMutability":"view","type":"function"},{"inputs":[{"internalType":"uint256","name":"campaignId","type":"uint256"}],"name":"burnTokens","outputs":[],"stateMutability":"nonpayable","type":"function"},{"inputs":[{"internalType":"uint256","name":"","type":"uint256"},{"internalType":"uint256","name":"","type":"uint256"}],"name":"campaignParticipants","outputs":[{"internalType":"address","name":"","type":"address"}],"stateMutability":"view","type":"function"},{"inputs":[{"internalType":"uint256","name":"","type":"uint256"}],"name":"campaigns","outputs":[{"internalType":"uint256","name":"id","type":"uint256"},{"internalType":"string","name":"name","type":"string"},{"internalType":"string","name":"description","type":"string"},{"internalType":"string","name":"imageUrl","type":"string"},{"internalType":"uint256","name":"softCap","type":"uint256"},{"internalType":"uint256","name":"hardCap","type":"uint256"},{"internalType":"uint256","name":"ticketAmount","type":"uint256"},{"internalType":"uint256","name":"currentAmount","type":"uint256"},{"internalType":"uint256","name":"startDate","type":"uint256"},{"internalType":"uint256","name":"endDate","type":"uint256"},{"internalType":"uint256","name":"participantCount","type":"uint256"},{"internalType":"enum AutomatedSqudyCampaignManager.CampaignStatus","name":"status","type":"uint8"},{"internalType":"bool","name":"tokensAreBurned","type":"bool"},{"internalType":"uint256","name":"totalBurned","type":"uint256"},{"internalType":"uint256","name":"winnerSelectionBlock","type":"uint256"}],"stateMutability":"view","type":"function"},{"inputs":[{"internalType":"uint256","name":"campaignId","type":"uint256"},{"internalType":"address","name":"user","type":"address"}],"name":"confirmSocialTasks","outputs":[],"stateMutability":"nonpayable","type":"function"},{"inputs":[{"internalType":"string","name":"name","type":"string"},{"internalType":"string","name":"description","type":"string"},{"internalType":"string","name":"imageUrl","type":"string"},{"internalType":"uint256","name":"softCap","type":"uint256"},{"internalType":"uint256","name":"hardCap","type":"uint256"},{"internalType":"uint256","name":"ticketAmount","type":"uint256"},{"internalType":"uint256","name":"startDate","type":"uint256"},{"internalType":"uint256","name":"endDate","type":"uint256"},{"internalType":"string[]","name":"prizes","type":"string[]"}],"name":"createCampaign","outputs":[{"internalType":"uint256","name":"","type":"uint256"}],"stateMutability":"nonpayable","type":"function"},{"inputs":[{"internalType":"uint256","name":"campaignId","type":"uint256"}],"name":"getCampaign","outputs":[{"components":[{"internalType":"uint256","name":"id","type":"uint256"},{"internalType":"string","name":"name","type":"string"},{"internalType":"string","name":"description","type":"string"},{"internalType":"string","name":"imageUrl","type":"string"},{"internalType":"uint256","name":"softCap","type":"uint256"},{"internalType":"uint256","name":"hardCap","type":"uint256"},{"internalType":"uint256","name":"ticketAmount","type":"uint256"},{"internalType":"uint256","name":"currentAmount","type":"uint256"},{"internalType":"uint256","name":"startDate","type":"uint256"},{"internalType":"uint256","name":"endDate","type":"uint256"},{"internalType":"uint256","name":"participantCount","type":"uint256"},{"internalType":"string[]","name":"prizes","type":"string[]"},{"internalType":"address[]","name":"winners","type":"address[]"},{"internalType":"enum AutomatedSqudyCampaignManager.CampaignStatus","name":"status","type":"uint8"},{"internalType":"bool","name":"tokensAreBurned","type":"bool"},{"internalType":"uint256","name":"totalBurned","type":"uint256"},{"internalType":"uint256","name":"winnerSelectionBlock","type":"uint256"}],"internalType":"struct AutomatedSqudyCampaignManager.Campaign","name":"","type":"tuple"}],"stateMutability":"view","type":"function"},{"inputs":[{"internalType":"uint256","name":"campaignId","type":"uint256"}],"name":"getCampaignParticipants","outputs":[{"internalType":"address[]","name":"","type":"address[]"}],"stateMutability":"view","type":"function"},{"inputs":[{"internalType":"uint256","name":"campaignId","type":"uint256"},{"internalType":"address","name":"user","type":"address"}],"name":"getParticipant","outputs":[{"components":[{"internalType":"uint256","name":"stakedAmount","type":"uint256"},{"internalType":"uint256","name":"ticketCount","type":"uint256"},{"internalType":"bool","name":"hasCompletedSocial","type":"bool"},{"internalType":"uint256","name":"joinedAt","type":"uint256"}],"internalType":"struct AutomatedSqudyCampaignManager.Participant","name":"","type":"tuple"}],"stateMutability":"view","type":"function"},{"inputs":[{"internalType":"bytes32","name":"role","type":"bytes32"}],"name":"getRoleAdmin","outputs":[{"internalType":"bytes32","name":"","type":"bytes32"}],"stateMutability":"view","type":"function"},{"inputs":[],"name":"getTotalCampaigns","outputs":[{"internalType":"uint256","name":"","type":"uint256"}],"stateMutability":"view","type":"function"},{"inputs":[{"internalType":"bytes32","name":"role","type":"bytes32"},{"internalType":"address","name":"account","type":"address"}],"name":"grantRole","outputs":[],"stateMutability":"nonpayable","type":"function"},{"inputs":[{"internalType":"bytes32","name":"role","type":"bytes32"},{"internalType":"address","name":"account","type":"address"}],"name":"hasRole","outputs":[{"internalType":"bool","name":"","type":"bool"}],"stateMutability":"view","type":"function"},{"inputs":[{"internalType":"uint256","name":"","type":"uint256"},{"internalType":"address","name":"","type":"address"}],"name":"participants","outputs":[{"internalType":"uint256","name":"stakedAmount","type":"uint256"},{"internalType":"uint256","name":"ticketCount","type":"uint256"},{"internalType":"bool","name":"hasCompletedSocial","type":"bool"},{"internalType":"uint256","name":"joinedAt","type":"uint256"}],"stateMutability":"view","type":"function"},{"inputs":[],"name":"paused","outputs":[{"internalType":"bool","name":"","type":"bool"}],"stateMutability":"view","type":"function"},{"inputs":[{"internalType":"bytes32","name":"role","type":"bytes32"},{"internalType":"address","name":"callerConfirmation","type":"address"}],"name":"renounceRole","outputs":[],"stateMutability":"nonpayable","type":"function"},{"inputs":[{"internalType":"bytes32","name":"role","type":"bytes32"},{"internalType":"address","name":"account","type":"address"}],"name":"revokeRole","outputs":[],"stateMutability":"nonpayable","type":"function"},{"inputs":[{"internalType":"uint256","name":"campaignId","type":"uint256"}],"name":"selectWinners","outputs":[],"stateMutability":"nonpayable","type":"function"},{"inputs":[],"name":"squdyToken","outputs":[{"internalType":"contract IERC20","name":"","type":"address"}],"stateMutability":"view","type":"function"},{"inputs":[{"internalType":"uint256","name":"campaignId","type":"uint256"},{"internalType":"uint256","name":"amount","type":"uint256"}],"name":"stakeTokens","outputs":[],"stateMutability":"nonpayable","type":"function"},{"inputs":[{"internalType":"bytes4","name":"interfaceId","type":"bytes4"}],"name":"supportsInterface","outputs":[{"internalType":"bool","name":"","type":"bool"}],"stateMutability":"view","type":"function"}],"devdoc":{"author":"Squdy Team","details":"Simplified campaign manager with automated winner selection","errors":{"AccessControlBadConfirmation()":[{"details":"The caller of a function is not the expected one. NOTE: Don't confuse with {AccessControlUnauthorizedAccount}."}],"AccessControlUnauthorizedAccount(address,bytes32)":[{"details":"The `account` is missing a role."}],"EnforcedPause()":[{"details":"The operation failed because the contract is paused."}],"ExpectedPause()":[{"details":"The operation failed because the contract is not paused."}],"ReentrancyGuardReentrantCall()":[{"details":"Unauthorized reentrant call."}]},"events":{"Paused(address)":{"details":"Emitted when the pause is triggered by `account`."},"RoleAdminChanged(bytes32,bytes32,bytes32)":{"details":"Emitted when `newAdminRole` is set as ``role``'s admin role, replacing `previousAdminRole` `DEFAULT_ADMIN_ROLE` is the starting admin for all roles, despite {RoleAdminChanged} not being emitted to signal this."},"RoleGranted(bytes32,address,address)":{"details":"Emitted when `account` is granted `role`. `sender` is the account that originated the contract call. This account bears the admin role (for the granted role). Expected in cases where the role was granted using the internal {AccessControl-_grantRole}."},"RoleRevoked(bytes32,address,address)":{"details":"Emitted when `account` is revoked `role`. `sender` is the account that originated the contract call:   - if using `revokeRole`, it is the admin role bearer   - if using `renounceRole`, it is the role bearer (i.e. `account`)"},"Unpaused(address)":{"details":"Emitted when the pause is lifted by `account`."}},"kind":"dev","methods":{"burnTokens(uint256)":{"details":"Burn all staked tokens after winner selection"},"confirmSocialTasks(uint256,address)":{"details":"Confirm social tasks completion for a user"},"createCampaign(string,string,string,uint256,uint256,uint256,uint256,uint256,string[])":{"details":"Creates a new campaign"},"getRoleAdmin(bytes32)":{"details":"Returns the admin role that controls `role`. See {grantRole} and {revokeRole}. To change a role's admin, use {_setRoleAdmin}."},"grantRole(bytes32,address)":{"details":"Grants `role` to `account`. If `account` had not been already granted `role`, emits a {RoleGranted} event. Requirements: - the caller must have ``role``'s admin role. May emit a {RoleGranted} event."},"hasRole(bytes32,address)":{"details":"Returns `true` if `account` has been granted `role`."},"paused()":{"details":"Returns true if the contract is paused, and false otherwise."},"renounceRole(bytes32,address)":{"details":"Revokes `role` from the calling account. Roles are often managed via {grantRole} and {revokeRole}: this function's purpose is to provide a mechanism for accounts to lose their privileges if they are compromised (such as when a trusted device is misplaced). If the calling account had been revoked `role`, emits a {RoleRevoked} event. Requirements: - the caller must be `callerConfirmation`. May emit a {RoleRevoked} event."},"revokeRole(bytes32,address)":{"details":"Revokes `role` from `account`. If `account` had been granted `role`, emits a {RoleRevoked} event. Requirements: - the caller must have ``role``'s admin role. May emit a {RoleRevoked} event."},"selectWinners(uint256)":{"details":"Automated winner selection when campaign ends Can be called by anyone after campaign ends"},"stakeTokens(uint256,uint256)":{"details":"Stake tokens in a campaign"},"supportsInterface(bytes4)":{"details":"Returns true if this contract implements the interface defined by `interfaceId`. See the corresponding https://eips.ethereum.org/EIPS/eip-165#how-interfaces-are-identified[ERC section] to learn more about how these ids are created. This function call must use less than 30 000 gas."}},"title":"AutomatedSqudyCampaignManager","version":1},"evm":{"bytecode":{"linkReferences":{},"object":"60a03462000142576001600160401b0390601f6200243838819003918201601f191683019184831184841017620000e7578084926020946040528339810103126200014257516001600160a01b038116908190036200014257600180558015620000fd57608052620000713362000147565b506200007d33620001c7565b50620000893362000269565b5060405160208101904282524460408201523360601b606082015260548152608081019281841090841117620000e75782604052519020600455612111908162000307823960805181818161055a01528181610a9d0152610be30152f35b634e487b7160e01b600052604160045260246000fd5b60405162461bcd60e51b815260206004820152601560248201527f496e76616c696420746f6b656e206164647265737300000000000000000000006044820152606490fd5b600080fd5b6001600160a01b031660008181527fad3228b676f7d3cd4284a5443f17f1962b36e491b30a40b2405849e597ba5fb5602052604081205490919060ff16620001c357818052816020526040822081835260205260408220600160ff198254161790553391600080516020620024188339815191528180a4600190565b5090565b6001600160a01b031660008181527f7d7ffb7a348e1c6a02869081a26547b49160dd3df72d1d75a570eb9b698292ec60205260408120549091907fa49807205ce4d355092ef5a8a18f56e8913cf4a201fbe287825b095693c217759060ff166200026457808352826020526040832082845260205260408320600160ff1982541617905560008051602062002418833981519152339380a4600190565b505090565b6001600160a01b031660008181527fee57cd81e84075558e8fcc182a1f4393f91fc97f963a136e66b7f949a62f319f60205260408120549091907f97667070c54ef182b0f5858b034beac1b6f3089aa2d3188bb1e8929f4fa9b9299060ff166200026457808352826020526040832082845260205260408320600160ff1982541617905560008051602062002418833981519152339380a460019056fe608080604052600436101561001357600080fd5b60003560e01c90816301ffc9a7146119275750806302e060c6146118b857806303463dd914611506578063141961bc146113ed57806316f43dd4146113cf578063248a9ca3146113a05780632f2ff15d1461136157806335abd49b1461131757806335f3ad7a1461126057806336568abe1461121957806339a2eb2a14610ddc5780633b7b618814610acc5780634eb53f9914610a875780635598f8cc1461071e5780635c975abb146106fb5780636d1b229d146104b557806375b238fc1461047a5780638c6ab2381461040757806391d14854146103ba578063a217fddf1461039e578063b5801d911461019d578063d547741f1461015c5763f5b541a61461011c57600080fd5b346101575760003660031901126101575760206040517f97667070c54ef182b0f5858b034beac1b6f3089aa2d3188bb1e8929f4fa9b9298152f35b600080fd5b346101575760403660031901126101575761019b60043561017b61197a565b90806000526000602052610196600160406000200154611c08565b611cca565b005b34610157576040366003190112610157576004356101b961197a565b3360009081527fee57cd81e84075558e8fcc182a1f4393f91fc97f963a136e66b7f949a62f319f602090815260409091205491929160ff16801561035c575b15610327578115158061031b575b61020f90611e72565b60008281526006825260408082206001600160a01b03909516808352948352902054156102de578160005260068152604060002083600052815260ff600260406000200154166102a657816000526006815260406000209083600052526002604060002001600160ff198254161790557fd8e2a0fb3631991dd34ac6af97a04f3485326d9f70043bb29f54e66f0c5577c6600080a3005b6064906040519062461bcd60e51b825260048201526011602482015270105b1c9958591e4818dbdb5c1b195d1959607a1b6044820152fd5b6064906040519062461bcd60e51b82526004820152601660248201527555736572206e6f742070617274696369706174696e6760501b6044820152fd5b50600354821115610206565b6064906040519062461bcd60e51b82526004820152600e60248201526d139bdd08185d5d1a1bdc9a5e995960921b6044820152fd5b507fa49807205ce4d355092ef5a8a18f56e8913cf4a201fbe287825b095693c2177560005260008152604060002033600052815260ff604060002054166101f8565b3461015757600036600319011261015757602060405160008152f35b34610157576040366003190112610157576103d361197a565b600435600052600060205260406000209060018060a01b0316600052602052602060ff604060002054166040519015158152f35b34610157576020366003190112610157576004358015158061046e575b61042d90611e72565b600052600760205261046a61044f610456604060002060405192838092611f83565b03826119c9565b604051918291602083526020830190611bcb565b0390f35b50600354811115610424565b346101575760003660031901126101575760206040517fa49807205ce4d355092ef5a8a18f56e8913cf4a201fbe287825b095693c217758152f35b34610157576020806003193601126101575760043590811515806106ef575b6104dd90611e72565b6104e5611f60565b81600052600581526040600020600d81019081549060ff821660038110156106d95760010361069d5760ff8260081c16610660576007810154600e9190910181905561ffff199091166101021790915560405163a9059cbb60e01b815261dead600482015260248101829052828160448160007f00000000000000000000000000000000000000000000000000000000000000006001600160a01b03165af190811561065457600091610627575b50156105f45790827f8bc81353cf6671d259d22783e39ed930583c86f3f4cf7e981298e6a872dfb15d827f7e5e6bfcab605d9254dbb5c3b4c8bd65ee4705bb30b1fc434d9651d24d368f3694604051908152a260405160028152a260018055005b60405162461bcd60e51b815260048101839052600b60248201526a109d5c9b8819985a5b195960aa1b6044820152606490fd5b6106479150833d851161064d575b61063f81836119c9565b810190611f48565b84610593565b503d610635565b6040513d6000823e3d90fd5b60405162461bcd60e51b8152600481018590526015602482015274151bdad95b9cc8185b1c9958591e48189d5c9b9959605a1b6044820152606490fd5b60405162461bcd60e51b815260048101859052601460248201527315da5b9b995c9cc81b9bdd081cd95b1958dd195960621b6044820152606490fd5b634e487b7160e01b600052602160045260246000fd5b506003548211156104d4565b3461015757600036600319011261015757602060ff600254166040519015158152f35b34610157576020366003190112610157576000610200604051610740816119ac565b82815260606020820152606060408201526060808201528260808201528260a08201528260c08201528260e082015282610100820152826101208201528261014082015260606101608201526060610180820152826101a0820152826101c0820152826101e0820152015260043580151580610a7b575b6107c090611e72565b60005260056020526040600020604051906107da826119ac565b805482526107ea60018201611a94565b60208301526107fb60028201611a94565b604083015261080c60038201611a94565b606083015260048101546080830152600581015460a0830152600681015460c0830152600781015460e083015260088101546101008301526009810154610120830152600a810154610140830152600b81015461086881611a42565b9061087660405192836119c9565b80825260208201600b840160005260206000206000915b838310610a5e57505050506101608301526040516108b28161044f81600c8601611f83565b610180830152600d81015490600360ff831610156106d95760ff8281600f94166101a086015260081c1615156101c0840152600e8101546101e08401520154610200820152604051602081528151602082015261095261093c61092660208501516102206040860152610240850190611b3a565b6040850151848203601f19016060860152611b3a565b6060840151838203601f19016080850152611b3a565b91608081015160a083015260a081015160c083015260c081015160e083015260e081015161010083015261010081015161012083015261012081015161014083015261014081015161016083015261016081015192601f1983820301610180840152835180825260208201916020808360051b8301019601926000915b838310610a31578680876102006109f88c610180840151601f19868303016101a0870152611bcb565b91610a0d6101a08201516101c0860190611b7a565b6101c081015115156101e08501526101e08101518285015201516102208301520390f35b9091929396602080610a4f600193601f198682030187528b51611b3a565b990193019301919392906109cf565b600160208192610a6d85611a94565b81520192019201919061088d565b506003548111156107b7565b34610157576000366003190112610157576040517f00000000000000000000000000000000000000000000000000000000000000006001600160a01b03168152602090f35b3461015757610ada36611b87565b90610ae3611f60565b60ff60025416610dca5780151580610dbe575b610aff90611e72565b8060005260206005815260406000209060ff600d8301541660038110156106d957610b2a9015611ebe565b600882015442101580610db0575b15610d6c576006820180548510610d30576007830190610b59868354611f00565b600585015410610cf85784600052600683526040600020336000528352604060002093845415610cc6575b50548015610cb057600190860493610b9d878254611f00565b815501610bab848254611f00565b9055610bb8858254611f00565b90556040516323b872dd60e01b815233600482015230602482015260448101859052818160648160007f00000000000000000000000000000000000000000000000000000000000000006001600160a01b03165af190811561065457600091610c93575b5015610c57576040519384528301527fbf3a2998bf95effb9622e3aeea768ec248f238862fd602100075c04d21caa23c60403393a360018055005b6064906040519062461bcd60e51b825260048201526015602482015274151bdad95b881d1c985b9cd9995c8819985a5b1959605a1b6044820152fd5b610caa9150823d841161064d5761063f81836119c9565b85610c1c565b634e487b7160e01b600052601260045260246000fd5b600a908660005260078552610cdf336040600020611f0d565b01610cea8154611d3f565b905542600385015586610b84565b60405162461bcd60e51b815260048101849052601060248201526f0457863656564732068617264206361760841b6044820152606490fd5b60405162461bcd60e51b8152600481018390526014602482015273416d6f756e742062656c6f77206d696e696d756d60601b6044820152606490fd5b6064906040519062461bcd60e51b82526004820152601860248201527f43616d706169676e206e6f7420696e2070726f677265737300000000000000006044820152fd5b506009820154421115610b38565b50600354811115610af6565b60405163d93c066560e01b8152600490fd5b346101575760203660031901126101575760043515158061120b575b610e0190611e72565b610e09611f60565b6004356000526005602052604060002060ff80600d8301541660038110156106d957610e359015611ebe565b60098201544211156111ce576007820154906004830154821061119257600435600052600760205261044f610e74604060002060405192838092611f83565b610e7e8151611fc9565b60009160005b8151811015610f055760043560009081526006602052604090206001600160a01b039081610eb28486611e5e565b51166000526020528560026040600020015416610ed9575b50610ed490611d3f565b610e84565b8194610efe91610eec610ed49486611e5e565b5116610ef88287611e5e565b52611d3f565b9390610eca565b5050929150610f1381611fc9565b9260005b82811061116b57505050819082511561112657600b840154925180841161111e575b50600454610f4681611d3f565b600455604051906020820192428452446040840152436060840152600435608084015260a083015260c082015260c0815260e0810181811067ffffffffffffffff82111761110857604052519020916000925b81841061103257600d8501805460ff1916600117905543600f86015560408051818152907fa15551854f54807a0f0db8e3b861523fd994877676824ed8603655ab18ca6dd890610fee908301600c8901611f83565b9143602082015280600435930390a2604051600181527f7e5e6bfcab605d9254dbb5c3b4c8bd65ee4705bb30b1fc434d9651d24d368f36602060043592a260018055005b61104861103f8583611f00565b84600435611ffb565b9061105682600c8801611f0d565b835160001981019081116110f25761106d90611fc9565b9560009360005b86518110156110d8576001600160a01b0385811690611093838a611e5e565b5116036110a9575b6110a490611d3f565b611074565b946110a4906110d0906001600160a01b036110c4898b611e5e565b5116610ef8828d611e5e565b95905061109b565b50959450959092506110eb915092611d3f565b9290610f99565b634e487b7160e01b600052601160045260246000fd5b634e487b7160e01b600052604160045260246000fd5b925084610f39565b60405162461bcd60e51b815260206004820152601860248201527f4e6f20656c696769626c65207061727469636970616e747300000000000000006044820152606490fd5b61118d906001600160a01b036111818285611e5e565b5116610ef88288611e5e565b610f17565b60405162461bcd60e51b815260206004820152601460248201527314dbd99d0818d85c081b9bdd081c995858da195960621b6044820152606490fd5b60405162461bcd60e51b815260206004820152601560248201527443616d706169676e207374696c6c2061637469766560581b6044820152606490fd5b506003546004351115610df8565b346101575760403660031901126101575761123261197a565b336001600160a01b0382160361124e5761019b90600435611cca565b60405163334bd91960e11b8152600490fd5b346101575760403660031901126101575761127961197a565b6000606060405161128981611990565b8281528260208201528260408201520152600435600052600660205260406000209060018060a01b0316600052602052608060406000206040516112cc81611990565b8154918282526001810154602083019081526060600360ff60028501541693604086019415158552015493019283526040519384525160208401525115156040830152516060820152f35b346101575761132536611b87565b906000526007602052604060002080548210156101575760209161134891611b9d565b905460405160039290921b1c6001600160a01b03168152f35b346101575760403660031901126101575761019b60043561138061197a565b9080600052600060205261139b600160406000200154611c08565b611c4c565b346101575760203660031901126101575760043560005260006020526020600160406000200154604051908152f35b34610157576000366003190112610157576020600354604051908152f35b34610157576020366003190112610157576004356000526005602052604060002080546001820161141d90611a94565b9161142a60028201611a94565b61143660038301611a94565b91600481015492600582015460068301546007840154600885015490600986015492600a87015494600d88015496600e89015498600f0154996040519d8e9d8e528d6101e0908160208201520161148c91611b3a565b8d810360408f015261149d91611b3a565b8c810360608e01526114ae91611b3a565b9960808c015260a08b015260c08a015260e0890152610100880152610120870152610140860152610160850160ff8216906114e891611b7a565b60081c60ff1615156101808501526101a08401526101c08301520390f35b34610157576101203660031901126101575767ffffffffffffffff600435818111610157576115399036906004016119eb565b906024918235828111610157576115549036906004016119eb565b604480358481116101575761156d9036906004016119eb565b610104359185831161015757366023840112156101575782600401359261159384611a42565b936115a160405195866119c9565b808552602097898987019260051b84010192368411610157578a8101925b8484106118925750505050507fa49807205ce4d355092ef5a8a18f56e8913cf4a201fbe287825b095693c217758060005260008752604060002033600052875260ff6040600020541615611876575060c435904282111561183f5760e43592828411156118095760643590811515806117fe575b156117cc5760a4359283156117925750928899949192600599936116988a989661168f6116869b611665600354611d3f565b9e8f998a6003558a60005252604060002098895560019c8d9c8d8b01611d4e565b60028901611d4e565b60038701611d4e565b60048501556084356005850155600684015560088301556009820155600d8101805460ff19169055600b01936000905b611712575b878787817fc04c663886cae794dc52158f70fe6c8ee3b0140d4f48647282f9b693ff688a6560405185815280611707339588830190611b3a565b0390a3604051908152f35b815181101561178d576117258183611e5e565b518554600160401b8110156117785780866117439201885587611b9d565b611763579161175761175c92879594611d4e565b611d3f565b90916116c8565b84634e487b7160e01b60005260006004526000fd5b84634e487b7160e01b60005260416004526000fd5b6116cd565b8974125b9d985b1a59081d1a58dad95d08185b5bdd5b9d605a1b60649260158e6040519462461bcd60e51b86526004860152840152820152fd5b60405162461bcd60e51b8152600481018a9052600c818c01526b496e76616c6964206361707360a01b81850152606490fd5b508160843511611633565b60405162461bcd60e51b8152600481018990526010818b01526f496e76616c696420656e64206461746560801b81840152606490fd5b8671496e76616c6964207374617274206461746560701b60649260128b6040519462461bcd60e51b86526004860152840152820152fd5b60405163e2517d3f60e01b815233600482015280890191909152fd5b8335838111610157578b916118ad83928f36918701016119eb565b8152019301926115bf565b34610157576040366003190112610157576118d161197a565b600435600052600660205260406000209060018060a01b031660005260205260806040600020805490600181015490600360ff600283015416910154916040519384526020840152151560408301526060820152f35b34610157576020366003190112610157576004359063ffffffff60e01b821680920361015757602091637965db0b60e01b8114908115611969575b5015158152f35b6301ffc9a760e01b14905083611962565b602435906001600160a01b038216820361015757565b6080810190811067ffffffffffffffff82111761110857604052565b610220810190811067ffffffffffffffff82111761110857604052565b90601f8019910116810190811067ffffffffffffffff82111761110857604052565b81601f820112156101575780359067ffffffffffffffff82116111085760405192611a20601f8401601f1916602001856119c9565b8284526020838301011161015757816000926020809301838601378301015290565b67ffffffffffffffff81116111085760051b60200190565b90600182811c92168015611a8a575b6020831014611a7457565b634e487b7160e01b600052602260045260246000fd5b91607f1691611a69565b9060405191826000825492611aa884611a5a565b908184526001948581169081600014611b175750600114611ad4575b5050611ad2925003836119c9565b565b9093915060005260209081600020936000915b818310611aff575050611ad293508201013880611ac4565b85548884018501529485019487945091830191611ae7565b915050611ad294506020925060ff191682840152151560051b8201013880611ac4565b919082519283825260005b848110611b66575050826000602080949584010152601f8019910116010190565b602081830181015184830182015201611b45565b9060038210156106d95752565b6040906003190112610157576004359060243590565b8054821015611bb55760005260206000200190600090565b634e487b7160e01b600052603260045260246000fd5b90815180825260208080930193019160005b828110611beb575050505090565b83516001600160a01b031685529381019392810192600101611bdd565b80600052600060205260406000203360005260205260ff6040600020541615611c2e5750565b6044906040519063e2517d3f60e01b82523360048301526024820152fd5b9060009180835282602052604083209160018060a01b03169182845260205260ff60408420541615600014611cc557808352826020526040832082845260205260408320600160ff198254161790557f2f8788117e7eff1d82e926ec794901d17c78024a50270940304540a733656f0d339380a4600190565b505090565b9060009180835282602052604083209160018060a01b03169182845260205260ff604084205416600014611cc55780835282602052604083208284526020526040832060ff1981541690557ff6391f5c32d9c69d2a47ea670b442974b53935d1edc7fd64eb21e047a839171b339380a4600190565b60001981146110f25760010190565b919091825167ffffffffffffffff811161110857611d6c8254611a5a565b601f8111611e16575b50602080601f8311600114611db2575081929394600092611da7575b50508160011b916000199060031b1c1916179055565b015190503880611d91565b90601f198316958460005282600020926000905b888210611dfe57505083600195969710611de5575b505050811b019055565b015160001960f88460031b161c19169055388080611ddb565b80600185968294968601518155019501930190611dc6565b600083815260208120601f840160051c81019260208510611e54575b601f0160051c01915b828110611e49575050611d75565b818155600101611e3b565b9092508290611e32565b8051821015611bb55760209160051b010190565b15611e7957565b60405162461bcd60e51b815260206004820152601760248201527f43616d706169676e20646f6573206e6f742065786973740000000000000000006044820152606490fd5b15611ec557565b60405162461bcd60e51b815260206004820152601360248201527243616d706169676e206e6f742061637469766560681b6044820152606490fd5b919082018092116110f257565b8054600160401b81101561110857611f2a91600182018155611b9d565b819291549060031b9160018060a01b03809116831b921b1916179055565b90816020910312610157575180151581036101575790565b600260015414611f71576002600155565b604051633ee5aeb560e01b8152600490fd5b90815480825260208092019260005281600020916000905b828210611fa9575050505090565b83546001600160a01b031685529384019360019384019390910190611f9b565b90611fd382611a42565b611fe060405191826119c9565b8281528092611ff1601f1991611a42565b0190602036910137565b600093845b83518610156120515761204561204b918460005260016020600681526040908160002090838060a01b036120348d8c611e5e565b511660005252600020015490611f00565b95611d3f565b94612000565b91939094508115610cb0570690600091825b82518110156120bf5784600052612094602094600686526001604080600020828060a01b039889612034888b611e5e565b938483106120ab57506120a690611d3f565b612063565b94509190506120ba9250611e5e565b511690565b5050915050805115611bb557602001516001600160a01b03169056fea26469706673582212202931fb1b310a7daea130cb474aaf0262929e0cbb38a7eb0635660fb5fd47e87564736f6c634300081400332f8788117e7eff1d82e926ec794901d17c78024a50270940304540a733656f0d","opcodes":"PUSH1 0xA0 CALLVALUE PUSH3 0x142 JUMPI PUSH1 0x1 PUSH1 0x1 PUSH1 0x40 SHL SUB SWAP1 PUSH1 0x1F PUSH3 0x2438 CODESIZE DUP2 SWAP1 SUB SWAP2 DUP3 ADD PUSH1 0x1F NOT AND DUP4 ADD SWAP2 DUP5 DUP4 GT DUP5 DUP5 LT OR PUSH3 0xE7 JUMPI DUP1 DUP5 SWAP3 PUSH1 0x20 SWAP5 PUSH1 0x40 MSTORE DUP4 CODECOPY DUP2 ADD SUB SLT PUSH3 0x142 JUMPI MLOAD PUSH1 0x1 PUSH1 0x1 PUSH1 0xA0 SHL SUB DUP2 AND SWAP1 DUP2 SWAP1 SUB PUSH3 0x142 JUMPI PUSH1 0x1 DUP1 SSTORE DUP1 ISZERO PUSH3 0xFD JUMPI PUSH1 0x80 MSTORE PUSH3 0x71 CALLER PUSH3 0x147 JUMP JUMPDEST POP PUSH3 0x7D CALLER PUSH3 0x1C7 JUMP JUMPDEST POP PUSH3 0x89 CALLER PUSH3 0x269 JUMP JUMPDEST POP PUSH1 0x40 MLOAD PUSH1 0x20 DUP2 ADD SWAP1 TIMESTAMP DUP3 MSTORE PREVRANDAO PUSH1 0x40 DUP3 ADD MSTORE CALLER PUSH1 0x60 SHL PUSH1 0x60 DUP3 ADD MSTORE PUSH1 0x54 DUP2 MSTORE PUSH1 0x80 DUP2 ADD SWAP3 DUP2 DUP5 LT SWAP1 DUP5 GT OR PUSH3 0xE7 JUMPI DUP3 PUSH1 0x40 MSTORE MLOAD SWAP1 KECCAK256 PUSH1 0x4 SSTORE PUSH2 0x2111 SWAP1 DUP2 PUSH3 0x307 DUP3 CODECOPY PUSH1 0x80 MLOAD DUP2 DUP2 DUP2 PUSH2 0x55A ADD MSTORE DUP2 DUP2 PUSH2 0xA9D ADD MSTORE PUSH2 0xBE3 ADD MSTORE RETURN JUMPDEST PUSH4 0x4E487B71 PUSH1 0xE0 SHL PUSH1 0x0 MSTORE PUSH1 0x41 PUSH1 0x4 MSTORE PUSH1 0x24 PUSH1 0x0 REVERT JUMPDEST PUSH1 0x40 MLOAD PUSH3 0x461BCD PUSH1 0xE5 SHL DUP2 MSTORE PUSH1 0x20 PUSH1 0x4 DUP3 ADD MSTORE PUSH1 0x15 PUSH1 0x24 DUP3 ADD MSTORE PUSH32 0x496E76616C696420746F6B656E20616464726573730000000000000000000000 PUSH1 0x44 DUP3 ADD MSTORE PUSH1 0x64 SWAP1 REVERT JUMPDEST PUSH1 0x0 DUP1 REVERT JUMPDEST PUSH1 0x1 PUSH1 0x1 PUSH1 0xA0 SHL SUB AND PUSH1 0x0 DUP2 DUP2 MSTORE PUSH32 0xAD3228B676F7D3CD4284A5443F17F1962B36E491B30A40B2405849E597BA5FB5 PUSH1 0x20 MSTORE PUSH1 0x40 DUP2 KECCAK256 SLOAD SWAP1 SWAP2 SWAP1 PUSH1 0xFF AND PUSH3 0x1C3 JUMPI DUP2 DUP1 MSTORE DUP2 PUSH1 0x20 MSTORE PUSH1 0x40 DUP3 KECCAK256 DUP2 DUP4 MSTORE PUSH1 0x20 MSTORE PUSH1 0x40 DUP3 KECCAK256 PUSH1 0x1 PUSH1 0xFF NOT DUP3 SLOAD AND OR SWAP1 SSTORE CALLER SWAP2 PUSH1 0x0 DUP1 MLOAD PUSH1 0x20 PUSH3 0x2418 DUP4 CODECOPY DUP2 MLOAD SWAP2 MSTORE DUP2 DUP1 LOG4 PUSH1 0x1 SWAP1 JUMP JUMPDEST POP SWAP1 JUMP JUMPDEST PUSH1 0x1 PUSH1 0x1 PUSH1 0xA0 SHL SUB AND PUSH1 0x0 DUP2 DUP2 MSTORE PUSH32 0x7D7FFB7A348E1C6A02869081A26547B49160DD3DF72D1D75A570EB9B698292EC PUSH1 0x20 MSTORE PUSH1 0x40 DUP2 KECCAK256 SLOAD SWAP1 SWAP2 SWAP1 PUSH32 0xA49807205CE4D355092EF5A8A18F56E8913CF4A201FBE287825B095693C21775 SWAP1 PUSH1 0xFF AND PUSH3 0x264 JUMPI DUP1 DUP4 MSTORE DUP3 PUSH1 0x20 MSTORE PUSH1 0x40 DUP4 KECCAK256 DUP3 DUP5 MSTORE PUSH1 0x20 MSTORE PUSH1 0x40 DUP4 KECCAK256 PUSH1 0x1 PUSH1 0xFF NOT DUP3 SLOAD AND OR SWAP1 SSTORE PUSH1 0x0 DUP1 MLOAD PUSH1 0x20 PUSH3 0x2418 DUP4 CODECOPY DUP2 MLOAD SWAP2 MSTORE CALLER SWAP4 DUP1 LOG4 PUSH1 0x1 SWAP1 JUMP JUMPDEST POP POP SWAP1 JUMP JUMPDEST PUSH1 0x1 PUSH1 0x1 PUSH1 0xA0 SHL SUB AND PUSH1 0x0 DUP2 DUP2 MSTORE PUSH32 0xEE57CD81E84075558E8FCC182A1F4393F91FC97F963A136E66B7F949A62F319F PUSH1 0x20 MSTORE PUSH1 0x40 DUP2 KECCAK256 SLOAD SWAP1 SWAP2 SWAP1 PUSH32 0x97667070C54EF182B0F5858B034BEAC1B6F3089AA2D3188BB1E8929F4FA9B929 SWAP1 PUSH1 0xFF AND PUSH3 0x264 JUMPI DUP1 DUP4 MSTORE DUP3 PUSH1 0x20 MSTORE PUSH1 0x40 DUP4 KECCAK256 DUP3 DUP5 MSTORE PUSH1 0x20 MSTORE PUSH1 0x40 DUP4 KECCAK256 PUSH1 0x1 PUSH1 0xFF NOT DUP3 SLOAD AND OR SWAP1 SSTORE PUSH1 0x0 DUP1 MLOAD PUSH1 0x20 PUSH3 0x2418 DUP4 CODECOPY DUP2 MLOAD SWAP2 MSTORE CALLER SWAP4 DUP1 LOG4 PUSH1 0x1 SWAP1 JUMP INVALID PUSH1 0x80 DUP1 PUSH1 0x40 MSTORE PUSH1 0x4 CALLDATASIZE LT ISZERO PUSH2 0x13 JUMPI PUSH1 0x0 DUP1 REVERT JUMPDEST PUSH1 0x0 CALLDATALOAD PUSH1 0xE0 SHR SWAP1 DUP2 PUSH4 0x1FFC9A7 EQ PUSH2 0x1927 JUMPI POP DUP1 PUSH4 0x2E060C6 EQ PUSH2 0x18B8 JUMPI DUP1 PUSH4 0x3463DD9 EQ PUSH2 0x1506 JUMPI DUP1 PUSH4 0x141961BC EQ PUSH2 0x13ED JUMPI DUP1 PUSH4 0x16F43DD4 EQ PUSH2 0x13CF JUMPI DUP1 PUSH4 0x248A9CA3 EQ PUSH2 0x13A0 JUMPI DUP1 PUSH4 0x2F2FF15D EQ PUSH2 0x1361 JUMPI DUP1 PUSH4 0x35ABD49B EQ PUSH2 0x1317 JUMPI DUP1 PUSH4 0x35F3AD7A EQ PUSH2 0x1260 JUMPI DUP1 PUSH4 0x36568ABE EQ PUSH2 0x1219 JUMPI DUP1 PUSH4 0x39A2EB2A EQ PUSH2 0xDDC JUMPI DUP1 PUSH4 0x3B7B6188 EQ PUSH2 0xACC JUMPI DUP1 PUSH4 0x4EB53F99 EQ PUSH2 0xA87 JUMPI DUP1 PUSH4 0x5598F8CC EQ PUSH2 0x71E JUMPI DUP1 PUSH4 0x5C975ABB EQ PUSH2 0x6FB JUMPI DUP1 PUSH4 0x6D1B229D EQ PUSH2 0x4B5 JUMPI DUP1 PUSH4 0x75B238FC EQ PUSH2 0x47A JUMPI DUP1 PUSH4 0x8C6AB238 EQ PUSH2 0x407 JUMPI DUP1 PUSH4 0x91D14854 EQ PUSH2 0x3BA JUMPI DUP1 PUSH4 0xA217FDDF EQ PUSH2 0x39E JUMPI DUP1 PUSH4 0xB5801D91 EQ PUSH2 0x19D JUMPI DUP1 PUSH4 0xD547741F EQ PUSH2 0x15C JUMPI PUSH4 0xF5B541A6 EQ PUSH2 0x11C JUMPI PUSH1 0x0 DUP1 REVERT JUMPDEST CALLVALUE PUSH2 0x157 JUMPI PUSH1 0x0 CALLDATASIZE PUSH1 0x3 NOT ADD SLT PUSH2 0x157 JUMPI PUSH1 0x20 PUSH1 0x40 MLOAD PUSH32 0x97667070C54EF182B0F5858B034BEAC1B6F3089AA2D3188BB1E8929F4FA9B929 DUP2 MSTORE RETURN JUMPDEST PUSH1 0x0 DUP1 REVERT JUMPDEST CALLVALUE PUSH2 0x157 JUMPI PUSH1 0x40 CALLDATASIZE PUSH1 0x3 NOT ADD SLT PUSH2 0x157 JUMPI PUSH2 0x19B PUSH1 0x4 CALLDATALOAD PUSH2 0x17B PUSH2 0x197A JUMP JUMPDEST SWAP1 DUP1 PUSH1 0x0 MSTORE PUSH1 0x0 PUSH1 0x20 MSTORE PUSH2 0x196 PUSH1 0x1 PUSH1 0x40 PUSH1 0x0 KECCAK256 ADD SLOAD PUSH2 0x1C08 JUMP JUMPDEST PUSH2 0x1CCA JUMP JUMPDEST STOP JUMPDEST CALLVALUE PUSH2 0x157 JUMPI PUSH1 0x40 CALLDATASIZE PUSH1 0x3 NOT ADD SLT PUSH2 0x157 JUMPI PUSH1 0x4 CALLDATALOAD PUSH2 0x1B9 PUSH2 0x197A JUMP JUMPDEST CALLER PUSH1 0x0 SWAP1 DUP2 MSTORE PUSH32 0xEE57CD81E84075558E8FCC182A1F4393F91FC97F963A136E66B7F949A62F319F PUSH1 0x20 SWAP1 DUP2 MSTORE PUSH1 0x40 SWAP1 SWAP2 KECCAK256 SLOAD SWAP2 SWAP3 SWAP2 PUSH1 0xFF AND DUP1 ISZERO PUSH2 0x35C JUMPI JUMPDEST ISZERO PUSH2 0x327 JUMPI DUP2 ISZERO ISZERO DUP1 PUSH2 0x31B JUMPI JUMPDEST PUSH2 0x20F SWAP1 PUSH2 0x1E72 JUMP JUMPDEST PUSH1 0x0 DUP3 DUP2 MSTORE PUSH1 0x6 DUP3 MSTORE PUSH1 0x40 DUP1 DUP3 KECCAK256 PUSH1 0x1 PUSH1 0x1 PUSH1 0xA0 SHL SUB SWAP1 SWAP6 AND DUP1 DUP4 MSTORE SWAP5 DUP4 MSTORE SWAP1 KECCAK256 SLOAD ISZERO PUSH2 0x2DE JUMPI DUP2 PUSH1 0x0 MSTORE PUSH1 0x6 DUP2 MSTORE PUSH1 0x40 PUSH1 0x0 KECCAK256 DUP4 PUSH1 0x0 MSTORE DUP2 MSTORE PUSH1 0xFF PUSH1 0x2 PUSH1 0x40 PUSH1 0x0 KECCAK256 ADD SLOAD AND PUSH2 0x2A6 JUMPI DUP2 PUSH1 0x0 MSTORE PUSH1 0x6 DUP2 MSTORE PUSH1 0x40 PUSH1 0x0 KECCAK256 SWAP1 DUP4 PUSH1 0x0 MSTORE MSTORE PUSH1 0x2 PUSH1 0x40 PUSH1 0x0 KECCAK256 ADD PUSH1 0x1 PUSH1 0xFF NOT DUP3 SLOAD AND OR SWAP1 SSTORE PUSH32 0xD8E2A0FB3631991DD34AC6AF97A04F3485326D9F70043BB29F54E66F0C5577C6 PUSH1 0x0 DUP1 LOG3 STOP JUMPDEST PUSH1 0x64 SWAP1 PUSH1 0x40 MLOAD SWAP1 PUSH3 0x461BCD PUSH1 0xE5 SHL DUP3 MSTORE PUSH1 0x4 DUP3 ADD MSTORE PUSH1 0x11 PUSH1 0x24 DUP3 ADD MSTORE PUSH17 0x105B1C9958591E4818DBDB5C1B195D1959 PUSH1 0x7A SHL PUSH1 0x44 DUP3 ADD MSTORE REVERT JUMPDEST PUSH1 0x64 SWAP1 PUSH1 0x40 MLOAD SWAP1 PUSH3 0x461BCD PUSH1 0xE5 SHL DUP3 MSTORE PUSH1 0x4 DUP3 ADD MSTORE PUSH1 0x16 PUSH1 0x24 DUP3 ADD MSTORE PUSH22 0x55736572206E6F742070617274696369706174696E67 PUSH1 0x50 SHL PUSH1 0x44 DUP3 ADD MSTORE REVERT JUMPDEST POP PUSH1 0x3 SLOAD DUP3 GT ISZERO PUSH2 0x206 JUMP JUMPDEST PUSH1 0x64 SWAP1 PUSH1 0x40 MLOAD SWAP1 PUSH3 0x461BCD PUSH1 0xE5 SHL DUP3 MSTORE PUSH1 0x4 DUP3 ADD MSTORE PUSH1 0xE PUSH1 0x24 DUP3 ADD MSTORE PUSH14 0x139BDD08185D5D1A1BDC9A5E9959 PUSH1 0x92 SHL PUSH1 0x44 DUP3 ADD MSTORE REVERT JUMPDEST POP PUSH32 0xA49807205CE4D355092EF5A8A18F56E8913CF4A201FBE287825B095693C21775 PUSH1 0x0 MSTORE PUSH1 0x0 DUP2 MSTORE PUSH1 0x40 PUSH1 0x0 KECCAK256 CALLER PUSH1 0x0 MSTORE DUP2 MSTORE PUSH1 0xFF PUSH1 0x40 PUSH1 0x0 KECCAK256 SLOAD AND PUSH2 0x1F8 JUMP JUMPDEST CALLVALUE PUSH2 0x157 JUMPI PUSH1 0x0 CALLDATASIZE PUSH1 0x3 NOT ADD SLT PUSH2 0x157 JUMPI PUSH1 0x20 PUSH1 0x40 MLOAD PUSH1 0x0 DUP2 MSTORE RETURN JUMPDEST CALLVALUE PUSH2 0x157 JUMPI PUSH1 0x40 CALLDATASIZE PUSH1 0x3 NOT ADD SLT PUSH2 0x157 JUMPI PUSH2 0x3D3 PUSH2 0x197A JUMP JUMPDEST PUSH1 0x4 CALLDATALOAD PUSH1 0x0 MSTORE PUSH1 0x0 PUSH1 0x20 MSTORE PUSH1 0x40 PUSH1 0x0 KECCAK256 SWAP1 PUSH1 0x1 DUP1 PUSH1 0xA0 SHL SUB AND PUSH1 0x0 MSTORE PUSH1 0x20 MSTORE PUSH1 0x20 PUSH1 0xFF PUSH1 0x40 PUSH1 0x0 KECCAK256 SLOAD AND PUSH1 0x40 MLOAD SWAP1 ISZERO ISZERO DUP2 MSTORE RETURN JUMPDEST CALLVALUE PUSH2 0x157 JUMPI PUSH1 0x20 CALLDATASIZE PUSH1 0x3 NOT ADD SLT PUSH2 0x157 JUMPI PUSH1 0x4 CALLDATALOAD DUP1 ISZERO ISZERO DUP1 PUSH2 0x46E JUMPI JUMPDEST PUSH2 0x42D SWAP1 PUSH2 0x1E72 JUMP JUMPDEST PUSH1 0x0 MSTORE PUSH1 0x7 PUSH1 0x20 MSTORE PUSH2 0x46A PUSH2 0x44F PUSH2 0x456 PUSH1 0x40 PUSH1 0x0 KECCAK256 PUSH1 0x40 MLOAD SWAP3 DUP4 DUP1 SWAP3 PUSH2 0x1F83 JUMP JUMPDEST SUB DUP3 PUSH2 0x19C9 JUMP JUMPDEST PUSH1 0x40 MLOAD SWAP2 DUP3 SWAP2 PUSH1 0x20 DUP4 MSTORE PUSH1 0x20 DUP4 ADD SWAP1 PUSH2 0x1BCB JUMP JUMPDEST SUB SWAP1 RETURN JUMPDEST POP PUSH1 0x3 SLOAD DUP2 GT ISZERO PUSH2 0x424 JUMP JUMPDEST CALLVALUE PUSH2 0x157 JUMPI PUSH1 0x0 CALLDATASIZE PUSH1 0x3 NOT ADD SLT PUSH2 0x157 JUMPI PUSH1 0x20 PUSH1 0x40 MLOAD PUSH32 0xA49807205CE4D355092EF5A8A18F56E8913CF4A201FBE287825B095693C21775 DUP2 MSTORE RETURN JUMPDEST CALLVALUE PUSH2 0x157 JUMPI PUSH1 0x20 DUP1 PUSH1 0x3 NOT CALLDATASIZE ADD SLT PUSH2 0x157 JUMPI PUSH1 0x4 CALLDATALOAD SWAP1 DUP2 ISZERO ISZERO DUP1 PUSH2 0x6EF JUMPI JUMPDEST PUSH2 0x4DD SWAP1 PUSH2 0x1E72 JUMP JUMPDEST PUSH2 0x4E5 PUSH2 0x1F60 JUMP JUMPDEST DUP2 PUSH1 0x0 MSTORE PUSH1 0x5 DUP2 MSTORE PUSH1 0x40 PUSH1 0x0 KECCAK256 PUSH1 0xD DUP2 ADD SWAP1 DUP2 SLOAD SWAP1 PUSH1 0xFF DUP3 AND PUSH1 0x3 DUP2 LT ISZERO PUSH2 0x6D9 JUMPI PUSH1 0x1 SUB PUSH2 0x69D JUMPI PUSH1 0xFF DUP3 PUSH1 0x8 SHR AND PUSH2 0x660 JUMPI PUSH1 0x7 DUP2 ADD SLOAD PUSH1 0xE SWAP2 SWAP1 SWAP2 ADD DUP2 SWAP1 SSTORE PUSH2 0xFFFF NOT SWAP1 SWAP2 AND PUSH2 0x102 OR SWAP1 SWAP2 SSTORE PUSH1 0x40 MLOAD PUSH4 0xA9059CBB PUSH1 0xE0 SHL DUP2 MSTORE PUSH2 0xDEAD PUSH1 0x4 DUP3 ADD MSTORE PUSH1 0x24 DUP2 ADD DUP3 SWAP1 MSTORE DUP3 DUP2 PUSH1 0x44 DUP2 PUSH1 0x0 PUSH32 0x0 PUSH1 0x1 PUSH1 0x1 PUSH1 0xA0 SHL SUB AND GAS CALL SWAP1 DUP2 ISZERO PUSH2 0x654 JUMPI PUSH1 0x0 SWAP2 PUSH2 0x627 JUMPI JUMPDEST POP ISZERO PUSH2 0x5F4 JUMPI SWAP1 DUP3 PUSH32 0x8BC81353CF6671D259D22783E39ED930583C86F3F4CF7E981298E6A872DFB15D DUP3 PUSH32 0x7E5E6BFCAB605D9254DBB5C3B4C8BD65EE4705BB30B1FC434D9651D24D368F36 SWAP5 PUSH1 0x40 MLOAD SWAP1 DUP2 MSTORE LOG2 PUSH1 0x40 MLOAD PUSH1 0x2 DUP2 MSTORE LOG2 PUSH1 0x1 DUP1 SSTORE STOP JUMPDEST PUSH1 0x40 MLOAD PUSH3 0x461BCD PUSH1 0xE5 SHL DUP2 MSTORE PUSH1 0x4 DUP2 ADD DUP4 SWAP1 MSTORE PUSH1 0xB PUSH1 0x24 DUP3 ADD MSTORE PUSH11 0x109D5C9B8819985A5B1959 PUSH1 0xAA SHL PUSH1 0x44 DUP3 ADD MSTORE PUSH1 0x64 SWAP1 REVERT JUMPDEST PUSH2 0x647 SWAP2 POP DUP4 RETURNDATASIZE DUP6 GT PUSH2 0x64D JUMPI JUMPDEST PUSH2 0x63F DUP2 DUP4 PUSH2 0x19C9 JUMP JUMPDEST DUP2 ADD SWAP1 PUSH2 0x1F48 JUMP JUMPDEST DUP5 PUSH2 0x593 JUMP JUMPDEST POP RETURNDATASIZE PUSH2 0x635 JUMP JUMPDEST PUSH1 0x40 MLOAD RETURNDATASIZE PUSH1 0x0 DUP3 RETURNDATACOPY RETURNDATASIZE SWAP1 REVERT JUMPDEST PUSH1 0x40 MLOAD PUSH3 0x461BCD PUSH1 0xE5 SHL DUP2 MSTORE PUSH1 0x4 DUP2 ADD DUP6 SWAP1 MSTORE PUSH1 0x15 PUSH1 0x24 DUP3 ADD MSTORE PUSH21 0x151BDAD95B9CC8185B1C9958591E48189D5C9B9959 PUSH1 0x5A SHL PUSH1 0x44 DUP3 ADD MSTORE PUSH1 0x64 SWAP1 REVERT JUMPDEST PUSH1 0x40 MLOAD PUSH3 0x461BCD PUSH1 0xE5 SHL DUP2 MSTORE PUSH1 0x4 DUP2 ADD DUP6 SWAP1 MSTORE PUSH1 0x14 PUSH1 0x24 DUP3 ADD MSTORE PUSH20 0x15DA5B9B995C9CC81B9BDD081CD95B1958DD1959 PUSH1 0x62 SHL PUSH1 0x44 DUP3 ADD MSTORE PUSH1 0x64 SWAP1 REVERT JUMPDEST PUSH4 0x4E487B71 PUSH1 0xE0 SHL PUSH1 0x0 MSTORE PUSH1 0x21 PUSH1 0x4 MSTORE PUSH1 0x24 PUSH1 0x0 REVERT JUMPDEST POP PUSH1 0x3 SLOAD DUP3 GT ISZERO PUSH2 0x4D4 JUMP JUMPDEST CALLVALUE PUSH2 0x157 JUMPI PUSH1 0x0 CALLDATASIZE PUSH1 0x3 NOT ADD SLT PUSH2 0x157 JUMPI PUSH1 0x20 PUSH1 0xFF PUSH1 0x2 SLOAD AND PUSH1 0x40 MLOAD SWAP1 ISZERO ISZERO DUP2 MSTORE RETURN JUMPDEST CALLVALUE PUSH2 0x157 JUMPI PUSH1 0x20 CALLDATASIZE PUSH1 0x3 NOT ADD SLT PUSH2 0x157 JUMPI PUSH1 0x0 PUSH2 0x200 PUSH1 0x40 MLOAD PUSH2 0x740 DUP2 PUSH2 0x19AC JUMP JUMPDEST DUP3 DUP2 MSTORE PUSH1 0x60 PUSH1 0x20 DUP3 ADD MSTORE PUSH1 0x60 PUSH1 0x40 DUP3 ADD MSTORE PUSH1 0x60 DUP1 DUP3 ADD MSTORE DUP3 PUSH1 0x80 DUP3 ADD MSTORE DUP3 PUSH1 0xA0 DUP3 ADD MSTORE DUP3 PUSH1 0xC0 DUP3 ADD MSTORE DUP3 PUSH1 0xE0 DUP3 ADD MSTORE DUP3 PUSH2 0x100 DUP3 ADD MSTORE DUP3 PUSH2 0x120 DUP3 ADD MSTORE DUP3 PUSH2 0x140 DUP3 ADD MSTORE PUSH1 0x60 PUSH2 0x160 DUP3 ADD MSTORE PUSH1 0x60 PUSH2 0x180 DUP3 ADD MSTORE DUP3 PUSH2 0x1A0 DUP3 ADD MSTORE DUP3 PUSH2 0x1C0 DUP3 ADD MSTORE DUP3 PUSH2 0x1E0 DUP3 ADD MSTORE ADD MSTORE PUSH1 0x4 CALLDATALOAD DUP1 ISZERO ISZERO DUP1 PUSH2 0xA7B JUMPI JUMPDEST PUSH2 0x7C0 SWAP1 PUSH2 0x1E72 JUMP JUMPDEST PUSH1 0x0 MSTORE PUSH1 0x5 PUSH1 0x20 MSTORE PUSH1 0x40 PUSH1 0x0 KECCAK256 PUSH1 0x40 MLOAD SWAP1 PUSH2 0x7DA DUP3 PUSH2 0x19AC JUMP JUMPDEST DUP1 SLOAD DUP3 MSTORE PUSH2 0x7EA PUSH1 0x1 DUP3 ADD PUSH2 0x1A94 JUMP JUMPDEST PUSH1 0x20 DUP4 ADD MSTORE PUSH2 0x7FB PUSH1 0x2 DUP3 ADD PUSH2 0x1A94 JUMP JUMPDEST PUSH1 0x40 DUP4 ADD MSTORE PUSH2 0x80C PUSH1 0x3 DUP3 ADD PUSH2 0x1A94 JUMP JUMPDEST PUSH1 0x60 DUP4 ADD MSTORE PUSH1 0x4 DUP2 ADD SLOAD PUSH1 0x80 DUP4 ADD MSTORE PUSH1 0x5 DUP2 ADD SLOAD PUSH1 0xA0 DUP4 ADD MSTORE PUSH1 0x6 DUP2 ADD SLOAD PUSH1 0xC0 DUP4 ADD MSTORE PUSH1 0x7 DUP2 ADD SLOAD PUSH1 0xE0 DUP4 ADD MSTORE PUSH1 0x8 DUP2 ADD SLOAD PUSH2 0x100 DUP4 ADD MSTORE PUSH1 0x9 DUP2 ADD SLOAD PUSH2 0x120 DUP4 ADD MSTORE PUSH1 0xA DUP2 ADD SLOAD PUSH2 0x140 DUP4 ADD MSTORE PUSH1 0xB DUP2 ADD SLOAD PUSH2 0x868 DUP2 PUSH2 0x1A42 JUMP JUMPDEST SWAP1 PUSH2 0x876 PUSH1 0x40 MLOAD SWAP3 DUP4 PUSH2 0x19C9 JUMP JUMPDEST DUP1 DUP3 MSTORE PUSH1 0x20 DUP3 ADD PUSH1 0xB DUP5 ADD PUSH1 0x0 MSTORE PUSH1 0x20 PUSH1 0x0 KECCAK256 PUSH1 0x0 SWAP2 JUMPDEST DUP4 DUP4 LT PUSH2 0xA5E JUMPI POP POP POP POP PUSH2 0x160 DUP4 ADD MSTORE PUSH1 0x40 MLOAD PUSH2 0x8B2 DUP2 PUSH2 0x44F DUP2 PUSH1 0xC DUP7 ADD PUSH2 0x1F83 JUMP JUMPDEST PUSH2 0x180 DUP4 ADD MSTORE PUSH1 0xD DUP2 ADD SLOAD SWAP1 PUSH1 0x3 PUSH1 0xFF DUP4 AND LT ISZERO PUSH2 0x6D9 JUMPI PUSH1 0xFF DUP3 DUP2 PUSH1 0xF SWAP5 AND PUSH2 0x1A0 DUP7 ADD MSTORE PUSH1 0x8 SHR AND ISZERO ISZERO PUSH2 0x1C0 DUP5 ADD MSTORE PUSH1 0xE DUP2 ADD SLOAD PUSH2 0x1E0 DUP5 ADD MSTORE ADD SLOAD PUSH2 0x200 DUP3 ADD MSTORE PUSH1 0x40 MLOAD PUSH1 0x20 DUP2 MSTORE DUP2 MLOAD PUSH1 0x20 DUP3 ADD MSTORE PUSH2 0x952 PUSH2 0x93C PUSH2 0x926 PUSH1 0x20 DUP6 ADD MLOAD PUSH2 0x220 PUSH1 0x40 DUP7 ADD MSTORE PUSH2 0x240 DUP6 ADD SWAP1 PUSH2 0x1B3A JUMP JUMPDEST PUSH1 0x40 DUP6 ADD MLOAD DUP5 DUP3 SUB PUSH1 0x1F NOT ADD PUSH1 0x60 DUP7 ADD MSTORE PUSH2 0x1B3A JUMP JUMPDEST PUSH1 0x60 DUP5 ADD MLOAD DUP4 DUP3 SUB PUSH1 0x1F NOT ADD PUSH1 0x80 DUP6 ADD MSTORE PUSH2 0x1B3A JUMP JUMPDEST SWAP2 PUSH1 0x80 DUP2 ADD MLOAD PUSH1 0xA0 DUP4 ADD MSTORE PUSH1 0xA0 DUP2 ADD MLOAD PUSH1 0xC0 DUP4 ADD MSTORE PUSH1 0xC0 DUP2 ADD MLOAD PUSH1 0xE0 DUP4 ADD MSTORE PUSH1 0xE0 DUP2 ADD MLOAD PUSH2 0x100 DUP4 ADD MSTORE PUSH2 0x100 DUP2 ADD MLOAD PUSH2 0x120 DUP4 ADD MSTORE PUSH2 0x120 DUP2 ADD MLOAD PUSH2 0x140 DUP4 ADD MSTORE PUSH2 0x140 DUP2 ADD MLOAD PUSH2 0x160 DUP4 ADD MSTORE PUSH2 0x160 DUP2 ADD MLOAD SWAP3 PUSH1 0x1F NOT DUP4 DUP3 SUB ADD PUSH2 0x180 DUP5 ADD MSTORE DUP4 MLOAD DUP1 DUP3 MSTORE PUSH1 0x20 DUP3 ADD SWAP2 PUSH1 0x20 DUP1 DUP4 PUSH1 0x5 SHL DUP4 ADD ADD SWAP7 ADD SWAP3 PUSH1 0x0 SWAP2 JUMPDEST DUP4 DUP4 LT PUSH2 0xA31 JUMPI DUP7 DUP1 DUP8 PUSH2 0x200 PUSH2 0x9F8 DUP13 PUSH2 0x180 DUP5 ADD MLOAD PUSH1 0x1F NOT DUP7 DUP4 SUB ADD PUSH2 0x1A0 DUP8 ADD MSTORE PUSH2 0x1BCB JUMP JUMPDEST SWAP2 PUSH2 0xA0D PUSH2 0x1A0 DUP3 ADD MLOAD PUSH2 0x1C0 DUP7 ADD SWAP1 PUSH2 0x1B7A JUMP JUMPDEST PUSH2 0x1C0 DUP2 ADD MLOAD ISZERO ISZERO PUSH2 0x1E0 DUP6 ADD MSTORE PUSH2 0x1E0 DUP2 ADD MLOAD DUP3 DUP6 ADD MSTORE ADD MLOAD PUSH2 0x220 DUP4 ADD MSTORE SUB SWAP1 RETURN JUMPDEST SWAP1 SWAP2 SWAP3 SWAP4 SWAP7 PUSH1 0x20 DUP1 PUSH2 0xA4F PUSH1 0x1 SWAP4 PUSH1 0x1F NOT DUP7 DUP3 SUB ADD DUP8 MSTORE DUP12 MLOAD PUSH2 0x1B3A JUMP JUMPDEST SWAP10 ADD SWAP4 ADD SWAP4 ADD SWAP2 SWAP4 SWAP3 SWAP1 PUSH2 0x9CF JUMP JUMPDEST PUSH1 0x1 PUSH1 0x20 DUP2 SWAP3 PUSH2 0xA6D DUP6 PUSH2 0x1A94 JUMP JUMPDEST DUP2 MSTORE ADD SWAP3 ADD SWAP3 ADD SWAP2 SWAP1 PUSH2 0x88D JUMP JUMPDEST POP PUSH1 0x3 SLOAD DUP2 GT ISZERO PUSH2 0x7B7 JUMP JUMPDEST CALLVALUE PUSH2 0x157 JUMPI PUSH1 0x0 CALLDATASIZE PUSH1 0x3 NOT ADD SLT PUSH2 0x157 JUMPI PUSH1 0x40 MLOAD PUSH32 0x0 PUSH1 0x1 PUSH1 0x1 PUSH1 0xA0 SHL SUB AND DUP2 MSTORE PUSH1 0x20 SWAP1 RETURN JUMPDEST CALLVALUE PUSH2 0x157 JUMPI PUSH2 0xADA CALLDATASIZE PUSH2 0x1B87 JUMP JUMPDEST SWAP1 PUSH2 0xAE3 PUSH2 0x1F60 JUMP JUMPDEST PUSH1 0xFF PUSH1 0x2 SLOAD AND PUSH2 0xDCA JUMPI DUP1 ISZERO ISZERO DUP1 PUSH2 0xDBE JUMPI JUMPDEST PUSH2 0xAFF SWAP1 PUSH2 0x1E72 JUMP JUMPDEST DUP1 PUSH1 0x0 MSTORE PUSH1 0x20 PUSH1 0x5 DUP2 MSTORE PUSH1 0x40 PUSH1 0x0 KECCAK256 SWAP1 PUSH1 0xFF PUSH1 0xD DUP4 ADD SLOAD AND PUSH1 0x3 DUP2 LT ISZERO PUSH2 0x6D9 JUMPI PUSH2 0xB2A SWAP1 ISZERO PUSH2 0x1EBE JUMP JUMPDEST PUSH1 0x8 DUP3 ADD SLOAD TIMESTAMP LT ISZERO DUP1 PUSH2 0xDB0 JUMPI JUMPDEST ISZERO PUSH2 0xD6C JUMPI PUSH1 0x6 DUP3 ADD DUP1 SLOAD DUP6 LT PUSH2 0xD30 JUMPI PUSH1 0x7 DUP4 ADD SWAP1 PUSH2 0xB59 DUP7 DUP4 SLOAD PUSH2 0x1F00 JUMP JUMPDEST PUSH1 0x5 DUP6 ADD SLOAD LT PUSH2 0xCF8 JUMPI DUP5 PUSH1 0x0 MSTORE PUSH1 0x6 DUP4 MSTORE PUSH1 0x40 PUSH1 0x0 KECCAK256 CALLER PUSH1 0x0 MSTORE DUP4 MSTORE PUSH1 0x40 PUSH1 0x0 KECCAK256 SWAP4 DUP5 SLOAD ISZERO PUSH2 0xCC6 JUMPI JUMPDEST POP SLOAD DUP1 ISZERO PUSH2 0xCB0 JUMPI PUSH1 0x1 SWAP1 DUP7 DIV SWAP4 PUSH2 0xB9D DUP8 DUP3 SLOAD PUSH2 0x1F00 JUMP JUMPDEST DUP2 SSTORE ADD PUSH2 0xBAB DUP5 DUP3 SLOAD PUSH2 0x1F00 JUMP JUMPDEST SWAP1 SSTORE PUSH2 0xBB8 DUP6 DUP3 SLOAD PUSH2 0x1F00 JUMP JUMPDEST SWAP1 SSTORE PUSH1 0x40 MLOAD PUSH4 0x23B872DD PUSH1 0xE0 SHL DUP2 MSTORE CALLER PUSH1 0x4 DUP3 ADD MSTORE ADDRESS PUSH1 0x24 DUP3 ADD MSTORE PUSH1 0x44 DUP2 ADD DUP6 SWAP1 MSTORE DUP2 DUP2 PUSH1 0x64 DUP2 PUSH1 0x0 PUSH32 0x0 PUSH1 0x1 PUSH1 0x1 PUSH1 0xA0 SHL SUB AND GAS CALL SWAP1 DUP2 ISZERO PUSH2 0x654 JUMPI PUSH1 0x0 SWAP2 PUSH2 0xC93 JUMPI JUMPDEST POP ISZERO PUSH2 0xC57 JUMPI PUSH1 0x40 MLOAD SWAP4 DUP5 MSTORE DUP4 ADD MSTORE PUSH32 0xBF3A2998BF95EFFB9622E3AEEA768EC248F238862FD602100075C04D21CAA23C PUSH1 0x40 CALLER SWAP4 LOG3 PUSH1 0x1 DUP1 SSTORE STOP JUMPDEST PUSH1 0x64 SWAP1 PUSH1 0x40 MLOAD SWAP1 PUSH3 0x461BCD PUSH1 0xE5 SHL DUP3 MSTORE PUSH1 0x4 DUP3 ADD MSTORE PUSH1 0x15 PUSH1 0x24 DUP3 ADD MSTORE PUSH21 0x151BDAD95B881D1C985B9CD9995C8819985A5B1959 PUSH1 0x5A SHL PUSH1 0x44 DUP3 ADD MSTORE REVERT JUMPDEST PUSH2 0xCAA SWAP2 POP DUP3 RETURNDATASIZE DUP5 GT PUSH2 0x64D JUMPI PUSH2 0x63F DUP2 DUP4 PUSH2 0x19C9 JUMP JUMPDEST DUP6 PUSH2 0xC1C JUMP JUMPDEST PUSH4 0x4E487B71 PUSH1 0xE0 SHL PUSH1 0x0 MSTORE PUSH1 0x12 PUSH1 0x4 MSTORE PUSH1 0x24 PUSH1 0x0 REVERT JUMPDEST PUSH1 0xA SWAP1 DUP7 PUSH1 0x0 MSTORE PUSH1 0x7 DUP6 MSTORE PUSH2 0xCDF CALLER PUSH1 0x40 PUSH1 0x0 KECCAK256 PUSH2 0x1F0D JUMP JUMPDEST ADD PUSH2 0xCEA DUP2 SLOAD PUSH2 0x1D3F JUMP JUMPDEST SWAP1 SSTORE TIMESTAMP PUSH1 0x3 DUP6 ADD SSTORE DUP7 PUSH2 0xB84 JUMP JUMPDEST PUSH1 0x40 MLOAD PUSH3 0x461BCD PUSH1 0xE5 SHL DUP2 MSTORE PUSH1 0x4 DUP2 ADD DUP5 SWAP1 MSTORE PUSH1 0x10 PUSH1 0x24 DUP3 ADD MSTORE PUSH16 0x4578636565647320686172642063617 PUSH1 0x84 SHL PUSH1 0x44 DUP3 ADD MSTORE PUSH1 0x64 SWAP1 REVERT JUMPDEST PUSH1 0x40 MLOAD PUSH3 0x461BCD PUSH1 0xE5 SHL DUP2 MSTORE PUSH1 0x4 DUP2 ADD DUP4 SWAP1 MSTORE PUSH1 0x14 PUSH1 0x24 DUP3 ADD MSTORE PUSH20 0x416D6F756E742062656C6F77206D696E696D756D PUSH1 0x60 SHL PUSH1 0x44 DUP3 ADD MSTORE PUSH1 0x64 SWAP1 REVERT JUMPDEST PUSH1 0x64 SWAP1 PUSH1 0x40 MLOAD SWAP1 PUSH3 0x461BCD PUSH1 0xE5 SHL DUP3 MSTORE PUSH1 0x4 DUP3 ADD MSTORE PUSH1 0x18 PUSH1 0x24 DUP3 ADD MSTORE PUSH32 0x43616D706169676E206E6F7420696E2070726F67726573730000000000000000 PUSH1 0x44 DUP3 ADD MSTORE REVERT JUMPDEST POP PUSH1 0x9 DUP3 ADD SLOAD TIMESTAMP GT ISZERO PUSH2 0xB38 JUMP JUMPDEST POP PUSH1 0x3 SLOAD DUP2 GT ISZERO PUSH2 0xAF6 JUMP JUMPDEST PUSH1 0x40 MLOAD PUSH4 0xD93C0665 PUSH1 0xE0 SHL DUP2 MSTORE PUSH1 0x4 SWAP1 REVERT JUMPDEST CALLVALUE PUSH2 0x157 JUMPI PUSH1 0x20 CALLDATASIZE PUSH1 0x3 NOT ADD SLT PUSH2 0x157 JUMPI PUSH1 0x4 CALLDATALOAD ISZERO ISZERO DUP1 PUSH2 0x120B JUMPI JUMPDEST PUSH2 0xE01 SWAP1 PUSH2 0x1E72 JUMP JUMPDEST PUSH2 0xE09 PUSH2 0x1F60 JUMP JUMPDEST PUSH1 0x4 CALLDATALOAD PUSH1 0x0 MSTORE PUSH1 0x5 PUSH1 0x20 MSTORE PUSH1 0x40 PUSH1 0x0 KECCAK256 PUSH1 0xFF DUP1 PUSH1 0xD DUP4 ADD SLOAD AND PUSH1 0x3 DUP2 LT ISZERO PUSH2 0x6D9 JUMPI PUSH2 0xE35 SWAP1 ISZERO PUSH2 0x1EBE JUMP JUMPDEST PUSH1 0x9 DUP3 ADD SLOAD TIMESTAMP GT ISZERO PUSH2 0x11CE JUMPI PUSH1 0x7 DUP3 ADD SLOAD SWAP1 PUSH1 0x4 DUP4 ADD SLOAD DUP3 LT PUSH2 0x1192 JUMPI PUSH1 0x4 CALLDATALOAD PUSH1 0x0 MSTORE PUSH1 0x7 PUSH1 0x20 MSTORE PUSH2 0x44F PUSH2 0xE74 PUSH1 0x40 PUSH1 0x0 KECCAK256 PUSH1 0x40 MLOAD SWAP3 DUP4 DUP1 SWAP3 PUSH2 0x1F83 JUMP JUMPDEST PUSH2 0xE7E DUP2 MLOAD PUSH2 0x1FC9 JUMP JUMPDEST PUSH1 0x0 SWAP2 PUSH1 0x0 JUMPDEST DUP2 MLOAD DUP2 LT ISZERO PUSH2 0xF05 JUMPI PUSH1 0x4 CALLDATALOAD PUSH1 0x0 SWAP1 DUP2 MSTORE PUSH1 0x6 PUSH1 0x20 MSTORE PUSH1 0x40 SWAP1 KECCAK256 PUSH1 0x1 PUSH1 0x1 PUSH1 0xA0 SHL SUB SWAP1 DUP2 PUSH2 0xEB2 DUP5 DUP7 PUSH2 0x1E5E JUMP JUMPDEST MLOAD AND PUSH1 0x0 MSTORE PUSH1 0x20 MSTORE DUP6 PUSH1 0x2 PUSH1 0x40 PUSH1 0x0 KECCAK256 ADD SLOAD AND PUSH2 0xED9 JUMPI JUMPDEST POP PUSH2 0xED4 SWAP1 PUSH2 0x1D3F JUMP JUMPDEST PUSH2 0xE84 JUMP JUMPDEST DUP2 SWAP5 PUSH2 0xEFE SWAP2 PUSH2 0xEEC PUSH2 0xED4 SWAP5 DUP7 PUSH2 0x1E5E JUMP JUMPDEST MLOAD AND PUSH2 0xEF8 DUP3 DUP8 PUSH2 0x1E5E JUMP JUMPDEST MSTORE PUSH2 0x1D3F JUMP JUMPDEST SWAP4 SWAP1 PUSH2 0xECA JUMP JUMPDEST POP POP SWAP3 SWAP2 POP PUSH2 0xF13 DUP2 PUSH2 0x1FC9 JUMP JUMPDEST SWAP3 PUSH1 0x0 JUMPDEST DUP3 DUP2 LT PUSH2 0x116B JUMPI POP POP POP DUP2 SWAP1 DUP3 MLOAD ISZERO PUSH2 0x1126 JUMPI PUSH1 0xB DUP5 ADD SLOAD SWAP3 MLOAD DUP1 DUP5 GT PUSH2 0x111E JUMPI JUMPDEST POP PUSH1 0x4 SLOAD PUSH2 0xF46 DUP2 PUSH2 0x1D3F JUMP JUMPDEST PUSH1 0x4 SSTORE PUSH1 0x40 MLOAD SWAP1 PUSH1 0x20 DUP3 ADD SWAP3 TIMESTAMP DUP5 MSTORE PREVRANDAO PUSH1 0x40 DUP5 ADD MSTORE NUMBER PUSH1 0x60 DUP5 ADD MSTORE PUSH1 0x4 CALLDATALOAD PUSH1 0x80 DUP5 ADD MSTORE PUSH1 0xA0 DUP4 ADD MSTORE PUSH1 0xC0 DUP3 ADD MSTORE PUSH1 0xC0 DUP2 MSTORE PUSH1 0xE0 DUP2 ADD DUP2 DUP2 LT PUSH8 0xFFFFFFFFFFFFFFFF DUP3 GT OR PUSH2 0x1108 JUMPI PUSH1 0x40 MSTORE MLOAD SWAP1 KECCAK256 SWAP2 PUSH1 0x0 SWAP3 JUMPDEST DUP2 DUP5 LT PUSH2 0x1032 JUMPI PUSH1 0xD DUP6 ADD DUP1 SLOAD PUSH1 0xFF NOT AND PUSH1 0x1 OR SWAP1 SSTORE NUMBER PUSH1 0xF DUP7 ADD SSTORE PUSH1 0x40 DUP1 MLOAD DUP2 DUP2 MSTORE SWAP1 PUSH32 0xA15551854F54807A0F0DB8E3B861523FD994877676824ED8603655AB18CA6DD8 SWAP1 PUSH2 0xFEE SWAP1 DUP4 ADD PUSH1 0xC DUP10 ADD PUSH2 0x1F83 JUMP JUMPDEST SWAP2 NUMBER PUSH1 0x20 DUP3 ADD MSTORE DUP1 PUSH1 0x4 CALLDATALOAD SWAP4 SUB SWAP1 LOG2 PUSH1 0x40 MLOAD PUSH1 0x1 DUP2 MSTORE PUSH32 0x7E5E6BFCAB605D9254DBB5C3B4C8BD65EE4705BB30B1FC434D9651D24D368F36 PUSH1 0x20 PUSH1 0x4 CALLDATALOAD SWAP3 LOG2 PUSH1 0x1 DUP1 SSTORE STOP JUMPDEST PUSH2 0x1048 PUSH2 0x103F DUP6 DUP4 PUSH2 0x1F00 JUMP JUMPDEST DUP5 PUSH1 0x4 CALLDATALOAD PUSH2 0x1FFB JUMP JUMPDEST SWAP1 PUSH2 0x1056 DUP3 PUSH1 0xC DUP9 ADD PUSH2 0x1F0D JUMP JUMPDEST DUP4 MLOAD PUSH1 0x0 NOT DUP2 ADD SWAP1 DUP2 GT PUSH2 0x10F2 JUMPI PUSH2 0x106D SWAP1 PUSH2 0x1FC9 JUMP JUMPDEST SWAP6 PUSH1 0x0 SWAP4 PUSH1 0x0 JUMPDEST DUP7 MLOAD DUP2 LT ISZERO PUSH2 0x10D8 JUMPI PUSH1 0x1 PUSH1 0x1 PUSH1 0xA0 SHL SUB DUP6 DUP2 AND SWAP1 PUSH2 0x1093 DUP4 DUP11 PUSH2 0x1E5E JUMP JUMPDEST MLOAD AND SUB PUSH2 0x10A9 JUMPI JUMPDEST PUSH2 0x10A4 SWAP1 PUSH2 0x1D3F JUMP JUMPDEST PUSH2 0x1074 JUMP JUMPDEST SWAP5 PUSH2 0x10A4 SWAP1 PUSH2 0x10D0 SWAP1 PUSH1 0x1 PUSH1 0x1 PUSH1 0xA0 SHL SUB PUSH2 0x10C4 DUP10 DUP12 PUSH2 0x1E5E JUMP JUMPDEST MLOAD AND PUSH2 0xEF8 DUP3 DUP14 PUSH2 0x1E5E JUMP JUMPDEST SWAP6 SWAP1 POP PUSH2 0x109B JUMP JUMPDEST POP SWAP6 SWAP5 POP SWAP6 SWAP1 SWAP3 POP PUSH2 0x10EB SWAP2 POP SWAP3 PUSH2 0x1D3F JUMP JUMPDEST SWAP3 SWAP1 PUSH2 0xF99 JUMP JUMPDEST PUSH4 0x4E487B71 PUSH1 0xE0 SHL PUSH1 0x0 MSTORE PUSH1 0x11 PUSH1 0x4 MSTORE PUSH1 0x24 PUSH1 0x0 REVERT JUMPDEST PUSH4 0x4E487B71 PUSH1 0xE0 SHL PUSH1 0x0 MSTORE PUSH1 0x41 PUSH1 0x4 MSTORE PUSH1 0x24 PUSH1 0x0 REVERT JUMPDEST SWAP3 POP DUP5 PUSH2 0xF39 JUMP JUMPDEST PUSH1 0x40 MLOAD PUSH3 0x461BCD PUSH1 0xE5 SHL DUP2 MSTORE PUSH1 0x20 PUSH1 0x4 DUP3 ADD MSTORE PUSH1 0x18 PUSH1 0x24 DUP3 ADD MSTORE PUSH32 0x4E6F20656C696769626C65207061727469636970616E74730000000000000000 PUSH1 0x44 DUP3 ADD MSTORE PUSH1 0x64 SWAP1 REVERT JUMPDEST PUSH2 0x118D SWAP1 PUSH1 0x1 PUSH1 0x1 PUSH1 0xA0 SHL SUB PUSH2 0x1181 DUP3 DUP6 PUSH2 0x1E5E JUMP JUMPDEST MLOAD AND PUSH2 0xEF8 DUP3 DUP9 PUSH2 0x1E5E JUMP JUMPDEST PUSH2 0xF17 JUMP JUMPDEST PUSH1 0x40 MLOAD PUSH3 0x461BCD PUSH1 0xE5 SHL DUP2 MSTORE PUSH1 0x20 PUSH1 0x4 DUP3 ADD MSTORE PUSH1 0x14 PUSH1 0x24 DUP3 ADD MSTORE PUSH20 0x14DBD99D0818D85C081B9BDD081C995858DA1959 PUSH1 0x62 SHL PUSH1 0x44 DUP3 ADD MSTORE PUSH1 0x64 SWAP1 REVERT JUMPDEST PUSH1 0x40 MLOAD PUSH3 0x461BCD PUSH1 0xE5 SHL DUP2 MSTORE PUSH1 0x20 PUSH1 0x4 DUP3 ADD MSTORE PUSH1 0x15 PUSH1 0x24 DUP3 ADD MSTORE PUSH21 0x43616D706169676E207374696C6C20616374697665 PUSH1 0x58 SHL PUSH1 0x44 DUP3 ADD MSTORE PUSH1 0x64 SWAP1 REVERT JUMPDEST POP PUSH1 0x3 SLOAD PUSH1 0x4 CALLDATALOAD GT ISZERO PUSH2 0xDF8 JUMP JUMPDEST CALLVALUE PUSH2 0x157 JUMPI PUSH1 0x40 CALLDATASIZE PUSH1 0x3 NOT ADD SLT PUSH2 0x157 JUMPI PUSH2 0x1232 PUSH2 0x197A JUMP JUMPDEST CALLER PUSH1 0x1 PUSH1 0x1 PUSH1 0xA0 SHL SUB DUP3 AND SUB PUSH2 0x124E JUMPI PUSH2 0x19B SWAP1 PUSH1 0x4 CALLDATALOAD PUSH2 0x1CCA JUMP JUMPDEST PUSH1 0x40 MLOAD PUSH4 0x334BD919 PUSH1 0xE1 SHL DUP2 MSTORE PUSH1 0x4 SWAP1 REVERT JUMPDEST CALLVALUE PUSH2 0x157 JUMPI PUSH1 0x40 CALLDATASIZE PUSH1 0x3 NOT ADD SLT PUSH2 0x157 JUMPI PUSH2 0x1279 PUSH2 0x197A JUMP JUMPDEST PUSH1 0x0 PUSH1 0x60 PUSH1 0x40 MLOAD PUSH2 0x1289 DUP2 PUSH2 0x1990 JUMP JUMPDEST DUP3 DUP2 MSTORE DUP3 PUSH1 0x20 DUP3 ADD MSTORE DUP3 PUSH1 0x40 DUP3 ADD MSTORE ADD MSTORE PUSH1 0x4 CALLDATALOAD PUSH1 0x0 MSTORE PUSH1 0x6 PUSH1 0x20 MSTORE PUSH1 0x40 PUSH1 0x0 KECCAK256 SWAP1 PUSH1 0x1 DUP1 PUSH1 0xA0 SHL SUB AND PUSH1 0x0 MSTORE PUSH1 0x20 MSTORE PUSH1 0x80 PUSH1 0x40 PUSH1 0x0 KECCAK256 PUSH1 0x40 MLOAD PUSH2 0x12CC DUP2 PUSH2 0x1990 JUMP JUMPDEST DUP2 SLOAD SWAP2 DUP3 DUP3 MSTORE PUSH1 0x1 DUP2 ADD SLOAD PUSH1 0x20 DUP4 ADD SWAP1 DUP2 MSTORE PUSH1 0x60 PUSH1 0x3 PUSH1 0xFF PUSH1 0x2 DUP6 ADD SLOAD AND SWAP4 PUSH1 0x40 DUP7 ADD SWAP5 ISZERO ISZERO DUP6 MSTORE ADD SLOAD SWAP4 ADD SWAP3 DUP4 MSTORE PUSH1 0x40 MLOAD SWAP4 DUP5 MSTORE MLOAD PUSH1 0x20 DUP5 ADD MSTORE MLOAD ISZERO ISZERO PUSH1 0x40 DUP4 ADD MSTORE MLOAD PUSH1 0x60 DUP3 ADD MSTORE RETURN JUMPDEST CALLVALUE PUSH2 0x157 JUMPI PUSH2 0x1325 CALLDATASIZE PUSH2 0x1B87 JUMP JUMPDEST SWAP1 PUSH1 0x0 MSTORE PUSH1 0x7 PUSH1 0x20 MSTORE PUSH1 0x40 PUSH1 0x0 KECCAK256 DUP1 SLOAD DUP3 LT ISZERO PUSH2 0x157 JUMPI PUSH1 0x20 SWAP2 PUSH2 0x1348 SWAP2 PUSH2 0x1B9D JUMP JUMPDEST SWAP1 SLOAD PUSH1 0x40 MLOAD PUSH1 0x3 SWAP3 SWAP1 SWAP3 SHL SHR PUSH1 0x1 PUSH1 0x1 PUSH1 0xA0 SHL SUB AND DUP2 MSTORE RETURN JUMPDEST CALLVALUE PUSH2 0x157 JUMPI PUSH1 0x40 CALLDATASIZE PUSH1 0x3 NOT ADD SLT PUSH2 0x157 JUMPI PUSH2 0x19B PUSH1 0x4 CALLDATALOAD PUSH2 0x1380 PUSH2 0x197A JUMP JUMPDEST SWAP1 DUP1 PUSH1 0x0 MSTORE PUSH1 0x0 PUSH1 0x20 MSTORE PUSH2 0x139B PUSH1 0x1 PUSH1 0x40 PUSH1 0x0 KECCAK256 ADD SLOAD PUSH2 0x1C08 JUMP JUMPDEST PUSH2 0x1C4C JUMP JUMPDEST CALLVALUE PUSH2 0x157 JUMPI PUSH1 0x20 CALLDATASIZE PUSH1 0x3 NOT ADD SLT PUSH2 0x157 JUMPI PUSH1 0x4 CALLDATALOAD PUSH1 0x0 MSTORE PUSH1 0x0 PUSH1 0x20 MSTORE PUSH1 0x20 PUSH1 0x1 PUSH1 0x40 PUSH1 0x0 KECCAK256 ADD SLOAD PUSH1 0x40 MLOAD SWAP1 DUP2 MSTORE RETURN JUMPDEST CALLVALUE PUSH2 0x157 JUMPI PUSH1 0x0 CALLDATASIZE PUSH1 0x3 NOT ADD SLT PUSH2 0x157 JUMPI PUSH1 0x20 PUSH1 0x3 SLOAD PUSH1 0x40 MLOAD SWAP1 DUP2 MSTORE RETURN JUMPDEST CALLVALUE PUSH2 0x157 JUMPI PUSH1 0x20 CALLDATASIZE PUSH1 0x3 NOT ADD SLT PUSH2 0x157 JUMPI PUSH1 0x4 CALLDATALOAD PUSH1 0x0 MSTORE PUSH1 0x5 PUSH1 0x20 MSTORE PUSH1 0x40 PUSH1 0x0 KECCAK256 DUP1 SLOAD PUSH1 0x1 DUP3 ADD PUSH2 0x141D SWAP1 PUSH2 0x1A94 JUMP JUMPDEST SWAP2 PUSH2 0x142A PUSH1 0x2 DUP3 ADD PUSH2 0x1A94 JUMP JUMPDEST PUSH2 0x1436 PUSH1 0x3 DUP4 ADD PUSH2 0x1A94 JUMP JUMPDEST SWAP2 PUSH1 0x4 DUP2 ADD SLOAD SWAP3 PUSH1 0x5 DUP3 ADD SLOAD PUSH1 0x6 DUP4 ADD SLOAD PUSH1 0x7 DUP5 ADD SLOAD PUSH1 0x8 DUP6 ADD SLOAD SWAP1 PUSH1 0x9 DUP7 ADD SLOAD SWAP3 PUSH1 0xA DUP8 ADD SLOAD SWAP5 PUSH1 0xD DUP9 ADD SLOAD SWAP7 PUSH1 0xE DUP10 ADD SLOAD SWAP9 PUSH1 0xF ADD SLOAD SWAP10 PUSH1 0x40 MLOAD SWAP14 DUP15 SWAP14 DUP15 MSTORE DUP14 PUSH2 0x1E0 SWAP1 DUP2 PUSH1 0x20 DUP3 ADD MSTORE ADD PUSH2 0x148C SWAP2 PUSH2 0x1B3A JUMP JUMPDEST DUP14 DUP2 SUB PUSH1 0x40 DUP16 ADD MSTORE PUSH2 0x149D SWAP2 PUSH2 0x1B3A JUMP JUMPDEST DUP13 DUP2 SUB PUSH1 0x60 DUP15 ADD MSTORE PUSH2 0x14AE SWAP2 PUSH2 0x1B3A JUMP JUMPDEST SWAP10 PUSH1 0x80 DUP13 ADD MSTORE PUSH1 0xA0 DUP12 ADD MSTORE PUSH1 0xC0 DUP11 ADD MSTORE PUSH1 0xE0 DUP10 ADD MSTORE PUSH2 0x100 DUP9 ADD MSTORE PUSH2 0x120 DUP8 ADD MSTORE PUSH2 0x140 DUP7 ADD MSTORE PUSH2 0x160 DUP6 ADD PUSH1 0xFF DUP3 AND SWAP1 PUSH2 0x14E8 SWAP2 PUSH2 0x1B7A JUMP JUMPDEST PUSH1 0x8 SHR PUSH1 0xFF AND ISZERO ISZERO PUSH2 0x180 DUP6 ADD MSTORE PUSH2 0x1A0 DUP5 ADD MSTORE PUSH2 0x1C0 DUP4 ADD MSTORE SUB SWAP1 RETURN JUMPDEST CALLVALUE PUSH2 0x157 JUMPI PUSH2 0x120 CALLDATASIZE PUSH1 0x3 NOT ADD SLT PUSH2 0x157 JUMPI PUSH8 0xFFFFFFFFFFFFFFFF PUSH1 0x4 CALLDATALOAD DUP2 DUP2 GT PUSH2 0x157 JUMPI PUSH2 0x1539 SWAP1 CALLDATASIZE SWAP1 PUSH1 0x4 ADD PUSH2 0x19EB JUMP JUMPDEST SWAP1 PUSH1 0x24 SWAP2 DUP3 CALLDATALOAD DUP3 DUP2 GT PUSH2 0x157 JUMPI PUSH2 0x1554 SWAP1 CALLDATASIZE SWAP1 PUSH1 0x4 ADD PUSH2 0x19EB JUMP JUMPDEST PUSH1 0x44 DUP1 CALLDATALOAD DUP5 DUP2 GT PUSH2 0x157 JUMPI PUSH2 0x156D SWAP1 CALLDATASIZE SWAP1 PUSH1 0x4 ADD PUSH2 0x19EB JUMP JUMPDEST PUSH2 0x104 CALLDATALOAD SWAP2 DUP6 DUP4 GT PUSH2 0x157 JUMPI CALLDATASIZE PUSH1 0x23 DUP5 ADD SLT ISZERO PUSH2 0x157 JUMPI DUP3 PUSH1 0x4 ADD CALLDATALOAD SWAP3 PUSH2 0x1593 DUP5 PUSH2 0x1A42 JUMP JUMPDEST SWAP4 PUSH2 0x15A1 PUSH1 0x40 MLOAD SWAP6 DUP7 PUSH2 0x19C9 JUMP JUMPDEST DUP1 DUP6 MSTORE PUSH1 0x20 SWAP8 DUP10 DUP10 DUP8 ADD SWAP3 PUSH1 0x5 SHL DUP5 ADD ADD SWAP3 CALLDATASIZE DUP5 GT PUSH2 0x157 JUMPI DUP11 DUP2 ADD SWAP3 JUMPDEST DUP5 DUP5 LT PUSH2 0x1892 JUMPI POP POP POP POP POP PUSH32 0xA49807205CE4D355092EF5A8A18F56E8913CF4A201FBE287825B095693C21775 DUP1 PUSH1 0x0 MSTORE PUSH1 0x0 DUP8 MSTORE PUSH1 0x40 PUSH1 0x0 KECCAK256 CALLER PUSH1 0x0 MSTORE DUP8 MSTORE PUSH1 0xFF PUSH1 0x40 PUSH1 0x0 KECCAK256 SLOAD AND ISZERO PUSH2 0x1876 JUMPI POP PUSH1 0xC4 CALLDATALOAD SWAP1 TIMESTAMP DUP3 GT ISZERO PUSH2 0x183F JUMPI PUSH1 0xE4 CALLDATALOAD SWAP3 DUP3 DUP5 GT ISZERO PUSH2 0x1809 JUMPI PUSH1 0x64 CALLDATALOAD SWAP1 DUP2 ISZERO ISZERO DUP1 PUSH2 0x17FE JUMPI JUMPDEST ISZERO PUSH2 0x17CC JUMPI PUSH1 0xA4 CALLDATALOAD SWAP3 DUP4 ISZERO PUSH2 0x1792 JUMPI POP SWAP3 DUP9 SWAP10 SWAP5 SWAP2 SWAP3 PUSH1 0x5 SWAP10 SWAP4 PUSH2 0x1698 DUP11 SWAP9 SWAP7 PUSH2 0x168F PUSH2 0x1686 SWAP12 PUSH2 0x1665 PUSH1 0x3 SLOAD PUSH2 0x1D3F JUMP JUMPDEST SWAP15 DUP16 SWAP10 DUP11 PUSH1 0x3 SSTORE DUP11 PUSH1 0x0 MSTORE MSTORE PUSH1 0x40 PUSH1 0x0 KECCAK256 SWAP9 DUP10 SSTORE PUSH1 0x1 SWAP13 DUP14 SWAP13 DUP14 DUP12 ADD PUSH2 0x1D4E JUMP JUMPDEST PUSH1 0x2 DUP10 ADD PUSH2 0x1D4E JUMP JUMPDEST PUSH1 0x3 DUP8 ADD PUSH2 0x1D4E JUMP JUMPDEST PUSH1 0x4 DUP6 ADD SSTORE PUSH1 0x84 CALLDATALOAD PUSH1 0x5 DUP6 ADD SSTORE PUSH1 0x6 DUP5 ADD SSTORE PUSH1 0x8 DUP4 ADD SSTORE PUSH1 0x9 DUP3 ADD SSTORE PUSH1 0xD DUP2 ADD DUP1 SLOAD PUSH1 0xFF NOT AND SWAP1 SSTORE PUSH1 0xB ADD SWAP4 PUSH1 0x0 SWAP1 JUMPDEST PUSH2 0x1712 JUMPI JUMPDEST DUP8 DUP8 DUP8 DUP2 PUSH32 0xC04C663886CAE794DC52158F70FE6C8EE3B0140D4F48647282F9B693FF688A65 PUSH1 0x40 MLOAD DUP6 DUP2 MSTORE DUP1 PUSH2 0x1707 CALLER SWAP6 DUP9 DUP4 ADD SWAP1 PUSH2 0x1B3A JUMP JUMPDEST SUB SWAP1 LOG3 PUSH1 0x40 MLOAD SWAP1 DUP2 MSTORE RETURN JUMPDEST DUP2 MLOAD DUP2 LT ISZERO PUSH2 0x178D JUMPI PUSH2 0x1725 DUP2 DUP4 PUSH2 0x1E5E JUMP JUMPDEST MLOAD DUP6 SLOAD PUSH1 0x1 PUSH1 0x40 SHL DUP2 LT ISZERO PUSH2 0x1778 JUMPI DUP1 DUP7 PUSH2 0x1743 SWAP3 ADD DUP9 SSTORE DUP8 PUSH2 0x1B9D JUMP JUMPDEST PUSH2 0x1763 JUMPI SWAP2 PUSH2 0x1757 PUSH2 0x175C SWAP3 DUP8 SWAP6 SWAP5 PUSH2 0x1D4E JUMP JUMPDEST PUSH2 0x1D3F JUMP JUMPDEST SWAP1 SWAP2 PUSH2 0x16C8 JUMP JUMPDEST DUP5 PUSH4 0x4E487B71 PUSH1 0xE0 SHL PUSH1 0x0 MSTORE PUSH1 0x0 PUSH1 0x4 MSTORE PUSH1 0x0 REVERT JUMPDEST DUP5 PUSH4 0x4E487B71 PUSH1 0xE0 SHL PUSH1 0x0 MSTORE PUSH1 0x41 PUSH1 0x4 MSTORE PUSH1 0x0 REVERT JUMPDEST PUSH2 0x16CD JUMP JUMPDEST DUP10 PUSH21 0x125B9D985B1A59081D1A58DAD95D08185B5BDD5B9D PUSH1 0x5A SHL PUSH1 0x64 SWAP3 PUSH1 0x15 DUP15 PUSH1 0x40 MLOAD SWAP5 PUSH3 0x461BCD PUSH1 0xE5 SHL DUP7 MSTORE PUSH1 0x4 DUP7 ADD MSTORE DUP5 ADD MSTORE DUP3 ADD MSTORE REVERT JUMPDEST PUSH1 0x40 MLOAD PUSH3 0x461BCD PUSH1 0xE5 SHL DUP2 MSTORE PUSH1 0x4 DUP2 ADD DUP11 SWAP1 MSTORE PUSH1 0xC DUP2 DUP13 ADD MSTORE PUSH12 0x496E76616C69642063617073 PUSH1 0xA0 SHL DUP2 DUP6 ADD MSTORE PUSH1 0x64 SWAP1 REVERT JUMPDEST POP DUP2 PUSH1 0x84 CALLDATALOAD GT PUSH2 0x1633 JUMP JUMPDEST PUSH1 0x40 MLOAD PUSH3 0x461BCD PUSH1 0xE5 SHL DUP2 MSTORE PUSH1 0x4 DUP2 ADD DUP10 SWAP1 MSTORE PUSH1 0x10 DUP2 DUP12 ADD MSTORE PUSH16 0x496E76616C696420656E642064617465 PUSH1 0x80 SHL DUP2 DUP5 ADD MSTORE PUSH1 0x64 SWAP1 REVERT JUMPDEST DUP7 PUSH18 0x496E76616C69642073746172742064617465 PUSH1 0x70 SHL PUSH1 0x64 SWAP3 PUSH1 0x12 DUP12 PUSH1 0x40 MLOAD SWAP5 PUSH3 0x461BCD PUSH1 0xE5 SHL DUP7 MSTORE PUSH1 0x4 DUP7 ADD MSTORE DUP5 ADD MSTORE DUP3 ADD MSTORE REVERT JUMPDEST PUSH1 0x40 MLOAD PUSH4 0xE2517D3F PUSH1 0xE0 SHL DUP2 MSTORE CALLER PUSH1 0x4 DUP3 ADD MSTORE DUP1 DUP10 ADD SWAP2 SWAP1 SWAP2 MSTORE REVERT JUMPDEST DUP4 CALLDATALOAD DUP4 DUP2 GT PUSH2 0x157 JUMPI DUP12 SWAP2 PUSH2 0x18AD DUP4 SWAP3 DUP16 CALLDATASIZE SWAP2 DUP8 ADD ADD PUSH2 0x19EB JUMP JUMPDEST DUP2 MSTORE ADD SWAP4 ADD SWAP3 PUSH2 0x15BF JUMP JUMPDEST CALLVALUE PUSH2 0x157 JUMPI PUSH1 0x40 CALLDATASIZE PUSH1 0x3 NOT ADD SLT PUSH2 0x157 JUMPI PUSH2 0x18D1 PUSH2 0x197A JUMP JUMPDEST PUSH1 0x4 CALLDATALOAD PUSH1 0x0 MSTORE PUSH1 0x6 PUSH1 0x20 MSTORE PUSH1 0x40 PUSH1 0x0 KECCAK256 SWAP1 PUSH1 0x1 DUP1 PUSH1 0xA0 SHL SUB AND PUSH1 0x0 MSTORE PUSH1 0x20 MSTORE PUSH1 0x80 PUSH1 0x40 PUSH1 0x0 KECCAK256 DUP1 SLOAD SWAP1 PUSH1 0x1 DUP2 ADD SLOAD SWAP1 PUSH1 0x3 PUSH1 0xFF PUSH1 0x2 DUP4 ADD SLOAD AND SWAP2 ADD SLOAD SWAP2 PUSH1 0x40 MLOAD SWAP4 DUP5 MSTORE PUSH1 0x20 DUP5 ADD MSTORE ISZERO ISZERO PUSH1 0x40 DUP4 ADD MSTORE PUSH1 0x60 DUP3 ADD MSTORE RETURN JUMPDEST CALLVALUE PUSH2 0x157 JUMPI PUSH1 0x20 CALLDATASIZE PUSH1 0x3 NOT ADD SLT PUSH2 0x157 JUMPI PUSH1 0x4 CALLDATALOAD SWAP1 PUSH4 0xFFFFFFFF PUSH1 0xE0 SHL DUP3 AND DUP1 SWAP3 SUB PUSH2 0x157 JUMPI PUSH1 0x20 SWAP2 PUSH4 0x7965DB0B PUSH1 0xE0 SHL DUP2 EQ SWAP1 DUP2 ISZERO PUSH2 0x1969 JUMPI JUMPDEST POP ISZERO ISZERO DUP2 MSTORE RETURN JUMPDEST PUSH4 0x1FFC9A7 PUSH1 0xE0 SHL EQ SWAP1 POP DUP4 PUSH2 0x1962 JUMP JUMPDEST PUSH1 0x24 CALLDATALOAD SWAP1 PUSH1 0x1 PUSH1 0x1 PUSH1 0xA0 SHL SUB DUP3 AND DUP3 SUB PUSH2 0x157 JUMPI JUMP JUMPDEST PUSH1 0x80 DUP2 ADD SWAP1 DUP2 LT PUSH8 0xFFFFFFFFFFFFFFFF DUP3 GT OR PUSH2 0x1108 JUMPI PUSH1 0x40 MSTORE JUMP JUMPDEST PUSH2 0x220 DUP2 ADD SWAP1 DUP2 LT PUSH8 0xFFFFFFFFFFFFFFFF DUP3 GT OR PUSH2 0x1108 JUMPI PUSH1 0x40 MSTORE JUMP JUMPDEST SWAP1 PUSH1 0x1F DUP1 NOT SWAP2 ADD AND DUP2 ADD SWAP1 DUP2 LT PUSH8 0xFFFFFFFFFFFFFFFF DUP3 GT OR PUSH2 0x1108 JUMPI PUSH1 0x40 MSTORE JUMP JUMPDEST DUP2 PUSH1 0x1F DUP3 ADD SLT ISZERO PUSH2 0x157 JUMPI DUP1 CALLDATALOAD SWAP1 PUSH8 0xFFFFFFFFFFFFFFFF DUP3 GT PUSH2 0x1108 JUMPI PUSH1 0x40 MLOAD SWAP3 PUSH2 0x1A20 PUSH1 0x1F DUP5 ADD PUSH1 0x1F NOT AND PUSH1 0x20 ADD DUP6 PUSH2 0x19C9 JUMP JUMPDEST DUP3 DUP5 MSTORE PUSH1 0x20 DUP4 DUP4 ADD ADD GT PUSH2 0x157 JUMPI DUP2 PUSH1 0x0 SWAP3 PUSH1 0x20 DUP1 SWAP4 ADD DUP4 DUP7 ADD CALLDATACOPY DUP4 ADD ADD MSTORE SWAP1 JUMP JUMPDEST PUSH8 0xFFFFFFFFFFFFFFFF DUP2 GT PUSH2 0x1108 JUMPI PUSH1 0x5 SHL PUSH1 0x20 ADD SWAP1 JUMP JUMPDEST SWAP1 PUSH1 0x1 DUP3 DUP2 SHR SWAP3 AND DUP1 ISZERO PUSH2 0x1A8A JUMPI JUMPDEST PUSH1 0x20 DUP4 LT EQ PUSH2 0x1A74 JUMPI JUMP JUMPDEST PUSH4 0x4E487B71 PUSH1 0xE0 SHL PUSH1 0x0 MSTORE PUSH1 0x22 PUSH1 0x4 MSTORE PUSH1 0x24 PUSH1 0x0 REVERT JUMPDEST SWAP2 PUSH1 0x7F AND SWAP2 PUSH2 0x1A69 JUMP JUMPDEST SWAP1 PUSH1 0x40 MLOAD SWAP2 DUP3 PUSH1 0x0 DUP3 SLOAD SWAP3 PUSH2 0x1AA8 DUP5 PUSH2 0x1A5A JUMP JUMPDEST SWAP1 DUP2 DUP5 MSTORE PUSH1 0x1 SWAP5 DUP6 DUP2 AND SWAP1 DUP2 PUSH1 0x0 EQ PUSH2 0x1B17 JUMPI POP PUSH1 0x1 EQ PUSH2 0x1AD4 JUMPI JUMPDEST POP POP PUSH2 0x1AD2 SWAP3 POP SUB DUP4 PUSH2 0x19C9 JUMP JUMPDEST JUMP JUMPDEST SWAP1 SWAP4 SWAP2 POP PUSH1 0x0 MSTORE PUSH1 0x20 SWAP1 DUP2 PUSH1 0x0 KECCAK256 SWAP4 PUSH1 0x0 SWAP2 JUMPDEST DUP2 DUP4 LT PUSH2 0x1AFF JUMPI POP POP PUSH2 0x1AD2 SWAP4 POP DUP3 ADD ADD CODESIZE DUP1 PUSH2 0x1AC4 JUMP JUMPDEST DUP6 SLOAD DUP9 DUP5 ADD DUP6 ADD MSTORE SWAP5 DUP6 ADD SWAP5 DUP8 SWAP5 POP SWAP2 DUP4 ADD SWAP2 PUSH2 0x1AE7 JUMP JUMPDEST SWAP2 POP POP PUSH2 0x1AD2 SWAP5 POP PUSH1 0x20 SWAP3 POP PUSH1 0xFF NOT AND DUP3 DUP5 ADD MSTORE ISZERO ISZERO PUSH1 0x5 SHL DUP3 ADD ADD CODESIZE DUP1 PUSH2 0x1AC4 JUMP JUMPDEST SWAP2 SWAP1 DUP3 MLOAD SWAP3 DUP4 DUP3 MSTORE PUSH1 0x0 JUMPDEST DUP5 DUP2 LT PUSH2 0x1B66 JUMPI POP POP DUP3 PUSH1 0x0 PUSH1 0x20 DUP1 SWAP5 SWAP6 DUP5 ADD ADD MSTORE PUSH1 0x1F DUP1 NOT SWAP2 ADD AND ADD ADD SWAP1 JUMP JUMPDEST PUSH1 0x20 DUP2 DUP4 ADD DUP2 ADD MLOAD DUP5 DUP4 ADD DUP3 ADD MSTORE ADD PUSH2 0x1B45 JUMP JUMPDEST SWAP1 PUSH1 0x3 DUP3 LT ISZERO PUSH2 0x6D9 JUMPI MSTORE JUMP JUMPDEST PUSH1 0x40 SWAP1 PUSH1 0x3 NOT ADD SLT PUSH2 0x157 JUMPI PUSH1 0x4 CALLDATALOAD SWAP1 PUSH1 0x24 CALLDATALOAD SWAP1 JUMP JUMPDEST DUP1 SLOAD DUP3 LT ISZERO PUSH2 0x1BB5 JUMPI PUSH1 0x0 MSTORE PUSH1 0x20 PUSH1 0x0 KECCAK256 ADD SWAP1 PUSH1 0x0 SWAP1 JUMP JUMPDEST PUSH4 0x4E487B71 PUSH1 0xE0 SHL PUSH1 0x0 MSTORE PUSH1 0x32 PUSH1 0x4 MSTORE PUSH1 0x24 PUSH1 0x0 REVERT JUMPDEST SWAP1 DUP2 MLOAD DUP1 DUP3 MSTORE PUSH1 0x20 DUP1 DUP1 SWAP4 ADD SWAP4 ADD SWAP2 PUSH1 0x0 JUMPDEST DUP3 DUP2 LT PUSH2 0x1BEB JUMPI POP POP POP POP SWAP1 JUMP JUMPDEST DUP4 MLOAD PUSH1 0x1 PUSH1 0x1 PUSH1 0xA0 SHL SUB AND DUP6 MSTORE SWAP4 DUP2 ADD SWAP4 SWAP3 DUP2 ADD SWAP3 PUSH1 0x1 ADD PUSH2 0x1BDD JUMP JUMPDEST DUP1 PUSH1 0x0 MSTORE PUSH1 0x0 PUSH1 0x20 MSTORE PUSH1 0x40 PUSH1 0x0 KECCAK256 CALLER PUSH1 0x0 MSTORE PUSH1 0x20 MSTORE PUSH1 0xFF PUSH1 0x40 PUSH1 0x0 KECCAK256 SLOAD AND ISZERO PUSH2 0x1C2E JUMPI POP JUMP JUMPDEST PUSH1 0x44 SWAP1 PUSH1 0x40 MLOAD SWAP1 PUSH4 0xE2517D3F PUSH1 0xE0 SHL DUP3 MSTORE CALLER PUSH1 0x4 DUP4 ADD MSTORE PUSH1 0x24 DUP3 ADD MSTORE REVERT JUMPDEST SWAP1 PUSH1 0x0 SWAP2 DUP1 DUP4 MSTORE DUP3 PUSH1 0x20 MSTORE PUSH1 0x40 DUP4 KECCAK256 SWAP2 PUSH1 0x1 DUP1 PUSH1 0xA0 SHL SUB AND SWAP2 DUP3 DUP5 MSTORE PUSH1 0x20 MSTORE PUSH1 0xFF PUSH1 0x40 DUP5 KECCAK256 SLOAD AND ISZERO PUSH1 0x0 EQ PUSH2 0x1CC5 JUMPI DUP1 DUP4 MSTORE DUP3 PUSH1 0x20 MSTORE PUSH1 0x40 DUP4 KECCAK256 DUP3 DUP5 MSTORE PUSH1 0x20 MSTORE PUSH1 0x40 DUP4 KECCAK256 PUSH1 0x1 PUSH1 0xFF NOT DUP3 SLOAD AND OR SWAP1 SSTORE PUSH32 0x2F8788117E7EFF1D82E926EC794901D17C78024A50270940304540A733656F0D CALLER SWAP4 DUP1 LOG4 PUSH1 0x1 SWAP1 JUMP JUMPDEST POP POP SWAP1 JUMP JUMPDEST SWAP1 PUSH1 0x0 SWAP2 DUP1 DUP4 MSTORE DUP3 PUSH1 0x20 MSTORE PUSH1 0x40 DUP4 KECCAK256 SWAP2 PUSH1 0x1 DUP1 PUSH1 0xA0 SHL SUB AND SWAP2 DUP3 DUP5 MSTORE PUSH1 0x20 MSTORE PUSH1 0xFF PUSH1 0x40 DUP5 KECCAK256 SLOAD AND PUSH1 0x0 EQ PUSH2 0x1CC5 JUMPI DUP1 DUP4 MSTORE DUP3 PUSH1 0x20 MSTORE PUSH1 0x40 DUP4 KECCAK256 DUP3 DUP5 MSTORE PUSH1 0x20 MSTORE PUSH1 0x40 DUP4 KECCAK256 PUSH1 0xFF NOT DUP2 SLOAD AND SWAP1 SSTORE PUSH32 0xF6391F5C32D9C69D2A47EA670B442974B53935D1EDC7FD64EB21E047A839171B CALLER SWAP4 DUP1 LOG4 PUSH1 0x1 SWAP1 JUMP JUMPDEST PUSH1 0x0 NOT DUP2 EQ PUSH2 0x10F2 JUMPI PUSH1 0x1 ADD SWAP1 JUMP JUMPDEST SWAP2 SWAP1 SWAP2 DUP3 MLOAD PUSH8 0xFFFFFFFFFFFFFFFF DUP2 GT PUSH2 0x1108 JUMPI PUSH2 0x1D6C DUP3 SLOAD PUSH2 0x1A5A JUMP JUMPDEST PUSH1 0x1F DUP2 GT PUSH2 0x1E16 JUMPI JUMPDEST POP PUSH1 0x20 DUP1 PUSH1 0x1F DUP4 GT PUSH1 0x1 EQ PUSH2 0x1DB2 JUMPI POP DUP2 SWAP3 SWAP4 SWAP5 PUSH1 0x0 SWAP3 PUSH2 0x1DA7 JUMPI JUMPDEST POP POP DUP2 PUSH1 0x1 SHL SWAP2 PUSH1 0x0 NOT SWAP1 PUSH1 0x3 SHL SHR NOT AND OR SWAP1 SSTORE JUMP JUMPDEST ADD MLOAD SWAP1 POP CODESIZE DUP1 PUSH2 0x1D91 JUMP JUMPDEST SWAP1 PUSH1 0x1F NOT DUP4 AND SWAP6 DUP5 PUSH1 0x0 MSTORE DUP3 PUSH1 0x0 KECCAK256 SWAP3 PUSH1 0x0 SWAP1 JUMPDEST DUP9 DUP3 LT PUSH2 0x1DFE JUMPI POP POP DUP4 PUSH1 0x1 SWAP6 SWAP7 SWAP8 LT PUSH2 0x1DE5 JUMPI JUMPDEST POP POP POP DUP2 SHL ADD SWAP1 SSTORE JUMP JUMPDEST ADD MLOAD PUSH1 0x0 NOT PUSH1 0xF8 DUP5 PUSH1 0x3 SHL AND SHR NOT AND SWAP1 SSTORE CODESIZE DUP1 DUP1 PUSH2 0x1DDB JUMP JUMPDEST DUP1 PUSH1 0x1 DUP6 SWAP7 DUP3 SWAP5 SWAP7 DUP7 ADD MLOAD DUP2 SSTORE ADD SWAP6 ADD SWAP4 ADD SWAP1 PUSH2 0x1DC6 JUMP JUMPDEST PUSH1 0x0 DUP4 DUP2 MSTORE PUSH1 0x20 DUP2 KECCAK256 PUSH1 0x1F DUP5 ADD PUSH1 0x5 SHR DUP2 ADD SWAP3 PUSH1 0x20 DUP6 LT PUSH2 0x1E54 JUMPI JUMPDEST PUSH1 0x1F ADD PUSH1 0x5 SHR ADD SWAP2 JUMPDEST DUP3 DUP2 LT PUSH2 0x1E49 JUMPI POP POP PUSH2 0x1D75 JUMP JUMPDEST DUP2 DUP2 SSTORE PUSH1 0x1 ADD PUSH2 0x1E3B JUMP JUMPDEST SWAP1 SWAP3 POP DUP3 SWAP1 PUSH2 0x1E32 JUMP JUMPDEST DUP1 MLOAD DUP3 LT ISZERO PUSH2 0x1BB5 JUMPI PUSH1 0x20 SWAP2 PUSH1 0x5 SHL ADD ADD SWAP1 JUMP JUMPDEST ISZERO PUSH2 0x1E79 JUMPI JUMP JUMPDEST PUSH1 0x40 MLOAD PUSH3 0x461BCD PUSH1 0xE5 SHL DUP2 MSTORE PUSH1 0x20 PUSH1 0x4 DUP3 ADD MSTORE PUSH1 0x17 PUSH1 0x24 DUP3 ADD MSTORE PUSH32 0x43616D706169676E20646F6573206E6F74206578697374000000000000000000 PUSH1 0x44 DUP3 ADD MSTORE PUSH1 0x64 SWAP1 REVERT JUMPDEST ISZERO PUSH2 0x1EC5 JUMPI JUMP JUMPDEST PUSH1 0x40 MLOAD PUSH3 0x461BCD PUSH1 0xE5 SHL DUP2 MSTORE PUSH1 0x20 PUSH1 0x4 DUP3 ADD MSTORE PUSH1 0x13 PUSH1 0x24 DUP3 ADD MSTORE PUSH19 0x43616D706169676E206E6F7420616374697665 PUSH1 0x68 SHL PUSH1 0x44 DUP3 ADD MSTORE PUSH1 0x64 SWAP1 REVERT JUMPDEST SWAP2 SWAP1 DUP3 ADD DUP1 SWAP3 GT PUSH2 0x10F2 JUMPI JUMP JUMPDEST DUP1 SLOAD PUSH1 0x1 PUSH1 0x40 SHL DUP2 LT ISZERO PUSH2 0x1108 JUMPI PUSH2 0x1F2A SWAP2 PUSH1 0x1 DUP3 ADD DUP2 SSTORE PUSH2 0x1B9D JUMP JUMPDEST DUP2 SWAP3 SWAP2 SLOAD SWAP1 PUSH1 0x3 SHL SWAP2 PUSH1 0x1 DUP1 PUSH1 0xA0 SHL SUB DUP1 SWAP2 AND DUP4 SHL SWAP3 SHL NOT AND OR SWAP1 SSTORE JUMP JUMPDEST SWAP1 DUP2 PUSH1 0x20 SWAP2 SUB SLT PUSH2 0x157 JUMPI MLOAD DUP1 ISZERO ISZERO DUP2 SUB PUSH2 0x157 JUMPI SWAP1 JUMP JUMPDEST PUSH1 0x2 PUSH1 0x1 SLOAD EQ PUSH2 0x1F71 JUMPI PUSH1 0x2 PUSH1 0x1 SSTORE JUMP JUMPDEST PUSH1 0x40 MLOAD PUSH4 0x3EE5AEB5 PUSH1 0xE0 SHL DUP2 MSTORE PUSH1 0x4 SWAP1 REVERT JUMPDEST SWAP1 DUP2 SLOAD DUP1 DUP3 MSTORE PUSH1 0x20 DUP1 SWAP3 ADD SWAP3 PUSH1 0x0 MSTORE DUP2 PUSH1 0x0 KECCAK256 SWAP2 PUSH1 0x0 SWAP1 JUMPDEST DUP3 DUP3 LT PUSH2 0x1FA9 JUMPI POP POP POP POP SWAP1 JUMP JUMPDEST DUP4 SLOAD PUSH1 0x1 PUSH1 0x1 PUSH1 0xA0 SHL SUB AND DUP6 MSTORE SWAP4 DUP5 ADD SWAP4 PUSH1 0x1 SWAP4 DUP5 ADD SWAP4 SWAP1 SWAP2 ADD SWAP1 PUSH2 0x1F9B JUMP JUMPDEST SWAP1 PUSH2 0x1FD3 DUP3 PUSH2 0x1A42 JUMP JUMPDEST PUSH2 0x1FE0 PUSH1 0x40 MLOAD SWAP2 DUP3 PUSH2 0x19C9 JUMP JUMPDEST DUP3 DUP2 MSTORE DUP1 SWAP3 PUSH2 0x1FF1 PUSH1 0x1F NOT SWAP2 PUSH2 0x1A42 JUMP JUMPDEST ADD SWAP1 PUSH1 0x20 CALLDATASIZE SWAP2 ADD CALLDATACOPY JUMP JUMPDEST PUSH1 0x0 SWAP4 DUP5 JUMPDEST DUP4 MLOAD DUP7 LT ISZERO PUSH2 0x2051 JUMPI PUSH2 0x2045 PUSH2 0x204B SWAP2 DUP5 PUSH1 0x0 MSTORE PUSH1 0x1 PUSH1 0x20 PUSH1 0x6 DUP2 MSTORE PUSH1 0x40 SWAP1 DUP2 PUSH1 0x0 KECCAK256 SWAP1 DUP4 DUP1 PUSH1 0xA0 SHL SUB PUSH2 0x2034 DUP14 DUP13 PUSH2 0x1E5E JUMP JUMPDEST MLOAD AND PUSH1 0x0 MSTORE MSTORE PUSH1 0x0 KECCAK256 ADD SLOAD SWAP1 PUSH2 0x1F00 JUMP JUMPDEST SWAP6 PUSH2 0x1D3F JUMP JUMPDEST SWAP5 PUSH2 0x2000 JUMP JUMPDEST SWAP2 SWAP4 SWAP1 SWAP5 POP DUP2 ISZERO PUSH2 0xCB0 JUMPI MOD SWAP1 PUSH1 0x0 SWAP2 DUP3 JUMPDEST DUP3 MLOAD DUP2 LT ISZERO PUSH2 0x20BF JUMPI DUP5 PUSH1 0x0 MSTORE PUSH2 0x2094 PUSH1 0x20 SWAP5 PUSH1 0x6 DUP7 MSTORE PUSH1 0x1 PUSH1 0x40 DUP1 PUSH1 0x0 KECCAK256 DUP3 DUP1 PUSH1 0xA0 SHL SUB SWAP9 DUP10 PUSH2 0x2034 DUP9 DUP12 PUSH2 0x1E5E JUMP JUMPDEST SWAP4 DUP5 DUP4 LT PUSH2 0x20AB JUMPI POP PUSH2 0x20A6 SWAP1 PUSH2 0x1D3F JUMP JUMPDEST PUSH2 0x2063 JUMP JUMPDEST SWAP5 POP SWAP2 SWAP1 POP PUSH2 0x20BA SWAP3 POP PUSH2 0x1E5E JUMP JUMPDEST MLOAD AND SWAP1 JUMP JUMPDEST POP POP SWAP2 POP POP DUP1 MLOAD ISZERO PUSH2 0x1BB5 JUMPI PUSH1 0x20 ADD MLOAD PUSH1 0x1 PUSH1 0x1 PUSH1 0xA0 SHL SUB AND SWAP1 JUMP INVALID LOG2 PUSH5 0x6970667358 0x22 SLT KECCAK256 0x29 BALANCE 0xFB SHL BALANCE EXP PUSH30 0xAEA130CB474AAF0262929E0CBB38A7EB0635660FB5FD47E87564736F6C63 NUMBER STOP ADDMOD EQ STOP CALLER 0x2F DUP8 DUP9 GT PUSH31 0x7EFF1D82E926EC794901D17C78024A50270940304540A733656F0D00000000 "},"gasEstimates":{"creation":{"codeDepositCost":"1693000","executionCost":"infinite","totalCost":"infinite"},"external":{"ADMIN_ROLE()":"507","DEFAULT_ADMIN_ROLE()":"573","OPERATOR_ROLE()":"636","burnTokens(uint256)":"infinite","campaignParticipants(uint256,uint256)":"6896","campaigns(uint256)":"infinite","confirmSocialTasks(uint256,address)":"37718","createCampaign(string,string,string,uint256,uint256,uint256,uint256,uint256,string[])":"infinite","getCampaign(uint256)":"infinite","getCampaignParticipants(uint256)":"infinite","getParticipant(uint256,address)":"infinite","getRoleAdmin(bytes32)":"2440","getTotalCampaigns()":"2346","grantRole(bytes32,address)":"33349","hasRole(bytes32,address)":"2886","participants(uint256,address)":"8896","paused()":"2578","renounceRole(bytes32,address)":"28997","revokeRole(bytes32,address)":"33670","selectWinners(uint256)":"infinite","squdyToken()":"infinite","stakeTokens(uint256,uint256)":"infinite","supportsInterface(bytes4)":"271"},"internal":{"getEligibleParticipants(uint256)":"infinite","removeFromArray(address[] memory,address)":"infinite","selectWeightedWinner(uint256,address[] memory,uint256)":"infinite"}},"methodIdentifiers":{"ADMIN_ROLE()":"75b238fc","DEFAULT_ADMIN_ROLE()":"a217fddf","OPERATOR_ROLE()":"f5b541a6","burnTokens(uint256)":"6d1b229d","campaignParticipants(uint256,uint256)":"35abd49b","campaigns(uint256)":"141961bc","confirmSocialTasks(uint256,address)":"b5801d91","createCampaign(string,string,string,uint256,uint256,uint256,uint256,uint256,string[])":"03463dd9","getCampaign(uint256)":"5598f8cc","getCampaignParticipants(uint256)":"8c6ab238","getParticipant(uint256,address)":"35f3ad7a","getRoleAdmin(bytes32)":"248a9ca3","getTotalCampaigns()":"16f43dd4","grantRole(bytes32,address)":"2f2ff15d","hasRole(bytes32,address)":"91d14854","participants(uint256,address)":"02e060c6","paused()":"5c975abb","renounceRole(bytes32,address)":"36568abe","revokeRole(bytes32,address)":"d547741f","selectWinners(uint256)":"39a2eb2a","squdyToken()":"4eb53f99","stakeTokens(uint256,uint256)":"3b7b6188","supportsInterface(bytes4)":"01ffc9a7"}},"storageLayout":{"storage":[{"astId":27,"contract":"contracts/AutomatedSqudyCampaignManager.sol:AutomatedSqudyCampaignManager","label":"_roles","offset":0,"slot":"0","type":"t_mapping(t_bytes32,t_struct(RoleData)22_storage)"},{"astId":1478,"contract":"contracts/AutomatedSqudyCampaignManager.sol:AutomatedSqudyCampaignManager","label":"_status","offset":0,"slot":"1","type":"t_uint256"},{"astId":1368,"contract":"contracts/AutomatedSqudyCampaignManager.sol:AutomatedSqudyCampaignManager","label":"_paused","offset":0,"slot":"2","type":"t_bool"},{"astId":1600,"contract":"contracts/AutomatedSqudyCampaignManager.sol:AutomatedSqudyCampaignManager","label":"_campaignIds","offset":0,"slot":"3","type":"t_uint256"},{"astId":1602,"contract":"contracts/AutomatedSqudyCampaignManager.sol:AutomatedSqudyCampaignManager","label":"_randomSeed","offset":0,"slot":"4","type":"t_uint256"},{"astId":1607,"contract":"contracts/AutomatedSqudyCampaignManager.sol:AutomatedSqudyCampaignManager","label":"campaigns","offset":0,"slot":"5","type":"t_mapping(t_uint256,t_struct(Campaign)1657_storage)"},{"astId":1614,"contract":"contracts/AutomatedSqudyCampaignManager.sol:AutomatedSqudyCampaignManager","label":"participants","offset":0,"slot":"6","type":"t_mapping(t_uint256,t_mapping(t_address,t_struct(Participant)1666_storage))"},{"astId":1619,"contract":"contracts/AutomatedSqudyCampaignManager.sol:AutomatedSqudyCampaignManager","label":"campaignParticipants","offset":0,"slot":"7","type":"t_mapping(t_uint256,t_array(t_address)dyn_storage)"}],"types":{"t_address":{"encoding":"inplace","label":"address","numberOfBytes":"20"},"t_array(t_address)dyn_storage":{"base":"t_address","encoding":"dynamic_array","label":"address[]","numberOfBytes":"32"},"t_array(t_string_storage)dyn_storage":{"base":"t_string_storage","encoding":"dynamic_array","label":"string[]","numberOfBytes":"32"},"t_bool":{"encoding":"inplace","label":"bool","numberOfBytes":"1"},"t_bytes32":{"encoding":"inplace","label":"bytes32","numberOfBytes":"32"},"t_enum(CampaignStatus)1670":{"encoding":"inplace","label":"enum AutomatedSqudyCampaignManager.CampaignStatus","numberOfBytes":"1"},"t_mapping(t_address,t_bool)":{"encoding":"mapping","key":"t_address","label":"mapping(address => bool)","numberOfBytes":"32","value":"t_bool"},"t_mapping(t_address,t_struct(Participant)1666_storage)":{"encoding":"mapping","key":"t_address","label":"mapping(address => struct AutomatedSqudyCampaignManager.Participant)","numberOfBytes":"32","value":"t_struct(Participant)1666_storage"},"t_mapping(t_bytes32,t_struct(RoleData)22_storage)":{"encoding":"mapping","key":"t_bytes32","label":"mapping(bytes32 => struct AccessControl.RoleData)","numberOfBytes":"32","value":"t_struct(RoleData)22_storage"},"t_mapping(t_uint256,t_array(t_address)dyn_storage)":{"encoding":"mapping","key":"t_uint256","label":"mapping(uint256 => address[])","numberOfBytes":"32","value":"t_array(t_address)dyn_storage"},"t_mapping(t_uint256,t_mapping(t_address,t_struct(Participant)1666_storage))":{"encoding":"mapping","key":"t_uint256","label":"mapping(uint256 => mapping(address => struct AutomatedSqudyCampaignManager.Participant))","numberOfBytes":"32","value":"t_mapping(t_address,t_struct(Participant)1666_storage)"},"t_mapping(t_uint256,t_struct(Campaign)1657_storage)":{"encoding":"mapping","key":"t_uint256","label":"mapping(uint256 => struct AutomatedSqudyCampaignManager.Campaign)","numberOfBytes":"32","value":"t_struct(Campaign)1657_storage"},"t_string_storage":{"encoding":"bytes","label":"string","numberOfBytes":"32"},"t_struct(Campaign)1657_storage":{"encoding":"inplace","label":"struct AutomatedSqudyCampaignManager.Campaign","members":[{"astId":1621,"contract":"contracts/AutomatedSqudyCampaignManager.sol:AutomatedSqudyCampaignManager","label":"id","offset":0,"slot":"0","type":"t_uint256"},{"astId":1623,"contract":"contracts/AutomatedSqudyCampaignManager.sol:AutomatedSqudyCampaignManager","label":"name","offset":0,"slot":"1","type":"t_string_storage"},{"astId":1625,"contract":"contracts/AutomatedSqudyCampaignManager.sol:AutomatedSqudyCampaignManager","label":"description","offset":0,"slot":"2","type":"t_string_storage"},{"astId":1627,"contract":"contracts/AutomatedSqudyCampaignManager.sol:AutomatedSqudyCampaignManager","label":"imageUrl","offset":0,"slot":"3","type":"t_string_storage"},{"astId":1629,"contract":"contracts/AutomatedSqudyCampaignManager.sol:AutomatedSqudyCampaignManager","label":"softCap","offset":0,"slot":"4","type":"t_uint256"},{"astId":1631,"contract":"contracts/AutomatedSqudyCampaignManager.sol:AutomatedSqudyCampaignManager","label":"hardCap","offset":0,"slot":"5","type":"t_uint256"},{"astId":1633,"contract":"contracts/AutomatedSqudyCampaignManager.sol:AutomatedSqudyCampaignManager","label":"ticketAmount","offset":0,"slot":"6","type":"t_uint256"},{"astId":1635,"contract":"contracts/AutomatedSqudyCampaignManager.sol:AutomatedSqudyCampaignManager","label":"currentAmount","offset":0,"slot":"7","type":"t_uint256"},{"astId":1637,"contract":"contracts/AutomatedSqudyCampaignManager.sol:AutomatedSqudyCampaignManager","label":"startDate","offset":0,"slot":"8","type":"t_uint256"},{"astId":1639,"contract":"contracts/AutomatedSqudyCampaignManager.sol:AutomatedSqudyCampaignManager","label":"endDate","offset":0,"slot":"9","type":"t_uint256"},{"astId":1641,"contract":"contracts/AutomatedSqudyCampaignManager.sol:AutomatedSqudyCampaignManager","label":"participantCount","offset":0,"slot":"10","type":"t_uint256"},{"astId":1644,"contract":"contracts/AutomatedSqudyCampaignManager.sol:AutomatedSqudyCampaignManager","label":"prizes","offset":0,"slot":"11","type":"t_array(t_string_storage)dyn_storage"},{"astId":1647,"contract":"contracts/AutomatedSqudyCampaignManager.sol:AutomatedSqudyCampaignManager","label":"winners","offset":0,"slot":"12","type":"t_array(t_address)dyn_storage"},{"astId":1650,"contract":"contracts/AutomatedSqudyCampaignManager.sol:AutomatedSqudyCampaignManager","label":"status","offset":0,"slot":"13","type":"t_enum(CampaignStatus)1670"},{"astId":1652,"contract":"contracts/AutomatedSqudyCampaignManager.sol:AutomatedSqudyCampaignManager","label":"tokensAreBurned","offset":1,"slot":"13","type":"t_bool"},{"astId":1654,"contract":"contracts/AutomatedSqudyCampaignManager.sol:AutomatedSqudyCampaignManager","label":"totalBurned","offset":0,"slot":"14","type":"t_uint256"},{"astId":1656,"contract":"contracts/AutomatedSqudyCampaignManager.sol:AutomatedSqudyCampaignManager","label":"winnerSelectionBlock","offset":0,"slot":"15","type":"t_uint256"}],"numberOfBytes":"512"},"t_struct(Participant)1666_storage":{"encoding":"inplace","label":"struct AutomatedSqudyCampaignManager.Participant","members":[{"astId":1659,"contract":"contracts/AutomatedSqudyCampaignManager.sol:AutomatedSqudyCampaignManager","label":"stakedAmount","offset":0,"slot":"0","type":"t_uint256"},{"astId":1661,"contract":"contracts/AutomatedSqudyCampaignManager.sol:AutomatedSqudyCampaignManager","label":"ticketCount","offset":0,"slot":"1","type":"t_uint256"},{"astId":1663,"contract":"contracts/AutomatedSqudyCampaignManager.sol:AutomatedSqudyCampaignManager","label":"hasCompletedSocial","offset":0,"slot":"2","type":"t_bool"},{"astId":1665,"contract":"contracts/AutomatedSqudyCampaignManager.sol:AutomatedSqudyCampaignManager","label":"joinedAt","offset":0,"slot":"3","type":"t_uint256"}],"numberOfBytes":"128"},"t_struct(RoleData)22_storage":{"encoding":"inplace","label":"struct AccessControl.RoleData","members":[{"astId":19,"contract":"contracts/AutomatedSqudyCampaignManager.sol:AutomatedSqudyCampaignManager","label":"hasRole","offset":0,"slot":"0","type":"t_mapping(t_address,t_bool)"},{"astId":21,"contract":"contracts/AutomatedSqudyCampaignManager.sol:AutomatedSqudyCampaignManager","label":"adminRole","offset":0,"slot":"1","type":"t_bytes32"}],"numberOfBytes":"64"},"t_uint256":{"encoding":"inplace","label":"uint256","numberOfBytes":"32"}}},"userdoc":{"kind":"user","methods":{},"version":1}}}}