{
  "_format": "hh-sol-artifact-1",
  "contractName": "SqudyToken",
  "sourceName": "contracts/SqudyTokenReal.sol",
  "abi": [
    {
      "inputs": [
        {
          "internalType": "address",
          "name": "_router",
          "type": "address"
        },
        {
          "internalType": "address",
          "name": "_initialOwner",
          "type": "address"
        }
      ],
      "stateMutability": "nonpayable",
      "type": "constructor"
    },
    {
      "inputs": [],
      "name": "AccessControlBadConfirmation",
      "type": "error"
    },
    {
      "inputs": [
        {
          "internalType": "address",
          "name": "account",
          "type": "address"
        },
        {
          "internalType": "bytes32",
          "name": "neededRole",
          "type": "bytes32"
        }
      ],
      "name": "AccessControlUnauthorizedAccount",
      "type": "error"
    },
    {
      "inputs": [],
      "name": "ECDSAInvalidSignature",
      "type": "error"
    },
    {
      "inputs": [
        {
          "internalType": "uint256",
          "name": "length",
          "type": "uint256"
        }
      ],
      "name": "ECDSAInvalidSignatureLength",
      "type": "error"
    },
    {
      "inputs": [
        {
          "internalType": "bytes32",
          "name": "s",
          "type": "bytes32"
        }
      ],
      "name": "ECDSAInvalidSignatureS",
      "type": "error"
    },
    {
      "inputs": [
        {
          "internalType": "address",
          "name": "spender",
          "type": "address"
        },
        {
          "internalType": "uint256",
          "name": "allowance",
          "type": "uint256"
        },
        {
          "internalType": "uint256",
          "name": "needed",
          "type": "uint256"
        }
      ],
      "name": "ERC20InsufficientAllowance",
      "type": "error"
    },
    {
      "inputs": [
        {
          "internalType": "address",
          "name": "sender",
          "type": "address"
        },
        {
          "internalType": "uint256",
          "name": "balance",
          "type": "uint256"
        },
        {
          "internalType": "uint256",
          "name": "needed",
          "type": "uint256"
        }
      ],
      "name": "ERC20InsufficientBalance",
      "type": "error"
    },
    {
      "inputs": [
        {
          "internalType": "address",
          "name": "approver",
          "type": "address"
        }
      ],
      "name": "ERC20InvalidApprover",
      "type": "error"
    },
    {
      "inputs": [
        {
          "internalType": "address",
          "name": "receiver",
          "type": "address"
        }
      ],
      "name": "ERC20InvalidReceiver",
      "type": "error"
    },
    {
      "inputs": [
        {
          "internalType": "address",
          "name": "sender",
          "type": "address"
        }
      ],
      "name": "ERC20InvalidSender",
      "type": "error"
    },
    {
      "inputs": [
        {
          "internalType": "address",
          "name": "spender",
          "type": "address"
        }
      ],
      "name": "ERC20InvalidSpender",
      "type": "error"
    },
    {
      "inputs": [
        {
          "internalType": "uint256",
          "name": "deadline",
          "type": "uint256"
        }
      ],
      "name": "ERC2612ExpiredSignature",
      "type": "error"
    },
    {
      "inputs": [
        {
          "internalType": "address",
          "name": "signer",
          "type": "address"
        },
        {
          "internalType": "address",
          "name": "owner",
          "type": "address"
        }
      ],
      "name": "ERC2612InvalidSigner",
      "type": "error"
    },
    {
      "inputs": [],
      "name": "EnforcedPause",
      "type": "error"
    },
    {
      "inputs": [],
      "name": "ExpectedPause",
      "type": "error"
    },
    {
      "inputs": [
        {
          "internalType": "address",
          "name": "account",
          "type": "address"
        },
        {
          "internalType": "uint256",
          "name": "currentNonce",
          "type": "uint256"
        }
      ],
      "name": "InvalidAccountNonce",
      "type": "error"
    },
    {
      "inputs": [],
      "name": "InvalidShortString",
      "type": "error"
    },
    {
      "inputs": [],
      "name": "ReentrancyGuardReentrantCall",
      "type": "error"
    },
    {
      "inputs": [
        {
          "internalType": "address",
          "name": "token",
          "type": "address"
        }
      ],
      "name": "SafeERC20FailedOperation",
      "type": "error"
    },
    {
      "inputs": [
        {
          "internalType": "string",
          "name": "str",
          "type": "string"
        }
      ],
      "name": "StringTooLong",
      "type": "error"
    },
    {
      "anonymous": false,
      "inputs": [
        {
          "indexed": true,
          "internalType": "address",
          "name": "owner",
          "type": "address"
        },
        {
          "indexed": true,
          "internalType": "address",
          "name": "spender",
          "type": "address"
        },
        {
          "indexed": false,
          "internalType": "uint256",
          "name": "value",
          "type": "uint256"
        }
      ],
      "name": "Approval",
      "type": "event"
    },
    {
      "anonymous": false,
      "inputs": [
        {
          "indexed": true,
          "internalType": "address",
          "name": "bot",
          "type": "address"
        },
        {
          "indexed": true,
          "internalType": "bool",
          "name": "value",
          "type": "bool"
        }
      ],
      "name": "BlacklistUpdated",
      "type": "event"
    },
    {
      "anonymous": false,
      "inputs": [
        {
          "indexed": true,
          "internalType": "address",
          "name": "burner",
          "type": "address"
        },
        {
          "indexed": false,
          "internalType": "bool",
          "name": "authorized",
          "type": "bool"
        }
      ],
      "name": "BurnerAuthorized",
      "type": "event"
    },
    {
      "anonymous": false,
      "inputs": [
        {
          "indexed": true,
          "internalType": "address",
          "name": "newManager",
          "type": "address"
        }
      ],
      "name": "CampaignManagerUpdated",
      "type": "event"
    },
    {
      "anonymous": false,
      "inputs": [
        {
          "indexed": false,
          "internalType": "uint256",
          "name": "volume",
          "type": "uint256"
        },
        {
          "indexed": false,
          "internalType": "uint256",
          "name": "maxVolume",
          "type": "uint256"
        }
      ],
      "name": "CircuitBreakerTriggered",
      "type": "event"
    },
    {
      "anonymous": false,
      "inputs": [
        {
          "indexed": false,
          "internalType": "uint256",
          "name": "newDay",
          "type": "uint256"
        },
        {
          "indexed": false,
          "internalType": "uint256",
          "name": "previousVolume",
          "type": "uint256"
        }
      ],
      "name": "DailyVolumeReset",
      "type": "event"
    },
    {
      "anonymous": false,
      "inputs": [],
      "name": "EIP712DomainChanged",
      "type": "event"
    },
    {
      "anonymous": false,
      "inputs": [
        {
          "indexed": true,
          "internalType": "address",
          "name": "addr",
          "type": "address"
        },
        {
          "indexed": false,
          "internalType": "bool",
          "name": "excluded",
          "type": "bool"
        }
      ],
      "name": "ExcludedFromLimits",
      "type": "event"
    },
    {
      "anonymous": false,
      "inputs": [
        {
          "indexed": true,
          "internalType": "address",
          "name": "to",
          "type": "address"
        },
        {
          "indexed": false,
          "internalType": "uint256",
          "name": "amount",
          "type": "uint256"
        }
      ],
      "name": "FeesRouted",
      "type": "event"
    },
    {
      "anonymous": false,
      "inputs": [
        {
          "indexed": true,
          "internalType": "address",
          "name": "actor",
          "type": "address"
        },
        {
          "indexed": false,
          "internalType": "uint256",
          "name": "impactBps",
          "type": "uint256"
        },
        {
          "indexed": false,
          "internalType": "uint256",
          "name": "maxAllowed",
          "type": "uint256"
        }
      ],
      "name": "ImpactCheckFailed",
      "type": "event"
    },
    {
      "anonymous": false,
      "inputs": [
        {
          "indexed": false,
          "internalType": "uint256",
          "name": "maxTx",
          "type": "uint256"
        },
        {
          "indexed": false,
          "internalType": "uint256",
          "name": "maxWallet",
          "type": "uint256"
        }
      ],
      "name": "LimitsUpdated",
      "type": "event"
    },
    {
      "anonymous": false,
      "inputs": [
        {
          "indexed": false,
          "internalType": "uint256",
          "name": "newMax",
          "type": "uint256"
        }
      ],
      "name": "MaxDailyVolumeUpdated",
      "type": "event"
    },
    {
      "anonymous": false,
      "inputs": [
        {
          "indexed": false,
          "internalType": "address",
          "name": "account",
          "type": "address"
        }
      ],
      "name": "Paused",
      "type": "event"
    },
    {
      "anonymous": false,
      "inputs": [
        {
          "indexed": true,
          "internalType": "address",
          "name": "newPool",
          "type": "address"
        }
      ],
      "name": "PrizePoolUpdated",
      "type": "event"
    },
    {
      "anonymous": false,
      "inputs": [
        {
          "indexed": true,
          "internalType": "bytes32",
          "name": "role",
          "type": "bytes32"
        },
        {
          "indexed": true,
          "internalType": "bytes32",
          "name": "previousAdminRole",
          "type": "bytes32"
        },
        {
          "indexed": true,
          "internalType": "bytes32",
          "name": "newAdminRole",
          "type": "bytes32"
        }
      ],
      "name": "RoleAdminChanged",
      "type": "event"
    },
    {
      "anonymous": false,
      "inputs": [
        {
          "indexed": true,
          "internalType": "bytes32",
          "name": "role",
          "type": "bytes32"
        },
        {
          "indexed": true,
          "internalType": "address",
          "name": "account",
          "type": "address"
        },
        {
          "indexed": true,
          "internalType": "address",
          "name": "sender",
          "type": "address"
        }
      ],
      "name": "RoleGranted",
      "type": "event"
    },
    {
      "anonymous": false,
      "inputs": [
        {
          "indexed": true,
          "internalType": "bytes32",
          "name": "role",
          "type": "bytes32"
        },
        {
          "indexed": true,
          "internalType": "address",
          "name": "account",
          "type": "address"
        },
        {
          "indexed": true,
          "internalType": "address",
          "name": "sender",
          "type": "address"
        }
      ],
      "name": "RoleRevoked",
      "type": "event"
    },
    {
      "anonymous": false,
      "inputs": [
        {
          "indexed": true,
          "internalType": "address",
          "name": "burner",
          "type": "address"
        },
        {
          "indexed": false,
          "internalType": "uint256",
          "name": "amount",
          "type": "uint256"
        }
      ],
      "name": "TokensBurned",
      "type": "event"
    },
    {
      "anonymous": false,
      "inputs": [
        {
          "indexed": true,
          "internalType": "address",
          "name": "campaign",
          "type": "address"
        },
        {
          "indexed": false,
          "internalType": "uint256",
          "name": "amount",
          "type": "uint256"
        }
      ],
      "name": "TokensBurnedByCampaign",
      "type": "event"
    },
    {
      "anonymous": false,
      "inputs": [
        {
          "indexed": true,
          "internalType": "uint256",
          "name": "launchBlock",
          "type": "uint256"
        }
      ],
      "name": "TradingEnabled",
      "type": "event"
    },
    {
      "anonymous": false,
      "inputs": [
        {
          "indexed": true,
          "internalType": "address",
          "name": "from",
          "type": "address"
        },
        {
          "indexed": true,
          "internalType": "address",
          "name": "to",
          "type": "address"
        },
        {
          "indexed": false,
          "internalType": "uint256",
          "name": "value",
          "type": "uint256"
        }
      ],
      "name": "Transfer",
      "type": "event"
    },
    {
      "anonymous": false,
      "inputs": [
        {
          "indexed": false,
          "internalType": "address",
          "name": "account",
          "type": "address"
        }
      ],
      "name": "Unpaused",
      "type": "event"
    },
    {
      "anonymous": false,
      "inputs": [
        {
          "indexed": true,
          "internalType": "address",
          "name": "user",
          "type": "address"
        },
        {
          "indexed": false,
          "internalType": "uint256",
          "name": "amount",
          "type": "uint256"
        }
      ],
      "name": "WithdrawalProcessed",
      "type": "event"
    },
    {
      "anonymous": false,
      "inputs": [
        {
          "indexed": true,
          "internalType": "address",
          "name": "user",
          "type": "address"
        },
        {
          "indexed": false,
          "internalType": "uint256",
          "name": "amount",
          "type": "uint256"
        }
      ],
      "name": "WithdrawalQueued",
      "type": "event"
    },
    {
      "inputs": [],
      "name": "ADMIN_ROLE",
      "outputs": [
        {
          "internalType": "bytes32",
          "name": "",
          "type": "bytes32"
        }
      ],
      "stateMutability": "view",
      "type": "function"
    },
    {
      "inputs": [],
      "name": "BURNER_ROLE",
      "outputs": [
        {
          "internalType": "bytes32",
          "name": "",
          "type": "bytes32"
        }
      ],
      "stateMutability": "view",
      "type": "function"
    },
    {
      "inputs": [],
      "name": "DEFAULT_ADMIN_ROLE",
      "outputs": [
        {
          "internalType": "bytes32",
          "name": "",
          "type": "bytes32"
        }
      ],
      "stateMutability": "view",
      "type": "function"
    },
    {
      "inputs": [],
      "name": "DOMAIN_SEPARATOR",
      "outputs": [
        {
          "internalType": "bytes32",
          "name": "",
          "type": "bytes32"
        }
      ],
      "stateMutability": "view",
      "type": "function"
    },
    {
      "inputs": [],
      "name": "FEE_DENOM",
      "outputs": [
        {
          "internalType": "uint256",
          "name": "",
          "type": "uint256"
        }
      ],
      "stateMutability": "view",
      "type": "function"
    },
    {
      "inputs": [],
      "name": "INITIAL_SUPPLY",
      "outputs": [
        {
          "internalType": "uint256",
          "name": "",
          "type": "uint256"
        }
      ],
      "stateMutability": "view",
      "type": "function"
    },
    {
      "inputs": [],
      "name": "MAX_PENALTY_FEE",
      "outputs": [
        {
          "internalType": "uint256",
          "name": "",
          "type": "uint256"
        }
      ],
      "stateMutability": "view",
      "type": "function"
    },
    {
      "inputs": [],
      "name": "MAX_SUPPLY",
      "outputs": [
        {
          "internalType": "uint256",
          "name": "",
          "type": "uint256"
        }
      ],
      "stateMutability": "view",
      "type": "function"
    },
    {
      "inputs": [],
      "name": "OPERATOR_ROLE",
      "outputs": [
        {
          "internalType": "bytes32",
          "name": "",
          "type": "bytes32"
        }
      ],
      "stateMutability": "view",
      "type": "function"
    },
    {
      "inputs": [
        {
          "internalType": "address",
          "name": "owner",
          "type": "address"
        },
        {
          "internalType": "address",
          "name": "spender",
          "type": "address"
        }
      ],
      "name": "allowance",
      "outputs": [
        {
          "internalType": "uint256",
          "name": "",
          "type": "uint256"
        }
      ],
      "stateMutability": "view",
      "type": "function"
    },
    {
      "inputs": [
        {
          "internalType": "address",
          "name": "spender",
          "type": "address"
        },
        {
          "internalType": "uint256",
          "name": "value",
          "type": "uint256"
        }
      ],
      "name": "approve",
      "outputs": [
        {
          "internalType": "bool",
          "name": "",
          "type": "bool"
        }
      ],
      "stateMutability": "nonpayable",
      "type": "function"
    },
    {
      "inputs": [
        {
          "internalType": "address",
          "name": "",
          "type": "address"
        }
      ],
      "name": "authorizedBurners",
      "outputs": [
        {
          "internalType": "bool",
          "name": "",
          "type": "bool"
        }
      ],
      "stateMutability": "view",
      "type": "function"
    },
    {
      "inputs": [
        {
          "internalType": "address",
          "name": "account",
          "type": "address"
        }
      ],
      "name": "balanceOf",
      "outputs": [
        {
          "internalType": "uint256",
          "name": "",
          "type": "uint256"
        }
      ],
      "stateMutability": "view",
      "type": "function"
    },
    {
      "inputs": [
        {
          "internalType": "address",
          "name": "bot",
          "type": "address"
        },
        {
          "internalType": "bool",
          "name": "value",
          "type": "bool"
        }
      ],
      "name": "blacklistAddress",
      "outputs": [],
      "stateMutability": "nonpayable",
      "type": "function"
    },
    {
      "inputs": [
        {
          "internalType": "uint256",
          "name": "amount",
          "type": "uint256"
        }
      ],
      "name": "burn",
      "outputs": [],
      "stateMutability": "nonpayable",
      "type": "function"
    },
    {
      "inputs": [
        {
          "internalType": "address",
          "name": "account",
          "type": "address"
        },
        {
          "internalType": "uint256",
          "name": "amount",
          "type": "uint256"
        }
      ],
      "name": "burnFrom",
      "outputs": [],
      "stateMutability": "nonpayable",
      "type": "function"
    },
    {
      "inputs": [],
      "name": "campaignManager",
      "outputs": [
        {
          "internalType": "address",
          "name": "",
          "type": "address"
        }
      ],
      "stateMutability": "view",
      "type": "function"
    },
    {
      "inputs": [],
      "name": "circuitBreakerEnabled",
      "outputs": [
        {
          "internalType": "bool",
          "name": "",
          "type": "bool"
        }
      ],
      "stateMutability": "view",
      "type": "function"
    },
    {
      "inputs": [],
      "name": "circulatingSupply",
      "outputs": [
        {
          "internalType": "uint256",
          "name": "",
          "type": "uint256"
        }
      ],
      "stateMutability": "view",
      "type": "function"
    },
    {
      "inputs": [],
      "name": "cooldownBlocks",
      "outputs": [
        {
          "internalType": "uint256",
          "name": "",
          "type": "uint256"
        }
      ],
      "stateMutability": "view",
      "type": "function"
    },
    {
      "inputs": [],
      "name": "currentDay",
      "outputs": [
        {
          "internalType": "uint256",
          "name": "",
          "type": "uint256"
        }
      ],
      "stateMutability": "view",
      "type": "function"
    },
    {
      "inputs": [],
      "name": "currentDayVolume",
      "outputs": [
        {
          "internalType": "uint256",
          "name": "",
          "type": "uint256"
        }
      ],
      "stateMutability": "view",
      "type": "function"
    },
    {
      "inputs": [],
      "name": "decimals",
      "outputs": [
        {
          "internalType": "uint8",
          "name": "",
          "type": "uint8"
        }
      ],
      "stateMutability": "view",
      "type": "function"
    },
    {
      "inputs": [],
      "name": "eip712Domain",
      "outputs": [
        {
          "internalType": "bytes1",
          "name": "fields",
          "type": "bytes1"
        },
        {
          "internalType": "string",
          "name": "name",
          "type": "string"
        },
        {
          "internalType": "string",
          "name": "version",
          "type": "string"
        },
        {
          "internalType": "uint256",
          "name": "chainId",
          "type": "uint256"
        },
        {
          "internalType": "address",
          "name": "verifyingContract",
          "type": "address"
        },
        {
          "internalType": "bytes32",
          "name": "salt",
          "type": "bytes32"
        },
        {
          "internalType": "uint256[]",
          "name": "extensions",
          "type": "uint256[]"
        }
      ],
      "stateMutability": "view",
      "type": "function"
    },
    {
      "inputs": [],
      "name": "enableTrading",
      "outputs": [],
      "stateMutability": "nonpayable",
      "type": "function"
    },
    {
      "inputs": [],
      "name": "getBurnStats",
      "outputs": [
        {
          "internalType": "uint256",
          "name": "burned",
          "type": "uint256"
        },
        {
          "internalType": "uint256",
          "name": "circulating",
          "type": "uint256"
        },
        {
          "internalType": "uint256",
          "name": "burnRate",
          "type": "uint256"
        }
      ],
      "stateMutability": "view",
      "type": "function"
    },
    {
      "inputs": [
        {
          "internalType": "bytes32",
          "name": "role",
          "type": "bytes32"
        }
      ],
      "name": "getRoleAdmin",
      "outputs": [
        {
          "internalType": "bytes32",
          "name": "",
          "type": "bytes32"
        }
      ],
      "stateMutability": "view",
      "type": "function"
    },
    {
      "inputs": [],
      "name": "graceImpactBps",
      "outputs": [
        {
          "internalType": "uint256",
          "name": "",
          "type": "uint256"
        }
      ],
      "stateMutability": "view",
      "type": "function"
    },
    {
      "inputs": [
        {
          "internalType": "bytes32",
          "name": "role",
          "type": "bytes32"
        },
        {
          "internalType": "address",
          "name": "account",
          "type": "address"
        }
      ],
      "name": "grantRole",
      "outputs": [],
      "stateMutability": "nonpayable",
      "type": "function"
    },
    {
      "inputs": [
        {
          "internalType": "bytes32",
          "name": "role",
          "type": "bytes32"
        },
        {
          "internalType": "address",
          "name": "account",
          "type": "address"
        }
      ],
      "name": "hasRole",
      "outputs": [
        {
          "internalType": "bool",
          "name": "",
          "type": "bool"
        }
      ],
      "stateMutability": "view",
      "type": "function"
    },
    {
      "inputs": [],
      "name": "impactGraceBlocks",
      "outputs": [
        {
          "internalType": "uint256",
          "name": "",
          "type": "uint256"
        }
      ],
      "stateMutability": "view",
      "type": "function"
    },
    {
      "inputs": [
        {
          "internalType": "address",
          "name": "",
          "type": "address"
        }
      ],
      "name": "isBot",
      "outputs": [
        {
          "internalType": "bool",
          "name": "",
          "type": "bool"
        }
      ],
      "stateMutability": "view",
      "type": "function"
    },
    {
      "inputs": [],
      "name": "launchBlock",
      "outputs": [
        {
          "internalType": "uint256",
          "name": "",
          "type": "uint256"
        }
      ],
      "stateMutability": "view",
      "type": "function"
    },
    {
      "inputs": [],
      "name": "maxDailyVolume",
      "outputs": [
        {
          "internalType": "uint256",
          "name": "",
          "type": "uint256"
        }
      ],
      "stateMutability": "view",
      "type": "function"
    },
    {
      "inputs": [],
      "name": "maxSellBpsOfReserves",
      "outputs": [
        {
          "internalType": "uint256",
          "name": "",
          "type": "uint256"
        }
      ],
      "stateMutability": "view",
      "type": "function"
    },
    {
      "inputs": [],
      "name": "maxSwapImpactBps",
      "outputs": [
        {
          "internalType": "uint256",
          "name": "",
          "type": "uint256"
        }
      ],
      "stateMutability": "view",
      "type": "function"
    },
    {
      "inputs": [],
      "name": "maxTxAmount",
      "outputs": [
        {
          "internalType": "uint256",
          "name": "",
          "type": "uint256"
        }
      ],
      "stateMutability": "view",
      "type": "function"
    },
    {
      "inputs": [],
      "name": "maxWalletAmount",
      "outputs": [
        {
          "internalType": "uint256",
          "name": "",
          "type": "uint256"
        }
      ],
      "stateMutability": "view",
      "type": "function"
    },
    {
      "inputs": [],
      "name": "minReservesForImpact",
      "outputs": [
        {
          "internalType": "uint256",
          "name": "",
          "type": "uint256"
        }
      ],
      "stateMutability": "view",
      "type": "function"
    },
    {
      "inputs": [
        {
          "internalType": "address",
          "name": "to",
          "type": "address"
        },
        {
          "internalType": "uint256",
          "name": "amount",
          "type": "uint256"
        }
      ],
      "name": "mint",
      "outputs": [],
      "stateMutability": "nonpayable",
      "type": "function"
    },
    {
      "inputs": [],
      "name": "name",
      "outputs": [
        {
          "internalType": "string",
          "name": "",
          "type": "string"
        }
      ],
      "stateMutability": "view",
      "type": "function"
    },
    {
      "inputs": [
        {
          "internalType": "address",
          "name": "owner",
          "type": "address"
        }
      ],
      "name": "nonces",
      "outputs": [
        {
          "internalType": "uint256",
          "name": "",
          "type": "uint256"
        }
      ],
      "stateMutability": "view",
      "type": "function"
    },
    {
      "inputs": [],
      "name": "normalFee",
      "outputs": [
        {
          "internalType": "uint256",
          "name": "",
          "type": "uint256"
        }
      ],
      "stateMutability": "view",
      "type": "function"
    },
    {
      "inputs": [],
      "name": "pancakePair",
      "outputs": [
        {
          "internalType": "address",
          "name": "",
          "type": "address"
        }
      ],
      "stateMutability": "view",
      "type": "function"
    },
    {
      "inputs": [],
      "name": "pancakeRouter",
      "outputs": [
        {
          "internalType": "contract IUniswapV2Router02",
          "name": "",
          "type": "address"
        }
      ],
      "stateMutability": "view",
      "type": "function"
    },
    {
      "inputs": [],
      "name": "pause",
      "outputs": [],
      "stateMutability": "nonpayable",
      "type": "function"
    },
    {
      "inputs": [],
      "name": "paused",
      "outputs": [
        {
          "internalType": "bool",
          "name": "",
          "type": "bool"
        }
      ],
      "stateMutability": "view",
      "type": "function"
    },
    {
      "inputs": [],
      "name": "penaltyBlocks",
      "outputs": [
        {
          "internalType": "uint256",
          "name": "",
          "type": "uint256"
        }
      ],
      "stateMutability": "view",
      "type": "function"
    },
    {
      "inputs": [
        {
          "internalType": "address",
          "name": "",
          "type": "address"
        }
      ],
      "name": "pendingWithdrawals",
      "outputs": [
        {
          "internalType": "uint256",
          "name": "",
          "type": "uint256"
        }
      ],
      "stateMutability": "view",
      "type": "function"
    },
    {
      "inputs": [
        {
          "internalType": "address",
          "name": "owner",
          "type": "address"
        },
        {
          "internalType": "address",
          "name": "spender",
          "type": "address"
        },
        {
          "internalType": "uint256",
          "name": "value",
          "type": "uint256"
        },
        {
          "internalType": "uint256",
          "name": "deadline",
          "type": "uint256"
        },
        {
          "internalType": "uint8",
          "name": "v",
          "type": "uint8"
        },
        {
          "internalType": "bytes32",
          "name": "r",
          "type": "bytes32"
        },
        {
          "internalType": "bytes32",
          "name": "s",
          "type": "bytes32"
        }
      ],
      "name": "permit",
      "outputs": [],
      "stateMutability": "nonpayable",
      "type": "function"
    },
    {
      "inputs": [],
      "name": "prizePool",
      "outputs": [
        {
          "internalType": "address",
          "name": "",
          "type": "address"
        }
      ],
      "stateMutability": "view",
      "type": "function"
    },
    {
      "inputs": [],
      "name": "processWithdrawal",
      "outputs": [],
      "stateMutability": "nonpayable",
      "type": "function"
    },
    {
      "inputs": [
        {
          "internalType": "address",
          "name": "user",
          "type": "address"
        },
        {
          "internalType": "uint256",
          "name": "amount",
          "type": "uint256"
        }
      ],
      "name": "queueWithdrawal",
      "outputs": [],
      "stateMutability": "nonpayable",
      "type": "function"
    },
    {
      "inputs": [
        {
          "internalType": "address",
          "name": "token",
          "type": "address"
        },
        {
          "internalType": "address",
          "name": "to",
          "type": "address"
        },
        {
          "internalType": "uint256",
          "name": "amount",
          "type": "uint256"
        }
      ],
      "name": "recoverERC20",
      "outputs": [],
      "stateMutability": "nonpayable",
      "type": "function"
    },
    {
      "inputs": [
        {
          "internalType": "address payable",
          "name": "to",
          "type": "address"
        }
      ],
      "name": "recoverETH",
      "outputs": [],
      "stateMutability": "nonpayable",
      "type": "function"
    },
    {
      "inputs": [
        {
          "internalType": "bytes32",
          "name": "role",
          "type": "bytes32"
        },
        {
          "internalType": "address",
          "name": "account",
          "type": "address"
        }
      ],
      "name": "renounceRole",
      "outputs": [],
      "stateMutability": "nonpayable",
      "type": "function"
    },
    {
      "inputs": [
        {
          "internalType": "bytes32",
          "name": "role",
          "type": "bytes32"
        },
        {
          "internalType": "address",
          "name": "account",
          "type": "address"
        }
      ],
      "name": "revokeRole",
      "outputs": [],
      "stateMutability": "nonpayable",
      "type": "function"
    },
    {
      "inputs": [
        {
          "internalType": "uint256",
          "name": "amount",
          "type": "uint256"
        }
      ],
      "name": "routeFeesToPrizePool",
      "outputs": [],
      "stateMutability": "nonpayable",
      "type": "function"
    },
    {
      "inputs": [],
      "name": "sameBlockGuard",
      "outputs": [
        {
          "internalType": "bool",
          "name": "",
          "type": "bool"
        }
      ],
      "stateMutability": "view",
      "type": "function"
    },
    {
      "inputs": [],
      "name": "sellLimitGraceBlocks",
      "outputs": [
        {
          "internalType": "uint256",
          "name": "",
          "type": "uint256"
        }
      ],
      "stateMutability": "view",
      "type": "function"
    },
    {
      "inputs": [
        {
          "internalType": "address",
          "name": "burner",
          "type": "address"
        },
        {
          "internalType": "bool",
          "name": "authorized",
          "type": "bool"
        }
      ],
      "name": "setAuthorizedBurner",
      "outputs": [],
      "stateMutability": "nonpayable",
      "type": "function"
    },
    {
      "inputs": [
        {
          "internalType": "address",
          "name": "_manager",
          "type": "address"
        }
      ],
      "name": "setCampaignManager",
      "outputs": [],
      "stateMutability": "nonpayable",
      "type": "function"
    },
    {
      "inputs": [
        {
          "internalType": "bool",
          "name": "_enabled",
          "type": "bool"
        }
      ],
      "name": "setCircuitBreakerEnabled",
      "outputs": [],
      "stateMutability": "nonpayable",
      "type": "function"
    },
    {
      "inputs": [
        {
          "internalType": "uint256",
          "name": "blocks_",
          "type": "uint256"
        }
      ],
      "name": "setCooldownBlocks",
      "outputs": [],
      "stateMutability": "nonpayable",
      "type": "function"
    },
    {
      "inputs": [
        {
          "internalType": "address",
          "name": "addr",
          "type": "address"
        },
        {
          "internalType": "bool",
          "name": "excluded",
          "type": "bool"
        }
      ],
      "name": "setExcludedFromFee",
      "outputs": [],
      "stateMutability": "nonpayable",
      "type": "function"
    },
    {
      "inputs": [
        {
          "internalType": "address",
          "name": "addr",
          "type": "address"
        },
        {
          "internalType": "bool",
          "name": "excluded",
          "type": "bool"
        }
      ],
      "name": "setExcludedFromLimits",
      "outputs": [],
      "stateMutability": "nonpayable",
      "type": "function"
    },
    {
      "inputs": [
        {
          "internalType": "uint256",
          "name": "maxTx_",
          "type": "uint256"
        },
        {
          "internalType": "uint256",
          "name": "maxWallet_",
          "type": "uint256"
        }
      ],
      "name": "setLimits",
      "outputs": [],
      "stateMutability": "nonpayable",
      "type": "function"
    },
    {
      "inputs": [
        {
          "internalType": "uint256",
          "name": "_max",
          "type": "uint256"
        }
      ],
      "name": "setMaxDailyVolume",
      "outputs": [],
      "stateMutability": "nonpayable",
      "type": "function"
    },
    {
      "inputs": [
        {
          "internalType": "uint256",
          "name": "bps",
          "type": "uint256"
        }
      ],
      "name": "setMaxSwapImpactBps",
      "outputs": [],
      "stateMutability": "nonpayable",
      "type": "function"
    },
    {
      "inputs": [
        {
          "internalType": "uint256",
          "name": "fee_",
          "type": "uint256"
        }
      ],
      "name": "setNormalFee",
      "outputs": [],
      "stateMutability": "nonpayable",
      "type": "function"
    },
    {
      "inputs": [
        {
          "internalType": "uint256",
          "name": "blocks_",
          "type": "uint256"
        }
      ],
      "name": "setPenaltyBlocks",
      "outputs": [],
      "stateMutability": "nonpayable",
      "type": "function"
    },
    {
      "inputs": [
        {
          "internalType": "address",
          "name": "pool",
          "type": "address"
        }
      ],
      "name": "setPrizePool",
      "outputs": [],
      "stateMutability": "nonpayable",
      "type": "function"
    },
    {
      "inputs": [
        {
          "internalType": "bool",
          "name": "enabled",
          "type": "bool"
        }
      ],
      "name": "setSameBlockGuard",
      "outputs": [],
      "stateMutability": "nonpayable",
      "type": "function"
    },
    {
      "inputs": [
        {
          "internalType": "bytes4",
          "name": "interfaceId",
          "type": "bytes4"
        }
      ],
      "name": "supportsInterface",
      "outputs": [
        {
          "internalType": "bool",
          "name": "",
          "type": "bool"
        }
      ],
      "stateMutability": "view",
      "type": "function"
    },
    {
      "inputs": [],
      "name": "symbol",
      "outputs": [
        {
          "internalType": "string",
          "name": "",
          "type": "string"
        }
      ],
      "stateMutability": "view",
      "type": "function"
    },
    {
      "inputs": [],
      "name": "taxBuys",
      "outputs": [
        {
          "internalType": "bool",
          "name": "",
          "type": "bool"
        }
      ],
      "stateMutability": "view",
      "type": "function"
    },
    {
      "inputs": [],
      "name": "totalBurned",
      "outputs": [
        {
          "internalType": "uint256",
          "name": "",
          "type": "uint256"
        }
      ],
      "stateMutability": "view",
      "type": "function"
    },
    {
      "inputs": [],
      "name": "totalFeesCollected",
      "outputs": [
        {
          "internalType": "uint256",
          "name": "",
          "type": "uint256"
        }
      ],
      "stateMutability": "view",
      "type": "function"
    },
    {
      "inputs": [],
      "name": "totalPendingWithdrawals",
      "outputs": [
        {
          "internalType": "uint256",
          "name": "",
          "type": "uint256"
        }
      ],
      "stateMutability": "view",
      "type": "function"
    },
    {
      "inputs": [],
      "name": "totalSupply",
      "outputs": [
        {
          "internalType": "uint256",
          "name": "",
          "type": "uint256"
        }
      ],
      "stateMutability": "view",
      "type": "function"
    },
    {
      "inputs": [],
      "name": "tradingEnabled",
      "outputs": [
        {
          "internalType": "bool",
          "name": "",
          "type": "bool"
        }
      ],
      "stateMutability": "view",
      "type": "function"
    },
    {
      "inputs": [
        {
          "internalType": "address",
          "name": "to",
          "type": "address"
        },
        {
          "internalType": "uint256",
          "name": "value",
          "type": "uint256"
        }
      ],
      "name": "transfer",
      "outputs": [
        {
          "internalType": "bool",
          "name": "",
          "type": "bool"
        }
      ],
      "stateMutability": "nonpayable",
      "type": "function"
    },
    {
      "inputs": [
        {
          "internalType": "address",
          "name": "from",
          "type": "address"
        },
        {
          "internalType": "address",
          "name": "to",
          "type": "address"
        },
        {
          "internalType": "uint256",
          "name": "value",
          "type": "uint256"
        }
      ],
      "name": "transferFrom",
      "outputs": [
        {
          "internalType": "bool",
          "name": "",
          "type": "bool"
        }
      ],
      "stateMutability": "nonpayable",
      "type": "function"
    },
    {
      "inputs": [],
      "name": "unpause",
      "outputs": [],
      "stateMutability": "nonpayable",
      "type": "function"
    },
    {
      "stateMutability": "payable",
      "type": "receive"
    }
  ],
  "bytecode": "0x61016080604052346200098a5760408162004b888038038091620000248285620009ab565b8339810103126200098a576200004860206200004083620009cf565b9201620009cf565b60405162000056816200098f565b600b81526a29a8aaa22c902a37b5b2b760a91b92836020830152604051936200007f856200098f565b600b8552602085015260405162000096816200098f565b6005815264535155445960d81b602082015260405194620000b7866200098f565b60018652603160f81b60208701528051906001600160401b0382116200072e5760035490600182811c921680156200097f575b6020831014620008515781601f8493116200090d575b50602090601f83116001146200087e5760009262000872575b50508160011b916000199060031b1c1916176003555b8051906001600160401b0382116200072e5760045490600182811c9216801562000867575b6020831014620008515781601f849311620007df575b50602090601f8311600114620007505760009262000744575b50508160011b916000199060031b1c1916176004555b620001a48262000b08565b92610120938452620001b68562000ccc565b9261014093845260208151910120948560e0526020815191012091610100958387524660a0526040519360208501917f8b73c3c69bb8fe3d512ecc4cf759cc79239f7b179b0ffacaa9a75d522b39400f8352604086015260608501524660808501523060a085015260a0845260c084019084821060018060401b038311176200072e5781604052845190206080523060c0526001600a556003600e556002600f5560c86010556b07452808679520890a0000006012556b0e8a5010cf2a4112140000006013556b916720a817a68ab4c800000060145560ff1992600184601754161760175560c8601e5561012c80601f5561032060205569d3c21bcecceda1000000602155600185602254161760225561177060245560255560018060a01b0391828216958615620006fa57505080620002f4620002fb92620009e4565b5062000a65565b5060ff60095416620006e8576002546c05ae074690ec816b0fd000000090818101809111620006d2577fddf252ad1be2c89b69c2b068fc378daa952ba7f163c4a11628f55a4df523b3ef6020879360009360025584845283825260408420818154019055604051908152a36201518042046015558060009216918262000497575b60018060a01b03199283600b541617600b55168091600c541617600c5582600052601c602052604060002060018382541617905530600052604060002060018382541617905582600052601d6020526040600020600183825416179055306000526040600020600183825416179055806200047f575b5081600052602660205260016040600020918254161790557f820feb1c986b7f5bafd6bfc94f2a065587da0b565ed6fd3a4bcc0a2e71d7a524602060405160018152a260405191613ce3938462000e85853960805184612779015260a05184612845015260c05184612743015260e051846127c8015251836127ee01525182610c1501525181610c3f0152f35b600052604060002060018282541617905538620003f2565b60405163c45a015560e01b8152602081600481875afa908115620006c757829162000681575b506040516315ab88c960e31b815290602082600481885afa918215620006765790849184936200062c575b5060405163e6a4390560e01b81523060048201526001600160a01b038416602482015291169190602081604481865afa90811562000621578491620005db575b50808516620005d157506040516364e329cb60e11b81523060048201526001600160a01b03919091166024820152906020908290604490829086905af1918215620005c55780926200057d575b50506200037c565b9091506020823d602011620005bc575b816200059c60209383620009ab565b81010312620005b95750620005b190620009cf565b388062000575565b80fd5b3d91506200058d565b604051903d90823e3d90fd5b925050506200037c565b90506020813d60201162000618575b81620005f960209383620009ab565b8101031262000614576200060d90620009cf565b3862000528565b8380fd5b3d9150620005ea565b6040513d86823e3d90fd5b915091506020813d6020116200066d575b816200064c60209383620009ab565b810103126200066957620006618491620009cf565b9138620004e8565b8280fd5b3d91506200063d565b6040513d85823e3d90fd5b90506020813d602011620006be575b816200069f60209383620009ab565b81010312620006ba57620006b390620009cf565b38620004bd565b5080fd5b3d915062000690565b6040513d84823e3d90fd5b634e487b7160e01b600052601160045260246000fd5b60405163d93c066560e01b8152600490fd5b62461bcd60e51b8252602060c4820152600d60e48201526c24b73b30b634b21037bbb732b960991b61010490910152606490fd5b634e487b7160e01b600052604160045260246000fd5b01519050388062000183565b6004600090815293507f8a35acfbc15ff81a39ae7d344fd709f28e8600b4aa8c65c6b64bfe7fe36bd19b91905b601f1984168510620007c3576001945083601f19811610620007a9575b505050811b0160045562000199565b015160001960f88460031b161c191690553880806200079a565b818101518355602094850194600190930192909101906200077d565b60046000529091507f8a35acfbc15ff81a39ae7d344fd709f28e8600b4aa8c65c6b64bfe7fe36bd19b601f840160051c81016020851062000849575b90849392915b601f830160051c82018110620008395750506200016a565b6000815585945060010162000821565b50806200081b565b634e487b7160e01b600052602260045260246000fd5b91607f169162000154565b01519050388062000119565b6003600090815293507fc2575a0e9e593c00f959f8c92f12db2869c3395a3b0502d05e2516446f71f85b91905b601f1984168510620008f1576001945083601f19811610620008d7575b505050811b016003556200012f565b015160001960f88460031b161c19169055388080620008c8565b81810151835560209485019460019093019290910190620008ab565b60036000529091507fc2575a0e9e593c00f959f8c92f12db2869c3395a3b0502d05e2516446f71f85b601f840160051c81016020851062000977575b90849392915b601f830160051c820181106200096757505062000100565b600081558594506001016200094f565b508062000949565b91607f1691620000ea565b600080fd5b604081019081106001600160401b038211176200072e57604052565b601f909101601f19168101906001600160401b038211908210176200072e57604052565b51906001600160a01b03821682036200098a57565b6001600160a01b031660008181527f5eff886ea0ce6ca488a3d6e336d6c0f75f46d19b42c06ce5ee98e42c96d256c7602052604081205490919060ff1662000a615781805260086020526040822081835260205260408220600160ff19825416179055339160008051602062004b688339815191528180a4600190565b5090565b6001600160a01b031660008181527f17d1276acf776df712513cd7e943076446ad62eef46fc257e0602ed40109c3c660205260408120549091907fa49807205ce4d355092ef5a8a18f56e8913cf4a201fbe287825b095693c217759060ff1662000b035780835260086020526040832082845260205260408320600160ff1982541617905560008051602062004b68833981519152339380a4600190565b505090565b8051602091908281101562000ba7575090601f82511162000b46578082519201519080831062000b3757501790565b82600019910360031b1b161790565b90604051809263305a27a960e01b82528060048301528251908160248401526000935b82851062000b8d575050604492506000838284010152601f80199101168101030190fd5b848101820151868601604401529381019385935062000b69565b6001600160401b0381116200072e576005928354926001938481811c9116801562000cc1575b838210146200085157601f811162000c8a575b5081601f841160011462000c20575092829391839260009462000c14575b50501b916000199060031b1c191617905560ff90565b01519250388062000bfe565b919083601f1981168760005284600020946000905b8883831062000c6f575050501062000c55575b505050811b01905560ff90565b015160001960f88460031b161c1916905538808062000c48565b85870151885590960195948501948793509081019062000c35565b8560005284601f846000209201871c820191601f8601881c015b82811062000cb457505062000be0565b6000815501859062000ca4565b90607f169062000bcd565b80516020908181101562000d5a5750601f82511162000cf9578082519201519080831062000b3757501790565b90604051809263305a27a960e01b82528060048301528251908160248401526000935b82851062000d40575050604492506000838284010152601f80199101168101030190fd5b848101820151868601604401529381019385935062000d1c565b906001600160401b0382116200072e57600654926001938481811c9116801562000e79575b838210146200085157601f811162000e3f575b5081601f841160011462000dd3575092829391839260009462000dc7575b50501b916000199060031b1c19161760065560ff90565b01519250388062000db0565b919083601f198116600660005284600020946000905b8883831062000e24575050501062000e0a575b505050811b0160065560ff90565b015160001960f88460031b161c1916905538808062000dfc565b85870151885590960195948501948793509081019062000de9565b600660005284601f84600020920160051c820191601f860160051c015b82811062000e6c57505062000d92565b6000815501859062000e5c565b90607f169062000d7f56fe6080604081815260049182361015610022575b505050361561002057600080fd5b005b600092833560e01c91826301ffc9a714611fcd5750816306fdde0314611efa57816307df2f1814611edb578163095ea7b314611eb15781630ac28ff814611e155781630baa9ed614611df65781631171bda914611ce9578163131c910014611c6e578163134dfcd814611b9957816314626dc614611b775781631646bbd314611b1657816318160ddd14610aa9578163192584bb14611af757816320192fc914611ad857816323b872dd14611ab1578163248a9ca314611a86578163259e55de14611a67578163272e7c9614611a48578163282c51f314611a1f5781632d216039146118e85781632f2ff15d146118be5781632f37ea7a146118595781632ff2e9dc14611838578163313ce5671461183d57816332cb6b0c14611838578163336c6d391461179957816335b979ca146116b55781633644e5151461169157816336568abe1461160257816336fddb04146115865781633710cfe51461156757816337a1d4151461145d5781633bbac5791461141f5781633f4ba83a146113b557816340c10f19146112bf57816342966c6814611264578163452aa2f514611246578163455a4396146111c95781634886c675146111ac5781634ada218b146111855781635c3f2f4a146110f15781635c9302c9146110d25781635c975abb146110ae5781635df04d861461108a57816360c6d8ae1461106b5781636612e66f1461101957816370a0823114610fe2578163719ce73e14610fb957816375b238fc14610f7e57816379cc679014610def5781637e16529914610dd05781637ecebe0014610d98578163813c244f14610d765781638456cb5914610d1b57816384b0196e14610bfd5781638a8c523c14610b525781638c0b5e2214610b335781638c9e827114610b0f57816391d1485414610ac85781639358928b14610aa957816395d89b41146109be578163994a0829146109a15781639dd906b11461096c578163a217fddf14610951578163a4563e0314610932578163a9059cbb14610901578163aa4bde28146108e2578163ab166a11146108c3578163ab9068fa1461089f578163b8c9d25c14610876578163c21ebd071461084d578163c4590d3f146107f6578163c6340f00146107be578163d00efb2f1461079f578163d505accf14610637578163d547741f146105f7578163d89135cd146105d8578163dd62ed3e1461058f578163ec0cdf6214610551578163ecd24bbe1461048857508063f3f4370314610451578063f5b541a614610417578063fb1b6f48146103f95763fb5e76e6146103ce5780610012565b346103f557816003193601126103f55760275490516001600160a01b039091168152602090f35b5080fd5b50346103f557816003193601126103f5576020906025549051908152f35b50346103f557816003193601126103f557602090517f97667070c54ef182b0f5858b034beac1b6f3089aa2d3188bb1e8929f4fa9b9298152f35b50346103f55760203660031901126103f55760209181906001600160a01b03610478612060565b1681526018845220549051908152f35b90503461054d578160031936011261054d576104a2612060565b602754602435926001600160a01b039291831633036105125750916020917f1eac8a3fac20cbc0ab386e1c2f193255a774cea3c8b271d31509bf1ec731618d931693848652601883528086206104f9838254612a5f565b905561050782601954612a5f565b60195551908152a280f35b606490602086519162461bcd60e51b8352820152601560248201527427b7363c9031b0b6b830b4b3b71036b0b730b3b2b960591b6044820152fd5b8280fd5b5050346103f55760203660031901126103f55760209160ff9082906001600160a01b0361057c612060565b1681526026855220541690519015158152f35b5050346103f557806003193601126103f557806020926105ad612060565b6105b561207b565b6001600160a01b0391821683526001865283832091168252845220549051908152f35b5050346103f557816003193601126103f5576020906029549051908152f35b9190503461054d578060031936011261054d57610633913561062e600161061c61207b565b93838752600860205286200154612186565b612362565b5080f35b839150346103f55760e03660031901126103f557610653612060565b61065b61207b565b906044359260643560843560ff8116810361079b578142116107845760018060a01b0390818516928389526007602052898920908154916001830190558a519060208201927f6e71edae12b1b97f4d1f60370fef10105fa2faae0126114a169c64845d6126c98452868d840152858a1660608401528a608084015260a083015260c082015260c0815260e0810181811067ffffffffffffffff821117610771578b5251902061073f9161073691610710612740565b908c519161190160f01b83526002830152602282015260c43591604260a435922061262b565b909291926126bb565b1681810361075657866107538787876124c5565b80f35b87516325c0072360e11b815292830152602482015260449150fd5b634e487b7160e01b8b526041875260248bfd5b875163313c898160e11b8152808401839052602490fd5b8680fd5b5050346103f557816003193601126103f557602090600d549051908152f35b83346107f35760203660031901126107f3576107d86120a0565b6107e061210c565b60ff801960225416911515161760225580f35b80fd5b9190503461054d578060031936011261054d577f4d4981437d0211f9e6843eb024d9ada1fa3a99514d4343d4aece106dd11524bb913560243561083761210c565b816012558060135582519182526020820152a180f35b5050346103f557816003193601126103f557600b5490516001600160a01b039091168152602090f35b5050346103f557816003193601126103f557600c5490516001600160a01b039091168152602090f35b5050346103f557816003193601126103f55760209060ff6017541690519015158152f35b5050346103f557816003193601126103f5576020906016549051908152f35b5050346103f557816003193601126103f5576020906013549051908152f35b5050346103f557806003193601126103f55760209061092b610921612060565b6024359033612467565b5160018152f35b5050346103f557816003193601126103f5576020906019549051908152f35b5050346103f557816003193601126103f55751908152602090f35b83346107f35760203660031901126107f3576109866120a0565b61098e61210c565b60ff801960175416911515161760175580f35b5050346103f557816003193601126103f557602090516113888152f35b9190503461054d578260031936011261054d57805191838154906109e1826123d9565b80865292600192808416908115610a7e5750600114610a22575b610a1e8686610a0c828b0383612445565b51918291602083526020830190612020565b0390f35b815294507f8a35acfbc15ff81a39ae7d344fd709f28e8600b4aa8c65c6b64bfe7fe36bd19b5b828610610a6657505050610a0c826020610a1e9582010194386109fb565b80546020878701810191909152909501948101610a48565b9050610a1e975086935060209250610a0c94915060ff191682840152151560051b82010194386109fb565b5050346103f557816003193601126103f5576020906002549051908152f35b90503461054d578160031936011261054d578160209360ff92610ae961207b565b90358252600886528282206001600160a01b039091168252855220549151911615158152f35b5050346103f557816003193601126103f55760209060ff6022541690519015158152f35b5050346103f557816003193601126103f5576020906012549051908152f35b90503461054d578260031936011261054d57610b6c61210c565b600c549160ff8360a01c16610bba57505060ff60a01b1916600160a01b17600c5543600d8190557fb3da2db3dfc3778f99852546c6e9ab39ec253f9de7b0847afec61bd27878e9238280a280f35b906020606492519162461bcd60e51b8352820152601760248201527f54726164696e6720616c726561647920656e61626c65640000000000000000006044820152fd5b9190503461054d578260031936011261054d57610c397f000000000000000000000000000000000000000000000000000000000000000061286b565b92610c637f0000000000000000000000000000000000000000000000000000000000000000612967565b908251926020928385019585871067ffffffffffffffff881117610d0857509280610cbe838896610cb1998b9996528686528151998a99600f60f81b8b5260e0868c015260e08b0190612020565b91898303908a0152612020565b924660608801523060808801528460a088015286840360c088015251928381520193925b828110610cf157505050500390f35b835185528695509381019392810192600101610ce2565b634e487b7160e01b845260419052602483fd5b5050346103f557816003193601126103f55760207f62e78cea01bee320cd4e420270b5ea74000d11b0c9f74754ebdbfc544b05a25891610d5961210c565b610d61612a21565b600160ff19600954161760095551338152a180f35b8390346103f55760203660031901126103f557610d9161210c565b35600e5580f35b5050346103f55760203660031901126103f55760209181906001600160a01b03610dc0612060565b1681526007845220549051908152f35b5050346103f557816003193601126103f557602090601e549051908152f35b5050346103f557806003193601126103f557610e09612060565b6027546024359291906001600160a01b0390811633148015610f69575b8015610f3d575b8015610eff575b15610eac5760207ffd38818f5291bf0bb3a2a48aadc06ba8757865d1dabd804585338aab3009dcb691610e678685612ab2565b610e7386602954612a5f565b6029558451938685521692a2519081527fb19b6157b308633d5950342cc14a30507d3a73598706f2baba73ef0db21e7e5c60203392a280f35b6020917ffd38818f5291bf0bb3a2a48aadc06ba8757865d1dabd804585338aab3009dcb693610edc863384612558565b610ee68683612ab2565b610ef286602954612a5f565b602955519485521692a280f35b507fa49807205ce4d355092ef5a8a18f56e8913cf4a201fbe287825b095693c217758552600860205282852033865260205260ff8386205416610e34565b50600080516020613c6e8339815191528552600860205282852033865260205260ff8386205416610e2d565b50338552602660205260ff8386205416610e26565b5050346103f557816003193601126103f557602090517fa49807205ce4d355092ef5a8a18f56e8913cf4a201fbe287825b095693c217758152f35b5050346103f557816003193601126103f55760285490516001600160a01b039091168152602090f35b5050346103f55760203660031901126103f55760209181906001600160a01b0361100a612060565b16815280845220549051908152f35b5050346103f557806003193601126103f55761075390611037612060565b90611040612091565b9161104961210c565b60018060a01b03168452601c60205283209060ff801983541691151516179055565b5050346103f557816003193601126103f557602090602a549051908152f35b5050346103f557816003193601126103f55760209060ff6011541690519015158152f35b5050346103f557816003193601126103f55760209060ff6009541690519015158152f35b5050346103f557816003193601126103f5576020906015549051908152f35b9190503461054d57602036600319011261054d5781359161111061210c565b6b0e8a5010cf2a41121400000083106111555750816020917fa1f53dad4024b4e77813595cc395a33825582866232b16fdd6998f2a2bc9367b9360145551908152a180f35b6020606492519162461bcd60e51b8352820152600b60248201526a4d617820746f6f206c6f7760a81b6044820152fd5b5050346103f557816003193601126103f55760209060ff600c5460a01c1690519015158152f35b5050346103f557816003193601126103f557602090516127108152f35b5050346103f557806003193601126103f5576111e3612060565b61121c6111ee612091565b80926111f861210c565b60018060a01b031693848652601a60205285209060ff801983541691151516179055565b1515907f6a12b3df6cba4203bd7fd06b816789f87de8c594299aed5717ae070fac781bac8380a380f35b5050346103f557816003193601126103f55760209081549051908152f35b90503461054d57602036600319011261054d5735906112838233612ab2565b61128f82602954612a5f565b602955519081527ffd38818f5291bf0bb3a2a48aadc06ba8757865d1dabd804585338aab3009dcb660203392a280f35b9190503461054d578060031936011261054d576112da612060565b90602435916112e761210c565b6112ef612a21565b6001600160a01b0316928315906113068215612ad3565b600254916c05ae074690ec816b0fd00000006113228685612a5f565b116113835761136c575082600080516020613c8e83398151915292611352879560209461134d612a21565b612a5f565b60025585855284835280852082815401905551908152a380f35b825163ec442f0560e01b8152908101869052602490fd5b835162461bcd60e51b8152602081840152600c60248201526b10d85c08195e18d95959195960a21b6044820152606490fd5b90503461054d578260031936011261054d576113cf61210c565b6009549060ff821615611411575060ff1916600955513381527f5db9ee0a495bf2e6ff9c91a7834c1ba4fdd244a5e8aa4e537bd38aeae4b073aa90602090a180f35b8251638dfc202b60e01b8152fd5b5050346103f55760203660031901126103f55760209160ff9082906001600160a01b0361144a612060565b168152601a855220541690519015158152f35b9190503461054d578260031936011261054d57611478612a8f565b338352602090601882528084205492831561152e573085528483528382862054106114f65750907f5abb0fc89def2ee3226cc48f5621ee8e2b45f6dcc7898d2bdb5d480533c32bc0913385526018825284818120556114d984601954612a82565b6019556114e7843330612467565b519283523392a26001600a5580f35b82606492519162461bcd60e51b83528201526014602482015273496e73756666696369656e742062616c616e636560601b6044820152fd5b82606492519162461bcd60e51b83528201526015602482015274139bc81c195b991a5b99c81dda5d1a191c985dd85b605a1b6044820152fd5b5050346103f557816003193601126103f557602090601f549051908152f35b5050346103f557806003193601126103f5577f74392251b09500cc108c71712e5e7e0392be9075a74a24f1494551cfa8e0687060206115c3612060565b6115cb612091565b906115d461210c565b6001600160a01b0316808652601d8352848620805460ff191660ff84151516179055935b519015158152a280f35b8383346103f557806003193601126103f557823561161e61207b565b91811561164f57336001600160a01b0384160361164057509061063391612362565b5163334bd91960e11b81528490fd5b5162461bcd60e51b8152602081860152601a60248201527f43616e6e6f742072656e6f756e63652061646d696e20726f6c650000000000006044820152606490fd5b5050346103f557816003193601126103f5576020906116ae612740565b9051908152f35b5050346103f55760203660031901126103f5577f820feb1c986b7f5bafd6bfc94f2a065587da0b565ed6fd3a4bcc0a2e71d7a52460206116f3612060565b6116fb61210c565b602780546001600160a01b0319166001600160a01b038316908117909155938415159182611752575b505190847fe17819dc42dd03f960f41e1d2c445ab73231b51f5f6d2012d3654981d6c1eb348780a28152a280f35b61179290868852601c855282882060ff1990600182825416179055601d8652838920600182825416179055602686526001848a20918254161790556121ac565b5038611724565b5050346103f55760203660031901126103f5576117b4612060565b6117bc61210c565b602880546001600160a01b0319166001600160a01b03929092169182179055908161180a575b507f4ef326d1a011a3f95f1da57fe108574072271e350726b7d8d5cc02a4d1c64faa8280a280f35b818352601c60205260018184209160ff19928284825416179055601d602052842091825416179055386117e2565b6120e4565b5050346103f557816003193601126103f5576020905160128152f35b8383346103f557816003193601126103f55760295491600254612710918285029285840414851517156118ab57606085856c05ae074690ec816b0fd00000008686835194855260208501520490820152f35b634e487b7160e01b815260118652602490fd5b9190503461054d578060031936011261054d5761063391356118e3600161061c61207b565b61224d565b90503461054d57602036600319011261054d5780359061190661210c565b61190e612a8f565b6028546001600160a01b0391908216908382156119e7573087528660205261193c8688205460195490612a82565b9182156119b05750918183602095937f831c2d369d189f31d32a280e7292f37778a55c83a0b5e59dae0bbe1e3ced359b9795159182156119a6575b505061199c575b508261198a9130612467565b602854169351908152a26001600a5580f35b925061198a61197e565b1190508138611977565b606490602088519162461bcd60e51b835282015260116024820152704e6f206665657320617661696c61626c6560781b6044820152fd5b855162461bcd60e51b81526020818401526012602482015271141c9a5e99481c1bdbdb081b9bdd081cd95d60721b6044820152606490fd5b5050346103f557816003193601126103f55760209051600080516020613c6e8339815191528152f35b5050346103f557816003193601126103f5576020906010549051908152f35b5050346103f557816003193601126103f5576020906024549051908152f35b90503461054d57602036600319011261054d5781602093600192358152600885522001549051908152f35b5050346103f55760209061092b611ac7366120af565b91611ad3833383612558565b612467565b5050346103f557816003193601126103f557602090600e549051908152f35b5050346103f557816003193601126103f5576020906021549051908152f35b90503461054d57602036600319011261054d57803591611b3461210c565b6101f48311611b4557505060105580f35b906020606492519162461bcd60e51b8352820152600c60248201526b08ccaca40e8dede40d0d2ced60a31b6044820152fd5b8390346103f55760203660031901126103f557611b9261210c565b35600f5580f35b9190503461054d57602036600319011261054d578282356001600160a01b038116908190036103f55781808092611bce61210c565b611bd9811515612ad3565b47905af13d15611c69573d67ffffffffffffffff8111611c5657825190611c0a601f8201601f191660200183612445565b81528460203d92013e5b15611c1d578280f35b906020606492519162461bcd60e51b83528201526013602482015272115512081d1c985b9cd9995c8819985a5b1959606a1b6044820152fd5b634e487b7160e01b855260418452602485fd5b611c14565b90503461054d57602036600319011261054d57803591611c8c61210c565b601983101580611cdd575b15611ca4575050601e5580f35b906020606492519162461bcd60e51b83528201526013602482015272496d70616374206f7574206f662072616e676560681b6044820152fd5b506103e8831115611c97565b9190503461054d57611cfa366120af565b929190611d0561210c565b6001600160a01b0390811691611d1c831515612ad3565b1692308414611dbc57825190602082019263a9059cbb60e01b845260248301526044820152604481526080810181811067ffffffffffffffff821117611da95783525160209186919082865af115611da05783513d611d975750813b155b611d82578380f35b51635274afe760e01b81529182015260249150fd5b60011415611d7a565b513d84823e3d90fd5b634e487b7160e01b875260418652602487fd5b825162461bcd60e51b8152602081870152601460248201527343616e6e6f74207265636f76657220535155445960601b6044820152606490fd5b5050346103f557816003193601126103f557602090600f549051908152f35b5050346103f557806003193601126103f5577f820feb1c986b7f5bafd6bfc94f2a065587da0b565ed6fd3a4bcc0a2e71d7a5246020611e52612060565b92611e5b612091565b90611e6461210c565b6001600160a01b03851680875260268452818720805460ff191660ff85151516179055948215611ea257611e97906121ac565b50519015158152a280f35b611eab906122c8565b506115f8565b5050346103f557806003193601126103f55760209061092b611ed1612060565b60243590336124c5565b5050346103f557816003193601126103f5576020906014549051908152f35b5050346103f557816003193601126103f55780519082600354611f1c816123d9565b80855291600191808316908115611fa55750600114611f48575b505050610a0c82610a1e940383612445565b9450600385527fc2575a0e9e593c00f959f8c92f12db2869c3395a3b0502d05e2516446f71f85b5b828610611f8d57505050610a0c826020610a1e9582010194611f36565b80546020878701810191909152909501948101611f70565b610a1e975086935060209250610a0c94915060ff191682840152151560051b82010194611f36565b84913461054d57602036600319011261054d573563ffffffff60e01b811680910361054d5760209250637965db0b60e01b811490811561200f575b5015158152f35b6301ffc9a760e01b14905083612008565b919082519283825260005b84811061204c575050826000602080949584010152601f8019910116010190565b60208183018101518483018201520161202b565b600435906001600160a01b038216820361207657565b600080fd5b602435906001600160a01b038216820361207657565b60243590811515820361207657565b60043590811515820361207657565b6060906003190112612076576001600160a01b0390600435828116810361207657916024359081168103612076579060443590565b346120765760003660031901126120765760206040516c05ae074690ec816b0fd00000008152f35b3360009081527f17d1276acf776df712513cd7e943076446ad62eef46fc257e0602ed40109c3c660205260409020547fa49807205ce4d355092ef5a8a18f56e8913cf4a201fbe287825b095693c217759060ff16156121685750565b6044906040519063e2517d3f60e01b82523360048301526024820152fd5b80600052600860205260406000203360005260205260ff60406000205416156121685750565b6001600160a01b031660008181527fb75e3b8aba7d7d1102f90f87dc3f8c4ab976b6ccd21b261faad958be9048fb286020526040812054909190600080516020613c6e8339815191529060ff166122485780835260086020526040832082845260205260408320600160ff198254161790557f2f8788117e7eff1d82e926ec794901d17c78024a50270940304540a733656f0d339380a4600190565b505090565b906000918083526008602052604083209160018060a01b03169182845260205260ff604084205416156000146122485780835260086020526040832082845260205260408320600160ff198254161790557f2f8788117e7eff1d82e926ec794901d17c78024a50270940304540a733656f0d339380a4600190565b6001600160a01b031660008181527fb75e3b8aba7d7d1102f90f87dc3f8c4ab976b6ccd21b261faad958be9048fb286020526040812054909190600080516020613c6e8339815191529060ff1615612248578083526008602052604083208284526020526040832060ff1981541690557ff6391f5c32d9c69d2a47ea670b442974b53935d1edc7fd64eb21e047a839171b339380a4600190565b906000918083526008602052604083209160018060a01b03169182845260205260ff604084205416600014612248578083526008602052604083208284526020526040832060ff1981541690557ff6391f5c32d9c69d2a47ea670b442974b53935d1edc7fd64eb21e047a839171b339380a4600190565b90600182811c92168015612409575b60208310146123f357565b634e487b7160e01b600052602260045260246000fd5b91607f16916123e8565b6040810190811067ffffffffffffffff82111761242f57604052565b634e487b7160e01b600052604160045260246000fd5b90601f8019910116810190811067ffffffffffffffff82111761242f57604052565b91906001600160a01b03808416156124ac57811615612493576124919261248c612a21565b61304c565b565b60405163ec442f0560e01b815260006004820152602490fd5b604051634b637e8f60e11b815260006004820152602490fd5b6001600160a01b0390811691821561253f57169182156125265760207f8c5be1e5ebec7d5bd14f71427d1e84f3dd0314c0f7b2291e5b200ac8c7c3b925918360005260018252604060002085600052825280604060002055604051908152a3565b604051634a1406b160e11b815260006004820152602490fd5b60405163e602df0560e01b815260006004820152602490fd5b9160018060a01b038093169160009383855260016020526040938486209183169182875260205284862054926000198410612597575b50505050505050565b8484106125fb575080156125e35781156125cb5785526001602052838520908552602052039120553880808080808061258e565b8451634a1406b160e11b815260048101879052602490fd5b845163e602df0560e01b815260048101879052602490fd5b8551637dc7a0d960e11b81526001600160a01b039190911660048201526024810184905260448101859052606490fd5b91907f7fffffffffffffffffffffffffffffff5d576e7357a4501ddfe92f46681b20a084116126af57926020929160ff608095604051948552168484015260408301526060820152600092839182805260015afa156126a35780516001600160a01b0381161561269a57918190565b50809160019190565b604051903d90823e3d90fd5b50505060009160039190565b600481101561272a57806126cd575050565b600181036126e75760405163f645eedf60e01b8152600490fd5b600281036127085760405163fce698f760e01b815260048101839052602490fd5b6003146127125750565b602490604051906335e2f38360e21b82526004820152fd5b634e487b7160e01b600052602160045260246000fd5b307f00000000000000000000000000000000000000000000000000000000000000006001600160a01b03161480612842575b1561279b577f000000000000000000000000000000000000000000000000000000000000000090565b60405160208101907f8b73c3c69bb8fe3d512ecc4cf759cc79239f7b179b0ffacaa9a75d522b39400f82527f000000000000000000000000000000000000000000000000000000000000000060408201527f000000000000000000000000000000000000000000000000000000000000000060608201524660808201523060a082015260a0815260c0810181811067ffffffffffffffff82111761242f5760405251902090565b507f00000000000000000000000000000000000000000000000000000000000000004614612772565b60ff81146128a95760ff811690601f8211612897576040519161288d83612413565b8252602082015290565b604051632cd44ac360e21b8152600490fd5b506040516005548160006128bc836123d9565b8083529260019081811690811561294557506001146128e6575b506128e392500382612445565b90565b6005600090815291507f036b6384b5eca791c62761152d0c79bb0604c104a5fb6f4eb0703f3154bb3db05b84831061292a57506128e39350508101602001386128d6565b81935090816020925483858901015201910190918492612911565b9050602092506128e394915060ff191682840152151560051b820101386128d6565b60ff81146129895760ff811690601f8211612897576040519161288d83612413565b5060405160065481600061299c836123d9565b8083529260019081811690811561294557506001146129c257506128e392500382612445565b6006600090815291507ff652222313e28459528d920b65115c16c04f3efc82aaedc97be59f3f377c0d3f5b848310612a0657506128e39350508101602001386128d6565b819350908160209254838589010152019101909184926129ed565b60ff60095416612a2d57565b60405163d93c066560e01b8152600490fd5b8115612a49570490565b634e487b7160e01b600052601260045260246000fd5b91908201809211612a6c57565b634e487b7160e01b600052601160045260246000fd5b91908203918211612a6c57565b6002600a5414612aa0576002600a55565b604051633ee5aeb560e01b8152600490fd5b906001600160a01b038216156124ac5761249191612ace612a21565b612b26565b15612ada57565b60405162461bcd60e51b8152602060048201526011602482015270125b9d985b1a59081c9958da5c1a595b9d607a1b6044820152606490fd5b81810292918115918404141715612a6c57565b6001600160a01b0392918382169081158015613044575b61303657600c549460ff9281848860a01c16971696801561301f575b8015612fec575b15612fb257600091818352602090601a8252604098868a862054161580612fa2575b15612f705780158015908180612f60575b612cc6575b91869593916124919b9c9593612bed9a999899868952601c865280888a2054161580612cb6575b80612caf575b612c39575b602254169182612c31575b5081612c16575b50612bf3575b505050505050612a82565b90613529565b60239303612c1057845b1684525243912055388080808080612be2565b88612bfd565b85831491508115612c29575b5038612bdc565b905038612c22565b915038612bd5565b8183612c9a575b15612bca57612c4d6136be565b80612c59575b50612bca565b612710919b50612c69908b612b13565b04998c8b80612c79575b50612c53565b612c849130906135e5565b612c908b602a54612a5f565b602a558c8b612c73565b5080601154168015612c405750838714612c40565b5082612bc5565b5088805280888a20541615612bbf565b6201518042046015548111600014612f4b577f10ee94e9840988debcde08483d660602ba7cc7450991da1f586e2ef21e0369338d60165481519084825289820152a1601555876016555b886017541680612f3e575b612ec957600f5480612e3a575b50612d33888b613777565b82861480612e26575b612d93575b91612bed98979695939183806124919d9e979590612d7f575b612d71575b9193959c9b5091939596979850612b98565b612d7a89613aea565b612d5f565b50858852601d855289878920541615612d5a565b6012548811612df157868052868552612daf888d892054612a5f565b6013541015612d41578b5162461bcd60e51b8152600481018690526012602482015271115e18d959591cc81b585e081dd85b1b195d60721b6044820152606490fd5b8b5162461bcd60e51b815260048101869052600e60248201526d08af0c6cacac8e640dac2f040e8f60931b6044820152606490fd5b50868052601d8552888c8820541615612d3c565b868403612ec1578c85895b1691828a52601c88528b828b20541615612e61575b5050612d28565b612e7191601b89528a2054612a5f565b431115612e8b578752601b8552438c882055388c81612e5a565b8c5162461bcd60e51b815260048101879052600f60248201526e436f6f6c646f776e2061637469766560881b6044820152606490fd5b8c858c612e45565b6064858d7fc1b68f84e2906898e13e04dfea4f2ca4c44015fceb114b71916f54a7072712a681601654601454825191825285820152a1519062461bcd60e51b82526004820152601b60248201527f4461696c7920766f6c756d65206c696d697420657863656564656400000000006044820152fd5b5060165460145410612d1b565b50612f5888601654612a5f565b601655612d10565b5082861480612b93575080612b93565b895162461bcd60e51b815260048101849052600b60248201526a109bdd08189b1bd8dad95960aa1b6044820152606490fd5b50848052868a8620541615612b82565b60405162461bcd60e51b815260206004820152601260248201527154726164696e67206e6f742061637469766560701b6044820152606490fd5b5060008052601c6020527fb9c6de81004e18dedadca3e5eabaab449ca91dff6f58efc9461da635fe77f849548416612b60565b5080600052601c6020528360406000205416612b59565b919050612491929350613529565b506001612b3d565b6001600160a01b039392909190848316908115801561351f575b61351157600c549560ff9281848960a01c1698169780156134fa575b80156134e1575b15612fb257600091818352602090601a8252604099868b8620541615806134cf575b1561349d578015158080613489575b6131e9575b916124919a9b939186959361311199989798858852601c855280878920541615806131d7575b806131d0575b613155575b60225416908161314d575b5080613139575b61311757505050505050612a82565b916135e5565b6023930361313357881684525243912055388080808080612be2565b89612bfd565b5080841480613102575080828b1614613102565b9050386130fb565b82848d161480156131bb575b156130f05761316e6136be565b8061317a575b506130f0565b612710919a5061318a908a612b13565b04988c8a8061319a575b50613174565b6131a59130906135e5565b6131b18a602a54612a5f565b602a558c8a613194565b50806011541680156131615750828614613161565b50816130eb565b50838c168852808789205416156130e5565b6201518042046015548111600014613474577f10ee94e9840988debcde08483d660602ba7cc7450991da1f586e2ef21e0369338d60165481519084825288820152a1601555866016555b876017541680613467575b6133f257600f5480613363575b50613257878a8c613a0a565b8185148061334d575b6132b8575b918161311198979695936124919c9d9593838c1614806132a4575b613296575b9193959697985091939b9a506130bf565b61329f88613aea565b613285565b50848752601d845288868820541615613280565b60125487116133185782891686528584526132d6878d882054612a5f565b6013541015613265578b5162461bcd60e51b8152600481018590526012602482015271115e18d959591cc81b585e081dd85b1b195d60721b6044820152606490fd5b8b5162461bcd60e51b815260048101859052600e60248201526d08af0c6cacac8e640dac2f040e8f60931b6044820152606490fd5b508289168652601d8452878c8720541615613260565b8583036133ea578c848b5b1691828952601c87528a828a2054161561338a575b505061324b565b61339a91601b8852892054612a5f565b4311156133b4578652601b8452438c872055388c81613383565b8c5162461bcd60e51b815260048101869052600f60248201526e436f6f6c646f776e2061637469766560881b6044820152606490fd5b8c848c61336e565b6064848d7fc1b68f84e2906898e13e04dfea4f2ca4c44015fceb114b71916f54a7072712a681601654601454825191825285820152a1519062461bcd60e51b82526004820152601b60248201527f4461696c7920766f6c756d65206c696d697420657863656564656400000000006044820152fd5b506016546014541061323e565b5061348187601654612a5f565b601655613233565b50818514806130ba575081838a16146130ba565b8a5162461bcd60e51b815260048101849052600b60248201526a109bdd08189b1bd8dad95960aa1b6044820152606490fd5b508188168552868b86205416156130ab565b50818516600052601c6020528360406000205416613089565b5080600052601c6020528360406000205416613082565b9290506124919394506135e5565b5085831615613066565b9091906001600160a01b03811690816135735750600080516020613c8e83398151915260208461355e60009596600254612a5f565b6002555b8060025403600255604051908152a3565b926000828152806020526040812054948286106135b4575081816040600080516020613c8e8339815191529460009798876020965283865203912055613562565b60405163391434e360e21b81526001600160a01b039190911660048201526024810186905260448101839052606490fd5b6001600160a01b038082169290918361364d5750600080516020613c8e8339815191529160209161361886600254612a5f565b6002555b1693846136355780600254036002555b604051908152a3565b8460005260008252604060002081815401905561362c565b6000908482528160205260408220549086821061368c5750918160408760209588600080516020613c8e8339815191529896528387520391205561361c565b60405163391434e360e21b81526001600160a01b03919091166004820152602481019190915260448101869052606490fd5b60ff600c5460a01c161561370957600d546136dc600e549143612a82565b818110156136ec57505061138890565b600a8201809211612a6c571015613703576107d090565b60105490565b600090565b51906001600160701b038216820361207657565b90816060910312612076576137368161370e565b9160406137456020840161370e565b92015163ffffffff811681036120765790565b9081602091031261207657516001600160a01b03811681036120765790565b600c546001600160a01b03908116929183158015806139ed575b506139e757819060ff6022541661394f575b505060408051630240bc6b60e21b81529093606082600481845afa90816000938493613918575b506137d757505050505050565b6001600160701b03809316938415801561390e575b61258e576020600492885193848092630dfe168160e01b82525afa918215613903576000926138d3575b501630036138cb5750505b60215481106138c65761271091828102928184041490151715612a6c5761384791612a3f565b61384f613abb565b80821161385b57505050565b60649350825191825260208201527f9de4d5aece309f08d2b9b2832f0c4525c93a7087205ad973ba017a953e168923823392a25162461bcd60e51b81526020600482015260156024820152740a0e4d2c6ca40d2dae0c2c6e840e8dede40d0d2ced605b1b6044820152fd5b505050565b169050613821565b6138f591925060203d81116138fc575b6138ed8183612445565b810190613758565b9038613816565b503d6138e3565b87513d6000823e3d90fd5b50838316156137ec565b90925061393d91935060603d8111613948575b6139358183612445565b810190613722565b5092909291386137ca565b503d61392b565b80821685036139e2575060005b1680600052602360205260406000205443146139795781906137a3565b7f9de4d5aece309f08d2b9b2832f0c4525c93a7087205ad973ba017a953e168923604080516000815260006020820152a260405162461bcd60e51b815260206004820152601060248201526f53616d652d626c6f636b20747261646560801b6044820152606490fd5b61395c565b50505050565b828416861415915081613a02575b5038613791565b9050386139fb565b600c546001600160a01b03908116939290919084158015613aa2575b613a9b57829160ff60225416613a6b575b505050604092835190630240bc6b60e21b8252606082600481845afa9081600093849361391857506137d757505050505050565b8083168603613a9457505b16806000526023602052604060002054431461397957808291613a37565b9050613a76565b5050505050565b508483831614158015613a265750848382161415613a26565b60ff600c5460a01c1615613ae457613ad5600d5443612a82565b601f541115613ae45760205490565b601e5490565b600c5460ff8160a01c1615613bfc57613b05600d5443612a82565b6024541115613bfc576001600160a01b0390811680156138c657604051630240bc6b60e21b815290606082600481845afa90816000938493613c46575b50613b4e575050505050565b6001600160701b038093169384158015613c3c575b613c3457602060049260405193848092630dfe168160e01b82525afa918215613c2857600092613c08575b50163003613c005750505b8015613bfc5761271091828102928184041490151715612a6c57613bbc91612a3f565b60255410613bc657565b60405162461bcd60e51b815260206004820152600e60248201526d53656c6c20746f6f206c6172676560901b6044820152606490fd5b5050565b169050613b99565b613c2191925060203d81116138fc576138ed8183612445565b9038613b8e565b6040513d6000823e3d90fd5b505050505050565b5083831615613b63565b909250613c6291935060603d8111613948576139358183612445565b509290929138613b4256fe3c11d16cbaffd01df69ce1c404f6340ee057498f5f00246190ea54220576a848ddf252ad1be2c89b69c2b068fc378daa952ba7f163c4a11628f55a4df523b3efa26469706673582212200c2e2bb0700dfb1f47fc6ea58aac0012117830c752ccb75f3b567df4005e790764736f6c634300081400332f8788117e7eff1d82e926ec794901d17c78024a50270940304540a733656f0d",
  "linkReferences": {},
  "deployedLinkReferences": {}
}