{"contracts/SqudyCampaignManager.sol":{"SqudyCampaignManager":{"abi":[{"inputs":[{"internalType":"address","name":"_squdyToken","type":"address"},{"internalType":"address","name":"_vrfCoordinator","type":"address"},{"internalType":"bytes32","name":"_keyHash","type":"bytes32"},{"internalType":"uint64","name":"_subscriptionId","type":"uint64"}],"stateMutability":"nonpayable","type":"constructor"},{"inputs":[],"name":"AccessControlBadConfirmation","type":"error"},{"inputs":[{"internalType":"address","name":"account","type":"address"},{"internalType":"bytes32","name":"neededRole","type":"bytes32"}],"name":"AccessControlUnauthorizedAccount","type":"error"},{"inputs":[],"name":"EnforcedPause","type":"error"},{"inputs":[],"name":"ExpectedPause","type":"error"},{"inputs":[{"internalType":"address","name":"have","type":"address"},{"internalType":"address","name":"want","type":"address"}],"name":"OnlyCoordinatorCanFulfill","type":"error"},{"inputs":[],"name":"ReentrancyGuardReentrantCall","type":"error"},{"anonymous":false,"inputs":[{"indexed":true,"internalType":"address","name":"admin","type":"address"}],"name":"AdminAdded","type":"event"},{"anonymous":false,"inputs":[{"indexed":true,"internalType":"address","name":"admin","type":"address"}],"name":"AdminRemoved","type":"event"},{"anonymous":false,"inputs":[{"indexed":true,"internalType":"uint256","name":"campaignId","type":"uint256"}],"name":"CampaignClosed","type":"event"},{"anonymous":false,"inputs":[{"indexed":true,"internalType":"uint256","name":"campaignId","type":"uint256"},{"indexed":false,"internalType":"string","name":"name","type":"string"},{"indexed":false,"internalType":"uint256","name":"startDate","type":"uint256"},{"indexed":false,"internalType":"uint256","name":"endDate","type":"uint256"},{"indexed":false,"internalType":"uint256","name":"ticketAmount","type":"uint256"}],"name":"CampaignCreated","type":"event"},{"anonymous":false,"inputs":[{"indexed":true,"internalType":"uint256","name":"campaignId","type":"uint256"}],"name":"CampaignPaused","type":"event"},{"anonymous":false,"inputs":[{"indexed":true,"internalType":"uint256","name":"campaignId","type":"uint256"}],"name":"CampaignResumed","type":"event"},{"anonymous":false,"inputs":[{"indexed":false,"internalType":"address","name":"account","type":"address"}],"name":"Paused","type":"event"},{"anonymous":false,"inputs":[{"indexed":true,"internalType":"uint256","name":"campaignId","type":"uint256"},{"indexed":true,"internalType":"address","name":"winner","type":"address"},{"indexed":false,"internalType":"uint256","name":"prizeIndex","type":"uint256"}],"name":"PrizeClaimed","type":"event"},{"anonymous":false,"inputs":[{"indexed":true,"internalType":"bytes32","name":"role","type":"bytes32"},{"indexed":true,"internalType":"bytes32","name":"previousAdminRole","type":"bytes32"},{"indexed":true,"internalType":"bytes32","name":"newAdminRole","type":"bytes32"}],"name":"RoleAdminChanged","type":"event"},{"anonymous":false,"inputs":[{"indexed":true,"internalType":"bytes32","name":"role","type":"bytes32"},{"indexed":true,"internalType":"address","name":"account","type":"address"},{"indexed":true,"internalType":"address","name":"sender","type":"address"}],"name":"RoleGranted","type":"event"},{"anonymous":false,"inputs":[{"indexed":true,"internalType":"bytes32","name":"role","type":"bytes32"},{"indexed":true,"internalType":"address","name":"account","type":"address"},{"indexed":true,"internalType":"address","name":"sender","type":"address"}],"name":"RoleRevoked","type":"event"},{"anonymous":false,"inputs":[{"indexed":true,"internalType":"uint256","name":"campaignId","type":"uint256"},{"indexed":true,"internalType":"address","name":"user","type":"address"}],"name":"SocialTasksCompleted","type":"event"},{"anonymous":false,"inputs":[{"indexed":true,"internalType":"uint256","name":"campaignId","type":"uint256"},{"indexed":false,"internalType":"uint256","name":"totalBurned","type":"uint256"}],"name":"TokensBurned","type":"event"},{"anonymous":false,"inputs":[{"indexed":false,"internalType":"address","name":"account","type":"address"}],"name":"Unpaused","type":"event"},{"anonymous":false,"inputs":[{"indexed":true,"internalType":"uint256","name":"campaignId","type":"uint256"},{"indexed":true,"internalType":"address","name":"user","type":"address"},{"indexed":false,"internalType":"uint256","name":"amount","type":"uint256"},{"indexed":false,"internalType":"uint256","name":"tickets","type":"uint256"}],"name":"UserStaked","type":"event"},{"anonymous":false,"inputs":[{"indexed":true,"internalType":"uint256","name":"campaignId","type":"uint256"},{"indexed":false,"internalType":"address[]","name":"winners","type":"address[]"},{"indexed":false,"internalType":"bytes32","name":"requestId","type":"bytes32"}],"name":"WinnersSelected","type":"event"},{"inputs":[],"name":"ADMIN_ROLE","outputs":[{"internalType":"bytes32","name":"","type":"bytes32"}],"stateMutability":"view","type":"function"},{"inputs":[],"name":"DEFAULT_ADMIN_ROLE","outputs":[{"internalType":"bytes32","name":"","type":"bytes32"}],"stateMutability":"view","type":"function"},{"inputs":[],"name":"OPERATOR_ROLE","outputs":[{"internalType":"bytes32","name":"","type":"bytes32"}],"stateMutability":"view","type":"function"},{"inputs":[{"internalType":"uint256","name":"campaignId","type":"uint256"}],"name":"activateCampaign","outputs":[],"stateMutability":"nonpayable","type":"function"},{"inputs":[{"internalType":"address","name":"admin","type":"address"}],"name":"addAdmin","outputs":[],"stateMutability":"nonpayable","type":"function"},{"inputs":[{"internalType":"uint256","name":"campaignId","type":"uint256"}],"name":"burnAllTokens","outputs":[],"stateMutability":"nonpayable","type":"function"},{"inputs":[{"internalType":"uint256","name":"","type":"uint256"},{"internalType":"uint256","name":"","type":"uint256"}],"name":"campaignParticipants","outputs":[{"internalType":"address","name":"","type":"address"}],"stateMutability":"view","type":"function"},{"inputs":[{"internalType":"uint256","name":"","type":"uint256"}],"name":"campaigns","outputs":[{"internalType":"uint256","name":"id","type":"uint256"},{"internalType":"string","name":"name","type":"string"},{"internalType":"string","name":"description","type":"string"},{"internalType":"string","name":"imageUrl","type":"string"},{"internalType":"uint256","name":"softCap","type":"uint256"},{"internalType":"uint256","name":"hardCap","type":"uint256"},{"internalType":"uint256","name":"ticketAmount","type":"uint256"},{"internalType":"uint256","name":"currentAmount","type":"uint256"},{"internalType":"uint256","name":"startDate","type":"uint256"},{"internalType":"uint256","name":"endDate","type":"uint256"},{"internalType":"uint256","name":"participantCount","type":"uint256"},{"internalType":"enum SqudyCampaignManager.CampaignStatus","name":"status","type":"uint8"},{"internalType":"bool","name":"tokensAreBurned","type":"bool"},{"internalType":"uint256","name":"totalBurned","type":"uint256"},{"internalType":"bytes32","name":"winnerSelectionTxHash","type":"bytes32"},{"internalType":"uint256","name":"createdAt","type":"uint256"},{"internalType":"uint256","name":"updatedAt","type":"uint256"}],"stateMutability":"view","type":"function"},{"inputs":[{"internalType":"uint256","name":"campaignId","type":"uint256"}],"name":"closeCampaign","outputs":[],"stateMutability":"nonpayable","type":"function"},{"inputs":[{"internalType":"uint256","name":"campaignId","type":"uint256"},{"internalType":"address","name":"user","type":"address"}],"name":"confirmSocialTasks","outputs":[],"stateMutability":"nonpayable","type":"function"},{"inputs":[{"internalType":"string","name":"name","type":"string"},{"internalType":"string","name":"description","type":"string"},{"internalType":"string","name":"imageUrl","type":"string"},{"internalType":"uint256","name":"softCap","type":"uint256"},{"internalType":"uint256","name":"hardCap","type":"uint256"},{"internalType":"uint256","name":"ticketAmount","type":"uint256"},{"internalType":"uint256","name":"startDate","type":"uint256"},{"internalType":"uint256","name":"endDate","type":"uint256"},{"internalType":"string[]","name":"prizes","type":"string[]"}],"name":"createCampaign","outputs":[{"internalType":"uint256","name":"","type":"uint256"}],"stateMutability":"nonpayable","type":"function"},{"inputs":[],"name":"emergencyPause","outputs":[],"stateMutability":"nonpayable","type":"function"},{"inputs":[{"internalType":"address","name":"token","type":"address"},{"internalType":"address","name":"to","type":"address"}],"name":"emergencyRecoverTokens","outputs":[],"stateMutability":"nonpayable","type":"function"},{"inputs":[],"name":"emergencyUnpause","outputs":[],"stateMutability":"nonpayable","type":"function"},{"inputs":[{"internalType":"uint256","name":"campaignId","type":"uint256"}],"name":"getCampaign","outputs":[{"components":[{"internalType":"uint256","name":"id","type":"uint256"},{"internalType":"string","name":"name","type":"string"},{"internalType":"string","name":"description","type":"string"},{"internalType":"string","name":"imageUrl","type":"string"},{"internalType":"uint256","name":"softCap","type":"uint256"},{"internalType":"uint256","name":"hardCap","type":"uint256"},{"internalType":"uint256","name":"ticketAmount","type":"uint256"},{"internalType":"uint256","name":"currentAmount","type":"uint256"},{"internalType":"uint256","name":"startDate","type":"uint256"},{"internalType":"uint256","name":"endDate","type":"uint256"},{"internalType":"uint256","name":"participantCount","type":"uint256"},{"internalType":"string[]","name":"prizes","type":"string[]"},{"internalType":"address[]","name":"winners","type":"address[]"},{"internalType":"enum SqudyCampaignManager.CampaignStatus","name":"status","type":"uint8"},{"internalType":"bool","name":"tokensAreBurned","type":"bool"},{"internalType":"uint256","name":"totalBurned","type":"uint256"},{"internalType":"bytes32","name":"winnerSelectionTxHash","type":"bytes32"},{"internalType":"uint256","name":"createdAt","type":"uint256"},{"internalType":"uint256","name":"updatedAt","type":"uint256"}],"internalType":"struct SqudyCampaignManager.Campaign","name":"","type":"tuple"}],"stateMutability":"view","type":"function"},{"inputs":[],"name":"getCampaignCount","outputs":[{"internalType":"uint256","name":"","type":"uint256"}],"stateMutability":"view","type":"function"},{"inputs":[{"internalType":"uint256","name":"campaignId","type":"uint256"}],"name":"getCampaignParticipants","outputs":[{"internalType":"address[]","name":"","type":"address[]"}],"stateMutability":"view","type":"function"},{"inputs":[{"internalType":"enum SqudyCampaignManager.CampaignStatus","name":"status","type":"uint8"}],"name":"getCampaignsByStatus","outputs":[{"internalType":"uint256[]","name":"","type":"uint256[]"}],"stateMutability":"view","type":"function"},{"inputs":[{"internalType":"uint256","name":"campaignId","type":"uint256"},{"internalType":"address","name":"user","type":"address"}],"name":"getParticipant","outputs":[{"components":[{"internalType":"uint256","name":"stakedAmount","type":"uint256"},{"internalType":"uint256","name":"ticketCount","type":"uint256"},{"internalType":"bool","name":"hasCompletedSocial","type":"bool"},{"internalType":"bool","name":"isWinner","type":"bool"},{"internalType":"uint256","name":"prizeIndex","type":"uint256"},{"internalType":"uint256","name":"joinedAt","type":"uint256"}],"internalType":"struct SqudyCampaignManager.Participant","name":"","type":"tuple"}],"stateMutability":"view","type":"function"},{"inputs":[{"internalType":"bytes32","name":"role","type":"bytes32"}],"name":"getRoleAdmin","outputs":[{"internalType":"bytes32","name":"","type":"bytes32"}],"stateMutability":"view","type":"function"},{"inputs":[{"internalType":"uint256","name":"campaignId","type":"uint256"},{"internalType":"address","name":"user","type":"address"}],"name":"getTicketCount","outputs":[{"internalType":"uint256","name":"","type":"uint256"}],"stateMutability":"view","type":"function"},{"inputs":[{"internalType":"bytes32","name":"role","type":"bytes32"},{"internalType":"address","name":"account","type":"address"}],"name":"grantRole","outputs":[],"stateMutability":"nonpayable","type":"function"},{"inputs":[{"internalType":"bytes32","name":"role","type":"bytes32"},{"internalType":"address","name":"account","type":"address"}],"name":"hasRole","outputs":[{"internalType":"bool","name":"","type":"bool"}],"stateMutability":"view","type":"function"},{"inputs":[{"internalType":"uint256","name":"campaignId","type":"uint256"},{"internalType":"address","name":"user","type":"address"}],"name":"isEligibleForWinning","outputs":[{"internalType":"bool","name":"","type":"bool"}],"stateMutability":"view","type":"function"},{"inputs":[{"internalType":"uint256","name":"","type":"uint256"},{"internalType":"uint256","name":"","type":"uint256"}],"name":"participantIndexes","outputs":[{"internalType":"address","name":"","type":"address"}],"stateMutability":"view","type":"function"},{"inputs":[{"internalType":"uint256","name":"","type":"uint256"},{"internalType":"address","name":"","type":"address"}],"name":"participants","outputs":[{"internalType":"uint256","name":"stakedAmount","type":"uint256"},{"internalType":"uint256","name":"ticketCount","type":"uint256"},{"internalType":"bool","name":"hasCompletedSocial","type":"bool"},{"internalType":"bool","name":"isWinner","type":"bool"},{"internalType":"uint256","name":"prizeIndex","type":"uint256"},{"internalType":"uint256","name":"joinedAt","type":"uint256"}],"stateMutability":"view","type":"function"},{"inputs":[{"internalType":"uint256","name":"campaignId","type":"uint256"}],"name":"pauseCampaign","outputs":[],"stateMutability":"nonpayable","type":"function"},{"inputs":[],"name":"paused","outputs":[{"internalType":"bool","name":"","type":"bool"}],"stateMutability":"view","type":"function"},{"inputs":[{"internalType":"uint256","name":"requestId","type":"uint256"},{"internalType":"uint256[]","name":"randomWords","type":"uint256[]"}],"name":"rawFulfillRandomWords","outputs":[],"stateMutability":"nonpayable","type":"function"},{"inputs":[{"internalType":"address","name":"admin","type":"address"}],"name":"removeAdmin","outputs":[],"stateMutability":"nonpayable","type":"function"},{"inputs":[{"internalType":"bytes32","name":"role","type":"bytes32"},{"internalType":"address","name":"callerConfirmation","type":"address"}],"name":"renounceRole","outputs":[],"stateMutability":"nonpayable","type":"function"},{"inputs":[{"internalType":"uint256","name":"campaignId","type":"uint256"}],"name":"resumeCampaign","outputs":[],"stateMutability":"nonpayable","type":"function"},{"inputs":[{"internalType":"bytes32","name":"role","type":"bytes32"},{"internalType":"address","name":"account","type":"address"}],"name":"revokeRole","outputs":[],"stateMutability":"nonpayable","type":"function"},{"inputs":[{"internalType":"uint256","name":"campaignId","type":"uint256"}],"name":"selectWinners","outputs":[],"stateMutability":"nonpayable","type":"function"},{"inputs":[],"name":"squdyToken","outputs":[{"internalType":"contract ISqudyToken","name":"","type":"address"}],"stateMutability":"view","type":"function"},{"inputs":[{"internalType":"uint256","name":"campaignId","type":"uint256"},{"internalType":"uint256","name":"amount","type":"uint256"}],"name":"stakeSQUDY","outputs":[],"stateMutability":"nonpayable","type":"function"},{"inputs":[{"internalType":"bytes4","name":"interfaceId","type":"bytes4"}],"name":"supportsInterface","outputs":[{"internalType":"bool","name":"","type":"bool"}],"stateMutability":"view","type":"function"},{"inputs":[{"internalType":"uint256","name":"","type":"uint256"}],"name":"vrfRequests","outputs":[{"internalType":"uint256","name":"","type":"uint256"}],"stateMutability":"view","type":"function"}],"devdoc":{"author":"Squdy Team","details":"Manages burn-to-win campaigns for SQUDY tokens","errors":{"AccessControlBadConfirmation()":[{"details":"The caller of a function is not the expected one. NOTE: Don't confuse with {AccessControlUnauthorizedAccount}."}],"AccessControlUnauthorizedAccount(address,bytes32)":[{"details":"The `account` is missing a role."}],"EnforcedPause()":[{"details":"The operation failed because the contract is paused."}],"ExpectedPause()":[{"details":"The operation failed because the contract is not paused."}],"ReentrancyGuardReentrantCall()":[{"details":"Unauthorized reentrant call."}]},"events":{"Paused(address)":{"details":"Emitted when the pause is triggered by `account`."},"RoleAdminChanged(bytes32,bytes32,bytes32)":{"details":"Emitted when `newAdminRole` is set as ``role``'s admin role, replacing `previousAdminRole` `DEFAULT_ADMIN_ROLE` is the starting admin for all roles, despite {RoleAdminChanged} not being emitted to signal this."},"RoleGranted(bytes32,address,address)":{"details":"Emitted when `account` is granted `role`. `sender` is the account that originated the contract call. This account bears the admin role (for the granted role). Expected in cases where the role was granted using the internal {AccessControl-_grantRole}."},"RoleRevoked(bytes32,address,address)":{"details":"Emitted when `account` is revoked `role`. `sender` is the account that originated the contract call:   - if using `revokeRole`, it is the admin role bearer   - if using `renounceRole`, it is the role bearer (i.e. `account`)"},"Unpaused(address)":{"details":"Emitted when the pause is lifted by `account`."}},"kind":"dev","methods":{"activateCampaign(uint256)":{"details":"Activates a pending campaign"},"addAdmin(address)":{"details":"Adds a new admin"},"burnAllTokens(uint256)":{"details":"Burns all staked tokens after winner selection"},"closeCampaign(uint256)":{"details":"Closes a campaign and prepares for winner selection"},"confirmSocialTasks(uint256,address)":{"details":"Marks social media tasks as completed for a user","params":{"campaignId":"The campaign ID","user":"The user address"}},"createCampaign(string,string,string,uint256,uint256,uint256,uint256,uint256,string[])":{"details":"Creates a new campaign","params":{"description":"Campaign description","endDate":"Campaign end timestamp","hardCap":"Maximum amount of tokens that can be staked","imageUrl":"Campaign image URL","name":"Campaign name","prizes":"Array of prize descriptions","softCap":"Minimum amount of tokens required","startDate":"Campaign start timestamp","ticketAmount":"Amount of tokens per ticket"}},"emergencyPause()":{"details":"Emergency pause function"},"emergencyRecoverTokens(address,address)":{"details":"Emergency function to recover tokens (only if not burned)"},"emergencyUnpause()":{"details":"Emergency unpause function"},"getCampaign(uint256)":{"details":"Gets campaign details"},"getCampaignCount()":{"details":"Gets total number of campaigns"},"getCampaignParticipants(uint256)":{"details":"Gets all participants for a campaign"},"getCampaignsByStatus(uint8)":{"details":"Gets campaigns by status"},"getParticipant(uint256,address)":{"details":"Gets participant details"},"getRoleAdmin(bytes32)":{"details":"Returns the admin role that controls `role`. See {grantRole} and {revokeRole}. To change a role's admin, use {_setRoleAdmin}."},"getTicketCount(uint256,address)":{"details":"Gets the ticket count for a user in a campaign"},"grantRole(bytes32,address)":{"details":"Grants `role` to `account`. If `account` had not been already granted `role`, emits a {RoleGranted} event. Requirements: - the caller must have ``role``'s admin role. May emit a {RoleGranted} event."},"hasRole(bytes32,address)":{"details":"Returns `true` if `account` has been granted `role`."},"isEligibleForWinning(uint256,address)":{"details":"Checks if a user is eligible for winning (has completed social tasks)"},"pauseCampaign(uint256)":{"details":"Pauses an active campaign"},"paused()":{"details":"Returns true if the contract is paused, and false otherwise."},"removeAdmin(address)":{"details":"Removes an admin"},"renounceRole(bytes32,address)":{"details":"Revokes `role` from the calling account. Roles are often managed via {grantRole} and {revokeRole}: this function's purpose is to provide a mechanism for accounts to lose their privileges if they are compromised (such as when a trusted device is misplaced). If the calling account had been revoked `role`, emits a {RoleRevoked} event. Requirements: - the caller must be `callerConfirmation`. May emit a {RoleRevoked} event."},"resumeCampaign(uint256)":{"details":"Resumes a paused campaign"},"revokeRole(bytes32,address)":{"details":"Revokes `role` from `account`. If `account` had been granted `role`, emits a {RoleRevoked} event. Requirements: - the caller must have ``role``'s admin role. May emit a {RoleRevoked} event."},"selectWinners(uint256)":{"details":"Initiates winner selection using Chainlink VRF"},"stakeSQUDY(uint256,uint256)":{"details":"Allows users to stake SQUDY tokens in a campaign","params":{"amount":"Amount of tokens to stake (must be multiple of ticketAmount)","campaignId":"The campaign ID to stake in"}},"supportsInterface(bytes4)":{"details":"Returns true if this contract implements the interface defined by `interfaceId`. See the corresponding https://eips.ethereum.org/EIPS/eip-165#how-interfaces-are-identified[ERC section] to learn more about how these ids are created. This function call must use less than 30 000 gas."}},"title":"SqudyCampaignManager","version":1},"evm":{"bytecode":{"linkReferences":{},"object":"610120346200010b576001600160401b03601f6200411638819003918201601f19168401918383118584101762000110578085926080946040528339810103126200010b576200004f8262000126565b916200005e6020820162000126565b6060604083015192015192831683036200010b576001805560808190526001600160a01b03938416610100908152931660a05260c05260e052620000a2336200013b565b50620000ae33620001bb565b50620000ba336200025d565b50604051613dfb9182620002fb8339608051826120e5015260a05182611d67015260c05182611cee015260e05182611d1401525181818161035a015281816108290152818161109b01526118740152f35b600080fd5b634e487b7160e01b600052604160045260246000fd5b51906001600160a01b03821682036200010b57565b6001600160a01b031660008181527fad3228b676f7d3cd4284a5443f17f1962b36e491b30a40b2405849e597ba5fb5602052604081205490919060ff16620001b757818052816020526040822081835260205260408220600160ff198254161790553391600080516020620040f68339815191528180a4600190565b5090565b6001600160a01b031660008181527f7d7ffb7a348e1c6a02869081a26547b49160dd3df72d1d75a570eb9b698292ec60205260408120549091907fa49807205ce4d355092ef5a8a18f56e8913cf4a201fbe287825b095693c217759060ff166200025857808352826020526040832082845260205260408320600160ff19825416179055600080516020620040f6833981519152339380a4600190565b505090565b6001600160a01b031660008181527fee57cd81e84075558e8fcc182a1f4393f91fc97f963a136e66b7f949a62f319f60205260408120549091907f97667070c54ef182b0f5858b034beac1b6f3089aa2d3188bb1e8929f4fa9b9299060ff166200025857808352826020526040832082845260205260408320600160ff19825416179055600080516020620040f6833981519152339380a460019056fe60a080604052600436101561001357600080fd5b600090813560e01c90816301ffc9a7146133dd5750806302e060c61461335b57806303463dd914612748578063141961bc146125f15780631785f53c146125365780631a1d92521461250c5780631fe543e314612071578063248a9ca3146120455780632f2ff15d1461200857806335abd49b14611fbd57806335f3ad7a14611ebe57806336568abe14611e7657806339a2eb2a14611c2b578063493f172614611acc5780634a4e3bd514611a3a5780634e182157146118a35780634eb53f991461185e57806351858e27146117c95780635598f8cc146114255780635c975abb146114025780635e3583f5146113cb5780636a14dffd146113715780636caa921814611353578063704802751461129657806375b238fc1461126d5780638c0c590214610fd75780638c6ab23814610f7e57806391d1485414610f335780639e3696d914610d9d578063a217fddf14610d81578063b0e1c1e114610bc6578063b5801d91146109df578063b7e26a2e146107c7578063d547741f14610786578063da8125fb1461070c578063de99347a14610619578063f5b541a6146105f05763f8ec73d1146101c357600080fd5b346105ed576101d13661367c565b60019160028354146105db57600283558084526020600481526101f960408620541515613a3f565b8185526004815260ff600d6040872001541660058110156105c7578461021f9114613aa1565b8185526004815260408520908315610567576006820154916102418386613b9b565b6104fc5760078101610254868254613bbb565b6005830154106104a3578488526005835260408820336000528352604060002093801561048f57879087049487815480156000146104705750908092505584888201556004429101558488526006835260408820805490600160401b82101561045c57906102c6918982018155613692565b81549060031b9033821b9160018060a01b03901b19161790558488526007835260408820600a83019081548a52845260408920336bffffffffffffffffffffffff60a01b82541617905561031a8154613a03565b90555b610328868254613bbb565b905542601191909101556040516323b872dd60e01b81523360048201523060248201526044810185905281816064818a7f00000000000000000000000000000000000000000000000000000000000000006001600160a01b03165af1908115610451578791610424575b50156103cc576040519384528301527fbf3a2998bf95effb9622e3aeea768ec248f238862fd602100075c04d21caa23c60403393a3805580f35b6084906040519062461bcd60e51b82526004820152602b60248201527f537175647943616d706169676e4d616e616765723a20746f6b656e207472616e60448201526a1cd9995c8819985a5b195960aa1b6064820152fd5b6104449150823d841161044a575b61043c81836134ab565b810190613bc8565b38610392565b503d610432565b6040513d89823e3d90fd5b634e487b7160e01b8a52604160045260248afd5b9061047a91613bbb565b815501610488858254613bbb565b905561031d565b634e487b7160e01b89526012600452602489fd5b60405162461bcd60e51b815260048101849052602b60248201527f537175647943616d706169676e4d616e616765723a20776f756c64206578636560448201526a065642068617264206361760ac1b6064820152608490fd5b60405162461bcd60e51b815260048101839052603e60248201527f537175647943616d706169676e4d616e616765723a20616d6f756e74206d757360448201527f74206265206d756c7469706c65206f66207469636b657420616d6f756e7400006064820152608490fd5b6084906040519062461bcd60e51b82526004820152603360248201527f537175647943616d706169676e4d616e616765723a20616d6f756e74206d75736044820152720742062652067726561746572207468616e203606c1b6064820152fd5b634e487b7160e01b86526021600452602486fd5b604051633ee5aeb560e01b8152600490fd5b80fd5b50346105ed57806003193601126105ed576020604051600080516020613d868339815191528152f35b50346105ed57602080600319360112610708576004803591600080516020613d8683398151915284528381526040842033600052815260ff6040600020541680156106db575b610668906139a2565b82845281815261067d60408520541515613a3f565b8284525260408220600d8101805460ff811660058110156105c757906106a7600160029314613aa1565b60ff19161790556011429101557fab1902ee37c92d1a78dda53814d64b815e7e3ee287d60843a3dbd6954e3206b48280a280f35b50600080516020613da683398151915284528381526040808520336000908152908352205460ff1661065f565b5080fd5b50346105ed5760403660031901126105ed5760406004359161072c613432565b928082526004602052610743838320541515613a3f565b81526005602052209060018060a01b031660005260205260206040600020805415159081610777575b506040519015158152f35b60ff915060020154163861076c565b50346105ed5760403660031901126105ed576107c36004356107a6613432565b90808452836020526107be6001604086200154613755565b61392d565b5080f35b50346105ed5760403660031901126105ed576107e1613448565b6107e9613432565b600080516020613da683398151915283526020918383526040842033600052835261081b60ff60406000205416613d07565b6001600160a01b03908116907f0000000000000000000000000000000000000000000000000000000000000000168114610980576040516370a0823160e01b8152306004820152918383602481855afa928315610975578593610941575b5082156108e95760405163a9059cbb60e01b81526001600160a01b03919091166004820152602481019290925282908290604490829087905af180156108de576108c1578280f35b816108d792903d1061044a5761043c81836134ab565b5038808280f35b6040513d85823e3d90fd5b60405162461bcd60e51b815260048101859052602a60248201527f537175647943616d706169676e4d616e616765723a206e6f20746f6b656e73206044820152693a37903932b1b7bb32b960b11b6064820152608490fd5b9092508381813d831161096e575b61095981836134ab565b8101031261096957519138610879565b600080fd5b503d61094f565b6040513d87823e3d90fd5b60405162461bcd60e51b815260048101849052603160248201527f537175647943616d706169676e4d616e616765723a2063616e6e6f74207265636044820152706f76657220535155445920746f6b656e7360781b6064820152608490fd5b50346105ed5760403660031901126105ed576004356109fc613432565b90600080516020613d86833981519152835260208381526040842033600052815260ff604060002054168015610b99575b610a36906139a2565b81845260048152610a4c60408520541515613a3f565b8184526005815260408085206001600160a01b03909416600081815294835293205415610b4057818452600581526040842083600052815260ff60026040600020015416610adf5781845260058152604084209083600052526002604060002001600160ff198254161790557fd8e2a0fb3631991dd34ac6af97a04f3485326d9f70043bb29f54e66f0c5577c68380a380f35b6084906040519062461bcd60e51b82526004820152603460248201527f537175647943616d706169676e4d616e616765723a20736f6369616c207461736044820152731adcc8185b1c9958591e4818dbdb5c1b195d195960621b6064820152fd5b6084906040519062461bcd60e51b82526004820152602c60248201527f537175647943616d706169676e4d616e616765723a2075736572206e6f74207060448201526b617274696369706174696e6760a01b6064820152fd5b50600080516020613da683398151915284528381526040808520336000908152908352205460ff16610a2d565b50346105ed576020806003193601126107085760043590600080516020613d8683398151915283528281526040832033600052815260ff604060002054168015610d54575b610c14906139a2565b81835260048152610c2a60408420541515613a3f565b818352600481526040832090600d82019081549060ff82166005811015610d405760018114908115610d35575b5015610ce75760098401544210610ca0575060039060ff19161790556011429101557f5e6eb33a418de5dbbc17f989f7ae362cdfbb1748c5d603137c767027a354edbc8280a280f35b6084906040519062461bcd60e51b82526004820152602c6024820152600080516020613d6683398151915260448201526b1bdd08195b991959081e595d60a21b6064820152fd5b6084906040519062461bcd60e51b8252600482015260336024820152600080516020613d668339815191526044820152721bdd081858dd1a5d99481bdc881c185d5cd959606a1b6064820152fd5b600291501438610c57565b634e487b7160e01b87526021600452602487fd5b50600080516020613da683398151915283528281526040808420336000908152908352205460ff16610c0b565b50346105ed57806003193601126105ed57602090604051908152f35b50346105ed576020806003193601126107085760043590600080516020613d8683398151915283528281526040832033600052815260ff604060002054168015610f06575b610deb906139a2565b81835260048152610e0160408420541515613a3f565b818352600481526040832090600d82019081549060ff82166005811015610d4057600203610ec2576009840154421015610e6d575060019060ff19161790556011429101557f25128b02d37802123547e1526ab020238abf16bbc37a5bd0a918d5088b016e958280a280f35b6084906040519062461bcd60e51b82526004820152602860248201527f537175647943616d706169676e4d616e616765723a2063616d706169676e2068604482015267185cc8195b99195960c21b6064820152fd5b6084906040519062461bcd60e51b8252600482015260296024820152600080516020613d668339815191526044820152681bdd081c185d5cd95960ba1b6064820152fd5b50600080516020613da683398151915283528281526040808420336000908152908352205460ff16610de2565b50346105ed5760403660031901126105ed576040610f4f613432565b91600435815280602052209060018060a01b0316600052602052602060ff604060002054166040519015158152f35b50346105ed5760203660031901126105ed57610fbf6040610fd3926004358082526004602052610fb2838320541515613a3f565b8152600660205220613caf565b6040519182916020835260208301906136c0565b0390f35b50346105ed5760208060031936011261070857600435600080516020613d86833981519152835282825260408320338452825260ff6040842054168015611243575b611022906139a2565b8083526004825261103860408420541515613a3f565b8083526004825261105660ff600d60408620015460081c1615613aed565b808352600482526040832091600d83019260ff84541660058110156105c75760036110819114613b4d565b600c810154156111eb5760078101805480156111965786907f00000000000000000000000000000000000000000000000000000000000000006001600160a01b031690813b156111925760405163079cc67960e41b8152306004820152602481019190915291908290604490829084905af1801561045157611147575b507f8bc81353cf6671d259d22783e39ed930583c86f3f4cf7e981298e6a872dfb15d939461010061ff0019825416179055549081600e820155601142910155604051908152a280f35b6001600160401b03811161117e576040527f8bc81353cf6671d259d22783e39ed930583c86f3f4cf7e981298e6a872dfb15d6110fe565b634e487b7160e01b87526041600452602487fd5b8280fd5b60405162461bcd60e51b815260048101859052602760248201527f537175647943616d706169676e4d616e616765723a206e6f20746f6b656e73206044820152663a3790313ab93760c91b6064820152608490fd5b60405162461bcd60e51b815260048101839052602a60248201527f537175647943616d706169676e4d616e616765723a2077696e6e657273206e6f6044820152691d081cd95b1958dd195960b21b6064820152608490fd5b50600080516020613da683398151915283528282526040808420338552835283205460ff16611019565b50346105ed57806003193601126105ed576020604051600080516020613da68339815191528152f35b50346105ed5760203660031901126105ed576112b0613448565b6112b86136fd565b6001600160a01b0381169081156112fa576112d29061377b565b507f44d6d25963f097ad14f29f06854a01f575648a1ef82f30e562ccd3889717e3398280a280f35b60405162461bcd60e51b815260206004820152602b60248201527f537175647943616d706169676e4d616e616765723a20696e76616c696420616460448201526a6d696e206164647265737360a81b6064820152608490fd5b50346105ed57806003193601126105ed576020600354604051908152f35b50346105ed5760403660031901126105ed5760016040602092600435611395613432565b90808352600486526113ab848420541515613a3f565b82526005855282822090848060a01b031682528452200154604051908152f35b50346105ed576020906113dd3661367c565b90825260078352604082209082528252604060018060a01b0391205416604051908152f35b50346105ed57806003193601126105ed57602060ff600254166040519015158152f35b50346105ed5760203660031901126105ed57806102406040516114478161345e565b82815260606020820152606060408201526060808201528260808201528260a08201528260c08201528260e082015282610100820152826101208201528261014082015260606101608201526060610180820152826101a0820152826101c0820152826101e08201528261020082015282610220820152015260043580825260046020526114da60408320541515613a3f565b8152600460205260408120604051906114f28261345e565b8054825261150260018201613573565b602083015261151360028201613573565b604083015261152460038201613573565b606083015260048101546080830152600581015460a0830152600681015460c0830152600781015460e083015260088101546101008301526009810154610120830152600a810154610140830152600b81015461158081613522565b9061158e60405192836134ab565b80825260208201600b840186526020862086915b8383106117ac57505050506101608301526115bf600c8201613caf565b610180830152600d810154600560ff82161015611798579060ff8281601194166101a086015260081c1615156101c0840152600e8101546101e0840152600f8101546102008401526010810154610220840152015461024082015260405190602082528051602083015261167661166061164a60208401516102606040870152610280860190613619565b6040840151858203601f19016060870152613619565b6060830151848203601f19016080860152613619565b92608082015160a084015260a082015160c084015260c082015160e084015260e082015161010084015261010082015161012084015261012082015161014084015261014082015161016084015261016082015193601f1984820301610180850152845190818152602081016020808460051b840101970193915b83831061176b5786808761024061171a8c610180840151601f19868303016101a08701526136c0565b9161172f6101a08201516101c0860190613659565b6101c081015115156101e08501526101e08101516102008501526102008101516102208501526102208101518285015201516102608301520390f35b9091929396602080611789600193601f198682030187528b51613619565b990193019301919392906116f1565b634e487b7160e01b84526021600452602484fd5b6001602081926117bb85613573565b8152019201920191906115a2565b50346105ed57806003193601126105ed57600080516020613da68339815191528152806020526040812033825260205261180960ff604083205416613d07565b60025460ff811661184c5760019060ff1916176002557f62e78cea01bee320cd4e420270b5ea74000d11b0c9f74754ebdbfc544b05a2586020604051338152a180f35b60405163d93c066560e01b8152600490fd5b50346105ed57806003193601126105ed576040517f00000000000000000000000000000000000000000000000000000000000000006001600160a01b03168152602090f35b50346105ed57602090816003193601126105ed57600591600435838110159182611a3657919284918190600354600194855b828111156119cb57506119006118ea85613522565b946118f860405196876134ab565b808652613522565b8488019890601f1901368a378591875b84811115611954575050505050506040519380850191818652518092526040850195925b8281106119415785870386f35b8351875295810195928101928401611934565b80889a97989b999b52600487528260ff600d60408d20015416906119b757828110156119b7578614611996575b61198a90613a03565b99979998969598611910565b926119af81856119a961198a948c613be0565b52613a03565b939050611981565b634e487b7160e01b8b52602160045260248bfd5b808698959699979952600485528660ff600d60408b2001541690611a225782811015611a22578414611a0d575b611a0190613a03565b979597969493966118d5565b94611a1a611a0191613a03565b9590506119f8565b634e487b7160e01b89526021600452602489fd5b8380fd5b50346105ed57806003193601126105ed57600080516020613da683398151915281528060205260408120338252602052611a7a60ff604083205416613d07565b60025460ff811615611aba5760ff19166002557f5db9ee0a495bf2e6ff9c91a7834c1ba4fdd244a5e8aa4e537bd38aeae4b073aa6020604051338152a180f35b604051638dfc202b60e01b8152600490fd5b50346105ed5760208060031936011261070857600435600080516020613d86833981519152835282825260408320338452825260ff6040842054168015611c01575b611b17906139a2565b80835260048252611b2d60408420541515613a3f565b8252600481526040822090600d82019081549060ff821660058110156105c757611bbc5760088401544210611b70575060019060ff191617905560114291015580f35b6084906040519062461bcd60e51b8252600482015260316024820152600080516020613d668339815191526044820152701bdd081c9958591e481d1bc81cdd185c9d607a1b6064820152fd5b6084906040519062461bcd60e51b82526004820152602a6024820152600080516020613d668339815191526044820152696f742070656e64696e6760b01b6064820152fd5b50600080516020613da683398151915283528282526040808420338552835283205460ff16611b0e565b50346105ed576020806003193601126107085760043590600080516020613d86833981519152835282815260408320338452815260ff6040842054168015611e4c575b611c77906139a2565b81835260048152611c8d60408420541515613a3f565b81835260048152611cab60ff600d60408620015460081c1615613aed565b818352600481526040832060ff600d820154166005811015611e385790611cd66003600a9314613b4d565b0154908115611de6576040516305d3b1d360e41b81527f000000000000000000000000000000000000000000000000000000000000000060048201527f00000000000000000000000000000000000000000000000000000000000000006001600160401b0316602482015260036044820152620186a0606482015263ffffffff929092166084830152808260a481877f00000000000000000000000000000000000000000000000000000000000000006001600160a01b03165af18015611ddb578490611dad575b60089250845252604082205580f35b508082813d8311611dd4575b611dc381836134ab565b81010312611a365760089151611d9e565b503d611db9565b6040513d86823e3d90fd5b6084906040519062461bcd60e51b82526004820152602560248201527f537175647943616d706169676e4d616e616765723a206e6f207061727469636960448201526470616e747360d81b6064820152fd5b634e487b7160e01b85526021600452602485fd5b50600080516020613da683398151915283528281526040808420338552825283205460ff16611c6e565b50346105ed5760403660031901126105ed57611e90613432565b336001600160a01b03821603611eac576107c39060043561392d565b60405163334bd91960e11b8152600490fd5b50346105ed5760403660031901126105ed5760c090604060043591611ee1613432565b825193611eed85613490565b8285528260a060209682888201528287820152826060820152826080820152015280835260048552611f23848420541515613a3f565b8252600584528282206001600160a01b03909116825283522060405190611f4982613490565b8054928383526001820154818401908152600283015491604085019160ff84161515835260ff606087019460081c161515845260a0600460038701549660808901978852015496019586526040519687525190860152511515604085015251151560608401525160808301525160a0820152f35b50346105ed57611fcc3661367c565b919081526006602052604081209081548310156105ed576020611fef8484613692565b905460405160039290921b1c6001600160a01b03168152f35b50346105ed5760403660031901126105ed576107c3600435612028613432565b90808452836020526120406001604086200154613755565b61381b565b50346105ed5760203660031901126105ed57600160406020926004358152808452200154604051908152f35b50346105ed5760403660031901126105ed57602435906001600160401b0382116105ed57366023830112156105ed578160040135916120af83613522565b926120bd60405194856134ab565b8084526024602085019160051b83010191368311611a3657602401905b8282106124fc5750507f00000000000000000000000000000000000000000000000000000000000000006001600160a01b03169050338190036124de57506004358152600860205260408120549081156124885781815260046020526040812060ff600d8201541660058110156124745760036121579114613b4d565b828252600460205260408220928293838490600a830154915b8281106123ff5750505084156123a357600b01549361218e85613522565b9561219c60405197886134ab565b858752601f196121ab87613522565b013660208901378493855b825181108061239a575b156122b0576121e26121dc856121d68487613be0565b51613b9b565b86613bf4565b87885b88811061227b575b5015612203575b506121fe90613a03565b6121b6565b90956121fe9161227491906001600160a01b038116612222838e613be0565b52878a52600560208181526040808d206001600160a01b0394909416808e52938252808d20600201805461ff0019166101001790558a8d52918152818c20928c52919091528920600301819055613a03565b95906121f4565b6001600160a01b0383811690612291838f613be0565b5116146122a6576122a190613a03565b6121e5565b50506001386121ed565b86858a84600c81018251906001600160401b03821161238657600160401b821161238657805482825580831061236b575b506020840190865260208620865b83811061234e5787877fb7330ab5eff0061dcc2ce398cdcba65229f5e42d18318346e19c17b1cc1ebec66123408989600435600f8201556011429101556040519182916040835260408301906136c0565b60043560208301520390a280f35b82516001600160a01b0316818301556020909201916001016122ef565b81875260208720612380918101908401613a28565b866122e1565b634e487b7160e01b86526041600452602486fd5b508786106121c0565b60405162461bcd60e51b815260206004820152602e60248201527f537175647943616d706169676e4d616e616765723a206e6f20656c696769626c60448201526d65207061727469636970616e747360901b6064820152608490fd5b84875260076020526040872081885260205260018060a01b036040882054168588526005602052604088209088526020526040872060ff600282015416612450575b5061244b90613a03565b612170565b61246761244b929399600161246d93015490613bbb565b98613a03565b9190612441565b634e487b7160e01b83526021600452602483fd5b60405162461bcd60e51b815260206004820152602860248201527f537175647943616d706169676e4d616e616765723a20696e76616c69642072656044820152671c5d595cdd08125160c21b6064820152608490fd5b6044906040519063073e64fd60e21b82523360048301526024820152fd5b81358152602091820191016120da565b50346105ed5760203660031901126105ed5760406020916004358152600883522054604051908152f35b50346105ed5760203660031901126105ed57612550613448565b6125586136fd565b6001600160a01b0381169033821461259b5761257390613894565b507fa3b62bc36326052d97ea62d63c3d60308ed4c3ea8ac079dd8499f1e9c4f80c0f8280a280f35b60405162461bcd60e51b815260206004820152602860248201527f537175647943616d706169676e4d616e616765723a2063616e6e6f742072656d60448201526737bb329039b2b63360c11b6064820152608490fd5b50346105ed5760203660031901126105ed5760048035825260205260409020805461261e60018301613573565b9161262b60028201613573565b9261263860038301613573565b93600483015494600584015460068501546007860154600887015490600988015492600a89015494600d8a015496600e8b015498600f8c01549a60108d01549c601101549d604051806080525261022080608051602001526080510161269d91613619565b60805180820390604001526126b191613619565b60805180820390606001526126c591613619565b9b6080516080015260805160a0015260805160c0015260805160e001526080516101000152608051610120015260805161014001526080516101600160ff82169061270f91613659565b60081c60ff16151560805161018001526080516101a001526080516101c001526080516101e00152608051610200015260805180910390f35b50346105ed576101203660031901126105ed576004356001600160401b0381116107085761277a9036906004016134cc565b906024356001600160401b0381116107085761279a9036906004016134cc565b906044356001600160401b038111610708576127ba9036906004016134cc565b916001600160401b0361010435116107085736602361010435011215610708576101043560040135926127ec84613522565b936127fa60405195866134ab565b80855260208501903660248260051b610104350101116133575760246101043501915b60248260051b610104350101831061331f57505050600080516020613d868339815191528352826020526040832033845260205260ff60408420541680156132f2575b612869906139a2565b84511561329a57606435156132375760643560843511156131cc5760a43515613161574260c43511156130fd5760c43560e435111561309257835115613032576128b4600354613a03565b9384600355604051918260208101106001600160401b0360208501111761301e5760208301604052848352604051936128ec8561345e565b86855287602086015260408501526060840152606435608084015260843560a084015260a43560c08401528360e084015260c43561010084015260e43561012084015283610140840152610160830152610180820152816101a0820152816101c0820152816101e0820152816102008201524261022082015242610240820152828252600460205260408220918151835560208201518051906001600160401b038211612c755781906129a26001870154613539565b601f8111612feb575b50602090601f8311600114612f7c578492612f71575b50508160011b916000199060031b1c19161760018401555b60408201518051906001600160401b038211612c755781906129fe6002870154613539565b601f8111612f3e575b50602090601f8311600114612ecf578492612ec4575b50508160011b916000199060031b1c19161760028401555b60608201518051906001600160401b038211612c75578190612a5a6003870154613539565b601f8111612e91575b50602090601f8311600114612e22578492612e17575b50508160011b916000199060031b1c19161760038401555b6080820151600484015560a0820151600584015560c0820151600684015560e0820151600784015561010082015160088401556101208201516009840155610140820151600a840155610160820151805190600160401b8211612c7557600b85015482600b870155808310612da3575b50602001600b850183526020832083915b838310612c8957505050506101808201518051906001600160401b038211612c7557600160401b8211612c75576020600c8601918254848455808510612c5b575b500190835260208320835b838110612c3e57505050506101a0820151600d8401916005821015612c2a575094849360116102407f3a495479e40f7ba7d7f6395edf32b142dc0c2dc52ee9bc5aae0dd2541321074c958560209a612c08975460ff61ff006101c0860151151560081b1692169061ffff1916171790556101e0810151600e850155610200810151600f85015561022081015160108501550151910155604051918291608083526080830190613619565b60c4358783015260e435604083015260a43560608301520390a2604051908152f35b634e487b7160e01b81526021600452602490fd5b82516001600160a01b031681830155602090920191600101612b5e565b838652828620612c6f918101908601613a28565b38612b53565b634e487b7160e01b83526041600452602483fd5b80518051906001600160401b03821161117e57612ca68454613539565b601f8111612d68575b50602090601f8311600114612cfb5792826001949360209386958b92612cf0575b5050600019600383901b1c191690841b1785555b01920192019190612b12565b015190503880612cd0565b908488526020882091885b601f1985168110612d50575083602093600196938796938794601f19811610612d37575b505050811b018555612ce4565b015160001960f88460031b161c19169055388080612d2a565b91926020600181928685015181550194019201612d06565b612d939085895260208920601f850160051c81019160208610612d99575b601f0160051c0190613a28565b38612caf565b9091508190612d86565b600b8601845260208420908382015b8183018110612dc2575050612b01565b8086612dd060019354613539565b80612dde575b505001612db2565b601f81118414612df3575081555b8638612dd6565b828252612e0e601f60208420920160051c8201858301613a28565b81835555612dec565b015190503880612a79565b9250600386018452602084209084935b601f1984168510612e76576001945083601f19811610612e5d575b505050811b016003840155612a91565b015160001960f88460031b161c19169055388080612e4d565b81810151835560209485019460019093019290910190612e32565b612ebe9060038801865260208620601f850160051c81019160208610612d9957601f0160051c0190613a28565b38612a63565b015190503880612a1d565b9250600286018452602084209084935b601f1984168510612f23576001945083601f19811610612f0a575b505050811b016002840155612a35565b015160001960f88460031b161c19169055388080612efa565b81810151835560209485019460019093019290910190612edf565b612f6b9060028801865260208620601f850160051c81019160208610612d9957601f0160051c0190613a28565b38612a07565b0151905038806129c1565b9250600186018452602084209084935b601f1984168510612fd0576001945083601f19811610612fb7575b505050811b0160018401556129d9565b015160001960f88460031b161c19169055388080612fa7565b81810151835560209485019460019093019290910190612f8c565b6130189060018801865260208620601f850160051c81019160208610612d9957601f0160051c0190613a28565b386129ab565b634e487b7160e01b85526041600452602485fd5b60405162461bcd60e51b815260206004820152603260248201527f537175647943616d706169676e4d616e616765723a206d7573742068617665206044820152716174206c65617374206f6e65207072697a6560701b6064820152608490fd5b60405162461bcd60e51b815260206004820152603760248201527f537175647943616d706169676e4d616e616765723a20656e642064617465206d60448201527f75737420626520616674657220737461727420646174650000000000000000006064820152608490fd5b60405162461bcd60e51b815260206004820152603660248201527f537175647943616d706169676e4d616e616765723a2073746172742064617465604482015275206d75737420626520696e207468652066757475726560501b6064820152608490fd5b60405162461bcd60e51b815260206004820152603a60248201527f537175647943616d706169676e4d616e616765723a207469636b657420616d6f60448201527f756e74206d7573742062652067726561746572207468616e20300000000000006064820152608490fd5b60405162461bcd60e51b815260206004820152603c60248201527f537175647943616d706169676e4d616e616765723a206861726420636170206d60448201527f7573742062652067726561746572207468616e20736f667420636170000000006064820152608490fd5b60405162461bcd60e51b815260206004820152603560248201527f537175647943616d706169676e4d616e616765723a20736f667420636170206d60448201527407573742062652067726561746572207468616e203605c1b6064820152608490fd5b60405162461bcd60e51b815260206004820152602a60248201527f537175647943616d706169676e4d616e616765723a206e616d652063616e6e6f6044820152697420626520656d70747960b01b6064820152608490fd5b50600080516020613da683398151915283526020838152604080852033865290915283205460ff16612860565b6001600160401b0383351161335357602080602492613346368588356101043501016134cc565b815201930192905061281d565b8580fd5b8480fd5b50346105ed5760403660031901126105ed57604060c09161337a613432565b600435825260056020528282209060018060a01b031682526020522080549060018101549060ff6002820154600460038401549301549360405195865260208601528181161515604086015260081c1615156060840152608083015260a0820152f35b9050346107085760203660031901126107085760043563ffffffff60e01b81168091036111925760209250637965db0b60e01b8114908115613421575b5015158152f35b6301ffc9a760e01b1490503861341a565b602435906001600160a01b038216820361096957565b600435906001600160a01b038216820361096957565b61026081019081106001600160401b0382111761347a57604052565b634e487b7160e01b600052604160045260246000fd5b60c081019081106001600160401b0382111761347a57604052565b90601f801991011681019081106001600160401b0382111761347a57604052565b81601f82011215610969578035906001600160401b03821161347a5760405192613500601f8401601f1916602001856134ab565b8284526020838301011161096957816000926020809301838601378301015290565b6001600160401b03811161347a5760051b60200190565b90600182811c92168015613569575b602083101461355357565b634e487b7160e01b600052602260045260246000fd5b91607f1691613548565b906040519182600082549261358784613539565b9081845260019485811690816000146135f657506001146135b3575b50506135b1925003836134ab565b565b9093915060005260209081600020936000915b8183106135de5750506135b1935082010138806135a3565b855488840185015294850194879450918301916135c6565b9150506135b194506020925060ff191682840152151560051b82010138806135a3565b919082519283825260005b848110613645575050826000602080949584010152601f8019910116010190565b602081830181015184830182015201613624565b9060058210156136665752565b634e487b7160e01b600052602160045260246000fd5b6040906003190112610969576004359060243590565b80548210156136aa5760005260206000200190600090565b634e487b7160e01b600052603260045260246000fd5b90815180825260208080930193019160005b8281106136e0575050505090565b83516001600160a01b0316855293810193928101926001016136d2565b3360009081527fad3228b676f7d3cd4284a5443f17f1962b36e491b30a40b2405849e597ba5fb5602052604081205460ff16156137375750565b6044906040519063e2517d3f60e01b82523360048301526024820152fd5b80600052600060205260406000203360005260205260ff60406000205416156137375750565b6001600160a01b031660008181527f7d7ffb7a348e1c6a02869081a26547b49160dd3df72d1d75a570eb9b698292ec6020526040812054909190600080516020613da68339815191529060ff1661381657808352826020526040832082845260205260408320600160ff198254161790557f2f8788117e7eff1d82e926ec794901d17c78024a50270940304540a733656f0d339380a4600190565b505090565b9060009180835282602052604083209160018060a01b03169182845260205260ff6040842054161560001461381657808352826020526040832082845260205260408320600160ff198254161790557f2f8788117e7eff1d82e926ec794901d17c78024a50270940304540a733656f0d339380a4600190565b6001600160a01b031660008181527f7d7ffb7a348e1c6a02869081a26547b49160dd3df72d1d75a570eb9b698292ec6020526040812054909190600080516020613da68339815191529060ff16156138165780835282602052604083208284526020526040832060ff1981541690557ff6391f5c32d9c69d2a47ea670b442974b53935d1edc7fd64eb21e047a839171b339380a4600190565b9060009180835282602052604083209160018060a01b03169182845260205260ff6040842054166000146138165780835282602052604083208284526020526040832060ff1981541690557ff6391f5c32d9c69d2a47ea670b442974b53935d1edc7fd64eb21e047a839171b339380a4600190565b156139a957565b60405162461bcd60e51b815260206004820152602c60248201527f537175647943616d706169676e4d616e616765723a206f70657261746f72207260448201526b1bdb19481c995c5d5a5c995960a21b6064820152608490fd5b6000198114613a125760010190565b634e487b7160e01b600052601160045260246000fd5b818110613a33575050565b60008155600101613a28565b15613a4657565b60405162461bcd60e51b815260206004820152602d60248201527f537175647943616d706169676e4d616e616765723a2063616d706169676e206460448201526c1bd95cc81b9bdd08195e1a5cdd609a1b6064820152608490fd5b15613aa857565b60405162461bcd60e51b81526020600482015260296024820152600080516020613d668339815191526044820152686f742061637469766560b81b6064820152608490fd5b15613af457565b60405162461bcd60e51b815260206004820152602b60248201527f537175647943616d706169676e4d616e616765723a20746f6b656e7320616c7260448201526a1958591e48189d5c9b995960aa1b6064820152608490fd5b15613b5457565b60405162461bcd60e51b815260206004820152602b6024820152600080516020613d6683398151915260448201526a1bdd08199a5b9a5cda195960aa1b6064820152608490fd5b8115613ba5570690565b634e487b7160e01b600052601260045260246000fd5b91908201809211613a1257565b90816020910312610969575180151581036109695790565b80518210156136aa5760209160051b010190565b90600091808352602090600482526040928385209085600a87930154925b838110613c3b57505050908452506007815281832083805290529020546001600160a01b031690565b84885260078652868820818952865260018060a01b03878920541685895260058752878920818a52875287892060ff600282015416613c85575b5050613c8090613a03565b613c12565b926001613c959294015490613bbb565b91828410613ca35780613c75565b97505050505050505090565b9060405191828154918282526020928383019160005283600020936000905b828210613ce4575050506135b1925003836134ab565b85546001600160a01b031684526001958601958895509381019390910190613cce565b15613d0e57565b60405162461bcd60e51b815260206004820152602960248201527f537175647943616d706169676e4d616e616765723a2061646d696e20726f6c65604482015268081c995c5d5a5c995960ba1b6064820152608490fdfe537175647943616d706169676e4d616e616765723a2063616d706169676e206e97667070c54ef182b0f5858b034beac1b6f3089aa2d3188bb1e8929f4fa9b929a49807205ce4d355092ef5a8a18f56e8913cf4a201fbe287825b095693c21775a264697066735822122087e87b61aba1c117efca5b8ab9472a1acb9f304b91ed7f697c41bad84d8bb54064736f6c634300081400332f8788117e7eff1d82e926ec794901d17c78024a50270940304540a733656f0d","opcodes":"PUSH2 0x120 CALLVALUE PUSH3 0x10B JUMPI PUSH1 0x1 PUSH1 0x1 PUSH1 0x40 SHL SUB PUSH1 0x1F PUSH3 0x4116 CODESIZE DUP2 SWAP1 SUB SWAP2 DUP3 ADD PUSH1 0x1F NOT AND DUP5 ADD SWAP2 DUP4 DUP4 GT DUP6 DUP5 LT OR PUSH3 0x110 JUMPI DUP1 DUP6 SWAP3 PUSH1 0x80 SWAP5 PUSH1 0x40 MSTORE DUP4 CODECOPY DUP2 ADD SUB SLT PUSH3 0x10B JUMPI PUSH3 0x4F DUP3 PUSH3 0x126 JUMP JUMPDEST SWAP2 PUSH3 0x5E PUSH1 0x20 DUP3 ADD PUSH3 0x126 JUMP JUMPDEST PUSH1 0x60 PUSH1 0x40 DUP4 ADD MLOAD SWAP3 ADD MLOAD SWAP3 DUP4 AND DUP4 SUB PUSH3 0x10B JUMPI PUSH1 0x1 DUP1 SSTORE PUSH1 0x80 DUP2 SWAP1 MSTORE PUSH1 0x1 PUSH1 0x1 PUSH1 0xA0 SHL SUB SWAP4 DUP5 AND PUSH2 0x100 SWAP1 DUP2 MSTORE SWAP4 AND PUSH1 0xA0 MSTORE PUSH1 0xC0 MSTORE PUSH1 0xE0 MSTORE PUSH3 0xA2 CALLER PUSH3 0x13B JUMP JUMPDEST POP PUSH3 0xAE CALLER PUSH3 0x1BB JUMP JUMPDEST POP PUSH3 0xBA CALLER PUSH3 0x25D JUMP JUMPDEST POP PUSH1 0x40 MLOAD PUSH2 0x3DFB SWAP2 DUP3 PUSH3 0x2FB DUP4 CODECOPY PUSH1 0x80 MLOAD DUP3 PUSH2 0x20E5 ADD MSTORE PUSH1 0xA0 MLOAD DUP3 PUSH2 0x1D67 ADD MSTORE PUSH1 0xC0 MLOAD DUP3 PUSH2 0x1CEE ADD MSTORE PUSH1 0xE0 MLOAD DUP3 PUSH2 0x1D14 ADD MSTORE MLOAD DUP2 DUP2 DUP2 PUSH2 0x35A ADD MSTORE DUP2 DUP2 PUSH2 0x829 ADD MSTORE DUP2 DUP2 PUSH2 0x109B ADD MSTORE PUSH2 0x1874 ADD MSTORE RETURN JUMPDEST PUSH1 0x0 DUP1 REVERT JUMPDEST PUSH4 0x4E487B71 PUSH1 0xE0 SHL PUSH1 0x0 MSTORE PUSH1 0x41 PUSH1 0x4 MSTORE PUSH1 0x24 PUSH1 0x0 REVERT JUMPDEST MLOAD SWAP1 PUSH1 0x1 PUSH1 0x1 PUSH1 0xA0 SHL SUB DUP3 AND DUP3 SUB PUSH3 0x10B JUMPI JUMP JUMPDEST PUSH1 0x1 PUSH1 0x1 PUSH1 0xA0 SHL SUB AND PUSH1 0x0 DUP2 DUP2 MSTORE PUSH32 0xAD3228B676F7D3CD4284A5443F17F1962B36E491B30A40B2405849E597BA5FB5 PUSH1 0x20 MSTORE PUSH1 0x40 DUP2 KECCAK256 SLOAD SWAP1 SWAP2 SWAP1 PUSH1 0xFF AND PUSH3 0x1B7 JUMPI DUP2 DUP1 MSTORE DUP2 PUSH1 0x20 MSTORE PUSH1 0x40 DUP3 KECCAK256 DUP2 DUP4 MSTORE PUSH1 0x20 MSTORE PUSH1 0x40 DUP3 KECCAK256 PUSH1 0x1 PUSH1 0xFF NOT DUP3 SLOAD AND OR SWAP1 SSTORE CALLER SWAP2 PUSH1 0x0 DUP1 MLOAD PUSH1 0x20 PUSH3 0x40F6 DUP4 CODECOPY DUP2 MLOAD SWAP2 MSTORE DUP2 DUP1 LOG4 PUSH1 0x1 SWAP1 JUMP JUMPDEST POP SWAP1 JUMP JUMPDEST PUSH1 0x1 PUSH1 0x1 PUSH1 0xA0 SHL SUB AND PUSH1 0x0 DUP2 DUP2 MSTORE PUSH32 0x7D7FFB7A348E1C6A02869081A26547B49160DD3DF72D1D75A570EB9B698292EC PUSH1 0x20 MSTORE PUSH1 0x40 DUP2 KECCAK256 SLOAD SWAP1 SWAP2 SWAP1 PUSH32 0xA49807205CE4D355092EF5A8A18F56E8913CF4A201FBE287825B095693C21775 SWAP1 PUSH1 0xFF AND PUSH3 0x258 JUMPI DUP1 DUP4 MSTORE DUP3 PUSH1 0x20 MSTORE PUSH1 0x40 DUP4 KECCAK256 DUP3 DUP5 MSTORE PUSH1 0x20 MSTORE PUSH1 0x40 DUP4 KECCAK256 PUSH1 0x1 PUSH1 0xFF NOT DUP3 SLOAD AND OR SWAP1 SSTORE PUSH1 0x0 DUP1 MLOAD PUSH1 0x20 PUSH3 0x40F6 DUP4 CODECOPY DUP2 MLOAD SWAP2 MSTORE CALLER SWAP4 DUP1 LOG4 PUSH1 0x1 SWAP1 JUMP JUMPDEST POP POP SWAP1 JUMP JUMPDEST PUSH1 0x1 PUSH1 0x1 PUSH1 0xA0 SHL SUB AND PUSH1 0x0 DUP2 DUP2 MSTORE PUSH32 0xEE57CD81E84075558E8FCC182A1F4393F91FC97F963A136E66B7F949A62F319F PUSH1 0x20 MSTORE PUSH1 0x40 DUP2 KECCAK256 SLOAD SWAP1 SWAP2 SWAP1 PUSH32 0x97667070C54EF182B0F5858B034BEAC1B6F3089AA2D3188BB1E8929F4FA9B929 SWAP1 PUSH1 0xFF AND PUSH3 0x258 JUMPI DUP1 DUP4 MSTORE DUP3 PUSH1 0x20 MSTORE PUSH1 0x40 DUP4 KECCAK256 DUP3 DUP5 MSTORE PUSH1 0x20 MSTORE PUSH1 0x40 DUP4 KECCAK256 PUSH1 0x1 PUSH1 0xFF NOT DUP3 SLOAD AND OR SWAP1 SSTORE PUSH1 0x0 DUP1 MLOAD PUSH1 0x20 PUSH3 0x40F6 DUP4 CODECOPY DUP2 MLOAD SWAP2 MSTORE CALLER SWAP4 DUP1 LOG4 PUSH1 0x1 SWAP1 JUMP INVALID PUSH1 0xA0 DUP1 PUSH1 0x40 MSTORE PUSH1 0x4 CALLDATASIZE LT ISZERO PUSH2 0x13 JUMPI PUSH1 0x0 DUP1 REVERT JUMPDEST PUSH1 0x0 SWAP1 DUP2 CALLDATALOAD PUSH1 0xE0 SHR SWAP1 DUP2 PUSH4 0x1FFC9A7 EQ PUSH2 0x33DD JUMPI POP DUP1 PUSH4 0x2E060C6 EQ PUSH2 0x335B JUMPI DUP1 PUSH4 0x3463DD9 EQ PUSH2 0x2748 JUMPI DUP1 PUSH4 0x141961BC EQ PUSH2 0x25F1 JUMPI DUP1 PUSH4 0x1785F53C EQ PUSH2 0x2536 JUMPI DUP1 PUSH4 0x1A1D9252 EQ PUSH2 0x250C JUMPI DUP1 PUSH4 0x1FE543E3 EQ PUSH2 0x2071 JUMPI DUP1 PUSH4 0x248A9CA3 EQ PUSH2 0x2045 JUMPI DUP1 PUSH4 0x2F2FF15D EQ PUSH2 0x2008 JUMPI DUP1 PUSH4 0x35ABD49B EQ PUSH2 0x1FBD JUMPI DUP1 PUSH4 0x35F3AD7A EQ PUSH2 0x1EBE JUMPI DUP1 PUSH4 0x36568ABE EQ PUSH2 0x1E76 JUMPI DUP1 PUSH4 0x39A2EB2A EQ PUSH2 0x1C2B JUMPI DUP1 PUSH4 0x493F1726 EQ PUSH2 0x1ACC JUMPI DUP1 PUSH4 0x4A4E3BD5 EQ PUSH2 0x1A3A JUMPI DUP1 PUSH4 0x4E182157 EQ PUSH2 0x18A3 JUMPI DUP1 PUSH4 0x4EB53F99 EQ PUSH2 0x185E JUMPI DUP1 PUSH4 0x51858E27 EQ PUSH2 0x17C9 JUMPI DUP1 PUSH4 0x5598F8CC EQ PUSH2 0x1425 JUMPI DUP1 PUSH4 0x5C975ABB EQ PUSH2 0x1402 JUMPI DUP1 PUSH4 0x5E3583F5 EQ PUSH2 0x13CB JUMPI DUP1 PUSH4 0x6A14DFFD EQ PUSH2 0x1371 JUMPI DUP1 PUSH4 0x6CAA9218 EQ PUSH2 0x1353 JUMPI DUP1 PUSH4 0x70480275 EQ PUSH2 0x1296 JUMPI DUP1 PUSH4 0x75B238FC EQ PUSH2 0x126D JUMPI DUP1 PUSH4 0x8C0C5902 EQ PUSH2 0xFD7 JUMPI DUP1 PUSH4 0x8C6AB238 EQ PUSH2 0xF7E JUMPI DUP1 PUSH4 0x91D14854 EQ PUSH2 0xF33 JUMPI DUP1 PUSH4 0x9E3696D9 EQ PUSH2 0xD9D JUMPI DUP1 PUSH4 0xA217FDDF EQ PUSH2 0xD81 JUMPI DUP1 PUSH4 0xB0E1C1E1 EQ PUSH2 0xBC6 JUMPI DUP1 PUSH4 0xB5801D91 EQ PUSH2 0x9DF JUMPI DUP1 PUSH4 0xB7E26A2E EQ PUSH2 0x7C7 JUMPI DUP1 PUSH4 0xD547741F EQ PUSH2 0x786 JUMPI DUP1 PUSH4 0xDA8125FB EQ PUSH2 0x70C JUMPI DUP1 PUSH4 0xDE99347A EQ PUSH2 0x619 JUMPI DUP1 PUSH4 0xF5B541A6 EQ PUSH2 0x5F0 JUMPI PUSH4 0xF8EC73D1 EQ PUSH2 0x1C3 JUMPI PUSH1 0x0 DUP1 REVERT JUMPDEST CALLVALUE PUSH2 0x5ED JUMPI PUSH2 0x1D1 CALLDATASIZE PUSH2 0x367C JUMP JUMPDEST PUSH1 0x1 SWAP2 PUSH1 0x2 DUP4 SLOAD EQ PUSH2 0x5DB JUMPI PUSH1 0x2 DUP4 SSTORE DUP1 DUP5 MSTORE PUSH1 0x20 PUSH1 0x4 DUP2 MSTORE PUSH2 0x1F9 PUSH1 0x40 DUP7 KECCAK256 SLOAD ISZERO ISZERO PUSH2 0x3A3F JUMP JUMPDEST DUP2 DUP6 MSTORE PUSH1 0x4 DUP2 MSTORE PUSH1 0xFF PUSH1 0xD PUSH1 0x40 DUP8 KECCAK256 ADD SLOAD AND PUSH1 0x5 DUP2 LT ISZERO PUSH2 0x5C7 JUMPI DUP5 PUSH2 0x21F SWAP2 EQ PUSH2 0x3AA1 JUMP JUMPDEST DUP2 DUP6 MSTORE PUSH1 0x4 DUP2 MSTORE PUSH1 0x40 DUP6 KECCAK256 SWAP1 DUP4 ISZERO PUSH2 0x567 JUMPI PUSH1 0x6 DUP3 ADD SLOAD SWAP2 PUSH2 0x241 DUP4 DUP7 PUSH2 0x3B9B JUMP JUMPDEST PUSH2 0x4FC JUMPI PUSH1 0x7 DUP2 ADD PUSH2 0x254 DUP7 DUP3 SLOAD PUSH2 0x3BBB JUMP JUMPDEST PUSH1 0x5 DUP4 ADD SLOAD LT PUSH2 0x4A3 JUMPI DUP5 DUP9 MSTORE PUSH1 0x5 DUP4 MSTORE PUSH1 0x40 DUP9 KECCAK256 CALLER PUSH1 0x0 MSTORE DUP4 MSTORE PUSH1 0x40 PUSH1 0x0 KECCAK256 SWAP4 DUP1 ISZERO PUSH2 0x48F JUMPI DUP8 SWAP1 DUP8 DIV SWAP5 DUP8 DUP2 SLOAD DUP1 ISZERO PUSH1 0x0 EQ PUSH2 0x470 JUMPI POP SWAP1 DUP1 SWAP3 POP SSTORE DUP5 DUP9 DUP3 ADD SSTORE PUSH1 0x4 TIMESTAMP SWAP2 ADD SSTORE DUP5 DUP9 MSTORE PUSH1 0x6 DUP4 MSTORE PUSH1 0x40 DUP9 KECCAK256 DUP1 SLOAD SWAP1 PUSH1 0x1 PUSH1 0x40 SHL DUP3 LT ISZERO PUSH2 0x45C JUMPI SWAP1 PUSH2 0x2C6 SWAP2 DUP10 DUP3 ADD DUP2 SSTORE PUSH2 0x3692 JUMP JUMPDEST DUP2 SLOAD SWAP1 PUSH1 0x3 SHL SWAP1 CALLER DUP3 SHL SWAP2 PUSH1 0x1 DUP1 PUSH1 0xA0 SHL SUB SWAP1 SHL NOT AND OR SWAP1 SSTORE DUP5 DUP9 MSTORE PUSH1 0x7 DUP4 MSTORE PUSH1 0x40 DUP9 KECCAK256 PUSH1 0xA DUP4 ADD SWAP1 DUP2 SLOAD DUP11 MSTORE DUP5 MSTORE PUSH1 0x40 DUP10 KECCAK256 CALLER PUSH12 0xFFFFFFFFFFFFFFFFFFFFFFFF PUSH1 0xA0 SHL DUP3 SLOAD AND OR SWAP1 SSTORE PUSH2 0x31A DUP2 SLOAD PUSH2 0x3A03 JUMP JUMPDEST SWAP1 SSTORE JUMPDEST PUSH2 0x328 DUP7 DUP3 SLOAD PUSH2 0x3BBB JUMP JUMPDEST SWAP1 SSTORE TIMESTAMP PUSH1 0x11 SWAP2 SWAP1 SWAP2 ADD SSTORE PUSH1 0x40 MLOAD PUSH4 0x23B872DD PUSH1 0xE0 SHL DUP2 MSTORE CALLER PUSH1 0x4 DUP3 ADD MSTORE ADDRESS PUSH1 0x24 DUP3 ADD MSTORE PUSH1 0x44 DUP2 ADD DUP6 SWAP1 MSTORE DUP2 DUP2 PUSH1 0x64 DUP2 DUP11 PUSH32 0x0 PUSH1 0x1 PUSH1 0x1 PUSH1 0xA0 SHL SUB AND GAS CALL SWAP1 DUP2 ISZERO PUSH2 0x451 JUMPI DUP8 SWAP2 PUSH2 0x424 JUMPI JUMPDEST POP ISZERO PUSH2 0x3CC JUMPI PUSH1 0x40 MLOAD SWAP4 DUP5 MSTORE DUP4 ADD MSTORE PUSH32 0xBF3A2998BF95EFFB9622E3AEEA768EC248F238862FD602100075C04D21CAA23C PUSH1 0x40 CALLER SWAP4 LOG3 DUP1 SSTORE DUP1 RETURN JUMPDEST PUSH1 0x84 SWAP1 PUSH1 0x40 MLOAD SWAP1 PUSH3 0x461BCD PUSH1 0xE5 SHL DUP3 MSTORE PUSH1 0x4 DUP3 ADD MSTORE PUSH1 0x2B PUSH1 0x24 DUP3 ADD MSTORE PUSH32 0x537175647943616D706169676E4D616E616765723A20746F6B656E207472616E PUSH1 0x44 DUP3 ADD MSTORE PUSH11 0x1CD9995C8819985A5B1959 PUSH1 0xAA SHL PUSH1 0x64 DUP3 ADD MSTORE REVERT JUMPDEST PUSH2 0x444 SWAP2 POP DUP3 RETURNDATASIZE DUP5 GT PUSH2 0x44A JUMPI JUMPDEST PUSH2 0x43C DUP2 DUP4 PUSH2 0x34AB JUMP JUMPDEST DUP2 ADD SWAP1 PUSH2 0x3BC8 JUMP JUMPDEST CODESIZE PUSH2 0x392 JUMP JUMPDEST POP RETURNDATASIZE PUSH2 0x432 JUMP JUMPDEST PUSH1 0x40 MLOAD RETURNDATASIZE DUP10 DUP3 RETURNDATACOPY RETURNDATASIZE SWAP1 REVERT JUMPDEST PUSH4 0x4E487B71 PUSH1 0xE0 SHL DUP11 MSTORE PUSH1 0x41 PUSH1 0x4 MSTORE PUSH1 0x24 DUP11 REVERT JUMPDEST SWAP1 PUSH2 0x47A SWAP2 PUSH2 0x3BBB JUMP JUMPDEST DUP2 SSTORE ADD PUSH2 0x488 DUP6 DUP3 SLOAD PUSH2 0x3BBB JUMP JUMPDEST SWAP1 SSTORE PUSH2 0x31D JUMP JUMPDEST PUSH4 0x4E487B71 PUSH1 0xE0 SHL DUP10 MSTORE PUSH1 0x12 PUSH1 0x4 MSTORE PUSH1 0x24 DUP10 REVERT JUMPDEST PUSH1 0x40 MLOAD PUSH3 0x461BCD PUSH1 0xE5 SHL DUP2 MSTORE PUSH1 0x4 DUP2 ADD DUP5 SWAP1 MSTORE PUSH1 0x2B PUSH1 0x24 DUP3 ADD MSTORE PUSH32 0x537175647943616D706169676E4D616E616765723A20776F756C642065786365 PUSH1 0x44 DUP3 ADD MSTORE PUSH11 0x656420686172642063617 PUSH1 0xAC SHL PUSH1 0x64 DUP3 ADD MSTORE PUSH1 0x84 SWAP1 REVERT JUMPDEST PUSH1 0x40 MLOAD PUSH3 0x461BCD PUSH1 0xE5 SHL DUP2 MSTORE PUSH1 0x4 DUP2 ADD DUP4 SWAP1 MSTORE PUSH1 0x3E PUSH1 0x24 DUP3 ADD MSTORE PUSH32 0x537175647943616D706169676E4D616E616765723A20616D6F756E74206D7573 PUSH1 0x44 DUP3 ADD MSTORE PUSH32 0x74206265206D756C7469706C65206F66207469636B657420616D6F756E740000 PUSH1 0x64 DUP3 ADD MSTORE PUSH1 0x84 SWAP1 REVERT JUMPDEST PUSH1 0x84 SWAP1 PUSH1 0x40 MLOAD SWAP1 PUSH3 0x461BCD PUSH1 0xE5 SHL DUP3 MSTORE PUSH1 0x4 DUP3 ADD MSTORE PUSH1 0x33 PUSH1 0x24 DUP3 ADD MSTORE PUSH32 0x537175647943616D706169676E4D616E616765723A20616D6F756E74206D7573 PUSH1 0x44 DUP3 ADD MSTORE PUSH19 0x742062652067726561746572207468616E203 PUSH1 0x6C SHL PUSH1 0x64 DUP3 ADD MSTORE REVERT JUMPDEST PUSH4 0x4E487B71 PUSH1 0xE0 SHL DUP7 MSTORE PUSH1 0x21 PUSH1 0x4 MSTORE PUSH1 0x24 DUP7 REVERT JUMPDEST PUSH1 0x40 MLOAD PUSH4 0x3EE5AEB5 PUSH1 0xE0 SHL DUP2 MSTORE PUSH1 0x4 SWAP1 REVERT JUMPDEST DUP1 REVERT JUMPDEST POP CALLVALUE PUSH2 0x5ED JUMPI DUP1 PUSH1 0x3 NOT CALLDATASIZE ADD SLT PUSH2 0x5ED JUMPI PUSH1 0x20 PUSH1 0x40 MLOAD PUSH1 0x0 DUP1 MLOAD PUSH1 0x20 PUSH2 0x3D86 DUP4 CODECOPY DUP2 MLOAD SWAP2 MSTORE DUP2 MSTORE RETURN JUMPDEST POP CALLVALUE PUSH2 0x5ED JUMPI PUSH1 0x20 DUP1 PUSH1 0x3 NOT CALLDATASIZE ADD SLT PUSH2 0x708 JUMPI PUSH1 0x4 DUP1 CALLDATALOAD SWAP2 PUSH1 0x0 DUP1 MLOAD PUSH1 0x20 PUSH2 0x3D86 DUP4 CODECOPY DUP2 MLOAD SWAP2 MSTORE DUP5 MSTORE DUP4 DUP2 MSTORE PUSH1 0x40 DUP5 KECCAK256 CALLER PUSH1 0x0 MSTORE DUP2 MSTORE PUSH1 0xFF PUSH1 0x40 PUSH1 0x0 KECCAK256 SLOAD AND DUP1 ISZERO PUSH2 0x6DB JUMPI JUMPDEST PUSH2 0x668 SWAP1 PUSH2 0x39A2 JUMP JUMPDEST DUP3 DUP5 MSTORE DUP2 DUP2 MSTORE PUSH2 0x67D PUSH1 0x40 DUP6 KECCAK256 SLOAD ISZERO ISZERO PUSH2 0x3A3F JUMP JUMPDEST DUP3 DUP5 MSTORE MSTORE PUSH1 0x40 DUP3 KECCAK256 PUSH1 0xD DUP2 ADD DUP1 SLOAD PUSH1 0xFF DUP2 AND PUSH1 0x5 DUP2 LT ISZERO PUSH2 0x5C7 JUMPI SWAP1 PUSH2 0x6A7 PUSH1 0x1 PUSH1 0x2 SWAP4 EQ PUSH2 0x3AA1 JUMP JUMPDEST PUSH1 0xFF NOT AND OR SWAP1 SSTORE PUSH1 0x11 TIMESTAMP SWAP2 ADD SSTORE PUSH32 0xAB1902EE37C92D1A78DDA53814D64B815E7E3EE287D60843A3DBD6954E3206B4 DUP3 DUP1 LOG2 DUP1 RETURN JUMPDEST POP PUSH1 0x0 DUP1 MLOAD PUSH1 0x20 PUSH2 0x3DA6 DUP4 CODECOPY DUP2 MLOAD SWAP2 MSTORE DUP5 MSTORE DUP4 DUP2 MSTORE PUSH1 0x40 DUP1 DUP6 KECCAK256 CALLER PUSH1 0x0 SWAP1 DUP2 MSTORE SWAP1 DUP4 MSTORE KECCAK256 SLOAD PUSH1 0xFF AND PUSH2 0x65F JUMP JUMPDEST POP DUP1 REVERT JUMPDEST POP CALLVALUE PUSH2 0x5ED JUMPI PUSH1 0x40 CALLDATASIZE PUSH1 0x3 NOT ADD SLT PUSH2 0x5ED JUMPI PUSH1 0x40 PUSH1 0x4 CALLDATALOAD SWAP2 PUSH2 0x72C PUSH2 0x3432 JUMP JUMPDEST SWAP3 DUP1 DUP3 MSTORE PUSH1 0x4 PUSH1 0x20 MSTORE PUSH2 0x743 DUP4 DUP4 KECCAK256 SLOAD ISZERO ISZERO PUSH2 0x3A3F JUMP JUMPDEST DUP2 MSTORE PUSH1 0x5 PUSH1 0x20 MSTORE KECCAK256 SWAP1 PUSH1 0x1 DUP1 PUSH1 0xA0 SHL SUB AND PUSH1 0x0 MSTORE PUSH1 0x20 MSTORE PUSH1 0x20 PUSH1 0x40 PUSH1 0x0 KECCAK256 DUP1 SLOAD ISZERO ISZERO SWAP1 DUP2 PUSH2 0x777 JUMPI JUMPDEST POP PUSH1 0x40 MLOAD SWAP1 ISZERO ISZERO DUP2 MSTORE RETURN JUMPDEST PUSH1 0xFF SWAP2 POP PUSH1 0x2 ADD SLOAD AND CODESIZE PUSH2 0x76C JUMP JUMPDEST POP CALLVALUE PUSH2 0x5ED JUMPI PUSH1 0x40 CALLDATASIZE PUSH1 0x3 NOT ADD SLT PUSH2 0x5ED JUMPI PUSH2 0x7C3 PUSH1 0x4 CALLDATALOAD PUSH2 0x7A6 PUSH2 0x3432 JUMP JUMPDEST SWAP1 DUP1 DUP5 MSTORE DUP4 PUSH1 0x20 MSTORE PUSH2 0x7BE PUSH1 0x1 PUSH1 0x40 DUP7 KECCAK256 ADD SLOAD PUSH2 0x3755 JUMP JUMPDEST PUSH2 0x392D JUMP JUMPDEST POP DUP1 RETURN JUMPDEST POP CALLVALUE PUSH2 0x5ED JUMPI PUSH1 0x40 CALLDATASIZE PUSH1 0x3 NOT ADD SLT PUSH2 0x5ED JUMPI PUSH2 0x7E1 PUSH2 0x3448 JUMP JUMPDEST PUSH2 0x7E9 PUSH2 0x3432 JUMP JUMPDEST PUSH1 0x0 DUP1 MLOAD PUSH1 0x20 PUSH2 0x3DA6 DUP4 CODECOPY DUP2 MLOAD SWAP2 MSTORE DUP4 MSTORE PUSH1 0x20 SWAP2 DUP4 DUP4 MSTORE PUSH1 0x40 DUP5 KECCAK256 CALLER PUSH1 0x0 MSTORE DUP4 MSTORE PUSH2 0x81B PUSH1 0xFF PUSH1 0x40 PUSH1 0x0 KECCAK256 SLOAD AND PUSH2 0x3D07 JUMP JUMPDEST PUSH1 0x1 PUSH1 0x1 PUSH1 0xA0 SHL SUB SWAP1 DUP2 AND SWAP1 PUSH32 0x0 AND DUP2 EQ PUSH2 0x980 JUMPI PUSH1 0x40 MLOAD PUSH4 0x70A08231 PUSH1 0xE0 SHL DUP2 MSTORE ADDRESS PUSH1 0x4 DUP3 ADD MSTORE SWAP2 DUP4 DUP4 PUSH1 0x24 DUP2 DUP6 GAS STATICCALL SWAP3 DUP4 ISZERO PUSH2 0x975 JUMPI DUP6 SWAP4 PUSH2 0x941 JUMPI JUMPDEST POP DUP3 ISZERO PUSH2 0x8E9 JUMPI PUSH1 0x40 MLOAD PUSH4 0xA9059CBB PUSH1 0xE0 SHL DUP2 MSTORE PUSH1 0x1 PUSH1 0x1 PUSH1 0xA0 SHL SUB SWAP2 SWAP1 SWAP2 AND PUSH1 0x4 DUP3 ADD MSTORE PUSH1 0x24 DUP2 ADD SWAP3 SWAP1 SWAP3 MSTORE DUP3 SWAP1 DUP3 SWAP1 PUSH1 0x44 SWAP1 DUP3 SWAP1 DUP8 SWAP1 GAS CALL DUP1 ISZERO PUSH2 0x8DE JUMPI PUSH2 0x8C1 JUMPI DUP3 DUP1 RETURN JUMPDEST DUP2 PUSH2 0x8D7 SWAP3 SWAP1 RETURNDATASIZE LT PUSH2 0x44A JUMPI PUSH2 0x43C DUP2 DUP4 PUSH2 0x34AB JUMP JUMPDEST POP CODESIZE DUP1 DUP3 DUP1 RETURN JUMPDEST PUSH1 0x40 MLOAD RETURNDATASIZE DUP6 DUP3 RETURNDATACOPY RETURNDATASIZE SWAP1 REVERT JUMPDEST PUSH1 0x40 MLOAD PUSH3 0x461BCD PUSH1 0xE5 SHL DUP2 MSTORE PUSH1 0x4 DUP2 ADD DUP6 SWAP1 MSTORE PUSH1 0x2A PUSH1 0x24 DUP3 ADD MSTORE PUSH32 0x537175647943616D706169676E4D616E616765723A206E6F20746F6B656E7320 PUSH1 0x44 DUP3 ADD MSTORE PUSH10 0x3A37903932B1B7BB32B9 PUSH1 0xB1 SHL PUSH1 0x64 DUP3 ADD MSTORE PUSH1 0x84 SWAP1 REVERT JUMPDEST SWAP1 SWAP3 POP DUP4 DUP2 DUP2 RETURNDATASIZE DUP4 GT PUSH2 0x96E JUMPI JUMPDEST PUSH2 0x959 DUP2 DUP4 PUSH2 0x34AB JUMP JUMPDEST DUP2 ADD SUB SLT PUSH2 0x969 JUMPI MLOAD SWAP2 CODESIZE PUSH2 0x879 JUMP JUMPDEST PUSH1 0x0 DUP1 REVERT JUMPDEST POP RETURNDATASIZE PUSH2 0x94F JUMP JUMPDEST PUSH1 0x40 MLOAD RETURNDATASIZE DUP8 DUP3 RETURNDATACOPY RETURNDATASIZE SWAP1 REVERT JUMPDEST PUSH1 0x40 MLOAD PUSH3 0x461BCD PUSH1 0xE5 SHL DUP2 MSTORE PUSH1 0x4 DUP2 ADD DUP5 SWAP1 MSTORE PUSH1 0x31 PUSH1 0x24 DUP3 ADD MSTORE PUSH32 0x537175647943616D706169676E4D616E616765723A2063616E6E6F7420726563 PUSH1 0x44 DUP3 ADD MSTORE PUSH17 0x6F76657220535155445920746F6B656E73 PUSH1 0x78 SHL PUSH1 0x64 DUP3 ADD MSTORE PUSH1 0x84 SWAP1 REVERT JUMPDEST POP CALLVALUE PUSH2 0x5ED JUMPI PUSH1 0x40 CALLDATASIZE PUSH1 0x3 NOT ADD SLT PUSH2 0x5ED JUMPI PUSH1 0x4 CALLDATALOAD PUSH2 0x9FC PUSH2 0x3432 JUMP JUMPDEST SWAP1 PUSH1 0x0 DUP1 MLOAD PUSH1 0x20 PUSH2 0x3D86 DUP4 CODECOPY DUP2 MLOAD SWAP2 MSTORE DUP4 MSTORE PUSH1 0x20 DUP4 DUP2 MSTORE PUSH1 0x40 DUP5 KECCAK256 CALLER PUSH1 0x0 MSTORE DUP2 MSTORE PUSH1 0xFF PUSH1 0x40 PUSH1 0x0 KECCAK256 SLOAD AND DUP1 ISZERO PUSH2 0xB99 JUMPI JUMPDEST PUSH2 0xA36 SWAP1 PUSH2 0x39A2 JUMP JUMPDEST DUP2 DUP5 MSTORE PUSH1 0x4 DUP2 MSTORE PUSH2 0xA4C PUSH1 0x40 DUP6 KECCAK256 SLOAD ISZERO ISZERO PUSH2 0x3A3F JUMP JUMPDEST DUP2 DUP5 MSTORE PUSH1 0x5 DUP2 MSTORE PUSH1 0x40 DUP1 DUP6 KECCAK256 PUSH1 0x1 PUSH1 0x1 PUSH1 0xA0 SHL SUB SWAP1 SWAP5 AND PUSH1 0x0 DUP2 DUP2 MSTORE SWAP5 DUP4 MSTORE SWAP4 KECCAK256 SLOAD ISZERO PUSH2 0xB40 JUMPI DUP2 DUP5 MSTORE PUSH1 0x5 DUP2 MSTORE PUSH1 0x40 DUP5 KECCAK256 DUP4 PUSH1 0x0 MSTORE DUP2 MSTORE PUSH1 0xFF PUSH1 0x2 PUSH1 0x40 PUSH1 0x0 KECCAK256 ADD SLOAD AND PUSH2 0xADF JUMPI DUP2 DUP5 MSTORE PUSH1 0x5 DUP2 MSTORE PUSH1 0x40 DUP5 KECCAK256 SWAP1 DUP4 PUSH1 0x0 MSTORE MSTORE PUSH1 0x2 PUSH1 0x40 PUSH1 0x0 KECCAK256 ADD PUSH1 0x1 PUSH1 0xFF NOT DUP3 SLOAD AND OR SWAP1 SSTORE PUSH32 0xD8E2A0FB3631991DD34AC6AF97A04F3485326D9F70043BB29F54E66F0C5577C6 DUP4 DUP1 LOG3 DUP1 RETURN JUMPDEST PUSH1 0x84 SWAP1 PUSH1 0x40 MLOAD SWAP1 PUSH3 0x461BCD PUSH1 0xE5 SHL DUP3 MSTORE PUSH1 0x4 DUP3 ADD MSTORE PUSH1 0x34 PUSH1 0x24 DUP3 ADD MSTORE PUSH32 0x537175647943616D706169676E4D616E616765723A20736F6369616C20746173 PUSH1 0x44 DUP3 ADD MSTORE PUSH20 0x1ADCC8185B1C9958591E4818DBDB5C1B195D1959 PUSH1 0x62 SHL PUSH1 0x64 DUP3 ADD MSTORE REVERT JUMPDEST PUSH1 0x84 SWAP1 PUSH1 0x40 MLOAD SWAP1 PUSH3 0x461BCD PUSH1 0xE5 SHL DUP3 MSTORE PUSH1 0x4 DUP3 ADD MSTORE PUSH1 0x2C PUSH1 0x24 DUP3 ADD MSTORE PUSH32 0x537175647943616D706169676E4D616E616765723A2075736572206E6F742070 PUSH1 0x44 DUP3 ADD MSTORE PUSH12 0x617274696369706174696E67 PUSH1 0xA0 SHL PUSH1 0x64 DUP3 ADD MSTORE REVERT JUMPDEST POP PUSH1 0x0 DUP1 MLOAD PUSH1 0x20 PUSH2 0x3DA6 DUP4 CODECOPY DUP2 MLOAD SWAP2 MSTORE DUP5 MSTORE DUP4 DUP2 MSTORE PUSH1 0x40 DUP1 DUP6 KECCAK256 CALLER PUSH1 0x0 SWAP1 DUP2 MSTORE SWAP1 DUP4 MSTORE KECCAK256 SLOAD PUSH1 0xFF AND PUSH2 0xA2D JUMP JUMPDEST POP CALLVALUE PUSH2 0x5ED JUMPI PUSH1 0x20 DUP1 PUSH1 0x3 NOT CALLDATASIZE ADD SLT PUSH2 0x708 JUMPI PUSH1 0x4 CALLDATALOAD SWAP1 PUSH1 0x0 DUP1 MLOAD PUSH1 0x20 PUSH2 0x3D86 DUP4 CODECOPY DUP2 MLOAD SWAP2 MSTORE DUP4 MSTORE DUP3 DUP2 MSTORE PUSH1 0x40 DUP4 KECCAK256 CALLER PUSH1 0x0 MSTORE DUP2 MSTORE PUSH1 0xFF PUSH1 0x40 PUSH1 0x0 KECCAK256 SLOAD AND DUP1 ISZERO PUSH2 0xD54 JUMPI JUMPDEST PUSH2 0xC14 SWAP1 PUSH2 0x39A2 JUMP JUMPDEST DUP2 DUP4 MSTORE PUSH1 0x4 DUP2 MSTORE PUSH2 0xC2A PUSH1 0x40 DUP5 KECCAK256 SLOAD ISZERO ISZERO PUSH2 0x3A3F JUMP JUMPDEST DUP2 DUP4 MSTORE PUSH1 0x4 DUP2 MSTORE PUSH1 0x40 DUP4 KECCAK256 SWAP1 PUSH1 0xD DUP3 ADD SWAP1 DUP2 SLOAD SWAP1 PUSH1 0xFF DUP3 AND PUSH1 0x5 DUP2 LT ISZERO PUSH2 0xD40 JUMPI PUSH1 0x1 DUP2 EQ SWAP1 DUP2 ISZERO PUSH2 0xD35 JUMPI JUMPDEST POP ISZERO PUSH2 0xCE7 JUMPI PUSH1 0x9 DUP5 ADD SLOAD TIMESTAMP LT PUSH2 0xCA0 JUMPI POP PUSH1 0x3 SWAP1 PUSH1 0xFF NOT AND OR SWAP1 SSTORE PUSH1 0x11 TIMESTAMP SWAP2 ADD SSTORE PUSH32 0x5E6EB33A418DE5DBBC17F989F7AE362CDFBB1748C5D603137C767027A354EDBC DUP3 DUP1 LOG2 DUP1 RETURN JUMPDEST PUSH1 0x84 SWAP1 PUSH1 0x40 MLOAD SWAP1 PUSH3 0x461BCD PUSH1 0xE5 SHL DUP3 MSTORE PUSH1 0x4 DUP3 ADD MSTORE PUSH1 0x2C PUSH1 0x24 DUP3 ADD MSTORE PUSH1 0x0 DUP1 MLOAD PUSH1 0x20 PUSH2 0x3D66 DUP4 CODECOPY DUP2 MLOAD SWAP2 MSTORE PUSH1 0x44 DUP3 ADD MSTORE PUSH12 0x1BDD08195B991959081E595D PUSH1 0xA2 SHL PUSH1 0x64 DUP3 ADD MSTORE REVERT JUMPDEST PUSH1 0x84 SWAP1 PUSH1 0x40 MLOAD SWAP1 PUSH3 0x461BCD PUSH1 0xE5 SHL DUP3 MSTORE PUSH1 0x4 DUP3 ADD MSTORE PUSH1 0x33 PUSH1 0x24 DUP3 ADD MSTORE PUSH1 0x0 DUP1 MLOAD PUSH1 0x20 PUSH2 0x3D66 DUP4 CODECOPY DUP2 MLOAD SWAP2 MSTORE PUSH1 0x44 DUP3 ADD MSTORE PUSH19 0x1BDD081858DD1A5D99481BDC881C185D5CD959 PUSH1 0x6A SHL PUSH1 0x64 DUP3 ADD MSTORE REVERT JUMPDEST PUSH1 0x2 SWAP2 POP EQ CODESIZE PUSH2 0xC57 JUMP JUMPDEST PUSH4 0x4E487B71 PUSH1 0xE0 SHL DUP8 MSTORE PUSH1 0x21 PUSH1 0x4 MSTORE PUSH1 0x24 DUP8 REVERT JUMPDEST POP PUSH1 0x0 DUP1 MLOAD PUSH1 0x20 PUSH2 0x3DA6 DUP4 CODECOPY DUP2 MLOAD SWAP2 MSTORE DUP4 MSTORE DUP3 DUP2 MSTORE PUSH1 0x40 DUP1 DUP5 KECCAK256 CALLER PUSH1 0x0 SWAP1 DUP2 MSTORE SWAP1 DUP4 MSTORE KECCAK256 SLOAD PUSH1 0xFF AND PUSH2 0xC0B JUMP JUMPDEST POP CALLVALUE PUSH2 0x5ED JUMPI DUP1 PUSH1 0x3 NOT CALLDATASIZE ADD SLT PUSH2 0x5ED JUMPI PUSH1 0x20 SWAP1 PUSH1 0x40 MLOAD SWAP1 DUP2 MSTORE RETURN JUMPDEST POP CALLVALUE PUSH2 0x5ED JUMPI PUSH1 0x20 DUP1 PUSH1 0x3 NOT CALLDATASIZE ADD SLT PUSH2 0x708 JUMPI PUSH1 0x4 CALLDATALOAD SWAP1 PUSH1 0x0 DUP1 MLOAD PUSH1 0x20 PUSH2 0x3D86 DUP4 CODECOPY DUP2 MLOAD SWAP2 MSTORE DUP4 MSTORE DUP3 DUP2 MSTORE PUSH1 0x40 DUP4 KECCAK256 CALLER PUSH1 0x0 MSTORE DUP2 MSTORE PUSH1 0xFF PUSH1 0x40 PUSH1 0x0 KECCAK256 SLOAD AND DUP1 ISZERO PUSH2 0xF06 JUMPI JUMPDEST PUSH2 0xDEB SWAP1 PUSH2 0x39A2 JUMP JUMPDEST DUP2 DUP4 MSTORE PUSH1 0x4 DUP2 MSTORE PUSH2 0xE01 PUSH1 0x40 DUP5 KECCAK256 SLOAD ISZERO ISZERO PUSH2 0x3A3F JUMP JUMPDEST DUP2 DUP4 MSTORE PUSH1 0x4 DUP2 MSTORE PUSH1 0x40 DUP4 KECCAK256 SWAP1 PUSH1 0xD DUP3 ADD SWAP1 DUP2 SLOAD SWAP1 PUSH1 0xFF DUP3 AND PUSH1 0x5 DUP2 LT ISZERO PUSH2 0xD40 JUMPI PUSH1 0x2 SUB PUSH2 0xEC2 JUMPI PUSH1 0x9 DUP5 ADD SLOAD TIMESTAMP LT ISZERO PUSH2 0xE6D JUMPI POP PUSH1 0x1 SWAP1 PUSH1 0xFF NOT AND OR SWAP1 SSTORE PUSH1 0x11 TIMESTAMP SWAP2 ADD SSTORE PUSH32 0x25128B02D37802123547E1526AB020238ABF16BBC37A5BD0A918D5088B016E95 DUP3 DUP1 LOG2 DUP1 RETURN JUMPDEST PUSH1 0x84 SWAP1 PUSH1 0x40 MLOAD SWAP1 PUSH3 0x461BCD PUSH1 0xE5 SHL DUP3 MSTORE PUSH1 0x4 DUP3 ADD MSTORE PUSH1 0x28 PUSH1 0x24 DUP3 ADD MSTORE PUSH32 0x537175647943616D706169676E4D616E616765723A2063616D706169676E2068 PUSH1 0x44 DUP3 ADD MSTORE PUSH8 0x185CC8195B991959 PUSH1 0xC2 SHL PUSH1 0x64 DUP3 ADD MSTORE REVERT JUMPDEST PUSH1 0x84 SWAP1 PUSH1 0x40 MLOAD SWAP1 PUSH3 0x461BCD PUSH1 0xE5 SHL DUP3 MSTORE PUSH1 0x4 DUP3 ADD MSTORE PUSH1 0x29 PUSH1 0x24 DUP3 ADD MSTORE PUSH1 0x0 DUP1 MLOAD PUSH1 0x20 PUSH2 0x3D66 DUP4 CODECOPY DUP2 MLOAD SWAP2 MSTORE PUSH1 0x44 DUP3 ADD MSTORE PUSH9 0x1BDD081C185D5CD959 PUSH1 0xBA SHL PUSH1 0x64 DUP3 ADD MSTORE REVERT JUMPDEST POP PUSH1 0x0 DUP1 MLOAD PUSH1 0x20 PUSH2 0x3DA6 DUP4 CODECOPY DUP2 MLOAD SWAP2 MSTORE DUP4 MSTORE DUP3 DUP2 MSTORE PUSH1 0x40 DUP1 DUP5 KECCAK256 CALLER PUSH1 0x0 SWAP1 DUP2 MSTORE SWAP1 DUP4 MSTORE KECCAK256 SLOAD PUSH1 0xFF AND PUSH2 0xDE2 JUMP JUMPDEST POP CALLVALUE PUSH2 0x5ED JUMPI PUSH1 0x40 CALLDATASIZE PUSH1 0x3 NOT ADD SLT PUSH2 0x5ED JUMPI PUSH1 0x40 PUSH2 0xF4F PUSH2 0x3432 JUMP JUMPDEST SWAP2 PUSH1 0x4 CALLDATALOAD DUP2 MSTORE DUP1 PUSH1 0x20 MSTORE KECCAK256 SWAP1 PUSH1 0x1 DUP1 PUSH1 0xA0 SHL SUB AND PUSH1 0x0 MSTORE PUSH1 0x20 MSTORE PUSH1 0x20 PUSH1 0xFF PUSH1 0x40 PUSH1 0x0 KECCAK256 SLOAD AND PUSH1 0x40 MLOAD SWAP1 ISZERO ISZERO DUP2 MSTORE RETURN JUMPDEST POP CALLVALUE PUSH2 0x5ED JUMPI PUSH1 0x20 CALLDATASIZE PUSH1 0x3 NOT ADD SLT PUSH2 0x5ED JUMPI PUSH2 0xFBF PUSH1 0x40 PUSH2 0xFD3 SWAP3 PUSH1 0x4 CALLDATALOAD DUP1 DUP3 MSTORE PUSH1 0x4 PUSH1 0x20 MSTORE PUSH2 0xFB2 DUP4 DUP4 KECCAK256 SLOAD ISZERO ISZERO PUSH2 0x3A3F JUMP JUMPDEST DUP2 MSTORE PUSH1 0x6 PUSH1 0x20 MSTORE KECCAK256 PUSH2 0x3CAF JUMP JUMPDEST PUSH1 0x40 MLOAD SWAP2 DUP3 SWAP2 PUSH1 0x20 DUP4 MSTORE PUSH1 0x20 DUP4 ADD SWAP1 PUSH2 0x36C0 JUMP JUMPDEST SUB SWAP1 RETURN JUMPDEST POP CALLVALUE PUSH2 0x5ED JUMPI PUSH1 0x20 DUP1 PUSH1 0x3 NOT CALLDATASIZE ADD SLT PUSH2 0x708 JUMPI PUSH1 0x4 CALLDATALOAD PUSH1 0x0 DUP1 MLOAD PUSH1 0x20 PUSH2 0x3D86 DUP4 CODECOPY DUP2 MLOAD SWAP2 MSTORE DUP4 MSTORE DUP3 DUP3 MSTORE PUSH1 0x40 DUP4 KECCAK256 CALLER DUP5 MSTORE DUP3 MSTORE PUSH1 0xFF PUSH1 0x40 DUP5 KECCAK256 SLOAD AND DUP1 ISZERO PUSH2 0x1243 JUMPI JUMPDEST PUSH2 0x1022 SWAP1 PUSH2 0x39A2 JUMP JUMPDEST DUP1 DUP4 MSTORE PUSH1 0x4 DUP3 MSTORE PUSH2 0x1038 PUSH1 0x40 DUP5 KECCAK256 SLOAD ISZERO ISZERO PUSH2 0x3A3F JUMP JUMPDEST DUP1 DUP4 MSTORE PUSH1 0x4 DUP3 MSTORE PUSH2 0x1056 PUSH1 0xFF PUSH1 0xD PUSH1 0x40 DUP7 KECCAK256 ADD SLOAD PUSH1 0x8 SHR AND ISZERO PUSH2 0x3AED JUMP JUMPDEST DUP1 DUP4 MSTORE PUSH1 0x4 DUP3 MSTORE PUSH1 0x40 DUP4 KECCAK256 SWAP2 PUSH1 0xD DUP4 ADD SWAP3 PUSH1 0xFF DUP5 SLOAD AND PUSH1 0x5 DUP2 LT ISZERO PUSH2 0x5C7 JUMPI PUSH1 0x3 PUSH2 0x1081 SWAP2 EQ PUSH2 0x3B4D JUMP JUMPDEST PUSH1 0xC DUP2 ADD SLOAD ISZERO PUSH2 0x11EB JUMPI PUSH1 0x7 DUP2 ADD DUP1 SLOAD DUP1 ISZERO PUSH2 0x1196 JUMPI DUP7 SWAP1 PUSH32 0x0 PUSH1 0x1 PUSH1 0x1 PUSH1 0xA0 SHL SUB AND SWAP1 DUP2 EXTCODESIZE ISZERO PUSH2 0x1192 JUMPI PUSH1 0x40 MLOAD PUSH4 0x79CC679 PUSH1 0xE4 SHL DUP2 MSTORE ADDRESS PUSH1 0x4 DUP3 ADD MSTORE PUSH1 0x24 DUP2 ADD SWAP2 SWAP1 SWAP2 MSTORE SWAP2 SWAP1 DUP3 SWAP1 PUSH1 0x44 SWAP1 DUP3 SWAP1 DUP5 SWAP1 GAS CALL DUP1 ISZERO PUSH2 0x451 JUMPI PUSH2 0x1147 JUMPI JUMPDEST POP PUSH32 0x8BC81353CF6671D259D22783E39ED930583C86F3F4CF7E981298E6A872DFB15D SWAP4 SWAP5 PUSH2 0x100 PUSH2 0xFF00 NOT DUP3 SLOAD AND OR SWAP1 SSTORE SLOAD SWAP1 DUP2 PUSH1 0xE DUP3 ADD SSTORE PUSH1 0x11 TIMESTAMP SWAP2 ADD SSTORE PUSH1 0x40 MLOAD SWAP1 DUP2 MSTORE LOG2 DUP1 RETURN JUMPDEST PUSH1 0x1 PUSH1 0x1 PUSH1 0x40 SHL SUB DUP2 GT PUSH2 0x117E JUMPI PUSH1 0x40 MSTORE PUSH32 0x8BC81353CF6671D259D22783E39ED930583C86F3F4CF7E981298E6A872DFB15D PUSH2 0x10FE JUMP JUMPDEST PUSH4 0x4E487B71 PUSH1 0xE0 SHL DUP8 MSTORE PUSH1 0x41 PUSH1 0x4 MSTORE PUSH1 0x24 DUP8 REVERT JUMPDEST DUP3 DUP1 REVERT JUMPDEST PUSH1 0x40 MLOAD PUSH3 0x461BCD PUSH1 0xE5 SHL DUP2 MSTORE PUSH1 0x4 DUP2 ADD DUP6 SWAP1 MSTORE PUSH1 0x27 PUSH1 0x24 DUP3 ADD MSTORE PUSH32 0x537175647943616D706169676E4D616E616765723A206E6F20746F6B656E7320 PUSH1 0x44 DUP3 ADD MSTORE PUSH7 0x3A3790313AB937 PUSH1 0xC9 SHL PUSH1 0x64 DUP3 ADD MSTORE PUSH1 0x84 SWAP1 REVERT JUMPDEST PUSH1 0x40 MLOAD PUSH3 0x461BCD PUSH1 0xE5 SHL DUP2 MSTORE PUSH1 0x4 DUP2 ADD DUP4 SWAP1 MSTORE PUSH1 0x2A PUSH1 0x24 DUP3 ADD MSTORE PUSH32 0x537175647943616D706169676E4D616E616765723A2077696E6E657273206E6F PUSH1 0x44 DUP3 ADD MSTORE PUSH10 0x1D081CD95B1958DD1959 PUSH1 0xB2 SHL PUSH1 0x64 DUP3 ADD MSTORE PUSH1 0x84 SWAP1 REVERT JUMPDEST POP PUSH1 0x0 DUP1 MLOAD PUSH1 0x20 PUSH2 0x3DA6 DUP4 CODECOPY DUP2 MLOAD SWAP2 MSTORE DUP4 MSTORE DUP3 DUP3 MSTORE PUSH1 0x40 DUP1 DUP5 KECCAK256 CALLER DUP6 MSTORE DUP4 MSTORE DUP4 KECCAK256 SLOAD PUSH1 0xFF AND PUSH2 0x1019 JUMP JUMPDEST POP CALLVALUE PUSH2 0x5ED JUMPI DUP1 PUSH1 0x3 NOT CALLDATASIZE ADD SLT PUSH2 0x5ED JUMPI PUSH1 0x20 PUSH1 0x40 MLOAD PUSH1 0x0 DUP1 MLOAD PUSH1 0x20 PUSH2 0x3DA6 DUP4 CODECOPY DUP2 MLOAD SWAP2 MSTORE DUP2 MSTORE RETURN JUMPDEST POP CALLVALUE PUSH2 0x5ED JUMPI PUSH1 0x20 CALLDATASIZE PUSH1 0x3 NOT ADD SLT PUSH2 0x5ED JUMPI PUSH2 0x12B0 PUSH2 0x3448 JUMP JUMPDEST PUSH2 0x12B8 PUSH2 0x36FD JUMP JUMPDEST PUSH1 0x1 PUSH1 0x1 PUSH1 0xA0 SHL SUB DUP2 AND SWAP1 DUP2 ISZERO PUSH2 0x12FA JUMPI PUSH2 0x12D2 SWAP1 PUSH2 0x377B JUMP JUMPDEST POP PUSH32 0x44D6D25963F097AD14F29F06854A01F575648A1EF82F30E562CCD3889717E339 DUP3 DUP1 LOG2 DUP1 RETURN JUMPDEST PUSH1 0x40 MLOAD PUSH3 0x461BCD PUSH1 0xE5 SHL DUP2 MSTORE PUSH1 0x20 PUSH1 0x4 DUP3 ADD MSTORE PUSH1 0x2B PUSH1 0x24 DUP3 ADD MSTORE PUSH32 0x537175647943616D706169676E4D616E616765723A20696E76616C6964206164 PUSH1 0x44 DUP3 ADD MSTORE PUSH11 0x6D696E2061646472657373 PUSH1 0xA8 SHL PUSH1 0x64 DUP3 ADD MSTORE PUSH1 0x84 SWAP1 REVERT JUMPDEST POP CALLVALUE PUSH2 0x5ED JUMPI DUP1 PUSH1 0x3 NOT CALLDATASIZE ADD SLT PUSH2 0x5ED JUMPI PUSH1 0x20 PUSH1 0x3 SLOAD PUSH1 0x40 MLOAD SWAP1 DUP2 MSTORE RETURN JUMPDEST POP CALLVALUE PUSH2 0x5ED JUMPI PUSH1 0x40 CALLDATASIZE PUSH1 0x3 NOT ADD SLT PUSH2 0x5ED JUMPI PUSH1 0x1 PUSH1 0x40 PUSH1 0x20 SWAP3 PUSH1 0x4 CALLDATALOAD PUSH2 0x1395 PUSH2 0x3432 JUMP JUMPDEST SWAP1 DUP1 DUP4 MSTORE PUSH1 0x4 DUP7 MSTORE PUSH2 0x13AB DUP5 DUP5 KECCAK256 SLOAD ISZERO ISZERO PUSH2 0x3A3F JUMP JUMPDEST DUP3 MSTORE PUSH1 0x5 DUP6 MSTORE DUP3 DUP3 KECCAK256 SWAP1 DUP5 DUP1 PUSH1 0xA0 SHL SUB AND DUP3 MSTORE DUP5 MSTORE KECCAK256 ADD SLOAD PUSH1 0x40 MLOAD SWAP1 DUP2 MSTORE RETURN JUMPDEST POP CALLVALUE PUSH2 0x5ED JUMPI PUSH1 0x20 SWAP1 PUSH2 0x13DD CALLDATASIZE PUSH2 0x367C JUMP JUMPDEST SWAP1 DUP3 MSTORE PUSH1 0x7 DUP4 MSTORE PUSH1 0x40 DUP3 KECCAK256 SWAP1 DUP3 MSTORE DUP3 MSTORE PUSH1 0x40 PUSH1 0x1 DUP1 PUSH1 0xA0 SHL SUB SWAP2 KECCAK256 SLOAD AND PUSH1 0x40 MLOAD SWAP1 DUP2 MSTORE RETURN JUMPDEST POP CALLVALUE PUSH2 0x5ED JUMPI DUP1 PUSH1 0x3 NOT CALLDATASIZE ADD SLT PUSH2 0x5ED JUMPI PUSH1 0x20 PUSH1 0xFF PUSH1 0x2 SLOAD AND PUSH1 0x40 MLOAD SWAP1 ISZERO ISZERO DUP2 MSTORE RETURN JUMPDEST POP CALLVALUE PUSH2 0x5ED JUMPI PUSH1 0x20 CALLDATASIZE PUSH1 0x3 NOT ADD SLT PUSH2 0x5ED JUMPI DUP1 PUSH2 0x240 PUSH1 0x40 MLOAD PUSH2 0x1447 DUP2 PUSH2 0x345E JUMP JUMPDEST DUP3 DUP2 MSTORE PUSH1 0x60 PUSH1 0x20 DUP3 ADD MSTORE PUSH1 0x60 PUSH1 0x40 DUP3 ADD MSTORE PUSH1 0x60 DUP1 DUP3 ADD MSTORE DUP3 PUSH1 0x80 DUP3 ADD MSTORE DUP3 PUSH1 0xA0 DUP3 ADD MSTORE DUP3 PUSH1 0xC0 DUP3 ADD MSTORE DUP3 PUSH1 0xE0 DUP3 ADD MSTORE DUP3 PUSH2 0x100 DUP3 ADD MSTORE DUP3 PUSH2 0x120 DUP3 ADD MSTORE DUP3 PUSH2 0x140 DUP3 ADD MSTORE PUSH1 0x60 PUSH2 0x160 DUP3 ADD MSTORE PUSH1 0x60 PUSH2 0x180 DUP3 ADD MSTORE DUP3 PUSH2 0x1A0 DUP3 ADD MSTORE DUP3 PUSH2 0x1C0 DUP3 ADD MSTORE DUP3 PUSH2 0x1E0 DUP3 ADD MSTORE DUP3 PUSH2 0x200 DUP3 ADD MSTORE DUP3 PUSH2 0x220 DUP3 ADD MSTORE ADD MSTORE PUSH1 0x4 CALLDATALOAD DUP1 DUP3 MSTORE PUSH1 0x4 PUSH1 0x20 MSTORE PUSH2 0x14DA PUSH1 0x40 DUP4 KECCAK256 SLOAD ISZERO ISZERO PUSH2 0x3A3F JUMP JUMPDEST DUP2 MSTORE PUSH1 0x4 PUSH1 0x20 MSTORE PUSH1 0x40 DUP2 KECCAK256 PUSH1 0x40 MLOAD SWAP1 PUSH2 0x14F2 DUP3 PUSH2 0x345E JUMP JUMPDEST DUP1 SLOAD DUP3 MSTORE PUSH2 0x1502 PUSH1 0x1 DUP3 ADD PUSH2 0x3573 JUMP JUMPDEST PUSH1 0x20 DUP4 ADD MSTORE PUSH2 0x1513 PUSH1 0x2 DUP3 ADD PUSH2 0x3573 JUMP JUMPDEST PUSH1 0x40 DUP4 ADD MSTORE PUSH2 0x1524 PUSH1 0x3 DUP3 ADD PUSH2 0x3573 JUMP JUMPDEST PUSH1 0x60 DUP4 ADD MSTORE PUSH1 0x4 DUP2 ADD SLOAD PUSH1 0x80 DUP4 ADD MSTORE PUSH1 0x5 DUP2 ADD SLOAD PUSH1 0xA0 DUP4 ADD MSTORE PUSH1 0x6 DUP2 ADD SLOAD PUSH1 0xC0 DUP4 ADD MSTORE PUSH1 0x7 DUP2 ADD SLOAD PUSH1 0xE0 DUP4 ADD MSTORE PUSH1 0x8 DUP2 ADD SLOAD PUSH2 0x100 DUP4 ADD MSTORE PUSH1 0x9 DUP2 ADD SLOAD PUSH2 0x120 DUP4 ADD MSTORE PUSH1 0xA DUP2 ADD SLOAD PUSH2 0x140 DUP4 ADD MSTORE PUSH1 0xB DUP2 ADD SLOAD PUSH2 0x1580 DUP2 PUSH2 0x3522 JUMP JUMPDEST SWAP1 PUSH2 0x158E PUSH1 0x40 MLOAD SWAP3 DUP4 PUSH2 0x34AB JUMP JUMPDEST DUP1 DUP3 MSTORE PUSH1 0x20 DUP3 ADD PUSH1 0xB DUP5 ADD DUP7 MSTORE PUSH1 0x20 DUP7 KECCAK256 DUP7 SWAP2 JUMPDEST DUP4 DUP4 LT PUSH2 0x17AC JUMPI POP POP POP POP PUSH2 0x160 DUP4 ADD MSTORE PUSH2 0x15BF PUSH1 0xC DUP3 ADD PUSH2 0x3CAF JUMP JUMPDEST PUSH2 0x180 DUP4 ADD MSTORE PUSH1 0xD DUP2 ADD SLOAD PUSH1 0x5 PUSH1 0xFF DUP3 AND LT ISZERO PUSH2 0x1798 JUMPI SWAP1 PUSH1 0xFF DUP3 DUP2 PUSH1 0x11 SWAP5 AND PUSH2 0x1A0 DUP7 ADD MSTORE PUSH1 0x8 SHR AND ISZERO ISZERO PUSH2 0x1C0 DUP5 ADD MSTORE PUSH1 0xE DUP2 ADD SLOAD PUSH2 0x1E0 DUP5 ADD MSTORE PUSH1 0xF DUP2 ADD SLOAD PUSH2 0x200 DUP5 ADD MSTORE PUSH1 0x10 DUP2 ADD SLOAD PUSH2 0x220 DUP5 ADD MSTORE ADD SLOAD PUSH2 0x240 DUP3 ADD MSTORE PUSH1 0x40 MLOAD SWAP1 PUSH1 0x20 DUP3 MSTORE DUP1 MLOAD PUSH1 0x20 DUP4 ADD MSTORE PUSH2 0x1676 PUSH2 0x1660 PUSH2 0x164A PUSH1 0x20 DUP5 ADD MLOAD PUSH2 0x260 PUSH1 0x40 DUP8 ADD MSTORE PUSH2 0x280 DUP7 ADD SWAP1 PUSH2 0x3619 JUMP JUMPDEST PUSH1 0x40 DUP5 ADD MLOAD DUP6 DUP3 SUB PUSH1 0x1F NOT ADD PUSH1 0x60 DUP8 ADD MSTORE PUSH2 0x3619 JUMP JUMPDEST PUSH1 0x60 DUP4 ADD MLOAD DUP5 DUP3 SUB PUSH1 0x1F NOT ADD PUSH1 0x80 DUP7 ADD MSTORE PUSH2 0x3619 JUMP JUMPDEST SWAP3 PUSH1 0x80 DUP3 ADD MLOAD PUSH1 0xA0 DUP5 ADD MSTORE PUSH1 0xA0 DUP3 ADD MLOAD PUSH1 0xC0 DUP5 ADD MSTORE PUSH1 0xC0 DUP3 ADD MLOAD PUSH1 0xE0 DUP5 ADD MSTORE PUSH1 0xE0 DUP3 ADD MLOAD PUSH2 0x100 DUP5 ADD MSTORE PUSH2 0x100 DUP3 ADD MLOAD PUSH2 0x120 DUP5 ADD MSTORE PUSH2 0x120 DUP3 ADD MLOAD PUSH2 0x140 DUP5 ADD MSTORE PUSH2 0x140 DUP3 ADD MLOAD PUSH2 0x160 DUP5 ADD MSTORE PUSH2 0x160 DUP3 ADD MLOAD SWAP4 PUSH1 0x1F NOT DUP5 DUP3 SUB ADD PUSH2 0x180 DUP6 ADD MSTORE DUP5 MLOAD SWAP1 DUP2 DUP2 MSTORE PUSH1 0x20 DUP2 ADD PUSH1 0x20 DUP1 DUP5 PUSH1 0x5 SHL DUP5 ADD ADD SWAP8 ADD SWAP4 SWAP2 JUMPDEST DUP4 DUP4 LT PUSH2 0x176B JUMPI DUP7 DUP1 DUP8 PUSH2 0x240 PUSH2 0x171A DUP13 PUSH2 0x180 DUP5 ADD MLOAD PUSH1 0x1F NOT DUP7 DUP4 SUB ADD PUSH2 0x1A0 DUP8 ADD MSTORE PUSH2 0x36C0 JUMP JUMPDEST SWAP2 PUSH2 0x172F PUSH2 0x1A0 DUP3 ADD MLOAD PUSH2 0x1C0 DUP7 ADD SWAP1 PUSH2 0x3659 JUMP JUMPDEST PUSH2 0x1C0 DUP2 ADD MLOAD ISZERO ISZERO PUSH2 0x1E0 DUP6 ADD MSTORE PUSH2 0x1E0 DUP2 ADD MLOAD PUSH2 0x200 DUP6 ADD MSTORE PUSH2 0x200 DUP2 ADD MLOAD PUSH2 0x220 DUP6 ADD MSTORE PUSH2 0x220 DUP2 ADD MLOAD DUP3 DUP6 ADD MSTORE ADD MLOAD PUSH2 0x260 DUP4 ADD MSTORE SUB SWAP1 RETURN JUMPDEST SWAP1 SWAP2 SWAP3 SWAP4 SWAP7 PUSH1 0x20 DUP1 PUSH2 0x1789 PUSH1 0x1 SWAP4 PUSH1 0x1F NOT DUP7 DUP3 SUB ADD DUP8 MSTORE DUP12 MLOAD PUSH2 0x3619 JUMP JUMPDEST SWAP10 ADD SWAP4 ADD SWAP4 ADD SWAP2 SWAP4 SWAP3 SWAP1 PUSH2 0x16F1 JUMP JUMPDEST PUSH4 0x4E487B71 PUSH1 0xE0 SHL DUP5 MSTORE PUSH1 0x21 PUSH1 0x4 MSTORE PUSH1 0x24 DUP5 REVERT JUMPDEST PUSH1 0x1 PUSH1 0x20 DUP2 SWAP3 PUSH2 0x17BB DUP6 PUSH2 0x3573 JUMP JUMPDEST DUP2 MSTORE ADD SWAP3 ADD SWAP3 ADD SWAP2 SWAP1 PUSH2 0x15A2 JUMP JUMPDEST POP CALLVALUE PUSH2 0x5ED JUMPI DUP1 PUSH1 0x3 NOT CALLDATASIZE ADD SLT PUSH2 0x5ED JUMPI PUSH1 0x0 DUP1 MLOAD PUSH1 0x20 PUSH2 0x3DA6 DUP4 CODECOPY DUP2 MLOAD SWAP2 MSTORE DUP2 MSTORE DUP1 PUSH1 0x20 MSTORE PUSH1 0x40 DUP2 KECCAK256 CALLER DUP3 MSTORE PUSH1 0x20 MSTORE PUSH2 0x1809 PUSH1 0xFF PUSH1 0x40 DUP4 KECCAK256 SLOAD AND PUSH2 0x3D07 JUMP JUMPDEST PUSH1 0x2 SLOAD PUSH1 0xFF DUP2 AND PUSH2 0x184C JUMPI PUSH1 0x1 SWAP1 PUSH1 0xFF NOT AND OR PUSH1 0x2 SSTORE PUSH32 0x62E78CEA01BEE320CD4E420270B5EA74000D11B0C9F74754EBDBFC544B05A258 PUSH1 0x20 PUSH1 0x40 MLOAD CALLER DUP2 MSTORE LOG1 DUP1 RETURN JUMPDEST PUSH1 0x40 MLOAD PUSH4 0xD93C0665 PUSH1 0xE0 SHL DUP2 MSTORE PUSH1 0x4 SWAP1 REVERT JUMPDEST POP CALLVALUE PUSH2 0x5ED JUMPI DUP1 PUSH1 0x3 NOT CALLDATASIZE ADD SLT PUSH2 0x5ED JUMPI PUSH1 0x40 MLOAD PUSH32 0x0 PUSH1 0x1 PUSH1 0x1 PUSH1 0xA0 SHL SUB AND DUP2 MSTORE PUSH1 0x20 SWAP1 RETURN JUMPDEST POP CALLVALUE PUSH2 0x5ED JUMPI PUSH1 0x20 SWAP1 DUP2 PUSH1 0x3 NOT CALLDATASIZE ADD SLT PUSH2 0x5ED JUMPI PUSH1 0x5 SWAP2 PUSH1 0x4 CALLDATALOAD DUP4 DUP2 LT ISZERO SWAP2 DUP3 PUSH2 0x1A36 JUMPI SWAP2 SWAP3 DUP5 SWAP2 DUP2 SWAP1 PUSH1 0x3 SLOAD PUSH1 0x1 SWAP5 DUP6 JUMPDEST DUP3 DUP2 GT ISZERO PUSH2 0x19CB JUMPI POP PUSH2 0x1900 PUSH2 0x18EA DUP6 PUSH2 0x3522 JUMP JUMPDEST SWAP5 PUSH2 0x18F8 PUSH1 0x40 MLOAD SWAP7 DUP8 PUSH2 0x34AB JUMP JUMPDEST DUP1 DUP7 MSTORE PUSH2 0x3522 JUMP JUMPDEST DUP5 DUP9 ADD SWAP9 SWAP1 PUSH1 0x1F NOT ADD CALLDATASIZE DUP11 CALLDATACOPY DUP6 SWAP2 DUP8 JUMPDEST DUP5 DUP2 GT ISZERO PUSH2 0x1954 JUMPI POP POP POP POP POP POP PUSH1 0x40 MLOAD SWAP4 DUP1 DUP6 ADD SWAP2 DUP2 DUP7 MSTORE MLOAD DUP1 SWAP3 MSTORE PUSH1 0x40 DUP6 ADD SWAP6 SWAP3 JUMPDEST DUP3 DUP2 LT PUSH2 0x1941 JUMPI DUP6 DUP8 SUB DUP7 RETURN JUMPDEST DUP4 MLOAD DUP8 MSTORE SWAP6 DUP2 ADD SWAP6 SWAP3 DUP2 ADD SWAP3 DUP5 ADD PUSH2 0x1934 JUMP JUMPDEST DUP1 DUP9 SWAP11 SWAP8 SWAP9 SWAP12 SWAP10 SWAP12 MSTORE PUSH1 0x4 DUP8 MSTORE DUP3 PUSH1 0xFF PUSH1 0xD PUSH1 0x40 DUP14 KECCAK256 ADD SLOAD AND SWAP1 PUSH2 0x19B7 JUMPI DUP3 DUP2 LT ISZERO PUSH2 0x19B7 JUMPI DUP7 EQ PUSH2 0x1996 JUMPI JUMPDEST PUSH2 0x198A SWAP1 PUSH2 0x3A03 JUMP JUMPDEST SWAP10 SWAP8 SWAP10 SWAP9 SWAP7 SWAP6 SWAP9 PUSH2 0x1910 JUMP JUMPDEST SWAP3 PUSH2 0x19AF DUP2 DUP6 PUSH2 0x19A9 PUSH2 0x198A SWAP5 DUP13 PUSH2 0x3BE0 JUMP JUMPDEST MSTORE PUSH2 0x3A03 JUMP JUMPDEST SWAP4 SWAP1 POP PUSH2 0x1981 JUMP JUMPDEST PUSH4 0x4E487B71 PUSH1 0xE0 SHL DUP12 MSTORE PUSH1 0x21 PUSH1 0x4 MSTORE PUSH1 0x24 DUP12 REVERT JUMPDEST DUP1 DUP7 SWAP9 SWAP6 SWAP7 SWAP10 SWAP8 SWAP10 MSTORE PUSH1 0x4 DUP6 MSTORE DUP7 PUSH1 0xFF PUSH1 0xD PUSH1 0x40 DUP12 KECCAK256 ADD SLOAD AND SWAP1 PUSH2 0x1A22 JUMPI DUP3 DUP2 LT ISZERO PUSH2 0x1A22 JUMPI DUP5 EQ PUSH2 0x1A0D JUMPI JUMPDEST PUSH2 0x1A01 SWAP1 PUSH2 0x3A03 JUMP JUMPDEST SWAP8 SWAP6 SWAP8 SWAP7 SWAP5 SWAP4 SWAP7 PUSH2 0x18D5 JUMP JUMPDEST SWAP5 PUSH2 0x1A1A PUSH2 0x1A01 SWAP2 PUSH2 0x3A03 JUMP JUMPDEST SWAP6 SWAP1 POP PUSH2 0x19F8 JUMP JUMPDEST PUSH4 0x4E487B71 PUSH1 0xE0 SHL DUP10 MSTORE PUSH1 0x21 PUSH1 0x4 MSTORE PUSH1 0x24 DUP10 REVERT JUMPDEST DUP4 DUP1 REVERT JUMPDEST POP CALLVALUE PUSH2 0x5ED JUMPI DUP1 PUSH1 0x3 NOT CALLDATASIZE ADD SLT PUSH2 0x5ED JUMPI PUSH1 0x0 DUP1 MLOAD PUSH1 0x20 PUSH2 0x3DA6 DUP4 CODECOPY DUP2 MLOAD SWAP2 MSTORE DUP2 MSTORE DUP1 PUSH1 0x20 MSTORE PUSH1 0x40 DUP2 KECCAK256 CALLER DUP3 MSTORE PUSH1 0x20 MSTORE PUSH2 0x1A7A PUSH1 0xFF PUSH1 0x40 DUP4 KECCAK256 SLOAD AND PUSH2 0x3D07 JUMP JUMPDEST PUSH1 0x2 SLOAD PUSH1 0xFF DUP2 AND ISZERO PUSH2 0x1ABA JUMPI PUSH1 0xFF NOT AND PUSH1 0x2 SSTORE PUSH32 0x5DB9EE0A495BF2E6FF9C91A7834C1BA4FDD244A5E8AA4E537BD38AEAE4B073AA PUSH1 0x20 PUSH1 0x40 MLOAD CALLER DUP2 MSTORE LOG1 DUP1 RETURN JUMPDEST PUSH1 0x40 MLOAD PUSH4 0x8DFC202B PUSH1 0xE0 SHL DUP2 MSTORE PUSH1 0x4 SWAP1 REVERT JUMPDEST POP CALLVALUE PUSH2 0x5ED JUMPI PUSH1 0x20 DUP1 PUSH1 0x3 NOT CALLDATASIZE ADD SLT PUSH2 0x708 JUMPI PUSH1 0x4 CALLDATALOAD PUSH1 0x0 DUP1 MLOAD PUSH1 0x20 PUSH2 0x3D86 DUP4 CODECOPY DUP2 MLOAD SWAP2 MSTORE DUP4 MSTORE DUP3 DUP3 MSTORE PUSH1 0x40 DUP4 KECCAK256 CALLER DUP5 MSTORE DUP3 MSTORE PUSH1 0xFF PUSH1 0x40 DUP5 KECCAK256 SLOAD AND DUP1 ISZERO PUSH2 0x1C01 JUMPI JUMPDEST PUSH2 0x1B17 SWAP1 PUSH2 0x39A2 JUMP JUMPDEST DUP1 DUP4 MSTORE PUSH1 0x4 DUP3 MSTORE PUSH2 0x1B2D PUSH1 0x40 DUP5 KECCAK256 SLOAD ISZERO ISZERO PUSH2 0x3A3F JUMP JUMPDEST DUP3 MSTORE PUSH1 0x4 DUP2 MSTORE PUSH1 0x40 DUP3 KECCAK256 SWAP1 PUSH1 0xD DUP3 ADD SWAP1 DUP2 SLOAD SWAP1 PUSH1 0xFF DUP3 AND PUSH1 0x5 DUP2 LT ISZERO PUSH2 0x5C7 JUMPI PUSH2 0x1BBC JUMPI PUSH1 0x8 DUP5 ADD SLOAD TIMESTAMP LT PUSH2 0x1B70 JUMPI POP PUSH1 0x1 SWAP1 PUSH1 0xFF NOT AND OR SWAP1 SSTORE PUSH1 0x11 TIMESTAMP SWAP2 ADD SSTORE DUP1 RETURN JUMPDEST PUSH1 0x84 SWAP1 PUSH1 0x40 MLOAD SWAP1 PUSH3 0x461BCD PUSH1 0xE5 SHL DUP3 MSTORE PUSH1 0x4 DUP3 ADD MSTORE PUSH1 0x31 PUSH1 0x24 DUP3 ADD MSTORE PUSH1 0x0 DUP1 MLOAD PUSH1 0x20 PUSH2 0x3D66 DUP4 CODECOPY DUP2 MLOAD SWAP2 MSTORE PUSH1 0x44 DUP3 ADD MSTORE PUSH17 0x1BDD081C9958591E481D1BC81CDD185C9D PUSH1 0x7A SHL PUSH1 0x64 DUP3 ADD MSTORE REVERT JUMPDEST PUSH1 0x84 SWAP1 PUSH1 0x40 MLOAD SWAP1 PUSH3 0x461BCD PUSH1 0xE5 SHL DUP3 MSTORE PUSH1 0x4 DUP3 ADD MSTORE PUSH1 0x2A PUSH1 0x24 DUP3 ADD MSTORE PUSH1 0x0 DUP1 MLOAD PUSH1 0x20 PUSH2 0x3D66 DUP4 CODECOPY DUP2 MLOAD SWAP2 MSTORE PUSH1 0x44 DUP3 ADD MSTORE PUSH10 0x6F742070656E64696E67 PUSH1 0xB0 SHL PUSH1 0x64 DUP3 ADD MSTORE REVERT JUMPDEST POP PUSH1 0x0 DUP1 MLOAD PUSH1 0x20 PUSH2 0x3DA6 DUP4 CODECOPY DUP2 MLOAD SWAP2 MSTORE DUP4 MSTORE DUP3 DUP3 MSTORE PUSH1 0x40 DUP1 DUP5 KECCAK256 CALLER DUP6 MSTORE DUP4 MSTORE DUP4 KECCAK256 SLOAD PUSH1 0xFF AND PUSH2 0x1B0E JUMP JUMPDEST POP CALLVALUE PUSH2 0x5ED JUMPI PUSH1 0x20 DUP1 PUSH1 0x3 NOT CALLDATASIZE ADD SLT PUSH2 0x708 JUMPI PUSH1 0x4 CALLDATALOAD SWAP1 PUSH1 0x0 DUP1 MLOAD PUSH1 0x20 PUSH2 0x3D86 DUP4 CODECOPY DUP2 MLOAD SWAP2 MSTORE DUP4 MSTORE DUP3 DUP2 MSTORE PUSH1 0x40 DUP4 KECCAK256 CALLER DUP5 MSTORE DUP2 MSTORE PUSH1 0xFF PUSH1 0x40 DUP5 KECCAK256 SLOAD AND DUP1 ISZERO PUSH2 0x1E4C JUMPI JUMPDEST PUSH2 0x1C77 SWAP1 PUSH2 0x39A2 JUMP JUMPDEST DUP2 DUP4 MSTORE PUSH1 0x4 DUP2 MSTORE PUSH2 0x1C8D PUSH1 0x40 DUP5 KECCAK256 SLOAD ISZERO ISZERO PUSH2 0x3A3F JUMP JUMPDEST DUP2 DUP4 MSTORE PUSH1 0x4 DUP2 MSTORE PUSH2 0x1CAB PUSH1 0xFF PUSH1 0xD PUSH1 0x40 DUP7 KECCAK256 ADD SLOAD PUSH1 0x8 SHR AND ISZERO PUSH2 0x3AED JUMP JUMPDEST DUP2 DUP4 MSTORE PUSH1 0x4 DUP2 MSTORE PUSH1 0x40 DUP4 KECCAK256 PUSH1 0xFF PUSH1 0xD DUP3 ADD SLOAD AND PUSH1 0x5 DUP2 LT ISZERO PUSH2 0x1E38 JUMPI SWAP1 PUSH2 0x1CD6 PUSH1 0x3 PUSH1 0xA SWAP4 EQ PUSH2 0x3B4D JUMP JUMPDEST ADD SLOAD SWAP1 DUP2 ISZERO PUSH2 0x1DE6 JUMPI PUSH1 0x40 MLOAD PUSH4 0x5D3B1D3 PUSH1 0xE4 SHL DUP2 MSTORE PUSH32 0x0 PUSH1 0x4 DUP3 ADD MSTORE PUSH32 0x0 PUSH1 0x1 PUSH1 0x1 PUSH1 0x40 SHL SUB AND PUSH1 0x24 DUP3 ADD MSTORE PUSH1 0x3 PUSH1 0x44 DUP3 ADD MSTORE PUSH3 0x186A0 PUSH1 0x64 DUP3 ADD MSTORE PUSH4 0xFFFFFFFF SWAP3 SWAP1 SWAP3 AND PUSH1 0x84 DUP4 ADD MSTORE DUP1 DUP3 PUSH1 0xA4 DUP2 DUP8 PUSH32 0x0 PUSH1 0x1 PUSH1 0x1 PUSH1 0xA0 SHL SUB AND GAS CALL DUP1 ISZERO PUSH2 0x1DDB JUMPI DUP5 SWAP1 PUSH2 0x1DAD JUMPI JUMPDEST PUSH1 0x8 SWAP3 POP DUP5 MSTORE MSTORE PUSH1 0x40 DUP3 KECCAK256 SSTORE DUP1 RETURN JUMPDEST POP DUP1 DUP3 DUP2 RETURNDATASIZE DUP4 GT PUSH2 0x1DD4 JUMPI JUMPDEST PUSH2 0x1DC3 DUP2 DUP4 PUSH2 0x34AB JUMP JUMPDEST DUP2 ADD SUB SLT PUSH2 0x1A36 JUMPI PUSH1 0x8 SWAP2 MLOAD PUSH2 0x1D9E JUMP JUMPDEST POP RETURNDATASIZE PUSH2 0x1DB9 JUMP JUMPDEST PUSH1 0x40 MLOAD RETURNDATASIZE DUP7 DUP3 RETURNDATACOPY RETURNDATASIZE SWAP1 REVERT JUMPDEST PUSH1 0x84 SWAP1 PUSH1 0x40 MLOAD SWAP1 PUSH3 0x461BCD PUSH1 0xE5 SHL DUP3 MSTORE PUSH1 0x4 DUP3 ADD MSTORE PUSH1 0x25 PUSH1 0x24 DUP3 ADD MSTORE PUSH32 0x537175647943616D706169676E4D616E616765723A206E6F2070617274696369 PUSH1 0x44 DUP3 ADD MSTORE PUSH5 0x70616E7473 PUSH1 0xD8 SHL PUSH1 0x64 DUP3 ADD MSTORE REVERT JUMPDEST PUSH4 0x4E487B71 PUSH1 0xE0 SHL DUP6 MSTORE PUSH1 0x21 PUSH1 0x4 MSTORE PUSH1 0x24 DUP6 REVERT JUMPDEST POP PUSH1 0x0 DUP1 MLOAD PUSH1 0x20 PUSH2 0x3DA6 DUP4 CODECOPY DUP2 MLOAD SWAP2 MSTORE DUP4 MSTORE DUP3 DUP2 MSTORE PUSH1 0x40 DUP1 DUP5 KECCAK256 CALLER DUP6 MSTORE DUP3 MSTORE DUP4 KECCAK256 SLOAD PUSH1 0xFF AND PUSH2 0x1C6E JUMP JUMPDEST POP CALLVALUE PUSH2 0x5ED JUMPI PUSH1 0x40 CALLDATASIZE PUSH1 0x3 NOT ADD SLT PUSH2 0x5ED JUMPI PUSH2 0x1E90 PUSH2 0x3432 JUMP JUMPDEST CALLER PUSH1 0x1 PUSH1 0x1 PUSH1 0xA0 SHL SUB DUP3 AND SUB PUSH2 0x1EAC JUMPI PUSH2 0x7C3 SWAP1 PUSH1 0x4 CALLDATALOAD PUSH2 0x392D JUMP JUMPDEST PUSH1 0x40 MLOAD PUSH4 0x334BD919 PUSH1 0xE1 SHL DUP2 MSTORE PUSH1 0x4 SWAP1 REVERT JUMPDEST POP CALLVALUE PUSH2 0x5ED JUMPI PUSH1 0x40 CALLDATASIZE PUSH1 0x3 NOT ADD SLT PUSH2 0x5ED JUMPI PUSH1 0xC0 SWAP1 PUSH1 0x40 PUSH1 0x4 CALLDATALOAD SWAP2 PUSH2 0x1EE1 PUSH2 0x3432 JUMP JUMPDEST DUP3 MLOAD SWAP4 PUSH2 0x1EED DUP6 PUSH2 0x3490 JUMP JUMPDEST DUP3 DUP6 MSTORE DUP3 PUSH1 0xA0 PUSH1 0x20 SWAP7 DUP3 DUP9 DUP3 ADD MSTORE DUP3 DUP8 DUP3 ADD MSTORE DUP3 PUSH1 0x60 DUP3 ADD MSTORE DUP3 PUSH1 0x80 DUP3 ADD MSTORE ADD MSTORE DUP1 DUP4 MSTORE PUSH1 0x4 DUP6 MSTORE PUSH2 0x1F23 DUP5 DUP5 KECCAK256 SLOAD ISZERO ISZERO PUSH2 0x3A3F JUMP JUMPDEST DUP3 MSTORE PUSH1 0x5 DUP5 MSTORE DUP3 DUP3 KECCAK256 PUSH1 0x1 PUSH1 0x1 PUSH1 0xA0 SHL SUB SWAP1 SWAP2 AND DUP3 MSTORE DUP4 MSTORE KECCAK256 PUSH1 0x40 MLOAD SWAP1 PUSH2 0x1F49 DUP3 PUSH2 0x3490 JUMP JUMPDEST DUP1 SLOAD SWAP3 DUP4 DUP4 MSTORE PUSH1 0x1 DUP3 ADD SLOAD DUP2 DUP5 ADD SWAP1 DUP2 MSTORE PUSH1 0x2 DUP4 ADD SLOAD SWAP2 PUSH1 0x40 DUP6 ADD SWAP2 PUSH1 0xFF DUP5 AND ISZERO ISZERO DUP4 MSTORE PUSH1 0xFF PUSH1 0x60 DUP8 ADD SWAP5 PUSH1 0x8 SHR AND ISZERO ISZERO DUP5 MSTORE PUSH1 0xA0 PUSH1 0x4 PUSH1 0x3 DUP8 ADD SLOAD SWAP7 PUSH1 0x80 DUP10 ADD SWAP8 DUP9 MSTORE ADD SLOAD SWAP7 ADD SWAP6 DUP7 MSTORE PUSH1 0x40 MLOAD SWAP7 DUP8 MSTORE MLOAD SWAP1 DUP7 ADD MSTORE MLOAD ISZERO ISZERO PUSH1 0x40 DUP6 ADD MSTORE MLOAD ISZERO ISZERO PUSH1 0x60 DUP5 ADD MSTORE MLOAD PUSH1 0x80 DUP4 ADD MSTORE MLOAD PUSH1 0xA0 DUP3 ADD MSTORE RETURN JUMPDEST POP CALLVALUE PUSH2 0x5ED JUMPI PUSH2 0x1FCC CALLDATASIZE PUSH2 0x367C JUMP JUMPDEST SWAP2 SWAP1 DUP2 MSTORE PUSH1 0x6 PUSH1 0x20 MSTORE PUSH1 0x40 DUP2 KECCAK256 SWAP1 DUP2 SLOAD DUP4 LT ISZERO PUSH2 0x5ED JUMPI PUSH1 0x20 PUSH2 0x1FEF DUP5 DUP5 PUSH2 0x3692 JUMP JUMPDEST SWAP1 SLOAD PUSH1 0x40 MLOAD PUSH1 0x3 SWAP3 SWAP1 SWAP3 SHL SHR PUSH1 0x1 PUSH1 0x1 PUSH1 0xA0 SHL SUB AND DUP2 MSTORE RETURN JUMPDEST POP CALLVALUE PUSH2 0x5ED JUMPI PUSH1 0x40 CALLDATASIZE PUSH1 0x3 NOT ADD SLT PUSH2 0x5ED JUMPI PUSH2 0x7C3 PUSH1 0x4 CALLDATALOAD PUSH2 0x2028 PUSH2 0x3432 JUMP JUMPDEST SWAP1 DUP1 DUP5 MSTORE DUP4 PUSH1 0x20 MSTORE PUSH2 0x2040 PUSH1 0x1 PUSH1 0x40 DUP7 KECCAK256 ADD SLOAD PUSH2 0x3755 JUMP JUMPDEST PUSH2 0x381B JUMP JUMPDEST POP CALLVALUE PUSH2 0x5ED JUMPI PUSH1 0x20 CALLDATASIZE PUSH1 0x3 NOT ADD SLT PUSH2 0x5ED JUMPI PUSH1 0x1 PUSH1 0x40 PUSH1 0x20 SWAP3 PUSH1 0x4 CALLDATALOAD DUP2 MSTORE DUP1 DUP5 MSTORE KECCAK256 ADD SLOAD PUSH1 0x40 MLOAD SWAP1 DUP2 MSTORE RETURN JUMPDEST POP CALLVALUE PUSH2 0x5ED JUMPI PUSH1 0x40 CALLDATASIZE PUSH1 0x3 NOT ADD SLT PUSH2 0x5ED JUMPI PUSH1 0x24 CALLDATALOAD SWAP1 PUSH1 0x1 PUSH1 0x1 PUSH1 0x40 SHL SUB DUP3 GT PUSH2 0x5ED JUMPI CALLDATASIZE PUSH1 0x23 DUP4 ADD SLT ISZERO PUSH2 0x5ED JUMPI DUP2 PUSH1 0x4 ADD CALLDATALOAD SWAP2 PUSH2 0x20AF DUP4 PUSH2 0x3522 JUMP JUMPDEST SWAP3 PUSH2 0x20BD PUSH1 0x40 MLOAD SWAP5 DUP6 PUSH2 0x34AB JUMP JUMPDEST DUP1 DUP5 MSTORE PUSH1 0x24 PUSH1 0x20 DUP6 ADD SWAP2 PUSH1 0x5 SHL DUP4 ADD ADD SWAP2 CALLDATASIZE DUP4 GT PUSH2 0x1A36 JUMPI PUSH1 0x24 ADD SWAP1 JUMPDEST DUP3 DUP3 LT PUSH2 0x24FC JUMPI POP POP PUSH32 0x0 PUSH1 0x1 PUSH1 0x1 PUSH1 0xA0 SHL SUB AND SWAP1 POP CALLER DUP2 SWAP1 SUB PUSH2 0x24DE JUMPI POP PUSH1 0x4 CALLDATALOAD DUP2 MSTORE PUSH1 0x8 PUSH1 0x20 MSTORE PUSH1 0x40 DUP2 KECCAK256 SLOAD SWAP1 DUP2 ISZERO PUSH2 0x2488 JUMPI DUP2 DUP2 MSTORE PUSH1 0x4 PUSH1 0x20 MSTORE PUSH1 0x40 DUP2 KECCAK256 PUSH1 0xFF PUSH1 0xD DUP3 ADD SLOAD AND PUSH1 0x5 DUP2 LT ISZERO PUSH2 0x2474 JUMPI PUSH1 0x3 PUSH2 0x2157 SWAP2 EQ PUSH2 0x3B4D JUMP JUMPDEST DUP3 DUP3 MSTORE PUSH1 0x4 PUSH1 0x20 MSTORE PUSH1 0x40 DUP3 KECCAK256 SWAP3 DUP3 SWAP4 DUP4 DUP5 SWAP1 PUSH1 0xA DUP4 ADD SLOAD SWAP2 JUMPDEST DUP3 DUP2 LT PUSH2 0x23FF JUMPI POP POP POP DUP5 ISZERO PUSH2 0x23A3 JUMPI PUSH1 0xB ADD SLOAD SWAP4 PUSH2 0x218E DUP6 PUSH2 0x3522 JUMP JUMPDEST SWAP6 PUSH2 0x219C PUSH1 0x40 MLOAD SWAP8 DUP9 PUSH2 0x34AB JUMP JUMPDEST DUP6 DUP8 MSTORE PUSH1 0x1F NOT PUSH2 0x21AB DUP8 PUSH2 0x3522 JUMP JUMPDEST ADD CALLDATASIZE PUSH1 0x20 DUP10 ADD CALLDATACOPY DUP5 SWAP4 DUP6 JUMPDEST DUP3 MLOAD DUP2 LT DUP1 PUSH2 0x239A JUMPI JUMPDEST ISZERO PUSH2 0x22B0 JUMPI PUSH2 0x21E2 PUSH2 0x21DC DUP6 PUSH2 0x21D6 DUP5 DUP8 PUSH2 0x3BE0 JUMP JUMPDEST MLOAD PUSH2 0x3B9B JUMP JUMPDEST DUP7 PUSH2 0x3BF4 JUMP JUMPDEST DUP8 DUP9 JUMPDEST DUP9 DUP2 LT PUSH2 0x227B JUMPI JUMPDEST POP ISZERO PUSH2 0x2203 JUMPI JUMPDEST POP PUSH2 0x21FE SWAP1 PUSH2 0x3A03 JUMP JUMPDEST PUSH2 0x21B6 JUMP JUMPDEST SWAP1 SWAP6 PUSH2 0x21FE SWAP2 PUSH2 0x2274 SWAP2 SWAP1 PUSH1 0x1 PUSH1 0x1 PUSH1 0xA0 SHL SUB DUP2 AND PUSH2 0x2222 DUP4 DUP15 PUSH2 0x3BE0 JUMP JUMPDEST MSTORE DUP8 DUP11 MSTORE PUSH1 0x5 PUSH1 0x20 DUP2 DUP2 MSTORE PUSH1 0x40 DUP1 DUP14 KECCAK256 PUSH1 0x1 PUSH1 0x1 PUSH1 0xA0 SHL SUB SWAP5 SWAP1 SWAP5 AND DUP1 DUP15 MSTORE SWAP4 DUP3 MSTORE DUP1 DUP14 KECCAK256 PUSH1 0x2 ADD DUP1 SLOAD PUSH2 0xFF00 NOT AND PUSH2 0x100 OR SWAP1 SSTORE DUP11 DUP14 MSTORE SWAP2 DUP2 MSTORE DUP2 DUP13 KECCAK256 SWAP3 DUP13 MSTORE SWAP2 SWAP1 SWAP2 MSTORE DUP10 KECCAK256 PUSH1 0x3 ADD DUP2 SWAP1 SSTORE PUSH2 0x3A03 JUMP JUMPDEST SWAP6 SWAP1 PUSH2 0x21F4 JUMP JUMPDEST PUSH1 0x1 PUSH1 0x1 PUSH1 0xA0 SHL SUB DUP4 DUP2 AND SWAP1 PUSH2 0x2291 DUP4 DUP16 PUSH2 0x3BE0 JUMP JUMPDEST MLOAD AND EQ PUSH2 0x22A6 JUMPI PUSH2 0x22A1 SWAP1 PUSH2 0x3A03 JUMP JUMPDEST PUSH2 0x21E5 JUMP JUMPDEST POP POP PUSH1 0x1 CODESIZE PUSH2 0x21ED JUMP JUMPDEST DUP7 DUP6 DUP11 DUP5 PUSH1 0xC DUP2 ADD DUP3 MLOAD SWAP1 PUSH1 0x1 PUSH1 0x1 PUSH1 0x40 SHL SUB DUP3 GT PUSH2 0x2386 JUMPI PUSH1 0x1 PUSH1 0x40 SHL DUP3 GT PUSH2 0x2386 JUMPI DUP1 SLOAD DUP3 DUP3 SSTORE DUP1 DUP4 LT PUSH2 0x236B JUMPI JUMPDEST POP PUSH1 0x20 DUP5 ADD SWAP1 DUP7 MSTORE PUSH1 0x20 DUP7 KECCAK256 DUP7 JUMPDEST DUP4 DUP2 LT PUSH2 0x234E JUMPI DUP8 DUP8 PUSH32 0xB7330AB5EFF0061DCC2CE398CDCBA65229F5E42D18318346E19C17B1CC1EBEC6 PUSH2 0x2340 DUP10 DUP10 PUSH1 0x4 CALLDATALOAD PUSH1 0xF DUP3 ADD SSTORE PUSH1 0x11 TIMESTAMP SWAP2 ADD SSTORE PUSH1 0x40 MLOAD SWAP2 DUP3 SWAP2 PUSH1 0x40 DUP4 MSTORE PUSH1 0x40 DUP4 ADD SWAP1 PUSH2 0x36C0 JUMP JUMPDEST PUSH1 0x4 CALLDATALOAD PUSH1 0x20 DUP4 ADD MSTORE SUB SWAP1 LOG2 DUP1 RETURN JUMPDEST DUP3 MLOAD PUSH1 0x1 PUSH1 0x1 PUSH1 0xA0 SHL SUB AND DUP2 DUP4 ADD SSTORE PUSH1 0x20 SWAP1 SWAP3 ADD SWAP2 PUSH1 0x1 ADD PUSH2 0x22EF JUMP JUMPDEST DUP2 DUP8 MSTORE PUSH1 0x20 DUP8 KECCAK256 PUSH2 0x2380 SWAP2 DUP2 ADD SWAP1 DUP5 ADD PUSH2 0x3A28 JUMP JUMPDEST DUP7 PUSH2 0x22E1 JUMP JUMPDEST PUSH4 0x4E487B71 PUSH1 0xE0 SHL DUP7 MSTORE PUSH1 0x41 PUSH1 0x4 MSTORE PUSH1 0x24 DUP7 REVERT JUMPDEST POP DUP8 DUP7 LT PUSH2 0x21C0 JUMP JUMPDEST PUSH1 0x40 MLOAD PUSH3 0x461BCD PUSH1 0xE5 SHL DUP2 MSTORE PUSH1 0x20 PUSH1 0x4 DUP3 ADD MSTORE PUSH1 0x2E PUSH1 0x24 DUP3 ADD MSTORE PUSH32 0x537175647943616D706169676E4D616E616765723A206E6F20656C696769626C PUSH1 0x44 DUP3 ADD MSTORE PUSH14 0x65207061727469636970616E7473 PUSH1 0x90 SHL PUSH1 0x64 DUP3 ADD MSTORE PUSH1 0x84 SWAP1 REVERT JUMPDEST DUP5 DUP8 MSTORE PUSH1 0x7 PUSH1 0x20 MSTORE PUSH1 0x40 DUP8 KECCAK256 DUP2 DUP9 MSTORE PUSH1 0x20 MSTORE PUSH1 0x1 DUP1 PUSH1 0xA0 SHL SUB PUSH1 0x40 DUP9 KECCAK256 SLOAD AND DUP6 DUP9 MSTORE PUSH1 0x5 PUSH1 0x20 MSTORE PUSH1 0x40 DUP9 KECCAK256 SWAP1 DUP9 MSTORE PUSH1 0x20 MSTORE PUSH1 0x40 DUP8 KECCAK256 PUSH1 0xFF PUSH1 0x2 DUP3 ADD SLOAD AND PUSH2 0x2450 JUMPI JUMPDEST POP PUSH2 0x244B SWAP1 PUSH2 0x3A03 JUMP JUMPDEST PUSH2 0x2170 JUMP JUMPDEST PUSH2 0x2467 PUSH2 0x244B SWAP3 SWAP4 SWAP10 PUSH1 0x1 PUSH2 0x246D SWAP4 ADD SLOAD SWAP1 PUSH2 0x3BBB JUMP JUMPDEST SWAP9 PUSH2 0x3A03 JUMP JUMPDEST SWAP2 SWAP1 PUSH2 0x2441 JUMP JUMPDEST PUSH4 0x4E487B71 PUSH1 0xE0 SHL DUP4 MSTORE PUSH1 0x21 PUSH1 0x4 MSTORE PUSH1 0x24 DUP4 REVERT JUMPDEST PUSH1 0x40 MLOAD PUSH3 0x461BCD PUSH1 0xE5 SHL DUP2 MSTORE PUSH1 0x20 PUSH1 0x4 DUP3 ADD MSTORE PUSH1 0x28 PUSH1 0x24 DUP3 ADD MSTORE PUSH32 0x537175647943616D706169676E4D616E616765723A20696E76616C6964207265 PUSH1 0x44 DUP3 ADD MSTORE PUSH8 0x1C5D595CDD081251 PUSH1 0xC2 SHL PUSH1 0x64 DUP3 ADD MSTORE PUSH1 0x84 SWAP1 REVERT JUMPDEST PUSH1 0x44 SWAP1 PUSH1 0x40 MLOAD SWAP1 PUSH4 0x73E64FD PUSH1 0xE2 SHL DUP3 MSTORE CALLER PUSH1 0x4 DUP4 ADD MSTORE PUSH1 0x24 DUP3 ADD MSTORE REVERT JUMPDEST DUP2 CALLDATALOAD DUP2 MSTORE PUSH1 0x20 SWAP2 DUP3 ADD SWAP2 ADD PUSH2 0x20DA JUMP JUMPDEST POP CALLVALUE PUSH2 0x5ED JUMPI PUSH1 0x20 CALLDATASIZE PUSH1 0x3 NOT ADD SLT PUSH2 0x5ED JUMPI PUSH1 0x40 PUSH1 0x20 SWAP2 PUSH1 0x4 CALLDATALOAD DUP2 MSTORE PUSH1 0x8 DUP4 MSTORE KECCAK256 SLOAD PUSH1 0x40 MLOAD SWAP1 DUP2 MSTORE RETURN JUMPDEST POP CALLVALUE PUSH2 0x5ED JUMPI PUSH1 0x20 CALLDATASIZE PUSH1 0x3 NOT ADD SLT PUSH2 0x5ED JUMPI PUSH2 0x2550 PUSH2 0x3448 JUMP JUMPDEST PUSH2 0x2558 PUSH2 0x36FD JUMP JUMPDEST PUSH1 0x1 PUSH1 0x1 PUSH1 0xA0 SHL SUB DUP2 AND SWAP1 CALLER DUP3 EQ PUSH2 0x259B JUMPI PUSH2 0x2573 SWAP1 PUSH2 0x3894 JUMP JUMPDEST POP PUSH32 0xA3B62BC36326052D97EA62D63C3D60308ED4C3EA8AC079DD8499F1E9C4F80C0F DUP3 DUP1 LOG2 DUP1 RETURN JUMPDEST PUSH1 0x40 MLOAD PUSH3 0x461BCD PUSH1 0xE5 SHL DUP2 MSTORE PUSH1 0x20 PUSH1 0x4 DUP3 ADD MSTORE PUSH1 0x28 PUSH1 0x24 DUP3 ADD MSTORE PUSH32 0x537175647943616D706169676E4D616E616765723A2063616E6E6F742072656D PUSH1 0x44 DUP3 ADD MSTORE PUSH8 0x37BB329039B2B633 PUSH1 0xC1 SHL PUSH1 0x64 DUP3 ADD MSTORE PUSH1 0x84 SWAP1 REVERT JUMPDEST POP CALLVALUE PUSH2 0x5ED JUMPI PUSH1 0x20 CALLDATASIZE PUSH1 0x3 NOT ADD SLT PUSH2 0x5ED JUMPI PUSH1 0x4 DUP1 CALLDATALOAD DUP3 MSTORE PUSH1 0x20 MSTORE PUSH1 0x40 SWAP1 KECCAK256 DUP1 SLOAD PUSH2 0x261E PUSH1 0x1 DUP4 ADD PUSH2 0x3573 JUMP JUMPDEST SWAP2 PUSH2 0x262B PUSH1 0x2 DUP3 ADD PUSH2 0x3573 JUMP JUMPDEST SWAP3 PUSH2 0x2638 PUSH1 0x3 DUP4 ADD PUSH2 0x3573 JUMP JUMPDEST SWAP4 PUSH1 0x4 DUP4 ADD SLOAD SWAP5 PUSH1 0x5 DUP5 ADD SLOAD PUSH1 0x6 DUP6 ADD SLOAD PUSH1 0x7 DUP7 ADD SLOAD PUSH1 0x8 DUP8 ADD SLOAD SWAP1 PUSH1 0x9 DUP9 ADD SLOAD SWAP3 PUSH1 0xA DUP10 ADD SLOAD SWAP5 PUSH1 0xD DUP11 ADD SLOAD SWAP7 PUSH1 0xE DUP12 ADD SLOAD SWAP9 PUSH1 0xF DUP13 ADD SLOAD SWAP11 PUSH1 0x10 DUP14 ADD SLOAD SWAP13 PUSH1 0x11 ADD SLOAD SWAP14 PUSH1 0x40 MLOAD DUP1 PUSH1 0x80 MSTORE MSTORE PUSH2 0x220 DUP1 PUSH1 0x80 MLOAD PUSH1 0x20 ADD MSTORE PUSH1 0x80 MLOAD ADD PUSH2 0x269D SWAP2 PUSH2 0x3619 JUMP JUMPDEST PUSH1 0x80 MLOAD DUP1 DUP3 SUB SWAP1 PUSH1 0x40 ADD MSTORE PUSH2 0x26B1 SWAP2 PUSH2 0x3619 JUMP JUMPDEST PUSH1 0x80 MLOAD DUP1 DUP3 SUB SWAP1 PUSH1 0x60 ADD MSTORE PUSH2 0x26C5 SWAP2 PUSH2 0x3619 JUMP JUMPDEST SWAP12 PUSH1 0x80 MLOAD PUSH1 0x80 ADD MSTORE PUSH1 0x80 MLOAD PUSH1 0xA0 ADD MSTORE PUSH1 0x80 MLOAD PUSH1 0xC0 ADD MSTORE PUSH1 0x80 MLOAD PUSH1 0xE0 ADD MSTORE PUSH1 0x80 MLOAD PUSH2 0x100 ADD MSTORE PUSH1 0x80 MLOAD PUSH2 0x120 ADD MSTORE PUSH1 0x80 MLOAD PUSH2 0x140 ADD MSTORE PUSH1 0x80 MLOAD PUSH2 0x160 ADD PUSH1 0xFF DUP3 AND SWAP1 PUSH2 0x270F SWAP2 PUSH2 0x3659 JUMP JUMPDEST PUSH1 0x8 SHR PUSH1 0xFF AND ISZERO ISZERO PUSH1 0x80 MLOAD PUSH2 0x180 ADD MSTORE PUSH1 0x80 MLOAD PUSH2 0x1A0 ADD MSTORE PUSH1 0x80 MLOAD PUSH2 0x1C0 ADD MSTORE PUSH1 0x80 MLOAD PUSH2 0x1E0 ADD MSTORE PUSH1 0x80 MLOAD PUSH2 0x200 ADD MSTORE PUSH1 0x80 MLOAD DUP1 SWAP2 SUB SWAP1 RETURN JUMPDEST POP CALLVALUE PUSH2 0x5ED JUMPI PUSH2 0x120 CALLDATASIZE PUSH1 0x3 NOT ADD SLT PUSH2 0x5ED JUMPI PUSH1 0x4 CALLDATALOAD PUSH1 0x1 PUSH1 0x1 PUSH1 0x40 SHL SUB DUP2 GT PUSH2 0x708 JUMPI PUSH2 0x277A SWAP1 CALLDATASIZE SWAP1 PUSH1 0x4 ADD PUSH2 0x34CC JUMP JUMPDEST SWAP1 PUSH1 0x24 CALLDATALOAD PUSH1 0x1 PUSH1 0x1 PUSH1 0x40 SHL SUB DUP2 GT PUSH2 0x708 JUMPI PUSH2 0x279A SWAP1 CALLDATASIZE SWAP1 PUSH1 0x4 ADD PUSH2 0x34CC JUMP JUMPDEST SWAP1 PUSH1 0x44 CALLDATALOAD PUSH1 0x1 PUSH1 0x1 PUSH1 0x40 SHL SUB DUP2 GT PUSH2 0x708 JUMPI PUSH2 0x27BA SWAP1 CALLDATASIZE SWAP1 PUSH1 0x4 ADD PUSH2 0x34CC JUMP JUMPDEST SWAP2 PUSH1 0x1 PUSH1 0x1 PUSH1 0x40 SHL SUB PUSH2 0x104 CALLDATALOAD GT PUSH2 0x708 JUMPI CALLDATASIZE PUSH1 0x23 PUSH2 0x104 CALLDATALOAD ADD SLT ISZERO PUSH2 0x708 JUMPI PUSH2 0x104 CALLDATALOAD PUSH1 0x4 ADD CALLDATALOAD SWAP3 PUSH2 0x27EC DUP5 PUSH2 0x3522 JUMP JUMPDEST SWAP4 PUSH2 0x27FA PUSH1 0x40 MLOAD SWAP6 DUP7 PUSH2 0x34AB JUMP JUMPDEST DUP1 DUP6 MSTORE PUSH1 0x20 DUP6 ADD SWAP1 CALLDATASIZE PUSH1 0x24 DUP3 PUSH1 0x5 SHL PUSH2 0x104 CALLDATALOAD ADD ADD GT PUSH2 0x3357 JUMPI PUSH1 0x24 PUSH2 0x104 CALLDATALOAD ADD SWAP2 JUMPDEST PUSH1 0x24 DUP3 PUSH1 0x5 SHL PUSH2 0x104 CALLDATALOAD ADD ADD DUP4 LT PUSH2 0x331F JUMPI POP POP POP PUSH1 0x0 DUP1 MLOAD PUSH1 0x20 PUSH2 0x3D86 DUP4 CODECOPY DUP2 MLOAD SWAP2 MSTORE DUP4 MSTORE DUP3 PUSH1 0x20 MSTORE PUSH1 0x40 DUP4 KECCAK256 CALLER DUP5 MSTORE PUSH1 0x20 MSTORE PUSH1 0xFF PUSH1 0x40 DUP5 KECCAK256 SLOAD AND DUP1 ISZERO PUSH2 0x32F2 JUMPI JUMPDEST PUSH2 0x2869 SWAP1 PUSH2 0x39A2 JUMP JUMPDEST DUP5 MLOAD ISZERO PUSH2 0x329A JUMPI PUSH1 0x64 CALLDATALOAD ISZERO PUSH2 0x3237 JUMPI PUSH1 0x64 CALLDATALOAD PUSH1 0x84 CALLDATALOAD GT ISZERO PUSH2 0x31CC JUMPI PUSH1 0xA4 CALLDATALOAD ISZERO PUSH2 0x3161 JUMPI TIMESTAMP PUSH1 0xC4 CALLDATALOAD GT ISZERO PUSH2 0x30FD JUMPI PUSH1 0xC4 CALLDATALOAD PUSH1 0xE4 CALLDATALOAD GT ISZERO PUSH2 0x3092 JUMPI DUP4 MLOAD ISZERO PUSH2 0x3032 JUMPI PUSH2 0x28B4 PUSH1 0x3 SLOAD PUSH2 0x3A03 JUMP JUMPDEST SWAP4 DUP5 PUSH1 0x3 SSTORE PUSH1 0x40 MLOAD SWAP2 DUP3 PUSH1 0x20 DUP2 ADD LT PUSH1 0x1 PUSH1 0x1 PUSH1 0x40 SHL SUB PUSH1 0x20 DUP6 ADD GT OR PUSH2 0x301E JUMPI PUSH1 0x20 DUP4 ADD PUSH1 0x40 MSTORE DUP5 DUP4 MSTORE PUSH1 0x40 MLOAD SWAP4 PUSH2 0x28EC DUP6 PUSH2 0x345E JUMP JUMPDEST DUP7 DUP6 MSTORE DUP8 PUSH1 0x20 DUP7 ADD MSTORE PUSH1 0x40 DUP6 ADD MSTORE PUSH1 0x60 DUP5 ADD MSTORE PUSH1 0x64 CALLDATALOAD PUSH1 0x80 DUP5 ADD MSTORE PUSH1 0x84 CALLDATALOAD PUSH1 0xA0 DUP5 ADD MSTORE PUSH1 0xA4 CALLDATALOAD PUSH1 0xC0 DUP5 ADD MSTORE DUP4 PUSH1 0xE0 DUP5 ADD MSTORE PUSH1 0xC4 CALLDATALOAD PUSH2 0x100 DUP5 ADD MSTORE PUSH1 0xE4 CALLDATALOAD PUSH2 0x120 DUP5 ADD MSTORE DUP4 PUSH2 0x140 DUP5 ADD MSTORE PUSH2 0x160 DUP4 ADD MSTORE PUSH2 0x180 DUP3 ADD MSTORE DUP2 PUSH2 0x1A0 DUP3 ADD MSTORE DUP2 PUSH2 0x1C0 DUP3 ADD MSTORE DUP2 PUSH2 0x1E0 DUP3 ADD MSTORE DUP2 PUSH2 0x200 DUP3 ADD MSTORE TIMESTAMP PUSH2 0x220 DUP3 ADD MSTORE TIMESTAMP PUSH2 0x240 DUP3 ADD MSTORE DUP3 DUP3 MSTORE PUSH1 0x4 PUSH1 0x20 MSTORE PUSH1 0x40 DUP3 KECCAK256 SWAP2 DUP2 MLOAD DUP4 SSTORE PUSH1 0x20 DUP3 ADD MLOAD DUP1 MLOAD SWAP1 PUSH1 0x1 PUSH1 0x1 PUSH1 0x40 SHL SUB DUP3 GT PUSH2 0x2C75 JUMPI DUP2 SWAP1 PUSH2 0x29A2 PUSH1 0x1 DUP8 ADD SLOAD PUSH2 0x3539 JUMP JUMPDEST PUSH1 0x1F DUP2 GT PUSH2 0x2FEB JUMPI JUMPDEST POP PUSH1 0x20 SWAP1 PUSH1 0x1F DUP4 GT PUSH1 0x1 EQ PUSH2 0x2F7C JUMPI DUP5 SWAP3 PUSH2 0x2F71 JUMPI JUMPDEST POP POP DUP2 PUSH1 0x1 SHL SWAP2 PUSH1 0x0 NOT SWAP1 PUSH1 0x3 SHL SHR NOT AND OR PUSH1 0x1 DUP5 ADD SSTORE JUMPDEST PUSH1 0x40 DUP3 ADD MLOAD DUP1 MLOAD SWAP1 PUSH1 0x1 PUSH1 0x1 PUSH1 0x40 SHL SUB DUP3 GT PUSH2 0x2C75 JUMPI DUP2 SWAP1 PUSH2 0x29FE PUSH1 0x2 DUP8 ADD SLOAD PUSH2 0x3539 JUMP JUMPDEST PUSH1 0x1F DUP2 GT PUSH2 0x2F3E JUMPI JUMPDEST POP PUSH1 0x20 SWAP1 PUSH1 0x1F DUP4 GT PUSH1 0x1 EQ PUSH2 0x2ECF JUMPI DUP5 SWAP3 PUSH2 0x2EC4 JUMPI JUMPDEST POP POP DUP2 PUSH1 0x1 SHL SWAP2 PUSH1 0x0 NOT SWAP1 PUSH1 0x3 SHL SHR NOT AND OR PUSH1 0x2 DUP5 ADD SSTORE JUMPDEST PUSH1 0x60 DUP3 ADD MLOAD DUP1 MLOAD SWAP1 PUSH1 0x1 PUSH1 0x1 PUSH1 0x40 SHL SUB DUP3 GT PUSH2 0x2C75 JUMPI DUP2 SWAP1 PUSH2 0x2A5A PUSH1 0x3 DUP8 ADD SLOAD PUSH2 0x3539 JUMP JUMPDEST PUSH1 0x1F DUP2 GT PUSH2 0x2E91 JUMPI JUMPDEST POP PUSH1 0x20 SWAP1 PUSH1 0x1F DUP4 GT PUSH1 0x1 EQ PUSH2 0x2E22 JUMPI DUP5 SWAP3 PUSH2 0x2E17 JUMPI JUMPDEST POP POP DUP2 PUSH1 0x1 SHL SWAP2 PUSH1 0x0 NOT SWAP1 PUSH1 0x3 SHL SHR NOT AND OR PUSH1 0x3 DUP5 ADD SSTORE JUMPDEST PUSH1 0x80 DUP3 ADD MLOAD PUSH1 0x4 DUP5 ADD SSTORE PUSH1 0xA0 DUP3 ADD MLOAD PUSH1 0x5 DUP5 ADD SSTORE PUSH1 0xC0 DUP3 ADD MLOAD PUSH1 0x6 DUP5 ADD SSTORE PUSH1 0xE0 DUP3 ADD MLOAD PUSH1 0x7 DUP5 ADD SSTORE PUSH2 0x100 DUP3 ADD MLOAD PUSH1 0x8 DUP5 ADD SSTORE PUSH2 0x120 DUP3 ADD MLOAD PUSH1 0x9 DUP5 ADD SSTORE PUSH2 0x140 DUP3 ADD MLOAD PUSH1 0xA DUP5 ADD SSTORE PUSH2 0x160 DUP3 ADD MLOAD DUP1 MLOAD SWAP1 PUSH1 0x1 PUSH1 0x40 SHL DUP3 GT PUSH2 0x2C75 JUMPI PUSH1 0xB DUP6 ADD SLOAD DUP3 PUSH1 0xB DUP8 ADD SSTORE DUP1 DUP4 LT PUSH2 0x2DA3 JUMPI JUMPDEST POP PUSH1 0x20 ADD PUSH1 0xB DUP6 ADD DUP4 MSTORE PUSH1 0x20 DUP4 KECCAK256 DUP4 SWAP2 JUMPDEST DUP4 DUP4 LT PUSH2 0x2C89 JUMPI POP POP POP POP PUSH2 0x180 DUP3 ADD MLOAD DUP1 MLOAD SWAP1 PUSH1 0x1 PUSH1 0x1 PUSH1 0x40 SHL SUB DUP3 GT PUSH2 0x2C75 JUMPI PUSH1 0x1 PUSH1 0x40 SHL DUP3 GT PUSH2 0x2C75 JUMPI PUSH1 0x20 PUSH1 0xC DUP7 ADD SWAP2 DUP3 SLOAD DUP5 DUP5 SSTORE DUP1 DUP6 LT PUSH2 0x2C5B JUMPI JUMPDEST POP ADD SWAP1 DUP4 MSTORE PUSH1 0x20 DUP4 KECCAK256 DUP4 JUMPDEST DUP4 DUP2 LT PUSH2 0x2C3E JUMPI POP POP POP POP PUSH2 0x1A0 DUP3 ADD MLOAD PUSH1 0xD DUP5 ADD SWAP2 PUSH1 0x5 DUP3 LT ISZERO PUSH2 0x2C2A JUMPI POP SWAP5 DUP5 SWAP4 PUSH1 0x11 PUSH2 0x240 PUSH32 0x3A495479E40F7BA7D7F6395EDF32B142DC0C2DC52EE9BC5AAE0DD2541321074C SWAP6 DUP6 PUSH1 0x20 SWAP11 PUSH2 0x2C08 SWAP8 SLOAD PUSH1 0xFF PUSH2 0xFF00 PUSH2 0x1C0 DUP7 ADD MLOAD ISZERO ISZERO PUSH1 0x8 SHL AND SWAP3 AND SWAP1 PUSH2 0xFFFF NOT AND OR OR SWAP1 SSTORE PUSH2 0x1E0 DUP2 ADD MLOAD PUSH1 0xE DUP6 ADD SSTORE PUSH2 0x200 DUP2 ADD MLOAD PUSH1 0xF DUP6 ADD SSTORE PUSH2 0x220 DUP2 ADD MLOAD PUSH1 0x10 DUP6 ADD SSTORE ADD MLOAD SWAP2 ADD SSTORE PUSH1 0x40 MLOAD SWAP2 DUP3 SWAP2 PUSH1 0x80 DUP4 MSTORE PUSH1 0x80 DUP4 ADD SWAP1 PUSH2 0x3619 JUMP JUMPDEST PUSH1 0xC4 CALLDATALOAD DUP8 DUP4 ADD MSTORE PUSH1 0xE4 CALLDATALOAD PUSH1 0x40 DUP4 ADD MSTORE PUSH1 0xA4 CALLDATALOAD PUSH1 0x60 DUP4 ADD MSTORE SUB SWAP1 LOG2 PUSH1 0x40 MLOAD SWAP1 DUP2 MSTORE RETURN JUMPDEST PUSH4 0x4E487B71 PUSH1 0xE0 SHL DUP2 MSTORE PUSH1 0x21 PUSH1 0x4 MSTORE PUSH1 0x24 SWAP1 REVERT JUMPDEST DUP3 MLOAD PUSH1 0x1 PUSH1 0x1 PUSH1 0xA0 SHL SUB AND DUP2 DUP4 ADD SSTORE PUSH1 0x20 SWAP1 SWAP3 ADD SWAP2 PUSH1 0x1 ADD PUSH2 0x2B5E JUMP JUMPDEST DUP4 DUP7 MSTORE DUP3 DUP7 KECCAK256 PUSH2 0x2C6F SWAP2 DUP2 ADD SWAP1 DUP7 ADD PUSH2 0x3A28 JUMP JUMPDEST CODESIZE PUSH2 0x2B53 JUMP JUMPDEST PUSH4 0x4E487B71 PUSH1 0xE0 SHL DUP4 MSTORE PUSH1 0x41 PUSH1 0x4 MSTORE PUSH1 0x24 DUP4 REVERT JUMPDEST DUP1 MLOAD DUP1 MLOAD SWAP1 PUSH1 0x1 PUSH1 0x1 PUSH1 0x40 SHL SUB DUP3 GT PUSH2 0x117E JUMPI PUSH2 0x2CA6 DUP5 SLOAD PUSH2 0x3539 JUMP JUMPDEST PUSH1 0x1F DUP2 GT PUSH2 0x2D68 JUMPI JUMPDEST POP PUSH1 0x20 SWAP1 PUSH1 0x1F DUP4 GT PUSH1 0x1 EQ PUSH2 0x2CFB JUMPI SWAP3 DUP3 PUSH1 0x1 SWAP5 SWAP4 PUSH1 0x20 SWAP4 DUP7 SWAP6 DUP12 SWAP3 PUSH2 0x2CF0 JUMPI JUMPDEST POP POP PUSH1 0x0 NOT PUSH1 0x3 DUP4 SWAP1 SHL SHR NOT AND SWAP1 DUP5 SHL OR DUP6 SSTORE JUMPDEST ADD SWAP3 ADD SWAP3 ADD SWAP2 SWAP1 PUSH2 0x2B12 JUMP JUMPDEST ADD MLOAD SWAP1 POP CODESIZE DUP1 PUSH2 0x2CD0 JUMP JUMPDEST SWAP1 DUP5 DUP9 MSTORE PUSH1 0x20 DUP9 KECCAK256 SWAP2 DUP9 JUMPDEST PUSH1 0x1F NOT DUP6 AND DUP2 LT PUSH2 0x2D50 JUMPI POP DUP4 PUSH1 0x20 SWAP4 PUSH1 0x1 SWAP7 SWAP4 DUP8 SWAP7 SWAP4 DUP8 SWAP5 PUSH1 0x1F NOT DUP2 AND LT PUSH2 0x2D37 JUMPI JUMPDEST POP POP POP DUP2 SHL ADD DUP6 SSTORE PUSH2 0x2CE4 JUMP JUMPDEST ADD MLOAD PUSH1 0x0 NOT PUSH1 0xF8 DUP5 PUSH1 0x3 SHL AND SHR NOT AND SWAP1 SSTORE CODESIZE DUP1 DUP1 PUSH2 0x2D2A JUMP JUMPDEST SWAP2 SWAP3 PUSH1 0x20 PUSH1 0x1 DUP2 SWAP3 DUP7 DUP6 ADD MLOAD DUP2 SSTORE ADD SWAP5 ADD SWAP3 ADD PUSH2 0x2D06 JUMP JUMPDEST PUSH2 0x2D93 SWAP1 DUP6 DUP10 MSTORE PUSH1 0x20 DUP10 KECCAK256 PUSH1 0x1F DUP6 ADD PUSH1 0x5 SHR DUP2 ADD SWAP2 PUSH1 0x20 DUP7 LT PUSH2 0x2D99 JUMPI JUMPDEST PUSH1 0x1F ADD PUSH1 0x5 SHR ADD SWAP1 PUSH2 0x3A28 JUMP JUMPDEST CODESIZE PUSH2 0x2CAF JUMP JUMPDEST SWAP1 SWAP2 POP DUP2 SWAP1 PUSH2 0x2D86 JUMP JUMPDEST PUSH1 0xB DUP7 ADD DUP5 MSTORE PUSH1 0x20 DUP5 KECCAK256 SWAP1 DUP4 DUP3 ADD JUMPDEST DUP2 DUP4 ADD DUP2 LT PUSH2 0x2DC2 JUMPI POP POP PUSH2 0x2B01 JUMP JUMPDEST DUP1 DUP7 PUSH2 0x2DD0 PUSH1 0x1 SWAP4 SLOAD PUSH2 0x3539 JUMP JUMPDEST DUP1 PUSH2 0x2DDE JUMPI JUMPDEST POP POP ADD PUSH2 0x2DB2 JUMP JUMPDEST PUSH1 0x1F DUP2 GT DUP5 EQ PUSH2 0x2DF3 JUMPI POP DUP2 SSTORE JUMPDEST DUP7 CODESIZE PUSH2 0x2DD6 JUMP JUMPDEST DUP3 DUP3 MSTORE PUSH2 0x2E0E PUSH1 0x1F PUSH1 0x20 DUP5 KECCAK256 SWAP3 ADD PUSH1 0x5 SHR DUP3 ADD DUP6 DUP4 ADD PUSH2 0x3A28 JUMP JUMPDEST DUP2 DUP4 SSTORE SSTORE PUSH2 0x2DEC JUMP JUMPDEST ADD MLOAD SWAP1 POP CODESIZE DUP1 PUSH2 0x2A79 JUMP JUMPDEST SWAP3 POP PUSH1 0x3 DUP7 ADD DUP5 MSTORE PUSH1 0x20 DUP5 KECCAK256 SWAP1 DUP5 SWAP4 JUMPDEST PUSH1 0x1F NOT DUP5 AND DUP6 LT PUSH2 0x2E76 JUMPI PUSH1 0x1 SWAP5 POP DUP4 PUSH1 0x1F NOT DUP2 AND LT PUSH2 0x2E5D JUMPI JUMPDEST POP POP POP DUP2 SHL ADD PUSH1 0x3 DUP5 ADD SSTORE PUSH2 0x2A91 JUMP JUMPDEST ADD MLOAD PUSH1 0x0 NOT PUSH1 0xF8 DUP5 PUSH1 0x3 SHL AND SHR NOT AND SWAP1 SSTORE CODESIZE DUP1 DUP1 PUSH2 0x2E4D JUMP JUMPDEST DUP2 DUP2 ADD MLOAD DUP4 SSTORE PUSH1 0x20 SWAP5 DUP6 ADD SWAP5 PUSH1 0x1 SWAP1 SWAP4 ADD SWAP3 SWAP1 SWAP2 ADD SWAP1 PUSH2 0x2E32 JUMP JUMPDEST PUSH2 0x2EBE SWAP1 PUSH1 0x3 DUP9 ADD DUP7 MSTORE PUSH1 0x20 DUP7 KECCAK256 PUSH1 0x1F DUP6 ADD PUSH1 0x5 SHR DUP2 ADD SWAP2 PUSH1 0x20 DUP7 LT PUSH2 0x2D99 JUMPI PUSH1 0x1F ADD PUSH1 0x5 SHR ADD SWAP1 PUSH2 0x3A28 JUMP JUMPDEST CODESIZE PUSH2 0x2A63 JUMP JUMPDEST ADD MLOAD SWAP1 POP CODESIZE DUP1 PUSH2 0x2A1D JUMP JUMPDEST SWAP3 POP PUSH1 0x2 DUP7 ADD DUP5 MSTORE PUSH1 0x20 DUP5 KECCAK256 SWAP1 DUP5 SWAP4 JUMPDEST PUSH1 0x1F NOT DUP5 AND DUP6 LT PUSH2 0x2F23 JUMPI PUSH1 0x1 SWAP5 POP DUP4 PUSH1 0x1F NOT DUP2 AND LT PUSH2 0x2F0A JUMPI JUMPDEST POP POP POP DUP2 SHL ADD PUSH1 0x2 DUP5 ADD SSTORE PUSH2 0x2A35 JUMP JUMPDEST ADD MLOAD PUSH1 0x0 NOT PUSH1 0xF8 DUP5 PUSH1 0x3 SHL AND SHR NOT AND SWAP1 SSTORE CODESIZE DUP1 DUP1 PUSH2 0x2EFA JUMP JUMPDEST DUP2 DUP2 ADD MLOAD DUP4 SSTORE PUSH1 0x20 SWAP5 DUP6 ADD SWAP5 PUSH1 0x1 SWAP1 SWAP4 ADD SWAP3 SWAP1 SWAP2 ADD SWAP1 PUSH2 0x2EDF JUMP JUMPDEST PUSH2 0x2F6B SWAP1 PUSH1 0x2 DUP9 ADD DUP7 MSTORE PUSH1 0x20 DUP7 KECCAK256 PUSH1 0x1F DUP6 ADD PUSH1 0x5 SHR DUP2 ADD SWAP2 PUSH1 0x20 DUP7 LT PUSH2 0x2D99 JUMPI PUSH1 0x1F ADD PUSH1 0x5 SHR ADD SWAP1 PUSH2 0x3A28 JUMP JUMPDEST CODESIZE PUSH2 0x2A07 JUMP JUMPDEST ADD MLOAD SWAP1 POP CODESIZE DUP1 PUSH2 0x29C1 JUMP JUMPDEST SWAP3 POP PUSH1 0x1 DUP7 ADD DUP5 MSTORE PUSH1 0x20 DUP5 KECCAK256 SWAP1 DUP5 SWAP4 JUMPDEST PUSH1 0x1F NOT DUP5 AND DUP6 LT PUSH2 0x2FD0 JUMPI PUSH1 0x1 SWAP5 POP DUP4 PUSH1 0x1F NOT DUP2 AND LT PUSH2 0x2FB7 JUMPI JUMPDEST POP POP POP DUP2 SHL ADD PUSH1 0x1 DUP5 ADD SSTORE PUSH2 0x29D9 JUMP JUMPDEST ADD MLOAD PUSH1 0x0 NOT PUSH1 0xF8 DUP5 PUSH1 0x3 SHL AND SHR NOT AND SWAP1 SSTORE CODESIZE DUP1 DUP1 PUSH2 0x2FA7 JUMP JUMPDEST DUP2 DUP2 ADD MLOAD DUP4 SSTORE PUSH1 0x20 SWAP5 DUP6 ADD SWAP5 PUSH1 0x1 SWAP1 SWAP4 ADD SWAP3 SWAP1 SWAP2 ADD SWAP1 PUSH2 0x2F8C JUMP JUMPDEST PUSH2 0x3018 SWAP1 PUSH1 0x1 DUP9 ADD DUP7 MSTORE PUSH1 0x20 DUP7 KECCAK256 PUSH1 0x1F DUP6 ADD PUSH1 0x5 SHR DUP2 ADD SWAP2 PUSH1 0x20 DUP7 LT PUSH2 0x2D99 JUMPI PUSH1 0x1F ADD PUSH1 0x5 SHR ADD SWAP1 PUSH2 0x3A28 JUMP JUMPDEST CODESIZE PUSH2 0x29AB JUMP JUMPDEST PUSH4 0x4E487B71 PUSH1 0xE0 SHL DUP6 MSTORE PUSH1 0x41 PUSH1 0x4 MSTORE PUSH1 0x24 DUP6 REVERT JUMPDEST PUSH1 0x40 MLOAD PUSH3 0x461BCD PUSH1 0xE5 SHL DUP2 MSTORE PUSH1 0x20 PUSH1 0x4 DUP3 ADD MSTORE PUSH1 0x32 PUSH1 0x24 DUP3 ADD MSTORE PUSH32 0x537175647943616D706169676E4D616E616765723A206D757374206861766520 PUSH1 0x44 DUP3 ADD MSTORE PUSH18 0x6174206C65617374206F6E65207072697A65 PUSH1 0x70 SHL PUSH1 0x64 DUP3 ADD MSTORE PUSH1 0x84 SWAP1 REVERT JUMPDEST PUSH1 0x40 MLOAD PUSH3 0x461BCD PUSH1 0xE5 SHL DUP2 MSTORE PUSH1 0x20 PUSH1 0x4 DUP3 ADD MSTORE PUSH1 0x37 PUSH1 0x24 DUP3 ADD MSTORE PUSH32 0x537175647943616D706169676E4D616E616765723A20656E642064617465206D PUSH1 0x44 DUP3 ADD MSTORE PUSH32 0x7573742062652061667465722073746172742064617465000000000000000000 PUSH1 0x64 DUP3 ADD MSTORE PUSH1 0x84 SWAP1 REVERT JUMPDEST PUSH1 0x40 MLOAD PUSH3 0x461BCD PUSH1 0xE5 SHL DUP2 MSTORE PUSH1 0x20 PUSH1 0x4 DUP3 ADD MSTORE PUSH1 0x36 PUSH1 0x24 DUP3 ADD MSTORE PUSH32 0x537175647943616D706169676E4D616E616765723A2073746172742064617465 PUSH1 0x44 DUP3 ADD MSTORE PUSH22 0x206D75737420626520696E2074686520667574757265 PUSH1 0x50 SHL PUSH1 0x64 DUP3 ADD MSTORE PUSH1 0x84 SWAP1 REVERT JUMPDEST PUSH1 0x40 MLOAD PUSH3 0x461BCD PUSH1 0xE5 SHL DUP2 MSTORE PUSH1 0x20 PUSH1 0x4 DUP3 ADD MSTORE PUSH1 0x3A PUSH1 0x24 DUP3 ADD MSTORE PUSH32 0x537175647943616D706169676E4D616E616765723A207469636B657420616D6F PUSH1 0x44 DUP3 ADD MSTORE PUSH32 0x756E74206D7573742062652067726561746572207468616E2030000000000000 PUSH1 0x64 DUP3 ADD MSTORE PUSH1 0x84 SWAP1 REVERT JUMPDEST PUSH1 0x40 MLOAD PUSH3 0x461BCD PUSH1 0xE5 SHL DUP2 MSTORE PUSH1 0x20 PUSH1 0x4 DUP3 ADD MSTORE PUSH1 0x3C PUSH1 0x24 DUP3 ADD MSTORE PUSH32 0x537175647943616D706169676E4D616E616765723A206861726420636170206D PUSH1 0x44 DUP3 ADD MSTORE PUSH32 0x7573742062652067726561746572207468616E20736F66742063617000000000 PUSH1 0x64 DUP3 ADD MSTORE PUSH1 0x84 SWAP1 REVERT JUMPDEST PUSH1 0x40 MLOAD PUSH3 0x461BCD PUSH1 0xE5 SHL DUP2 MSTORE PUSH1 0x20 PUSH1 0x4 DUP3 ADD MSTORE PUSH1 0x35 PUSH1 0x24 DUP3 ADD MSTORE PUSH32 0x537175647943616D706169676E4D616E616765723A20736F667420636170206D PUSH1 0x44 DUP3 ADD MSTORE PUSH21 0x7573742062652067726561746572207468616E203 PUSH1 0x5C SHL PUSH1 0x64 DUP3 ADD MSTORE PUSH1 0x84 SWAP1 REVERT JUMPDEST PUSH1 0x40 MLOAD PUSH3 0x461BCD PUSH1 0xE5 SHL DUP2 MSTORE PUSH1 0x20 PUSH1 0x4 DUP3 ADD MSTORE PUSH1 0x2A PUSH1 0x24 DUP3 ADD MSTORE PUSH32 0x537175647943616D706169676E4D616E616765723A206E616D652063616E6E6F PUSH1 0x44 DUP3 ADD MSTORE PUSH10 0x7420626520656D707479 PUSH1 0xB0 SHL PUSH1 0x64 DUP3 ADD MSTORE PUSH1 0x84 SWAP1 REVERT JUMPDEST POP PUSH1 0x0 DUP1 MLOAD PUSH1 0x20 PUSH2 0x3DA6 DUP4 CODECOPY DUP2 MLOAD SWAP2 MSTORE DUP4 MSTORE PUSH1 0x20 DUP4 DUP2 MSTORE PUSH1 0x40 DUP1 DUP6 KECCAK256 CALLER DUP7 MSTORE SWAP1 SWAP2 MSTORE DUP4 KECCAK256 SLOAD PUSH1 0xFF AND PUSH2 0x2860 JUMP JUMPDEST PUSH1 0x1 PUSH1 0x1 PUSH1 0x40 SHL SUB DUP4 CALLDATALOAD GT PUSH2 0x3353 JUMPI PUSH1 0x20 DUP1 PUSH1 0x24 SWAP3 PUSH2 0x3346 CALLDATASIZE DUP6 DUP9 CALLDATALOAD PUSH2 0x104 CALLDATALOAD ADD ADD PUSH2 0x34CC JUMP JUMPDEST DUP2 MSTORE ADD SWAP4 ADD SWAP3 SWAP1 POP PUSH2 0x281D JUMP JUMPDEST DUP6 DUP1 REVERT JUMPDEST DUP5 DUP1 REVERT JUMPDEST POP CALLVALUE PUSH2 0x5ED JUMPI PUSH1 0x40 CALLDATASIZE PUSH1 0x3 NOT ADD SLT PUSH2 0x5ED JUMPI PUSH1 0x40 PUSH1 0xC0 SWAP2 PUSH2 0x337A PUSH2 0x3432 JUMP JUMPDEST PUSH1 0x4 CALLDATALOAD DUP3 MSTORE PUSH1 0x5 PUSH1 0x20 MSTORE DUP3 DUP3 KECCAK256 SWAP1 PUSH1 0x1 DUP1 PUSH1 0xA0 SHL SUB AND DUP3 MSTORE PUSH1 0x20 MSTORE KECCAK256 DUP1 SLOAD SWAP1 PUSH1 0x1 DUP2 ADD SLOAD SWAP1 PUSH1 0xFF PUSH1 0x2 DUP3 ADD SLOAD PUSH1 0x4 PUSH1 0x3 DUP5 ADD SLOAD SWAP4 ADD SLOAD SWAP4 PUSH1 0x40 MLOAD SWAP6 DUP7 MSTORE PUSH1 0x20 DUP7 ADD MSTORE DUP2 DUP2 AND ISZERO ISZERO PUSH1 0x40 DUP7 ADD MSTORE PUSH1 0x8 SHR AND ISZERO ISZERO PUSH1 0x60 DUP5 ADD MSTORE PUSH1 0x80 DUP4 ADD MSTORE PUSH1 0xA0 DUP3 ADD MSTORE RETURN JUMPDEST SWAP1 POP CALLVALUE PUSH2 0x708 JUMPI PUSH1 0x20 CALLDATASIZE PUSH1 0x3 NOT ADD SLT PUSH2 0x708 JUMPI PUSH1 0x4 CALLDATALOAD PUSH4 0xFFFFFFFF PUSH1 0xE0 SHL DUP2 AND DUP1 SWAP2 SUB PUSH2 0x1192 JUMPI PUSH1 0x20 SWAP3 POP PUSH4 0x7965DB0B PUSH1 0xE0 SHL DUP2 EQ SWAP1 DUP2 ISZERO PUSH2 0x3421 JUMPI JUMPDEST POP ISZERO ISZERO DUP2 MSTORE RETURN JUMPDEST PUSH4 0x1FFC9A7 PUSH1 0xE0 SHL EQ SWAP1 POP CODESIZE PUSH2 0x341A JUMP JUMPDEST PUSH1 0x24 CALLDATALOAD SWAP1 PUSH1 0x1 PUSH1 0x1 PUSH1 0xA0 SHL SUB DUP3 AND DUP3 SUB PUSH2 0x969 JUMPI JUMP JUMPDEST PUSH1 0x4 CALLDATALOAD SWAP1 PUSH1 0x1 PUSH1 0x1 PUSH1 0xA0 SHL SUB DUP3 AND DUP3 SUB PUSH2 0x969 JUMPI JUMP JUMPDEST PUSH2 0x260 DUP2 ADD SWAP1 DUP2 LT PUSH1 0x1 PUSH1 0x1 PUSH1 0x40 SHL SUB DUP3 GT OR PUSH2 0x347A JUMPI PUSH1 0x40 MSTORE JUMP JUMPDEST PUSH4 0x4E487B71 PUSH1 0xE0 SHL PUSH1 0x0 MSTORE PUSH1 0x41 PUSH1 0x4 MSTORE PUSH1 0x24 PUSH1 0x0 REVERT JUMPDEST PUSH1 0xC0 DUP2 ADD SWAP1 DUP2 LT PUSH1 0x1 PUSH1 0x1 PUSH1 0x40 SHL SUB DUP3 GT OR PUSH2 0x347A JUMPI PUSH1 0x40 MSTORE JUMP JUMPDEST SWAP1 PUSH1 0x1F DUP1 NOT SWAP2 ADD AND DUP2 ADD SWAP1 DUP2 LT PUSH1 0x1 PUSH1 0x1 PUSH1 0x40 SHL SUB DUP3 GT OR PUSH2 0x347A JUMPI PUSH1 0x40 MSTORE JUMP JUMPDEST DUP2 PUSH1 0x1F DUP3 ADD SLT ISZERO PUSH2 0x969 JUMPI DUP1 CALLDATALOAD SWAP1 PUSH1 0x1 PUSH1 0x1 PUSH1 0x40 SHL SUB DUP3 GT PUSH2 0x347A JUMPI PUSH1 0x40 MLOAD SWAP3 PUSH2 0x3500 PUSH1 0x1F DUP5 ADD PUSH1 0x1F NOT AND PUSH1 0x20 ADD DUP6 PUSH2 0x34AB JUMP JUMPDEST DUP3 DUP5 MSTORE PUSH1 0x20 DUP4 DUP4 ADD ADD GT PUSH2 0x969 JUMPI DUP2 PUSH1 0x0 SWAP3 PUSH1 0x20 DUP1 SWAP4 ADD DUP4 DUP7 ADD CALLDATACOPY DUP4 ADD ADD MSTORE SWAP1 JUMP JUMPDEST PUSH1 0x1 PUSH1 0x1 PUSH1 0x40 SHL SUB DUP2 GT PUSH2 0x347A JUMPI PUSH1 0x5 SHL PUSH1 0x20 ADD SWAP1 JUMP JUMPDEST SWAP1 PUSH1 0x1 DUP3 DUP2 SHR SWAP3 AND DUP1 ISZERO PUSH2 0x3569 JUMPI JUMPDEST PUSH1 0x20 DUP4 LT EQ PUSH2 0x3553 JUMPI JUMP JUMPDEST PUSH4 0x4E487B71 PUSH1 0xE0 SHL PUSH1 0x0 MSTORE PUSH1 0x22 PUSH1 0x4 MSTORE PUSH1 0x24 PUSH1 0x0 REVERT JUMPDEST SWAP2 PUSH1 0x7F AND SWAP2 PUSH2 0x3548 JUMP JUMPDEST SWAP1 PUSH1 0x40 MLOAD SWAP2 DUP3 PUSH1 0x0 DUP3 SLOAD SWAP3 PUSH2 0x3587 DUP5 PUSH2 0x3539 JUMP JUMPDEST SWAP1 DUP2 DUP5 MSTORE PUSH1 0x1 SWAP5 DUP6 DUP2 AND SWAP1 DUP2 PUSH1 0x0 EQ PUSH2 0x35F6 JUMPI POP PUSH1 0x1 EQ PUSH2 0x35B3 JUMPI JUMPDEST POP POP PUSH2 0x35B1 SWAP3 POP SUB DUP4 PUSH2 0x34AB JUMP JUMPDEST JUMP JUMPDEST SWAP1 SWAP4 SWAP2 POP PUSH1 0x0 MSTORE PUSH1 0x20 SWAP1 DUP2 PUSH1 0x0 KECCAK256 SWAP4 PUSH1 0x0 SWAP2 JUMPDEST DUP2 DUP4 LT PUSH2 0x35DE JUMPI POP POP PUSH2 0x35B1 SWAP4 POP DUP3 ADD ADD CODESIZE DUP1 PUSH2 0x35A3 JUMP JUMPDEST DUP6 SLOAD DUP9 DUP5 ADD DUP6 ADD MSTORE SWAP5 DUP6 ADD SWAP5 DUP8 SWAP5 POP SWAP2 DUP4 ADD SWAP2 PUSH2 0x35C6 JUMP JUMPDEST SWAP2 POP POP PUSH2 0x35B1 SWAP5 POP PUSH1 0x20 SWAP3 POP PUSH1 0xFF NOT AND DUP3 DUP5 ADD MSTORE ISZERO ISZERO PUSH1 0x5 SHL DUP3 ADD ADD CODESIZE DUP1 PUSH2 0x35A3 JUMP JUMPDEST SWAP2 SWAP1 DUP3 MLOAD SWAP3 DUP4 DUP3 MSTORE PUSH1 0x0 JUMPDEST DUP5 DUP2 LT PUSH2 0x3645 JUMPI POP POP DUP3 PUSH1 0x0 PUSH1 0x20 DUP1 SWAP5 SWAP6 DUP5 ADD ADD MSTORE PUSH1 0x1F DUP1 NOT SWAP2 ADD AND ADD ADD SWAP1 JUMP JUMPDEST PUSH1 0x20 DUP2 DUP4 ADD DUP2 ADD MLOAD DUP5 DUP4 ADD DUP3 ADD MSTORE ADD PUSH2 0x3624 JUMP JUMPDEST SWAP1 PUSH1 0x5 DUP3 LT ISZERO PUSH2 0x3666 JUMPI MSTORE JUMP JUMPDEST PUSH4 0x4E487B71 PUSH1 0xE0 SHL PUSH1 0x0 MSTORE PUSH1 0x21 PUSH1 0x4 MSTORE PUSH1 0x24 PUSH1 0x0 REVERT JUMPDEST PUSH1 0x40 SWAP1 PUSH1 0x3 NOT ADD SLT PUSH2 0x969 JUMPI PUSH1 0x4 CALLDATALOAD SWAP1 PUSH1 0x24 CALLDATALOAD SWAP1 JUMP JUMPDEST DUP1 SLOAD DUP3 LT ISZERO PUSH2 0x36AA JUMPI PUSH1 0x0 MSTORE PUSH1 0x20 PUSH1 0x0 KECCAK256 ADD SWAP1 PUSH1 0x0 SWAP1 JUMP JUMPDEST PUSH4 0x4E487B71 PUSH1 0xE0 SHL PUSH1 0x0 MSTORE PUSH1 0x32 PUSH1 0x4 MSTORE PUSH1 0x24 PUSH1 0x0 REVERT JUMPDEST SWAP1 DUP2 MLOAD DUP1 DUP3 MSTORE PUSH1 0x20 DUP1 DUP1 SWAP4 ADD SWAP4 ADD SWAP2 PUSH1 0x0 JUMPDEST DUP3 DUP2 LT PUSH2 0x36E0 JUMPI POP POP POP POP SWAP1 JUMP JUMPDEST DUP4 MLOAD PUSH1 0x1 PUSH1 0x1 PUSH1 0xA0 SHL SUB AND DUP6 MSTORE SWAP4 DUP2 ADD SWAP4 SWAP3 DUP2 ADD SWAP3 PUSH1 0x1 ADD PUSH2 0x36D2 JUMP JUMPDEST CALLER PUSH1 0x0 SWAP1 DUP2 MSTORE PUSH32 0xAD3228B676F7D3CD4284A5443F17F1962B36E491B30A40B2405849E597BA5FB5 PUSH1 0x20 MSTORE PUSH1 0x40 DUP2 KECCAK256 SLOAD PUSH1 0xFF AND ISZERO PUSH2 0x3737 JUMPI POP JUMP JUMPDEST PUSH1 0x44 SWAP1 PUSH1 0x40 MLOAD SWAP1 PUSH4 0xE2517D3F PUSH1 0xE0 SHL DUP3 MSTORE CALLER PUSH1 0x4 DUP4 ADD MSTORE PUSH1 0x24 DUP3 ADD MSTORE REVERT JUMPDEST DUP1 PUSH1 0x0 MSTORE PUSH1 0x0 PUSH1 0x20 MSTORE PUSH1 0x40 PUSH1 0x0 KECCAK256 CALLER PUSH1 0x0 MSTORE PUSH1 0x20 MSTORE PUSH1 0xFF PUSH1 0x40 PUSH1 0x0 KECCAK256 SLOAD AND ISZERO PUSH2 0x3737 JUMPI POP JUMP JUMPDEST PUSH1 0x1 PUSH1 0x1 PUSH1 0xA0 SHL SUB AND PUSH1 0x0 DUP2 DUP2 MSTORE PUSH32 0x7D7FFB7A348E1C6A02869081A26547B49160DD3DF72D1D75A570EB9B698292EC PUSH1 0x20 MSTORE PUSH1 0x40 DUP2 KECCAK256 SLOAD SWAP1 SWAP2 SWAP1 PUSH1 0x0 DUP1 MLOAD PUSH1 0x20 PUSH2 0x3DA6 DUP4 CODECOPY DUP2 MLOAD SWAP2 MSTORE SWAP1 PUSH1 0xFF AND PUSH2 0x3816 JUMPI DUP1 DUP4 MSTORE DUP3 PUSH1 0x20 MSTORE PUSH1 0x40 DUP4 KECCAK256 DUP3 DUP5 MSTORE PUSH1 0x20 MSTORE PUSH1 0x40 DUP4 KECCAK256 PUSH1 0x1 PUSH1 0xFF NOT DUP3 SLOAD AND OR SWAP1 SSTORE PUSH32 0x2F8788117E7EFF1D82E926EC794901D17C78024A50270940304540A733656F0D CALLER SWAP4 DUP1 LOG4 PUSH1 0x1 SWAP1 JUMP JUMPDEST POP POP SWAP1 JUMP JUMPDEST SWAP1 PUSH1 0x0 SWAP2 DUP1 DUP4 MSTORE DUP3 PUSH1 0x20 MSTORE PUSH1 0x40 DUP4 KECCAK256 SWAP2 PUSH1 0x1 DUP1 PUSH1 0xA0 SHL SUB AND SWAP2 DUP3 DUP5 MSTORE PUSH1 0x20 MSTORE PUSH1 0xFF PUSH1 0x40 DUP5 KECCAK256 SLOAD AND ISZERO PUSH1 0x0 EQ PUSH2 0x3816 JUMPI DUP1 DUP4 MSTORE DUP3 PUSH1 0x20 MSTORE PUSH1 0x40 DUP4 KECCAK256 DUP3 DUP5 MSTORE PUSH1 0x20 MSTORE PUSH1 0x40 DUP4 KECCAK256 PUSH1 0x1 PUSH1 0xFF NOT DUP3 SLOAD AND OR SWAP1 SSTORE PUSH32 0x2F8788117E7EFF1D82E926EC794901D17C78024A50270940304540A733656F0D CALLER SWAP4 DUP1 LOG4 PUSH1 0x1 SWAP1 JUMP JUMPDEST PUSH1 0x1 PUSH1 0x1 PUSH1 0xA0 SHL SUB AND PUSH1 0x0 DUP2 DUP2 MSTORE PUSH32 0x7D7FFB7A348E1C6A02869081A26547B49160DD3DF72D1D75A570EB9B698292EC PUSH1 0x20 MSTORE PUSH1 0x40 DUP2 KECCAK256 SLOAD SWAP1 SWAP2 SWAP1 PUSH1 0x0 DUP1 MLOAD PUSH1 0x20 PUSH2 0x3DA6 DUP4 CODECOPY DUP2 MLOAD SWAP2 MSTORE SWAP1 PUSH1 0xFF AND ISZERO PUSH2 0x3816 JUMPI DUP1 DUP4 MSTORE DUP3 PUSH1 0x20 MSTORE PUSH1 0x40 DUP4 KECCAK256 DUP3 DUP5 MSTORE PUSH1 0x20 MSTORE PUSH1 0x40 DUP4 KECCAK256 PUSH1 0xFF NOT DUP2 SLOAD AND SWAP1 SSTORE PUSH32 0xF6391F5C32D9C69D2A47EA670B442974B53935D1EDC7FD64EB21E047A839171B CALLER SWAP4 DUP1 LOG4 PUSH1 0x1 SWAP1 JUMP JUMPDEST SWAP1 PUSH1 0x0 SWAP2 DUP1 DUP4 MSTORE DUP3 PUSH1 0x20 MSTORE PUSH1 0x40 DUP4 KECCAK256 SWAP2 PUSH1 0x1 DUP1 PUSH1 0xA0 SHL SUB AND SWAP2 DUP3 DUP5 MSTORE PUSH1 0x20 MSTORE PUSH1 0xFF PUSH1 0x40 DUP5 KECCAK256 SLOAD AND PUSH1 0x0 EQ PUSH2 0x3816 JUMPI DUP1 DUP4 MSTORE DUP3 PUSH1 0x20 MSTORE PUSH1 0x40 DUP4 KECCAK256 DUP3 DUP5 MSTORE PUSH1 0x20 MSTORE PUSH1 0x40 DUP4 KECCAK256 PUSH1 0xFF NOT DUP2 SLOAD AND SWAP1 SSTORE PUSH32 0xF6391F5C32D9C69D2A47EA670B442974B53935D1EDC7FD64EB21E047A839171B CALLER SWAP4 DUP1 LOG4 PUSH1 0x1 SWAP1 JUMP JUMPDEST ISZERO PUSH2 0x39A9 JUMPI JUMP JUMPDEST PUSH1 0x40 MLOAD PUSH3 0x461BCD PUSH1 0xE5 SHL DUP2 MSTORE PUSH1 0x20 PUSH1 0x4 DUP3 ADD MSTORE PUSH1 0x2C PUSH1 0x24 DUP3 ADD MSTORE PUSH32 0x537175647943616D706169676E4D616E616765723A206F70657261746F722072 PUSH1 0x44 DUP3 ADD MSTORE PUSH12 0x1BDB19481C995C5D5A5C9959 PUSH1 0xA2 SHL PUSH1 0x64 DUP3 ADD MSTORE PUSH1 0x84 SWAP1 REVERT JUMPDEST PUSH1 0x0 NOT DUP2 EQ PUSH2 0x3A12 JUMPI PUSH1 0x1 ADD SWAP1 JUMP JUMPDEST PUSH4 0x4E487B71 PUSH1 0xE0 SHL PUSH1 0x0 MSTORE PUSH1 0x11 PUSH1 0x4 MSTORE PUSH1 0x24 PUSH1 0x0 REVERT JUMPDEST DUP2 DUP2 LT PUSH2 0x3A33 JUMPI POP POP JUMP JUMPDEST PUSH1 0x0 DUP2 SSTORE PUSH1 0x1 ADD PUSH2 0x3A28 JUMP JUMPDEST ISZERO PUSH2 0x3A46 JUMPI JUMP JUMPDEST PUSH1 0x40 MLOAD PUSH3 0x461BCD PUSH1 0xE5 SHL DUP2 MSTORE PUSH1 0x20 PUSH1 0x4 DUP3 ADD MSTORE PUSH1 0x2D PUSH1 0x24 DUP3 ADD MSTORE PUSH32 0x537175647943616D706169676E4D616E616765723A2063616D706169676E2064 PUSH1 0x44 DUP3 ADD MSTORE PUSH13 0x1BD95CC81B9BDD08195E1A5CDD PUSH1 0x9A SHL PUSH1 0x64 DUP3 ADD MSTORE PUSH1 0x84 SWAP1 REVERT JUMPDEST ISZERO PUSH2 0x3AA8 JUMPI JUMP JUMPDEST PUSH1 0x40 MLOAD PUSH3 0x461BCD PUSH1 0xE5 SHL DUP2 MSTORE PUSH1 0x20 PUSH1 0x4 DUP3 ADD MSTORE PUSH1 0x29 PUSH1 0x24 DUP3 ADD MSTORE PUSH1 0x0 DUP1 MLOAD PUSH1 0x20 PUSH2 0x3D66 DUP4 CODECOPY DUP2 MLOAD SWAP2 MSTORE PUSH1 0x44 DUP3 ADD MSTORE PUSH9 0x6F7420616374697665 PUSH1 0xB8 SHL PUSH1 0x64 DUP3 ADD MSTORE PUSH1 0x84 SWAP1 REVERT JUMPDEST ISZERO PUSH2 0x3AF4 JUMPI JUMP JUMPDEST PUSH1 0x40 MLOAD PUSH3 0x461BCD PUSH1 0xE5 SHL DUP2 MSTORE PUSH1 0x20 PUSH1 0x4 DUP3 ADD MSTORE PUSH1 0x2B PUSH1 0x24 DUP3 ADD MSTORE PUSH32 0x537175647943616D706169676E4D616E616765723A20746F6B656E7320616C72 PUSH1 0x44 DUP3 ADD MSTORE PUSH11 0x1958591E48189D5C9B9959 PUSH1 0xAA SHL PUSH1 0x64 DUP3 ADD MSTORE PUSH1 0x84 SWAP1 REVERT JUMPDEST ISZERO PUSH2 0x3B54 JUMPI JUMP JUMPDEST PUSH1 0x40 MLOAD PUSH3 0x461BCD PUSH1 0xE5 SHL DUP2 MSTORE PUSH1 0x20 PUSH1 0x4 DUP3 ADD MSTORE PUSH1 0x2B PUSH1 0x24 DUP3 ADD MSTORE PUSH1 0x0 DUP1 MLOAD PUSH1 0x20 PUSH2 0x3D66 DUP4 CODECOPY DUP2 MLOAD SWAP2 MSTORE PUSH1 0x44 DUP3 ADD MSTORE PUSH11 0x1BDD08199A5B9A5CDA1959 PUSH1 0xAA SHL PUSH1 0x64 DUP3 ADD MSTORE PUSH1 0x84 SWAP1 REVERT JUMPDEST DUP2 ISZERO PUSH2 0x3BA5 JUMPI MOD SWAP1 JUMP JUMPDEST PUSH4 0x4E487B71 PUSH1 0xE0 SHL PUSH1 0x0 MSTORE PUSH1 0x12 PUSH1 0x4 MSTORE PUSH1 0x24 PUSH1 0x0 REVERT JUMPDEST SWAP2 SWAP1 DUP3 ADD DUP1 SWAP3 GT PUSH2 0x3A12 JUMPI JUMP JUMPDEST SWAP1 DUP2 PUSH1 0x20 SWAP2 SUB SLT PUSH2 0x969 JUMPI MLOAD DUP1 ISZERO ISZERO DUP2 SUB PUSH2 0x969 JUMPI SWAP1 JUMP JUMPDEST DUP1 MLOAD DUP3 LT ISZERO PUSH2 0x36AA JUMPI PUSH1 0x20 SWAP2 PUSH1 0x5 SHL ADD ADD SWAP1 JUMP JUMPDEST SWAP1 PUSH1 0x0 SWAP2 DUP1 DUP4 MSTORE PUSH1 0x20 SWAP1 PUSH1 0x4 DUP3 MSTORE PUSH1 0x40 SWAP3 DUP4 DUP6 KECCAK256 SWAP1 DUP6 PUSH1 0xA DUP8 SWAP4 ADD SLOAD SWAP3 JUMPDEST DUP4 DUP2 LT PUSH2 0x3C3B JUMPI POP POP POP SWAP1 DUP5 MSTORE POP PUSH1 0x7 DUP2 MSTORE DUP2 DUP4 KECCAK256 DUP4 DUP1 MSTORE SWAP1 MSTORE SWAP1 KECCAK256 SLOAD PUSH1 0x1 PUSH1 0x1 PUSH1 0xA0 SHL SUB AND SWAP1 JUMP JUMPDEST DUP5 DUP9 MSTORE PUSH1 0x7 DUP7 MSTORE DUP7 DUP9 KECCAK256 DUP2 DUP10 MSTORE DUP7 MSTORE PUSH1 0x1 DUP1 PUSH1 0xA0 SHL SUB DUP8 DUP10 KECCAK256 SLOAD AND DUP6 DUP10 MSTORE PUSH1 0x5 DUP8 MSTORE DUP8 DUP10 KECCAK256 DUP2 DUP11 MSTORE DUP8 MSTORE DUP8 DUP10 KECCAK256 PUSH1 0xFF PUSH1 0x2 DUP3 ADD SLOAD AND PUSH2 0x3C85 JUMPI JUMPDEST POP POP PUSH2 0x3C80 SWAP1 PUSH2 0x3A03 JUMP JUMPDEST PUSH2 0x3C12 JUMP JUMPDEST SWAP3 PUSH1 0x1 PUSH2 0x3C95 SWAP3 SWAP5 ADD SLOAD SWAP1 PUSH2 0x3BBB JUMP JUMPDEST SWAP2 DUP3 DUP5 LT PUSH2 0x3CA3 JUMPI DUP1 PUSH2 0x3C75 JUMP JUMPDEST SWAP8 POP POP POP POP POP POP POP POP SWAP1 JUMP JUMPDEST SWAP1 PUSH1 0x40 MLOAD SWAP2 DUP3 DUP2 SLOAD SWAP2 DUP3 DUP3 MSTORE PUSH1 0x20 SWAP3 DUP4 DUP4 ADD SWAP2 PUSH1 0x0 MSTORE DUP4 PUSH1 0x0 KECCAK256 SWAP4 PUSH1 0x0 SWAP1 JUMPDEST DUP3 DUP3 LT PUSH2 0x3CE4 JUMPI POP POP POP PUSH2 0x35B1 SWAP3 POP SUB DUP4 PUSH2 0x34AB JUMP JUMPDEST DUP6 SLOAD PUSH1 0x1 PUSH1 0x1 PUSH1 0xA0 SHL SUB AND DUP5 MSTORE PUSH1 0x1 SWAP6 DUP7 ADD SWAP6 DUP9 SWAP6 POP SWAP4 DUP2 ADD SWAP4 SWAP1 SWAP2 ADD SWAP1 PUSH2 0x3CCE JUMP JUMPDEST ISZERO PUSH2 0x3D0E JUMPI JUMP JUMPDEST PUSH1 0x40 MLOAD PUSH3 0x461BCD PUSH1 0xE5 SHL DUP2 MSTORE PUSH1 0x20 PUSH1 0x4 DUP3 ADD MSTORE PUSH1 0x29 PUSH1 0x24 DUP3 ADD MSTORE PUSH32 0x537175647943616D706169676E4D616E616765723A2061646D696E20726F6C65 PUSH1 0x44 DUP3 ADD MSTORE PUSH9 0x81C995C5D5A5C9959 PUSH1 0xBA SHL PUSH1 0x64 DUP3 ADD MSTORE PUSH1 0x84 SWAP1 REVERT INVALID MSTORE8 PUSH18 0x75647943616D706169676E4D616E61676572 GASPRICE KECCAK256 PUSH4 0x616D7061 PUSH10 0x676E206E97667070C54E CALL DUP3 0xB0 CREATE2 DUP6 DUP12 SUB 0x4B 0xEA 0xC1 0xB6 RETURN ADDMOD SWAP11 LOG2 0xD3 XOR DUP12 0xB1 0xE8 SWAP3 SWAP16 0x4F 0xA9 0xB9 0x29 LOG4 SWAP9 SMOD KECCAK256 0x5C 0xE4 0xD3 SSTORE MULMOD 0x2E CREATE2 0xA8 LOG1 DUP16 JUMP 0xE8 SWAP2 EXTCODECOPY DELEGATECALL LOG2 ADD 0xFB 0xE2 DUP8 DUP3 JUMPDEST MULMOD JUMP SWAP4 0xC2 OR PUSH22 0xA264697066735822122087E87B61ABA1C117EFCA5B8A 0xB9 SELFBALANCE 0x2A BYTE 0xCB SWAP16 ADDRESS 0x4B SWAP2 0xED PUSH32 0x697C41BAD84D8BB54064736F6C634300081400332F8788117E7EFF1D82E926EC PUSH26 0x4901D17C78024A50270940304540A733656F0D00000000000000 "},"gasEstimates":{"creation":{"codeDepositCost":"3173400","executionCost":"infinite","totalCost":"infinite"},"external":{"ADMIN_ROLE()":"727","DEFAULT_ADMIN_ROLE()":"807","OPERATOR_ROLE()":"991","activateCampaign(uint256)":"infinite","addAdmin(address)":"32642","burnAllTokens(uint256)":"infinite","campaignParticipants(uint256,uint256)":"6957","campaigns(uint256)":"infinite","closeCampaign(uint256)":"infinite","confirmSocialTasks(uint256,address)":"infinite","createCampaign(string,string,string,uint256,uint256,uint256,uint256,uint256,string[])":"infinite","emergencyPause()":"infinite","emergencyRecoverTokens(address,address)":"infinite","emergencyUnpause()":"infinite","getCampaign(uint256)":"infinite","getCampaignCount()":"2753","getCampaignParticipants(uint256)":"infinite","getCampaignsByStatus(uint8)":"infinite","getParticipant(uint256,address)":"infinite","getRoleAdmin(bytes32)":"2495","getTicketCount(uint256,address)":"5172","grantRole(bytes32,address)":"33406","hasRole(bytes32,address)":"3095","isEligibleForWinning(uint256,address)":"7620","participantIndexes(uint256,uint256)":"2901","participants(uint256,address)":"11067","pauseCampaign(uint256)":"infinite","paused()":"2699","rawFulfillRandomWords(uint256,uint256[])":"infinite","removeAdmin(address)":"32223","renounceRole(bytes32,address)":"29054","resumeCampaign(uint256)":"infinite","revokeRole(bytes32,address)":"33947","selectWinners(uint256)":"infinite","squdyToken()":"infinite","stakeSQUDY(uint256,uint256)":"infinite","supportsInterface(bytes4)":"283","vrfRequests(uint256)":"2445"},"internal":{"_findWinnerByTicket(uint256,uint256)":"infinite","_selectWinners(uint256,uint256[] memory)":"infinite","fulfillRandomWords(uint256,uint256[] memory)":"infinite"}},"methodIdentifiers":{"ADMIN_ROLE()":"75b238fc","DEFAULT_ADMIN_ROLE()":"a217fddf","OPERATOR_ROLE()":"f5b541a6","activateCampaign(uint256)":"493f1726","addAdmin(address)":"70480275","burnAllTokens(uint256)":"8c0c5902","campaignParticipants(uint256,uint256)":"35abd49b","campaigns(uint256)":"141961bc","closeCampaign(uint256)":"b0e1c1e1","confirmSocialTasks(uint256,address)":"b5801d91","createCampaign(string,string,string,uint256,uint256,uint256,uint256,uint256,string[])":"03463dd9","emergencyPause()":"51858e27","emergencyRecoverTokens(address,address)":"b7e26a2e","emergencyUnpause()":"4a4e3bd5","getCampaign(uint256)":"5598f8cc","getCampaignCount()":"6caa9218","getCampaignParticipants(uint256)":"8c6ab238","getCampaignsByStatus(uint8)":"4e182157","getParticipant(uint256,address)":"35f3ad7a","getRoleAdmin(bytes32)":"248a9ca3","getTicketCount(uint256,address)":"6a14dffd","grantRole(bytes32,address)":"2f2ff15d","hasRole(bytes32,address)":"91d14854","isEligibleForWinning(uint256,address)":"da8125fb","participantIndexes(uint256,uint256)":"5e3583f5","participants(uint256,address)":"02e060c6","pauseCampaign(uint256)":"de99347a","paused()":"5c975abb","rawFulfillRandomWords(uint256,uint256[])":"1fe543e3","removeAdmin(address)":"1785f53c","renounceRole(bytes32,address)":"36568abe","resumeCampaign(uint256)":"9e3696d9","revokeRole(bytes32,address)":"d547741f","selectWinners(uint256)":"39a2eb2a","squdyToken()":"4eb53f99","stakeSQUDY(uint256,uint256)":"f8ec73d1","supportsInterface(bytes4)":"01ffc9a7","vrfRequests(uint256)":"1a1d9252"}},"storageLayout":{"storage":[{"astId":181,"contract":"contracts/SqudyCampaignManager.sol:SqudyCampaignManager","label":"_roles","offset":0,"slot":"0","type":"t_mapping(t_bytes32,t_struct(RoleData)176_storage)"},{"astId":1632,"contract":"contracts/SqudyCampaignManager.sol:SqudyCampaignManager","label":"_status","offset":0,"slot":"1","type":"t_uint256"},{"astId":1522,"contract":"contracts/SqudyCampaignManager.sol:SqudyCampaignManager","label":"_paused","offset":0,"slot":"2","type":"t_bool"},{"astId":1980,"contract":"contracts/SqudyCampaignManager.sol:SqudyCampaignManager","label":"_campaignIds","offset":0,"slot":"3","type":"t_uint256"},{"astId":1985,"contract":"contracts/SqudyCampaignManager.sol:SqudyCampaignManager","label":"campaigns","offset":0,"slot":"4","type":"t_mapping(t_uint256,t_struct(Campaign)2049_storage)"},{"astId":1992,"contract":"contracts/SqudyCampaignManager.sol:SqudyCampaignManager","label":"participants","offset":0,"slot":"5","type":"t_mapping(t_uint256,t_mapping(t_address,t_struct(Participant)2062_storage))"},{"astId":1997,"contract":"contracts/SqudyCampaignManager.sol:SqudyCampaignManager","label":"campaignParticipants","offset":0,"slot":"6","type":"t_mapping(t_uint256,t_array(t_address)dyn_storage)"},{"astId":2003,"contract":"contracts/SqudyCampaignManager.sol:SqudyCampaignManager","label":"participantIndexes","offset":0,"slot":"7","type":"t_mapping(t_uint256,t_mapping(t_uint256,t_address))"},{"astId":2007,"contract":"contracts/SqudyCampaignManager.sol:SqudyCampaignManager","label":"vrfRequests","offset":0,"slot":"8","type":"t_mapping(t_uint256,t_uint256)"}],"types":{"t_address":{"encoding":"inplace","label":"address","numberOfBytes":"20"},"t_array(t_address)dyn_storage":{"base":"t_address","encoding":"dynamic_array","label":"address[]","numberOfBytes":"32"},"t_array(t_string_storage)dyn_storage":{"base":"t_string_storage","encoding":"dynamic_array","label":"string[]","numberOfBytes":"32"},"t_bool":{"encoding":"inplace","label":"bool","numberOfBytes":"1"},"t_bytes32":{"encoding":"inplace","label":"bytes32","numberOfBytes":"32"},"t_enum(CampaignStatus)2068":{"encoding":"inplace","label":"enum SqudyCampaignManager.CampaignStatus","numberOfBytes":"1"},"t_mapping(t_address,t_bool)":{"encoding":"mapping","key":"t_address","label":"mapping(address => bool)","numberOfBytes":"32","value":"t_bool"},"t_mapping(t_address,t_struct(Participant)2062_storage)":{"encoding":"mapping","key":"t_address","label":"mapping(address => struct SqudyCampaignManager.Participant)","numberOfBytes":"32","value":"t_struct(Participant)2062_storage"},"t_mapping(t_bytes32,t_struct(RoleData)176_storage)":{"encoding":"mapping","key":"t_bytes32","label":"mapping(bytes32 => struct AccessControl.RoleData)","numberOfBytes":"32","value":"t_struct(RoleData)176_storage"},"t_mapping(t_uint256,t_address)":{"encoding":"mapping","key":"t_uint256","label":"mapping(uint256 => address)","numberOfBytes":"32","value":"t_address"},"t_mapping(t_uint256,t_array(t_address)dyn_storage)":{"encoding":"mapping","key":"t_uint256","label":"mapping(uint256 => address[])","numberOfBytes":"32","value":"t_array(t_address)dyn_storage"},"t_mapping(t_uint256,t_mapping(t_address,t_struct(Participant)2062_storage))":{"encoding":"mapping","key":"t_uint256","label":"mapping(uint256 => mapping(address => struct SqudyCampaignManager.Participant))","numberOfBytes":"32","value":"t_mapping(t_address,t_struct(Participant)2062_storage)"},"t_mapping(t_uint256,t_mapping(t_uint256,t_address))":{"encoding":"mapping","key":"t_uint256","label":"mapping(uint256 => mapping(uint256 => address))","numberOfBytes":"32","value":"t_mapping(t_uint256,t_address)"},"t_mapping(t_uint256,t_struct(Campaign)2049_storage)":{"encoding":"mapping","key":"t_uint256","label":"mapping(uint256 => struct SqudyCampaignManager.Campaign)","numberOfBytes":"32","value":"t_struct(Campaign)2049_storage"},"t_mapping(t_uint256,t_uint256)":{"encoding":"mapping","key":"t_uint256","label":"mapping(uint256 => uint256)","numberOfBytes":"32","value":"t_uint256"},"t_string_storage":{"encoding":"bytes","label":"string","numberOfBytes":"32"},"t_struct(Campaign)2049_storage":{"encoding":"inplace","label":"struct SqudyCampaignManager.Campaign","members":[{"astId":2009,"contract":"contracts/SqudyCampaignManager.sol:SqudyCampaignManager","label":"id","offset":0,"slot":"0","type":"t_uint256"},{"astId":2011,"contract":"contracts/SqudyCampaignManager.sol:SqudyCampaignManager","label":"name","offset":0,"slot":"1","type":"t_string_storage"},{"astId":2013,"contract":"contracts/SqudyCampaignManager.sol:SqudyCampaignManager","label":"description","offset":0,"slot":"2","type":"t_string_storage"},{"astId":2015,"contract":"contracts/SqudyCampaignManager.sol:SqudyCampaignManager","label":"imageUrl","offset":0,"slot":"3","type":"t_string_storage"},{"astId":2017,"contract":"contracts/SqudyCampaignManager.sol:SqudyCampaignManager","label":"softCap","offset":0,"slot":"4","type":"t_uint256"},{"astId":2019,"contract":"contracts/SqudyCampaignManager.sol:SqudyCampaignManager","label":"hardCap","offset":0,"slot":"5","type":"t_uint256"},{"astId":2021,"contract":"contracts/SqudyCampaignManager.sol:SqudyCampaignManager","label":"ticketAmount","offset":0,"slot":"6","type":"t_uint256"},{"astId":2023,"contract":"contracts/SqudyCampaignManager.sol:SqudyCampaignManager","label":"currentAmount","offset":0,"slot":"7","type":"t_uint256"},{"astId":2025,"contract":"contracts/SqudyCampaignManager.sol:SqudyCampaignManager","label":"startDate","offset":0,"slot":"8","type":"t_uint256"},{"astId":2027,"contract":"contracts/SqudyCampaignManager.sol:SqudyCampaignManager","label":"endDate","offset":0,"slot":"9","type":"t_uint256"},{"astId":2029,"contract":"contracts/SqudyCampaignManager.sol:SqudyCampaignManager","label":"participantCount","offset":0,"slot":"10","type":"t_uint256"},{"astId":2032,"contract":"contracts/SqudyCampaignManager.sol:SqudyCampaignManager","label":"prizes","offset":0,"slot":"11","type":"t_array(t_string_storage)dyn_storage"},{"astId":2035,"contract":"contracts/SqudyCampaignManager.sol:SqudyCampaignManager","label":"winners","offset":0,"slot":"12","type":"t_array(t_address)dyn_storage"},{"astId":2038,"contract":"contracts/SqudyCampaignManager.sol:SqudyCampaignManager","label":"status","offset":0,"slot":"13","type":"t_enum(CampaignStatus)2068"},{"astId":2040,"contract":"contracts/SqudyCampaignManager.sol:SqudyCampaignManager","label":"tokensAreBurned","offset":1,"slot":"13","type":"t_bool"},{"astId":2042,"contract":"contracts/SqudyCampaignManager.sol:SqudyCampaignManager","label":"totalBurned","offset":0,"slot":"14","type":"t_uint256"},{"astId":2044,"contract":"contracts/SqudyCampaignManager.sol:SqudyCampaignManager","label":"winnerSelectionTxHash","offset":0,"slot":"15","type":"t_bytes32"},{"astId":2046,"contract":"contracts/SqudyCampaignManager.sol:SqudyCampaignManager","label":"createdAt","offset":0,"slot":"16","type":"t_uint256"},{"astId":2048,"contract":"contracts/SqudyCampaignManager.sol:SqudyCampaignManager","label":"updatedAt","offset":0,"slot":"17","type":"t_uint256"}],"numberOfBytes":"576"},"t_struct(Participant)2062_storage":{"encoding":"inplace","label":"struct SqudyCampaignManager.Participant","members":[{"astId":2051,"contract":"contracts/SqudyCampaignManager.sol:SqudyCampaignManager","label":"stakedAmount","offset":0,"slot":"0","type":"t_uint256"},{"astId":2053,"contract":"contracts/SqudyCampaignManager.sol:SqudyCampaignManager","label":"ticketCount","offset":0,"slot":"1","type":"t_uint256"},{"astId":2055,"contract":"contracts/SqudyCampaignManager.sol:SqudyCampaignManager","label":"hasCompletedSocial","offset":0,"slot":"2","type":"t_bool"},{"astId":2057,"contract":"contracts/SqudyCampaignManager.sol:SqudyCampaignManager","label":"isWinner","offset":1,"slot":"2","type":"t_bool"},{"astId":2059,"contract":"contracts/SqudyCampaignManager.sol:SqudyCampaignManager","label":"prizeIndex","offset":0,"slot":"3","type":"t_uint256"},{"astId":2061,"contract":"contracts/SqudyCampaignManager.sol:SqudyCampaignManager","label":"joinedAt","offset":0,"slot":"4","type":"t_uint256"}],"numberOfBytes":"160"},"t_struct(RoleData)176_storage":{"encoding":"inplace","label":"struct AccessControl.RoleData","members":[{"astId":173,"contract":"contracts/SqudyCampaignManager.sol:SqudyCampaignManager","label":"hasRole","offset":0,"slot":"0","type":"t_mapping(t_address,t_bool)"},{"astId":175,"contract":"contracts/SqudyCampaignManager.sol:SqudyCampaignManager","label":"adminRole","offset":0,"slot":"1","type":"t_bytes32"}],"numberOfBytes":"64"},"t_uint256":{"encoding":"inplace","label":"uint256","numberOfBytes":"32"}}},"userdoc":{"kind":"user","methods":{},"version":1}}}}