{
  "_format": "hh-sol-artifact-1",
  "contractName": "SimpleSqudyCampaignManager",
  "sourceName": "contracts/SimpleSqudyCampaignManager.sol",
  "abi": [
    {
      "inputs": [
        {
          "internalType": "address",
          "name": "_squdyToken",
          "type": "address"
        }
      ],
      "stateMutability": "nonpayable",
      "type": "constructor"
    },
    {
      "anonymous": false,
      "inputs": [
        {
          "indexed": true,
          "internalType": "uint256",
          "name": "campaignId",
          "type": "uint256"
        },
        {
          "indexed": true,
          "internalType": "address",
          "name": "creator",
          "type": "address"
        },
        {
          "indexed": false,
          "internalType": "string",
          "name": "title",
          "type": "string"
        }
      ],
      "name": "CampaignCreated",
      "type": "event"
    },
    {
      "anonymous": false,
      "inputs": [
        {
          "indexed": true,
          "internalType": "uint256",
          "name": "campaignId",
          "type": "uint256"
        },
        {
          "indexed": true,
          "internalType": "address",
          "name": "participant",
          "type": "address"
        },
        {
          "indexed": false,
          "internalType": "uint256",
          "name": "amount",
          "type": "uint256"
        },
        {
          "indexed": false,
          "internalType": "uint256",
          "name": "tickets",
          "type": "uint256"
        }
      ],
      "name": "StakeCreated",
      "type": "event"
    },
    {
      "anonymous": false,
      "inputs": [
        {
          "indexed": true,
          "internalType": "uint256",
          "name": "campaignId",
          "type": "uint256"
        },
        {
          "indexed": false,
          "internalType": "uint256",
          "name": "amount",
          "type": "uint256"
        }
      ],
      "name": "TokensBurned",
      "type": "event"
    },
    {
      "anonymous": false,
      "inputs": [
        {
          "indexed": true,
          "internalType": "uint256",
          "name": "campaignId",
          "type": "uint256"
        },
        {
          "indexed": false,
          "internalType": "address[]",
          "name": "winners",
          "type": "address[]"
        }
      ],
      "name": "WinnersSelected",
      "type": "event"
    },
    {
      "inputs": [
        {
          "internalType": "uint256",
          "name": "_campaignId",
          "type": "uint256"
        }
      ],
      "name": "burnCampaignTokens",
      "outputs": [],
      "stateMutability": "nonpayable",
      "type": "function"
    },
    {
      "inputs": [],
      "name": "campaignCounter",
      "outputs": [
        {
          "internalType": "uint256",
          "name": "",
          "type": "uint256"
        }
      ],
      "stateMutability": "view",
      "type": "function"
    },
    {
      "inputs": [
        {
          "internalType": "uint256",
          "name": "",
          "type": "uint256"
        },
        {
          "internalType": "uint256",
          "name": "",
          "type": "uint256"
        }
      ],
      "name": "campaignParticipants",
      "outputs": [
        {
          "internalType": "address",
          "name": "",
          "type": "address"
        }
      ],
      "stateMutability": "view",
      "type": "function"
    },
    {
      "inputs": [
        {
          "internalType": "uint256",
          "name": "",
          "type": "uint256"
        }
      ],
      "name": "campaigns",
      "outputs": [
        {
          "internalType": "address",
          "name": "creator",
          "type": "address"
        },
        {
          "internalType": "string",
          "name": "title",
          "type": "string"
        },
        {
          "internalType": "string",
          "name": "description",
          "type": "string"
        },
        {
          "internalType": "uint256",
          "name": "targetAmount",
          "type": "uint256"
        },
        {
          "internalType": "uint256",
          "name": "ticketPrice",
          "type": "uint256"
        },
        {
          "internalType": "uint256",
          "name": "startTime",
          "type": "uint256"
        },
        {
          "internalType": "uint256",
          "name": "endTime",
          "type": "uint256"
        },
        {
          "internalType": "uint256",
          "name": "maxParticipants",
          "type": "uint256"
        },
        {
          "internalType": "bool",
          "name": "isActive",
          "type": "bool"
        },
        {
          "internalType": "bool",
          "name": "winnersSelected",
          "type": "bool"
        },
        {
          "internalType": "uint256",
          "name": "totalParticipants",
          "type": "uint256"
        },
        {
          "internalType": "uint256",
          "name": "prizePool",
          "type": "uint256"
        }
      ],
      "stateMutability": "view",
      "type": "function"
    },
    {
      "inputs": [
        {
          "internalType": "string",
          "name": "_title",
          "type": "string"
        },
        {
          "internalType": "string",
          "name": "_description",
          "type": "string"
        },
        {
          "internalType": "uint256",
          "name": "_targetAmount",
          "type": "uint256"
        },
        {
          "internalType": "uint256",
          "name": "_ticketPrice",
          "type": "uint256"
        },
        {
          "internalType": "uint256",
          "name": "_startTime",
          "type": "uint256"
        },
        {
          "internalType": "uint256",
          "name": "_endTime",
          "type": "uint256"
        },
        {
          "internalType": "uint256",
          "name": "_maxParticipants",
          "type": "uint256"
        },
        {
          "internalType": "uint256",
          "name": "_prizePool",
          "type": "uint256"
        }
      ],
      "name": "createCampaign",
      "outputs": [
        {
          "internalType": "uint256",
          "name": "",
          "type": "uint256"
        }
      ],
      "stateMutability": "nonpayable",
      "type": "function"
    },
    {
      "inputs": [
        {
          "internalType": "uint256",
          "name": "_campaignId",
          "type": "uint256"
        }
      ],
      "name": "getCampaign",
      "outputs": [
        {
          "components": [
            {
              "internalType": "address",
              "name": "creator",
              "type": "address"
            },
            {
              "internalType": "string",
              "name": "title",
              "type": "string"
            },
            {
              "internalType": "string",
              "name": "description",
              "type": "string"
            },
            {
              "internalType": "uint256",
              "name": "targetAmount",
              "type": "uint256"
            },
            {
              "internalType": "uint256",
              "name": "ticketPrice",
              "type": "uint256"
            },
            {
              "internalType": "uint256",
              "name": "startTime",
              "type": "uint256"
            },
            {
              "internalType": "uint256",
              "name": "endTime",
              "type": "uint256"
            },
            {
              "internalType": "uint256",
              "name": "maxParticipants",
              "type": "uint256"
            },
            {
              "internalType": "bool",
              "name": "isActive",
              "type": "bool"
            },
            {
              "internalType": "bool",
              "name": "winnersSelected",
              "type": "bool"
            },
            {
              "internalType": "uint256",
              "name": "totalParticipants",
              "type": "uint256"
            },
            {
              "internalType": "uint256",
              "name": "prizePool",
              "type": "uint256"
            }
          ],
          "internalType": "struct SimpleSqudyCampaignManager.Campaign",
          "name": "",
          "type": "tuple"
        }
      ],
      "stateMutability": "view",
      "type": "function"
    },
    {
      "inputs": [
        {
          "internalType": "uint256",
          "name": "_campaignId",
          "type": "uint256"
        }
      ],
      "name": "getCampaignParticipants",
      "outputs": [
        {
          "internalType": "address[]",
          "name": "",
          "type": "address[]"
        }
      ],
      "stateMutability": "view",
      "type": "function"
    },
    {
      "inputs": [
        {
          "internalType": "uint256",
          "name": "_campaignId",
          "type": "uint256"
        }
      ],
      "name": "getTotalStaked",
      "outputs": [
        {
          "internalType": "uint256",
          "name": "",
          "type": "uint256"
        }
      ],
      "stateMutability": "view",
      "type": "function"
    },
    {
      "inputs": [
        {
          "internalType": "uint256",
          "name": "_campaignId",
          "type": "uint256"
        },
        {
          "internalType": "address",
          "name": "_user",
          "type": "address"
        }
      ],
      "name": "getUserStake",
      "outputs": [
        {
          "components": [
            {
              "internalType": "uint256",
              "name": "amount",
              "type": "uint256"
            },
            {
              "internalType": "uint256",
              "name": "tickets",
              "type": "uint256"
            },
            {
              "internalType": "uint256",
              "name": "timestamp",
              "type": "uint256"
            },
            {
              "internalType": "bool",
              "name": "withdrawn",
              "type": "bool"
            }
          ],
          "internalType": "struct SimpleSqudyCampaignManager.Stake",
          "name": "",
          "type": "tuple"
        }
      ],
      "stateMutability": "view",
      "type": "function"
    },
    {
      "inputs": [
        {
          "internalType": "uint256",
          "name": "",
          "type": "uint256"
        },
        {
          "internalType": "address",
          "name": "",
          "type": "address"
        }
      ],
      "name": "hasStaked",
      "outputs": [
        {
          "internalType": "bool",
          "name": "",
          "type": "bool"
        }
      ],
      "stateMutability": "view",
      "type": "function"
    },
    {
      "inputs": [],
      "name": "owner",
      "outputs": [
        {
          "internalType": "address",
          "name": "",
          "type": "address"
        }
      ],
      "stateMutability": "view",
      "type": "function"
    },
    {
      "inputs": [
        {
          "internalType": "uint256",
          "name": "_campaignId",
          "type": "uint256"
        },
        {
          "internalType": "address[]",
          "name": "_winners",
          "type": "address[]"
        }
      ],
      "name": "selectWinners",
      "outputs": [],
      "stateMutability": "nonpayable",
      "type": "function"
    },
    {
      "inputs": [],
      "name": "squdyToken",
      "outputs": [
        {
          "internalType": "contract IERC20",
          "name": "",
          "type": "address"
        }
      ],
      "stateMutability": "view",
      "type": "function"
    },
    {
      "inputs": [
        {
          "internalType": "uint256",
          "name": "_campaignId",
          "type": "uint256"
        },
        {
          "internalType": "uint256",
          "name": "_amount",
          "type": "uint256"
        }
      ],
      "name": "stakeInCampaign",
      "outputs": [],
      "stateMutability": "nonpayable",
      "type": "function"
    },
    {
      "inputs": [
        {
          "internalType": "uint256",
          "name": "",
          "type": "uint256"
        },
        {
          "internalType": "address",
          "name": "",
          "type": "address"
        }
      ],
      "name": "stakes",
      "outputs": [
        {
          "internalType": "uint256",
          "name": "amount",
          "type": "uint256"
        },
        {
          "internalType": "uint256",
          "name": "tickets",
          "type": "uint256"
        },
        {
          "internalType": "uint256",
          "name": "timestamp",
          "type": "uint256"
        },
        {
          "internalType": "bool",
          "name": "withdrawn",
          "type": "bool"
        }
      ],
      "stateMutability": "view",
      "type": "function"
    },
    {
      "inputs": [
        {
          "internalType": "uint256",
          "name": "",
          "type": "uint256"
        }
      ],
      "name": "totalStaked",
      "outputs": [
        {
          "internalType": "uint256",
          "name": "",
          "type": "uint256"
        }
      ],
      "stateMutability": "view",
      "type": "function"
    }
  ],
  "bytecode": "0x60a0346100c757601f6118ae38819003918201601f19168301916001600160401b038311848410176100cc578084926020946040528339810103126100c757516001600160a01b038116908190036100c757801561009257608052600180546001600160a01b031916331790556040516117cb90816100e382396080518181816109ce0152818161113b015261122c0152f35b60405162461bcd60e51b815260206004820152600d60248201526c24b73b30b634b2103a37b5b2b760991b6044820152606490fd5b600080fd5b634e487b7160e01b600052604160045260246000fdfe6080604052600436101561001257600080fd5b60003560e01c8063141961bc146113a25780632f8899f31461116a57806335abd49b146113585780633ae274541461119657806341cb8c201461116a5780634eb53f99146111255780635598f8cc14610f395780638c6ab23814610eb65780638da5cb5b14610e8d5780639626a23014610dd6578063a9a3bba414610d67578063c17d1924146108f6578063ccf7c20a1461069f578063cf1ee2fa1461013c578063de360715146100ef5763fca604d7146100cc57600080fd5b346100ea5760003660031901126100ea576020600054604051908152f35b600080fd5b346100ea5760403660031901126100ea57610108611688565b600435600052600460205260406000209060018060a01b0316600052602052602060ff604060002054166040519015158152f35b346100ea576101003660031901126100ea5760043567ffffffffffffffff81116100ea5761016e90369060040161169e565b60243567ffffffffffffffff81116100ea5761018e90369060040161169e565b9080511561066c576044351561063657606435156105fa5742608435106105c35760843560a435111561058b576101c66000546116f5565b9081600055604051926101d8846114bf565b33845281602085015260408401526044356060840152606435608084015260843560a084015260a43560c084015260c43560e084015260016101008401526000610120840152600061014084015260e435610160840152816000526002602052604060002060018060a01b038451166bffffffffffffffffffffffff60a01b825416178155602084015180519067ffffffffffffffff82116104aa5781906102836001850154611485565b601f8111610538575b50602090601f83116001146104cb576000926104c0575b50508160011b916000199060031b1c19161760018201555b604084015193845167ffffffffffffffff81116104aa576102df6002840154611485565b95601f8711610463575b602096508690601f83116001146103ef579180600a9492610160946000926103e4575b50508160011b916000199060031b1c19161760028501555b606081015160038501556080810151600485015560a0810151600585015560c0810151600685015560e08101516007850155600884016103776101008301511515829060ff801983541691151516179055565b610120820151151561ff0082549160081b169061ff00191617905561014081015160098501550151910155817fc04c663886cae794dc52158f70fe6c8ee3b0140d4f48647282f9b693ff688a65604051858152806103d93395888301906115c0565b0390a3604051908152f35b01519050898061030c565b9060028501600052876000209160005b601f198516811061044c575092600a94926001926101609583601f19811610610433575b505050811b016002850155610324565b015160001960f88460031b161c19169055898080610423565b9192896001819286850151815501940192016103ff565b600284016000526020600020601f830160051c8101602084106104a3575b601f890160051c820181106104975750506102e9565b60008155600101610481565b5080610481565b634e487b7160e01b600052604160045260246000fd5b0151905086806102a3565b600185016000908152602081209350601f198516905b8181106105205750908460019594939210610507575b505050811b0160018201556102bb565b015160001960f88460031b161c191690558680806104f7565b929360206001819287860151815501950193016104e1565b909150600184016000526020600020601f840160051c810160208510610584575b90849392915b601f830160051c8201811061057557505061028c565b6000815585945060010161055f565b5080610559565b60405162461bcd60e51b815260206004820152601060248201526f496e76616c696420656e642074696d6560801b6044820152606490fd5b60405162461bcd60e51b815260206004820152600f60248201526e14dd185c9d081d1a5b59481c185cdd608a1b6044820152606490fd5b60405162461bcd60e51b8152602060048201526014602482015273496e76616c6964207469636b657420707269636560601b6044820152606490fd5b60405162461bcd60e51b815260206004820152600e60248201526d125b9d985b1a59081d185c99d95d60921b6044820152606490fd5b60405162461bcd60e51b815260206004820152600b60248201526a456d707479207469746c6560a81b6044820152606490fd5b346100ea5760403660031901126100ea5760043567ffffffffffffffff602480358281116100ea57366023820112156100ea5780600401359283116108e157600583811b91604051926020956106f7878301866114f8565b84528486850191830101913683116100ea578501905b8282106108c257505050841515806108b6575b61072990611704565b8460005260028452604060002060018060a01b039061074c82825416331461175b565b6006810154421115610880576008019283549660ff94858960081c166108495760005b8351811015610807578260005260048952604060002084518210156107f257858a83891b870101511660005289528660406000205416156107b8576107b3906116f5565b61076f565b60405162461bcd60e51b8152600481018a90526013818a01527257696e6e6572206469646e2774207374616b6560681b6044820152606490fd5b88634e487b7160e01b60005260326004526000fd5b5061ff001989166101001790556040517f5fa006001f7473b386c7bb4db093cb973ce5c895e51c3813bdbd723097d0349e90806108448582611644565b0390a2005b60405162461bcd60e51b8152600481018990526010818901526f15da5b9b995c9cc81cd95b1958dd195960821b6044820152606490fd5b60405162461bcd60e51b815260048101879052600f818701526e43616d706169676e2061637469766560881b6044820152606490fd5b50600054851115610720565b81356001600160a01b03811681036100ea57815290860190860161070d565b50634e487b7160e01b60009081526041600452fd5b346100ea5761090436611600565b9080151580610d5b575b61091790611704565b80600052602060028152604060002060ff60088201541615610d205760058101544210610ced57600601544211610cc1578215610c8c578160005260048152604060002033600052815260ff60406000205416610c57578160005260028152604060002090600782015480610c0f575b5060048201548015610bf9578404918215610bb4576040516323b872dd60e01b8152336004820152306024820152604481018690526001600160a01b0390838160648160007f000000000000000000000000000000000000000000000000000000000000000087165af1908115610ba857600091610b7b575b5015610b4457610a6d604051610a15816114dc565b8781526003858201878152604083014281526060840191600083528a600052838952604060002033600052895260406000209451855551600185015551600284015551151591019060ff801983541691151516179055565b846000526004835260406000203360005283526040600020600160ff19825416179055846000526005835260406000208054680100000000000000008110156104aa57610abf91600182018155611616565b819291549060031b9133831b921b191617905583600052600682526040600020908154868101809111610b2e576009925501610afb81546116f5565b90556040519384528301527ff234bd1a05f5a6f0b6af3f0c8bacad613635f0022e2ec2162717ef21a1591d6a60403393a3005b634e487b7160e01b600052601160045260246000fd5b60405162461bcd60e51b815260048101849052600f60248201526e151c985b9cd9995c8819985a5b1959608a1b6044820152606490fd5b610b9b9150843d8611610ba1575b610b9381836114f8565b810190611743565b87610a00565b503d610b89565b6040513d6000823e3d90fd5b60405162461bcd60e51b815260048101839052601860248201527f496e73756666696369656e7420666f72207469636b65747300000000000000006044820152606490fd5b634e487b7160e01b600052601260045260246000fd5b60098301541015610c205784610987565b6064906040519062461bcd60e51b82526004820152601060248201526f4d6178207061727469636970616e747360801b6044820152fd5b6064906040519062461bcd60e51b82526004820152600e60248201526d105b1c9958591e481cdd185ad95960921b6044820152fd5b6064906040519062461bcd60e51b82526004820152600e60248201526d125b9d985b1a5908185b5bdd5b9d60921b6044820152fd5b6064906040519062461bcd60e51b825260048201526005602482015264115b99195960da1b6044820152fd5b60405162461bcd60e51b815260048101839052600b60248201526a139bdd081cdd185c9d195960aa1b6044820152606490fd5b60405162461bcd60e51b815260048101839052601360248201527243616d706169676e206e6f742061637469766560681b6044820152606490fd5b5060005481111561090e565b346100ea5760403660031901126100ea57610d80611688565b600435600052600360205260406000209060018060a01b03166000526020526080604060002080549060018101549060ff6003600283015492015416916040519384526020840152604083015215156060820152f35b346100ea5760403660031901126100ea57610def611688565b60006060604051610dff816114dc565b8281528260208201528260408201520152600435600052600360205260406000209060018060a01b031660005260205260806040600020604051610e42816114dc565b815491828252600181015460208301908152606060ff600360028501549460408701958652015416930192151583526040519384525160208401525160408301525115156060820152f35b346100ea5760003660031901126100ea576001546040516001600160a01b039091168152602090f35b346100ea576020806003193601126100ea5760043560005260058152604060002090604051908181845491828152019360005281600020916000905b828210610f1957610f1585610f09818903826114f8565b60405191829182611644565b0390f35b83546001600160a01b031686529485019460019384019390910190610ef2565b346100ea5760203660031901126100ea576004356000610160604051610f5e816114bf565b82815260606020820152606060408201528260608201528260808201528260a08201528260c08201528260e0820152826101008201528261012082015282610140820152015280151580611119575b610fb690611704565b60005260026020526040600020600a60405191610fd2836114bf565b80546001600160a01b03168352610feb6001820161151a565b6020840152610ffc6002820161151a565b60408401526003810154606084015260048101546080840152600581015460a0840152600681015460c0840152600781015460e084015260ff6008820154818116151561010086015260081c1615156101208401526009810154610140840152015461016082015260405180916020825260018060a01b0381511660208301526101606110b361109d602084015161018060408701526101a08601906115c0565b6040840151858203601f190160608701526115c0565b9160608101516080850152608081015160a085015260a081015160c085015260c081015160e085015260e0810151610100850152610100810151151561012085015261012081015115156101408501526101408101518285015201516101808301520390f35b50600054811115610fad565b346100ea5760003660031901126100ea576040517f00000000000000000000000000000000000000000000000000000000000000006001600160a01b03168152602090f35b346100ea5760203660031901126100ea5760043560005260066020526020604060002054604051908152f35b346100ea576020806003193601126100ea57600435908115158061134c575b6111be90611704565b8160005260028152604060002060ff600860018060a01b03926111e584825416331461175b565b015460081c16156113105782600052600682526040600020549081156112df578260009160446040518094819363a9059cbb60e01b835261dead60048401528760248401527f0000000000000000000000000000000000000000000000000000000000000000165af1908115610ba8576000916112c2575b501561128f57907f8bc81353cf6671d259d22783e39ed930583c86f3f4cf7e981298e6a872dfb15d91604051908152a2005b60405162461bcd60e51b815260048101839052600b60248201526a109d5c9b8819985a5b195960aa1b6044820152606490fd5b6112d99150833d8511610ba157610b9381836114f8565b8461125d565b60405162461bcd60e51b81526004810184905260096024820152684e6f20746f6b656e7360b81b6044820152606490fd5b60405162461bcd60e51b815260048101839052601460248201527315da5b9b995c9cc81b9bdd081cd95b1958dd195960621b6044820152606490fd5b506000548211156111b5565b346100ea5761136636611600565b906000526005602052604060002080548210156100ea5760209161138991611616565b905460405160039290921b1c6001600160a01b03168152f35b346100ea5760203660031901126100ea57600435600090815260026020526040902080546001600160a01b03166113db6001830161151a565b916113e86002820161151a565b60038201549160ff600482015460058301546006840154600785015491600886015493611444600a6009890154980154986114366040519d8e9d8e528d6101809081602082015201906115c0565b8c810360408e0152906115c0565b9860608b015260808a015260a089015260c088015260e0870152818116151561010087015260081c1615156101208501526101408401526101608301520390f35b90600182811c921680156114b5575b602083101461149f57565b634e487b7160e01b600052602260045260246000fd5b91607f1691611494565b610180810190811067ffffffffffffffff8211176104aa57604052565b6080810190811067ffffffffffffffff8211176104aa57604052565b90601f8019910116810190811067ffffffffffffffff8211176104aa57604052565b906040519182600082549261152e84611485565b90818452600194858116908160001461159d575060011461155a575b5050611558925003836114f8565b565b9093915060005260209081600020936000915b8183106115855750506115589350820101388061154a565b8554888401850152948501948794509183019161156d565b91505061155894506020925060ff191682840152151560051b820101388061154a565b919082519283825260005b8481106115ec575050826000602080949584010152601f8019910116010190565b6020818301810151848301820152016115cb565b60409060031901126100ea576004359060243590565b805482101561162e5760005260206000200190600090565b634e487b7160e01b600052603260045260246000fd5b6020908160408183019282815285518094520193019160005b82811061166b575050505090565b83516001600160a01b03168552938101939281019260010161165d565b602435906001600160a01b03821682036100ea57565b81601f820112156100ea5780359067ffffffffffffffff82116104aa57604051926116d3601f8401601f1916602001856114f8565b828452602083830101116100ea57816000926020809301838601378301015290565b6000198114610b2e5760010190565b1561170b57565b60405162461bcd60e51b815260206004820152601060248201526f24b73b30b634b21031b0b6b830b4b3b760811b6044820152606490fd5b908160209103126100ea575180151581036100ea5790565b1561176257565b60405162461bcd60e51b815260206004820152600b60248201526a2737ba1031b932b0ba37b960a91b6044820152606490fdfea2646970667358221220c3b20597fa47d711886ebbe94240e2241fab7c2528beaf4b282d12e72f462a9164736f6c63430008140033",
  "linkReferences": {},
  "deployedLinkReferences": {}
}