{
  "_format": "hh-sol-artifact-1",
  "contractName": "SqudyToken",
  "sourceName": "contracts/SqudyToken.sol",
  "abi": [
    {
      "inputs": [
        {
          "internalType": "address",
          "name": "initialOwner",
          "type": "address"
        }
      ],
      "stateMutability": "nonpayable",
      "type": "constructor"
    },
    {
      "inputs": [
        {
          "internalType": "address",
          "name": "spender",
          "type": "address"
        },
        {
          "internalType": "uint256",
          "name": "allowance",
          "type": "uint256"
        },
        {
          "internalType": "uint256",
          "name": "needed",
          "type": "uint256"
        }
      ],
      "name": "ERC20InsufficientAllowance",
      "type": "error"
    },
    {
      "inputs": [
        {
          "internalType": "address",
          "name": "sender",
          "type": "address"
        },
        {
          "internalType": "uint256",
          "name": "balance",
          "type": "uint256"
        },
        {
          "internalType": "uint256",
          "name": "needed",
          "type": "uint256"
        }
      ],
      "name": "ERC20InsufficientBalance",
      "type": "error"
    },
    {
      "inputs": [
        {
          "internalType": "address",
          "name": "approver",
          "type": "address"
        }
      ],
      "name": "ERC20InvalidApprover",
      "type": "error"
    },
    {
      "inputs": [
        {
          "internalType": "address",
          "name": "receiver",
          "type": "address"
        }
      ],
      "name": "ERC20InvalidReceiver",
      "type": "error"
    },
    {
      "inputs": [
        {
          "internalType": "address",
          "name": "sender",
          "type": "address"
        }
      ],
      "name": "ERC20InvalidSender",
      "type": "error"
    },
    {
      "inputs": [
        {
          "internalType": "address",
          "name": "spender",
          "type": "address"
        }
      ],
      "name": "ERC20InvalidSpender",
      "type": "error"
    },
    {
      "inputs": [],
      "name": "EnforcedPause",
      "type": "error"
    },
    {
      "inputs": [],
      "name": "ExpectedPause",
      "type": "error"
    },
    {
      "inputs": [
        {
          "internalType": "address",
          "name": "owner",
          "type": "address"
        }
      ],
      "name": "OwnableInvalidOwner",
      "type": "error"
    },
    {
      "inputs": [
        {
          "internalType": "address",
          "name": "account",
          "type": "address"
        }
      ],
      "name": "OwnableUnauthorizedAccount",
      "type": "error"
    },
    {
      "anonymous": false,
      "inputs": [
        {
          "indexed": true,
          "internalType": "address",
          "name": "owner",
          "type": "address"
        },
        {
          "indexed": true,
          "internalType": "address",
          "name": "spender",
          "type": "address"
        },
        {
          "indexed": false,
          "internalType": "uint256",
          "name": "value",
          "type": "uint256"
        }
      ],
      "name": "Approval",
      "type": "event"
    },
    {
      "anonymous": false,
      "inputs": [
        {
          "indexed": true,
          "internalType": "address",
          "name": "burner",
          "type": "address"
        },
        {
          "indexed": false,
          "internalType": "bool",
          "name": "authorized",
          "type": "bool"
        }
      ],
      "name": "BurnerAuthorized",
      "type": "event"
    },
    {
      "anonymous": false,
      "inputs": [
        {
          "indexed": true,
          "internalType": "address",
          "name": "previousOwner",
          "type": "address"
        },
        {
          "indexed": true,
          "internalType": "address",
          "name": "newOwner",
          "type": "address"
        }
      ],
      "name": "OwnershipTransferred",
      "type": "event"
    },
    {
      "anonymous": false,
      "inputs": [
        {
          "indexed": false,
          "internalType": "address",
          "name": "account",
          "type": "address"
        }
      ],
      "name": "Paused",
      "type": "event"
    },
    {
      "anonymous": false,
      "inputs": [
        {
          "indexed": true,
          "internalType": "address",
          "name": "campaign",
          "type": "address"
        },
        {
          "indexed": false,
          "internalType": "uint256",
          "name": "amount",
          "type": "uint256"
        }
      ],
      "name": "TokensBurnedByCampaign",
      "type": "event"
    },
    {
      "anonymous": false,
      "inputs": [
        {
          "indexed": true,
          "internalType": "address",
          "name": "from",
          "type": "address"
        },
        {
          "indexed": true,
          "internalType": "address",
          "name": "to",
          "type": "address"
        },
        {
          "indexed": false,
          "internalType": "uint256",
          "name": "value",
          "type": "uint256"
        }
      ],
      "name": "Transfer",
      "type": "event"
    },
    {
      "anonymous": false,
      "inputs": [
        {
          "indexed": false,
          "internalType": "address",
          "name": "account",
          "type": "address"
        }
      ],
      "name": "Unpaused",
      "type": "event"
    },
    {
      "inputs": [],
      "name": "INITIAL_SUPPLY",
      "outputs": [
        {
          "internalType": "uint256",
          "name": "",
          "type": "uint256"
        }
      ],
      "stateMutability": "view",
      "type": "function"
    },
    {
      "inputs": [],
      "name": "MAX_SUPPLY",
      "outputs": [
        {
          "internalType": "uint256",
          "name": "",
          "type": "uint256"
        }
      ],
      "stateMutability": "view",
      "type": "function"
    },
    {
      "inputs": [
        {
          "internalType": "address",
          "name": "owner",
          "type": "address"
        },
        {
          "internalType": "address",
          "name": "spender",
          "type": "address"
        }
      ],
      "name": "allowance",
      "outputs": [
        {
          "internalType": "uint256",
          "name": "",
          "type": "uint256"
        }
      ],
      "stateMutability": "view",
      "type": "function"
    },
    {
      "inputs": [
        {
          "internalType": "address",
          "name": "spender",
          "type": "address"
        },
        {
          "internalType": "uint256",
          "name": "value",
          "type": "uint256"
        }
      ],
      "name": "approve",
      "outputs": [
        {
          "internalType": "bool",
          "name": "",
          "type": "bool"
        }
      ],
      "stateMutability": "nonpayable",
      "type": "function"
    },
    {
      "inputs": [
        {
          "internalType": "address",
          "name": "",
          "type": "address"
        }
      ],
      "name": "authorizedBurners",
      "outputs": [
        {
          "internalType": "bool",
          "name": "",
          "type": "bool"
        }
      ],
      "stateMutability": "view",
      "type": "function"
    },
    {
      "inputs": [
        {
          "internalType": "address",
          "name": "account",
          "type": "address"
        }
      ],
      "name": "balanceOf",
      "outputs": [
        {
          "internalType": "uint256",
          "name": "",
          "type": "uint256"
        }
      ],
      "stateMutability": "view",
      "type": "function"
    },
    {
      "inputs": [
        {
          "internalType": "uint256",
          "name": "amount",
          "type": "uint256"
        }
      ],
      "name": "burn",
      "outputs": [],
      "stateMutability": "nonpayable",
      "type": "function"
    },
    {
      "inputs": [
        {
          "internalType": "address",
          "name": "from",
          "type": "address"
        },
        {
          "internalType": "uint256",
          "name": "amount",
          "type": "uint256"
        }
      ],
      "name": "burnFrom",
      "outputs": [],
      "stateMutability": "nonpayable",
      "type": "function"
    },
    {
      "inputs": [],
      "name": "circulatingSupply",
      "outputs": [
        {
          "internalType": "uint256",
          "name": "",
          "type": "uint256"
        }
      ],
      "stateMutability": "view",
      "type": "function"
    },
    {
      "inputs": [],
      "name": "decimals",
      "outputs": [
        {
          "internalType": "uint8",
          "name": "",
          "type": "uint8"
        }
      ],
      "stateMutability": "view",
      "type": "function"
    },
    {
      "inputs": [],
      "name": "getBurnStats",
      "outputs": [
        {
          "internalType": "uint256",
          "name": "burned",
          "type": "uint256"
        },
        {
          "internalType": "uint256",
          "name": "circulating",
          "type": "uint256"
        },
        {
          "internalType": "uint256",
          "name": "burnRate",
          "type": "uint256"
        }
      ],
      "stateMutability": "view",
      "type": "function"
    },
    {
      "inputs": [
        {
          "internalType": "address",
          "name": "to",
          "type": "address"
        },
        {
          "internalType": "uint256",
          "name": "amount",
          "type": "uint256"
        }
      ],
      "name": "mint",
      "outputs": [],
      "stateMutability": "nonpayable",
      "type": "function"
    },
    {
      "inputs": [],
      "name": "name",
      "outputs": [
        {
          "internalType": "string",
          "name": "",
          "type": "string"
        }
      ],
      "stateMutability": "view",
      "type": "function"
    },
    {
      "inputs": [],
      "name": "owner",
      "outputs": [
        {
          "internalType": "address",
          "name": "",
          "type": "address"
        }
      ],
      "stateMutability": "view",
      "type": "function"
    },
    {
      "inputs": [],
      "name": "pause",
      "outputs": [],
      "stateMutability": "nonpayable",
      "type": "function"
    },
    {
      "inputs": [],
      "name": "paused",
      "outputs": [
        {
          "internalType": "bool",
          "name": "",
          "type": "bool"
        }
      ],
      "stateMutability": "view",
      "type": "function"
    },
    {
      "inputs": [
        {
          "internalType": "address",
          "name": "token",
          "type": "address"
        },
        {
          "internalType": "address",
          "name": "to",
          "type": "address"
        },
        {
          "internalType": "uint256",
          "name": "amount",
          "type": "uint256"
        }
      ],
      "name": "recoverERC20",
      "outputs": [],
      "stateMutability": "nonpayable",
      "type": "function"
    },
    {
      "inputs": [
        {
          "internalType": "address payable",
          "name": "to",
          "type": "address"
        }
      ],
      "name": "recoverETH",
      "outputs": [],
      "stateMutability": "nonpayable",
      "type": "function"
    },
    {
      "inputs": [
        {
          "internalType": "address",
          "name": "to",
          "type": "address"
        },
        {
          "internalType": "uint256",
          "name": "amount",
          "type": "uint256"
        }
      ],
      "name": "recoverOwnTokens",
      "outputs": [],
      "stateMutability": "nonpayable",
      "type": "function"
    },
    {
      "inputs": [],
      "name": "renounceOwnership",
      "outputs": [],
      "stateMutability": "view",
      "type": "function"
    },
    {
      "inputs": [
        {
          "internalType": "address",
          "name": "burner",
          "type": "address"
        },
        {
          "internalType": "bool",
          "name": "authorized",
          "type": "bool"
        }
      ],
      "name": "setAuthorizedBurner",
      "outputs": [],
      "stateMutability": "nonpayable",
      "type": "function"
    },
    {
      "inputs": [],
      "name": "symbol",
      "outputs": [
        {
          "internalType": "string",
          "name": "",
          "type": "string"
        }
      ],
      "stateMutability": "view",
      "type": "function"
    },
    {
      "inputs": [],
      "name": "totalBurned",
      "outputs": [
        {
          "internalType": "uint256",
          "name": "",
          "type": "uint256"
        }
      ],
      "stateMutability": "view",
      "type": "function"
    },
    {
      "inputs": [],
      "name": "totalSupply",
      "outputs": [
        {
          "internalType": "uint256",
          "name": "",
          "type": "uint256"
        }
      ],
      "stateMutability": "view",
      "type": "function"
    },
    {
      "inputs": [
        {
          "internalType": "address",
          "name": "to",
          "type": "address"
        },
        {
          "internalType": "uint256",
          "name": "value",
          "type": "uint256"
        }
      ],
      "name": "transfer",
      "outputs": [
        {
          "internalType": "bool",
          "name": "",
          "type": "bool"
        }
      ],
      "stateMutability": "nonpayable",
      "type": "function"
    },
    {
      "inputs": [
        {
          "internalType": "address",
          "name": "from",
          "type": "address"
        },
        {
          "internalType": "address",
          "name": "to",
          "type": "address"
        },
        {
          "internalType": "uint256",
          "name": "value",
          "type": "uint256"
        }
      ],
      "name": "transferFrom",
      "outputs": [
        {
          "internalType": "bool",
          "name": "",
          "type": "bool"
        }
      ],
      "stateMutability": "nonpayable",
      "type": "function"
    },
    {
      "inputs": [
        {
          "internalType": "address",
          "name": "newOwner",
          "type": "address"
        }
      ],
      "name": "transferOwnership",
      "outputs": [],
      "stateMutability": "nonpayable",
      "type": "function"
    },
    {
      "inputs": [],
      "name": "unpause",
      "outputs": [],
      "stateMutability": "nonpayable",
      "type": "function"
    }
  ],
  "bytecode": "0x6080346200047c57601f620015ad38819003828101601f19908116850194926001600160401b0392838711858810176200037d57808592604098895283396020948591810103126200047c57516001600160a01b0380821695918690036200047c576200006b62000481565b93600b85526a29a8aaa22c902a37b5b2b760a91b868601526200008d62000481565b60059384825264535155445960d81b888301528651918383116200037d5760039283546001998a82811c9216801562000471575b8c8310146200045b578b828685941162000404575b50508b908583116001146200039f5760009262000393575b505060001982861b1c191690891b1783555b80519384116200037d5760049687548981811c9116801562000372575b8b8210146200035d5790818487969594931162000303575b508a9285116001146200029b57506000936200028f575b505082871b92600019911b1c19161783555b8515620002785781546001600160a01b0319811687179283905560ff92918791167f8be0079c531659141344cd1fd0a4f28419497f9722a3daafe3b4186f6b6457e0600080a360a01c166200026a576002546a52b7d2dcc80cd2e40000009182820180921162000255575060007fddf252ad1be2c89b69c2b068fc378daa952ba7f163c4a11628f55a4df523b3ef857f820feb1c986b7f5bafd6bfc94f2a065587da0b565ed6fd3a4bcc0a2e71d7a52496959488946002558484528382528984208181540190558951908152a38360005260068252846000208160ff198254161790558451908152a25161110b9081620004a28239f35b601190634e487b7160e01b6000525260246000fd5b845163d93c066560e01b8152fd5b8651631e4fbdf760e01b8152600081850152602490fd5b0151915038806200014c565b8995939291931692886000528a6000209360005b8c828210620002ec5750508511620002d1575b50505050811b0183556200015e565b01519060f884600019921b161c1916905538808080620002c2565b8385015187558c98909601959384019301620002af565b909192939450886000528a600020848088018a1c8201928d891062000353575b918c9189989796959493018b1c01915b8281106200034357505062000135565b600081558897508c910162000333565b9250819262000323565b602289634e487b7160e01b6000525260246000fd5b90607f16906200011d565b634e487b7160e01b600052604160045260246000fd5b015190503880620000ee565b908c918b8d95168860005283600020936000905b828210620003ec5750508411620003d3575b505050811b01835562000100565b015160001983881b60f8161c19169055388080620003c5565b8385015186558f979095019493840193018f620003b3565b90919250866000528582600020918186018c1c830193861062000451575b918d9186959493018c1c01915b8281106200044157508d9150620000d6565b600081558594508d91016200042f565b9250819262000422565b634e487b7160e01b600052602260045260246000fd5b91607f1691620000c1565b600080fd5b60408051919082016001600160401b038111838210176200037d5760405256fe6080604081815260048036101561001557600080fd5b600092833560e01c90816306fdde0314610cd557508063095ea7b314610c2c5780630ac28ff814610baa5780631171bda914610b0957838163134dfcd814610aa45750806318160ddd1461047357806323b872dd146109c35780632f37ea7a1461095f5780632ff2e9dc14610939578063313ce5671461091d57806332cb6b0c146108f65780633f4ba83a1461088757806340c10f191461078157806342966c68146107515780635c975abb1461072a57806370a08231146106f3578063715018a61461069357806379cc67901461051c5780638456cb59146104bb5780638da5cb5b146104925780639358928b1461047357806395d89b411461036f578063a9059cbb1461033e578063d89135cd1461031f578063dd62ed3e146102cb578063e04af7aa1461022d578063ec0cdf62146101eb5763f2fde38b1461015957600080fd5b346101e75760203660031901126101e757610172610e10565b9061017b610e60565b6001600160a01b039182169283156101d1575050600554826bffffffffffffffffffffffff60a01b821617600555167f8be0079c531659141344cd1fd0a4f28419497f9722a3daafe3b4186f6b6457e08380a380f35b51631e4fbdf760e01b8152908101849052602490fd5b8280fd5b5050346102295760203660031901126102295760209160ff9082906001600160a01b03610216610e10565b1681526006855220541690519015158152f35b5080fd5b50829034610229578260031936011261022957610248610e10565b60243591610254610e60565b6102686001600160a01b0383161515611095565b308452836020528285852054106102885750906102859130610ec4565b80f35b606490602086519162461bcd60e51b8352820152601d60248201527f496e73756666696369656e7420636f6e74726163742062616c616e63650000006044820152fd5b5050346102295780600319360112610229576102e5610e10565b6001600160a01b03602435818116929083900361031b579160209491849316825260018552828220908252845220549051908152f35b8480fd5b5050346102295781600319360112610229576020906007549051908152f35b50503461022957806003193601126102295760209061036861035e610e10565b6024359033610ec4565b5160018152f35b50919034610229578160031936011261022957805191809380549160019083821c92828516948515610469575b60209586861081146104565785895290811561043257506001146103da575b6103d687876103cc828c0383610e8c565b5191829182610dc7565b0390f35b81529295507f8a35acfbc15ff81a39ae7d344fd709f28e8600b4aa8c65c6b64bfe7fe36bd19b5b82841061041f57505050826103d6946103cc928201019438806103bb565b8054868501880152928601928101610401565b60ff19168887015250505050151560051b83010192506103cc826103d638806103bb565b634e487b7160e01b845260228352602484fd5b93607f169361039c565b5050346102295781600319360112610229576020906002549051908152f35b50503461022957816003193601126102295760055490516001600160a01b039091168152602090f35b50503461022957816003193601126102295760207f62e78cea01bee320cd4e420270b5ea74000d11b0c9f74754ebdbfc544b05a258916104f9610e60565b610501610faa565b6005805460ff60a01b1916600160a01b17905551338152a180f35b50346101e757816003193601126101e757610535610e10565b91602435923385526020926006845260ff8387205416801561067f575b15610643576001600160a01b03821680156106005786528584528483872054106105bd5750906105a4847fb19b6157b308633d5950342cc14a30507d3a73598706f2baba73ef0db21e7e5c9493610fee565b6105b084600754610fcb565b600755519283523392a280f35b825162461bcd60e51b8152908101849052601c60248201527f496e73756666696369656e742062616c616e636520746f206275726e000000006044820152606490fd5b835162461bcd60e51b8152808301869052601d60248201527f43616e6e6f74206275726e2066726f6d207a65726f20616464726573730000006044820152606490fd5b825162461bcd60e51b815290810184905260166024820152752737ba1030baba3437b934bd32b2103a3790313ab93760511b6044820152606490fd5b506005546001600160a01b03163314610552565b5082346106f057806003193601126106f0575060206064926106b3610e60565b5162461bcd60e51b815291820152601d60248201527f4f776e6572736869702063616e6e6f742062652072656e6f756e6365640000006044820152fd5b80fd5b5050346102295760203660031901126102295760209181906001600160a01b0361071b610e10565b16815280845220549051908152f35b50503461022957816003193601126102295760209060ff60055460a01c1690519015158152f35b8382346102295760203660031901126102295761077b90356107738133610fee565b600754610fcb565b60075580f35b5090346101e757806003193601126101e75761079b610e10565b90602435916107a8610e60565b6107b0610faa565b6001600160a01b0316928315906107c78215611095565b600254916b033b2e3c9fd0803ce80000006107e28685610fcb565b116108555761083e5750827fddf252ad1be2c89b69c2b068fc378daa952ba7f163c4a11628f55a4df523b3ef92610824879560209461081f610faa565b610fcb565b60025585855284835280852082815401905551908152a380f35b825163ec442f0560e01b8152908101869052602490fd5b835162461bcd60e51b8152602081840152600c60248201526b10d85c08195e18d95959195960a21b6044820152606490fd5b50346101e757826003193601126101e7576108a0610e60565b6005549060ff8260a01c16156108e8575060ff60a01b1916600555513381527f5db9ee0a495bf2e6ff9c91a7834c1ba4fdd244a5e8aa4e537bd38aeae4b073aa90602090a180f35b8251638dfc202b60e01b8152fd5b505034610229578160031936011261022957602090516b033b2e3c9fd0803ce80000008152f35b5050346102295781600319360112610229576020905160128152f35b505034610229578160031936011261022957602090516a52b7d2dcc80cd2e40000008152f35b5091903461022957816003193601126102295760075491600254612710918285029285840414851517156109b057606085856a52b7d2dcc80cd2e40000008686835194855260208501520490820152f35b634e487b7160e01b815260118652602490fd5b50829034610229576109d436610e2b565b6001600160a01b03831680865260016020908152878720338852905286862054919592946000198310610a10575b602088610368898989610ec4565b868310610a78578115610a61573315610a4a5750825260016020908152868320338452815291869020908590039055829061036887610a02565b8751634a1406b160e11b8152908101849052602490fd5b875163e602df0560e01b8152908101849052602490fd5b8751637dc7a0d960e11b8152339181019182526020820193909352604081018790528291506060010390fd5b9190503461022957602036600319011261022957356001600160a01b038116908190036102295781808092610ad7610e60565b610ae2811515611095565b4790828215610b00575bf115610af6575080f35b51903d90823e3d90fd5b506108fc610aec565b5090346101e7576020836044610b1e36610e2b565b96919390610b2a610e60565b6001600160a01b0390811694610b41861515611095565b8751988996879563a9059cbb60e01b87528601526024850152165af1908115610ba15750610b6d575080f35b6020813d8211610b99575b81610b8560209383610e8c565b810103126102295751801515036106f05780f35b3d9150610b78565b513d84823e3d90fd5b505034610229578060031936011261022957610bc4610e10565b60243590811515809203610c28577f820feb1c986b7f5bafd6bfc94f2a065587da0b565ed6fd3a4bcc0a2e71d7a52491602091610bff610e60565b6001600160a01b031680865260068352848620805460ff191660ff84161790559351908152a280f35b8380fd5b50346101e757816003193601126101e757610c45610e10565b602435903315610cbe576001600160a01b0316918215610ca757508083602095338152600187528181208582528752205582519081527f8c5be1e5ebec7d5bd14f71427d1e84f3dd0314c0f7b2291e5b200ac8c7c3b925843392a35160018152f35b8351634a1406b160e11b8152908101859052602490fd5b835163e602df0560e01b8152808401869052602490fd5b9291905034610c285783600319360112610c2857600354600181811c9186908281168015610dbd575b6020958686108214610daa5750848852908115610d885750600114610d2f575b6103d686866103cc828b0383610e8c565b929550600383527fc2575a0e9e593c00f959f8c92f12db2869c3395a3b0502d05e2516446f71f85b5b828410610d7557505050826103d6946103cc928201019438610d1e565b8054868501880152928601928101610d58565b60ff191687860152505050151560051b83010192506103cc826103d638610d1e565b634e487b7160e01b845260229052602483fd5b93607f1693610cfe565b6020808252825181830181905290939260005b828110610dfc57505060409293506000838284010152601f8019910116010190565b818101860151848201604001528501610dda565b600435906001600160a01b0382168203610e2657565b600080fd5b6060906003190112610e26576001600160a01b03906004358281168103610e2657916024359081168103610e26579060443590565b6005546001600160a01b03163303610e7457565b60405163118cdaa760e01b8152336004820152602490fd5b90601f8019910116810190811067ffffffffffffffff821117610eae57604052565b634e487b7160e01b600052604160045260246000fd5b916001600160a01b03808416928315610f915716928315610f7857610ee7610faa565b60009083825281602052604082205490838210610f46575091604082827fddf252ad1be2c89b69c2b068fc378daa952ba7f163c4a11628f55a4df523b3ef958760209652828652038282205586815220818154019055604051908152a3565b60405163391434e360e21b81526001600160a01b03919091166004820152602481019190915260448101839052606490fd5b60405163ec442f0560e01b815260006004820152602490fd5b604051634b637e8f60e11b815260006004820152602490fd5b60ff60055460a01c16610fb957565b60405163d93c066560e01b8152600490fd5b91908201809211610fd857565b634e487b7160e01b600052601160045260246000fd5b906001600160a01b038216908115610f9157611008610faa565b600092828452836020526040842054908282106110635750817fddf252ad1be2c89b69c2b068fc378daa952ba7f163c4a11628f55a4df523b3ef926020928587528684520360408620558060025403600255604051908152a3565b60405163391434e360e21b81526001600160a01b03919091166004820152602481019190915260448101829052606490fd5b1561109c57565b60405162461bcd60e51b8152602060048201526011602482015270125b9d985b1a59081c9958da5c1a595b9d607a1b6044820152606490fdfea2646970667358221220bcc54da808a011f44ee1e9a1c60b2bba34b0e4ae26cb30d239ff86e8b9e5649464736f6c63430008140033",
  "linkReferences": {},
  "deployedLinkReferences": {}
}