{
  "_format": "hh-sol-artifact-1",
  "contractName": "SqudyToken",
  "sourceName": "contracts/SqudyToken.sol",
  "abi": [
    {
      "inputs": [
        {
          "internalType": "address",
          "name": "initialOwner",
          "type": "address"
        }
      ],
      "stateMutability": "nonpayable",
      "type": "constructor"
    },
    {
      "inputs": [
        {
          "internalType": "address",
          "name": "spender",
          "type": "address"
        },
        {
          "internalType": "uint256",
          "name": "allowance",
          "type": "uint256"
        },
        {
          "internalType": "uint256",
          "name": "needed",
          "type": "uint256"
        }
      ],
      "name": "ERC20InsufficientAllowance",
      "type": "error"
    },
    {
      "inputs": [
        {
          "internalType": "address",
          "name": "sender",
          "type": "address"
        },
        {
          "internalType": "uint256",
          "name": "balance",
          "type": "uint256"
        },
        {
          "internalType": "uint256",
          "name": "needed",
          "type": "uint256"
        }
      ],
      "name": "ERC20InsufficientBalance",
      "type": "error"
    },
    {
      "inputs": [
        {
          "internalType": "address",
          "name": "approver",
          "type": "address"
        }
      ],
      "name": "ERC20InvalidApprover",
      "type": "error"
    },
    {
      "inputs": [
        {
          "internalType": "address",
          "name": "receiver",
          "type": "address"
        }
      ],
      "name": "ERC20InvalidReceiver",
      "type": "error"
    },
    {
      "inputs": [
        {
          "internalType": "address",
          "name": "sender",
          "type": "address"
        }
      ],
      "name": "ERC20InvalidSender",
      "type": "error"
    },
    {
      "inputs": [
        {
          "internalType": "address",
          "name": "spender",
          "type": "address"
        }
      ],
      "name": "ERC20InvalidSpender",
      "type": "error"
    },
    {
      "inputs": [],
      "name": "EnforcedPause",
      "type": "error"
    },
    {
      "inputs": [],
      "name": "ExpectedPause",
      "type": "error"
    },
    {
      "inputs": [
        {
          "internalType": "address",
          "name": "owner",
          "type": "address"
        }
      ],
      "name": "OwnableInvalidOwner",
      "type": "error"
    },
    {
      "inputs": [
        {
          "internalType": "address",
          "name": "account",
          "type": "address"
        }
      ],
      "name": "OwnableUnauthorizedAccount",
      "type": "error"
    },
    {
      "anonymous": false,
      "inputs": [
        {
          "indexed": true,
          "internalType": "address",
          "name": "owner",
          "type": "address"
        },
        {
          "indexed": true,
          "internalType": "address",
          "name": "spender",
          "type": "address"
        },
        {
          "indexed": false,
          "internalType": "uint256",
          "name": "value",
          "type": "uint256"
        }
      ],
      "name": "Approval",
      "type": "event"
    },
    {
      "anonymous": false,
      "inputs": [
        {
          "indexed": true,
          "internalType": "address",
          "name": "burner",
          "type": "address"
        },
        {
          "indexed": false,
          "internalType": "bool",
          "name": "authorized",
          "type": "bool"
        }
      ],
      "name": "BurnerAuthorized",
      "type": "event"
    },
    {
      "anonymous": false,
      "inputs": [
        {
          "indexed": true,
          "internalType": "address",
          "name": "previousOwner",
          "type": "address"
        },
        {
          "indexed": true,
          "internalType": "address",
          "name": "newOwner",
          "type": "address"
        }
      ],
      "name": "OwnershipTransferred",
      "type": "event"
    },
    {
      "anonymous": false,
      "inputs": [
        {
          "indexed": false,
          "internalType": "address",
          "name": "account",
          "type": "address"
        }
      ],
      "name": "Paused",
      "type": "event"
    },
    {
      "anonymous": false,
      "inputs": [
        {
          "indexed": true,
          "internalType": "address",
          "name": "campaign",
          "type": "address"
        },
        {
          "indexed": false,
          "internalType": "uint256",
          "name": "amount",
          "type": "uint256"
        }
      ],
      "name": "TokensBurnedByCampaign",
      "type": "event"
    },
    {
      "anonymous": false,
      "inputs": [
        {
          "indexed": true,
          "internalType": "address",
          "name": "from",
          "type": "address"
        },
        {
          "indexed": true,
          "internalType": "address",
          "name": "to",
          "type": "address"
        },
        {
          "indexed": false,
          "internalType": "uint256",
          "name": "value",
          "type": "uint256"
        }
      ],
      "name": "Transfer",
      "type": "event"
    },
    {
      "anonymous": false,
      "inputs": [
        {
          "indexed": false,
          "internalType": "address",
          "name": "account",
          "type": "address"
        }
      ],
      "name": "Unpaused",
      "type": "event"
    },
    {
      "inputs": [],
      "name": "INITIAL_SUPPLY",
      "outputs": [
        {
          "internalType": "uint256",
          "name": "",
          "type": "uint256"
        }
      ],
      "stateMutability": "view",
      "type": "function"
    },
    {
      "inputs": [],
      "name": "MAX_SUPPLY",
      "outputs": [
        {
          "internalType": "uint256",
          "name": "",
          "type": "uint256"
        }
      ],
      "stateMutability": "view",
      "type": "function"
    },
    {
      "inputs": [
        {
          "internalType": "address",
          "name": "owner",
          "type": "address"
        },
        {
          "internalType": "address",
          "name": "spender",
          "type": "address"
        }
      ],
      "name": "allowance",
      "outputs": [
        {
          "internalType": "uint256",
          "name": "",
          "type": "uint256"
        }
      ],
      "stateMutability": "view",
      "type": "function"
    },
    {
      "inputs": [
        {
          "internalType": "address",
          "name": "spender",
          "type": "address"
        },
        {
          "internalType": "uint256",
          "name": "value",
          "type": "uint256"
        }
      ],
      "name": "approve",
      "outputs": [
        {
          "internalType": "bool",
          "name": "",
          "type": "bool"
        }
      ],
      "stateMutability": "nonpayable",
      "type": "function"
    },
    {
      "inputs": [
        {
          "internalType": "address",
          "name": "",
          "type": "address"
        }
      ],
      "name": "authorizedBurners",
      "outputs": [
        {
          "internalType": "bool",
          "name": "",
          "type": "bool"
        }
      ],
      "stateMutability": "view",
      "type": "function"
    },
    {
      "inputs": [
        {
          "internalType": "address",
          "name": "account",
          "type": "address"
        }
      ],
      "name": "balanceOf",
      "outputs": [
        {
          "internalType": "uint256",
          "name": "",
          "type": "uint256"
        }
      ],
      "stateMutability": "view",
      "type": "function"
    },
    {
      "inputs": [
        {
          "internalType": "uint256",
          "name": "amount",
          "type": "uint256"
        }
      ],
      "name": "burn",
      "outputs": [],
      "stateMutability": "nonpayable",
      "type": "function"
    },
    {
      "inputs": [
        {
          "internalType": "address",
          "name": "from",
          "type": "address"
        },
        {
          "internalType": "uint256",
          "name": "amount",
          "type": "uint256"
        }
      ],
      "name": "burnFrom",
      "outputs": [],
      "stateMutability": "nonpayable",
      "type": "function"
    },
    {
      "inputs": [],
      "name": "circulatingSupply",
      "outputs": [
        {
          "internalType": "uint256",
          "name": "",
          "type": "uint256"
        }
      ],
      "stateMutability": "view",
      "type": "function"
    },
    {
      "inputs": [],
      "name": "decimals",
      "outputs": [
        {
          "internalType": "uint8",
          "name": "",
          "type": "uint8"
        }
      ],
      "stateMutability": "view",
      "type": "function"
    },
    {
      "inputs": [],
      "name": "getBurnStats",
      "outputs": [
        {
          "internalType": "uint256",
          "name": "burned",
          "type": "uint256"
        },
        {
          "internalType": "uint256",
          "name": "circulating",
          "type": "uint256"
        },
        {
          "internalType": "uint256",
          "name": "burnRate",
          "type": "uint256"
        }
      ],
      "stateMutability": "view",
      "type": "function"
    },
    {
      "inputs": [],
      "name": "name",
      "outputs": [
        {
          "internalType": "string",
          "name": "",
          "type": "string"
        }
      ],
      "stateMutability": "view",
      "type": "function"
    },
    {
      "inputs": [],
      "name": "owner",
      "outputs": [
        {
          "internalType": "address",
          "name": "",
          "type": "address"
        }
      ],
      "stateMutability": "view",
      "type": "function"
    },
    {
      "inputs": [],
      "name": "pause",
      "outputs": [],
      "stateMutability": "nonpayable",
      "type": "function"
    },
    {
      "inputs": [],
      "name": "paused",
      "outputs": [
        {
          "internalType": "bool",
          "name": "",
          "type": "bool"
        }
      ],
      "stateMutability": "view",
      "type": "function"
    },
    {
      "inputs": [],
      "name": "renounceOwnership",
      "outputs": [],
      "stateMutability": "view",
      "type": "function"
    },
    {
      "inputs": [
        {
          "internalType": "address",
          "name": "burner",
          "type": "address"
        },
        {
          "internalType": "bool",
          "name": "authorized",
          "type": "bool"
        }
      ],
      "name": "setAuthorizedBurner",
      "outputs": [],
      "stateMutability": "nonpayable",
      "type": "function"
    },
    {
      "inputs": [],
      "name": "symbol",
      "outputs": [
        {
          "internalType": "string",
          "name": "",
          "type": "string"
        }
      ],
      "stateMutability": "view",
      "type": "function"
    },
    {
      "inputs": [],
      "name": "totalBurned",
      "outputs": [
        {
          "internalType": "uint256",
          "name": "",
          "type": "uint256"
        }
      ],
      "stateMutability": "view",
      "type": "function"
    },
    {
      "inputs": [],
      "name": "totalSupply",
      "outputs": [
        {
          "internalType": "uint256",
          "name": "",
          "type": "uint256"
        }
      ],
      "stateMutability": "view",
      "type": "function"
    },
    {
      "inputs": [
        {
          "internalType": "address",
          "name": "to",
          "type": "address"
        },
        {
          "internalType": "uint256",
          "name": "value",
          "type": "uint256"
        }
      ],
      "name": "transfer",
      "outputs": [
        {
          "internalType": "bool",
          "name": "",
          "type": "bool"
        }
      ],
      "stateMutability": "nonpayable",
      "type": "function"
    },
    {
      "inputs": [
        {
          "internalType": "address",
          "name": "from",
          "type": "address"
        },
        {
          "internalType": "address",
          "name": "to",
          "type": "address"
        },
        {
          "internalType": "uint256",
          "name": "value",
          "type": "uint256"
        }
      ],
      "name": "transferFrom",
      "outputs": [
        {
          "internalType": "bool",
          "name": "",
          "type": "bool"
        }
      ],
      "stateMutability": "nonpayable",
      "type": "function"
    },
    {
      "inputs": [
        {
          "internalType": "address",
          "name": "newOwner",
          "type": "address"
        }
      ],
      "name": "transferOwnership",
      "outputs": [],
      "stateMutability": "nonpayable",
      "type": "function"
    },
    {
      "inputs": [],
      "name": "unpause",
      "outputs": [],
      "stateMutability": "nonpayable",
      "type": "function"
    }
  ],
  "bytecode": "0x6080346200047d57601f6200124538819003828101601f19908116850194926001600160401b0392838711858810176200037e57808592604098895283396020948591810103126200047d57516001600160a01b0380821695918690036200047d576200006b62000482565b93600b85526a29a8aaa22c902a37b5b2b760a91b868601526200008d62000482565b60059384825264535155445960d81b888301528651918383116200037e5760039283546001998a82811c9216801562000472575b8c8310146200045c578b828685941162000405575b50508b90858311600114620003a05760009262000394575b505060001982861b1c191690891b1783555b80519384116200037e5760049687548981811c9116801562000373575b8b8210146200035e5790818487969594931162000304575b508a9285116001146200029c575060009362000290575b505082871b92600019911b1c19161783555b8515620002795781546001600160a01b0319811687179283905560ff92918791167f8be0079c531659141344cd1fd0a4f28419497f9722a3daafe3b4186f6b6457e0600080a360a01c166200026b576002546b033b2e3c9fd0803ce80000009182820180921162000256575060007fddf252ad1be2c89b69c2b068fc378daa952ba7f163c4a11628f55a4df523b3ef857f820feb1c986b7f5bafd6bfc94f2a065587da0b565ed6fd3a4bcc0a2e71d7a52496959488946002558484528382528984208181540190558951908152a38360005260068252846000208160ff198254161790558451908152a251610da29081620004a38239f35b601190634e487b7160e01b6000525260246000fd5b845163d93c066560e01b8152fd5b8651631e4fbdf760e01b8152600081850152602490fd5b0151915038806200014c565b8995939291931692886000528a6000209360005b8c828210620002ed5750508511620002d2575b50505050811b0183556200015e565b01519060f884600019921b161c1916905538808080620002c3565b8385015187558c98909601959384019301620002b0565b909192939450886000528a600020848088018a1c8201928d891062000354575b918c9189989796959493018b1c01915b8281106200034457505062000135565b600081558897508c910162000334565b9250819262000324565b602289634e487b7160e01b6000525260246000fd5b90607f16906200011d565b634e487b7160e01b600052604160045260246000fd5b015190503880620000ee565b908c918b8d95168860005283600020936000905b828210620003ed5750508411620003d4575b505050811b01835562000100565b015160001983881b60f8161c19169055388080620003c6565b8385015186558f979095019493840193018f620003b4565b90919250866000528582600020918186018c1c830193861062000452575b918d9186959493018c1c01915b8281106200044257508d9150620000d6565b600081558594508d910162000430565b9250819262000423565b634e487b7160e01b600052602260045260246000fd5b91607f1691620000c1565b600080fd5b60408051919082016001600160401b038111838210176200037e5760405256fe6080604081815260048036101561001557600080fd5b600092833560e01c90816306fdde03146109d957508063095ea7b3146109305780630ac28ff8146108ae57806318160ddd146103b857806323b872dd146107bb5780632f37ea7a146107565780632ff2e9dc14610735578063313ce5671461073a57806332cb6b0c146107355780633f4ba83a146106c657806342966c68146106965780635c975abb1461066f57806370a0823114610638578063715018a6146105d857806379cc6790146104615780638456cb59146104005780638da5cb5b146103d75780639358928b146103b857806395d89b4114610298578063a9059cbb14610267578063d89135cd14610248578063dd62ed3e146101ff578063ec0cdf62146101bd5763f2fde38b1461012b57600080fd5b346101b95760203660031901126101b957610144610b17565b9061014d610b6f565b6001600160a01b039182169283156101a3575050600554826bffffffffffffffffffffffff60a01b821617600555167f8be0079c531659141344cd1fd0a4f28419497f9722a3daafe3b4186f6b6457e08380a380f35b51631e4fbdf760e01b8152908101849052602490fd5b8280fd5b5050346101fb5760203660031901126101fb5760209160ff9082906001600160a01b036101e8610b17565b1681526006855220541690519015158152f35b5080fd5b5050346101fb57806003193601126101fb578060209261021d610b17565b610225610b32565b6001600160a01b0391821683526001865283832091168252845220549051908152f35b5050346101fb57816003193601126101fb576020906007549051908152f35b5050346101fb57806003193601126101fb57602090610291610287610b17565b6024359033610b9b565b5160018152f35b509190346101fb57816003193601126101fb57805190828454600181811c908083169283156103ae575b602093848410811461039b5783885290811561037f575060011461032a575b505050829003601f01601f191682019267ffffffffffffffff8411838510176103175750829182610313925282610ace565b0390f35b634e487b7160e01b815260418552602490fd5b8787529192508591837f8a35acfbc15ff81a39ae7d344fd709f28e8600b4aa8c65c6b64bfe7fe36bd19b5b83851061036b57505050508301013880806102e1565b805488860183015293019284908201610355565b60ff1916878501525050151560051b84010190503880806102e1565b634e487b7160e01b895260228a52602489fd5b91607f16916102c2565b5050346101fb57816003193601126101fb576020906002549051908152f35b5050346101fb57816003193601126101fb5760055490516001600160a01b039091168152602090f35b5050346101fb57816003193601126101fb5760207f62e78cea01bee320cd4e420270b5ea74000d11b0c9f74754ebdbfc544b05a2589161043e610b6f565b610446610c81565b6005805460ff60a01b1916600160a01b17905551338152a180f35b50346101b957816003193601126101b95761047a610b17565b91602435923385526020926006845260ff838720541680156105c4575b15610588576001600160a01b03821680156105455786528584528483872054106105025750906104e9847fb19b6157b308633d5950342cc14a30507d3a73598706f2baba73ef0db21e7e5c9493610cc5565b6104f584600754610ca2565b600755519283523392a280f35b825162461bcd60e51b8152908101849052601c60248201527f496e73756666696369656e742062616c616e636520746f206275726e000000006044820152606490fd5b835162461bcd60e51b8152808301869052601d60248201527f43616e6e6f74206275726e2066726f6d207a65726f20616464726573730000006044820152606490fd5b825162461bcd60e51b815290810184905260166024820152752737ba1030baba3437b934bd32b2103a3790313ab93760511b6044820152606490fd5b506005546001600160a01b03163314610497565b5082346106355780600319360112610635575060206064926105f8610b6f565b5162461bcd60e51b815291820152601d60248201527f4f776e6572736869702063616e6e6f742062652072656e6f756e6365640000006044820152fd5b80fd5b5050346101fb5760203660031901126101fb5760209181906001600160a01b03610660610b17565b16815280845220549051908152f35b5050346101fb57816003193601126101fb5760209060ff60055460a01c1690519015158152f35b8382346101fb5760203660031901126101fb576106c090356106b88133610cc5565b600754610ca2565b60075580f35b50346101b957826003193601126101b9576106df610b6f565b6005549060ff8260a01c1615610727575060ff60a01b1916600555513381527f5db9ee0a495bf2e6ff9c91a7834c1ba4fdd244a5e8aa4e537bd38aeae4b073aa90602090a180f35b8251638dfc202b60e01b8152fd5b610b48565b5050346101fb57816003193601126101fb576020905160128152f35b509190346101fb57816003193601126101fb5760075491600254612710918285029285840414851517156107a857606085856b033b2e3c9fd0803ce80000008686835194855260208501520490820152f35b634e487b7160e01b815260118652602490fd5b508234610635576060366003190112610635576107d6610b17565b6107de610b32565b916044359360018060a01b03831680835260016020528683203384526020528683205491600019831061081a575b602088610291898989610b9b565b86831061088257811561086b573315610854575082526001602090815286832033845281529186902090859003905582906102918761080c565b8751634a1406b160e11b8152908101849052602490fd5b875163e602df0560e01b8152908101849052602490fd5b8751637dc7a0d960e11b8152339181019182526020820193909352604081018790528291506060010390fd5b5050346101fb57806003193601126101fb576108c8610b17565b6024359081151580920361092c577f820feb1c986b7f5bafd6bfc94f2a065587da0b565ed6fd3a4bcc0a2e71d7a52491602091610903610b6f565b6001600160a01b031680865260068352848620805460ff191660ff84161790559351908152a280f35b8380fd5b50346101b957816003193601126101b957610949610b17565b6024359033156109c2576001600160a01b03169182156109ab57508083602095338152600187528181208582528752205582519081527f8c5be1e5ebec7d5bd14f71427d1e84f3dd0314c0f7b2291e5b200ac8c7c3b925843392a35160018152f35b8351634a1406b160e11b8152908101859052602490fd5b835163e602df0560e01b8152808401869052602490fd5b84915083346101b957826003193601126101b95782600354600181811c90808316928315610ac4575b602093848410811461039b57838852908115610aa85750600114610a5257505050829003601f01601f191682019267ffffffffffffffff8411838510176103175750829182610313925282610ace565b600387529192508591837fc2575a0e9e593c00f959f8c92f12db2869c3395a3b0502d05e2516446f71f85b5b838510610a9457505050508301018580806102e1565b805488860183015293019284908201610a7e565b60ff1916878501525050151560051b84010190508580806102e1565b91607f1691610a02565b6020808252825181830181905290939260005b828110610b0357505060409293506000838284010152601f8019910116010190565b818101860151848201604001528501610ae1565b600435906001600160a01b0382168203610b2d57565b600080fd5b602435906001600160a01b0382168203610b2d57565b34610b2d576000366003190112610b2d5760206040516b033b2e3c9fd0803ce80000008152f35b6005546001600160a01b03163303610b8357565b60405163118cdaa760e01b8152336004820152602490fd5b916001600160a01b03808416928315610c685716928315610c4f57610bbe610c81565b60009083825281602052604082205490838210610c1d575091604082827fddf252ad1be2c89b69c2b068fc378daa952ba7f163c4a11628f55a4df523b3ef958760209652828652038282205586815220818154019055604051908152a3565b60405163391434e360e21b81526001600160a01b03919091166004820152602481019190915260448101839052606490fd5b60405163ec442f0560e01b815260006004820152602490fd5b604051634b637e8f60e11b815260006004820152602490fd5b60ff60055460a01c16610c9057565b60405163d93c066560e01b8152600490fd5b91908201809211610caf57565b634e487b7160e01b600052601160045260246000fd5b906001600160a01b038216908115610c6857610cdf610c81565b60009282845283602052604084205490828210610d3a5750817fddf252ad1be2c89b69c2b068fc378daa952ba7f163c4a11628f55a4df523b3ef926020928587528684520360408620558060025403600255604051908152a3565b60405163391434e360e21b81526001600160a01b03919091166004820152602481019190915260448101829052606490fdfea2646970667358221220dc49615f33905a14def9a7c5f3705fa4a786b06f6e75372d91454aa96b5e1a7064736f6c63430008140033",
  "linkReferences": {},
  "deployedLinkReferences": {}
}