{
  "_format": "hh-sol-artifact-1",
  "contractName": "SimpleMockSqudyToken",
  "sourceName": "contracts/SimpleMockSqudyToken.sol",
  "abi": [
    {
      "inputs": [],
      "stateMutability": "nonpayable",
      "type": "constructor"
    },
    {
      "anonymous": false,
      "inputs": [
        {
          "indexed": true,
          "internalType": "address",
          "name": "owner",
          "type": "address"
        },
        {
          "indexed": true,
          "internalType": "address",
          "name": "spender",
          "type": "address"
        },
        {
          "indexed": false,
          "internalType": "uint256",
          "name": "value",
          "type": "uint256"
        }
      ],
      "name": "Approval",
      "type": "event"
    },
    {
      "anonymous": false,
      "inputs": [
        {
          "indexed": true,
          "internalType": "address",
          "name": "from",
          "type": "address"
        },
        {
          "indexed": true,
          "internalType": "address",
          "name": "to",
          "type": "address"
        },
        {
          "indexed": false,
          "internalType": "uint256",
          "name": "value",
          "type": "uint256"
        }
      ],
      "name": "Transfer",
      "type": "event"
    },
    {
      "inputs": [
        {
          "internalType": "address",
          "name": "ownerAddr",
          "type": "address"
        },
        {
          "internalType": "address",
          "name": "spender",
          "type": "address"
        }
      ],
      "name": "allowance",
      "outputs": [
        {
          "internalType": "uint256",
          "name": "",
          "type": "uint256"
        }
      ],
      "stateMutability": "view",
      "type": "function"
    },
    {
      "inputs": [
        {
          "internalType": "address",
          "name": "spender",
          "type": "address"
        },
        {
          "internalType": "uint256",
          "name": "amount",
          "type": "uint256"
        }
      ],
      "name": "approve",
      "outputs": [
        {
          "internalType": "bool",
          "name": "",
          "type": "bool"
        }
      ],
      "stateMutability": "nonpayable",
      "type": "function"
    },
    {
      "inputs": [
        {
          "internalType": "address",
          "name": "account",
          "type": "address"
        }
      ],
      "name": "balanceOf",
      "outputs": [
        {
          "internalType": "uint256",
          "name": "",
          "type": "uint256"
        }
      ],
      "stateMutability": "view",
      "type": "function"
    },
    {
      "inputs": [],
      "name": "decimals",
      "outputs": [
        {
          "internalType": "uint8",
          "name": "",
          "type": "uint8"
        }
      ],
      "stateMutability": "view",
      "type": "function"
    },
    {
      "inputs": [],
      "name": "getFreeTokens",
      "outputs": [],
      "stateMutability": "nonpayable",
      "type": "function"
    },
    {
      "inputs": [
        {
          "internalType": "address",
          "name": "to",
          "type": "address"
        },
        {
          "internalType": "uint256",
          "name": "amount",
          "type": "uint256"
        }
      ],
      "name": "mint",
      "outputs": [],
      "stateMutability": "nonpayable",
      "type": "function"
    },
    {
      "inputs": [],
      "name": "name",
      "outputs": [
        {
          "internalType": "string",
          "name": "",
          "type": "string"
        }
      ],
      "stateMutability": "view",
      "type": "function"
    },
    {
      "inputs": [],
      "name": "owner",
      "outputs": [
        {
          "internalType": "address",
          "name": "",
          "type": "address"
        }
      ],
      "stateMutability": "view",
      "type": "function"
    },
    {
      "inputs": [],
      "name": "symbol",
      "outputs": [
        {
          "internalType": "string",
          "name": "",
          "type": "string"
        }
      ],
      "stateMutability": "view",
      "type": "function"
    },
    {
      "inputs": [],
      "name": "totalSupply",
      "outputs": [
        {
          "internalType": "uint256",
          "name": "",
          "type": "uint256"
        }
      ],
      "stateMutability": "view",
      "type": "function"
    },
    {
      "inputs": [
        {
          "internalType": "address",
          "name": "to",
          "type": "address"
        },
        {
          "internalType": "uint256",
          "name": "amount",
          "type": "uint256"
        }
      ],
      "name": "transfer",
      "outputs": [
        {
          "internalType": "bool",
          "name": "",
          "type": "bool"
        }
      ],
      "stateMutability": "nonpayable",
      "type": "function"
    },
    {
      "inputs": [
        {
          "internalType": "address",
          "name": "from",
          "type": "address"
        },
        {
          "internalType": "address",
          "name": "to",
          "type": "address"
        },
        {
          "internalType": "uint256",
          "name": "amount",
          "type": "uint256"
        }
      ],
      "name": "transferFrom",
      "outputs": [
        {
          "internalType": "bool",
          "name": "",
          "type": "bool"
        }
      ],
      "stateMutability": "nonpayable",
      "type": "function"
    }
  ],
  "bytecode": "0x60806040523461018357610014600354610188565b601f8111610136575b507f4d6f636b20535155445920546f6b656e0000000000000000000000000000002060035560045461004e90610188565b601f81116100e9575b600a64535155445960d81b01600455600580546001600160a81b03191633600881901b610100600160a81b03169190911760121790915569d3c21bcecceda100000060028190556000828152602081815260408083208490555192835290917fddf252ad1be2c89b69c2b068fc378daa952ba7f163c4a11628f55a4df523b3ef9190a3604051610a0b90816101c38239f35b6004600090815290601f0160051c7f8a35acfbc15ff81a39ae7d344fd709f28e8600b4aa8c65c6b64bfe7fe36bd19b908101905b81811061012b575050610057565b82815560010161011d565b6003600090815290601f0160051c7fc2575a0e9e593c00f959f8c92f12db2869c3395a3b0502d05e2516446f71f85b908101905b81811061017857505061001d565b82815560010161016a565b600080fd5b90600182811c921680156101b8575b60208310146101a257565b634e487b7160e01b600052602260045260246000fd5b91607f169161019756fe608060408181526004918236101561001657600080fd5b600092833560e01c91826306fdde03146105ec57508163095ea7b3146105c257816318160ddd146105a357816323b872dd146104ec5781632b190f18146103d1578163313ce567146103af57816340c10f19146102a757816370a08231146102705781638da5cb5b1461024357816395d89b411461012457508063a9059cbb146100f45763dd62ed3e146100a957600080fd5b346100f057806003193601126100f057806020926100c561070d565b6100cd610728565b6001600160a01b0391821683526001865283832091168252845220549051908152f35b5080fd5b50346100f057806003193601126100f05760209061011d61011361070d565b602435903361076e565b5160018152f35b8383346100f057816003193601126100f057805190828454600181811c90808316928315610239575b60209384841081146102265783885290811561020a57506001146101b5575b505050829003601f01601f191682019267ffffffffffffffff8411838510176101a2575082918261019e9252826106c4565b0390f35b634e487b7160e01b815260418552602490fd5b8787529192508591837f8a35acfbc15ff81a39ae7d344fd709f28e8600b4aa8c65c6b64bfe7fe36bd19b5b8385106101f6575050505083010185808061016c565b8054888601830152930192849082016101e0565b60ff1916878501525050151560051b840101905085808061016c565b634e487b7160e01b895260228a52602489fd5b91607f169161014d565b5050346100f057816003193601126100f057600554905160089190911c6001600160a01b03168152602090f35b5050346100f05760203660031901126100f05760209181906001600160a01b0361029861070d565b16815280845220549051908152f35b919050346103ab57806003193601126103ab576102c261070d565b60055460243592916001600160a01b039160081c8216330361037c571692831561033a57506020827fddf252ad1be2c89b69c2b068fc378daa952ba7f163c4a11628f55a4df523b3ef926103198795600254610761565b600255858552848352808520610330838254610761565b905551908152a380f35b6020606492519162461bcd60e51b8352820152601b60248201527f45524332303a206d696e7420746f207a65726f206164647265737300000000006044820152fd5b825162461bcd60e51b815260208187015260096024820152682737ba1037bbb732b960b91b6044820152606490fd5b8280fd5b5050346100f057816003193601126100f05760209060ff600554169051908152f35b919050346103ab57826003193601126103ab57338352826020528083205460ff60055416906103ff826109c4565b9061271091808302928304036104d95710156104965761041e906109c4565b916103e89280840293840403610483575033835282602052808320610444838254610761565b905561045282600254610761565b60025551908152817fddf252ad1be2c89b69c2b068fc378daa952ba7f163c4a11628f55a4df523b3ef60203393a380f35b634e487b7160e01b845260119052602483fd5b815162461bcd60e51b8152602081850152601960248201527f416c72656164792068617320656e6f75676820746f6b656e73000000000000006044820152606490fd5b634e487b7160e01b865260118552602486fd5b905082346105a05760603660031901126105a05761050861070d565b91610511610728565b846044359360018060a01b0386168152600160205281812033825260205220549183831061055d5760208661011d876105558888610550828a8661076e565b61073e565b9033906108da565b606490602087519162461bcd60e51b8352820152601d60248201527f45524332303a20696e73756666696369656e7420616c6c6f77616e63650000006044820152fd5b80fd5b5050346100f057816003193601126100f0576020906002549051908152f35b5050346100f057806003193601126100f05760209061011d6105e261070d565b60243590336108da565b849084346103ab57826003193601126103ab5782600354600181811c908083169283156106ba575b60209384841081146102265783885290811561020a575060011461066457505050829003601f01601f191682019267ffffffffffffffff8411838510176101a2575082918261019e9252826106c4565b600387529192508591837fc2575a0e9e593c00f959f8c92f12db2869c3395a3b0502d05e2516446f71f85b5b8385106106a6575050505083010185808061016c565b805488860183015293019284908201610690565b91607f1691610614565b6020808252825181830181905290939260005b8281106106f957505060409293506000838284010152601f8019910116010190565b8181018601518482016040015285016106d7565b600435906001600160a01b038216820361072357565b600080fd5b602435906001600160a01b038216820361072357565b9190820391821161074b57565b634e487b7160e01b600052601160045260246000fd5b9190820180921161074b57565b6001600160a01b0390811691821561088b5716918215610846576000828152806020526040812054918083106107f25760406020926107ce837fddf252ad1be2c89b69c2b068fc378daa952ba7f163c4a11628f55a4df523b3ef9661073e565b86825281855282822055868152206107e7828254610761565b9055604051908152a3565b60405162461bcd60e51b815260206004820152602660248201527f45524332303a207472616e7366657220616d6f756e7420657863656564732062604482015265616c616e636560d01b6064820152608490fd5b60405162461bcd60e51b815260206004820152601f60248201527f45524332303a207472616e7366657220746f207a65726f2061646472657373006044820152606490fd5b60405162461bcd60e51b815260206004820152602160248201527f45524332303a207472616e736665722066726f6d207a65726f206164647265736044820152607360f81b6064820152608490fd5b6001600160a01b03908116918215610980571691821561093b5760207f8c5be1e5ebec7d5bd14f71427d1e84f3dd0314c0f7b2291e5b200ac8c7c3b925918360005260018252604060002085600052825280604060002055604051908152a3565b60405162461bcd60e51b815260206004820152601e60248201527f45524332303a20617070726f766520746f207a65726f206164647265737300006044820152606490fd5b606460405162461bcd60e51b815260206004820152602060248201527f45524332303a20617070726f76652066726f6d207a65726f20616464726573736044820152fd5b60ff16604d811161074b57600a0a9056fea2646970667358221220cb51e08aa0af08fd8d8b3d5a102d36df173d86265676cf3557d33ff0a06ae53b64736f6c63430008140033",
  "linkReferences": {},
  "deployedLinkReferences": {}
}