{
  "_format": "hh-sol-artifact-1",
  "contractName": "AutomatedSqudyCampaignManager",
  "sourceName": "contracts/AutomatedSqudyCampaignManager.sol",
  "abi": [
    {
      "inputs": [
        {
          "internalType": "address",
          "name": "_squdyToken",
          "type": "address"
        }
      ],
      "stateMutability": "nonpayable",
      "type": "constructor"
    },
    {
      "inputs": [],
      "name": "AccessControlBadConfirmation",
      "type": "error"
    },
    {
      "inputs": [
        {
          "internalType": "address",
          "name": "account",
          "type": "address"
        },
        {
          "internalType": "bytes32",
          "name": "neededRole",
          "type": "bytes32"
        }
      ],
      "name": "AccessControlUnauthorizedAccount",
      "type": "error"
    },
    {
      "inputs": [],
      "name": "EnforcedPause",
      "type": "error"
    },
    {
      "inputs": [],
      "name": "ExpectedPause",
      "type": "error"
    },
    {
      "inputs": [],
      "name": "ReentrancyGuardReentrantCall",
      "type": "error"
    },
    {
      "inputs": [
        {
          "internalType": "address",
          "name": "token",
          "type": "address"
        }
      ],
      "name": "SafeERC20FailedOperation",
      "type": "error"
    },
    {
      "anonymous": false,
      "inputs": [
        {
          "indexed": true,
          "internalType": "uint256",
          "name": "campaignId",
          "type": "uint256"
        },
        {
          "indexed": true,
          "internalType": "address",
          "name": "creator",
          "type": "address"
        },
        {
          "indexed": false,
          "internalType": "string",
          "name": "name",
          "type": "string"
        }
      ],
      "name": "CampaignCreated",
      "type": "event"
    },
    {
      "anonymous": false,
      "inputs": [
        {
          "indexed": true,
          "internalType": "uint256",
          "name": "campaignId",
          "type": "uint256"
        },
        {
          "indexed": false,
          "internalType": "uint256",
          "name": "oldEndDate",
          "type": "uint256"
        },
        {
          "indexed": false,
          "internalType": "uint256",
          "name": "newEndDate",
          "type": "uint256"
        }
      ],
      "name": "CampaignEndDateUpdated",
      "type": "event"
    },
    {
      "anonymous": false,
      "inputs": [
        {
          "indexed": true,
          "internalType": "uint256",
          "name": "campaignId",
          "type": "uint256"
        }
      ],
      "name": "CampaignPaused",
      "type": "event"
    },
    {
      "anonymous": false,
      "inputs": [
        {
          "indexed": true,
          "internalType": "uint256",
          "name": "campaignId",
          "type": "uint256"
        }
      ],
      "name": "CampaignResumed",
      "type": "event"
    },
    {
      "anonymous": false,
      "inputs": [
        {
          "indexed": true,
          "internalType": "uint256",
          "name": "campaignId",
          "type": "uint256"
        },
        {
          "indexed": false,
          "internalType": "enum AutomatedSqudyCampaignManager.CampaignStatus",
          "name": "status",
          "type": "uint8"
        }
      ],
      "name": "CampaignStatusChanged",
      "type": "event"
    },
    {
      "anonymous": false,
      "inputs": [
        {
          "indexed": true,
          "internalType": "uint256",
          "name": "campaignId",
          "type": "uint256"
        },
        {
          "indexed": false,
          "internalType": "bool",
          "name": "refunded",
          "type": "bool"
        }
      ],
      "name": "CampaignTerminated",
      "type": "event"
    },
    {
      "anonymous": false,
      "inputs": [
        {
          "indexed": false,
          "internalType": "address",
          "name": "account",
          "type": "address"
        }
      ],
      "name": "Paused",
      "type": "event"
    },
    {
      "anonymous": false,
      "inputs": [
        {
          "indexed": true,
          "internalType": "bytes32",
          "name": "role",
          "type": "bytes32"
        },
        {
          "indexed": true,
          "internalType": "bytes32",
          "name": "previousAdminRole",
          "type": "bytes32"
        },
        {
          "indexed": true,
          "internalType": "bytes32",
          "name": "newAdminRole",
          "type": "bytes32"
        }
      ],
      "name": "RoleAdminChanged",
      "type": "event"
    },
    {
      "anonymous": false,
      "inputs": [
        {
          "indexed": true,
          "internalType": "bytes32",
          "name": "role",
          "type": "bytes32"
        },
        {
          "indexed": true,
          "internalType": "address",
          "name": "account",
          "type": "address"
        },
        {
          "indexed": true,
          "internalType": "address",
          "name": "sender",
          "type": "address"
        }
      ],
      "name": "RoleGranted",
      "type": "event"
    },
    {
      "anonymous": false,
      "inputs": [
        {
          "indexed": true,
          "internalType": "bytes32",
          "name": "role",
          "type": "bytes32"
        },
        {
          "indexed": true,
          "internalType": "address",
          "name": "account",
          "type": "address"
        },
        {
          "indexed": true,
          "internalType": "address",
          "name": "sender",
          "type": "address"
        }
      ],
      "name": "RoleRevoked",
      "type": "event"
    },
    {
      "anonymous": false,
      "inputs": [
        {
          "indexed": true,
          "internalType": "uint256",
          "name": "campaignId",
          "type": "uint256"
        },
        {
          "indexed": true,
          "internalType": "address",
          "name": "user",
          "type": "address"
        }
      ],
      "name": "SocialTasksCompleted",
      "type": "event"
    },
    {
      "anonymous": false,
      "inputs": [
        {
          "indexed": true,
          "internalType": "uint256",
          "name": "campaignId",
          "type": "uint256"
        },
        {
          "indexed": false,
          "internalType": "uint256",
          "name": "amount",
          "type": "uint256"
        }
      ],
      "name": "TokensBurned",
      "type": "event"
    },
    {
      "anonymous": false,
      "inputs": [
        {
          "indexed": false,
          "internalType": "address",
          "name": "account",
          "type": "address"
        }
      ],
      "name": "Unpaused",
      "type": "event"
    },
    {
      "anonymous": false,
      "inputs": [
        {
          "indexed": true,
          "internalType": "uint256",
          "name": "campaignId",
          "type": "uint256"
        },
        {
          "indexed": true,
          "internalType": "address",
          "name": "user",
          "type": "address"
        },
        {
          "indexed": false,
          "internalType": "uint256",
          "name": "amount",
          "type": "uint256"
        },
        {
          "indexed": false,
          "internalType": "uint256",
          "name": "tickets",
          "type": "uint256"
        }
      ],
      "name": "UserStaked",
      "type": "event"
    },
    {
      "anonymous": false,
      "inputs": [
        {
          "indexed": true,
          "internalType": "uint256",
          "name": "campaignId",
          "type": "uint256"
        },
        {
          "indexed": false,
          "internalType": "address[]",
          "name": "winners",
          "type": "address[]"
        },
        {
          "indexed": false,
          "internalType": "uint256",
          "name": "blockNumber",
          "type": "uint256"
        }
      ],
      "name": "WinnersSelected",
      "type": "event"
    },
    {
      "inputs": [],
      "name": "ADMIN_ROLE",
      "outputs": [
        {
          "internalType": "bytes32",
          "name": "",
          "type": "bytes32"
        }
      ],
      "stateMutability": "view",
      "type": "function"
    },
    {
      "inputs": [],
      "name": "DEFAULT_ADMIN_ROLE",
      "outputs": [
        {
          "internalType": "bytes32",
          "name": "",
          "type": "bytes32"
        }
      ],
      "stateMutability": "view",
      "type": "function"
    },
    {
      "inputs": [],
      "name": "OPERATOR_ROLE",
      "outputs": [
        {
          "internalType": "bytes32",
          "name": "",
          "type": "bytes32"
        }
      ],
      "stateMutability": "view",
      "type": "function"
    },
    {
      "inputs": [
        {
          "internalType": "uint256",
          "name": "campaignId",
          "type": "uint256"
        }
      ],
      "name": "burnTokens",
      "outputs": [],
      "stateMutability": "nonpayable",
      "type": "function"
    },
    {
      "inputs": [
        {
          "internalType": "uint256",
          "name": "",
          "type": "uint256"
        },
        {
          "internalType": "uint256",
          "name": "",
          "type": "uint256"
        }
      ],
      "name": "campaignParticipants",
      "outputs": [
        {
          "internalType": "address",
          "name": "",
          "type": "address"
        }
      ],
      "stateMutability": "view",
      "type": "function"
    },
    {
      "inputs": [
        {
          "internalType": "uint256",
          "name": "",
          "type": "uint256"
        }
      ],
      "name": "campaigns",
      "outputs": [
        {
          "internalType": "uint256",
          "name": "id",
          "type": "uint256"
        },
        {
          "internalType": "string",
          "name": "name",
          "type": "string"
        },
        {
          "internalType": "string",
          "name": "description",
          "type": "string"
        },
        {
          "internalType": "string",
          "name": "imageUrl",
          "type": "string"
        },
        {
          "internalType": "uint256",
          "name": "softCap",
          "type": "uint256"
        },
        {
          "internalType": "uint256",
          "name": "hardCap",
          "type": "uint256"
        },
        {
          "internalType": "uint256",
          "name": "ticketAmount",
          "type": "uint256"
        },
        {
          "internalType": "uint256",
          "name": "currentAmount",
          "type": "uint256"
        },
        {
          "internalType": "uint256",
          "name": "refundableAmount",
          "type": "uint256"
        },
        {
          "internalType": "uint256",
          "name": "startDate",
          "type": "uint256"
        },
        {
          "internalType": "uint256",
          "name": "endDate",
          "type": "uint256"
        },
        {
          "internalType": "uint256",
          "name": "participantCount",
          "type": "uint256"
        },
        {
          "internalType": "enum AutomatedSqudyCampaignManager.CampaignStatus",
          "name": "status",
          "type": "uint8"
        },
        {
          "internalType": "bool",
          "name": "tokensAreBurned",
          "type": "bool"
        },
        {
          "internalType": "uint256",
          "name": "totalBurned",
          "type": "uint256"
        },
        {
          "internalType": "uint256",
          "name": "winnerSelectionBlock",
          "type": "uint256"
        }
      ],
      "stateMutability": "view",
      "type": "function"
    },
    {
      "inputs": [
        {
          "internalType": "uint256",
          "name": "campaignId",
          "type": "uint256"
        }
      ],
      "name": "claimRefund",
      "outputs": [],
      "stateMutability": "nonpayable",
      "type": "function"
    },
    {
      "inputs": [
        {
          "internalType": "uint256",
          "name": "campaignId",
          "type": "uint256"
        },
        {
          "internalType": "address",
          "name": "user",
          "type": "address"
        }
      ],
      "name": "confirmSocialTasks",
      "outputs": [],
      "stateMutability": "nonpayable",
      "type": "function"
    },
    {
      "inputs": [
        {
          "internalType": "string",
          "name": "name",
          "type": "string"
        },
        {
          "internalType": "string",
          "name": "description",
          "type": "string"
        },
        {
          "internalType": "string",
          "name": "imageUrl",
          "type": "string"
        },
        {
          "internalType": "uint256",
          "name": "softCap",
          "type": "uint256"
        },
        {
          "internalType": "uint256",
          "name": "hardCap",
          "type": "uint256"
        },
        {
          "internalType": "uint256",
          "name": "ticketAmount",
          "type": "uint256"
        },
        {
          "internalType": "uint256",
          "name": "startDate",
          "type": "uint256"
        },
        {
          "internalType": "uint256",
          "name": "endDate",
          "type": "uint256"
        },
        {
          "internalType": "string[]",
          "name": "prizes",
          "type": "string[]"
        }
      ],
      "name": "createCampaign",
      "outputs": [
        {
          "internalType": "uint256",
          "name": "",
          "type": "uint256"
        }
      ],
      "stateMutability": "nonpayable",
      "type": "function"
    },
    {
      "inputs": [],
      "name": "emergencyPause",
      "outputs": [],
      "stateMutability": "nonpayable",
      "type": "function"
    },
    {
      "inputs": [
        {
          "internalType": "uint256",
          "name": "campaignId",
          "type": "uint256"
        },
        {
          "internalType": "bool",
          "name": "refundUsers",
          "type": "bool"
        }
      ],
      "name": "emergencyTerminateCampaign",
      "outputs": [],
      "stateMutability": "nonpayable",
      "type": "function"
    },
    {
      "inputs": [],
      "name": "emergencyUnpause",
      "outputs": [],
      "stateMutability": "nonpayable",
      "type": "function"
    },
    {
      "inputs": [
        {
          "internalType": "uint256",
          "name": "campaignId",
          "type": "uint256"
        }
      ],
      "name": "endCampaignNow",
      "outputs": [],
      "stateMutability": "nonpayable",
      "type": "function"
    },
    {
      "inputs": [
        {
          "internalType": "uint256",
          "name": "campaignId",
          "type": "uint256"
        }
      ],
      "name": "getCampaign",
      "outputs": [
        {
          "components": [
            {
              "internalType": "uint256",
              "name": "id",
              "type": "uint256"
            },
            {
              "internalType": "string",
              "name": "name",
              "type": "string"
            },
            {
              "internalType": "string",
              "name": "description",
              "type": "string"
            },
            {
              "internalType": "string",
              "name": "imageUrl",
              "type": "string"
            },
            {
              "internalType": "uint256",
              "name": "softCap",
              "type": "uint256"
            },
            {
              "internalType": "uint256",
              "name": "hardCap",
              "type": "uint256"
            },
            {
              "internalType": "uint256",
              "name": "ticketAmount",
              "type": "uint256"
            },
            {
              "internalType": "uint256",
              "name": "currentAmount",
              "type": "uint256"
            },
            {
              "internalType": "uint256",
              "name": "refundableAmount",
              "type": "uint256"
            },
            {
              "internalType": "uint256",
              "name": "startDate",
              "type": "uint256"
            },
            {
              "internalType": "uint256",
              "name": "endDate",
              "type": "uint256"
            },
            {
              "internalType": "uint256",
              "name": "participantCount",
              "type": "uint256"
            },
            {
              "internalType": "string[]",
              "name": "prizes",
              "type": "string[]"
            },
            {
              "internalType": "address[]",
              "name": "winners",
              "type": "address[]"
            },
            {
              "internalType": "enum AutomatedSqudyCampaignManager.CampaignStatus",
              "name": "status",
              "type": "uint8"
            },
            {
              "internalType": "bool",
              "name": "tokensAreBurned",
              "type": "bool"
            },
            {
              "internalType": "uint256",
              "name": "totalBurned",
              "type": "uint256"
            },
            {
              "internalType": "uint256",
              "name": "winnerSelectionBlock",
              "type": "uint256"
            }
          ],
          "internalType": "struct AutomatedSqudyCampaignManager.Campaign",
          "name": "",
          "type": "tuple"
        }
      ],
      "stateMutability": "view",
      "type": "function"
    },
    {
      "inputs": [
        {
          "internalType": "uint256",
          "name": "campaignId",
          "type": "uint256"
        }
      ],
      "name": "getCampaignParticipants",
      "outputs": [
        {
          "internalType": "address[]",
          "name": "",
          "type": "address[]"
        }
      ],
      "stateMutability": "view",
      "type": "function"
    },
    {
      "inputs": [
        {
          "internalType": "uint256",
          "name": "campaignId",
          "type": "uint256"
        },
        {
          "internalType": "address",
          "name": "user",
          "type": "address"
        }
      ],
      "name": "getParticipant",
      "outputs": [
        {
          "components": [
            {
              "internalType": "uint256",
              "name": "stakedAmount",
              "type": "uint256"
            },
            {
              "internalType": "uint256",
              "name": "ticketCount",
              "type": "uint256"
            },
            {
              "internalType": "bool",
              "name": "hasCompletedSocial",
              "type": "bool"
            },
            {
              "internalType": "uint256",
              "name": "joinedAt",
              "type": "uint256"
            },
            {
              "internalType": "bool",
              "name": "hasWithdrawnRefund",
              "type": "bool"
            }
          ],
          "internalType": "struct AutomatedSqudyCampaignManager.Participant",
          "name": "",
          "type": "tuple"
        }
      ],
      "stateMutability": "view",
      "type": "function"
    },
    {
      "inputs": [
        {
          "internalType": "bytes32",
          "name": "role",
          "type": "bytes32"
        }
      ],
      "name": "getRoleAdmin",
      "outputs": [
        {
          "internalType": "bytes32",
          "name": "",
          "type": "bytes32"
        }
      ],
      "stateMutability": "view",
      "type": "function"
    },
    {
      "inputs": [],
      "name": "getTotalCampaigns",
      "outputs": [
        {
          "internalType": "uint256",
          "name": "",
          "type": "uint256"
        }
      ],
      "stateMutability": "view",
      "type": "function"
    },
    {
      "inputs": [
        {
          "internalType": "bytes32",
          "name": "role",
          "type": "bytes32"
        },
        {
          "internalType": "address",
          "name": "account",
          "type": "address"
        }
      ],
      "name": "grantRole",
      "outputs": [],
      "stateMutability": "nonpayable",
      "type": "function"
    },
    {
      "inputs": [
        {
          "internalType": "bytes32",
          "name": "role",
          "type": "bytes32"
        },
        {
          "internalType": "address",
          "name": "account",
          "type": "address"
        }
      ],
      "name": "hasRole",
      "outputs": [
        {
          "internalType": "bool",
          "name": "",
          "type": "bool"
        }
      ],
      "stateMutability": "view",
      "type": "function"
    },
    {
      "inputs": [
        {
          "internalType": "uint256",
          "name": "",
          "type": "uint256"
        },
        {
          "internalType": "address",
          "name": "",
          "type": "address"
        }
      ],
      "name": "participants",
      "outputs": [
        {
          "internalType": "uint256",
          "name": "stakedAmount",
          "type": "uint256"
        },
        {
          "internalType": "uint256",
          "name": "ticketCount",
          "type": "uint256"
        },
        {
          "internalType": "bool",
          "name": "hasCompletedSocial",
          "type": "bool"
        },
        {
          "internalType": "uint256",
          "name": "joinedAt",
          "type": "uint256"
        },
        {
          "internalType": "bool",
          "name": "hasWithdrawnRefund",
          "type": "bool"
        }
      ],
      "stateMutability": "view",
      "type": "function"
    },
    {
      "inputs": [
        {
          "internalType": "uint256",
          "name": "campaignId",
          "type": "uint256"
        }
      ],
      "name": "pauseCampaign",
      "outputs": [],
      "stateMutability": "nonpayable",
      "type": "function"
    },
    {
      "inputs": [],
      "name": "paused",
      "outputs": [
        {
          "internalType": "bool",
          "name": "",
          "type": "bool"
        }
      ],
      "stateMutability": "view",
      "type": "function"
    },
    {
      "inputs": [
        {
          "internalType": "bytes32",
          "name": "role",
          "type": "bytes32"
        },
        {
          "internalType": "address",
          "name": "callerConfirmation",
          "type": "address"
        }
      ],
      "name": "renounceRole",
      "outputs": [],
      "stateMutability": "nonpayable",
      "type": "function"
    },
    {
      "inputs": [
        {
          "internalType": "uint256",
          "name": "campaignId",
          "type": "uint256"
        }
      ],
      "name": "resumeCampaign",
      "outputs": [],
      "stateMutability": "nonpayable",
      "type": "function"
    },
    {
      "inputs": [
        {
          "internalType": "bytes32",
          "name": "role",
          "type": "bytes32"
        },
        {
          "internalType": "address",
          "name": "account",
          "type": "address"
        }
      ],
      "name": "revokeRole",
      "outputs": [],
      "stateMutability": "nonpayable",
      "type": "function"
    },
    {
      "inputs": [
        {
          "internalType": "uint256",
          "name": "campaignId",
          "type": "uint256"
        }
      ],
      "name": "selectWinners",
      "outputs": [],
      "stateMutability": "nonpayable",
      "type": "function"
    },
    {
      "inputs": [],
      "name": "squdyToken",
      "outputs": [
        {
          "internalType": "contract IERC20",
          "name": "",
          "type": "address"
        }
      ],
      "stateMutability": "view",
      "type": "function"
    },
    {
      "inputs": [
        {
          "internalType": "uint256",
          "name": "campaignId",
          "type": "uint256"
        },
        {
          "internalType": "uint256",
          "name": "amount",
          "type": "uint256"
        }
      ],
      "name": "stakeTokens",
      "outputs": [],
      "stateMutability": "nonpayable",
      "type": "function"
    },
    {
      "inputs": [
        {
          "internalType": "bytes4",
          "name": "interfaceId",
          "type": "bytes4"
        }
      ],
      "name": "supportsInterface",
      "outputs": [
        {
          "internalType": "bool",
          "name": "",
          "type": "bool"
        }
      ],
      "stateMutability": "view",
      "type": "function"
    },
    {
      "inputs": [
        {
          "internalType": "uint256",
          "name": "campaignId",
          "type": "uint256"
        },
        {
          "internalType": "uint256",
          "name": "newEndDate",
          "type": "uint256"
        }
      ],
      "name": "updateCampaignEndDate",
      "outputs": [],
      "stateMutability": "nonpayable",
      "type": "function"
    }
  ],
  "bytecode": "0x60a03462000150576001600160401b0390601f62002f0438819003918201601f191683019184831184841017620000f5578084926020946040528339810103126200015057516001600160a01b0381169081900362000150576001805580156200010b57608052620000713362000155565b506200007d33620001d5565b50620000893362000277565b5060405160208101904282524460408201523360601b606082015260548152608081019281841090841117620000f55782604052519020600455612bcf908162000315823960805181818161078c0152818161094f01528181610b660152818161103a015261118b0152f35b634e487b7160e01b600052604160045260246000fd5b60405162461bcd60e51b815260206004820152601560248201527f496e76616c696420746f6b656e206164647265737300000000000000000000006044820152606490fd5b600080fd5b6001600160a01b031660008181527fad3228b676f7d3cd4284a5443f17f1962b36e491b30a40b2405849e597ba5fb5602052604081205490919060ff16620001d157818052816020526040822081835260205260408220600160ff19825416179055339160008051602062002ee48339815191528180a4600190565b5090565b6001600160a01b031660008181527f7d7ffb7a348e1c6a02869081a26547b49160dd3df72d1d75a570eb9b698292ec60205260408120549091907fa49807205ce4d355092ef5a8a18f56e8913cf4a201fbe287825b095693c217759060ff166200027257808352826020526040832082845260205260408320600160ff1982541617905560008051602062002ee4833981519152339380a4600190565b505090565b6001600160a01b031660008181527fee57cd81e84075558e8fcc182a1f4393f91fc97f963a136e66b7f949a62f319f60205260408120549091907f97667070c54ef182b0f5858b034beac1b6f3089aa2d3188bb1e8929f4fa9b9299060ff166200027257808352826020526040832082845260205260408320600160ff1982541617905560008051602062002ee4833981519152339380a460019056fe608080604052600436101561001357600080fd5b60003560e01c90816301ffc9a7146121905750806302e060c61461211257806303463dd914611db35780630b04056314611cf4578063141961bc14611bcd57806316f43dd414611baf578063171e986e14611a71578063248a9ca314611a425780632f2ff15d14611a0357806335abd49b146119b957806335f3ad7a146118e257806336568abe1461189b57806339a2eb2a146114e75780633b7b6188146110d35780634a4e3bd5146110695780634eb53f991461102457806351858e2714610fca5780635598f8cc14610c4b5780635b7baf6414610a835780635c975abb14610a605780636d1b229d1461088057806375b238fc14610845578063871f87cf146106815780638c6ab2381461061f57806391d14854146105d25780639e3696d9146104bf578063a217fddf146104a3578063b5801d91146102a2578063d547741f14610261578063de99347a146101b45763f5b541a61461017457600080fd5b346101af5760003660031901126101af5760206040517f97667070c54ef182b0f5858b034beac1b6f3089aa2d3188bb1e8929f4fa9b9298152f35b600080fd5b346101af5760203660031901126101af576004356101d0612545565b80151580610255575b6101e2906127ed565b806000526005602052600e604060002001805460ff811690600682101561023f57610211600160029314612839565b60ff19161790557fab1902ee37c92d1a78dda53814d64b815e7e3ee287d60843a3dbd6954e3206b4600080a2005b634e487b7160e01b600052602160045260246000fd5b506003548111156101d9565b346101af5760403660031901126101af576102a06004356102806121e3565b9080600052600060205261029b6001604060002001546125a1565b612645565b005b346101af5760403660031901126101af576004356102be6121e3565b3360009081527fee57cd81e84075558e8fcc182a1f4393f91fc97f963a136e66b7f949a62f319f602090815260409091205491929160ff168015610461575b1561042c5781151580610420575b610314906127ed565b60008281526006825260408082206001600160a01b03909516808352948352902054156103e3578160005260068152604060002083600052815260ff600260406000200154166103ab57816000526006815260406000209083600052526002604060002001600160ff198254161790557fd8e2a0fb3631991dd34ac6af97a04f3485326d9f70043bb29f54e66f0c5577c6600080a3005b6064906040519062461bcd60e51b825260048201526011602482015270105b1c9958591e4818dbdb5c1b195d1959607a1b6044820152fd5b6064906040519062461bcd60e51b82526004820152601660248201527555736572206e6f742070617274696369706174696e6760501b6044820152fd5b5060035482111561030b565b6064906040519062461bcd60e51b82526004820152600e60248201526d139bdd08185d5d1a1bdc9a5e995960921b6044820152fd5b507fa49807205ce4d355092ef5a8a18f56e8913cf4a201fbe287825b095693c2177560005260008152604060002033600052815260ff604060002054166102fd565b346101af5760003660031901126101af57602060405160008152f35b346101af5760203660031901126101af576004356104db612545565b801515806105c6575b6104ed906127ed565b8060005260056020526040600020600e81019081549060ff8216600681101561023f5760020361058b57600a015442116105515760ff191660011790557f25128b02d37802123547e1526ab020238abf16bbc37a5bd0a918d5088b016e95600080a2005b60405162461bcd60e51b815260206004820152601260248201527110d85b5c185a59db881a185cc8195b99195960721b6044820152606490fd5b60405162461bcd60e51b815260206004820152601360248201527210d85b5c185a59db881b9bdd081c185d5cd959606a1b6044820152606490fd5b506003548111156104e4565b346101af5760403660031901126101af576105eb6121e3565b600435600052600060205260406000209060018060a01b0316600052602052602060ff604060002054166040519015158152f35b346101af5760203660031901126101af5760043580151580610675575b610645906127ed565b600052600760205261067161065d6040600020612af5565b60405191829160208352602083019061248e565b0390f35b5060035481111561063c565b346101af5760403660031901126101af5760043560243580159081158082036101af576106ac6124cb565b83151580610839575b6106be906127ed565b6106c661294a565b836000526005602052604060002092600e84019384549160ff831694600686101561023f577ff75bd1a9b4e512fc86093732061ee514541c41fcf65f64697ffd3e0f6328c215966004899561071f600160209a14612839565b60ff19161790558061082c575b15610742575b505050604051908152a260018055005b8061081f575b610753575b80610732565b8381600f60077f8bc81353cf6671d259d22783e39ed930583c86f3f4cf7e981298e6a872dfb15d940191600083549355600060088201557f00000000000000000000000000000000000000000000000000000000000000008360008060405188810190630852cd8d60e31b8252846024820152602481526107d381612264565b5190826001600160a01b0387165af16107ea61296d565b501561080f575b5050016107ff8282546128c3565b9055604051908152a2838561074d565b6108189161299d565b8a836107f1565b5060078101541515610748565b506007820154151561072c565b506003548411156106b5565b346101af5760003660031901126101af5760206040517fa49807205ce4d355092ef5a8a18f56e8913cf4a201fbe287825b095693c217758152f35b346101af576020806003193601126101af576004359081151580610a54575b6108a8906127ed565b6108b061294a565b81600052600581526040600020600e81019081549160ff8316600681101561023f57600303610a185760ff8360081c166109db57837f7e5e6bfcab605d9254dbb5c3b4c8bd65ee4705bb30b1fc434d9651d24d368f3694936000600885827f8bc81353cf6671d259d22783e39ed930583c86f3f4cf7e981298e6a872dfb15d9660078c99019061010582549788600f87015561ffff19161790555501557f00000000000000000000000000000000000000000000000000000000000000008160008060405186810190630852cd8d60e31b82528460248201526024815261099681612264565b5190826001600160a01b0387165af16109ad61296d565b50156109cb575b5050604051908152a260405160058152a260018055005b6109d49161299d565b87816109b4565b60405162461bcd60e51b8152600481018590526015602482015274151bdad95b9cc8185b1c9958591e48189d5c9b9959605a1b6044820152606490fd5b60405162461bcd60e51b815260048101859052601460248201527315da5b9b995c9cc81b9bdd081cd95b1958dd195960621b6044820152606490fd5b5060035482111561089f565b346101af5760003660031901126101af57602060ff600254166040519015158152f35b346101af576020806003193601126101af5760043590610aa161294a565b81151580610c3f575b610ab3906127ed565b816000526005815260406000209160ff600e84015416600681101561023f57600403610c0a5760005260068152604060002033600052815260406000208054908115610bd15760048101805460ff8116610b99576001600893610b8a97938260009460ff19161790558281550155018181541015600014610b9057610b398282546128b6565b90555b6040519163a9059cbb60e01b90830152336024830152604482015260448152610b6481612248565b7f00000000000000000000000000000000000000000000000000000000000000006128d0565b60018055005b60009055610b3c565b60405162461bcd60e51b815260048101869052601060248201526f105b1c9958591e481c99599d5b99195960821b6044820152606490fd5b60405162461bcd60e51b8152600481018490526011602482015270139bdd1a1a5b99c81d1bc81c99599d5b99607a1b6044820152606490fd5b60405162461bcd60e51b815260048101839052600d60248201526c139bdd0818d85b98d95b1b1959609a1b6044820152606490fd5b50600354821115610aaa565b346101af5760203660031901126101af576000610220604051610c6d8161222b565b82815260606020820152606060408201526060808201528260808201528260a08201528260c08201528260e082015282610100820152826101208201528261014082015282610160820152606061018082015260606101a0820152826101c0820152826101e082015282610200820152015260043580151580610fbe575b610cf4906127ed565b6000526005602052604060002060405190610d0e8261222b565b80548252610d1e60018201612357565b6020830152610d2f60028201612357565b6040830152610d4060038201612357565b606083015260048101546080830152600581015460a0830152600681015460c0830152600781015460e083015260088101546101008301526009810154610120830152600a810154610140830152600b810154610160830152600c810154610da781612305565b90610db56040519283612280565b80825260208201600c840160005260206000206000915b838310610fa15750505050610180830152610de9600d8201612af5565b6101a0830152600e81015490600660ff8316101561023f5760ff8281601094166101c086015260081c1615156101e0840152600f81015461020084015201546102208201526040516020815281516020820152610e89610e73610e5d602085015161024060408601526102608501906123fd565b6040850151848203601f190160608601526123fd565b6060840151838203601f190160808501526123fd565b91608081015160a083015260a081015160c083015260c081015160e083015260e081015161010083015261010081015161012083015261012081015161014083015261014081015161016083015261016081015161018083015261018081015192601f19838203016101a0840152835180825260208201916020808360051b8301019601926000915b838310610f7457868087610220610f3b8c6101a0840151601f19868303016101c087015261248e565b91610f506101c08201516101e086019061243d565b6101e081015115156102008501526102008101518285015201516102408301520390f35b9091929396602080610f92600193601f198682030187528b516123fd565b99019301930191939290610f12565b600160208192610fb085612357565b815201920192019190610dcc565b50600354811115610ceb565b346101af5760003660031901126101af57610fe36124cb565b610feb61292c565b600160ff1960025416176002557f62e78cea01bee320cd4e420270b5ea74000d11b0c9f74754ebdbfc544b05a2586020604051338152a1005b346101af5760003660031901126101af576040517f00000000000000000000000000000000000000000000000000000000000000006001600160a01b03168152602090f35b346101af5760003660031901126101af576110826124cb565b60025460ff8116156110c15760ff19166002557f5db9ee0a495bf2e6ff9c91a7834c1ba4fdd244a5e8aa4e537bd38aeae4b073aa6020604051338152a1005b604051638dfc202b60e01b8152600490fd5b346101af576110e13661244a565b906110ea61294a565b6110f261292c565b801515806114db575b611104906127ed565b806000526020916005835260406000209260ff600e85015416600681101561023f5760016111329114612839565b6009840154421015806114cd575b156114895760068401938454831061144d5783600052600682526040600020336000528252604060002080541561141c575b6040516370a0823160e01b8082523060048301526024957f00000000000000000000000000000000000000000000000000000000000000006001600160a01b038116939092909187838a81885afa9384156113db5788936000956113e7575b509061120991604051916323b872dd60e01b86840152338c840152306044840152606483015260648252611204826121f9565b6128d0565b876040518095819382523060048301525afa80156113db576000906113ac575b61123392506128b6565b95549081871061136857600783019161124d8884546128c3565b60058501541061133157801561131c5787049485156112d95750906001826112798960089695546128c3565b8155016112878682546128c3565b90556112948782546128c3565b9055016112a28582546128c3565b90556040519384528301527fbf3a2998bf95effb9622e3aeea768ec248f238862fd602100075c04d21caa23c60403393a360018055005b84601b6064926040519262461bcd60e51b845260048401528201527f496e73756666696369656e7420666f72206f6e65207469636b657400000000006044820152fd5b85634e487b7160e01b60005260126004526000fd5b60405162461bcd60e51b8152600481018690526010818801526f0457863656564732068617264206361760841b6044820152606490fd5b60405162461bcd60e51b815260048101859052601b818701527f416d6f756e7420746f6f20736d616c6c206166746572206665657300000000006044820152606490fd5b508482813d83116113d4575b6113c28183612280565b810103126101af576112339151611229565b503d6113b8565b6040513d6000823e3d90fd5b848193959296503d8311611415575b6114008183612280565b810103126101af5751928792906112096111d1565b503d6113f6565b846000526007835261143233604060002061287b565b600b820161144081546126ba565b9055426003820155611172565b60405162461bcd60e51b8152600481018390526014602482015273416d6f756e742062656c6f77206d696e696d756d60601b6044820152606490fd5b6064906040519062461bcd60e51b82526004820152601860248201527f43616d706169676e206e6f7420696e2070726f677265737300000000000000006044820152fd5b50600a840154421115611140565b506003548111156110fb565b346101af5760203660031901126101af5760043515158061188d575b61150c906127ed565b61151461294a565b6004356000526005602052604060002060ff600e82015416600681101561023f5760016115419114612839565b600a810154421115611850576007810154600482015481106118145760043560005260076020526040600020908154611579816129cd565b9260005b8281106117e55750505081908251156117a057600c8401549251808411611798575b50600019430190438211611782576004546115b9816126ba565b600455604051916020830193408452600435604084015260608301526080820152608081526115e7816121f9565b519020916000925b8184106116b957600e8501805460ff1916600317905543601086015560408051818152600d87018054928201839052600090815260208120606083019390915b81811061169a574360208501526004357fa15551854f54807a0f0db8e3b861523fd994877676824ed8603655ab18ca6dd885870386a2604051600381527f7e5e6bfcab605d9254dbb5c3b4c8bd65ee4705bb30b1fc434d9651d24d368f36602060043592a260018055005b82546001600160a01b031685526020909401936001928301920161162f565b6116cf6116c685836128c3565b846004356129ff565b906116dd82600d880161287b565b835180600019810111611782576116f790600019016129cd565b9560009360005b8651811015611768576001600160a01b038581169061171d838a6127d9565b511603611733575b61172e906126ba565b6116fe565b9461172e90611760906001600160a01b0361174e898b6127d9565b511661175a828d6127d9565b526126ba565b959050611725565b509594509590925061177b9150926126ba565b92906115ef565b634e487b7160e01b600052601160045260246000fd5b92508461159f565b60405162461bcd60e51b815260206004820152601860248201527f4e6f20656c696769626c65207061727469636970616e747300000000000000006044820152606490fd5b806117f361180f9284612460565b905460039190911b1c6001600160a01b031661175a82886127d9565b61157d565b60405162461bcd60e51b815260206004820152601460248201527314dbd99d0818d85c081b9bdd081c995858da195960621b6044820152606490fd5b60405162461bcd60e51b815260206004820152601560248201527443616d706169676e207374696c6c2061637469766560581b6044820152606490fd5b506003546004351115611503565b346101af5760403660031901126101af576118b46121e3565b336001600160a01b038216036118d0576102a090600435612645565b60405163334bd91960e11b8152600490fd5b346101af5760403660031901126101af576118fb6121e3565b6000608060405161190b816121f9565b8281528260208201528260408201528260608201520152600435600052600660205260406000209060018060a01b031660005260205260a06040600020604051611954816121f9565b81549182825260018101546020830190815260ff60028301541690604084019115158252608060ff6004600386015495606088019687520154169401931515845260405194855251602085015251151560408401525160608301525115156080820152f35b346101af576119c73661244a565b906000526007602052604060002080548210156101af576020916119ea91612460565b905460405160039290921b1c6001600160a01b03168152f35b346101af5760403660031901126101af576102a0600435611a226121e3565b90806000526000602052611a3d6001604060002001546125a1565b6125c7565b346101af5760203660031901126101af5760043560005260006020526020600160406000200154604051908152f35b346101af57611a7f3661244a565b611a876124cb565b81151580611ba3575b611a99906127ed565b816000526005602052604060002060ff600e82015416600681101561023f57806001611ace9214908115611b98575b50612b4d565b42821115611b5357600a01805480831115611b1757827f70e9f58eec5af783627e59f6af135becb4bcbd768c33d59e8f30f329cde15f2e936040935582519182526020820152a2005b60405162461bcd60e51b81526020600482015260146024820152734d75737420657874656e6420656e64206461746560601b6044820152606490fd5b60405162461bcd60e51b815260206004820152601a60248201527f456e642064617465206d75737420626520696e206675747572650000000000006044820152606490fd5b600291501485611ac8565b50600354821115611a90565b346101af5760003660031901126101af576020600354604051908152f35b346101af5760203660031901126101af576004356000526005602052604060002080549060018101611bfe90612357565b90611c0b60028201612357565b611c1760038301612357565b916004810154926005820154600683015460078401546008850154600986015491600a87015493600b88015495600e89015497600f8a015499601001549a6040519e8f9e8f9182526102008060208401528201611c73916123fd565b908082039060400152611c85916123fd565b8d810360608f0152611c96916123fd565b9a60808d015260a08c015260c08b015260e08a0152610100890152610120880152610140870152610160860152610180850160ff821690611cd69161243d565b60081c60ff1615156101a08501526101c08401526101e08301520390f35b346101af5760203660031901126101af57600435611d106124cb565b80151580611da7575b611d22906127ed565b806000526005602052604060002060ff600e8201541690600682101561023f57611d59826001600a9414908115611b985750612b4d565b0180549060001942019142831161178257828111611d7357005b827f70e9f58eec5af783627e59f6af135becb4bcbd768c33d59e8f30f329cde15f2e936040935582519182526020820152a2005b50600354811115611d19565b346101af576101203660031901126101af5767ffffffffffffffff6004358181116101af57611de69036906004016122be565b9060249182358281116101af57611e019036906004016122be565b6044358381116101af57611e199036906004016122be565b61010435908482116101af57366023830112156101af57816004013591611e3f83612305565b92611e4d6040519485612280565b808452602096888886019260051b840101923684116101af57898101925b8484106120ec575050505050611e7f6124cb565b60c435428111156120b35760e435918183111561207c5760643580151580612071575b1561203e5760a4359182156120025792889994919260059993611f068a9896611efd611ef49b611ed36003546126ba565b9e8f998a6003558a60005252604060002098895560019c8d9c8d8b016126c9565b600289016126c9565b600387016126c9565b6004850155608435600585015560068401556009830155600a820155600e8101805460ff191685179055600c01936000905b611f82575b878787817fc04c663886cae794dc52158f70fe6c8ee3b0140d4f48647282f9b693ff688a6560405185815280611f773395888301906123fd565b0390a3604051908152f35b8151811015611ffd57611f9581836127d9565b518554600160401b811015611fe8578086611fb39201885587612460565b611fd35791611fc7611fcc928795946126c9565b6126ba565b9091611f38565b84634e487b7160e01b60005260006004526000fd5b84634e487b7160e01b60005260416004526000fd5b611f3d565b60405162461bcd60e51b8152600481018a90526015818c015274125b9d985b1a59081d1a58dad95d08185b5bdd5b9d605a1b6044820152606490fd5b60405162461bcd60e51b815260048101899052600c818b01526b496e76616c6964206361707360a01b6044820152606490fd5b508060843511611ea2565b60405162461bcd60e51b8152600481018890526010818a01526f496e76616c696420656e64206461746560801b6044820152606490fd5b60405162461bcd60e51b81526004810187905260128189015271496e76616c6964207374617274206461746560701b6044820152606490fd5b83358381116101af578a9161210783928e36918701016122be565b815201930192611e6b565b346101af5760403660031901126101af5761212b6121e3565b600435600052600660205260406000209060018060a01b031660005260205260a0604060002080549060018101549060ff60028201541660ff600460038401549301541692604051948552602085015215156040840152606083015215156080820152f35b346101af5760203660031901126101af576004359063ffffffff60e01b82168092036101af57602091637965db0b60e01b81149081156121d2575b5015158152f35b6301ffc9a760e01b149050836121cb565b602435906001600160a01b03821682036101af57565b60a0810190811067ffffffffffffffff82111761221557604052565b634e487b7160e01b600052604160045260246000fd5b610240810190811067ffffffffffffffff82111761221557604052565b6080810190811067ffffffffffffffff82111761221557604052565b6060810190811067ffffffffffffffff82111761221557604052565b90601f8019910116810190811067ffffffffffffffff82111761221557604052565b67ffffffffffffffff811161221557601f01601f191660200190565b81601f820112156101af578035906122d5826122a2565b926122e36040519485612280565b828452602083830101116101af57816000926020809301838601378301015290565b67ffffffffffffffff81116122155760051b60200190565b90600182811c9216801561234d575b602083101461233757565b634e487b7160e01b600052602260045260246000fd5b91607f169161232c565b906040519182600082549261236b8461231d565b9081845260019485811690816000146123da5750600114612397575b505061239592500383612280565b565b9093915060005260209081600020936000915b8183106123c257505061239593508201013880612387565b855488840185015294850194879450918301916123aa565b91505061239594506020925060ff191682840152151560051b8201013880612387565b919082519283825260005b848110612429575050826000602080949584010152601f8019910116010190565b602081830181015184830182015201612408565b90600682101561023f5752565b60409060031901126101af576004359060243590565b80548210156124785760005260206000200190600090565b634e487b7160e01b600052603260045260246000fd5b90815180825260208080930193019160005b8281106124ae575050505090565b83516001600160a01b0316855293810193928101926001016124a0565b3360009081527f7d7ffb7a348e1c6a02869081a26547b49160dd3df72d1d75a570eb9b698292ec60205260409020547fa49807205ce4d355092ef5a8a18f56e8913cf4a201fbe287825b095693c217759060ff16156125275750565b6044906040519063e2517d3f60e01b82523360048301526024820152fd5b3360009081527fee57cd81e84075558e8fcc182a1f4393f91fc97f963a136e66b7f949a62f319f60205260409020547f97667070c54ef182b0f5858b034beac1b6f3089aa2d3188bb1e8929f4fa9b9299060ff16156125275750565b80600052600060205260406000203360005260205260ff60406000205416156125275750565b9060009180835282602052604083209160018060a01b03169182845260205260ff6040842054161560001461264057808352826020526040832082845260205260408320600160ff198254161790557f2f8788117e7eff1d82e926ec794901d17c78024a50270940304540a733656f0d339380a4600190565b505090565b9060009180835282602052604083209160018060a01b03169182845260205260ff6040842054166000146126405780835282602052604083208284526020526040832060ff1981541690557ff6391f5c32d9c69d2a47ea670b442974b53935d1edc7fd64eb21e047a839171b339380a4600190565b60001981146117825760010190565b919091825167ffffffffffffffff8111612215576126e7825461231d565b601f8111612791575b50602080601f831160011461272d575081929394600092612722575b50508160011b916000199060031b1c1916179055565b01519050388061270c565b90601f198316958460005282600020926000905b88821061277957505083600195969710612760575b505050811b019055565b015160001960f88460031b161c19169055388080612756565b80600185968294968601518155019501930190612741565b600083815260208120601f840160051c810192602085106127cf575b601f0160051c01915b8281106127c45750506126f0565b8181556001016127b6565b90925082906127ad565b80518210156124785760209160051b010190565b156127f457565b60405162461bcd60e51b815260206004820152601760248201527f43616d706169676e20646f6573206e6f742065786973740000000000000000006044820152606490fd5b1561284057565b60405162461bcd60e51b815260206004820152601360248201527243616d706169676e206e6f742061637469766560681b6044820152606490fd5b8054600160401b8110156122155761289891600182018155612460565b819291549060031b9160018060a01b03809116831b921b1916179055565b9190820391821161178257565b9190820180921161178257565b906000602091828151910182855af1156113db576000513d61292357506001600160a01b0381163b155b6129015750565b604051635274afe760e01b81526001600160a01b039091166004820152602490fd5b600114156128fa565b60ff6002541661293857565b60405163d93c066560e01b8152600490fd5b60026001541461295b576002600155565b604051633ee5aeb560e01b8152600490fd5b3d15612998573d9061297e826122a2565b9161298c6040519384612280565b82523d6000602084013e565b606090565b90612395916040519163a9059cbb60e01b602084015261dead602484015260448301526044825261120482612248565b906129d782612305565b6129e46040519182612280565b82815280926129f5601f1991612305565b0190602036910137565b600093845b8351861015612a5557612a49612a4f918460005260016020600681526040908160002090838060a01b03612a388d8c6127d9565b5116600052526000200154906128c3565b956126ba565b94612a04565b91939094508115612adf570690600091825b8251811015612ac35784600052612a98602094600686526001604080600020828060a01b039889612a38888b6127d9565b93848310612aaf5750612aaa906126ba565b612a67565b9450919050612abe92506127d9565b511690565b505091505080511561247857602001516001600160a01b031690565b634e487b7160e01b600052601260045260246000fd5b9060405191828154918282526020928383019160005283600020936000905b828210612b2a5750505061239592500383612280565b85546001600160a01b031684526001958601958895509381019390910190612b14565b15612b5457565b60405162461bcd60e51b815260206004820152601a60248201527f43616d706169676e206e6f74206163746976652f7061757365640000000000006044820152606490fdfea26469706673582212207e6523e0d019b72ba30eb70428070d4e224c510c7d30a3dcc9fb781a681b720c64736f6c634300081400332f8788117e7eff1d82e926ec794901d17c78024a50270940304540a733656f0d",
  "linkReferences": {},
  "deployedLinkReferences": {}
}