{
  "_format": "hh-sol-artifact-1",
  "contractName": "AutomatedSqudyCampaignManager",
  "sourceName": "contracts/AutomatedSqudyCampaignManager.sol",
  "abi": [
    {
      "inputs": [
        {
          "internalType": "address",
          "name": "_squdyToken",
          "type": "address"
        }
      ],
      "stateMutability": "nonpayable",
      "type": "constructor"
    },
    {
      "inputs": [],
      "name": "AccessControlBadConfirmation",
      "type": "error"
    },
    {
      "inputs": [
        {
          "internalType": "address",
          "name": "account",
          "type": "address"
        },
        {
          "internalType": "bytes32",
          "name": "neededRole",
          "type": "bytes32"
        }
      ],
      "name": "AccessControlUnauthorizedAccount",
      "type": "error"
    },
    {
      "inputs": [],
      "name": "EnforcedPause",
      "type": "error"
    },
    {
      "inputs": [],
      "name": "ExpectedPause",
      "type": "error"
    },
    {
      "inputs": [],
      "name": "ReentrancyGuardReentrantCall",
      "type": "error"
    },
    {
      "inputs": [
        {
          "internalType": "address",
          "name": "token",
          "type": "address"
        }
      ],
      "name": "SafeERC20FailedOperation",
      "type": "error"
    },
    {
      "anonymous": false,
      "inputs": [
        {
          "indexed": true,
          "internalType": "uint256",
          "name": "campaignId",
          "type": "uint256"
        },
        {
          "indexed": true,
          "internalType": "address",
          "name": "creator",
          "type": "address"
        },
        {
          "indexed": false,
          "internalType": "string",
          "name": "name",
          "type": "string"
        }
      ],
      "name": "CampaignCreated",
      "type": "event"
    },
    {
      "anonymous": false,
      "inputs": [
        {
          "indexed": true,
          "internalType": "uint256",
          "name": "campaignId",
          "type": "uint256"
        },
        {
          "indexed": false,
          "internalType": "uint256",
          "name": "oldEndDate",
          "type": "uint256"
        },
        {
          "indexed": false,
          "internalType": "uint256",
          "name": "newEndDate",
          "type": "uint256"
        }
      ],
      "name": "CampaignEndDateUpdated",
      "type": "event"
    },
    {
      "anonymous": false,
      "inputs": [
        {
          "indexed": true,
          "internalType": "uint256",
          "name": "campaignId",
          "type": "uint256"
        }
      ],
      "name": "CampaignPaused",
      "type": "event"
    },
    {
      "anonymous": false,
      "inputs": [
        {
          "indexed": true,
          "internalType": "uint256",
          "name": "campaignId",
          "type": "uint256"
        }
      ],
      "name": "CampaignResumed",
      "type": "event"
    },
    {
      "anonymous": false,
      "inputs": [
        {
          "indexed": true,
          "internalType": "uint256",
          "name": "campaignId",
          "type": "uint256"
        },
        {
          "indexed": false,
          "internalType": "enum AutomatedSqudyCampaignManager.CampaignStatus",
          "name": "status",
          "type": "uint8"
        }
      ],
      "name": "CampaignStatusChanged",
      "type": "event"
    },
    {
      "anonymous": false,
      "inputs": [
        {
          "indexed": true,
          "internalType": "uint256",
          "name": "campaignId",
          "type": "uint256"
        },
        {
          "indexed": false,
          "internalType": "bool",
          "name": "refunded",
          "type": "bool"
        }
      ],
      "name": "CampaignTerminated",
      "type": "event"
    },
    {
      "anonymous": false,
      "inputs": [
        {
          "indexed": false,
          "internalType": "address",
          "name": "account",
          "type": "address"
        }
      ],
      "name": "Paused",
      "type": "event"
    },
    {
      "anonymous": false,
      "inputs": [
        {
          "indexed": true,
          "internalType": "bytes32",
          "name": "role",
          "type": "bytes32"
        },
        {
          "indexed": true,
          "internalType": "bytes32",
          "name": "previousAdminRole",
          "type": "bytes32"
        },
        {
          "indexed": true,
          "internalType": "bytes32",
          "name": "newAdminRole",
          "type": "bytes32"
        }
      ],
      "name": "RoleAdminChanged",
      "type": "event"
    },
    {
      "anonymous": false,
      "inputs": [
        {
          "indexed": true,
          "internalType": "bytes32",
          "name": "role",
          "type": "bytes32"
        },
        {
          "indexed": true,
          "internalType": "address",
          "name": "account",
          "type": "address"
        },
        {
          "indexed": true,
          "internalType": "address",
          "name": "sender",
          "type": "address"
        }
      ],
      "name": "RoleGranted",
      "type": "event"
    },
    {
      "anonymous": false,
      "inputs": [
        {
          "indexed": true,
          "internalType": "bytes32",
          "name": "role",
          "type": "bytes32"
        },
        {
          "indexed": true,
          "internalType": "address",
          "name": "account",
          "type": "address"
        },
        {
          "indexed": true,
          "internalType": "address",
          "name": "sender",
          "type": "address"
        }
      ],
      "name": "RoleRevoked",
      "type": "event"
    },
    {
      "anonymous": false,
      "inputs": [
        {
          "indexed": true,
          "internalType": "uint256",
          "name": "campaignId",
          "type": "uint256"
        },
        {
          "indexed": true,
          "internalType": "address",
          "name": "user",
          "type": "address"
        }
      ],
      "name": "SocialTasksCompleted",
      "type": "event"
    },
    {
      "anonymous": false,
      "inputs": [
        {
          "indexed": true,
          "internalType": "uint256",
          "name": "campaignId",
          "type": "uint256"
        },
        {
          "indexed": false,
          "internalType": "uint256",
          "name": "amount",
          "type": "uint256"
        }
      ],
      "name": "TokensBurned",
      "type": "event"
    },
    {
      "anonymous": false,
      "inputs": [
        {
          "indexed": false,
          "internalType": "address",
          "name": "account",
          "type": "address"
        }
      ],
      "name": "Unpaused",
      "type": "event"
    },
    {
      "anonymous": false,
      "inputs": [
        {
          "indexed": true,
          "internalType": "uint256",
          "name": "campaignId",
          "type": "uint256"
        },
        {
          "indexed": true,
          "internalType": "address",
          "name": "user",
          "type": "address"
        },
        {
          "indexed": false,
          "internalType": "uint256",
          "name": "amount",
          "type": "uint256"
        },
        {
          "indexed": false,
          "internalType": "uint256",
          "name": "tickets",
          "type": "uint256"
        }
      ],
      "name": "UserStaked",
      "type": "event"
    },
    {
      "anonymous": false,
      "inputs": [
        {
          "indexed": true,
          "internalType": "uint256",
          "name": "campaignId",
          "type": "uint256"
        },
        {
          "indexed": false,
          "internalType": "address[]",
          "name": "winners",
          "type": "address[]"
        },
        {
          "indexed": false,
          "internalType": "uint256",
          "name": "blockNumber",
          "type": "uint256"
        }
      ],
      "name": "WinnersSelected",
      "type": "event"
    },
    {
      "inputs": [],
      "name": "ADMIN_ROLE",
      "outputs": [
        {
          "internalType": "bytes32",
          "name": "",
          "type": "bytes32"
        }
      ],
      "stateMutability": "view",
      "type": "function"
    },
    {
      "inputs": [],
      "name": "DEFAULT_ADMIN_ROLE",
      "outputs": [
        {
          "internalType": "bytes32",
          "name": "",
          "type": "bytes32"
        }
      ],
      "stateMutability": "view",
      "type": "function"
    },
    {
      "inputs": [],
      "name": "OPERATOR_ROLE",
      "outputs": [
        {
          "internalType": "bytes32",
          "name": "",
          "type": "bytes32"
        }
      ],
      "stateMutability": "view",
      "type": "function"
    },
    {
      "inputs": [
        {
          "internalType": "uint256",
          "name": "campaignId",
          "type": "uint256"
        }
      ],
      "name": "burnTokens",
      "outputs": [],
      "stateMutability": "nonpayable",
      "type": "function"
    },
    {
      "inputs": [
        {
          "internalType": "uint256",
          "name": "",
          "type": "uint256"
        },
        {
          "internalType": "uint256",
          "name": "",
          "type": "uint256"
        }
      ],
      "name": "campaignParticipants",
      "outputs": [
        {
          "internalType": "address",
          "name": "",
          "type": "address"
        }
      ],
      "stateMutability": "view",
      "type": "function"
    },
    {
      "inputs": [
        {
          "internalType": "uint256",
          "name": "",
          "type": "uint256"
        }
      ],
      "name": "campaigns",
      "outputs": [
        {
          "internalType": "uint256",
          "name": "id",
          "type": "uint256"
        },
        {
          "internalType": "string",
          "name": "name",
          "type": "string"
        },
        {
          "internalType": "string",
          "name": "description",
          "type": "string"
        },
        {
          "internalType": "string",
          "name": "imageUrl",
          "type": "string"
        },
        {
          "internalType": "uint256",
          "name": "softCap",
          "type": "uint256"
        },
        {
          "internalType": "uint256",
          "name": "hardCap",
          "type": "uint256"
        },
        {
          "internalType": "uint256",
          "name": "ticketAmount",
          "type": "uint256"
        },
        {
          "internalType": "uint256",
          "name": "currentAmount",
          "type": "uint256"
        },
        {
          "internalType": "uint256",
          "name": "refundableAmount",
          "type": "uint256"
        },
        {
          "internalType": "uint256",
          "name": "startDate",
          "type": "uint256"
        },
        {
          "internalType": "uint256",
          "name": "endDate",
          "type": "uint256"
        },
        {
          "internalType": "uint256",
          "name": "participantCount",
          "type": "uint256"
        },
        {
          "internalType": "enum AutomatedSqudyCampaignManager.CampaignStatus",
          "name": "status",
          "type": "uint8"
        },
        {
          "internalType": "bool",
          "name": "tokensAreBurned",
          "type": "bool"
        },
        {
          "internalType": "uint256",
          "name": "totalBurned",
          "type": "uint256"
        },
        {
          "internalType": "uint256",
          "name": "winnerSelectionBlock",
          "type": "uint256"
        }
      ],
      "stateMutability": "view",
      "type": "function"
    },
    {
      "inputs": [
        {
          "internalType": "uint256",
          "name": "campaignId",
          "type": "uint256"
        }
      ],
      "name": "claimRefund",
      "outputs": [],
      "stateMutability": "nonpayable",
      "type": "function"
    },
    {
      "inputs": [
        {
          "internalType": "uint256",
          "name": "campaignId",
          "type": "uint256"
        },
        {
          "internalType": "address",
          "name": "user",
          "type": "address"
        }
      ],
      "name": "confirmSocialTasks",
      "outputs": [],
      "stateMutability": "nonpayable",
      "type": "function"
    },
    {
      "inputs": [
        {
          "internalType": "string",
          "name": "name",
          "type": "string"
        },
        {
          "internalType": "string",
          "name": "description",
          "type": "string"
        },
        {
          "internalType": "string",
          "name": "imageUrl",
          "type": "string"
        },
        {
          "internalType": "uint256",
          "name": "softCap",
          "type": "uint256"
        },
        {
          "internalType": "uint256",
          "name": "hardCap",
          "type": "uint256"
        },
        {
          "internalType": "uint256",
          "name": "ticketAmount",
          "type": "uint256"
        },
        {
          "internalType": "uint256",
          "name": "startDate",
          "type": "uint256"
        },
        {
          "internalType": "uint256",
          "name": "endDate",
          "type": "uint256"
        },
        {
          "internalType": "string[]",
          "name": "prizes",
          "type": "string[]"
        }
      ],
      "name": "createCampaign",
      "outputs": [
        {
          "internalType": "uint256",
          "name": "",
          "type": "uint256"
        }
      ],
      "stateMutability": "nonpayable",
      "type": "function"
    },
    {
      "inputs": [],
      "name": "emergencyPause",
      "outputs": [],
      "stateMutability": "nonpayable",
      "type": "function"
    },
    {
      "inputs": [
        {
          "internalType": "uint256",
          "name": "campaignId",
          "type": "uint256"
        },
        {
          "internalType": "bool",
          "name": "refundUsers",
          "type": "bool"
        }
      ],
      "name": "emergencyTerminateCampaign",
      "outputs": [],
      "stateMutability": "nonpayable",
      "type": "function"
    },
    {
      "inputs": [],
      "name": "emergencyUnpause",
      "outputs": [],
      "stateMutability": "nonpayable",
      "type": "function"
    },
    {
      "inputs": [
        {
          "internalType": "uint256",
          "name": "campaignId",
          "type": "uint256"
        }
      ],
      "name": "getCampaign",
      "outputs": [
        {
          "components": [
            {
              "internalType": "uint256",
              "name": "id",
              "type": "uint256"
            },
            {
              "internalType": "string",
              "name": "name",
              "type": "string"
            },
            {
              "internalType": "string",
              "name": "description",
              "type": "string"
            },
            {
              "internalType": "string",
              "name": "imageUrl",
              "type": "string"
            },
            {
              "internalType": "uint256",
              "name": "softCap",
              "type": "uint256"
            },
            {
              "internalType": "uint256",
              "name": "hardCap",
              "type": "uint256"
            },
            {
              "internalType": "uint256",
              "name": "ticketAmount",
              "type": "uint256"
            },
            {
              "internalType": "uint256",
              "name": "currentAmount",
              "type": "uint256"
            },
            {
              "internalType": "uint256",
              "name": "refundableAmount",
              "type": "uint256"
            },
            {
              "internalType": "uint256",
              "name": "startDate",
              "type": "uint256"
            },
            {
              "internalType": "uint256",
              "name": "endDate",
              "type": "uint256"
            },
            {
              "internalType": "uint256",
              "name": "participantCount",
              "type": "uint256"
            },
            {
              "internalType": "string[]",
              "name": "prizes",
              "type": "string[]"
            },
            {
              "internalType": "address[]",
              "name": "winners",
              "type": "address[]"
            },
            {
              "internalType": "enum AutomatedSqudyCampaignManager.CampaignStatus",
              "name": "status",
              "type": "uint8"
            },
            {
              "internalType": "bool",
              "name": "tokensAreBurned",
              "type": "bool"
            },
            {
              "internalType": "uint256",
              "name": "totalBurned",
              "type": "uint256"
            },
            {
              "internalType": "uint256",
              "name": "winnerSelectionBlock",
              "type": "uint256"
            }
          ],
          "internalType": "struct AutomatedSqudyCampaignManager.Campaign",
          "name": "",
          "type": "tuple"
        }
      ],
      "stateMutability": "view",
      "type": "function"
    },
    {
      "inputs": [
        {
          "internalType": "uint256",
          "name": "campaignId",
          "type": "uint256"
        }
      ],
      "name": "getCampaignParticipants",
      "outputs": [
        {
          "internalType": "address[]",
          "name": "",
          "type": "address[]"
        }
      ],
      "stateMutability": "view",
      "type": "function"
    },
    {
      "inputs": [
        {
          "internalType": "uint256",
          "name": "campaignId",
          "type": "uint256"
        },
        {
          "internalType": "address",
          "name": "user",
          "type": "address"
        }
      ],
      "name": "getParticipant",
      "outputs": [
        {
          "components": [
            {
              "internalType": "uint256",
              "name": "stakedAmount",
              "type": "uint256"
            },
            {
              "internalType": "uint256",
              "name": "ticketCount",
              "type": "uint256"
            },
            {
              "internalType": "bool",
              "name": "hasCompletedSocial",
              "type": "bool"
            },
            {
              "internalType": "uint256",
              "name": "joinedAt",
              "type": "uint256"
            },
            {
              "internalType": "bool",
              "name": "hasWithdrawnRefund",
              "type": "bool"
            }
          ],
          "internalType": "struct AutomatedSqudyCampaignManager.Participant",
          "name": "",
          "type": "tuple"
        }
      ],
      "stateMutability": "view",
      "type": "function"
    },
    {
      "inputs": [
        {
          "internalType": "bytes32",
          "name": "role",
          "type": "bytes32"
        }
      ],
      "name": "getRoleAdmin",
      "outputs": [
        {
          "internalType": "bytes32",
          "name": "",
          "type": "bytes32"
        }
      ],
      "stateMutability": "view",
      "type": "function"
    },
    {
      "inputs": [],
      "name": "getTotalCampaigns",
      "outputs": [
        {
          "internalType": "uint256",
          "name": "",
          "type": "uint256"
        }
      ],
      "stateMutability": "view",
      "type": "function"
    },
    {
      "inputs": [
        {
          "internalType": "bytes32",
          "name": "role",
          "type": "bytes32"
        },
        {
          "internalType": "address",
          "name": "account",
          "type": "address"
        }
      ],
      "name": "grantRole",
      "outputs": [],
      "stateMutability": "nonpayable",
      "type": "function"
    },
    {
      "inputs": [
        {
          "internalType": "bytes32",
          "name": "role",
          "type": "bytes32"
        },
        {
          "internalType": "address",
          "name": "account",
          "type": "address"
        }
      ],
      "name": "hasRole",
      "outputs": [
        {
          "internalType": "bool",
          "name": "",
          "type": "bool"
        }
      ],
      "stateMutability": "view",
      "type": "function"
    },
    {
      "inputs": [
        {
          "internalType": "uint256",
          "name": "",
          "type": "uint256"
        },
        {
          "internalType": "address",
          "name": "",
          "type": "address"
        }
      ],
      "name": "participants",
      "outputs": [
        {
          "internalType": "uint256",
          "name": "stakedAmount",
          "type": "uint256"
        },
        {
          "internalType": "uint256",
          "name": "ticketCount",
          "type": "uint256"
        },
        {
          "internalType": "bool",
          "name": "hasCompletedSocial",
          "type": "bool"
        },
        {
          "internalType": "uint256",
          "name": "joinedAt",
          "type": "uint256"
        },
        {
          "internalType": "bool",
          "name": "hasWithdrawnRefund",
          "type": "bool"
        }
      ],
      "stateMutability": "view",
      "type": "function"
    },
    {
      "inputs": [
        {
          "internalType": "uint256",
          "name": "campaignId",
          "type": "uint256"
        }
      ],
      "name": "pauseCampaign",
      "outputs": [],
      "stateMutability": "nonpayable",
      "type": "function"
    },
    {
      "inputs": [],
      "name": "paused",
      "outputs": [
        {
          "internalType": "bool",
          "name": "",
          "type": "bool"
        }
      ],
      "stateMutability": "view",
      "type": "function"
    },
    {
      "inputs": [
        {
          "internalType": "bytes32",
          "name": "role",
          "type": "bytes32"
        },
        {
          "internalType": "address",
          "name": "callerConfirmation",
          "type": "address"
        }
      ],
      "name": "renounceRole",
      "outputs": [],
      "stateMutability": "nonpayable",
      "type": "function"
    },
    {
      "inputs": [
        {
          "internalType": "uint256",
          "name": "campaignId",
          "type": "uint256"
        }
      ],
      "name": "resumeCampaign",
      "outputs": [],
      "stateMutability": "nonpayable",
      "type": "function"
    },
    {
      "inputs": [
        {
          "internalType": "bytes32",
          "name": "role",
          "type": "bytes32"
        },
        {
          "internalType": "address",
          "name": "account",
          "type": "address"
        }
      ],
      "name": "revokeRole",
      "outputs": [],
      "stateMutability": "nonpayable",
      "type": "function"
    },
    {
      "inputs": [
        {
          "internalType": "uint256",
          "name": "campaignId",
          "type": "uint256"
        }
      ],
      "name": "selectWinners",
      "outputs": [],
      "stateMutability": "nonpayable",
      "type": "function"
    },
    {
      "inputs": [],
      "name": "squdyToken",
      "outputs": [
        {
          "internalType": "contract IERC20",
          "name": "",
          "type": "address"
        }
      ],
      "stateMutability": "view",
      "type": "function"
    },
    {
      "inputs": [
        {
          "internalType": "uint256",
          "name": "campaignId",
          "type": "uint256"
        },
        {
          "internalType": "uint256",
          "name": "amount",
          "type": "uint256"
        }
      ],
      "name": "stakeTokens",
      "outputs": [],
      "stateMutability": "nonpayable",
      "type": "function"
    },
    {
      "inputs": [
        {
          "internalType": "bytes4",
          "name": "interfaceId",
          "type": "bytes4"
        }
      ],
      "name": "supportsInterface",
      "outputs": [
        {
          "internalType": "bool",
          "name": "",
          "type": "bool"
        }
      ],
      "stateMutability": "view",
      "type": "function"
    },
    {
      "inputs": [
        {
          "internalType": "uint256",
          "name": "campaignId",
          "type": "uint256"
        },
        {
          "internalType": "uint256",
          "name": "newEndDate",
          "type": "uint256"
        }
      ],
      "name": "updateCampaignEndDate",
      "outputs": [],
      "stateMutability": "nonpayable",
      "type": "function"
    }
  ],
  "bytecode": "0x60a03462000150576001600160401b0390601f62002e9538819003918201601f191683019184831184841017620000f5578084926020946040528339810103126200015057516001600160a01b0381169081900362000150576001805580156200010b57608052620000713362000155565b506200007d33620001d5565b50620000893362000277565b5060405160208101904282524460408201523360601b606082015260548152608081019281841090841117620000f55782604052519020600455612b6090816200031582396080518181816107920152818161095501528181610b6c0152818161104801526111990152f35b634e487b7160e01b600052604160045260246000fd5b60405162461bcd60e51b815260206004820152601560248201527f496e76616c696420746f6b656e206164647265737300000000000000000000006044820152606490fd5b600080fd5b6001600160a01b031660008181527fad3228b676f7d3cd4284a5443f17f1962b36e491b30a40b2405849e597ba5fb5602052604081205490919060ff16620001d157818052816020526040822081835260205260408220600160ff19825416179055339160008051602062002e758339815191528180a4600190565b5090565b6001600160a01b031660008181527f7d7ffb7a348e1c6a02869081a26547b49160dd3df72d1d75a570eb9b698292ec60205260408120549091907fa49807205ce4d355092ef5a8a18f56e8913cf4a201fbe287825b095693c217759060ff166200027257808352826020526040832082845260205260408320600160ff1982541617905560008051602062002e75833981519152339380a4600190565b505090565b6001600160a01b031660008181527fee57cd81e84075558e8fcc182a1f4393f91fc97f963a136e66b7f949a62f319f60205260408120549091907f97667070c54ef182b0f5858b034beac1b6f3089aa2d3188bb1e8929f4fa9b9299060ff166200027257808352826020526040832082845260205260408320600160ff1982541617905560008051602062002e75833981519152339380a460019056fe608080604052600436101561001357600080fd5b60003560e01c90816301ffc9a71461217f5750806302e060c61461210157806303463dd914611da2578063141961bc14611c7b57806316f43dd414611c5d578063171e986e14611ade578063248a9ca314611aaf5780632f2ff15d14611a7057806335abd49b14611a2657806335f3ad7a1461194f57806336568abe1461190857806339a2eb2a146114f55780633b7b6188146110e15780634a4e3bd5146110775780634eb53f991461103257806351858e2714610fd85780635598f8cc14610c515780635b7baf6414610a895780635c975abb14610a665780636d1b229d1461088657806375b238fc1461084b578063871f87cf146106875780638c6ab2381461061457806391d14854146105c75780639e3696d9146104b4578063a217fddf14610498578063b5801d9114610297578063d547741f14610256578063de99347a146101a95763f5b541a61461016957600080fd5b346101a45760003660031901126101a45760206040517f97667070c54ef182b0f5858b034beac1b6f3089aa2d3188bb1e8929f4fa9b9298152f35b600080fd5b346101a45760203660031901126101a4576004356101c5612534565b8015158061024a575b6101d7906127dc565b806000526005602052600e604060002001805460ff811690600682101561023457610206600160029314612828565b60ff19161790557fab1902ee37c92d1a78dda53814d64b815e7e3ee287d60843a3dbd6954e3206b4600080a2005b634e487b7160e01b600052602160045260246000fd5b506003548111156101ce565b346101a45760403660031901126101a4576102956004356102756121d2565b90806000526000602052610290600160406000200154612590565b612634565b005b346101a45760403660031901126101a4576004356102b36121d2565b3360009081527fee57cd81e84075558e8fcc182a1f4393f91fc97f963a136e66b7f949a62f319f602090815260409091205491929160ff168015610456575b156104215781151580610415575b610309906127dc565b60008281526006825260408082206001600160a01b03909516808352948352902054156103d8578160005260068152604060002083600052815260ff600260406000200154166103a057816000526006815260406000209083600052526002604060002001600160ff198254161790557fd8e2a0fb3631991dd34ac6af97a04f3485326d9f70043bb29f54e66f0c5577c6600080a3005b6064906040519062461bcd60e51b825260048201526011602482015270105b1c9958591e4818dbdb5c1b195d1959607a1b6044820152fd5b6064906040519062461bcd60e51b82526004820152601660248201527555736572206e6f742070617274696369706174696e6760501b6044820152fd5b50600354821115610300565b6064906040519062461bcd60e51b82526004820152600e60248201526d139bdd08185d5d1a1bdc9a5e995960921b6044820152fd5b507fa49807205ce4d355092ef5a8a18f56e8913cf4a201fbe287825b095693c2177560005260008152604060002033600052815260ff604060002054166102f2565b346101a45760003660031901126101a457602060405160008152f35b346101a45760203660031901126101a4576004356104d0612534565b801515806105bb575b6104e2906127dc565b8060005260056020526040600020600e81019081549060ff821660068110156102345760020361058057600a015442116105465760ff191660011790557f25128b02d37802123547e1526ab020238abf16bbc37a5bd0a918d5088b016e95600080a2005b60405162461bcd60e51b815260206004820152601260248201527110d85b5c185a59db881a185cc8195b99195960721b6044820152606490fd5b60405162461bcd60e51b815260206004820152601360248201527210d85b5c185a59db881b9bdd081c185d5cd959606a1b6044820152606490fd5b506003548111156104d9565b346101a45760403660031901126101a4576105e06121d2565b600435600052600060205260406000209060018060a01b0316600052602052602060ff604060002054166040519015158152f35b346101a45760203660031901126101a4576004358015158061067b575b61063a906127dc565b600052600760205261067761065c61066360406000206040519283809261295c565b038261226f565b60405191829160208352602083019061247d565b0390f35b50600354811115610631565b346101a45760403660031901126101a45760043560243580159081158082036101a4576106b26124ba565b8315158061083f575b6106c4906127dc565b6106cc612939565b836000526005602052604060002092600e84019384549160ff8316946006861015610234577ff75bd1a9b4e512fc86093732061ee514541c41fcf65f64697ffd3e0f6328c2159660048995610725600160209a14612828565b60ff191617905580610832575b15610748575b505050604051908152a260018055005b80610825575b610759575b80610738565b8381600f60077f8bc81353cf6671d259d22783e39ed930583c86f3f4cf7e981298e6a872dfb15d940191600083549355600060088201557f00000000000000000000000000000000000000000000000000000000000000008360008060405188810190630852cd8d60e31b8252846024820152602481526107d981612253565b5190826001600160a01b0387165af16107f06129a2565b5015610815575b5050016108058282546128b2565b9055604051908152a28385610753565b61081e916129d2565b8a836107f7565b506007810154151561074e565b5060078201541515610732565b506003548411156106bb565b346101a45760003660031901126101a45760206040517fa49807205ce4d355092ef5a8a18f56e8913cf4a201fbe287825b095693c217758152f35b346101a4576020806003193601126101a4576004359081151580610a5a575b6108ae906127dc565b6108b6612939565b81600052600581526040600020600e81019081549160ff8316600681101561023457600303610a1e5760ff8360081c166109e157837f7e5e6bfcab605d9254dbb5c3b4c8bd65ee4705bb30b1fc434d9651d24d368f3694936000600885827f8bc81353cf6671d259d22783e39ed930583c86f3f4cf7e981298e6a872dfb15d9660078c99019061010582549788600f87015561ffff19161790555501557f00000000000000000000000000000000000000000000000000000000000000008160008060405186810190630852cd8d60e31b82528460248201526024815261099c81612253565b5190826001600160a01b0387165af16109b36129a2565b50156109d1575b5050604051908152a260405160058152a260018055005b6109da916129d2565b87816109ba565b60405162461bcd60e51b8152600481018590526015602482015274151bdad95b9cc8185b1c9958591e48189d5c9b9959605a1b6044820152606490fd5b60405162461bcd60e51b815260048101859052601460248201527315da5b9b995c9cc81b9bdd081cd95b1958dd195960621b6044820152606490fd5b506003548211156108a5565b346101a45760003660031901126101a457602060ff600254166040519015158152f35b346101a4576020806003193601126101a45760043590610aa7612939565b81151580610c45575b610ab9906127dc565b816000526005815260406000209160ff600e84015416600681101561023457600403610c105760005260068152604060002033600052815260406000208054908115610bd75760048101805460ff8116610b9f576001600893610b9097938260009460ff19161790558281550155018181541015600014610b9657610b3f8282546128a5565b90555b6040519163a9059cbb60e01b90830152336024830152604482015260448152610b6a81612237565b7f00000000000000000000000000000000000000000000000000000000000000006128bf565b60018055005b60009055610b42565b60405162461bcd60e51b815260048101869052601060248201526f105b1c9958591e481c99599d5b99195960821b6044820152606490fd5b60405162461bcd60e51b8152600481018490526011602482015270139bdd1a1a5b99c81d1bc81c99599d5b99607a1b6044820152606490fd5b60405162461bcd60e51b815260048101839052600d60248201526c139bdd0818d85b98d95b1b1959609a1b6044820152606490fd5b50600354821115610ab0565b346101a45760203660031901126101a4576000610220604051610c738161221a565b82815260606020820152606060408201526060808201528260808201528260a08201528260c08201528260e082015282610100820152826101208201528261014082015282610160820152606061018082015260606101a0820152826101c0820152826101e082015282610200820152015260043580151580610fcc575b610cfa906127dc565b6000526005602052604060002060405190610d148261221a565b80548252610d2460018201612346565b6020830152610d3560028201612346565b6040830152610d4660038201612346565b606083015260048101546080830152600581015460a0830152600681015460c0830152600781015460e083015260088101546101008301526009810154610120830152600a810154610140830152600b810154610160830152600c810154610dad816122f4565b90610dbb604051928361226f565b80825260208201600c840160005260206000206000915b838310610faf5750505050610180830152604051610df78161065c81600d860161295c565b6101a0830152600e81015490600660ff831610156102345760ff8281601094166101c086015260081c1615156101e0840152600f81015461020084015201546102208201526040516020815281516020820152610e97610e81610e6b602085015161024060408601526102608501906123ec565b6040850151848203601f190160608601526123ec565b6060840151838203601f190160808501526123ec565b91608081015160a083015260a081015160c083015260c081015160e083015260e081015161010083015261010081015161012083015261012081015161014083015261014081015161016083015261016081015161018083015261018081015192601f19838203016101a0840152835180825260208201916020808360051b8301019601926000915b838310610f8257868087610220610f498c6101a0840151601f19868303016101c087015261247d565b91610f5e6101c08201516101e086019061242c565b6101e081015115156102008501526102008101518285015201516102408301520390f35b9091929396602080610fa0600193601f198682030187528b516123ec565b99019301930191939290610f20565b600160208192610fbe85612346565b815201920192019190610dd2565b50600354811115610cf1565b346101a45760003660031901126101a457610ff16124ba565b610ff961291b565b600160ff1960025416176002557f62e78cea01bee320cd4e420270b5ea74000d11b0c9f74754ebdbfc544b05a2586020604051338152a1005b346101a45760003660031901126101a4576040517f00000000000000000000000000000000000000000000000000000000000000006001600160a01b03168152602090f35b346101a45760003660031901126101a4576110906124ba565b60025460ff8116156110cf5760ff19166002557f5db9ee0a495bf2e6ff9c91a7834c1ba4fdd244a5e8aa4e537bd38aeae4b073aa6020604051338152a1005b604051638dfc202b60e01b8152600490fd5b346101a4576110ef36612439565b906110f8612939565b61110061291b565b801515806114e9575b611112906127dc565b806000526020916005835260406000209260ff600e8501541660068110156102345760016111409114612828565b6009840154421015806114db575b156114975760068401938454831061145b5783600052600682526040600020336000528252604060002080541561142a575b6040516370a0823160e01b8082523060048301526024957f00000000000000000000000000000000000000000000000000000000000000006001600160a01b038116939092909187838a81885afa9384156113e95788936000956113f5575b509061121791604051916323b872dd60e01b86840152338c840152306044840152606483015260648252611212826121e8565b6128bf565b876040518095819382523060048301525afa80156113e9576000906113ba575b61124192506128a5565b95549081871061137657600783019161125b8884546128b2565b60058501541061133f57801561132a5787049485156112e75750906001826112878960089695546128b2565b8155016112958682546128b2565b90556112a28782546128b2565b9055016112b08582546128b2565b90556040519384528301527fbf3a2998bf95effb9622e3aeea768ec248f238862fd602100075c04d21caa23c60403393a360018055005b84601b6064926040519262461bcd60e51b845260048401528201527f496e73756666696369656e7420666f72206f6e65207469636b657400000000006044820152fd5b85634e487b7160e01b60005260126004526000fd5b60405162461bcd60e51b8152600481018690526010818801526f0457863656564732068617264206361760841b6044820152606490fd5b60405162461bcd60e51b815260048101859052601b818701527f416d6f756e7420746f6f20736d616c6c206166746572206665657300000000006044820152606490fd5b508482813d83116113e2575b6113d0818361226f565b810103126101a4576112419151611237565b503d6113c6565b6040513d6000823e3d90fd5b848193959296503d8311611423575b61140e818361226f565b810103126101a45751928792906112176111df565b503d611404565b846000526007835261144033604060002061286a565b600b820161144e81546126a9565b9055426003820155611180565b60405162461bcd60e51b8152600481018390526014602482015273416d6f756e742062656c6f77206d696e696d756d60601b6044820152606490fd5b6064906040519062461bcd60e51b82526004820152601860248201527f43616d706169676e206e6f7420696e2070726f677265737300000000000000006044820152fd5b50600a84015442111561114e565b50600354811115611109565b346101a45760203660031901126101a4576004351515806118fa575b61151a906127dc565b611522612939565b6004356000526005602052604060002060ff80600e8301541690600691828110156102345760016115539114612828565b600a8301544211156118bd576007830154916004840154831061188157600435600052600760205261065c61159260406000206040519283809261295c565b61159c8151612a02565b9060009260005b82518110156116245760043560009081526020839052604090206001600160a01b0390816115d184876127c8565b511660005260205286600260406000200154166115f8575b506115f3906126a9565b6115a3565b819561161d9161160b6115f394876127c8565b511661161782886127c8565b526126a9565b94906115e9565b8784888761163181612a02565b9260005b82811061186657505050819082511561182157600c8401549251808411611819575b5060001943019043821161180357600454611671816126a9565b6004556040519160208301934084526004356040840152606083015260808201526080815261169f816121e8565b519020916000925b81841061174057600e8501805460ff1916600317905543601086015560408051818152907fa15551854f54807a0f0db8e3b861523fd994877676824ed8603655ab18ca6dd8906116fc908301600d890161295c565b9143602082015280600435930390a2604051600381527f7e5e6bfcab605d9254dbb5c3b4c8bd65ee4705bb30b1fc434d9651d24d368f36602060043592a260018055005b61175661174d85836128b2565b84600435612a34565b9061176482600d880161286a565b8351806000198101116118035761177e9060001901612a02565b9560009360005b86518110156117e9576001600160a01b03858116906117a4838a6127c8565b5116036117ba575b6117b5906126a9565b611785565b946117b5906117e1906001600160a01b036117d5898b6127c8565b5116611617828d6127c8565b9590506117ac565b50959450959092506117fc9150926126a9565b92906116a7565b634e487b7160e01b600052601160045260246000fd5b925084611657565b60405162461bcd60e51b815260206004820152601860248201527f4e6f20656c696769626c65207061727469636970616e747300000000000000006044820152606490fd5b61187c906001600160a01b0361160b82856127c8565b611635565b60405162461bcd60e51b815260206004820152601460248201527314dbd99d0818d85c081b9bdd081c995858da195960621b6044820152606490fd5b60405162461bcd60e51b815260206004820152601560248201527443616d706169676e207374696c6c2061637469766560581b6044820152606490fd5b506003546004351115611511565b346101a45760403660031901126101a4576119216121d2565b336001600160a01b0382160361193d5761029590600435612634565b60405163334bd91960e11b8152600490fd5b346101a45760403660031901126101a4576119686121d2565b60006080604051611978816121e8565b8281528260208201528260408201528260608201520152600435600052600660205260406000209060018060a01b031660005260205260a060406000206040516119c1816121e8565b81549182825260018101546020830190815260ff60028301541690604084019115158252608060ff6004600386015495606088019687520154169401931515845260405194855251602085015251151560408401525160608301525115156080820152f35b346101a457611a3436612439565b906000526007602052604060002080548210156101a457602091611a579161244f565b905460405160039290921b1c6001600160a01b03168152f35b346101a45760403660031901126101a457610295600435611a8f6121d2565b90806000526000602052611aaa600160406000200154612590565b6125b6565b346101a45760203660031901126101a45760043560005260006020526020600160406000200154604051908152f35b346101a457611aec36612439565b611af46124ba565b81151580611c51575b611b06906127dc565b816000526005602052604060002060ff600e8201541660068110156102345760018114908115611c46575b5015611c015742821115611bbc57600a01805480831115611b8057827f70e9f58eec5af783627e59f6af135becb4bcbd768c33d59e8f30f329cde15f2e936040935582519182526020820152a2005b60405162461bcd60e51b81526020600482015260146024820152734d75737420657874656e6420656e64206461746560601b6044820152606490fd5b60405162461bcd60e51b815260206004820152601a60248201527f456e642064617465206d75737420626520696e206675747572650000000000006044820152606490fd5b60405162461bcd60e51b815260206004820152601a60248201527f43616d706169676e206e6f74206163746976652f7061757365640000000000006044820152606490fd5b600291501484611b31565b50600354821115611afd565b346101a45760003660031901126101a4576020600354604051908152f35b346101a45760203660031901126101a4576004356000526005602052604060002080549060018101611cac90612346565b90611cb960028201612346565b611cc560038301612346565b916004810154926005820154600683015460078401546008850154600986015491600a87015493600b88015495600e89015497600f8a015499601001549a6040519e8f9e8f9182526102008060208401528201611d21916123ec565b908082039060400152611d33916123ec565b8d810360608f0152611d44916123ec565b9a60808d015260a08c015260c08b015260e08a0152610100890152610120880152610140870152610160860152610180850160ff821690611d849161242c565b60081c60ff1615156101a08501526101c08401526101e08301520390f35b346101a4576101203660031901126101a45767ffffffffffffffff6004358181116101a457611dd59036906004016122ad565b9060249182358281116101a457611df09036906004016122ad565b6044358381116101a457611e089036906004016122ad565b61010435908482116101a457366023830112156101a457816004013591611e2e836122f4565b92611e3c604051948561226f565b808452602096888886019260051b840101923684116101a457898101925b8484106120db575050505050611e6e6124ba565b60c435428111156120a25760e435918183111561206b5760643580151580612060575b1561202d5760a435918215611ff15792889994919260059993611ef58a9896611eec611ee39b611ec26003546126a9565b9e8f998a6003558a60005252604060002098895560019c8d9c8d8b016126b8565b600289016126b8565b600387016126b8565b6004850155608435600585015560068401556009830155600a820155600e8101805460ff191685179055600c01936000905b611f71575b878787817fc04c663886cae794dc52158f70fe6c8ee3b0140d4f48647282f9b693ff688a6560405185815280611f663395888301906123ec565b0390a3604051908152f35b8151811015611fec57611f8481836127c8565b518554600160401b811015611fd7578086611fa2920188558761244f565b611fc25791611fb6611fbb928795946126b8565b6126a9565b9091611f27565b84634e487b7160e01b60005260006004526000fd5b84634e487b7160e01b60005260416004526000fd5b611f2c565b60405162461bcd60e51b8152600481018a90526015818c015274125b9d985b1a59081d1a58dad95d08185b5bdd5b9d605a1b6044820152606490fd5b60405162461bcd60e51b815260048101899052600c818b01526b496e76616c6964206361707360a01b6044820152606490fd5b508060843511611e91565b60405162461bcd60e51b8152600481018890526010818a01526f496e76616c696420656e64206461746560801b6044820152606490fd5b60405162461bcd60e51b81526004810187905260128189015271496e76616c6964207374617274206461746560701b6044820152606490fd5b83358381116101a4578a916120f683928e36918701016122ad565b815201930192611e5a565b346101a45760403660031901126101a45761211a6121d2565b600435600052600660205260406000209060018060a01b031660005260205260a0604060002080549060018101549060ff60028201541660ff600460038401549301541692604051948552602085015215156040840152606083015215156080820152f35b346101a45760203660031901126101a4576004359063ffffffff60e01b82168092036101a457602091637965db0b60e01b81149081156121c1575b5015158152f35b6301ffc9a760e01b149050836121ba565b602435906001600160a01b03821682036101a457565b60a0810190811067ffffffffffffffff82111761220457604052565b634e487b7160e01b600052604160045260246000fd5b610240810190811067ffffffffffffffff82111761220457604052565b6080810190811067ffffffffffffffff82111761220457604052565b6060810190811067ffffffffffffffff82111761220457604052565b90601f8019910116810190811067ffffffffffffffff82111761220457604052565b67ffffffffffffffff811161220457601f01601f191660200190565b81601f820112156101a4578035906122c482612291565b926122d2604051948561226f565b828452602083830101116101a457816000926020809301838601378301015290565b67ffffffffffffffff81116122045760051b60200190565b90600182811c9216801561233c575b602083101461232657565b634e487b7160e01b600052602260045260246000fd5b91607f169161231b565b906040519182600082549261235a8461230c565b9081845260019485811690816000146123c95750600114612386575b50506123849250038361226f565b565b9093915060005260209081600020936000915b8183106123b157505061238493508201013880612376565b85548884018501529485019487945091830191612399565b91505061238494506020925060ff191682840152151560051b8201013880612376565b919082519283825260005b848110612418575050826000602080949584010152601f8019910116010190565b6020818301810151848301820152016123f7565b9060068210156102345752565b60409060031901126101a4576004359060243590565b80548210156124675760005260206000200190600090565b634e487b7160e01b600052603260045260246000fd5b90815180825260208080930193019160005b82811061249d575050505090565b83516001600160a01b03168552938101939281019260010161248f565b3360009081527f7d7ffb7a348e1c6a02869081a26547b49160dd3df72d1d75a570eb9b698292ec60205260409020547fa49807205ce4d355092ef5a8a18f56e8913cf4a201fbe287825b095693c217759060ff16156125165750565b6044906040519063e2517d3f60e01b82523360048301526024820152fd5b3360009081527fee57cd81e84075558e8fcc182a1f4393f91fc97f963a136e66b7f949a62f319f60205260409020547f97667070c54ef182b0f5858b034beac1b6f3089aa2d3188bb1e8929f4fa9b9299060ff16156125165750565b80600052600060205260406000203360005260205260ff60406000205416156125165750565b9060009180835282602052604083209160018060a01b03169182845260205260ff6040842054161560001461262f57808352826020526040832082845260205260408320600160ff198254161790557f2f8788117e7eff1d82e926ec794901d17c78024a50270940304540a733656f0d339380a4600190565b505090565b9060009180835282602052604083209160018060a01b03169182845260205260ff60408420541660001461262f5780835282602052604083208284526020526040832060ff1981541690557ff6391f5c32d9c69d2a47ea670b442974b53935d1edc7fd64eb21e047a839171b339380a4600190565b60001981146118035760010190565b919091825167ffffffffffffffff8111612204576126d6825461230c565b601f8111612780575b50602080601f831160011461271c575081929394600092612711575b50508160011b916000199060031b1c1916179055565b0151905038806126fb565b90601f198316958460005282600020926000905b8882106127685750508360019596971061274f575b505050811b019055565b015160001960f88460031b161c19169055388080612745565b80600185968294968601518155019501930190612730565b600083815260208120601f840160051c810192602085106127be575b601f0160051c01915b8281106127b35750506126df565b8181556001016127a5565b909250829061279c565b80518210156124675760209160051b010190565b156127e357565b60405162461bcd60e51b815260206004820152601760248201527f43616d706169676e20646f6573206e6f742065786973740000000000000000006044820152606490fd5b1561282f57565b60405162461bcd60e51b815260206004820152601360248201527243616d706169676e206e6f742061637469766560681b6044820152606490fd5b8054600160401b811015612204576128879160018201815561244f565b819291549060031b9160018060a01b03809116831b921b1916179055565b9190820391821161180357565b9190820180921161180357565b906000602091828151910182855af1156113e9576000513d61291257506001600160a01b0381163b155b6128f05750565b604051635274afe760e01b81526001600160a01b039091166004820152602490fd5b600114156128e9565b60ff6002541661292757565b60405163d93c066560e01b8152600490fd5b60026001541461294a576002600155565b604051633ee5aeb560e01b8152600490fd5b90815480825260208092019260005281600020916000905b828210612982575050505090565b83546001600160a01b031685529384019360019384019390910190612974565b3d156129cd573d906129b382612291565b916129c1604051938461226f565b82523d6000602084013e565b606090565b90612384916040519163a9059cbb60e01b602084015261dead602484015260448301526044825261121282612237565b90612a0c826122f4565b612a19604051918261226f565b8281528092612a2a601f19916122f4565b0190602036910137565b600093845b8351861015612a8a57612a7e612a84918460005260016020600681526040908160002090838060a01b03612a6d8d8c6127c8565b5116600052526000200154906128b2565b956126a9565b94612a39565b91939094508115612b14570690600091825b8251811015612af85784600052612acd602094600686526001604080600020828060a01b039889612a6d888b6127c8565b93848310612ae45750612adf906126a9565b612a9c565b9450919050612af392506127c8565b511690565b505091505080511561246757602001516001600160a01b031690565b634e487b7160e01b600052601260045260246000fdfea26469706673582212201f7471ea1d27735ff3c43fe45b734625c6897326dee9d7ed28dbf6c9c6208a4064736f6c634300081400332f8788117e7eff1d82e926ec794901d17c78024a50270940304540a733656f0d",
  "linkReferences": {},
  "deployedLinkReferences": {}
}