{
  "_format": "hh-sol-artifact-1",
  "contractName": "SqudyTokenV2",
  "sourceName": "contracts/SqudyTokenV2.sol",
  "abi": [
    {
      "inputs": [
        {
          "internalType": "string",
          "name": "name_",
          "type": "string"
        },
        {
          "internalType": "string",
          "name": "symbol_",
          "type": "string"
        },
        {
          "internalType": "address",
          "name": "admin_",
          "type": "address"
        },
        {
          "internalType": "uint256",
          "name": "initialSupply",
          "type": "uint256"
        },
        {
          "internalType": "uint256",
          "name": "cap_",
          "type": "uint256"
        }
      ],
      "stateMutability": "nonpayable",
      "type": "constructor"
    },
    {
      "inputs": [],
      "name": "AccessControlBadConfirmation",
      "type": "error"
    },
    {
      "inputs": [
        {
          "internalType": "address",
          "name": "account",
          "type": "address"
        },
        {
          "internalType": "bytes32",
          "name": "neededRole",
          "type": "bytes32"
        }
      ],
      "name": "AccessControlUnauthorizedAccount",
      "type": "error"
    },
    {
      "inputs": [
        {
          "internalType": "address",
          "name": "spender",
          "type": "address"
        },
        {
          "internalType": "uint256",
          "name": "allowance",
          "type": "uint256"
        },
        {
          "internalType": "uint256",
          "name": "needed",
          "type": "uint256"
        }
      ],
      "name": "ERC20InsufficientAllowance",
      "type": "error"
    },
    {
      "inputs": [
        {
          "internalType": "address",
          "name": "sender",
          "type": "address"
        },
        {
          "internalType": "uint256",
          "name": "balance",
          "type": "uint256"
        },
        {
          "internalType": "uint256",
          "name": "needed",
          "type": "uint256"
        }
      ],
      "name": "ERC20InsufficientBalance",
      "type": "error"
    },
    {
      "inputs": [
        {
          "internalType": "address",
          "name": "approver",
          "type": "address"
        }
      ],
      "name": "ERC20InvalidApprover",
      "type": "error"
    },
    {
      "inputs": [
        {
          "internalType": "address",
          "name": "receiver",
          "type": "address"
        }
      ],
      "name": "ERC20InvalidReceiver",
      "type": "error"
    },
    {
      "inputs": [
        {
          "internalType": "address",
          "name": "sender",
          "type": "address"
        }
      ],
      "name": "ERC20InvalidSender",
      "type": "error"
    },
    {
      "inputs": [
        {
          "internalType": "address",
          "name": "spender",
          "type": "address"
        }
      ],
      "name": "ERC20InvalidSpender",
      "type": "error"
    },
    {
      "inputs": [],
      "name": "EnforcedPause",
      "type": "error"
    },
    {
      "inputs": [],
      "name": "ExpectedPause",
      "type": "error"
    },
    {
      "anonymous": false,
      "inputs": [
        {
          "indexed": true,
          "internalType": "address",
          "name": "owner",
          "type": "address"
        },
        {
          "indexed": true,
          "internalType": "address",
          "name": "spender",
          "type": "address"
        },
        {
          "indexed": false,
          "internalType": "uint256",
          "name": "value",
          "type": "uint256"
        }
      ],
      "name": "Approval",
      "type": "event"
    },
    {
      "anonymous": false,
      "inputs": [
        {
          "indexed": false,
          "internalType": "uint256",
          "name": "newMax",
          "type": "uint256"
        }
      ],
      "name": "FaucetMaxPerTxUpdated",
      "type": "event"
    },
    {
      "anonymous": false,
      "inputs": [
        {
          "indexed": false,
          "internalType": "address",
          "name": "account",
          "type": "address"
        }
      ],
      "name": "Paused",
      "type": "event"
    },
    {
      "anonymous": false,
      "inputs": [
        {
          "indexed": true,
          "internalType": "bytes32",
          "name": "role",
          "type": "bytes32"
        },
        {
          "indexed": true,
          "internalType": "bytes32",
          "name": "previousAdminRole",
          "type": "bytes32"
        },
        {
          "indexed": true,
          "internalType": "bytes32",
          "name": "newAdminRole",
          "type": "bytes32"
        }
      ],
      "name": "RoleAdminChanged",
      "type": "event"
    },
    {
      "anonymous": false,
      "inputs": [
        {
          "indexed": true,
          "internalType": "bytes32",
          "name": "role",
          "type": "bytes32"
        },
        {
          "indexed": true,
          "internalType": "address",
          "name": "account",
          "type": "address"
        },
        {
          "indexed": true,
          "internalType": "address",
          "name": "sender",
          "type": "address"
        }
      ],
      "name": "RoleGranted",
      "type": "event"
    },
    {
      "anonymous": false,
      "inputs": [
        {
          "indexed": true,
          "internalType": "bytes32",
          "name": "role",
          "type": "bytes32"
        },
        {
          "indexed": true,
          "internalType": "address",
          "name": "account",
          "type": "address"
        },
        {
          "indexed": true,
          "internalType": "address",
          "name": "sender",
          "type": "address"
        }
      ],
      "name": "RoleRevoked",
      "type": "event"
    },
    {
      "anonymous": false,
      "inputs": [
        {
          "indexed": true,
          "internalType": "address",
          "name": "from",
          "type": "address"
        },
        {
          "indexed": true,
          "internalType": "address",
          "name": "to",
          "type": "address"
        },
        {
          "indexed": false,
          "internalType": "uint256",
          "name": "value",
          "type": "uint256"
        }
      ],
      "name": "Transfer",
      "type": "event"
    },
    {
      "anonymous": false,
      "inputs": [
        {
          "indexed": false,
          "internalType": "address",
          "name": "account",
          "type": "address"
        }
      ],
      "name": "Unpaused",
      "type": "event"
    },
    {
      "inputs": [],
      "name": "BURNER_ROLE",
      "outputs": [
        {
          "internalType": "bytes32",
          "name": "",
          "type": "bytes32"
        }
      ],
      "stateMutability": "view",
      "type": "function"
    },
    {
      "inputs": [],
      "name": "DEFAULT_ADMIN_ROLE",
      "outputs": [
        {
          "internalType": "bytes32",
          "name": "",
          "type": "bytes32"
        }
      ],
      "stateMutability": "view",
      "type": "function"
    },
    {
      "inputs": [],
      "name": "FAUCET_ROLE",
      "outputs": [
        {
          "internalType": "bytes32",
          "name": "",
          "type": "bytes32"
        }
      ],
      "stateMutability": "view",
      "type": "function"
    },
    {
      "inputs": [],
      "name": "MINTER_ROLE",
      "outputs": [
        {
          "internalType": "bytes32",
          "name": "",
          "type": "bytes32"
        }
      ],
      "stateMutability": "view",
      "type": "function"
    },
    {
      "inputs": [],
      "name": "PAUSER_ROLE",
      "outputs": [
        {
          "internalType": "bytes32",
          "name": "",
          "type": "bytes32"
        }
      ],
      "stateMutability": "view",
      "type": "function"
    },
    {
      "inputs": [],
      "name": "RESCUER_ROLE",
      "outputs": [
        {
          "internalType": "bytes32",
          "name": "",
          "type": "bytes32"
        }
      ],
      "stateMutability": "view",
      "type": "function"
    },
    {
      "inputs": [
        {
          "internalType": "address",
          "name": "owner",
          "type": "address"
        },
        {
          "internalType": "address",
          "name": "spender",
          "type": "address"
        }
      ],
      "name": "allowance",
      "outputs": [
        {
          "internalType": "uint256",
          "name": "",
          "type": "uint256"
        }
      ],
      "stateMutability": "view",
      "type": "function"
    },
    {
      "inputs": [
        {
          "internalType": "address",
          "name": "spender",
          "type": "address"
        },
        {
          "internalType": "uint256",
          "name": "value",
          "type": "uint256"
        }
      ],
      "name": "approve",
      "outputs": [
        {
          "internalType": "bool",
          "name": "",
          "type": "bool"
        }
      ],
      "stateMutability": "nonpayable",
      "type": "function"
    },
    {
      "inputs": [
        {
          "internalType": "address",
          "name": "account",
          "type": "address"
        }
      ],
      "name": "balanceOf",
      "outputs": [
        {
          "internalType": "uint256",
          "name": "",
          "type": "uint256"
        }
      ],
      "stateMutability": "view",
      "type": "function"
    },
    {
      "inputs": [
        {
          "internalType": "uint256",
          "name": "value",
          "type": "uint256"
        }
      ],
      "name": "burn",
      "outputs": [],
      "stateMutability": "nonpayable",
      "type": "function"
    },
    {
      "inputs": [
        {
          "internalType": "address",
          "name": "account",
          "type": "address"
        },
        {
          "internalType": "uint256",
          "name": "amount",
          "type": "uint256"
        }
      ],
      "name": "burnFrom",
      "outputs": [],
      "stateMutability": "nonpayable",
      "type": "function"
    },
    {
      "inputs": [],
      "name": "cap",
      "outputs": [
        {
          "internalType": "uint256",
          "name": "",
          "type": "uint256"
        }
      ],
      "stateMutability": "view",
      "type": "function"
    },
    {
      "inputs": [],
      "name": "decimals",
      "outputs": [
        {
          "internalType": "uint8",
          "name": "",
          "type": "uint8"
        }
      ],
      "stateMutability": "view",
      "type": "function"
    },
    {
      "inputs": [
        {
          "internalType": "address",
          "name": "to",
          "type": "address"
        },
        {
          "internalType": "uint256",
          "name": "amount",
          "type": "uint256"
        }
      ],
      "name": "faucet",
      "outputs": [],
      "stateMutability": "nonpayable",
      "type": "function"
    },
    {
      "inputs": [],
      "name": "faucetMaxPerTx",
      "outputs": [
        {
          "internalType": "uint256",
          "name": "",
          "type": "uint256"
        }
      ],
      "stateMutability": "view",
      "type": "function"
    },
    {
      "inputs": [
        {
          "internalType": "bytes32",
          "name": "role",
          "type": "bytes32"
        }
      ],
      "name": "getRoleAdmin",
      "outputs": [
        {
          "internalType": "bytes32",
          "name": "",
          "type": "bytes32"
        }
      ],
      "stateMutability": "view",
      "type": "function"
    },
    {
      "inputs": [
        {
          "internalType": "bytes32",
          "name": "role",
          "type": "bytes32"
        },
        {
          "internalType": "address",
          "name": "account",
          "type": "address"
        }
      ],
      "name": "grantRole",
      "outputs": [],
      "stateMutability": "nonpayable",
      "type": "function"
    },
    {
      "inputs": [
        {
          "internalType": "bytes32",
          "name": "role",
          "type": "bytes32"
        },
        {
          "internalType": "address",
          "name": "account",
          "type": "address"
        }
      ],
      "name": "hasRole",
      "outputs": [
        {
          "internalType": "bool",
          "name": "",
          "type": "bool"
        }
      ],
      "stateMutability": "view",
      "type": "function"
    },
    {
      "inputs": [
        {
          "internalType": "address",
          "name": "to",
          "type": "address"
        },
        {
          "internalType": "uint256",
          "name": "amount",
          "type": "uint256"
        }
      ],
      "name": "mint",
      "outputs": [],
      "stateMutability": "nonpayable",
      "type": "function"
    },
    {
      "inputs": [],
      "name": "name",
      "outputs": [
        {
          "internalType": "string",
          "name": "",
          "type": "string"
        }
      ],
      "stateMutability": "view",
      "type": "function"
    },
    {
      "inputs": [],
      "name": "pause",
      "outputs": [],
      "stateMutability": "nonpayable",
      "type": "function"
    },
    {
      "inputs": [],
      "name": "paused",
      "outputs": [
        {
          "internalType": "bool",
          "name": "",
          "type": "bool"
        }
      ],
      "stateMutability": "view",
      "type": "function"
    },
    {
      "inputs": [
        {
          "internalType": "address",
          "name": "token",
          "type": "address"
        },
        {
          "internalType": "address",
          "name": "to",
          "type": "address"
        },
        {
          "internalType": "uint256",
          "name": "amount",
          "type": "uint256"
        }
      ],
      "name": "recoverERC20",
      "outputs": [],
      "stateMutability": "nonpayable",
      "type": "function"
    },
    {
      "inputs": [
        {
          "internalType": "address",
          "name": "to",
          "type": "address"
        },
        {
          "internalType": "uint256",
          "name": "amount",
          "type": "uint256"
        }
      ],
      "name": "recoverOwnTokens",
      "outputs": [],
      "stateMutability": "nonpayable",
      "type": "function"
    },
    {
      "inputs": [
        {
          "internalType": "bytes32",
          "name": "role",
          "type": "bytes32"
        },
        {
          "internalType": "address",
          "name": "callerConfirmation",
          "type": "address"
        }
      ],
      "name": "renounceRole",
      "outputs": [],
      "stateMutability": "nonpayable",
      "type": "function"
    },
    {
      "inputs": [
        {
          "internalType": "bytes32",
          "name": "role",
          "type": "bytes32"
        },
        {
          "internalType": "address",
          "name": "account",
          "type": "address"
        }
      ],
      "name": "revokeRole",
      "outputs": [],
      "stateMutability": "nonpayable",
      "type": "function"
    },
    {
      "inputs": [
        {
          "internalType": "uint256",
          "name": "newMax",
          "type": "uint256"
        }
      ],
      "name": "setFaucetMaxPerTx",
      "outputs": [],
      "stateMutability": "nonpayable",
      "type": "function"
    },
    {
      "inputs": [
        {
          "internalType": "bytes4",
          "name": "interfaceId",
          "type": "bytes4"
        }
      ],
      "name": "supportsInterface",
      "outputs": [
        {
          "internalType": "bool",
          "name": "",
          "type": "bool"
        }
      ],
      "stateMutability": "view",
      "type": "function"
    },
    {
      "inputs": [],
      "name": "symbol",
      "outputs": [
        {
          "internalType": "string",
          "name": "",
          "type": "string"
        }
      ],
      "stateMutability": "view",
      "type": "function"
    },
    {
      "inputs": [],
      "name": "totalSupply",
      "outputs": [
        {
          "internalType": "uint256",
          "name": "",
          "type": "uint256"
        }
      ],
      "stateMutability": "view",
      "type": "function"
    },
    {
      "inputs": [
        {
          "internalType": "address",
          "name": "to",
          "type": "address"
        },
        {
          "internalType": "uint256",
          "name": "value",
          "type": "uint256"
        }
      ],
      "name": "transfer",
      "outputs": [
        {
          "internalType": "bool",
          "name": "",
          "type": "bool"
        }
      ],
      "stateMutability": "nonpayable",
      "type": "function"
    },
    {
      "inputs": [
        {
          "internalType": "address",
          "name": "from",
          "type": "address"
        },
        {
          "internalType": "address",
          "name": "to",
          "type": "address"
        },
        {
          "internalType": "uint256",
          "name": "value",
          "type": "uint256"
        }
      ],
      "name": "transferFrom",
      "outputs": [
        {
          "internalType": "bool",
          "name": "",
          "type": "bool"
        }
      ],
      "stateMutability": "nonpayable",
      "type": "function"
    },
    {
      "inputs": [],
      "name": "unpause",
      "outputs": [],
      "stateMutability": "nonpayable",
      "type": "function"
    }
  ],
  "bytecode": "0x604060a0815234620004cf5762001bc9803803806200001e81620004d4565b928339810160a082820312620004cf5781516001600160401b039290838111620004cf578262000050918301620004fa565b926020928383015190828211620004cf576200006e918401620004fa565b828601516001600160a01b0381169591929091868303620004cf5760806060860151950151918151818111620003cc576003908154906001948583811c93168015620004c4575b8b841014620004ae5781908b601f9485811162000455575b50508b90848311600114620003ee57600092620003e2575b505060001982851b1c191690851b1782555b8651928311620003cc5760049687548581811c91168015620003c1575b8b821014620003ac5782811162000361575b5089918411600114620002f657938394918492600095620002ea575b50501b92600019911b1c19161783555b8515620002bd57801562000292578084116200025f57608052620001a6906200017b816200056c565b506200018781620005ed565b50620001938162000690565b506200019f816200072e565b50620007cc565b50683635c9adc5dea0000060075581620001da575b845161133e90816200086b823960805181818161056d01526108a80152f35b60ff600654166200025157600254908282018092116200023c575060025560008381528083528481208054830190558451918252917fddf252ad1be2c89b69c2b068fc378daa952ba7f163c4a11628f55a4df523b3ef91a338808080620001bb565b601190634e487b7160e01b6000525260246000fd5b845163d93c066560e01b8152fd5b865162461bcd60e51b8152808401869052600d60248201526c0696e697469616c203e2063617609c1b6044820152606490fd5b865162461bcd60e51b8152808401869052600560248201526406361703d360dc1b6044820152606490fd5b865162461bcd60e51b81528084018690526007602482015266061646d696e3d360cc1b6044820152606490fd5b01519350388062000142565b9190601f1984169288600052848b6000209460005b8d898383106200034957505050106200032e575b50505050811b01835562000152565b01519060f884600019921b161c19169055388080806200031f565b8686015189559097019694850194889350016200030b565b886000528a6000208380870160051c8201928d8810620003a2575b0160051c019086905b8281106200039557505062000126565b6000815501869062000385565b925081926200037c565b602289634e487b7160e01b6000525260246000fd5b90607f169062000114565b634e487b7160e01b600052604160045260246000fd5b015190503880620000e5565b60008681528d8120899550929190601f198516908f5b8282106200043d575050841162000424575b505050811b018255620000f7565b015160001983871b60f8161c1916905538808062000416565b8385015186558b979095019493840193018f62000404565b909192508560005284826000209181860160051c8301938610620004a4575b918991869594930160051c01915b8281106200049457508d9150620000cd565b6000815585945089910162000482565b9250819262000474565b634e487b7160e01b600052602260045260246000fd5b92607f1692620000b5565b600080fd5b6040519190601f01601f191682016001600160401b03811183821017620003cc57604052565b919080601f84011215620004cf5782516001600160401b038111620003cc5760209062000530601f8201601f19168301620004d4565b92818452828287010111620004cf5760005b8181106200055857508260009394955001015290565b858101830151848201840152820162000542565b6001600160a01b031660008181527f05b8ccbb9d4d8fb16ea74ce3c29a41f1b461fbdaff4714a0d9a8eb05499746bc602052604081205490919060ff16620005e95781805260056020526040822081835260205260408220600160ff19825416179055339160008051602062001ba98339815191528180a4600190565b5090565b6001600160a01b031660008181527f15a28d26fa1bf736cf7edc9922607171ccb09c3c73b808e7772a3013e068a52260205260408120549091907f9f2df0fed2c77648de5860a4cc508cd0818c85b8b8a1ab4ceeef8d981c8956a69060ff166200068b5780835260056020526040832082845260205260408320600160ff1982541617905560008051602062001ba9833981519152339380a4600190565b505090565b6001600160a01b031660008181527f99f2891db7a8db76249871a02b43b68c0bb8f22ef8a3bc1034ae9375ef6b7c3c60205260408120549091907f65d7a28e3265b37a6474929f336521b332c1681b933f6cb9f3376673440d862a9060ff166200068b5780835260056020526040832082845260205260408320600160ff1982541617905560008051602062001ba9833981519152339380a4600190565b6001600160a01b031660008181527feeef51456add28137dee44c0a07e15290938586a5bdfee7e2c8cef303163f44d60205260408120549091907fcf6f9f892731e14b8859835f2ff35575f447fb501f46243c4eb8bac19e31a0509060ff166200068b5780835260056020526040832082845260205260408320600160ff1982541617905560008051602062001ba9833981519152339380a4600190565b6001600160a01b031660008181527fb99622cfd930ab5478aadcfac66518786d8ec9f25656849a73c905ebab392b6e60205260408120549091907faecf5761d3ba769b4631978eb26cb84eae66bcaca9c3f0f4ecde3feb2f4cf1449060ff166200068b5780835260056020526040832082845260205260408320600160ff1982541617905560008051602062001ba9833981519152339380a460019056fe608060408181526004918236101561001657600080fd5b600092833560e01c91826301ffc9a714610d3a5750816306fdde0314610c45578163095ea7b314610b9b5781631171bda914610af957816318160ddd14610ada5781632346191414610a5857816323b872dd14610977578163248a9ca31461094c578163282c51f3146109115781632f2ff15d146108e7578163313ce567146108cb578163355274ea1461089057816336568abe1461084a5781633f4ba83a146107e057816340c10f191461076e57816342966c681461075057816345c7c793146107155781635c975abb146106f157816370a08231146106ba578163713725441461067f57816379cc6790146105fc5781637b56c2b2146104ea5781638456cb591461048f57816391d148541461044857816395d89b4114610345578163a217fddf1461032a578163a9059cbb146102f9578163d5391393146102be578163d547741f1461027a57508063dd62ed3e14610232578063e04af7aa146101eb578063e63ab1e9146101b15763e7bafcfa1461019057600080fd5b346101ad57816003193601126101ad576020906007549051908152f35b5080fd5b50346101ad57816003193601126101ad57602090517f65d7a28e3265b37a6474929f336521b332c1681b933f6cb9f3376673440d862a8152f35b50346101ad5736600319011261022f5761022c610206610dd6565b61020e610e3c565b6102226001600160a01b03821615156112d6565b6024359030611067565b80f35b80fd5b50346101ad57806003193601126101ad578060209261024f610dd6565b610257610df1565b6001600160a01b0391821683526001865283832091168252845220549051908152f35b919050346102ba57806003193601126102ba576102b691356102b1600161029f610df1565b93838752600560205286200154610f12565b610fb8565b5080f35b8280fd5b5050346101ad57816003193601126101ad57602090517f9f2df0fed2c77648de5860a4cc508cd0818c85b8b8a1ab4ceeef8d981c8956a68152f35b5050346101ad57806003193601126101ad57602090610323610319610dd6565b6024359033611067565b5160018152f35b5050346101ad57816003193601126101ad5751908152602090f35b8383346101ad57816003193601126101ad57805191809380549160019083821c9282851694851561043e575b602095868610811461042b5785895290811561040757506001146103af575b6103ab87876103a1828c038361102f565b5191829182610d8d565b0390f35b81529295507f8a35acfbc15ff81a39ae7d344fd709f28e8600b4aa8c65c6b64bfe7fe36bd19b5b8284106103f457505050826103ab946103a192820101948680610390565b80548685018801529286019281016103d6565b60ff19168887015250505050151560051b83010192506103a1826103ab8680610390565b634e487b7160e01b845260228352602484fd5b93607f1693610371565b9050346102ba57816003193601126102ba578160209360ff92610469610df1565b90358252600586528282206001600160a01b039091168252855220549151911615158152f35b5050346101ad57816003193601126101ad5760207f62e78cea01bee320cd4e420270b5ea74000d11b0c9f74754ebdbfc544b05a258916104cd610eb6565b6104d56112b8565b600160ff19600654161760065551338152a180f35b839150346101ad57826003193601126101ad57610505610dd6565b602435917faecf5761d3ba769b4631978eb26cb84eae66bcaca9c3f0f4ecde3feb2f4cf144808552600560205285852033865260205260ff8686205416156105df5750821515806105d3575b1561059857509061022c9161059361056b836002546111f4565b7f00000000000000000000000000000000000000000000000000000000000000001015611217565b611252565b606490602086519162461bcd60e51b835282015260156024820152741a5b9d985b1a590819985d58d95d08185b5bdd5b9d605a1b6044820152fd5b50600754831115610551565b6044925085519163e2517d3f60e01b835233908301526024820152fd5b9050346102ba57816003193601126102ba57610616610dd6565b917f3c11d16cbaffd01df69ce1c404f6340ee057498f5f00246190ea54220576a84890818552600560205280852033865260205260ff818620541615610663578461022c6024358661114d565b60449350519163e2517d3f60e01b835233908301526024820152fd5b5050346101ad57816003193601126101ad57602090517fcf6f9f892731e14b8859835f2ff35575f447fb501f46243c4eb8bac19e31a0508152f35b5050346101ad5760203660031901126101ad5760209181906001600160a01b036106e2610dd6565b16815280845220549051908152f35b5050346101ad57816003193601126101ad5760209060ff6006541690519015158152f35b5050346101ad57816003193601126101ad57602090517faecf5761d3ba769b4631978eb26cb84eae66bcaca9c3f0f4ecde3feb2f4cf1448152f35b8390346101ad5760203660031901126101ad5761022c90353361114d565b839150346101ad57826003193601126101ad57610789610dd6565b602435917f9f2df0fed2c77648de5860a4cc508cd0818c85b8b8a1ab4ceeef8d981c8956a6808552600560205285852033865260205260ff8686205416156105df578461022c858561059361056b836002546111f4565b9050346102ba57826003193601126102ba576107fa610eb6565b6006549060ff82161561083c575060ff1916600655513381527f5db9ee0a495bf2e6ff9c91a7834c1ba4fdd244a5e8aa4e537bd38aeae4b073aa90602090a180f35b8251638dfc202b60e01b8152fd5b8383346101ad57806003193601126101ad57610864610df1565b90336001600160a01b0383160361088157506102b6919235610fb8565b5163334bd91960e11b81528390fd5b5050346101ad57816003193601126101ad57602090517f00000000000000000000000000000000000000000000000000000000000000008152f35b5050346101ad57816003193601126101ad576020905160128152f35b919050346102ba57806003193601126102ba576102b6913561090c600161029f610df1565b610f38565b5050346101ad57816003193601126101ad57602090517f3c11d16cbaffd01df69ce1c404f6340ee057498f5f00246190ea54220576a8488152f35b9050346102ba5760203660031901126102ba5781602093600192358152600585522001549051908152f35b839150346101ad5761098836610e07565b6001600160a01b038316808652600160209081528787203388529052868620549195929460001983106109c4575b602088610323898989611067565b868310610a2c578115610a155733156109fe57508252600160209081528683203384528152918690209085900390558290610323876109b6565b8751634a1406b160e11b8152908101849052602490fd5b875163e602df0560e01b8152908101849052602490fd5b8751637dc7a0d960e11b8152339181019182526020820193909352604081018790528291506060010390fd5b919050346102ba5760203660031901126102ba57813591838052600560205281842033855260205260ff828520541615610abe5750816020917f08a48ad3bb2618074fb7d12a7c2477ba8ef7cc679a1c674e2a0603eeca0098b19360075551908152a180f35b83604492519163e2517d3f60e01b835233908301526024820152fd5b5050346101ad57816003193601126101ad576020906002549051908152f35b919050346102ba576020836044610b0f36610e07565b96919390610b1b610e3c565b6001600160a01b0390811694610b328615156112d6565b8751988996879563a9059cbb60e01b87528601526024850152165af1908115610b925750610b5e575080f35b6020813d8211610b8a575b81610b766020938361102f565b810103126101ad57518015150361022f5780f35b3d9150610b69565b513d84823e3d90fd5b9050346102ba57816003193601126102ba57610bb5610dd6565b602435903315610c2e576001600160a01b0316918215610c1757508083602095338152600187528181208582528752205582519081527f8c5be1e5ebec7d5bd14f71427d1e84f3dd0314c0f7b2291e5b200ac8c7c3b925843392a35160018152f35b8351634a1406b160e11b8152908101859052602490fd5b835163e602df0560e01b8152808401869052602490fd5b919050346102ba57826003193601126102ba57805191836003549060019082821c928281168015610d30575b6020958686108214610d1d5750848852908115610cfb5750600114610ca2575b6103ab86866103a1828b038361102f565b929550600383527fc2575a0e9e593c00f959f8c92f12db2869c3395a3b0502d05e2516446f71f85b5b828410610ce857505050826103ab946103a1928201019438610c91565b8054868501880152928601928101610ccb565b60ff191687860152505050151560051b83010192506103a1826103ab38610c91565b634e487b7160e01b845260229052602483fd5b93607f1693610c71565b8491346102ba5760203660031901126102ba573563ffffffff60e01b81168091036102ba5760209250637965db0b60e01b8114908115610d7c575b5015158152f35b6301ffc9a760e01b14905083610d75565b6020808252825181830181905290939260005b828110610dc257505060409293506000838284010152601f8019910116010190565b818101860151848201604001528501610da0565b600435906001600160a01b0382168203610dec57565b600080fd5b602435906001600160a01b0382168203610dec57565b6060906003190112610dec576001600160a01b03906004358281168103610dec57916024359081168103610dec579060443590565b3360009081527feeef51456add28137dee44c0a07e15290938586a5bdfee7e2c8cef303163f44d60205260409020547fcf6f9f892731e14b8859835f2ff35575f447fb501f46243c4eb8bac19e31a0509060ff1615610e985750565b6044906040519063e2517d3f60e01b82523360048301526024820152fd5b3360009081527f99f2891db7a8db76249871a02b43b68c0bb8f22ef8a3bc1034ae9375ef6b7c3c60205260409020547f65d7a28e3265b37a6474929f336521b332c1681b933f6cb9f3376673440d862a9060ff1615610e985750565b80600052600560205260406000203360005260205260ff6040600020541615610e985750565b906000918083526005602052604083209160018060a01b03169182845260205260ff60408420541615600014610fb35780835260056020526040832082845260205260408320600160ff198254161790557f2f8788117e7eff1d82e926ec794901d17c78024a50270940304540a733656f0d339380a4600190565b505090565b906000918083526005602052604083209160018060a01b03169182845260205260ff604084205416600014610fb3578083526005602052604083208284526020526040832060ff1981541690557ff6391f5c32d9c69d2a47ea670b442974b53935d1edc7fd64eb21e047a839171b339380a4600190565b90601f8019910116810190811067ffffffffffffffff82111761105157604052565b634e487b7160e01b600052604160045260246000fd5b916001600160a01b03808416928315611134571692831561111b5761108a6112b8565b600090838252816020526040822054908382106110e9575091604082827fddf252ad1be2c89b69c2b068fc378daa952ba7f163c4a11628f55a4df523b3ef958760209652828652038282205586815220818154019055604051908152a3565b60405163391434e360e21b81526001600160a01b03919091166004820152602481019190915260448101839052606490fd5b60405163ec442f0560e01b815260006004820152602490fd5b604051634b637e8f60e11b815260006004820152602490fd5b906001600160a01b038216908115611134576111676112b8565b600092828452836020526040842054908282106111c25750817fddf252ad1be2c89b69c2b068fc378daa952ba7f163c4a11628f55a4df523b3ef926020928587528684520360408620558060025403600255604051908152a3565b60405163391434e360e21b81526001600160a01b03919091166004820152602481019190915260448101829052606490fd5b9190820180921161120157565b634e487b7160e01b600052601160045260246000fd5b1561121e57565b60405162461bcd60e51b815260206004820152600c60248201526b18d85c08195e18d95959195960a21b6044820152606490fd5b6001600160a01b031690811561111b577fddf252ad1be2c89b69c2b068fc378daa952ba7f163c4a11628f55a4df523b3ef60206000926112906112b8565b61129c816002546111f4565b60025584845283825260408420818154019055604051908152a3565b60ff600654166112c457565b60405163d93c066560e01b8152600490fd5b156112dd57565b606460405162461bcd60e51b81526020600482015260046024820152630746f3d360e41b6044820152fdfea264697066735822122054564b91b7749b4073db385cde0f2ef660ea0e2d91506acaee3e36973aa2914d64736f6c634300081400332f8788117e7eff1d82e926ec794901d17c78024a50270940304540a733656f0d",
  "linkReferences": {},
  "deployedLinkReferences": {}
}